:10200000008000205D6F0100456F0100456F0100F9
:1020100000000000000000000000000000000000C0
:10202000000000000000000000000000456F0100FB
:102030000000000000000000456F0100B16F0100CA
:10204000456F0100456F01008D510000456F010093
:10205000456F0100456F0100456F0100496F0100A8
:10206000456F0100456F0100456F0100357B0000A1
:10207000456F01009D6E01008D6E0100456F0100EE
:10208000456F0100456F0100456F0100456F01007C
:1020900000000000456F0100456F0100456F010021
:1020A000456F0100456F0100456F0100456F01005C
:1020B0000000000010B5064C2378002B07D1054B1B
:1020C000002B02D0044800E000BF0123237010BDA4
:1020D000B002002000000000687D0200044B10B533
:1020E000002B03D00349044800E000BF10BDC046E8
:1020F00000000000B4020020687D020010B504005A
:10210000183017F09AFA200010BD000010B50248F0
:1021100003F0D2FC10BDC0464008002070B5012578
:102120001A4C1B4B1B491C48E5541BF027FF1B494D
:102130001B481BF023FF1B491B481BF01FFF1B4BB9
:102140001B491C48E5541BF019FF1B4B1B4A1C493B
:10215000E25205220233E2520433E552194B1A4887
:10216000E5540223E571E372237325721BF006FF29
:10217000164917481BF002FF164917481BF0FEFED0
:10218000164917481BF0FAFE70BDC046F445002002
:102190004B04000022160200BC4900202C1602004D
:1021A0002F480020331602000E480020490400008A
:1021B00043160200394800201202000010270000D8
:1021C000681602004A040000234600206C16020034
:1021D00043460020F5240200634600206E160200EC
:1021E000A34600200A21435E0200181E01D01B01F5
:1021F000D018704770B50D00041E0FD0C168A942F9
:102200000CD0002D06D0002904D028001BF0ACFE15
:10221000002803D02000FFF7E5FFEDE7200070BDA8
:102220004A688B681032934204D201230B74002356
:1022300018007047103B8B60002BF9D04268002AD1
:1022400008D0991A09115181002243605A811A72EB
:10225000DA60EDE70360F7E7F7B5037804000D00F7
:102260002B2B1DD02D2B1CD10127013423781A00D4
:10227000303A092A02D92E2B00D0C9E000200A26C4
:10228000644922781300303BDBB2092B0BD888421B
:1022900011D8DA43704382420DD3C0180134F0E7FD
:1022A00001340027E2E7002A05D1002F18D080234F
:1022B0001B06984209D90026574B98421AD90A2181
:1022C000013617F039FD76B2F6E77F222B7A4042CD
:1022D00093431A000A2313432B7228603800FEBD73
:1022E0007F222B7A286093431A00082313432B7212
:1022F0000127F3E723781A00303A092A03D8013678
:1023000076B20134F6E72E2B0FD10A21434A01346D
:102310002378303BDBB2092B07D8904203D84843DF
:10232000013E181876B20134F2E7202322789A434E
:102330000023452A3AD162782D2A1FD10234013375
:102340000193002321783039CAB2092A2AD80A22F7
:102350005343CB18F118262922DD019A2B7A7F20CE
:10236000002A11D00024002F01D0802424060C2143
:1023700083430B432B722C60019FAFE72B2A01D0C4
:102380000134DDE70234DBE7002F06D024490C22BC
:10239000834313432B722960AAE7FF21C905F6E79F
:1023A0000134CFE7019A002A00D05B422478002C48
:1023B0002ED1F61818F094FD002E1ADD01231E42CE
:1023C00004D0184AA300D15818F074FA01347610DA
:1023D000E4B2002EF2D1002F02D080231B06C018D9
:1023E0007F222B7A286093431A000C2313432B720D
:1023F0007EE77642002EEED001231E4204D00A4A28
:10240000A300D15818F056FA01347610E4B2F1E77F
:10241000002763E799999919FFFF7F00CBCC0C0047
:10242000000080FFC8130200B013020070B50D0059
:10243000164E17490400300017F062F815493000B5
:1024400017F05EF81449300017F05AF80A222900F4
:10245000300017F0E2F8002D02D18021890008E059
:10246000012DFAD08021022D02D0042D05D1C021EA
:10247000C900200014F0F5FB70BD8021082D02D0AA
:10248000102DEAD1A0210901F3E7C04668540020CD
:10249000C6190200D8190200E419020070B5094CEF
:1024A000200002F017FB084D2100280002F0C8FDB3
:1024B0000028F4D0200002F099FD2800002102F04D
:1024C0005FFD70BD68540020F445002070B592B0E7
:1024D000FFF71CFE8A4C03A8210017F0FDF821002D
:1024E00006A817F0F9F8210009A817F0F5F821005F
:1024F0000CA817F0F1F8834906A817F085F9824C6B
:102500000FA8210003F032FE0FA909A817F074F9F3
:102510000FA817F092F821000FA803F043FE0FA9AF
:102520000CA817F069F90FA817F087F8774C7849CD
:1025300020001BF023FD774920001BF0F9FC7649B1
:1025400020001BF0F5FC754D200029001BF0F0FC6D
:10255000734920001BF0ECFC724E200031001BF090
:10256000E7FC069920001BF0E3FC310020001BF083
:10257000DFFC290020001BF0DBFC6B4920001BF076
:10258000D7FC310020001BF0D3FC099920001BF080
:10259000CFFC310020001BF0CBFC290020001BF0F9
:1025A000C7FC624920001BF0C3FC310020001BF077
:1025B000BFFC0C9920001BF0BBFC310020001BF07D
:1025C000B7FC290020001BF0B3FC594920001BF088
:1025D000AFFCFFF79BFD0A2201000FA817F0BEF821
:1025E0000F9920001BF0A4FC0FA817F026F8290073
:1025F00020001BF09DFC4F4920001BF099FC852317
:102600004D4E9B00F15A0A220FA817F095F80F992A
:1026100020001BF08DFC0FA817F00FF829002000F8
:102620001BF086FC454920001BF082FC444B0A222B
:10263000F15A0FA817F080F80F9920001BF078FCD2
:102640000FA816F0FAFF290020001BF071FC3D498D
:1026500020001BF06DFC86239B00F15A0A220FA874
:1026600017F06AF80F9920001BF062FC0FA816F013
:10267000E4FF354920001BF05BFC344D0A2234494D
:10268000280016F0AAFF0A223249280016F0A5FFFA
:102690002100280016F050FF2F49280016F04CFFAB
:1026A0002E490FA817F018F806A90FA817F033F94C
:1026B0002B4917F03DF900222A4E00921300010029
:1026C000300013F077FE0FA816F0B7FF210030009E
:1026D00016F016FF300014F05CFA2349280016F0BB
:1026E0002BFF0CA816F0A9FF09A816F0A6FF06A854
:1026F00016F0A3FF03A816F0A0FF12B070BDC046ED
:1027000024550200BC49002074070020B4080020B2
:1027100082170200841702008C170200971702002C
:10272000991702006D260200A7170200B3170200D6
:10273000BC170200C9170200F4450020D31702009D
:1027400012020000DF170200EA170200685400209E
:102750003D3D3D3D6E6F734AEC17020005180200C7
:102760000E180200780700202018020003280FD856
:10277000104BDB7A0020012B12D0022B13D0042B3C
:1027800013D0082B13D0FE21102B0AD0002109E012
:102790000438032802D8074B1B7BEBE70020F5E742
:1027A000FF21890570470449FCE70449FAE7044919
:1027B000F8E7C046F44500200000B03F0000A03F0D
:1027C0000000903FF0B59DB004000291FFF79EFC21
:1027D0002F4D0AA8290016F07FFF29000DA816F03A
:1027E0007BFF290010A816F077FF2A4913A816F0DE
:1027F00073FF290016A816F06FFF274D2749280000
:1028000016F09AFE2649280016F07AFE0A2202994E
:10281000280016F0E2FE234B0834DA79197A0023F7
:102820001F0009930893079306930593049303935A
:102830000298834238DA002A10D065682068AC46D6
:102840003F18A56803986044AC460390E568049877
:102850006044AC460490059860440590002913D06C
:1028600025690698AC4665696044AC460690A56942
:1028700007986044AC460790E56908986044AC4608
:10288000089009986044099001334834D0E7C04665
:1028900024550200721602006854002079160200C6
:1028A0009A160200F4450020F54CF649200016F077
:1028B00043FEF54BDB79002B23D0F449200016F0C2
:1028C0001FFE0A223900200016F091FEF049200078
:1028D00016F016FE0A220399200016F088FEED4934
:1028E000200016F00DFE0A220499200016F07FFE4B
:1028F000E949200016F004FE0A220599200016F08E
:1029000076FEE14B1B7A002B24D0DD4CE3492000FE
:1029100016F0F6FD0A220699200016F068FEE0493E
:10292000200016F0EDFD0A220799200016F05FFE48
:10293000DC49200016F0E4FD0A220899200016F078
:1029400056FED949200016F0DBFD0A220999200025
:1029500016F04DFED54910A816F056FFC84CD449C4
:10296000200016F0CDFD10A9200016F0DBFDD14EA1
:10297000D14930001BF002FBD04930001BF0D8FADF
:10298000CF4930001BF0D4FACE4C300021001BF0B0
:10299000CFFACD4930001BF0CBFACC4D30002900E6
:1029A0001BF0C6FA109930001BF0C2FA2900300063
:1029B0001BF0BEFA210030001BF0BAFAC449300007
:1029C0001BF0B6FAFFF7A2FB0A22010019A816F0C5
:1029D000C5FE199930001BF0ABFA19A816F02DFEB0
:1029E000210030001BF0A4FABA4930001BF0A0FA15
:1029F000B94B0A22197819A816F08DFE19993000E2
:102A00001BF096FA19A816F018FE9F4BDB7B002BE3
:102A100033D0210030001BF08BFA290030001BF06E
:102A200087FAAE4919A816F057FE199930001BF025
:102A30007FFA19A816F001FEA94930001BF078FAB8
:102A40000020FFF793FE04000D003800029917F0F4
:102A5000FDF919F0B7FF22002B0019F0A7F90B00C0
:102A600002210200009119A816F0D9FE1999300030
:102A70001BF05EFA19A816F0E0FD834C2F34237882
:102A8000002B34D08B4E8F4930001BF051FA8F4908
:102A900030001BF04DFA210019A816F01DFE1999FF
:102AA00030001BF045FA19A816F0C7FD8C4930001C
:102AB0001BF03EFA0120FFF759FE04000D000398B9
:102AC000029917F0C3F919F07DFF22002B0019F0CD
:102AD0006DF90B0002210200009119A816F09FFE6B
:102AE000199930001BF024FA19A816F0A6FD664DBE
:102AF000704C4F352B78002B33D0724920001BF0DF
:102B000017FA724920001BF013FA290019A816F0D1
:102B1000E3FD199920001BF00BFA19A816F08DFDA2
:102B20006F4920001BF004FA0220FFF71FFE060089
:102B30000F000498029917F089F919F043FF320049
:102B40003B0019F033F90B0002210200009119A893
:102B500016F065FE199920001BF0EAF919A816F085
:102B60006CFD494E6F363378002B34D0514D5549AA
:102B700028001BF0DDF9554928001BF0D9F9310078
:102B800019A816F0A9FD199928001BF0D1F919A868
:102B900016F053FD524928001BF0CAF90320FFF735
:102BA000E5FD06000F000598029917F04FF919F09E
:102BB00009FF32003B0019F0F9F80B000221020076
:102BC000009119A816F02BFE199928001BF0B0F9F6
:102BD00019A816F032FD2C4E8F363378002B34D0E6
:102BE000344D384928001BF0A3F9384928001BF060
:102BF0009FF9310019A816F06FFD199928001BF0F4
:102C000097F919A816F019FD354928001BF090F91D
:102C10000420FFF7ABFD06000F000698029917F09D
:102C200015F919F0CFFE32003B0019F0BFF80B0088
:102C300002210200009119A816F0F1FD199928004F
:102C40001BF076F919A816F0F8FC0F4EAF36337862
:102C5000002B68D0174D1B4928001BF069F91B4950
:102C600028001BF065F9310019A816F035FD1999F7
:102C700028001BF05DF919A816F0DFFC32E0C04611
:102C800068540020B6160200F4450020C616020063
:102C9000D7160200E8160200F91602000A17020011
:102CA0001B1702002C1702003D170200BC49002030
:102CB0004E170200B4080020821702008417020099
:102CC0005E17020097170200991702006D26020096
:102CD000BC17020065170200FC020020034600201A
:102CE000B91702006B4928001BF022F90520FFF7F5
:102CF0003DFD06000F000798029917F0A7F819F09C
:102D000061FE32003B0019F051F80B000221020075
:102D1000009119A816F083FD199928001BF008F9F5
:102D200019A816F08AFC5C4DCF352B78002B33D0D8
:102D30005A4920001BF0FCF8594920001BF0F8F814
:102D4000290019A816F0C8FC199920001BF0F0F80A
:102D500019A816F072FC4F4920001BF0E9F8062074
:102D6000FFF704FD06000F000898029917F06EF8AF
:102D700019F028FE32003B0019F018F80B00022170
:102D80000200009119A816F04AFD199920001BF0C5
:102D9000CFF819A816F051FC3F4DEF352B78002BDA
:102DA00033D03E4920001BF0C3F83D4920001BF002
:102DB000BFF8290019A816F08FFC199920001BF004
:102DC000B7F819A816F039FC324920001BF0B0F80A
:102DD0000720FFF7CBFC06000F000998029917F0B7
:102DE00035F819F0EFFD32003B0018F0DFFF0B0063
:102DF00002210200009119A816F011FD1999200076
:102E00001BF096F819A816F018FC264E264930003B
:102E10001BF08EF8254C2649200016F08DFB310062
:102E2000200016F089FB2349200016F085FB22497B
:102E300019A816F051FC10A919A816F06CFD1F492D
:102E400016F076FD00221E4D0092130001002800AE
:102E500013F0B0FA19A816F0F0FB3100280016F0B4
:102E60004FFB280013F095FE1649200016F064FB76
:102E700016A816F0E2FB13A816F0DFFB10A816F058
:102E8000DCFB0DA816F0D9FB0AA816F0D6FB1DB086
:102E9000F0BDC046B9170200F445002097170200A4
:102EA0006D260200B4080020EA17020068540020D2
:102EB00077170200EC170200051802000E18020036
:102EC000780700202018020070B505000024AC42ED
:102ED0000FDA0121062014F0FFFAC82002F040F9B1
:102EE0000021062014F0F8FAC82002F039F9013464
:102EF000EDE770BDF8B5624D04006249280016F098
:102F00001BFB614BDB79002B40D0604E032130006E
:102F100013F0E6FE07005E493FB2280016F0F0FA13
:102F20000A223900280016F058FBA7600221300061
:102F300013F0D6FE070057493FB2280016F0E0FA1A
:102F40000A223900280016F048FBE7600121300012
:102F500013F0C6FE070050493FB2280016F0D0FA21
:102F60000A223900280016F038FB002130002761C2
:102F700013F0B6FE0600494936B2280016F0C0FA32
:102F80000A223100280016F028FB66613E4B1B7AAE
:102F9000002B40D0424E0321300013F0A1FE070069
:102FA00040493FB2280016F0ABFA0A223900280047
:102FB00016F013FBA7610221300013F091FE070009
:102FC00039493FB2280016F09BFA0A22390028003E
:102FD00016F003FBE7610121300013F081FE0700CA
:102FE00032493FB2280016F08BFA0A223900280035
:102FF00016F0F3FA00213000276213F071FE06008C
:103000002B4936B2280016F07BFA0A22310028003C
:1030100016F0E3FA6662FA20800016F06FF9A062FB
:10302000FA20800016F06AF9E062FA20800016F0BB
:1030300065F92063FA20800016F060F96063FA20D9
:10304000800016F05BF9A063FA20800016F056F9B4
:10305000E063FA20800016F051F92064FA20800025
:1030600016F04CF9134B084A6064D35C002B02D075
:103070000120FFF729FFFFF749F82060F8BDC0469F
:1030800068540020BF150200F4450020FE02002015
:10309000DA150200E3150200EC150200F515020036
:1030A00004030020FE15020007160200101602009D
:1030B000191602004A04000073B51A4C1A49200080
:1030C00016F03AFAFA261949200016F035FA0125C9
:1030D00002F022F8B60000950123154A154916485A
:1030E00002F0DAFC032807D01449200016F008FA91
:1030F000300013F0A1FFEEE72900114802F0D2F8EA
:103100000428F1D10F49200016F016FA0A2001F028
:10311000ADFF0D49200016F00FFA200016F0FAF965
:1031200073BDC04668540020E8190200161A020058
:103130000E4800202F48002040080020D81502002B
:1031400018030020221A02002C1A0200F0B55D4D6F
:103150005D4987B0280016F0EFF95C4C0121200092
:1031600002F07CFA200002F041FA0028FAD0584917
:10317000280016F0C5F95749200002F009F9FA2194
:103180000022C900200002F00FFA534E280031003F
:1031900016F0D2F95149280016F0CEF95049200016
:1031A00002F0F6F84F4A6421200002F0FDF93100E8
:1031B000280016F0C1F94C49280016F0A1F9FA27A9
:1031C0004A49200002F0E4F8BF00642013F034FF05
:1031D0004749280016F094F9200002F007FA00226F
:1031E0003900200002F0E0F90128EED1310028007A
:1031F00016F0A2F93F49280016F09EF9FA273E4939
:10320000200002F0C5F8BF00642013F015FF384914
:10321000280016F075F9200002F0E8F900223900C4
:10322000200002F0C1F90128EED13100280016F08B
:1032300083F93249280016F07FF9632730492000CE
:1032400002F08CF8FA21274AC900200002F0ACF9FC
:103250002C4903A816F040FA03A9224816F0DAFB1D
:10326000019003A816F0E9F9019B01330CD0019BF2
:1032700006221C4903A816F01DFC03A816F08EFCBC
:10328000070003A816F0D9F9FA20800013F0D4FE45
:103290001F2FD3DC3100280016F04EF91A49280000
:1032A00016F04AF92000194902F072F8FA210D4A85
:1032B000C900200002F078F93100280016F03CF92E
:1032C00007B0F0BD68540020E0130200444A00201B
:1032D000021402001F140200291402002F1402001D
:1032E00054140200A80800205E1402008A14020090
:1032F000D815020095140200CC140200D614020066
:1033000013150200971702001A150200311502006A
:10331000F0B524C8954211D90800130007781C782D
:103320005E1CBC4204D1002C09D001303300F5E70B
:10333000187801331A000028FAD1EBE700221000B8
:10334000F0BD0023F0B585B007000C000291039298
:103350000093994208D00168994208D17F22237ACC
:103360009343237201230093009805B0F0BD039EA0
:103370003000FFF7CDFF051E1BD1BB6875680193B8
:10338000B2680133EB18934207D9012333747F22CB
:10339000237A934323720023E5E77360002DF6D070
:1033A000019A3968280019F054FD6A46019B127889
:1033B000EA547F22237A256093431A00052313439E
:1033C0002372CFE770B5037A0D0016007F211A0033
:1033D00004000A4005D18B435F390B43037202603E
:1033E00042602022237A1340181E12D0281E10D0CB
:1033F00029002068FEF7FEFE00280AD131002000D7
:10340000FEF70EFF002804D07F22037AC560134028
:10341000037270BD10B50200037A20200340181E0D
:1034200002D01068FEF7E6FE10BD437C002B06D1EB
:10343000C3685A1CC2601B78037401234374007C68
:10344000704710B504002000FFF7EFFF0A2806D8E8
:10345000092808D2002809D0012020720CE00D288C
:1034600001D02028F8D100236374ECE7237A583484
:103470005A1E93410133237010BD1FB57F220300F4
:10348000007A1040043808282ED816F041FC0F0F9F
:10349000052D082D0D2D1A00187804B010BD1868E0
:1034A000C343DB171840F8E71868F6E718680023ED
:1034B00001AC23722100FEF7CFFE2000FFF7DDFFF5
:1034C000EBE7CF211C680906201C16F025FE00281A
:1034D000E3D09E21201CC90516F00AFE0028DCD08E
:1034E000201C17F0DDFCD8E70020D6E770B530C807
:1034F00014340E0020002900FFF78CFF002806D0AE
:103500007F22037A1340082B03D00A2B04D03068A3
:103510000AE00368002BFADB29002000FFF77AFF9E
:10352000002801D0FFF7A9FF70BD70B504000D00A1
:10353000FFF77BFF0023A84201D163740133180019
:1035400070BD2F2815D90123392803D95E2803D946
:103550007A2803D81800704740280AD901235A282E
:10356000F8D9002301222D38C0B282425B41DBB280
:10357000F0E701232B28F4D1ECE737B500236A46A6
:103580001370C3B27F280BD853706B460233013BD4
:103590001878002831D00A68541C0C601070F6E7C7
:1035A0003F2480226D4623405242134380096B70B2
:1035B00085B2C3B21F2D06D8403213436A469370BA
:1035C0006B460333E3E76D46234000041343800D4D
:1035D000AB70C3B20F2805DC202252421343EB70BC
:1035E00001ABD4E71C40102380115B4218436B46AB
:1035F0002243EA7028710533C9E737BDF7B50500E6
:103600000027FFF712FF6F7401902800FFF70DFFEE
:103610000024019A03006C74824259D0A04204D164
:103620000223583500202B70FEBD5C284BD12800AA
:10363000FFF7FBFE0028F3D0284B752839D104266C
:103640006C742800FFF7F1FE0028E9D0402806D866
:103650003038C0B20F2806D958350323E2E72023BB
:1036600098433738F5E700232401013E0443F6B2BE
:10367000A4B26B749E42E4D1A0239B01E318184AC4
:103680009BB2934202D8A405A70DBEE790239B01ED
:10369000E3189BB22000934206D880238005BC0229
:1036A000800D20435B02C0182900FFF766FFACE7DE
:1036B00002331A78002ACFD09042F9D15B78002BE0
:1036C000CAD000226A742A68511C296013709CE7D2
:1036D0002B6801205A1C2A601C70A5E75A1A0200A8
:1036E000FF030000036870B543600400FFF79DFE10
:1036F00027280DD022280BD02000FFF796FE0500CA
:10370000FFF71FFF061E09D103235834237003E07F
:103710002000FFF773FF0600300070BD00236374C4
:10372000236820005A1C22601D70FFF77EFE0500F2
:10373000FFF707FF0028F1D123685A1C2260187098
:10374000EAE7F7B504000D001F1CFFF77AFE0190B1
:10375000002801D1002658E02000FFF766FE272848
:1037600000D17BE01DD8222800D177E02000FFF7B0
:103770005CFE002600900098F7B2FFF7E2FE0028FA
:1037800000D17EE00136402E00D179E06A46002368
:1037900012786374A319DA752000FFF746FE0090D3
:1037A000E9E75B2813D07B28E0D17F222B7A290020
:1037B00093431A00202313432B72002300222B6013
:1037C0006B6020003B1C00F087F806001DE07F22A4
:1037D0002B7AFFB293431A00402313432B7200232A
:1037E0002B606B609F4203D1583405332370B1E7DF
:1037F00063742000FFF725FE0028ABD05D21200078
:10380000FFF793FE061E02D0019E3000FEBD6169E7
:103810002800FEF705FD011E03D104235834237050
:10382000F3E77B1E00222000FFF78BFF002800D16A
:1038300090E72000FFF705FE002800D18AE75D2110
:103840002000FFF772FE0028DED12C212000FFF7B8
:103850006CFE0028DBD158340323C7E7236820001F
:103860006360FFF7CBFE061E00D173E77F2263681B
:103870002B602B7A93431A00042313432B72C4E763
:103880003F270021E3191976237E742B0DD17F2267
:103890002B7A93431A00062313432B7201232B70B8
:1038A000042FB1D058340223A0E7662B0AD17F221F
:1038B0002B7A297093431A00062313432B72052F8A
:1038C000F0D1A1E76E2BEBD0200029001830FEF7D5
:1038D000C3FC0028BFD097E7F7B5DFB204000E00A5
:1038E000002F04D105235834237000250DE0002358
:1038F0004374FFF7A6FD01900028F6D07D2120003B
:10390000FFF713FE051E28D0019D2800FEBD636849
:10391000306819000093FEF76DFC002831D00100DB
:103920007B1E00222000FFF70CFF0028DDD02000C6
:10393000FFF787FD0028D8D07D212000FFF7F5FD97
:103940000028E1D12C212000FFF7EFFD002814D042
:103950002000FFF776FD0028C7D02000FFF7C2FE49
:103960000028C2D02000FFF76CFD0028BDD03A210E
:103970002000FFF7DAFD0028C9D103235834237053
:10398000C3E761693000FEF74BFC002802D15834D0
:103990000423F4E77F22037A13400372009BC36081
:1039A000BDE710B50400006803685B68984763686A
:1039B0001818606010BD70B5050008000C001AF002
:1039C000E5FA210002002800FFF7EBFF70BDF0B51B
:1039D000162407000D000A2687B06C442800310029
:1039E00016F030FA013C303121702800310016F019
:1039F000A3F9051EF2D116236B441A1B21003800CF
:103A0000FFF7CFFF07B0F0BD10B5040000680368F2
:103A10005B68984763681818606010BD70B5050052
:103A200008000C001AF0B2FA210002002800FFF78B
:103A3000EBFF70BDF0B5162407000D000A2687B015
:103A40006C442800310016F0FDF9013C3031217042
:103A50002800310016F070F9051EF2D116236B44D0
:103A60001A1B21003800FFF7CFFF07B0F0BD0000A0
:103A70000623F7B50E1C070083725849301C16F058
:103A80004BFB002844D00023142420250093544BE2
:103A9000311C185916F02CFB002809D0514B301C52
:103AA000195916F007FF009B061CE81803B2009393
:103AB000043C6D10231DEAD103340021301C16F0A4
:103AC00021FB002828D0301C18F0E8FF464A474B5D
:103AD00016F0D4FA00281FD0A300019323061BD4AC
:103AE000434B019A311C985816F00CFB00280AD061
:103AF0003B4B019A301C995816F0DCFE009B061CCB
:103B0000581B03B20093019B6D10013C043BE4E79A
:103B1000202505240090D0E76B461B88301C3B8194
:103B200016F072FB0400334D38600190019B092BA5
:103B30000DD90A21280016F0FFF8BB7A0500013BD9
:103B40000198BB720A2116F0F7F80190EEE7200009
:103B500017F0C6F9011C301C16F0DEFF061C280009
:103B600017F0BEF9011C301C16F0A4FE019016F0EF
:103B70004BFB060017F0B4F9011C019816F0CCFFBE
:103B8000011C16F037FC16F03FFB8619AE4214D22A
:103B90007E600A257E682900300016F053F900295E
:103BA0001AD10A243C57002C16DD2900300016F0EB
:103BB000C3F8013C7860BC72ECE700237B60009B9B
:103BC00001343C60002BE4D0092CE2D91800012319
:103BD000013038813B60DCE73800FEBD8096184B31
:103BE000C8130200B0130200F168E388B5F8E43EA0
:103BF0009813020040420F0010B5040000680368EB
:103C00001B68984763681818606010BD70B50D0098
:103C1000040022212000FFF7EFFF2978002909D0B6
:103C20000A4B01351E78002EF4D05A788A4206D00D
:103C30000233F7E722212000FFF7DEFF70BD5C2191
:103C40002000FFF7D9FF3100E4E7C0465C1A02000C
:103C5000F0B504008DB0081C0E1C16F039FA0028CF
:103C600005D141492000FFF7A6FE0DB0F0BD0021AF
:103C7000301C16F02DFA002809D1311C301C16F02A
:103C8000B9FB011C301C16F023FA0028E9D10021F1
:103C9000301C16F023FA002806D02D212000FFF753
:103CA000ABFF80231B06F61803AD311C2800FFF77D
:103CB000DFFE03992000FFF78AFE0A23EB560093EC
:103CC000002B23D06F6801930AAE019B013E013B9C
:103CD0005BB2019301330BD038000A2116F0B2F821
:103CE0003031317038000A2116F026F80700ECE771
:103CF0006B461B782026D9432E228B1902A8C2546A
:103D00000AAB4A4220005918FFF74BFE0822AB5E6F
:103D1000002BAAD065212000FFF76EFF0823EE5E7E
:103D2000B5B2002E05DA2D212000FFF765FF7542A0
:103D3000ADB226260A2702ABF6182800390016F085
:103D400081F8013E303131702800390015F0F4FF60
:103D500085B2002DF1D1262302AA9B189A1B3100AF
:103D60002000FFF71EFE80E7551A02007F2270B583
:103D7000037A05000C001340062B00D169E008D837
:103D8000022B0DD3032B50D806CD2000FFF709FEE0
:103D900025E00C2B1FD005D8082B58D00A2B49D072
:103DA00030495BE0202B21D0402BF9D15B21200052
:103DB000FFF722FF2D68002D13D021002800FFF708
:103DC000D5FF2800FEF70EFA051E0AD02C21200090
:103DD000FFF712FFEFE701682000FFF739FF606887
:103DE00070BD5D212000FFF707FFF8E77B21200071
:103DF000FFF702FF2D68002D15D0E9682000FFF7BE
:103E000005FF3A212000FFF7F7FE21002800FFF709
:103E1000ADFF2800FEF7E6F9051E04D02C21200096
:103E2000FFF7EAFEE7E77D21DCE701682000FFF706
:103E3000EDFED4E70568002D04DA2D212000FFF700
:103E4000DBFE6D4229002000FFF7C1FDC7E70168D6
:103E5000F9E703780449002B00D104492000FFF75B
:103E6000AAFDBCE7551A02006B1A0200701A020084
:103E700010B50C00002802D0FFF778FF10BD20001D
:103E80000249FFF798FD6068F8E7C046551A02003E
:103E900010B50400006803681B6898476368181829
:103EA000606010BDF0B504008DB0081C0E1C16F04B
:103EB0000FF9002805D141492000FFF7AFFD0DB0F3
:103EC000F0BD0021301C16F003F9002809D1311C87
:103ED000301C16F08FFA011C301C16F0F9F800287F
:103EE000E9D10021301C16F0F9F8002806D02D2168
:103EF0002000FFF7CDFF80231B06F61803AD311C11
:103F00002800FFF7B5FD03992000FFF793FD0A2372
:103F1000EB560093002B23D06F6801930AAE019BF0
:103F2000013E013B5BB2019301330BD038000A2103
:103F300015F088FF3031317038000A2115F0FCFE91
:103F40000700ECE76B461B782026D9432E228B19FD
:103F500002A8C2540AAB4A4220005918FFF754FD88
:103F60000822AB5E002BAAD065212000FFF790FF4E
:103F70000823EE5EB5B2002E05DA2D212000FFF7F2
:103F800087FF7542ADB226260A2702ABF618280035
:103F9000390015F057FF013E3031317028003900EB
:103FA00015F0CAFE85B2002DF1D1262302AA9B1876
:103FB0009A1B31002000FFF727FD80E7551A020009
:103FC00070B50D00040022212000FFF761FF297861
:103FD000002909D00A4B01351E78002EF4D05A78FA
:103FE0008A4206D00233F7E722212000FFF750FF74
:103FF00070BD5C212000FFF74BFF3100E4E7C046B5
:104000005C1A02007F2270B5037A05000C00134091
:10401000062B00D169E008D8022B0DD3032B50D812
:1040200006CD2000FFF7F0FC25E00C2B1FD005D8B3
:10403000082B58D00A2B49D030495BE0202B21D0E7
:10404000402BF9D15B212000FFF722FF2D68002DC6
:1040500013D021002800FFF7D5FF2800FEF7C2F893
:10406000051E0AD02C212000FFF712FFEFE70168A0
:104070002000FFF717FF606870BD5D212000FFF78B
:1040800007FFF8E77B212000FFF702FF2D68002DD6
:1040900015D0E9682000FFF793FF3A212000FFF7D1
:1040A000F7FE21002800FFF7ADFF2800FEF79AF881
:1040B000051E04D02C212000FFF7EAFEE7E77D2152
:1040C000DCE701682000FFF77BFFD4E70568002DDF
:1040D00004DA2D212000FFF7DBFE6D4229002000CD
:1040E000FFF7A8FCC7E70168F9E703780449002B4C
:1040F00000D104492000FFF791FCBCE7551A0200EB
:104100006B1A0200701A0200F0B5584FD5B058492A
:10411000380015F011FAFA20400101F021F8FDF7FE
:10412000F5FF544905A815F0D7FA534B0BA81968A9
:1041300019F024FF2CAC34AB2C93636054ABA36018
:10414000E36000237F252374237F2200AB43237782
:104150004A4931A8FFF736F9002806D00423027A2D
:10416000AA4313430372464B0360FDF7CFFF2200BF
:104170000500444931A8FFF725F9002807D07F2220
:10418000037A056093431A00082313430372220045
:104190003D4931A8FFF716F92200010008903B487D
:1041A0000994FFF7CEF82200394931A8FFF70AF940
:1041B000061E16D00BA92000FFF7AAF8051E4BD14A
:1041C0000BA819F0E3FE030065680133A268EB1841
:1041D0000390934235D9012323747F22337A93438A
:1041E0003372002408A931A808970994FFF740FE0C
:1041F000380015F08FF9274905A815F005FB23496C
:1042000005A815F04AFB244905A815F058FB234DD5
:104210002300220005A90094280012F0CBF808A979
:1042200031A808950994FFF7EDFE280012F0B1FCC3
:104230001049114815F0E8FA05A815F0FEF955B037
:10424000F0BD6360002DC8D0039A0BA9280018F0B8
:1042500000FE0023039AAB547F22337A35609343E8
:104260001A00052313433372BBE7C046685400208D
:104270008C19020024550200D8020020A81902005F
:10428000A2190200AD190200B7190200CC020020E9
:10429000BE190200051802000E180200780700205F
:1042A000F8B5424E424F3100380015F015FA414C36
:1042B000414D22002900380015F022FD3F4F31000A
:1042C000380015F009FA22002900380015F018FD11
:1042D0003B4F3100380015F0FFF92200290038006B
:1042E00015F00EFD374F3100380015F0F5F92200BA
:1042F0002900380015F004FD334F3100380015F067
:10430000EBF929002200380015F0FAFC2F4F380095
:1043100000F05CFF22002E49380015F0F1FC2D4F13
:104320000021380001F040FA22002B49380015F036
:10433000E7FC2A4F0121380001F0B8FE220028498D
:10434000380015F0DDFC3900264803F029FD220075
:104350002549244815F0D4FC244F2249380011F097
:1043600093FE22002249380015F0CAFC214801F0D2
:10437000F1FE214F3100380015F0AEF9220029007E
:10438000380015F0BDFC1D4F3100380015F0A4F9C0
:1043900022002900380015F0B3FC4821184812F01B
:1043A00059FC4921174812F055FCF8BD245502006C
:1043B000A8080020000000203B960100E402002035
:1043C000CC020020F0020020D802002018030020B8
:1043D000A151000040080020FD20000068080020D6
:1043E000B95B0000A80A0020E17C000078070020EB
:1043F0007D5F010074070020C84500200C030020E9
:10440000FE02002004030020F0B56D4B85B01A7841
:104410006C4B05201A70FEF757FDFEF797FE6A4CAD
:104420006A49200015F088F800F076FEE12168481E
:10443000490214F035FD674E300000F083FD6649F7
:10444000300000F0FFFD300000F07CFDFEF726F8A4
:10445000624F380002F0F4F9002804D160492000CE
:1044600015F06AF8FEE75F4D08220021280002F0EF
:104470006FFF390001A802F0F1FA0199280002F05B
:1044800085FF01A815F0D9F8280003F02DF9564949
:10449000564803F070FB280002F072FF0700280066
:1044A00002F071FF3A0003000021514803F082FC42
:1044B000504BF35C504E012B0BD15049200015F0AE
:1044C0003BF84F494F4815F09FF94F49300015F020
:1044D0009BF94E4D3100280015F0DFF94C492800BA
:1044E00015F0EDF9474F2800390015F0D6F9494984
:1044F000280015F0E4F94849200015F001F82900DA
:10450000200015F00FF8454E3900300011F0C4FDC1
:10451000434901A815F0E0F801AA2900300011F084
:10452000C0FD01A815F089F830003E4911F0B2FD38
:1045300000233D4E01210620336012F081FFE1216E
:104540002348490214F0ACFCE1212000490213F099
:104550003DFB00F0E1FD3549200014F0EDFF0A209D
:1045600000F084FD3249200014F0E6FF00F0E8FD81
:10457000184DEB79002B0CD02E49200014F0C0FF11
:10458000E97A0A22200015F04CF8E97A2A48FDF76A
:104590004DFF2B7A002B0CD02849200014F0B0FFDF
:1045A000297B0A22200015F03CF8297B2448FDF7DE
:1045B0003DFF244801F0D0FD0023336005B0F0BD7D
:1045C00038040040FC02002068540020211B020037
:1045D000A84F0020F44500201D210000EC4A0020D7
:1045E000311B0200904B00200D210000784E00206E
:1045F000A80A00204B040000F0020020441B020027
:10460000BC490020CC02002039480020C8450020C9
:104610000C180200671B02007F1B020078070020B5
:104620002455020039480000380300208B1B02008B
:10463000991B0200A31B0200FE020020BB1B02000C
:10464000040300207407002030B5A5B03149684646
:1046500015F042F83049684615F0D6F82F496846FB
:1046600015F01BF92E49684615F029F92D4C2E49F5
:10467000200014F061FF00F04FFD2C4B03A81968D7
:1046800019F07CFC2A49200014F03AFF03A920000D
:1046900014F036FF2749200014F04EFF264D274A1C
:1046A00003A9280012F046FA00280FD1244920005F
:1046B00014F026FF280011F000FD0A22010020005E
:1046C00014F08BFF1F4812F0B7FCE7E7200014F04E
:1046D00021FF1D49200014F02FFF200014F01AFFC5
:1046E0001A49200014F00CFF6946200014F01AFF4C
:1046F00000226946280012F000F91549200014F044
:104700001BFF0A2000F0B2FC684614F096FF25B0AB
:1047100030BDC0462455020005180200CC0200201E
:104720004515020068540020161A0200F00200200D
:104730005D150200EC23020078070020B322000080
:10474000D815020088130000791502009D1502009B
:10475000221A0200F8B52B4C2B49200014F0ECFE75
:1047600000F0EEFC294801F003FA032844D0FEF7DC
:10477000A3FC274811F003FD002801D1FFF764FFD7
:104780000220FEF7A1FB2349200014F0D5FE4820AB
:104790008527214DBF002B6858435A1C1F4B2A60A8
:1047A000C018FEF7A7FB1E49200014F0A9FE0A223C
:1047B0002968200014F011FF1A49200014F0A0FE0F
:1047C000194E0A22F15B200014F007FFF35B2A6800
:1047D00093420CDC1549200014F0AEFE0C4811F099
:1047E00089FE29680D48FDF7EDFF00232B60104B73
:1047F000F05A00F0B5FCF8BD0E4800F079FD042831
:10480000B5D1B6E768540020761A020040080020AF
:1048100078070020831A0200380300203C030020A0
:10482000B31A0200C91A0200F4450020E81A020077
:104830001202000018030020F0B5894C8949A544F4
:10484000040000AF884814F05BFE23006A4608337A
:10485000DB08DB00D31A9D466E466D46AB1B9C42BF
:1048600005DD824811F077FB28700135F6E7E34358
:104870000025DB171C40355531007B4814F040FE05
:10488000794814F047FE082160237A18D4182033A1
:10489000D218BA667A18D3186360A0239B00D21886
:1048A000A2607A18D3187F22E360237F0C20934301
:1048B00023772B00FE60BE610E007A185C33D3189C
:1048C0003D613D757D7725743C6279181D707435A6
:1048D0000A23491900223818FEF733FFBB1964492F
:1048E0005819FEF797FD002800D1B6E07F22037A21
:1048F0001340043B012B00D9AFE00568002D00D127
:10490000ABE05C49584814F0FBFD2900564814F010
:1049100013FE5949280019F027FB061E00D08CE031
:104920005649514814F008FE4F4B08250C22FB60F5
:1049300074237819B918C0183E61FFF799FA4A48EC
:1049400014F0E8FD0C224E4B013E7919B818FC60BA
:104950003B61BE60FEF7CAFD0C224A4B7919B818BC
:10496000FC603B61BE60FEF7C1FD0C22464B79192D
:104970003860B818FC603B61BE60FEF7B7FD434B82
:1049800005003B610823F9180433F818FC60BE6089
:10499000FEF7ACFD2A003E4B643A78603D4C9A42EB
:1049A0000ED83D49304814F0ABFD0A2229002E48AC
:1049B00014F00FFE39492C4814F0BEFD384BE55277
:1049C0003B68013B092B11D8274E3649300014F0C3
:1049D00097FD0A222900300014F0FBFD3249300017
:1049E00014F0AAFD85233A889B00E2527B68013BC4
:1049F000082B0DD81C4D2D49280014F081FD0A22EA
:104A00007968280014F0E9FD8623BA889B00E252F9
:104A10000121200000F0B4FAFDF758FD01211D48E6
:104A200000F0AEFA224B9B68002B01D0FFF76CFB25
:104A3000BD46A3239B009D44F0BD1E49280019F0EC
:104A400093FA002804D11C49074814F075FDE3E7E8
:104A50001A49174814F0D8FEE0E71949F9E7C046AB
:104A600074FDFFFF31180200685400207807002011
:104A70005118020056180200171C020066180200A6
:104A800083180200871802008E180200971802008F
:104A90005BD40100F44500209F180200C1180200F9
:104AA00012020000C5180200D9180200E81802001E
:104AB000D8020020FD180200021902002E1902007F
:104AC0007019020010B50121014800F059FA10BD1B
:104AD000F4450020F0B5B9B0040012F077FAFA23DB
:104AE00001259B00C318009300232F00029312F0AE
:104AF0006DFA009BC01A00D4AEE0029BF92B00D9DE
:104B0000AAE0002D12D05949200014F015FD210013
:104B1000574800F03FF9200000F068FA554920009E
:104B200014F0EEFC029B0133DBB2029323682000F9
:104B30001B69984700282AD1236820001B699847E1
:104B4000051ED4D000231E000393019312F03EFAF9
:104B5000009BC01A75D5019B002B23D12368200030
:104B60005B699847051EF1DD12F030FAFA239B00CD
:104B7000C31800930D2D3CD1236829001B68200029
:104B8000984712F023FA323003900197DEE723684A
:104B900020009B6998470028CED1236820005B69DC
:104BA0009847C3E7236820009B699847431C58D166
:104BB00012F00CFA039BC01AD0D4002505AB9B1948
:104BC0001D70AE4293DB12D02B4905A819F092F963
:104BD000A84241D005AA3900254800F070F8A84243
:104BE00033D012F0F3F9FA239B00C31800933D0071
:104BF0007DE70A2D05D1236829001B68200098470E
:104C0000DBE700230193082D01D07F2D09D19E42BF
:104C10009CD0236803225B68184920009847013E16
:104C200094E7C72E92D82B00203B5E2B8ED82368AA
:104C3000EDB21B6829002000984705AB9D55013651
:104C400084E7002505AB1D7051E705A90C4800F06D
:104C5000E7F90028C5D1CAE7200014F05BFC39B0A1
:104C6000F0BD0A2800D179E7A7E7C046D31B0200B0
:104C7000F81B0200DF1B0200F31B0200EF1B020007
:104C8000F4450020F7B506000F0000240192BC4255
:104C900012D018236343F3185D68280019F076F9E1
:104CA00029000200019819F078F9631C002801D14D
:104CB0002000FEBD1C00EAE701204042F9E770B584
:104CC00006001500FFF7DEFF002398420DDB1824D5
:104CD00044433419A6680133002E06D0606819F0E9
:104CE00055F929182000B0470123180070BD70B590
:104CF00004690500002C08D04269200019F082F9EF
:104D00006B69E4180023013C237070BD10B5046981
:104D10000B00002C05D000221800110019F020FF14
:104D2000207010BD10B504690B00002C05D00022C6
:104D30001800110019F014FF208010BD70B50C0090
:104D400005000A49200014F0DBFB2968200014F05C
:104D5000D7FB0749200014F0D3FB6968200014F04A
:104D6000CFFB0449200014F0CBFB70BDEB23020005
:104D7000231C0200261C020070B50C000500080070
:104D800014F0C8FB2968200014F0BAFB200014F0CE
:104D9000C1FB70BD70B505690C00FFF7CFFF002D9A
:104DA00004D02900200014F0C7FB70BD200014F0CF
:104DB000B1FBFAE770B505690C00002D06D0FFF7CE
:104DC000BDFF29780A22200014F02BFC70BD70B5BD
:104DD00005690C00002D06D0FFF7B0FF29880A22D4
:104DE000200014F0FAFB70BD30B5094D094CAB68DA
:104DF0005B035B0F9B001C590460AB6801619BB2B5
:104E000043606343A4008360C460426130BDC04618
:104E1000004000412C1C0200F7B580261A4D01917C
:104E20006F6803333E439B086E60002B2BD0174EF8
:104E30002E802E7DF107FCD51E000768991BBF0848
:104E40008F4219D9002E17D0FF2117788C433C438D
:104E50000F4957780C403F023C439778013E390494
:104E60000C4F2740D478BFB20F43240601993C432E
:104E700010C101910432E0E7074B2B802B7DDB074B
:104E8000FCD53300D1E7F7BD0040004144A5FFFF4A
:104E9000FF00FFFFFFFF00FF04A5FFFF044B054AD3
:104EA0004908D9611A801A7DD207FCD57047C046DF
:104EB0000040004102A5FFFF70B504000D00160080
:104EC000E36829002000B34205D2FFF7E7FFE3685B
:104ED000ED18F61AF4E7FFF7E1FF70BD10B510000A
:104EE0001A0017F0B6FF10BD0D4BF0B5C418082519
:104EF00000230C4EA04210D00278120253402A0028
:104F00001FB259008BB2002F01DA71408BB2013A07
:104F1000D2B2002AF4D10130ECE71800F0BDC0464F
:104F20004C04000021100000044B10B51B68002B3E
:104F300000D098470122024B1A7010BDD8450020BE
:104F4000D445002010B504000A48220043690169D5
:104F5000FFF7C4FF2000FFF7C7FF2288064B9A42E5
:104F600003D1064BE35A834202D02000FFF7DCFF57
:104F700010BDC046DC450020EFBE00004C04000020
:104F800030B5134C134DA5440400002902D12B78F1
:104F9000002B19D0104B20002380FFF7A5FF0F4BEB
:104FA0002100E0520E4A684617F053FF0D4C62692B
:104FB00021692000FFF780FF63696A4621692000AC
:104FC000FFF72AFF00232B70074B9D4430BDC046DE
:104FD000ACFBFFFFD4450020EFBEFFFF4C040000F8
:104FE0004E040000DC4500205404000070B50500AC
:104FF000902614F08FFA0849280014F09DFA002436
:10500000760006482018C368002B01D02900984775
:105010001834B442F5D170BD2023020000220200F2
:1050200010B50A0004480C21FFF749FE002802D001
:105030000122024B1A7010BD00220200D44500204C
:1050400001207047014B19607047C046D8450020C9
:1050500010B5034A03490448FFF7C6FE10BDC04619
:105060004E040000001D0200DC4500201023224AEF
:1050700091690B439361214B1A7852B2002A3ADBB3
:105080001F4A2049916020495160517849B2002956
:10509000FBDB1E495180517849B20029FBDB02211C
:1050A0001A788A431A70DA7952B2002AFBDB04219B
:1050B0001A788A431A70DA7952B2002AFBDB0F2180
:1050C000421C0A405A7002220840987019780A431C
:1050D0001A70DA7952B2002AFBDB0122C0205A7121
:1050E0000B4B03321A6080001A580A491140C02243
:1050F00012040A431A507047000400400010004098
:10510000000C0040040400000403110003440000EC
:1051100000E100E0FFFF00FF0221074B1A788A43FD
:105120001A70DA7952B2002AFBDB1021034A936924
:105130008B4393617047C04600100040000400405C
:10514000064B1900DA7952B2002AFBDBA5221A724B
:10515000CB795BB2002BFBDB7047C04600100040F0
:1051600070B5040011F032FF0A25041911F02EFF6A
:10517000A0420AD2FFF7E4FF11F028FF201A0A2804
:1051800000D9280011F058FFF0E770BD0123024A52
:105190001370024A93717047424A00200010004089
:1051A00010B50400034B083303600C3014F045FACB
:1051B000200010BDE424020010B50400FFF7F0FF4A
:1051C000200014F019FD200010BD0000074B10B5A1
:1051D0000833036001230400037205490C3014F006
:1051E0007BFA00232000E36110BDC046E4240200E6
:1051F0002455020030B5264C85B00500200000F093
:10520000CDF9002837D0200000F0E0F800226B68CC
:105210001000013B052B2ED8180014F079FD03096E
:105220000D182E341B49200000F098F8022300E0EE
:1052300003236B6000201EE0290020000C3100F0E9
:1052400077FA1549200000F089F80423F1E71349A3
:1052500001A814F041FA280001A90C3014F098FBC1
:10526000040001A814F0E9F9002CDFD0002301208C
:105270006B6004332B7205B030BD0949200000F08B
:105280006DF80623D5E701236A602B72D2E7C0468A
:10529000444A0020C1240200CC2402007C250200E4
:1052A000D6240200F8B501234360DB180400037222
:1052B000002919D011F08AFEFA2607007600200096
:1052C000FFF798FF051E09D1E369002B08D011F004
:1052D0007DFEE369C01B984202D36560207AF8BD69
:1052E000300011F0A9FEEAE7FFF784FFF6E70000BF
:1052F00010B50400024800F069F8207A10BDC046DD
:10530000444A002010B504001C3014F096F9200027
:1053100010BD000070B58360049B06000025C360CB
:10532000012304001C36426005610575836101603C
:105330003000054914F0D0F9A5623000402114F086
:105340009DF9200070BDC04624550200014B024A61
:105350001A607047704A00206854002070B504003D
:105360000D0011F033FE2369C01A132803D814234B
:10537000181A11F061FE2900206814F0DDF8206889
:105380000368DB68984700232375A36170BD0000A4
:105390000EB410B50A4C0B49A5440400FFAB1833FA
:1053A00004CB02A8019319F07BFE02A92000FFF7AD
:1053B000D5FF054B9D4410BC08BC03B01847C04640
:1053C000F4FBFFFFFF0300000C040000F0B5040035
:1053D00087B0206803681B699847002800D192E0D5
:1053E000206803685B699847634BC6B21868002859
:1053F00003D0036831001B68984725001C35310035
:10540000280014F065FA277D012F48D05B496846D3
:1054100014F062F96946280014F0AEFA0026B04292
:105420000DD0574903A814F057F903A9280014F028
:10543000AFFA461EB041C6B203A814F0FEF86846A3
:1054400014F0FBF8002E06D0012323754D492800E7
:1054500014F0DAF9BDE74A4903A814F03DF903A9AD
:10546000280014F095FA070003A814F0E6F8002FBE
:10547000AFD0280014F069FB636A002BE6D011F06E
:10548000A5FD2061404BB200D058002803D003682E
:1054900029001B6898470136082EF3D1D6E70A2E5B
:1054A00097D111F093FD3949206103A814F014F944
:1054B00003A9280014F0F7FA060003A814F0BDF8B9
:1054C000731C22D0A761A369002B82D0A26A002A94
:1054D00013D0012B4ADD03A8636A3200290014F0BF
:1054E000E9FA03A814F0A9F8280014F02EFB29000B
:1054F000A06A14F067F90023A362002321492375F1
:10550000280014F081F907B0F0BD214903A814F078
:10551000E3F803A9280014F0C6FA060003A814F063
:105520008CF8731C02D00223A361CCE7194903A8AD
:1055300014F0D2F803A9280014F0B5FA060003A865
:1055400014F07BF8731C01D00323EDE7124903A884
:1055500014F0C2F803A9280014F0A5FA060003A865
:1055600014F06BF8731CAED00423DDE73100280083
:1055700014F0D8FAB8E7C046704A0020F4240200BC
:10558000F924020024550200744A0020F724020086
:10559000FC240200042502001125020010B50400BD
:1055A000FFF714FFA06910BD70B5826204000E0001
:1055B00011F00CFD050011F009FD401BB04208D2AE
:1055C0002000FFF703FFA0690028F4D00023A362A6
:1055D00070BD00232000A3621C30034914F014F9AD
:1055E00001204042F4E7C0462455020010B50400F3
:1055F0000549FFF7B3FE0022C8212000FFF7D4FFC2
:1056000001384342584110BDF424020070B5050032
:105610000E0011F0DBFC040011F0D8FC001BB042BE
:1056200008D22800FFF7E2FF012804D0642011F01F
:1056300003FDF1E7002070BD10B507490400FFF736
:105640008DFEFA21002289002000FFF7ADFF01380E
:105650004342584110BDC0468A14020070B5040090
:10566000E1230D00616800685B02994200D91900CE
:105670000368DB699847E3680121D8B211F0E0FEC6
:10568000E3680121D8B211F027FFA06800283CDBB5
:10569000002D3AD0C0B2012111F0D2FEA368012141
:1056A000D8B211F019FF642011F0C6FCA3680021E4
:1056B000D8B211F011FF1C492000FFF7A7FF002806
:1056C00029D0E12362685B0201209A4224D917495C
:1056D0002000FFF75DFE0022C8212000FFF764FFD5
:1056E000012818D1206803685B6A9847642011F08C
:1056F000A3FC206861680368DB6998470A492000B9
:10570000FFF784FF431E984106E007492000FFF79A
:105710007DFF002801D1002070BD2000FFF78CFF25
:105720000028C8D1F7E7C046102700001B2502005B
:1057300081627047002310B5054A98008458002CF8
:1057400001D1815010BD0133082BF6D1FAE7C046D4
:10575000744A0020002310B5054A980084588C42F2
:1057600002D10023835010BD0133082BF5D1FAE795
:10577000744A00202323E12213B5074C0093520200
:10578000043B06492000FFF7C5FD054A05492000F6
:1057900014F0B6FA13BDC046444A0020EC51002074
:1057A000000000200553000070B5002504000E0025
:1057B0000849057045608560C1600161416118302C
:1057C00013F08AFF6562AE4202D00348FFF7BEFDC8
:1057D000200070BD24550200444A0020F0B5037833
:1057E00085B005000224002B21D07F4E3000FFF74A
:1057F000D5FE041E1BD03000FFF7E8FD6F68172FA1
:1058000015D8380014F084FA0C161D25293459686F
:105810006C72757B7F85898F939A9EB2B7BDC2CD1E
:1058200072493000FFF79AFD01233C006B602000B5
:1058300005B0F0BD0223012C08DD002302242B70EB
:10584000F5E76B493000FFF789FD03236B60002407
:10585000EDE7012CF1DC0423F8E7290030001831D2
:10586000FFF766FF63493000FFF778FD0523EDE79A
:10587000012CF0DC2E006049183601A813F02CFF33
:1058800001A9300014F084F8040001A813F0D5FE3B
:10589000002C01D00A23D9E7584901A813F01CFFB6
:1058A000300001A914F074F8060001A813F0C5FE39
:1058B000002EC2D006236B60B9E7AB68002BBCD0CA
:1058C000290030001831FFF733FFAA684C49300037
:1058D000FFF75EFD0723B9E70823012CB6DDACE72F
:1058E00048493000FFF73AFD0923AFE7012CD1DD2D
:1058F000A3E745493000FFF731FD0B23A6E70C2352
:10590000012CA3DD99E741493000FFF727FD0D2366
:105910009CE70E23012C99DD8FE73D493000FFF70E
:105920001DFD0F2392E71023012C8FDD85E7EA6828
:1059300038493000FFF72CFD112387E71223012C93
:1059400084DD7AE72B6969691A78002A02D10A781E
:10595000002A06D00A0030002F49FFF719FD132353
:1059600074E72E493000FFF713FDF8E71423012CEC
:1059700000DC6BE761E72A493000FFF7EFFC1523F5
:1059800064E7012C00DD58E716235FE729003000AB
:105990001831FFF7CDFE23493000FFF7DFFC172356
:1059A00054E7012C00DD48E728002B6A1830591E07
:1059B00014F01CF8FB230340302BE5D0312B02D030
:1059C0003038082805D118236B60153B2B70012453
:1059D0002DE7022803D1162328706B6037E70328D0
:1059E00000D024E729E7C046444A002030250200C1
:1059F0003A250200442502004D25020053250200ED
:105A00005B250200D62402006825020072250200F0
:105A1000802502008A250200A1250200BB25020084
:105A2000CC14020026250200F7B51D0008AB1600B5
:105A300004CB0F0019780AAB1B78040015480092BC
:105A40000193FFF70BFE002803D100232370207879
:105A5000FEBD009B0020636101232370019BA760B2
:105A6000E660256160608342F2D011F0AFFA050074
:105A70002000FFF7B3FE0028E9D1636A002B05D0B0
:105A800011F0A4FA636A401B9842DED2642011F040
:105A9000D3FAEDE7444A002030B51C0085B008ABCE
:105AA0001D78044B029501940093FFF7BDFF05B0EC
:105AB00030BDC04624550200F0B58DB02849684677
:105AC00013F00AFE274C28492000FFF747FC6A46DE
:105AD00064212000FFF768FD012806D000266846F3
:105AE00013F0ABFD30000DB0F0BD2D21684613F072
:105AF000AEFF0100431C02D0684614F013F803AA5D
:105B00001A49009818F0F2FD0028E7D003A817F012
:105B10008FFA06000F0068461A2113F067FF1B2159
:105B20000400684613F062FF0A23303C63433038B8
:105B30001818E1239B00584319210400C517684633
:105B400013F054FF2D2802D136196F41C7E71921F0
:105B5000684613F04BFF2B28C1D1361BAF41BEE77F
:105B600024550200444A0020CC250200D52502001D
:105B7000007870470020704713B56B460268D971F2
:105B80000733546819000122A04716BD806901300F
:105B9000431E9841C0B2704713B56B46DC1D0368C5
:105BA00001225B6A21009847012801D1207816BDA7
:105BB00001204042FBE77047094B01001A0010B575
:105BC0000400083254330260036110310548FFF7C6
:105BD000C1FD2000343013F030FD200010BDC04660
:105BE0009C260200444A002010B50400FFF7E4FFA1
:105BF000200014F001F8200010BD0000F0B5474E61
:105C000089B004003000FFF7C9FC051E17D0236AD5
:105C1000581E092813D8002314F07AF80514373ECB
:105C200043494D6E737A210030003431FFF780FD17
:105C30003B493000FFF792FB022300252362280036
:105C400009B0F0BD012D0FDC26003649343605A819
:105C500013F042FD05A9300013F08EFE070005A8E1
:105C600013F0EBFC002F02D100232362E7E7E36B84
:105C70003000591E13F0BAFE23003038A0613233D1
:105C80001B78002B15D00323D7E7A26926493000E3
:105C9000FFF77EFB0423D0E70523012DCDDD09238B
:105CA000CBE722493000FFF759FB0623C5E7012D5A
:105CB000F5DC0723C1E7E36A218EA269002B06D039
:105CC000009130001A49FFF763FB0823B5E7230072
:105CD00028331B78039121002B3109783000029181
:105CE00021002A3109780191210029310978009198
:105CF0001049FFF74DFBE8E7012DD0DC0122E261FE
:105D0000B3E7A2690C493000FFF742FB0A2394E78E
:105D1000236201235B42A36191E7C046444A00200D
:105D2000EF250200FA2502000326020014260200D5
:105D300025260200392602005626020010B5036807
:105D400004001B699847002804DDA169034800F09E
:105D500047FB10BD01204042FBE7C046944A0020AB
:105D600070B50025826904000562AA4211DB094E64
:105D700009493000FFF70CFB2A0008493000FFF703
:105D800013FCA169064800F053FA01235B42A361AA
:105D9000E56170BD444A002056260200102700002D
:105DA000944A002010B504000D48FFF70FFBA169CD
:105DB00000204B1C12D00B4800F064FA002808DBCE
:105DC000230032331B780120002B07D0E369002B1E
:105DD00004D1236820009B6A9847002010BDC0466C
:105DE000444A0020944A002010B5037D0400002B93
:105DF0000AD023682000DB6B98470028F9D0A169FE
:105E00004B1C07D1002010BD0368DB6B98470028AE
:105E1000F5D1F7E7044800F035FA0028F3DA2368F3
:105E200020009B6A9847EDE7944A002070B583698B
:105E300004000E001500013301D1002070BD002ABE
:105E4000FBD003681B6998470028F6D02B0032006E
:105E5000A169024800F0D4FAF0E7C046944A002055
:105E60007FB50C000500134901A813F035FC01A90A
:105E7000200013F081FD060001A813F0DEFB002EC8
:105E800017D00921200013F0B1FDAB6930388342EF
:105E90000FD1094901A813F01FFC200001A913F03C
:105EA00077FD040001A813F0C8FB002C01D00023EB
:105EB000EB617FBD852602008F26020008B4024BED
:105EC0009C46103808BC6047615E00000300F0B5D6
:105ED0008FB0039133331B7804001500002B0DD0D5
:105EE00023682000DB6B98470028F9D0A3690133B1
:105EF0000AD10023009300980FB0F0BD0368DB6B5C
:105F000098470028F2D1F4E7484905A813F0E4FBCC
:105F1000802329005B009D4200D9190049001331FC
:105F200005A813F0ABFB00230093002D71D0802354
:105F30002E005B009D4200D91E007100133105A8A0
:105F400013F09CFB3A4905A813F05EFCA16905A873
:105F500013F0C7FC374905A813F0B1FC310005A8C0
:105F600013F0CCFC344905A813F0A9FC009A039B5C
:105F70009446634402930193019B0F221F783B09CF
:105F8000190017403031092B01D93733190005A802
:105F900013F09EFC39003031092F00D9073105A8D4
:105FA00013F096FC019B029A013301939B1A9E42C7
:105FB000E2D8224905A813F082FC214F0599380048
:105FC000FFF7CCF9230033331B78002B28D0174977
:105FD00008A813F081FB08AA1A493800FFF7E4FA71
:105FE00001281AD0042811D117490BA813F074FB0B
:105FF0000BA908A813F00EFD05000BA813F01DFB5C
:106000006B1C03D0236820009B6A984708A813F0F4
:1060100014FB05A813F011FB6DE708A813F00DFBA6
:10602000009BAD1B9B1900937FE7C04624550200DF
:1060300062260200971702006C2602006D260200FD
:10604000444A0020102700006F260200FA2370B592
:1060500000259B008360124B040045601800083047
:1060600020602000543323612275A161E56129007D
:106070002562243013F07AF9230001222000323304
:10608000E562258607491D705A70343013F024FBF1
:10609000210005481031FFF74DFB200070BDC046C0
:1060A0009C26020024550200444A00200A000121D7
:1060B00010B504004942FFF7C9FF200010BD10B51C
:1060C00083690400013302D003689B6A9847237DEB
:1060D000002B0BD023682000DB6B98470028F9D0F9
:1060E0000120237D2062002B07D110BD23682000F2
:1060F000DB6B98470028F3D1F7E723682000DB6BC0
:106100009847002803D1643010F096FFF5E7A069A6
:106110000130431E9841E8E74B6810B50286020043
:10612000836200233232C3621370FFF7C8FF10BDD1
:1061300070B504000E0024300021150013F01EF984
:10614000230000223233E662258620001A70FFF712
:10615000B6FF70BD7047000010B501210248FFF77F
:106160007DFA431E984110BD444A002070B50400DA
:10617000094913F0B1FA0F21200013F07FFA074DFF
:1061800007492800FFF7EAF8280022006421FFF7FA
:106190000BFA200070BDC04624550200444A00207E
:1061A000F42602007FB50400164D290013F094FA7E
:1061B0001B21200013F062FA134E14493000FFF740
:1061C000CDF8FA21220089003000FFF7EDF91049DF
:1061D00001A813F081FA01A9200013F0CDFB0600FD
:1061E00001A813F02AFA002E07D007220021200070
:1061F00013F07EFC200004B070BD2900200013F0D5
:1062000003FBF7E724550200444A0020FC26020065
:106210000427020010B50400044B5422083308C0C0
:10622000002116F032FE200010BDC04624270200D7
:1062300010B50C244C4304196068002805D016F0F2
:10624000DDFD0023A3606360E36010BD70B5050051
:106250000024064B08330360210028000134FFF7B7
:10626000E7FF072CF8D1280070BDC04624270200A4
:1062700010B50400FFF7EAFF200013F0BDFC20007A
:1062800010BD0000F0B50C244C430419E56889B03A
:1062900000900F00002D00D08BE06368002B06D12A
:1062A0008020800016F0A0FDE560A0606060454998
:1062B00002A813F011FA8023434E3A0043493000FC
:1062C0009B00FFF765F802AA41493000FFF76CF91F
:1062D00001281AD0022800D171E004280FD13D49CD
:1062E00005A813F0F9F905A902A813F093FB05001E
:1062F00005A8013513F0A1F96B1E9D416D4202A85E
:1063000013F09BF9280009B0F0BD334905A813F03C
:10631000E3F905A902A813F02FFB060005A813F066
:106320008CF9002EEBD02D4905A813F0D5F905A95D
:1063300002A813F06FFB050005A813F07EF96A1C94
:106340000025002102A813F0D3FB049B02A8591ECC
:1063500013F0E8FB049B5B080193019B9D421ED058
:10636000690002A813F02AFB6B000678591C02A8EA
:1063700013F024FB3300303B0278DBB2392E01D915
:10638000373EF3B21600303EF6B2392A01D9373A19
:10639000D6B21B016268334353550135DDE76368AC
:1063A000009AA3600C237B43D318DD6002A813F08E
:1063B00044F90C235F43009BDF19FD68A2E7012528
:1063C0009CE7C04624550200444A00200C270200E6
:1063D000102700006F2602001B2702006D26020016
:1063E00070B504000D00FFF74DFF002805D00C210B
:1063F00069436418A368187870BD01204042FBE728
:10640000F8B506000C0017001D00FFF73BFF002841
:1064100011D0854200DD05000C235C4334192A00AD
:10642000A168380016F015FD2800A3685B19A36069
:10643000E3685B1BE360F8BD10B5054C2000FFF777
:10644000E9FE044A0449200013F05AFC10BDC0467E
:10645000944A0020000000204D620000704710B5F3
:10646000040013F0C9FB200010BD10B50368C9B2C9
:106470001B68984710BD10B504004068217A036876
:10648000DB6A984702216068FFF7EFFF60680368E6
:106490005B6B98470023984203D1012010F0CCFD9C
:1064A0000123180010BD00000B4B10B5134004D59C
:1064B0002020013B4042034301331F24D0172040DA
:1064C0001C3CA1408018DA172240D31840119B10C1
:1064D00000021843084310BD1F000080F0B5081EDD
:1064E0001BD00020824218D08B189C460822012322
:1064F0000E781C003440651EAC41C70B400080B2D2
:10650000BC4202D0054C604080B25B00013ADBB275
:10651000002AEED101316145E8D1F0BD0580FFFFD1
:10652000F0B585B000AFFC6AFB8023006E460833EF
:106530003B600733DB08DB00F31A03269D460500AA
:106540001E70E01D013E58709970DA70B91D32005E
:1065500001A816F07EFC6B462200B96A981D16F061
:1065600078FC6B46621D591C2800FFF7B7FF0E230D
:10657000F881A01D3200F918684416F06AFC6868BA
:10658000297A0368DB6A98476868694603683A684D
:106590005B689847686803685B6B9847BD464342F1
:1065A000584105B0F0BDF0B5130085B000AFBA603A
:1065B000D51C6A460A33DB08DB00D31A9D46FB6014
:1065C0001523040039607B606068217A03682A0023
:1065D0009B6B1E000123B047A84204D07B68013B9F
:1065E0007B60002BF0D1606803685B699847FB68AB
:1065F0001870C0B2A84203D00020BD4605B0F0BD5F
:10660000FB685D1C2E00606803681B6998470028C2
:1066100006D0606803685B69984728700135F2E727
:10662000BB68F9685D1C2A002000FFF757FFBA68B5
:10663000FB689B189A78FB6812025B5D13439842D3
:10664000DAD1BA683100386816F003FC0120D4E7CB
:1066500037B504004068124903689B6A9847606830
:1066600000210368DB6A9847606803685B6B9847A2
:106670000C4810F005FD6B46DD1D012229002000AD
:10668000FFF791FF002809D02B780020112B05D1AE
:106690006068054903689B6A984701203EBDC04673
:1066A000A0860100DC05000040420F0073B5040025
:1066B0000D001600FFF7CCFF002801D1002076BDA9
:1066C0000022ABB20192009240212000FFF728FF88
:1066D0000028F3D0732010F0AFFC402231002000DE
:1066E000FFF761FF0028E9D0012010F0A5FC200091
:1066F000FFF7C1FE0120E2E730B585B00400FFF7E7
:10670000A7FF002802D1002005B030BD002247219C
:106710000192009213002000FFF702FF0028F2D040
:106720000F2509206D4410F087FC0122290020006C
:10673000FFF739FF0028E6D0012010F07DFC200093
:10674000FFF799FE287843425841DDE730B585B020
:1067500004000D00FFF77CFF002802D1002005B0E7
:1067600030BD402300950193012247212000FFF70F
:10677000D7FE0028F2D00F2509206D4410F05CFCF4
:10678000012229002000FFF70EFF0028E6D001209B
:1067900010F052FC2000FFF76EFE2878434258416B
:1067A000DDE7F7B504000F0015001E00FFF750FFEE
:1067B000002801D10020FEBDABB201950097022256
:1067C00047212000FFF7ACFE0028F3D0092010F08D
:1067D00033FC202231002000FFF7E5FE0028E9D03D
:1067E000012010F029FC2000FFF745FE0120E2E720
:1067F00030B5002485B005000394FFF729FFA042BF
:1068000002D1002005B030BD019400942300220085
:1068100030212800FFF784FE0028F2D0022010F07B
:106820000BFC042203A92800FFF7BDFE0028E8D0D6
:10683000012010F001FC2800FFF71DFE0398E1E79E
:1068400010B5040040680368DB6998472000FFF733
:10685000FFFE2000FFF70FFE2000FFF7C9FFF02327
:106860001B041840034BC018034B184043425841C7
:1068700010BDC0460000B0FFFFFFEFFF30B585B090
:1068800004000D00FFF7E4FE002802D1002005B04F
:1068900030BD202300950193032200231621200000
:1068A000FFF73EFE0028F1D00F251D206D4410F0AB
:1068B000C3FB012229002000FFF775FE0028E6D067
:1068C000012010F0B9FB2000FFF7D5FD28784342E6
:1068D0005841DCE7F0B5A5B004000F001600FFF743
:1068E000B7FE002802D1002025B0F0BD04AD402243
:1068F0003900280016F0ADFA4022310014A816F035
:10690000A8FA80230095019302227C3B45212000B8
:10691000FFF706FE0028E6D00F2548206D4410F052
:106920008BFB012229002000FFF73DFE0028DBD071
:10693000012010F081FB2000FFF79DFD28784342E5
:106940005841D1E770B5040015001E00FFF796FF0F
:10695000002806D0320029002000FFF7BBFF431EAD
:10696000984170BD73B504000D001600FFF770FE6E
:10697000002801D1002076BD0022ABB20192009226
:10698000412180322000FFF7CBFD0028F2D04620C5
:1069900010F052FB402231002000FFF704FE0028D7
:1069A000E8D0012010F048FB2000FFF764FD012033
:1069B000E1E7F0B585B006000D0003921F000A9CC8
:1069C000FFF746FE002803D10024200005B0F0BDEB
:1069D000042C03D0202CF7D180231D4300216B46CB
:1069E000EAB29B893000019100910231FFF798FDD6
:1069F0000028E9D0052010F01FFB220039003000EC
:106A0000FFF7D1FD0028DFD0012010F015FB30008A
:106A1000FFF731FDD9E773B5002204260C000B0007
:106A2000009611000500FFF7C4FF002801D10020E7
:106A300076BD231D0096022200212800FFF7B9FF32
:106A40000028F4D0230000960833032200212800F8
:106A5000FFF7AFFF431E9841EAE7000070B50D0055
:106A600086B00021040012F037FE69462800FFF7C7
:106A7000D2FF00281ED01221200012F0FFFD0025B9
:106A80006B465E5D0F2E03D80C49200012F017FFF5
:106A90001022310003A812F03EFE03A9200012F0DC
:106AA000FCFE013503A812F0C8FD092DE8D1200035
:106AB00013F03EF8200006B070BDC046122602005A
:106AC000F0B585B002900F0003921D000F291DD86C
:106AD000032420261C4002D0002005B0F0BDAC42AB
:106AE00017DA2B1B1F2B00DC04262200390002982A
:106AF000FFF7DAFC039B02001B19009602210298A3
:106B0000FFF757FF0028E7D0A419E8E7012040422B
:106B1000E3E70120E1E71FB5042303AC009315224E
:106B200023000021FFF745FF002806D00020A378AE
:106B3000834202D1E0784342584104B010BDF0B521
:106B400085B005000C0016001F00FFF781FD00282E
:106B500002D1002005B0F0BD0A9B042B03D0202BEE
:106B6000F7D160331C430A99B3B20191E2B20097A6
:106B700012212800FFF7D4FC0028EAD00F241A20A5
:106B80006C4410F059FA012221002800FFF70BFD98
:106B90000028DFD0012010F04FFA2800FFF76BFC2F
:106BA000207843425841D5E7F0B585B002900F00F8
:106BB00003921D000F291DD8032420261C4002D05B
:106BC000002005B0F0BDAC4217DA2B1B1F2B00DCF8
:106BD0000426220039000298FFF766FC039B02009E
:106BE0001B19009602210298FFF7A9FF0028E7D0A1
:106BF000A419E8E701204042E3E70120E1E7F0B50E
:106C00008BB005000E001400FFF722FD002822D0F3
:106C1000002C22D000221B21019200921300280098
:106C2000FFF77EFC002815D0172010F005FA20226F
:106C300002A92800FFF7B7FC00280BD027001F2C63
:106C400000DD202730003A0002A916F002F9E41B0B
:106C5000F619DDE700200BB0F0BD012010F0ECF9D3
:106C60002800FFF708FC0120F5E7F0B589B00D001A
:106C700017006946202204001E00FFF7C0FF00280D
:106C800002D1002009B0F0BD39002000FFF7F6FD69
:106C90000028F6D0320029002000FFF763FE431ED3
:106CA0009841EFE7064B0748083310B50360064BE1
:106CB000064A436060230649037213F021F810BDB1
:106CC00034270200EC4A00203C4C00200000002049
:106CD0005D64000030B59C68039B88689968049BDC
:106CE00095689A68059B9B68002800D00B30002DA2
:106CF00001D00B354019002C01D00B3400190029AC
:106D000001D00B314018002A01D00B328018002B23
:106D100001D00B33C01830BD5B2070470A0030B57E
:106D20000020202520320C5C2B1A002C0ED10130C3
:106D30002028F8D101230D0040313F351478881AFE
:106D4000002C0AD1AA4204D00132F7E7E4091B194A
:106D5000F1E701201533181830BDE4090019F9E7EF
:106D60000B78002B04D1012A04DD0131013AF7E749
:106D7000DB09D218901C70470420FF2903DC01387E
:106D80007F2900DC013870473023F7B5137093700A
:106D90001D3BD3700D3B9C46137107235371053B7C
:106DA000D372013B137353750633937559204223F5
:106DB00001916146507013763D2000232A278626D4
:106DC0004825CE24517308219072D07453763A38F6
:106DD00004339771D6711572D77316745574547243
:106DE000917394741075D07593761B3210000199CD
:106DF000402216F02EF85B20FEBD3023F7B50F00C1
:106E000020241370263B5370043B93700233D370DD
:106E1000223313715C3353713E3B93718633D371CC
:106E2000913B1372393B5372013B9372013BD37216
:106E300020370091009B1B78002B01D1012C0AD137
:106E4000080040313F303E78CD1B002E09D18742EB
:106E500006D00137F7E7009B013C01330093E9E7D7
:106E60000125DB09E4180323F609AD191373E0B219
:106E7000EBB20193C318DBB2D91D043313740223A0
:106E80005173302600215374009B9173D673907414
:106E90001B787F2B25D81332160030002200009972
:106EA00015F0D7FF009B36191B787F2B00D90134D2
:106EB000022333706B461B79B01C73703B787F2BB9
:106EC00003D90023F01CB370013D2A00390015F0EE
:106ED000C0FF3B787F2B00D90135200015304019C9
:106EE000FEBD1600D1741436013CD6E770B50D0016
:106EF00014002A78002A04D1012C04DD0135013C5C
:106F0000F7E7D209A41802225C701A702A78981C3C
:106F10007F2A03D90022D81C9A70013C2200290044
:106F200015F097FF2B787F2B00D90134A01C70BD82
:106F3000312070B58C681870E0B2050009355D70BD
:106F400030259D70C51DDD7006251A7213221D7136
:106F5000033D5D7152359D71513DDD715A729872DC
:106F60000B3318000968220015F073FF20000B3066
:106F700070BDF7B51E008B68050017000B9C002B39
:106F800004D023000622FFF7D3FF2418BB68002B90
:106F900006D02300082239002800FFF7C9FF241873
:106FA000B368002B06D02300072231002800FFF72A
:106FB000BFFF2418089B9B680193002B06D0230079
:106FC0000A2208992800FFF7B3FF2418099B9B6841
:106FD0000193002B06D023000B2209992800FFF70C
:106FE000A7FF24180A9B9B680193002B05D0230060
:106FF00003220A992800FFF79BFFF7BD3023137087
:10700000FF290DDD5233081253709070D31C197094
:107010000420FF2903DC01387F2900DC0138704798
:10702000531C7F29F3DD8120931C5070EFE7000093
:10703000F7B50193424B0E0000920B9D99426ADD19
:107040001823FA212B70093B6B708900300012F075
:10705000FDFEFA213030A8708900300012F0DCFF0C
:107060000800642112F0F2FE3030E8706421300034
:1070700012F0D2FF08000A2112F0E8FE3030287129
:107080000A21300012F0C8FF3031AC1D69710A21AD
:10709000009812F0DBFE303020700A21009812F0C8
:1070A000BBFF3031617001980A2112F0CFFE303001
:1070B000A0700A21019812F0AFFF3031E1700898FA
:1070C0000A2112F0C3FE303020710A21089812F014
:1070D000A3FF3031617109980A2112F0B7FE3030F8
:1070E000A0710A21099812F097FF3031E1710A98D6
:1070F0000A2112F0ABFE303020720A210A9812F0F9
:107100008BFF5A23A3720E4B3031617211209E42C5
:1071100000DC0238FEBD0B4B2C1DCF1817232B7043
:107120000A3B6B700A21380012F090FE3030A870D4
:107130000A21380012F070FF3031E970A7E7C0462D
:107140000108000030F8FFFF30230B70263B4B7026
:10715000043B8B700233CB7022330B715C334B7169
:107160003E3B8B718633CB71913B0B72393B4B723B
:10717000013B8B72013B0C20CB72704710B50400B1
:107180000D4B08330360443012F057FA20003830BA
:1071900012F053FA20002C3012F04FFA2000203069
:1071A00012F04BFA2000143012F047FA2000083099
:1071B00012F043FA200010BD4427020010B504006D
:1071C000FFF7DCFF200012F017FD200010BD0000CB
:1071D00070B50400114B124D0833036029000830CC
:1071E00012F07AFA20002900143012F075FA20000B
:1071F0002900203012F070FA200029002C3012F003
:107200006BFA20002900383012F066FA20002900BD
:10721000443012F061FA200070BDC04644270200DD
:107220002455020010B5054C2000FFF7D1FF044A99
:107230000449200012F064FD10BDC046FC4A002045
:10724000000000207D710000704710B5040012F0AE
:10725000D3FC200010BD000010B5044B04480833D7
:10726000044A0549036012F04BFD10BD542702008B
:107270008C4B0020000000204972000070B5050012
:10728000124BA4350833036004002868002803D09B
:1072900015F0B4FD00232B602000483012F0CDF92A
:1072A00020003C3012F0C9F92000303012F0C5F94E
:1072B0002000243012F0C1F92000183012F0BDF97E
:1072C00020000C3012F0B9F9200070BD68270200D0
:1072D00010B50400FFF7D2FF200012F08DFC200053
:1072E00010BD000070B50400164B174D0833036045
:1072F00029000C3012F0F0F920002900183012F0AB
:10730000EBF920002900243012F0E6F920002900D2
:10731000303012F0E1F9200029003C3012F0DCF9A5
:1073200020002900483012F0D7F92300074A9C3387
:107330001A6001225A6022000023A4322000136048
:10734000536070BD682702002455020064270200C4
:1073500010B503000C0000201100082C0CD8083ACE
:10736000072A09D85C60996054331A0003484823FF
:10737000FFF7A6FB431E984110BDC046EC4A002013
:10738000A43000687047A8300068704710B54830D6
:1073900012F03AFA10BD00000300FA22F0B594335F
:1073A0001B78D200DB06DB0E9B18020098321278A5
:1073B00087B0D206D20E9B181A4A04001E279342A9
:1073C00000DD023722002300174D9C33A0321968DC
:1073D00012682800FFF7C4FC0600200023002200EA
:1073E00021004830029030340C3824331832019098
:1073F00000940C312800FFF76DFC01000400280008
:10740000FFF7BAFC05902800FFF786FC0300059AF9
:107410001136A4186400A619B81C3018C01804301E
:1074200007B0F0BD01080000F84A0020F0B51400D4
:10743000020091B00F91FA2194321278C900D2065D
:10744000D20E52180B92020095321278564D120746
:10745000120F0C920200963212780600D206D20E5B
:107460000D920200973212781900D206D20E0E92B7
:10747000020018320A928032177828002200FFF7A3
:10748000BDFDA0230222201803709D3B4370827033
:107490000271012332003100C370441DA0329C31BF
:1074A0002300126809682800FFF720FD2418210036
:1074B0002800FFF749FE33000C3305931833069379
:1074C0000C3307930C330893089B48360193079BB2
:1074D000241800930A9A069B05990296280009969B
:1074E000FFF7F8FB2200010004902800FFF786FD5B
:1074F000099B24180293089B03940193079B0A9A03
:1075000000930599069B2800FFF733FD049BFF06B7
:10751000E418302323700B9BFF0E244ADF1902234B
:10752000974200DC00231E336370A61C00241E4D0E
:107530000E9B039600930C9A0D9B0B990294019459
:107540002800FFF775FD0E9B3618039600930C9AE2
:107550000D9B3900029401942800FFF769FD36184D
:10756000320004992800FFF749FD099B3618029361
:10757000089B03960193079B0A9A00930599069B23
:107580002800FFF7F6FC049B0F99F618320028003C
:10759000FFF7FAFBA32330180370A13B43702E338F
:1075A0008370C47011B0F0BDF84A002001080000DB
:1075B0001823F0B54A4EA7B000AF04003961FA189D
:1075C00041683000FFF772F8002854D02000FFF720
:1075D000E3FE050001004348FFF7CEFB6A462B1887
:1075E0007B610733DB08DB00D31A9D46BB602B00B1
:1075F00018256A4679192000FFF718FF3B69002B10
:107600003CD0402278190021801815F03EFC300053
:10761000FFF772F800282DD000257B69304EAB4271
:1076200013DD5A1BBB6859193F2A06DD3000FFF7EE
:107630008DF800281ED04035EFE718204023381879
:10764000C3183000FFF7ADF8F3E7250018214022FA
:10765000791854358A182B0061683000FFF705FB54
:10766000002807D048232A00A1683000FFF79CFAC1
:10767000002803D10020BD4627B0F0BD2300194EDD
:10768000543319003000FB60FFF748FB7B6925008D
:107690001B18190030003B61FFF76EFB3B69A835F2
:1076A0001918A434296020687C6016F0B5FB7B684B
:1076B000041E186001D12860DCE70200396930003F
:1076C000FFF79CFC24187A69B968200015F0C1FB0B
:1076D0007B69F968E2183000FFF78FFB0120CAE7E9
:1076E000EC4A0020F84A002010B50021FFF760FFA7
:1076F000431E984110BD000010B5054C2000FFF757
:10770000F1FD044A0449200012F0FAFA10BDC04607
:10771000904B0020000000207D72000010B503682F
:107720009C6B0123A04710BD8C2300229B00C154F9
:10773000103BC3185A609A60DA6001238375704762
:1077400010B5036801211B6B984710BDF8B5050003
:107750000E0017000024BC4208D02B68315D1B6866
:1077600028009847002801D00134F4E72000F8BD34
:10777000FC30406A704770478E239B00C1507047B1
:107780008D239B00C15070470300FC335A6A002AC6
:1077900003D01B6AC018007E704701204042FBE7FF
:1077A00070B5060018250C49006910F0A7F930697A
:1077B00010F008F82B000821307D084C4343E318F3
:1077C00059560FF0B5FE0821707D45436419615686
:1077D0000FF0AEFE70BDC046A08601000072020030
:1077E00070B504000D00006910F001F8290020694F
:1077F00010F084F920690FF0E5FF70BD10B5006945
:107800000FF0F5FF10BD0000F7B50193FA238026B5
:10781000002504009B008360134B760008330F00A3
:1078200045602900009203603200183015F02DFBEE
:1078300023002000FC332530DD6132001D62290069
:107840005D62FF3015F021FB88239B00E3185D602B
:107850009D60DD606B461B78276123756B461B7945
:10786000A57520006375FEBD7827020070B506007F
:107870001825006910F01CF930690FF0A3FF2B00E8
:107880000821307D064C4343E31859560FF050FE53
:107890000821707D4543641961560FF049FE70BDA3
:1078A0000072020010B50022FFF7E0FF10BD0300D8
:1078B000802210B5FC33DC685200944208D05A682C
:1078C00081545A680132D2B25A60DA680132DA6001
:1078D00010BDF7B50400171E019302D10025280042
:1078E000FEBD03000022FC33DA611A625A620069AD
:1078F00001320FF0AFFF061EF0D0230020691833CD
:10790000009310F03AF801000098FFF7D0FF01252E
:107910002069BD4214D010F00EF800280FD0206965
:107920000FF078FF022120690FF07EFF206910F030
:1079300024F801000098FFF7BAFF0135E8E70600D8
:1079400020690FF05EFF019B002B06D0002E06D0B1
:10795000032120690FF068FFC1E7002EBFD1013D70
:10796000BDE7002310B5827D9A420CD08822920098
:107970008218D46880225200944204D02530FF300F
:10798000FFF795FF0123180010BD0300FC33DA68F0
:10799000002A09D09A68805C9A680132D2B29A6053
:1079A000DA68013ADA60704701204042FBE70022C2
:1079B0008C2370B59B00827504000E00C15C0069C9
:1079C0000FF048FF002806D1032120690FF02CFF9B
:1079D0000225280070BD88239B00E318DD68002D78
:1079E00011D020002530FF302569FFF7CEFFC1B24E
:1079F00028000FF071FF0028EDD1032120690FF05E
:107A000013FF0325E5E7002EE3D0032120690FF0E3
:107A10000BFFDEE710B51830FFF7B7FF10BD70B5EC
:107A2000040000690FF07EFF002815D020690FF0D8
:107A300090FF002811D020690FF0ECFE032120698F
:107A40000FF0F2FE8E239B00E558002D35D1002368
:107A5000FC34E3612362636270BD20690FF083FF31
:107A6000002809D020690FF079FF002804D0206990
:107A70000FF07EFF0028DED020690FF074FF002891
:107A800021D120690FF060FF0028E5D020690FF0B8
:107A90006FFF002833D088239B00E318DB68FF21A9
:107AA000002B05D020002530FF30FFF76EFFC1B25C
:107AB00020690FF029FFA075CEE7236820001B691D
:107AC0009847A847C3E720690FF0A4FE2069032167
:107AD0000FF0AAFE20690FF04BFF0028BCD08823CE
