:1020000000800020A57301008D7301008D73010015
:1020100000000000000000000000000000000000C0
:102020000000000000000000000000008D730100AF
:1020300000000000000000008D730100F973010032
:102040008D7301008D730100D55500008D73010063
:102050008D7301008D7301008D7301009173010078
:102060008D7301008D7301008D7301007D7F000071
:102070008D730100E5720100D57201008D730100BE
:102080008D7301008D7301008D7301008D7301004C
:10209000000000008D7301008D7301008D7301003D
:1020A0008D7301008D7301008D7301008D7301002C
:1020B0000000000010B5064C2378002B07D1054B1B
:1020C000002B02D0044800E000BF0123237010BDA4
:1020D000B00200200000000068810200044B10B52F
:1020E000002B03D00349044800E000BF10BDC046E8
:1020F00000000000B40200206881020010B5040056
:10210000183017F0BEFC200010BD000010B50248CA
:1021100003F0F6FE10BDC0469405002070B5012501
:102120001A4C1B4B1B491C48E5541CF057F91B4922
:102130001B481CF053F91B491B481CF04FF91B4B63
:102140001B491C48E5541CF049F91B4B1B4A1C4910
:10215000E2520A220233E2520433E552194B1A4882
:10216000E5540223E571E372237325721CF036F9FE
:10217000164917481CF032F9164917481CF02EF979
:10218000164917481CF02AF970BDC0464C43002080
:102190004B040000821A0200144700208C1A02002F
:1021A00087450020931A020066450020490400007C
:1021B000A31A0200914500201202000088130000BB
:1021C000C81A02004A0400007B430020CC1A020017
:1021D0009B430020F5280200BB430020CE1A0200DA
:1021E000FB4300200023994208D07F220B7A08602D
:1021F00093431A00042313430B7201231800704702
:102200000A21435E0200181E01D01B01D01870473E
:1022100070B50D00041E0FD0C168A9420CD0002D6E
:1022200006D0002904D028001CF0CEF8002803D0E6
:102230002000FFF7E5FFEDE7200070BD4A688B68DE
:102240001032934204D201230B740023180070470C
:10225000103B8B60002BF9D04268002A08D0991AF5
:1022600009115181002243605A811A72DA60EDE748
:102270000360F7E7F7B5037804000D002B2B1DD0A2
:102280002D2B1CD10127013423781A00303A092A5A
:1022900002D92E2B00D0C9E000200A2664492278FA
:1022A0001300303BDBB2092B0BD8884211D8DA433C
:1022B000704382420DD3C0180134F0E70134002787
:1022C000E2E7002A05D1002F18D080231B06984290
:1022D00009D90026574B98421AD90A21013617F01E
:1022E0005BFF76B2F6E77F222B7A404293431A00D7
:1022F0000A2313432B7228603800FEBD7F222B7AFD
:10230000286093431A00082313432B720127F3E735
:1023100023781A00303A092A03D8013676B20134FC
:10232000F6E72E2B0FD10A21434A01342378303BA4
:10233000DBB2092B07D8904203D84843013E181856
:1023400076B20134F2E7202322789A430023452A0B
:102350003AD162782D2A1FD1023401330193002330
:1023600021783039CAB2092A2AD80A225343CB1815
:10237000F118262922DD019A2B7A7F20002A11D01C
:102380000024002F01D0802424060C2183430B431A
:102390002B722C60019FAFE72B2A01D00134DDE7BF
:1023A0000234DBE7002F06D024490C228343134379
:1023B0002B722960AAE7FF21C905F6E70134CFE7B0
:1023C000019A002A00D05B422478002C2ED1F61806
:1023D00018F0B6FF002E1ADD01231E4204D0184A61
:1023E000A300D15818F096FC01347610E4B2002E08
:1023F000F2D1002F02D080231B06C0187F222B7A37
:10240000286093431A000C2313432B727EE7764215
:10241000002EEED001231E4204D00A4AA300D15858
:1024200018F078FC01347610E4B2F1E7002763E796
:1024300099999919FFFF7F00CBCC0C00000080FF19
:102440002818020010180200054B1A78002A04D040
:102450005978814201D00233F7E710007047C04637
:10246000C81E020070B50D00164E1749040030005A
:1024700017F06AFA1549300017F066FA144930006F
:1024800017F062FA0A222900300017F0EAFA002D4C
:1024900002D18021890008E0012DFAD08021022D8F
:1024A00002D0042D05D1C021C900200014F0FDFD8B
:1024B00070BD8021082D02D0102DEAD1A021090184
:1024C000F3E7C046C0510020321E0200441E020045
:1024D000501E020070B5094C200002F01FFD084D8F
:1024E0002100280002F0D0FF0028F4D0200002F0E4
:1024F000A1FF2800002102F067FF70BDC05100203D
:102500004C43002003280FD8104BDB7A0020012B0E
:1025100012D0022B13D0042B13D0082B13D0FE2182
:10252000102B0AD0002109E00438032802D8074BF9
:102530001B7BEBE70020F5E7FF2189057047044985
:10254000FCE70449FAE70449F8E7C0464C43002099
:102550000000B03F0000A03F0000903FF0B59DB0EC
:1025600004000291FFF7D2FD304D0AA8290017F0B0
:10257000D7FA29000DA817F0D3FA290010A817F0F0
:10258000CFFA2B4913A817F0CBFA290016A817F099
:10259000C7FA284D2849280017F0F2F927492800E2
:1025A00017F0D2F90A220299280017F03AFA244BC0
:1025B0002000DA79197A00231F0008300993089364
:1025C00007930693059304930393029CA34239DA7D
:1025D000002A11D00025445F3F190225445F039D66
:1025E0002C1903940425445F049D2C19049406259A
:1025F000445F059D2C190594002913D00825445FDC
:10260000069D2C1906940A25445F079D2C190794F2
:102610000C25445F089D2C1908940E25445F099DE4
:102620002C19099401332830CFE7C0462459020001
:10263000D21A0200C0510020D91A0200FA1A020070
:102640004C430020F54CF649200017F099F9F54B62
:10265000DB79002B23D0F449200017F075F90A220A
:102660003900200017F0E7F9F049200017F06CF965
:102670000A220399200017F0DEF9ED49200017F037
:1026800063F90A220499200017F0D5F9E9492000DE
:1026900017F05AF90A220599200017F0CCF9E14BFE
:1026A0001B7A002B24D0DD4CE349200017F04CF9B5
:1026B0000A220699200017F0BEF9E049200017F021
:1026C00043F90A220799200017F0B5F9DC492000E8
:1026D00017F03AF90A220899200017F0ACF9D94905
:1026E000200017F031F90A220999200017F0A3F908
:1026F000D54910A817F0ACFAC84CD449200017F0FF
:1027000023F910A9200017F031F9D14ED14930003A
:102710001BF064FED04930001BF03AFECF49300078
:102720001BF036FECE4D300029001BF031FECD49A6
:1027300030001BF02DFECC4C300021001BF028FE99
:10274000109930001BF024FE210030001BF020FE09
:10275000290030001BF01CFEC44930001BF018FE9D
:10276000FFF7D4FC0A22010019A817F01BFA1999E7
:1027700030001BF00DFE19A817F083F9A94BDB7B85
:10278000002B33D0290030001BF002FE2100300066
:102790001BF0FEFDB64919A817F0C2F919993000CF
:1027A0001BF0F6FD19A817F06CF9B24930001BF0C8
:1027B000EFFD0020FFF7A6FE04000D00380002998F
:1027C00017F074FD1AF02EFB22002B0019F01EFDED
:1027D0000B0002210200009119A817F044FA199980
:1027E00030001BF0D5FD19A817F04BF98D4C2F3494
:1027F0002378002B34D0964E994930001BF0C8FD49
:10280000994930001BF0C4FD210019A817F088F980
:10281000199930001BF0BCFD19A817F032F9954941
:1028200030001BF0B5FD0120FFF76CFE04000D0029
:102830000398029917F03AFD1AF0F4FA22002B00DF
:1028400019F0E4FC0B0002210200009119A817F016
:102850000AFA199930001BF09BFD19A817F011F91D
:10286000704D7B4C4F352B78002B33D07C492000AA
:102870001BF08EFD7C4920001BF08AFD290019A861
:1028800017F04EF9199920001BF082FD19A817F0D6
:10289000F8F8784920001BF07BFD0220FFF732FE9C
:1028A00006000F000498029917F000FD1AF0BAFA1A
:1028B00032003B0019F0AAFC0B000221020000913B
:1028C00019A817F0D0F9199920001BF061FD19A87B
:1028D00017F0D7F8534E6F363378002B34D05C4D59
:1028E0005F4928001BF054FD5F4928001BF050FD94
:1028F000310019A817F014F9199928001BF048FDA8
:1029000019A817F0BEF85B4928001BF041FD032011
:10291000FFF7F8FD06000F000598029917F0C6FCB6
:102920001AF080FA32003B0019F070FC0B00022113
:102930000200009119A817F096F9199928001BF0C8
:1029400027FD19A817F09DF8364E8F363378002BE7
:1029500034D03F4D424928001BF01AFD424928005F
:102960001BF016FD310019A817F0DAF819992800A4
:102970001BF00EFD19A817F084F83E4928001BF043
:1029800007FD0420FFF7BEFD06000F000698029920
:1029900017F08CFC1AF046FA32003B0019F036FCB6
:1029A0000B0002210200009119A817F05CF9199997
:1029B00028001BF0EDFC19A817F063F8194EAF368C
:1029C0003378002B63D0224D254928001BF0E0FC12
:1029D000254928001BF0DCFC310019A817F0A0F8ED
:1029E000199928001BF0D4FC19A817F04AF82149BE
:1029F00028001BF0CDFC0520FFF784FD06000F002A
:102A00000798029917F052FC1AF00CFA32003B00BA
:102A100019F0FCFB0B00022102002DE0C051002048
:102A2000161B02004C430020261B0200371B02002D
:102A3000481B0200591B02006A1B02007B1B02009C
:102A40008C1B02009D1B020014470020AE1B0200DD
:102A500008060020BE1B0200C01B0200C81B0200AB
:102A6000CF1B0200D11B02006D2A0200DF1B0200F7
:102A70005B4300205B1C0200009119A817F0F3F8DB
:102A8000199928001BF084FC19A816F0FAFF5B4D79
:102A9000CF352B78002B33D0594920001BF078FC20
:102AA000584920001BF074FC290019A817F038F8C9
:102AB000199920001BF06CFC19A816F0E2FF52498E
:102AC00020001BF065FC0620FFF71CFD06000F0030
:102AD0000898029917F0EAFB1AF0A4F932003B00BB
:102AE00019F094FB0B0002210200009119A817F0C5
:102AF000BAF8199920001BF04BFC19A816F0C1FF79
:102B00003E4DEF352B78002B33D03D4920001BF094
:102B10003FFC3C4920001BF03BFC290019A816F0A3
:102B2000FFFF199920001BF033FC19A816F0A9FF2C
:102B3000354920001BF02CFC0720FFF7E3FC0600C2
:102B40000F000998029917F0B1FB1AF06BF93200E7
:102B50003B0019F05BFB0B0002210200009119A859
:102B600017F081F8199920001BF012FC19A816F033
:102B700088FF264E264930001BF00AFC254C2649CA
:102B8000200016F0FDFE3100200016F0F9FE23496A
:102B9000200016F0F5FE224919A816F0C1FF10A971
:102BA00019A817F0E9F81F4917F0F3F800221E4D95
:102BB000009213000100280013F020FE19A816F05F
:102BC00060FF3100280016F0BFFE280014F005FA5F
:102BD0001649200016F0D4FE16A816F052FF13A8CE
:102BE00016F04FFF10A816F04CFF0DA816F049FF85
:102BF0000AA816F046FF1DB0F0BDC0464C430020A9
:102C0000CF1B02006D2A02005B1C02000806002098
:102C1000EC1B0200C0510020EE1B0200F91B020059
:102C2000121C02001B1C0200CC0400202D1C020000
:102C300070B505000024AC420FDA0121062014F023
:102C40006FFEC82002F0B0FC0021062014F068FEE0
:102C5000C82002F0A9FC0134EDE770BDF8B55E4D67
:102C600004005E49280016F08BFE5D4BDB79002BDB
:102C70003CD05C4E0321300014F056FA5A4907B29A
:102C8000280016F061FE0A223900280016F0C9FE5D
:102C900027810221300014F047FA544907B2280076
:102CA00016F052FE0A223900280016F0BAFE67819B
:102CB0000121300014F038FA4D4907B2280016F00F
:102CC00043FE0A223900280016F0ABFE0021300036
:102CD000A78114F029FA474906B2280016F034FEFD
:102CE0000A223100280016F09CFEE6813C4B1B7A3C
:102CF000002B3CD0404E0321300014F015FA3F4920
:102D000007B2280016F020FE0A223900280016F02B
:102D100088FE27820221300014F006FA384907B2F3
:102D2000280016F011FE0A223900280016F079FE5C
:102D300067820121300014F0F7F9324907B2280008
:102D400016F002FE0A223900280016F06AFE002161
:102D50003000A78214F0E8F92B4906B2280016F0DB
:102D6000F3FD0A223100280016F05BFEE682FA200D
:102D7000800016F0E7FC2083FA20800016F0E2FCC9
:102D80006083FA20800016F0DDFCA083FA2080002A
:102D900016F0D8FCE083FA20800016F0D3FC2084E3
:102DA000FA20800016F0CEFC6084FA20800016F035
:102DB000C9FCA084FA20800016F0C4FC134B084A1A
:102DC000E084D35C002B02D00120FFF731FFFFF736
:102DD0009DF92060F8BDC046C05100201F1A0200B6
:102DE0004C430020FC0200203A1A0200431A020061
:102DF0004C1A0200551A0200020300205E1A02005B
:102E0000671A0200701A0200791A02004A040000D0
:102E100073B51A4C1A49200016F0B2FDFA2619496A
:102E2000200016F0ADFD012502F09AFBB6000095DA
:102E30000123154A1549164803F052F8032807D014
:102E40001449200016F080FD300014F019FBEEE765
:102E50002900114802F04AFC0428F1D10F49200052
:102E600016F08EFD0A2002F025FB0D49200016F019
:102E700087FD200016F072FD73BDC046C0510020D2
:102E8000541E0200821E0200664500208745002075
:102E900094050020381A0200140300208E1E020040
:102EA000981E0200F0B55D4D5D4987B0280016F010
:102EB00067FD5C4C0121200002F0F4FD200002F0CF
:102EC000B9FD0028FAD05849280016F03DFD5749B1
:102ED000200002F081FCFA210022C900200002F04B
:102EE00087FD534E2800310016F04AFD5149280055
:102EF00016F046FD5049200002F06EFC4F4A642156
:102F0000200002F075FD3100280016F039FD4C4913
:102F1000280016F019FDFA274A49200002F05CFC4F
:102F2000BF00642014F0ACFA4749280016F00CFDED
:102F3000200002F07FFD00223900200002F058FD41
:102F40000128EED13100280016F01AFD3F49280073
:102F500016F016FDFA273E49200002F03DFCBF00A6
:102F6000642014F08DFA3849280016F0EDFC20009A
:102F700002F060FD00223900200002F039FD012836
:102F8000EED13100280016F0FBFC3249280016F083
:102F9000F7FC63273049200002F004FCFA21274A9D
:102FA000C900200002F024FD2C4903A816F0B8FD4A
:102FB00003A9224816F05EFF019003A816F061FDF8
:102FC000019B01330CD0019B06221C4903A816F07B
:102FD000A1FF03A817F012F8070003A816F051FD8F
:102FE000FA20800014F04CFA1F2FD3DC31002800A7
:102FF00016F0C6FC1A49280016F0C2FC2000194938
:1030000002F0EAFBFA210D4AC900200002F0F0FCB0
:103010003100280016F0B4FC07B0F0BDC05100200C
:10302000401802009C470020621802007F1802002E
:10303000891802008F180200B4180200FC05002055
:10304000BE180200EA180200381A0200F518020041
:103050002C1902003619020073190200CF1B02005E
:103060007A190200911902000300203303604360C3
:1030700088239B00C3188360C36000237F220374EE
:10308000037F934303777047F0B524C8954211D965
:103090000800130007781C785E1CBC4204D1002C89
:1030A00009D001303300F5E7187801331A00002801
:1030B000FAD1EBE700221000F0BD0023F0B585B097
:1030C00007000C00029103920093994208D0016816
:1030D000994208D17F22237A9343237201230093DC
:1030E000009805B0F0BD039E3000FFF7CDFF051E30
:1030F0001BD1BB6875680193B2680133EB1893422A
:1031000007D9012333747F22237A93432372002348
:10311000E5E77360002DF6D0019A396828001AF0AF
:10312000C8F86A46019B1278EA547F22237A256008
:1031300093431A00052313432372CFE770B5037A34
:103140000D0016007F211A0004000A4005D18B43B0
:103150005F390B430372026042602022237A1340DE
:10316000181E12D0281E10D029002068FFF750F832
:1031700000280AD131002000FFF760F8002804D0B1
:103180007F22037AC5601340037270BD10B5020040
:10319000037A20200340181E02D01068FFF738F889
:1031A00010BD437C002B06D1C3685A1CC2601B783B
:1031B000037401234374007C704710B504002000A1
:1031C000FFF7EFFF0A2806D8092808D2002809D0FF
:1031D000012020720CE00D2801D02028F8D1002316
:1031E0006374ECE7237A58345A1E934101332370F9
:1031F00010BD1FB57F220300007A10400438082854
:103200002ED816F0B5FF0F0F052D082D0D2D1A0025
:10321000187804B010BD1868C343DB171840F8E7EE
:103220001868F6E71868002301AC23722100FFF745
:1032300021F82000FFF7DDFFEBE7CF211C6809062E
:10324000201C17F099F90028E3D09E21201CC90505
:1032500017F07EF90028DCD0201C18F051F8D8E7D0
:103260000020D6E770B530C814340E0020002900C5
:10327000FFF78CFF002806D07F22037A1340082B2B
:1032800003D00A2B04D030680AE00368002BFADB75
:1032900029002000FFF77AFF002801D0FFF7A9FFDF
:1032A00070BD70B504000D00FFF77BFF0023A8423E
:1032B00001D163740133180070BD2F2815D9012383
:1032C000392803D95E2803D97A2803D81800704713
:1032D00040280AD901235A28F8D9002301222D3881
:1032E000C0B282425B41DBB2F0E701232B28F4D16C
:1032F000ECE710B5040008001BF078F863681818B4
:10330000606010BD37B500236A461370C3B27F28D2
:103310000BD853706B460233013B1878002831D02C
:103320000A68541C0C601070F6E73F2480226D463A
:1033300023405242134380096B7085B2C3B21F2DE4
:1033400006D8403213436A4693706B460333E3E773
:103350006D46234000041343800DAB70C3B20F28A9
:1033600005DC202252421343EB7001ABD4E71C4032
:10337000102380115B4218436B462243EA70287188
:103380000533C9E737BD0000F7B505000027FFF793
:1033900008FF6F7401902800FFF703FF0024019AD3
:1033A00003006C74824259D0A04204D102235835E4
:1033B00000202B70FEBD5C284BD12800FFF7F1FEEA
:1033C0000028F3D0284B752839D104266C742800C6
:1033D000FFF7E7FE0028E9D0402806D83038C0B211
:1033E0000F2806D958350323E2E7202398433738BE
:1033F000F5E700232401013E0443F6B2A4B26B7446
:103400009E42E4D1A0239B01E318184A9BB2934249
:1034100002D8A405A70DBEE790239B01E3189BB239
:103420002000934206D880238005BC02800D2043F3
:103430005B02C0182900FFF765FFACE702331A787A
:10344000002ACFD09042F9D15B78002BCAD000225D
:103450006A742A68511C296013709CE72B6801204C
:103460005A1C2A601C70A5E7C61E0200FF0300005C
:10347000036870B543600400FFF793FE27280DD062
:1034800022280BD02000FFF78CFE0500FFF715FF68
:10349000061E09D103235834237003E02000FFF7F0
:1034A00073FF0600300070BD0023637423682000A2
:1034B0005A1C22601D70FFF774FE0500FFF7FDFE29
:1034C0000028F1D123685A1C22601870EAE7F7B58A
:1034D00004000D001F1CFFF770FE0190002801D1B1
:1034E000002658E02000FFF75CFE272800D17BE093
:1034F0001DD8222800D177E02000FFF752FE0026D9
:1035000000900098F7B2FFF7D8FE002800D17EE0C7
:103510000136402E00D179E06A46002312786374A8
:10352000A319DA752000FFF73CFE0090E9E75B285D
:1035300013D07B28E0D17F222B7A290093431A00F5
:10354000202313432B72002300222B606B6020008A
:103550003B1C00F087F806001DE07F222B7AFFB2AB
:1035600093431A00402313432B7200232B606B609C
:103570009F4203D1583405332370B1E763742000B0
:10358000FFF71BFE0028ABD05D212000FFF789FE6E
:10359000061E02D0019E3000FEBD61692800FEF7C4
:1035A0004DFE011E03D1042358342370F3E77B1E24
:1035B00000222000FFF78BFF002800D190E72000B9
:1035C000FFF7FBFD002800D18AE75D212000FFF70F
:1035D00068FE0028DED12C212000FFF762FE0028C3
:1035E000DBD158340323C7E7236820006360FFF76B
:1035F000CBFE061E00D173E77F2263682B602B7A17
:1036000093431A00042313432B72C4E73F2700217E
:10361000E3191976237E742B0DD17F222B7A9343E5
:103620001A00062313432B7201232B70042FB1D0F1
:1036300058340223A0E7662B0AD17F222B7A297007
:1036400093431A00062313432B72052FF0D1A1E7F1
:103650006E2BEBD0200029001830FEF70BFE00285F
:10366000BFD097E7F7B5DFB204000E00002F04D1FA
:1036700005235834237000250DE000234374FFF721
:103680009CFD01900028F6D07D212000FFF709FE67
:10369000051E28D0019D2800FEBD63683068190012
:1036A0000093FEF7B5FD002831D001007B1E0022FB
:1036B0002000FFF70CFF0028DDD02000FFF77DFD84
:1036C0000028D8D07D212000FFF7EBFD0028E1D1B4
:1036D0002C212000FFF7E5FD002814D02000FFF783
:1036E0006CFD0028C7D02000FFF7C2FE0028C2D022
:1036F0002000FFF762FD0028BDD03A212000FFF72F
:10370000D0FD0028C9D1032358342370C3E7616971
:103710003000FEF793FD002802D158340423F4E76B
:103720007F22037A13400372009BC360BDE770B52C
:1037300005000E0043680133436030786C68002850
:1037400009D00136FEF780FE002802D002346C60FA
:10375000F3E70134FBE701346C6070BDF0B516246B
:1037600006000D000A2787B06C442800390016F0C7
:1037700099FD013C303121702800390016F00CFD14
:10378000051EF2D116236B441C1B73681C19746050
:1037900007B0F0BD10B50400006803685B68984787
:1037A00063681818606010BD70B5050008000C0053
:1037B0001AF01CFE210002002800FFF7EBFF70BD8D
:1037C000F0B5162407000D000A2687B06C442800C7
:1037D000310016F067FD013C3031217028003100C6
:1037E00016F0DAFC051EF2D116236B441A1B2100D9
:1037F0003800FFF7CFFF07B0F0BD00000623F7B594
:103800000E1C070083725849301C16F0B5FE0028C4
:1038100044D00023142420250093544B311C185904
:1038200016F096FE002809D0514B301C195917F09C
:1038300071FA009B061CE81803B20093043C6D105B
:10384000231DEAD103340021301C16F08BFE002822
:1038500028D0301C19F052FB464A474B16F03EFE6A
:1038600000281FD0A300019323061BD4434B019AC9
:10387000311C985816F076FE00280AD03B4B019A6E
:10388000301C995817F046FA009B061C581B03B2CF
:103890000093019B6D10013C043BE4E720250524C7
:1038A0000090D0E76B461B88301C3B8116F0DCFE95
:1038B0000400334D38600190019B092B0DD90A217A
:1038C000280016F069FCBB7A0500013B0198BB7229
:1038D0000A2116F061FC0190EEE7200017F030FDA0
:1038E000011C301C17F048FB061C280017F028FDAF
:1038F000011C301C17F00EFA019016F0B5FE060000
:1039000017F01EFD011C019817F036FB011C16F084
:10391000A1FF16F0A9FE8619AE4214D27E600A25D8
:103920007E682900300016F0BDFC00291AD10A2457
:103930003C57002C16DD2900300016F02DFC013C10
:103940007860BC72ECE700237B60009B01343C6034
:10395000002BE4D0092CE2D9180001230130388172
:103960003B60DCE73800FEBD8096184B281802004B
:1039700010180200F168E388B5F8E43EF817020079
:1039800040420F00F0B504008DB0081C0D1C16F06D
:10399000CFFD002805D13B492000FFF7AAFC0DB060
:1039A000F0BD0021281C16F0C3FD002809D1291CF8
:1039B000281C16F04FFF011C281C16F0B9FD00282A
:1039C000E9D10021281C16F0B9FD002805D0636854
:1039D0000133636080231B06ED1803AE291C300001
:1039E000FFF70CFF03992000FFF7B8FE0A23F356F8
:1039F0000093002B1DD01D0077680AAB0193019B3B
:103A0000013D013B6DB201936B1C0CD038000A21C3
:103A100016F048FC019B3031197038000A2116F06D
:103A2000BBFB0700EBE76B461B786268DB43D31AEE
:103A300063600823F25E002AB1D0636895B2002A61
:103A40001BDB0133636026260A2702ABF618280029
:103A5000390016F027FC013E303131702800390062
:103A600016F09AFB85B2002DF1D1262302AA9B18ED
:103A70009E1B63689E19666091E702336D42636026
:103A8000ADB2E0E7C11E02007F2270B5037A0C00E0
:103A90001340062B5ED007D8022B0CD3032B47D83C
:103AA00040684B68C01841E00C2B1DD005D8082B8E
:103AB0004ED00A2B41D02C4951E0202B1AD0402B5C
:103AC000F9D14B68056801334B60002D2CD02100E3
:103AD0002800FFF7D9FF2800FEF792FB051E23D030
:103AE000636801336360F0E701682000FFF74AFF75
:103AF00060681CE04B68056801334B60002D13D0F3
:103B0000E9682000FFF713FE63682100013363605A
:103B10002800FFF7B9FF2800FEF772FB051E03D04F
:103B2000636801336360E9E76368581C606070BDD7
:103B300001682000FFF7FBFDDAE70168002903DADE
:103B400063684942013363602000FFF707FECFE757
:103B50000168F9E703780549002B00D104492000EA
:103B6000FFF7C7FBC4E7C046C11E0200D71E020014
:103B7000DC1E020010B50400006803685B6898470B
:103B800063681818606010BD70B5050008000C006F
:103B90001AF02CFC210002002800FFF7EBFF70BD9B
:103BA000F0B5162407000D000A2687B06C442800E3
:103BB000310016F077FB013C3031217028003100D4
:103BC00016F0EAFA051EF2D116236B441A1B2100E7
:103BD0003800FFF7CFFF07B0F0BD10B50400006854
:103BE00003681B68984763681818606010BD000080
:103BF000F0B504008DB0081C0E1C16F099FC0028CE
:103C000005D141492000FFF7CFFD0DB0F0BD0021E7
:103C1000301C16F08DFC002809D1311C301C16F028
:103C200019FE011C301C16F083FC0028E9D100218C
:103C3000301C16F083FC002806D02D212000FFF751
:103C4000CCFF80231B06F61803AD311C2800FFF7BC
:103C5000D5FD03992000FFF7B3FD0A23EB5600932F
:103C6000002B23D06F6801930AAE019B013E013BFC
:103C70005BB2019301330BD038000A2116F012FB1E
:103C80003031317038000A2116F086FA0700ECE76F
:103C90006B461B782026D9432E228B1902A8C254CA
:103CA0000AAB4A4220005918FFF774FD0822AB5EA8
:103CB000002BAAD065212000FFF78FFF0823EE5EBE
:103CC000B5B2002E05DA2D212000FFF786FF7542E0
:103CD000ADB226260A2702ABF6182800390016F0E6
:103CE000E1FA013E303131702800390016F054FA03
:103CF00085B2002DF1D1262302AA9B189A1B310010
:103D00002000FFF747FD80E7C11E0200F8B50E0056
:103D1000040022212000FFF760FF3578002D0DD030
:103D20002800FEF791FB0136070029000028F1D09A
:103D30005C212000FFF751FF3900EBE72221200032
:103D4000FFF74BFFF8BD00007F2270B5037A050036
:103D50000C001340062B00D169E008D8022B0DD3CC
:103D6000032B50D806CD2000FFF714FD25E00C2BC7
:103D70001FD005D8082B58D00A2B49D030495BE01A
:103D8000202B21D0402BF9D15B212000FFF725FF0C
:103D90002D68002D13D021002800FFF7D5FF280043
:103DA000FEF72EFA051E0AD02C212000FFF715FF82
:103DB000EFE701682000FFF71BFF606870BD5D2121
:103DC0002000FFF70AFFF8E77B212000FFF705FF3F
:103DD0002D68002D15D0E9682000FFF797FF3A21E4
:103DE0002000FFF7FAFE21002800FFF7ADFF2800B2
:103DF000FEF706FA051E04D02C212000FFF7EDFE89
:103E0000E7E77D21DCE701682000FFF77FFFD4E7CB
:103E10000568002D04DA2D212000FFF7DEFE6D423B
:103E200029002000FFF7CCFCC7E70168F9E7037819
:103E30000449002B00D104492000FFF7B5FCBCE782
:103E4000C11E0200D71E0200DC1E020010B50C00CD
:103E5000002802D0FFF778FF10BD20000249FFF7CD
:103E6000A3FC6068F8E7C046C11E02001FB500232E
:103E70000191143001A90293FFF7E8FF05B000BDDE
:103E8000F0B5F74CA544FEF741F9F64C02A8210025
:103E900015F046FE210005A815F042FE210008A8F5
:103EA00015F03EFE21000BA815F03AFE21000EA8E9
:103EB00015F036FEEC4908A815F0CAFEEB4C14A824
:103EC000210002F077FB14A90BA815F0B9FE14A885
:103ED00015F0D7FD210014A802F088FB14A90EA844
:103EE00015F0AEFE14A815F0CCFDE14CE149200020
:103EF0001AF074FAE04920001AF04AFADF4920006B
:103F00001AF046FADE4D200029001AF041FADD4988
:103F100020001AF03DFADC4E200031001AF038FA89
:103F2000089920001AF034FA310020001AF030FA13
:103F3000290020001AF02CFAD44920001AF028FA9F
:103F4000310020001AF024FA0B9920001AF020FA10
:103F5000310020001AF01CFA290020001AF018FA8B
:103F6000CB4920001AF014FA310020001AF010FAA0
:103F70000E9920001AF00CFA310020001AF008FA0D
:103F8000290020001AF004FAC24920001AF000FAB1
:103F9000FEF7BCF80A22010014A815F003FE1499DC
:103FA00020001AF0F5F914A815F06BFD2900200087
:103FB0001AF0EEF9B84920001AF0EAF98523B74F54
:103FC0009B00F95A0A2214A815F0DAFD1499200072
:103FD0001AF0DEF914A815F054FD290020001AF09B
:103FE000D7F9AF4920001AF0D3F9AE4A14A8B95A4C
:103FF0000A2215F0C5FD149920001AF0C9F914A879
:1040000015F03FFD290020001AF0C2F9A649200052
:104010001AF0BEF9862189000A22795A14A815F0EF
:10402000AFFD149920001AF0B3F914A815F029FD7A
:104030009E4920001AF0ACF98E4905A815F063FEE0
:104040008D4905A815F05FFE8C4905A815F05BFEAB
:10405000290005A815F057FE8A4905A815F053FE5A
:10406000310005A815F04FFE08A8010005A815F0BD
:1040700038FE310005A815F046FE290005A815F008
:1040800042FE824905A815F03EFE310005A815F054
:104090003AFE0BA8010005A815F023FE310005A883
:1040A00015F031FE290005A815F02DFE784905A868
:1040B00015F029FE310005A815F025FE0EA8010017
:1040C00005A815F00EFE310005A815F01CFE29000C
:1040D00005A815F018FE6F4905A815F014FEFEF7A7
:1040E00015F88526010005A815F039FE290005A858
:1040F00015F009FEB600684905A815F004FEB95B85
:1041000005A815F012FE290005A815F0FCFD64496C
:1041100005A815F0F8FD634A05A8B95A15F005FE83
:10412000290005A815F0EFFD5F4905A815F0EBFD86
:1041300086218900795A05A815F0F7FD5B4905A885
:1041400015F0E1FD14A8FEF78FFF14AA584919A82D
:10415000FEF7F4FF01005748FEF744F814AA564949
:1041600019A8FEF7EBFF01003F48FEF73BF814AA41
:10417000524919A8FEF7E2FF4A4C002808D07F22D6
:10418000037AB95B93431A00082313430372016057
:1041900014AA4B4919A8FEF7D1FF002808D07F22A6
:1041A000037A395B93431A000823134303720160B7
:1041B00014AA444919A8FEF7C1FF00280AD0862393
:1041C0007F229B00F95A037A016093431A00082367
:1041D0001343037200253C4C14A82100FFF746FE50
:1041E000200015F0BBFB11A919A81295FFF74CFC94
:1041F00006003649200015F0C3FB0A2231002000DA
:1042000015F019FC3249200015F0BAFB314911A80C
:1042100015F086FC08A911A815F0AEFD2E4915F081
:10422000B8FD2E4E2B002A0001000095300012F040
:10423000E5FA11A815F025FC05A9300015F07DFB65
:10424000300012F0CAFE2649200015F099FB0EA896
:1042500015F017FC0BA815F014FC08A842E0C046A6
:104260008CFDFFFF2459020014470020C8040020E1
:1042700008060020BE1B0200C01B02003E1C0200FC
:10428000CF1B0200D11B02006D2A0200491C020054
:10429000551C0200DF1B02005E1C02004C43002084
:1042A000681C020012020000741C0200EC1B0200D9
:1042B0007F1C020083200200841C02008F1C02006D
:1042C000961C02009F1C0200C0510020A71C020087
:1042D000F91B0200121C02001B1C0200CC0400206F
:1042E0002D1C020015F0CDFB05A815F0CAFB02A895
:1042F00015F0C7FB9D239B009D44F0BD10B5040045
:10430000006803681B68984763681818606010BDF0
:10431000F0B504008DB0081C0E1C16F009F9002839
:1043200005D141492000FFF72FFC0DB0F0BD002161
:10433000301C16F0FDF8002809D1311C301C16F095
:1043400089FA011C301C16F0F3F80028E9D100218D
:10435000301C16F0F3F8002806D02D212000FFF7BE
:10436000CDFF80231B06F61803AD311C2800FFF794
:1043700045FA03992000FFF713FC0A23EB5600933C
:10438000002B23D06F6801930AAE019B013E013BD5
:104390005BB2019301330BD038000A2115F082FF84
:1043A0003031317038000A2115F0F6FE0700ECE7D5
:1043B0006B461B782026D9432E228B1902A8C254A3
:1043C0000AAB4A4220005918FFF7D4FB0822AB5E23
:1043D000002BAAD065212000FFF790FF0823EE5E96
:1043E000B5B2002E05DA2D212000FFF787FF7542B8
:1043F000ADB226260A2702ABF6182800390015F0C0
:1044000051FF013E303131702800390015F0C4FEF3
:1044100085B2002DF1D1262302AA9B189A1B3100E8
:104420002000FFF7A7FB80E7C11E0200F8B50E00D1
:10443000040022212000FFF761FF3578002D0DD008
:104440002800FEF701F80136070029000028F1D006
:104450005C212000FFF752FF3900EBE7222120000A
:10446000FFF74CFFF8BD00007F2270B5037A05000E
:104470000C001340062B00D169E008D8022B0DD3A5
:10448000032B50D806CD2000FFF774FB25E00C2B42
:104490001FD005D8082B58D00A2B49D030495BE0F3
:1044A000202B21D0402BF9D15B212000FFF726FFE4
:1044B0002D68002D13D021002800FFF7D5FF28001C
:1044C000FDF79EFE051E0AD02C212000FFF716FFE7
:1044D000EFE701682000FFF71BFF606870BD5D21FA
:1044E0002000FFF70BFFF8E77B212000FFF706FF16
:1044F0002D68002D15D0E9682000FFF797FF3A21BD
:104500002000FFF7FBFE21002800FFF7ADFF280089
:10451000FDF776FE051E04D02C212000FFF7EEFEED
:10452000E7E77D21DCE701682000FFF77FFFD4E7A4
:104530000568002D04DA2D212000FFF7DFFE6D4213
:1045400029002000FFF72CFBC7E70168F9E7037893
:104550000449002B00D104492000FFF715FBBCE7FC
:10456000C11E0200D71E0200DC1E0200F0B5544F2F
:10457000D5B05449380015F003FAFA20400101F093
:1045800013F8FDF7C3FD504905A815F0C9FA4F4BC4
:104590000BA8196819F022FF2CAC34AB2C93636084
:1045A00054ABA360E36000237F252374237F2200A4
:1045B000AB432377464931A8FEF7C0FD01004548CB
:1045C000FDF710FEFDF7A2FD22000600424931A8CA
:1045D000FEF7B4FD002805D00823027A0660AA433E
:1045E0001343037222003D4931A8FEF7A7FD2200C4
:1045F000010008903A480994FEF75FFD220039490E
:1046000031A8FEF79BFD061E2AD00BA92000FEF75D
:104610003BFD051E1CD10BA819F0E8FE03006568E0
:104620000133A268EB180390934206D90123237447
:104630007F22337A9343337212E06360002DF7D008
:10464000039A0BA9280018F034FE0023039AAB54F8
:104650007F22337A356093431A0005231343337264
:10466000002408A931A808970994FFF7EFFB380048
:1046700015F074F91C4905A815F0EAFA184905A8BF
:1046800015F02FFB194905A815F03DFB184D230027
:10469000220005A90094280012F0B0F808A931A85A
:1046A00008950994FFF7E0FE280012F096FC0649F1
:1046B000064815F0CDFA05A815F0E3F955B0F0BDA0
:1046C000C0510020F81D020024590200D802002029
:1046D000141E02000E1E0200191E0200231E0200FC
:1046E000CC0200202A1E0200121C02001B1C020029
:1046F000CC040020F8B5424E424F3100380015F08E
:104700000FFA414C414D22002900380015F028FDD8
:104710003F4F3100380015F003FA2200290038001D
:1047200015F01EFD3B4F3100380015F0F9F922005D
:104730002900380015F014FD374F3100380015F00E
:10474000EFF922002900380015F00AFD334F31003F
:10475000380015F0E5F929002200380015F000FDB9
:104760002F4F380000F056FF22002E49380015F078
:10477000F7FC2D4F0021380001F03AFA22002B49B6
:10478000380015F0EDFC2A4F0121380001F0B2FE8F
:1047900022002849380015F0E3FC3900264803F0D0
:1047A00023FD22002549244815F0DAFC244F224934
:1047B000380011F08DFE22002249380015F0D0FC9F
:1047C000214801F0EBFE214F3100380015F0A8F927
:1047D00022002900380015F0C3FC1D4F31003800BD
:1047E00015F09EF922002900380015F0B9FC482187
:1047F000184812F053FC4921174812F04FFCF8BD3D
:1048000024590200FC05002000000020839A0100CA
:10481000E4020020CC020020F0020020D802002098
:1048200014030020E955000094050020FD2000003D
:10483000BC05002001600000000800202981000064
:10484000CC040020C5630100C804002020430020E0
:1048500008030020FC02002002030020F0B56C4B8E
:1048600085B005201B78FEF7E3F9FEF71BFB694CCA
:104870006949200015F084F800F072FEE1216748D4
:10488000490214F031FD664E300000F07FFD6549AD
:10489000300000F0FBFD300000F078FDFDF71AFE5F
:1048A000614F380002F0F0F9002804D15F49200080
:1048B00015F066F8FEE75E4D08220021280002F0A0
:1048C0006BFF390001A802F0EDFA0199280002F00F
:1048D00081FF01A815F0D5F8280003F029F9554902
:1048E000554803F06CFB280002F06EFF070028001B
:1048F00002F06DFF3A0003000021504803F07EFCF7
:104900004F4BF35C4F4E012B0BD14F49200015F05C
:1049100037F84E494E4815F09BF94E49300015F0D6
:1049200097F94D4D3100280015F0DBF94B4928006F
:1049300015F0E9F9464F2800390015F0D2F9484939
:10494000280015F0E0F94749200014F0FDFF290088
:10495000200015F00BF8444E3900300011F0C0FD76
:10496000424901A815F0DCF801AA2900300011F035
:10497000BCFD01A815F085F830003D4911F0AEFDF1
:1049800000233C4E01210620336012F07DFFE1211F
:104990002248490214F0A8FCE1212000490213F04A
:1049A00039FB00F0DDFD3449200014F0E9FF0A2056
:1049B00000F080FD3149200014F0E2FF00F0E4FD3A
:1049C000174DEB79002B0CD02D49200014F0BCFFC3
:1049D000E97A0A22200015F048F8E97A2948FDF71B
:1049E00041FD2B7A002B0CD02749200014F0ACFF9E
:1049F000297B0A22200015F038F8297B2348FDF78F
:104A000031FD234801F0CCFD0023336005B0F0BD3B
:104A100038040040C05100208D1F0200004D0020CE
:104A20004C4300201D210000444800209D1F02002F
:104A3000E84800200D210000D04B00200008002095
:104A40004B040000F0020020B01F020014470020B9
:104A5000CC0200209145002020430020191C0200B8
:104A6000D31F0200EB1F0200CC04002024590200D7
:104A7000854C000034030020F71F020005200200CF
:104A80000F200200FC020020272002000203002069
:104A9000C804002030B5A5B03149684615F040F88B
:104AA0003049684615F0D4F82F49684615F019F9D1
:104AB0002E49684615F027F92D4C2E49200014F098
:104AC0005FFF00F04DFD2C4B03A8196819F086FC20
:104AD0002A49200014F038FF03A9200014F034FF05
:104AE0002749200014F04CFF264D274A03A928002F
:104AF00012F044FA00280FD12449200014F024FFBA
:104B0000280011F0FEFC0A220100200014F089FFA9
:104B10001F4812F0B5FCE7E7200014F01FFF1D4905
:104B2000200014F02DFF200014F018FF1A49200077
:104B300014F00AFF6946200014F018FF00226946AD
:104B4000280012F0FEF81549200014F019FF0A2081
:104B500000F0B0FC684614F094FF25B030BDC046AC
:104B600024590200121C0200CC020020A5190200E8
:104B7000C0510020821E0200F0020020BD19020078
:104B8000EC270200CC040020B3220000381A0200F7
:104B900088130000D9190200FD1902008E1E0200C0
:104BA000F8B52B4C2B49200014F0EAFE00F0ECFC89
:104BB000294801F001FA032844D0FEF729F92748D3
:104BC00011F001FD002801D1FFF764FF0220FEF77C
:104BD0002FF82349200014F0D3FE28208527214DEB
:104BE000BF002B6858435A1C1F4B2A60C018FEF7A1
:104BF00035F81E49200014F0A7FE0A22296820007B
:104C000014F00FFF1A49200014F09EFE194E0A22DC
:104C1000F15B200014F005FFF35B2A6893420CDC83
:104C20001549200014F0ACFE0C4811F087FE2968ED
:104C30000D48FDF793FC00232B60104BF05A00F059
:104C4000B3FCF8BD0E4800F077FD0428B5D1B6E7F7
:104C5000C0510020E21E020094050020CC04002078
:104C6000EF1E020034030020380300201F1F020043
:104C7000351F02004C430020541F020012020000A6
:104C800014030020F0B5884C884DA544040000AF03
:104C90008749280014F058FE23006A460833DB08D1
:104CA000DB00D31A9D466E467B607B68F31A9C42FC
:104CB00005DD804811F073FB30700136F5E7E34302
:104CC0000026DB171C407B6828001E55190014F0D5
:104CD0003BFE280014F042FE082160237A18D41805
:104CE0002000FEF7C1F97F22BB6E08216360E368F4
:104CF0003E61A360237F3E75934323777B687A18D8
:104D0000FB607B687E77BB615C23D31826743C62B2
:104D100078181E70743681190C200A230022381866
:104D2000FEF7D5FB0823FB1863499819FEF72EFA06
:104D3000002800D1B5E07F22037A1340043B012B09
:104D400000D9AEE00668002E00D1AAE05B49280039
:104D500014F0FAFD3100280014F012FE584930001A
:104D600019F032FB002800D08BE05649280014F0DF
:104D700007FE29002000FFF779F8280014F0EEFD67
:104D8000514B08223B6101260C237642B918F818D2
:104D9000FC60BE60FEF766FA4C4B08223B610C23B8
:104DA000B918F818FC60BE60FEF75CFA484B0822A0
:104DB0003B610C23B9183860F818FC60BE60FEF740
:104DC00051FA444B08223B61012306005B42BB6061
:104DD0000D33B918F818FC60FEF744FA32003E4B68
:104DE000643A78603D4C9A420ED83D49280014F050
:104DF000ABFD0A223100280014F00FFE39492800CB
:104E000014F0BEFD384BE6523B68013B092B11D82C
:104E1000264D3649280014F097FD0A22310028005B
:104E200014F0FBFD3249280014F0AAFD85233A88CE
:104E30009B00E2527B68013B082B0DD81B4D2D498E
:104E4000280014F081FD0A227968280014F0E9FD99
:104E50008623BA889B00E2520121200000F0B4FAB8
:104E6000FFF70EF801211D4800F0AEFA224B9B68B7
:104E7000002B01D0FFF77AFBBD46A3239B009D4486
:104E8000F0BD1E49300019F09FFA002804D11C49DA
:104E9000280014F075FDE3E71A49174814F0D8FE0E
:104EA000E0E71949F9E7C04674FDFFFFC051002053
:104EB000BA1C0200CC0400207F1C0200DA1C020095
:104EC00083200200EA1C0200071D02008F1C020062
:104ED000961C02009F1C02005BD401004C43002082
:104EE0000B1D02002D1D020012020000311D0200E8
:104EF000451D0200541D0200D8020020691D020059
:104F00006E1D02009A1D0200DC1D020010B5012179
:104F1000014800F059FA10BD4C430020F0B5B9B07B
:104F2000040012F077FAFA2301259B00C3180093BE
:104F300000232F00029312F06DFA009BC01A00D4D8
:104F4000AEE0029BF92B00D9AAE0002D12D05949FE
:104F5000200014F015FD2100574800F03FF9200013
:104F600000F068FA5549200014F0EEFC029B013372
:104F7000DBB20293236820001B69984700282AD1DE
:104F8000236820001B699847051ED4D000231E000B
:104F90000393019312F03EFA009BC01A75D5019B52
:104FA000002B23D1236820005B699847051EF1DDA3
:104FB00012F030FAFA239B00C31800930D2D3CD158
:104FC000236829001B682000984712F023FA32302A
:104FD00003900197DEE7236820009B69984700282B
:104FE000CED1236820005B699847C3E7236820007F
:104FF0009B699847431C58D112F00CFA039BC01AC6
:10500000D0D4002505AB9B191D70AE4293DB12D0A6
:105010002B4905A819F09EF9A84241D005AA3900EC
:10502000254800F070F8A84233D012F0F3F9FA23C3
:105030009B00C31800933D007DE70A2D05D123682E
:1050400029001B6820009847DBE700230193082D07
:1050500001D07F2D09D19E429CD0236803225B683A
:10506000184920009847013E94E7C72E92D82B009C
:10507000203B5E2B8ED82368EDB21B6829002000F0
:10508000984705AB9D55013684E7002505AB1D709B
:1050900051E705A90C4800F0E7F90028C5D1CAE797
:1050A000200014F05BFC39B0F0BD0A2800D179E78C
:1050B000A7E7C0463F200200642002004B20020008
:1050C0005F2002005B2002004C430020F7B5060081
:1050D0000F0000240192BC4212D018236343F3183E
:1050E0005D68280019F082F929000200019819F082
:1050F00084F9631C002801D12000FEBD1C00EAE7F2
:1051000001204042F9E770B506001500FFF7DEFF09
:10511000002398420DDB182444433419A668013358
:10512000002E06D0606819F061F929182000B047F8
:105130000123180070BD70B504690500002C08D06B
:105140004269200019F08EF96B69E4180023013CD4
:10515000237070BD10B504690B00002C05D000222F
:105160001800110019F02CFF207010BD10B5046953
:105170000B00002C05D000221800110019F020FFB0
:10518000208010BD70B50C0005000A49200014F005
:10519000DBFB2968200014F0D7FB0749200014F03E
:1051A000D3FB6968200014F0CFFB0449200014F001
:1051B000CBFB70BDEB2702008F2002009220020083
:1051C00070B50C000500080014F0C8FB2968200029
:1051D00014F0BAFB200014F0C1FB70BD70B5056976
:1051E0000C00FFF7CFFF002D04D02900200014F0A1
:1051F000C7FB70BD200014F0B1FBFAE770B505697C
:105200000C00002D06D0FFF7BDFF29780A222000F0
:1052100014F02BFC70BD70B505690C00002D06D094
:10522000FFF7B0FF29880A22200014F0FAFB70BDB6
:1052300030B5094D094CAB685B035B0F9B001C59F3
:105240000460AB6801619BB243606343A400836068
:10525000C460426130BDC046004000419820020059
:10526000F7B580261A4D01916F6803333E439B08C2
:105270006E60002B2BD0174E2E802E7DF107FCD5B3
:105280001E000768991BBF088F4219D9002E17D03E
:10529000FF2117788C433C430F4957780C403F025D
:1052A0003C439778013E39040C4F2740D478BFB275
:1052B0000F43240601993C4310C101910432E0E7F9
:1052C000074B2B802B7DDB07FCD53300D1E7F7BDE7
:1052D0000040004144A5FFFFFF00FFFFFFFF00FF6C
:1052E00004A5FFFF044B054A4908D9611A801A7DBD
:1052F000D207FCD57047C0460040004102A5FFFF21
:1053000070B504000D001600E36829002000B342C8
:1053100005D2FFF7E7FFE368ED18F61AF4E7FFF7A9
:10532000E1FF70BD10B510001A0017F0C2FF10BDEC
:105330000D4BF0B5C418082500230C4EA04210D028
:105340000278120253402A001FB259008BB2002F7C
:1053500001DA71408BB2013AD2B2002AF4D10130A5
:10536000ECE71800F0BDC0464C040000211000001E
:10537000044B10B51B68002B00D098470122024B4C
:105380001A7010BD304300202C43002010B50400DB
:105390000A48220043690169FFF7C4FF2000FFF7B4
:1053A000C7FF2288064B9A4203D1064BE35A834239
:1053B00002D02000FFF7DCFF10BDC04634430020C0
:1053C000EFBE00004C04000030B5134C134DA54453
:1053D0000400002902D12B78002B19D0104B20009B
:1053E0002380FFF7A5FF0F4B2100E0520E4A6846CD
:1053F00017F05FFF0D4C626921692000FFF780FF05
:1054000063696A4621692000FFF72AFF00232B7099
:10541000074B9D4430BDC046ACFBFFFF2C43002032
:10542000EFBEFFFF4C0400004E0400003443002098
:105430005404000070B50500902614F08FFA084956
:10544000280014F09DFA0024760006482018C3684E
:10545000002B01D0290098471834B442F5D170BD13
:10546000202702000026020010B50A0004480C2183
:10547000FFF749FE002802D00122024B1A7010BD2E
:10548000002602002C43002001207047014B1960C8
:105490007047C0463043002010B5034A0349044812
:1054A000FFF7C6FE10BDC0464E04000000210200FA
:1054B000344300201023224A91690B439361214B0E
:1054C0001A7852B2002A3ADB1F4A204991602049DB
:1054D0005160517849B20029FBDB1E495180517857
:1054E00049B20029FBDB02211A788A431A70DA7963
:1054F00052B2002AFBDB04211A788A431A70DA7947
:1055000052B2002AFBDB0F21421C0A405A700222D1
:105510000840987019780A431A70DA7952B2002A52
:10552000FBDB0122C0205A710B4B03321A60800052
:105530001A580A491140C02212040A431A507047EF
:105540000004004000100040000C00400404000073
:10555000040311000344000000E100E0FFFF00FF2E
:105560000221074B1A788A431A70DA7952B2002A5C
:10557000FBDB1021034A93698B4393617047C0465C
:105580000010004000040040064B1900DA7952B2C6
:10559000002AFBDBA5221A72CB795BB2002BFBDB66
:1055A0007047C0460010004070B5040011F032FF93
:1055B0000A25041911F02EFFA0420AD2FFF7E4FFDA
:1055C00011F028FF201A0A2800D9280011F058FFEE
:1055D000F0E770BD0123024A1370024A93717047CD
:1055E0009A4700200010004010B50400034B083318
:1055F00003600C3014F045FA200010BDE4280200CE
:1056000010B50400FFF7F0FF200014F025FD200086
:1056100010BD0000074B10B50833036001230400E0
:10562000037205490C3014F07BFA00232000E3617B
:1056300010BDC046E42802002459020030B5264CB3
:1056400085B00500200000F0CDF9002837D02000FB
:1056500000F0E0F800226B681000013B052B2ED80B
:10566000180014F085FD03090D182E341B49200085
:1056700000F098F8022300E003236B6000201EE096
:10568000290020000C3100F077FA1549200000F0C5
:1056900089F80423F1E7134901A814F041FA28001E
:1056A00001A90C3014F0A5FB040001A814F0E9F9DD
:1056B000002CDFD0002301206B6004332B7205B077
:1056C00030BD0949200000F06DF80623D5E701231D
:1056D0006A602B72D2E7C0469C470020C1280200B6
:1056E000CC2802007C290200D6280200F8B501234C
:1056F0004360DB1804000372002919D011F08AFE00
:10570000FA26070076002000FFF798FF051E09D152
:10571000E369002B08D011F07DFEE369C01B9842BD
:1057200002D36560207AF8BD300011F0A9FEEAE7E7
:10573000FFF784FFF6E7000010B50400024800F010
:1057400069F8207A10BDC0469C47002010B50400BF
:105750001C3014F096F9200010BD000070B5836075
:10576000049B06000025C360012304001C36426030
:1057700005610575836101603000054914F0D0F9B9
:10578000A5623000402114F09DF9200070BDC04694
:1057900024590200014B024A1A607047C847002092
:1057A000C051002070B504000D0011F033FE2369D4
:1057B000C01A132803D81423181A11F061FE290007
:1057C000206814F0DDF820680368DB689847002340
:1057D0002375A36170BD00000EB410B50A4C0B49CF
:1057E000A5440400FFAB183304CB02A8019319F0C1
:1057F00087FE02A92000FFF7D5FF054B9D4410BC92
:1058000008BC03B01847C046F4FBFFFFFF030000CD
:105810000C040000F0B5040087B0206803681B6921
:105820009847002800D192E0206803685B69984798
:10583000634BC6B21868002803D0036831001B68A8
:10584000984725001C353100280014F065FA277DA3
:10585000012F48D05B49684614F062F96946280078
:1058600014F0BBFA0026B0420DD0574903A814F03B
:1058700057F903A9280014F0BCFA461EB041C6B27D
:1058800003A814F0FEF8684614F0FBF8002E06D0CA
:10589000012323754D49280014F0DAF9BDE74A4980
:1058A00003A814F03DF903A9280014F0A2FA070098
:1058B00003A814F0E6F8002FAFD0280014F075FB11
:1058C000636A002BE6D011F0A5FD2061404BB200C9
:1058D000D058002803D0036829001B689847013678
:1058E000082EF3D1D6E70A2E97D111F093FD39494E
:1058F000206103A814F014F903A9280014F003FB95
:10590000060003A814F0BDF8731C22D0A761A36998
:10591000002B82D0A26A002A13D0012B4ADD03A8F3
:10592000636A3200290014F0F5FA03A814F0A9F80C
:10593000280014F03AFB2900A06A14F067F900234C
:10594000A362002321492375280014F081F907B0D0
:10595000F0BD214903A814F0E3F803A9280014F0CE
:10596000D2FA060003A814F08CF8731C02D00223AC
:10597000A361CCE7194903A814F0D2F803A92800C1
:1059800014F0C1FA060003A814F07BF8731C01D0D0
:105990000323EDE7124903A814F0C2F803A9280075
:1059A00014F0B1FA060003A814F06BF8731CAED023
:1059B0000423DDE73100280014F0E4FAB8E7C0461C
:1059C000C8470020F4280200F928020024590200E8
:1059D000CC470020F7280200FC280200042902001E
:1059E0001129020010B50400FFF714FFA06910BDD3
:1059F00070B5826204000E0011F00CFD050011F07C
:105A000009FD401BB04208D22000FFF703FFA06948
:105A10000028F4D00023A36270BD00232000A362FD
:105A20001C30034914F014F901204042F4E7C04649
:105A30002459020010B504000549FFF7B3FE002207
:105A4000C8212000FFF7D4FF01384342584110BD60
:105A5000F428020070B505000E0011F0DBFC040014
:105A600011F0D8FC001BB04208D22800FFF7E2FF7B
:105A7000012804D0642011F003FDF1E7002070BD7F
:105A800010B507490400FFF78DFEFA2100228900B6
:105A90002000FFF7ADFF01384342584110BDC0461A
:105AA000EA18020070B50400E1230D006168006887
:105AB0005B02994200D919000368DB699847E368E3
:105AC0000121D8B211F0E0FEE3680121D8B211F053
:105AD00027FFA06800283CDB002D3AD0C0B201218E
:105AE00011F0D2FEA3680121D8B211F019FF642091
:105AF00011F0C6FCA3680021D8B211F011FF1C49B7
:105B00002000FFF7A7FF002829D0E12362685B028D
:105B100001209A4224D917492000FFF75DFE002298
:105B2000C8212000FFF764FF012818D1206803680E
:105B30005B6A9847642011F0A3FC206861680368E1
:105B4000DB6998470A492000FFF784FF431E98410C
:105B500006E007492000FFF77DFF002801D1002063
:105B600070BD2000FFF78CFF0028C8D1F7E7C046C2
:105B7000102700001B29020081627047002310B526
:105B8000054A98008458002C01D1815010BD013382
:105B9000082BF6D1FAE7C046CC470020002310B509
:105BA000054A980084588C4202D10023835010BDCE
:105BB0000133082BF5D1FAE7CC4700202323E1225B
:105BC00013B5074C00935202043B06492000FFF72F
:105BD000C5FD054A0549200014F0C2FA13BDC046B0
:105BE0009C470020444F0020000000204D5700003B
:105BF00070B5002504000E000849057045608560F9
:105C0000C16001614161183013F08AFF6562AE42E4
:105C100002D00348FFF7BEFD200070BD24590200EA
:105C20009C470020F0B5037885B005000224002BC6
:105C300021D07F4E3000FFF7D5FE041E1BD0300070
:105C4000FFF7E8FD6F68172F15D8380014F090FAA9
:105C50000C161D25293459686C72757B7F85898FD8
:105C6000939A9EB2B7BDC2CD72493000FFF79AFD3C
:105C700001233C006B60200005B0F0BD0223012C25
:105C800008DD002302242B70F5E76B493000FFF795
:105C900089FD03236B600024EDE7012CF1DC042374
:105CA000F8E7290030001831FFF766FF634930003C
:105CB000FFF778FD0523EDE7012CF0DC2E006049AD
:105CC000183601A813F02CFF01A9300014F091F848
:105CD000040001A813F0D5FE002C01D00A23D9E757
:105CE000584901A813F01CFF300001A914F081F8F5
:105CF000060001A813F0C5FE002EC2D006236B607B
:105D0000B9E7AB68002BBCD0290030001831FFF791
:105D100033FFAA684C493000FFF75EFD0723B9E75F
:105D20000823012CB6DDACE748493000FFF73AFD07
:105D30000923AFE7012CD1DDA3E745493000FFF788
:105D400031FD0B23A6E70C23012CA3DD99E7414984
:105D50003000FFF727FD0D239CE70E23012C99DD72
:105D60008FE73D493000FFF71DFD0F2392E7102319
:105D7000012C8FDD85E7EA6838493000FFF72CFDFC
:105D8000112387E71223012C84DD7AE72B696969E7
:105D90001A78002A02D10A78002A06D00A003000B8
:105DA0002F49FFF719FD132374E72E493000FFF741
:105DB00013FDF8E71423012C00DC6BE761E72A49A7
:105DC0003000FFF7EFFC152364E7012C00DD58E7F6
:105DD00016235FE7290030001831FFF7CDFE234975
:105DE0003000FFF7DFFC172354E7012C00DD48E704
:105DF00028002B6A1830591E14F028F8FB230340A2
:105E0000302BE5D0312B02D03038082805D11823AB
:105E10006B60153B2B7001242DE7022803D116235C
:105E200028706B6037E7032800D024E729E7C046D5
:105E30009C470020302902003A2902004429020030
:105E40004D290200532902005B290200D6280200D6
:105E50006829020072290200802902008A290200B2
:105E6000A1290200BB2902002C19020026290200E8
:105E7000F7B51D0008AB160004CB0F0019780AAB6C
:105E80001B780400154800920193FFF70BFE0028D1
:105E900003D1002323702078FEBD009B00206361A6
:105EA00001232370019BA760E66025616060834247
:105EB000F2D011F0AFFA05002000FFF7B3FE002882
:105EC000E9D1636A002B05D011F0A4FA636A401B84
:105ED0009842DED2642011F0D3FAEDE79C4700200F
:105EE00030B51C0085B008AB1D78044B02950194B9
:105EF0000093FFF7BDFF05B030BDC0462459020036
:105F0000F0B58DB02849684613F00AFE274C2849A1
:105F10002000FFF747FC6A4664212000FFF768FD78
:105F2000012806D00026684613F0ABFD30000DB006
:105F3000F0BD2D21684613F0BAFF0100431C02D0CA
:105F4000684614F01FF803AA1A49009818F0FEFDDD
:105F50000028E7D003A817F09BFA06000F00684658
:105F60001A2113F073FF1B210400684613F06EFF23
:105F70000A23303C634330381818E1239B00584310
:105F800019210400C517684613F060FF2D2802D1BF
:105F900036196F41C7E71921684613F057FF2B28C0
:105FA000C1D1361BAF41BEE7245902009C470020F7
:105FB000CC290200D52902000078704700207047E4
:105FC00013B56B460268D971073354681900012272
:105FD000A04716BD80690130431E9841C0B270478A
:105FE00013B56B46DC1D036801225B6A21009847EC
:105FF000012801D1207816BD01204042FBE77047FF
:10600000094B01001A0010B5040008325433026035
:10601000036110310548FFF7C1FD2000343013F053
:1060200030FD200010BDC0469C2A02009C47002085
:1060300010B50400FFF7E4FF200014F00DF8200075
:1060400010BD0000F0B5474E89B004003000FFF7E6
:10605000C9FC051E17D0236A581E092813D800232F
:1060600014F086F80514373E43494D6E737A2100CB
:1060700030003431FFF780FD3B493000FFF792FBE1
:10608000022300252362280009B0F0BD012D0FDC9A
:1060900026003649343605A813F042FD05A9300024
:1060A00013F09BFE070005A813F0EBFC002F02D1B4
:1060B00000232362E7E7E36B3000591E13F0C6FEAE
:1060C00023003038A06132331B78002B15D0032316
:1060D000D7E7A26926493000FFF77EFB0423D0E70B
:1060E0000523012DCDDD0923CBE722493000FFF741
:1060F00059FB0623C5E7012DF5DC0723C1E7E36A59
:10610000218EA269002B06D0009130001A49FFF7BA
:1061100063FB0823B5E7230028331B780391210094
:106120002B3109783000029121002A310978019140
:1061300021002931097800911049FFF74DFBE8E76C
:10614000012DD0DC0122E261B3E7A2690C493000E5
:10615000FFF742FB0A2394E7236201235B42A3611A
:1061600091E7C0469C470020EF290200FA2902006F
:10617000032A0200142A0200252A0200392A0200FA
:10618000562A020010B5036804001B6998470028CE
:1061900004DDA169034800F047FB10BD0120404227
:1061A000FBE7C046EC47002070B50025826904007B
:1061B0000562AA4211DB094E09493000FFF70CFBCA
:1061C0002A0008493000FFF713FCA169064800F0D7
:1061D00053FA01235B42A361E56170BD9C47002037
:1061E000562A020010270000EC47002010B50400DA
:1061F0000D48FFF70FFBA16900204B1C12D00B4884
:1062000000F064FA002808DB230032331B780120F9
:10621000002B07D0E369002B04D1236820009B6A80
:106220009847002010BDC0469C470020EC47002046
:1062300010B5037D0400002B0AD023682000DB6B1F
:1062400098470028F9D0A1694B1C07D1002010BD48
:106250000368DB6B98470028F5D1F7E7044800F0A6
:1062600035FA0028F3DA236820009B6A9847EDE7A7
:10627000EC47002070B5836904000E00150001335F
:1062800001D1002070BD002AFBD003681B6998472C
:106290000028F6D02B003200A169024800F0D4FAA1
:1062A000F0E7C046EC4700207FB50C00050013491D
:1062B00001A813F035FC01A9200013F08EFD0600A3
:1062C00001A813F0DEFB002E17D00921200013F0E7
:1062D000BDFDAB69303883420FD1094901A813F0E5
:1062E0001FFC200001A913F084FD040001A813F095
:1062F000C8FB002C01D00023EB617FBD852A020082
:106300008F2A020008B4024B9C46103808BC604734
:10631000A96200000300F0B58FB0039133331B78FE
:1063200004001500002B0DD023682000DB6B98477C
:106330000028F9D0A36901330AD100230093009803
:106340000FB0F0BD0368DB6B98470028F2D1F4E78B
:10635000484905A813F0E4FB802329005B009D4217
:1063600000D919004900133105A813F0ABFB002335
:106370000093002D71D080232E005B009D4200D938
:106380001E007100133105A813F09CFB3A4905A8C3
:1063900013F05EFCA16905A813F0C7FC374905A8F6
:1063A00013F0B1FC310005A813F0CCFC344905A86A
:1063B00013F0A9FC009A039B944663440293019353
:1063C000019B0F221F783B09190017403031092B20
:1063D00001D93733190005A813F09EFC390030317C
:1063E000092F00D9073105A813F096FC019B029AEA
:1063F000013301939B1A9E42E2D8224905A813F06B
:1064000082FC214F05993800FFF7CCF92300333384
:106410001B78002B28D0174908A813F081FB08AA85
:106420001A493800FFF7E4FA01281AD0042811D1DC
:1064300017490BA813F074FB0BA908A813F01AFD59
:1064400005000BA813F01DFB6B1C03D02368200074
:106450009B6A984708A813F014FB05A813F011FBDA
:106460006DE708A813F00DFB009BAD1B9B19009373
:106470007FE7C04624590200622A0200CF1B0200B7
:106480006C2A02006D2A02009C47002010270000A1
:106490006F2A0200FA2370B500259B008360124B1F
:1064A0000400456018000830206020005433236148
:1064B0002275A161E56129002562243013F07AF983
:1064C0002300012220003233E562258607491D7032
:1064D0005A70343013F024FB210005481031FFF7C7
:1064E0004DFB200070BDC0469C2A020024590200CA
:1064F0009C4700200A00012110B504004942FFF723
:10650000C9FF200010BD10B583690400013302D01B
:1065100003689B6A9847237D002B0BD023682000DB
:10652000DB6B98470028F9D00120237D2062002BE7
:1065300007D110BD23682000DB6B98470028F3D1FA
:10654000F7E723682000DB6B9847002803D164300D
:1065500010F096FFF5E7A0690130431E9841E8E787
:106560004B6810B502860200836200233232C36298
:106570001370FFF7C8FF10BD70B504000E00243083
:106580000021150013F01EF9230000223233E662C9
:10659000258620001A70FFF7B6FF70BD7047000017
:1065A00010B501210248FFF77DFA431E984110BD46
:1065B0009C47002070B50400094913F0B1FA0F217F
:1065C000200013F07FFA074D07492800FFF7EAF88B
:1065D000280022006421FFF70BFA200070BDC0469E
:1065E000245902009C470020F42A02007FB50400D1
:1065F000164D290013F094FA1B21200013F062FAC3
:10660000134E14493000FFF7CDF8FA21220089001B
:106610003000FFF7EDF9104901A813F081FA01A944
:10662000200013F0DAFB060001A813F02AFA002E6E
:1066300007D007220021200013F08AFC200004B0BC
:1066400070BD2900200013F003FBF7E72459020076
:106650009C470020FC2A0200042B020010B5040015
:10666000044B5422083308C0002116F03EFE2000DF
:1066700010BDC046242B020010B50C244C43041955
:106680006068002805D016F0E9FD0023A360636070
:10669000E36010BD70B505000024064B08330360AD
:1066A000210028000134FFF7E7FF072CF8D128006C
:1066B00070BDC046242B020010B50400FFF7EAFFAE
:1066C000200013F0C9FC200010BD0000F0B50C2420
:1066D0004C430419E56889B000900F00002D00D0EC
:1066E0008BE06368002B06D18020800016F0ACFDA3
:1066F000E560A0606060454902A813F011FA8023AC
:10670000434E3A00434930009B00FFF765F802AA68
:1067100041493000FFF76CF901281AD0022800D156
:1067200071E004280FD13D4905A813F0F9F905A936
:1067300002A813F09FFB050005A8013513F0A1F98D
:106740006B1E9D416D4202A813F09BF9280009B011
:10675000F0BD334905A813F0E3F905A902A813F029
:106760003CFB060005A813F08CF9002EEBD02D4958
:1067700005A813F0D5F905A902A813F07BFB0500C5
:1067800005A813F07EF96A1C0025002102A813F069
:10679000DFFB049B02A8591E13F0F4FB049B5B086B
:1067A0000193019B9D421ED0690002A813F036FBA5
:1067B0006B000678591C02A813F030FB3300303B05
:1067C0000278DBB2392E01D9373EF3B21600303EE3
:1067D000F6B2392A01D9373AD6B21B01626833437F
:1067E00053550135DDE76368009AA3600C237B43B2
:1067F000D318DD6002A813F044F90C235F43009B1B
:10680000DF19FD68A2E701259CE7C0462459020074
:106810009C4700200C2B0200102700006F2A02006A
:106820001B2B02006D2A020070B504000D00FFF75B
:106830004DFF002805D00C2169436418A36818781F
:1068400070BD01204042FBE7F8B506000C001700C0
:106850001D00FFF73BFF002811D0854200DD050039
:106860000C235C4334192A00A168380016F021FD7E
:106870002800A3685B19A360E3685B1BE360F8BDB5
:1068800010B5054C2000FFF7E9FE044A044920003A
:1068900013F066FC10BDC046EC470020000000204D
:1068A00095660000704710B5040013F0D5FB20007A
:1068B00010BD10B50368C9B21B68984710BD10B56C
:1068C00004004068217A0368DB6A98470221606807
:1068D000FFF7EFFF606803685B6B984700239842FF
:1068E00003D1012010F0CCFD0123180010BD0000E1
:1068F0000B4B10B5134004D52020013B404203430D
:1069000001331F24D01720401C3CA1408018DA1707
:106910002240D31840119B1000021843084310BDB9
:106920001F000080F0B5081E1BD00020824218D046
:106930008B189C46082201230E781C003440651EEB
:10694000AC41C70B400080B2BC4202D0054C604055
:1069500080B25B00013ADBB2002AEED10131614521
:10696000E8D1F0BD0580FFFFF0B585B000AFFC6A4F
:10697000FB8023006E4608333B600733DB08DB00F7
:10698000F31A03269D4605001E70E01D013E587057
:106990009970DA70B91D320001A816F08AFC6B46B6
:1069A0002200B96A981D16F084FC6B46621D591CC2
:1069B0002800FFF7B7FF0E23F881A01D3200F91859
:1069C000684416F076FC6868297A0368DB6A9847A1
:1069D0006868694603683A685B689847686803684E
:1069E0005B6B9847BD464342584105B0F0BDF0B5DA
:1069F000130085B000AFBA60D51C6A460A33DB08C5
:106A0000DB00D31A9D46FB601523040039607B60D0
:106A10006068217A03682A009B6B1E000123B0473F
:106A2000A84204D07B68013B7B60002BF0D16068FA
:106A300003685B699847FB681870C0B2A84203D02E
:106A40000020BD4605B0F0BDFB685D1C2E006068EF
:106A500003681B699847002806D0606803685B6973
:106A6000984728700135F2E7BB68F9685D1C2A0079
:106A70002000FFF757FFBA68FB689B189A78FB68FD
:106A800012025B5D13439842DAD1BA68310038686C
:106A900016F00FFC0120D4E737B504004068124916
:106AA00003689B6A9847606800210368DB6A98471F
:106AB000606803685B6B98470C4810F005FD6B46F7
:106AC000DD1D012229002000FFF791FF002809D0D9
:106AD0002B780020112B05D16068054903689B6A5B
:106AE000984701203EBDC046A0860100DC0500009D
:106AF00040420F0073B504000D001600FFF7CCFFF5
:106B0000002801D1002076BD0022ABB20192009294
:106B100040212000FFF728FF0028F3D0732010F059
:106B2000AFFC402231002000FFF761FF0028E9D0D0
:106B3000012010F0A5FC2000FFF7C1FE0120E2E7D4
:106B400030B585B00400FFF7A7FF002802D1002070
:106B500005B030BD002247210192009213002000B1
:106B6000FFF702FF0028F2D00F2509206D4410F036
:106B700087FC012229002000FFF739FF0028E6D01A
:106B8000012010F07DFC2000FFF799FE2878434299
:106B90005841DDE730B585B004000D00FFF77CFFFC
:106BA000002802D1002005B030BD4023009501939C
:106BB000012247212000FFF7D7FE0028F2D00F2541
:106BC00009206D4410F05CFC012229002000FFF731
:106BD0000EFF0028E6D0012010F052FC2000FFF745
:106BE0006EFE287843425841DDE7F7B504000F00F8
:106BF00015001E00FFF750FF002801D10020FEBD48
:106C0000ABB201950097022247212000FFF7ACFEAE
:106C10000028F3D0092010F033FC2022310020009E
:106C2000FFF7E5FE0028E9D0012010F029FC200044
:106C3000FFF745FE0120E2E730B5002485B00500EE
:106C40000394FFF729FFA04202D1002005B030BD18
:106C5000019400942300220030212800FFF784FED5
:106C60000028F2D0022010F00BFC042203A9280017
:106C7000FFF7BDFE0028E8D0012010F001FC28003D
:106C8000FFF71DFE0398E1E710B5040040680368B4
:106C9000DB6998472000FFF7FFFE2000FFF70FFE9B
:106CA0002000FFF7C9FFF0231B041840034BC01856
:106CB000034B18404342584110BDC0460000B0FF8E
:106CC000FFFFEFFF30B585B004000D00FFF7E4FED5
:106CD000002802D1002005B030BD2023009501938B
:106CE0000322002316212000FFF73EFE0028F1D0EA
:106CF0000F251D206D4410F0C3FB01222900200048
:106D0000FFF775FE0028E6D0012010F0B9FB200047
:106D1000FFF7D5FD287843425841DCE7F0B5A5B030
:106D200004000F001600FFF7B7FE002802D1002074
:106D300025B0F0BD04AD40223900280016F0B9FAA4
:106D40004022310014A816F0B4FA80230095019374
:106D500002227C3B45212000FFF706FE0028E6D0FA
:106D60000F2548206D4410F08BFB012229002000E4
:106D7000FFF73DFE0028DBD0012010F081FB200052
:106D8000FFF79DFD287843425841D1E770B50400D4
:106D900015001E00FFF796FF002806D032002900DC
:106DA0002000FFF7BBFF431E984170BD73B5040080
:106DB0000D001600FFF770FE002801D1002076BDFF
:106DC0000022ABB201920092412180322000FFF7F5
:106DD000CBFD0028F2D0462010F052FB40223100BB
:106DE0002000FFF704FE0028E8D0012010F048FB47
:106DF0002000FFF764FD0120E1E7F0B585B0060053
:106E00000D0003921F000A9CFFF746FE002803D1E5
:106E10000024200005B0F0BD042C03D0202CF7D1B5
:106E200080231D4300216B46EAB29B89300001910B
:106E300000910231FFF798FD0028E9D0052010F0FD
:106E40001FFB220039003000FFF7D1FD0028DFD002
:106E5000012010F015FB3000FFF731FDD9E773B5C5
:106E6000002204260C000B00009611000500FFF71D
:106E7000C4FF002801D1002076BD231D0096022208
:106E800000212800FFF7B9FF0028F4D02300009666
:106E90000833032200212800FFF7AFFF431E98416B
:106EA000EAE7000070B50D0086B00021040012F082
:106EB00037FE69462800FFF7D2FF00281ED01221B6
:106EC000200012F0FFFD00256B465E5D0F2E03D8FB
:106ED0000C49200012F017FF1022310003A812F015
:106EE0003EFE03A9200012F0FCFE013503A812F0BB
:106EF000C8FD092DE8D1200013F04AF8200006B0A3
:106F000070BDC046122A0200F0B585B002900F0095
:106F100003921D000F291DD8032420261C4002D0F7
:106F2000002005B0F0BDAC4217DA2B1B1F2B00DC94
:106F30000426220039000298FFF7DAFC039B0200C6
:106F40001B19009602210298FFF757FF0028E7D08F
:106F5000A419E8E701204042E3E70120E1E71FB57B
:106F6000042303AC0093152223000021FFF745FF03
:106F7000002806D00020A378834202D1E078434263
:106F8000584104B010BDF0B585B005000C001600E6
:106F90001F00FFF781FD002802D1002005B0F0BDE1
:106FA0000A9B042B03D0202BF7D160331C430A9992
:106FB000B3B20191E2B2009712212800FFF7D4FC8E
:106FC0000028EAD00F241A206C4410F059FA01224C
:106FD00021002800FFF70BFD0028DFD0012010F072
:106FE0004FFA2800FFF76BFC207843425841D5E761
:106FF000F0B585B002900F0003921D000F291DD837
:10700000032420261C4002D0002005B0F0BDAC4275
:1070100017DA2B1B1F2B00DC0426220039000298F4
:10702000FFF766FC039B02001B19009602210298E1
:10703000FFF7A9FF0028E7D0A419E8E701204042A4
:10704000E3E70120E1E7F0B58BB005000E00140086
:10705000FFF722FD002822D0002C22D000221B2185
:107060000192009213002800FFF77EFC002815D043
:10707000172010F005FA202202A92800FFF7B7FC1C
:1070800000280BD027001F2C00DD202730003A00FD
:1070900002A916F00EF9E41BF619DDE700200BB08B
:1070A000F0BD012010F0ECF92800FFF708FC0120EA
:1070B000F5E7F0B589B00D001700694620220400FD
:1070C0001E00FFF7C0FF002802D1002009B0F0BD6C
:1070D00039002000FFF7F6FD0028F6D03200290025
:1070E0002000FFF763FE431E9841EFE7064B074879
:1070F000083310B50360064B064A43606023064917
:10710000037213F02DF810BD342B02004448002008
:107110009449002000000020A568000030B59C685C
:10712000039B88689968049B95689A68059B9B688F
:10713000002800D00B30002D01D00B354019002C59
:1071400001D00B340019002901D00B314018002A5E
:1071500001D00B328018002B01D00B33C01830BD8A
:107160005B2070470A0030B50020202520320C5CDF
:107170002B1A002C0ED101302028F8D101230D004C
:1071800040313F351478881A002C0AD1AA4204D025
:107190000132F7E7E4091B19F1E70120153318184C
:1071A00030BDE4090019F9E70B78002B04D1012A5E
:1071B00004DD0131013AF7E7DB09D218901C704772
:1071C0000420FF2903DC01387F2900DC01387047E7
:1071D0003023F7B5137093701D3BD3700D3B9C4665
:1071E000137107235371053BD372013B137353751E
:1071F00006339375592042230191614650701376EE
:107200003D2000232A2786264825CE2451730821B5
:107210009072D07453763A3804339771D6711572E0
:10722000D773167455745472917394741075D07525
:1072300093761B3210000199402216F03AF85B2039
:10724000FEBD3023F7B50F0020241370263B53708A
:10725000043B93700233D370223313715C33537148
:107260003E3B93718633D371913B1372393B53721A
:10727000013B9372013BD37220370091009B1B7836
:10728000002B01D1012C0AD1080040313F303E785B
:10729000CD1B002E09D1874206D00137F7E7009BAE
:1072A000013C01330093E9E70125DB09E4180323DE
:1072B000F609AD191373E0B2EBB20193C318DBB258
:1072C000D91D0433137402235173302600215374E3
:1072D000009B9173D67390741B787F2B25D8133243
:1072E000160030002200009915F0E3FF009B3619CC
:1072F0001B787F2B00D90134022333706B461B7936
:10730000B01C73703B787F2B03D90023F01CB37043
:10731000013D2A00390015F0CCFF3B787F2B00D9C6
:107320000135200015304019FEBD1600D174143609
:10733000013CD6E770B50D0014002A78002A04D16C
:10734000012C04DD0135013CF7E7D209A418022223
:107350005C701A702A78981C7F2A03D90022D81CE6
:107360009A70013C2200290015F0A3FF2B787F2B97
:1073700000D90134A01C70BD312070B58C68187024
:10738000E0B2050009355D7030259D70C51DDD70CA
:1073900006251A7213221D71033D5D7152359D71D0
:1073A000513DDD715A7298720B3318000968220042
:1073B00015F07FFF20000B3070BDF7B51E008B6805
:1073C000050017000B9C002B04D023000622FFF7BA
:1073D000D3FF2418BB68002B06D0230008223900F5
:1073E0002800FFF7C9FF2418B368002B06D023003C
:1073F000072231002800FFF7BFFF2418089B9B6875
:107400000193002B06D023000A2208992800FFF7D9
:10741000B3FF2418099B9B680193002B06D023001F
:107420000B2209992800FFF7A7FF24180A9B9B68E5
:107430000193002B05D0230003220A992800FFF7AF
:107440009BFFF7BD30231370FF290DDD5233081267
:1074500053709070D31C19700420FF2903DC01388D
:107460007F2900DC01387047531C7F29F3DD812020
:10747000931C5070EFE70000F7B50193424B0E00EC
:1074800000920B9D99426ADD1823FA212B70093B6B
:107490006B708900300012F009FFFA213030A870BB
:1074A0008900300012F0E8FF0800642112F0FEFEAF
:1074B0003030E8706421300012F0DEFF08000A214D
:1074C00012F0F4FE303028710A21300012F0D4FF9F
:1074D0003031AC1D69710A21009812F0E7FE30309E
:1074E00020700A21009812F0C7FF303161700198B6
:1074F0000A2112F0DBFE3030A0700A21019812F050
:10750000BBFF3031E17008980A2112F0CFFE303015
:1075100020710A21089812F0AFFF3031617109988B
:107520000A2112F0C3FE3030A0710A21099812F02E
:10753000A3FF3031E1710A980A2112F0B7FE303012
:1075400020720A210A9812F097FF5A23A3720E4B59
:107550003031617211209E4200DC0238FEBD0B4BBF
:107560002C1DCF1817232B700A3B6B700A21380093
:1075700012F09CFE3030A8700A21380012F07CFF17
:107580003031E970A7E7C0460108000030F8FFFF7E
:1075900030230B70263B4B70043B8B700233CB7057
:1075A00022330B715C334B713E3B8B718633CB7155
:1075B000913B0B72393B4B72013B8B72013B0C20B0
:1075C000CB72704710B504000D4B08330360443094
:1075D00012F057FA2000383012F053FA20002C3005
:1075E00012F04FFA2000203012F04BFA2000143035
:1075F00012F047FA2000083012F043FA200010BDC4
:10760000442B020010B50400FFF7DCFF200012F04D
:1076100023FD200010BD000070B50400114B124D79
:10762000083303602900083012F07AFA200029009C
:10763000143012F075FA20002900203012F070FA90
:10764000200029002C3012F06BFA2000290038307D
:1076500012F066FA20002900443012F061FA20008E
:1076600070BDC046442B02002459020010B5054CE1
:107670002000FFF7D1FF044A0449200012F070FDFA
:1076800010BDC0465448002000000020C575000011
:10769000704710B5040012F0DFFC200010BD0000A0
:1076A00010B5044B04480833044A0549036012F03E
:1076B00057FD10BD542B0200E448002000000020BC
:1076C0009176000070B50500124BA43508330360B5
:1076D00004002868002803D015F0C0FD00232B60AB
:1076E0002000483012F0CDF920003C3012F0C9F9EA
:1076F0002000303012F0C5F92000243012F0C1F91A
:107700002000183012F0BDF920000C3012F0B9F949
:10771000200070BD682B020010B50400FFF7D2FFF7
:10772000200012F099FC200010BD000070B504008C
:10773000164B174D0833036029000C3012F0F0F996
:1077400020002900183012F0EBF920002900243025
:1077500012F0E6F920002900303012F0E1F92000A3
:1077600029003C3012F0DCF920002900483012F0EA
:10777000D7F92300074A9C331A6001225A6022007D
:107780000023A43220001360536070BD682B0200F8
:1077900024590200642B020010B503000C000020E5
:1077A0001100082C0CD8083A072A09D85C609960A7
:1077B00054331A0003484823FFF7A6FB431E9841A1
:1077C00010BDC04644480020A43000687047A8306F
:1077D0000068704710B5483012F03AFA10BD00004A
:1077E0000300FA22F0B594331B78D200DB06DB0EDF
:1077F0009B1802009832127887B0D206D20E9B18DE
:107800001A4A04001E27934200DD0237220023009B
:10781000174D9C33A032196812682800FFF7C4FC8A
:10782000060020002300220021004830029030345E
:107830000C3824331832019000940C312800FFF7E3
:107840006DFC010004002800FFF7BAFC0590280039
:10785000FFF786FC0300059A1136A4186400A619E8
:10786000B81C3018C018043007B0F0BD0108000083
:1078700050480020F0B51400020091B00F91FA2199
:1078800094321278C900D206D20E52180B9202001E
:1078900095321278564D1207120F0C920200963252
:1078A00012780600D206D20E0D920200973212789C
:1078B0001900D206D20E0E92020018320A928032BD
:1078C000177828002200FFF7BDFDA0230222201810
:1078D00003709D3B437082700271012332003100BE
:1078E000C370441DA0329C3123001268096828002F
:1078F000FFF720FD241821002800FFF749FE330080
:107900000C330593183306930C3307930C33089309
:10791000089B48360193079B241800930A9A069BFC
:107920000599029628000996FFF7F8FB220001004E
:1079300004902800FFF786FD099B24180293089BFA
:1079400003940193079B0A9A00930599069B2800CC
:10795000FFF733FD049BFF06E418302323700B9BD5
:10796000FF0E244ADF190223974200DC00231E3356
:107970006370A61C00241E4D0E9B039600930C9A68
:107980000D9B0B99029401942800FFF775FD0E9B47
:107990003618039600930C9A0D9B390002940194BB
:1079A0002800FFF769FD3618320004992800FFF718
:1079B00049FD099B36180293089B03960193079B88
:1079C0000A9A00930599069B2800FFF7F6FC049B92
:1079D0000F99F61832002800FFF7FAFBA32330189E
:1079E0000370A13B43702E338370C47011B0F0BD9F
:1079F00050480020010800001823F0B54A4EA7B0F7
:107A000000AF04003961FA1841683000FFF772F8DE
:107A1000002854D02000FFF7E3FE05000100434892
:107A2000FFF7CEFB6A462B187B610733DB08DB00D0
:107A3000D31A9D46BB602B0018256A467919200091
:107A4000FFF718FF3B69002B3CD04022781900213A
:107A5000801815F04AFC3000FFF772F800282DD08E
:107A600000257B69304EAB4213DD5A1BBB685919A8
:107A70003F2A06DD3000FFF78DF800281ED0403584
:107A8000EFE7182040233818C3183000FFF7ADF88F
:107A9000F3E7250018214022791854358A182B0065
:107AA00061683000FFF705FB002807D048232A0053
:107AB000A1683000FFF79CFA002803D10020BD46E2
:107AC00027B0F0BD2300194E543319003000FB607D
:107AD000FFF748FB7B6925001B18190030003B614C
