:1020000000800020A169010089690100896901003F
:1020100000000000000000000000000000000000C0
:1020200000000000000000000000000089690100BD
:10203000000000000000000089690100F56901004E
:102040008969010089690100D14B0000896901009B
:102050008969010089690100896901008D690100B0
:1020600089690100896901008969010079750000A9
:1020700089690100E1680100D168010089690100F6
:102080008969010089690100896901008969010084
:102090000000000089690100896901008969010067
:1020A0008969010089690100896901008969010064
:1020B0000000000010B5064C2378002B07D1054B1B
:1020C000002B02D0044800E000BF0123237010BDA4
:1020D000B00200200000000060780200044B10B540
:1020E000002B03D00349044800E000BF10BDC046E8
:1020F00000000000B40200206078020010B5040067
:10210000183016F0B2FF200010BD000010B50449D1
:10211000044816F033FF044803F0F0F910BDC04640
:10212000C2140200485000201404002070B501259C
:102130001A4C1B4B1B491C48E5541BF081FC1B49E6
:102140001B481BF07DFC1B491B481BF079FC1B4BFB
:102150001B491C48E5541BF073FCFA221A4B520130
:10216000E2521A4A0233E5520433E252184B19493B
:10217000E55402231848E3722373E57125721BF0BE
:102180005FFC164916481BF05BFC164916481BF00D
:1021900057FC164916481BF053FC70BDD441002073
:1021A0004B0400008D1102009C4500209711020095
:1021B0000F4400209E110200EE430020490400005D
:1021C000AE1102001944002012020000A086FFFF99
:1021D0004A040000A610020003420020D3110200AE
:1021E00023420020F51F020043420020D5110200C7
:1021F000834200200A21435E0200181E01D01B0109
:10220000D018704770B50D00041E0FD0C168A942E8
:102210000CD0002D06D0002904D028001BF006FCAD
:10222000002803D02000FFF7E5FFEDE7200070BD98
:102230004A688B681032934204D201230B74002346
:1022400018007047103B8B60002BF9D04268002AC1
:1022500008D0991A09115181002243605A811A72DB
:10226000DA60EDE70360F7E7F7B5037804000D00E7
:102270002B2B1DD02D2B1CD10127013423781A00C4
:10228000303A092A02D92E2B00D0C9E000200A26B4
:10229000644922781300303BDBB2092B0BD888420B
:1022A00011D8DA43704382420DD3C0180134F0E7ED
:1022B00001340027E2E7002A05D1002F18D080233F
:1022C0001B06984209D90026574B98421AD90A2171
:1022D000013617F049FA76B2F6E77F222B7A4042B0
:1022E00093431A000A2313432B7228603800FEBD63
:1022F0007F222B7A286093431A00082313432B7202
:102300000127F3E723781A00303A092A03D8013667
:1023100076B20134F6E72E2B0FD10A21434A01345D
:102320002378303BDBB2092B07D8904203D84843CF
:10233000013E181876B20134F2E7202322789A433E
:102340000023452A3AD162782D2A1FD10234013365
:102350000193002321783039CAB2092A2AD80A22E7
:102360005343CB18F118262922DD019A2B7A7F20BE
:10237000002A11D00024002F01D0802424060C2133
:1023800083430B432B722C60019FAFE72B2A01D0B4
:102390000134DDE70234DBE7002F06D024490C22AC
:1023A000834313432B722960AAE7FF21C905F6E78F
:1023B0000134CFE7019A002A00D05B422478002C38
:1023C0002ED1F61818F0EEFA002E1ADD01231E4267
:1023D00004D0184AA300D15817F084FF01347610B6
:1023E000E4B2002EF2D1002F02D080231B06C018C9
:1023F0007F222B7A286093431A000C2313432B72FD
:102400007EE77642002EEED001231E4204D00A4A17
:10241000A300D15817F066FF01347610E4B2F1E75B
:10242000002763E799999919FFFF7F00CBCC0C0037
:10243000000080FF8C0E0200740E020070B5094C83
:10244000200002F069F8084D2100280002F01AFB74
:102450000028F4D0200002F0EBFA2800002102F05E
:10246000B1FA70BD48500020D441002070B592B040
:10247000FFF74CFE954C03A8210016F045FE210005
:1024800006A816F041FE210009A816F03DFE210025
:102490000CA816F039FE8E4906A816F0CDFE8D4C1C
:1024A0000FA8210003F084FB0FA909A816F0BCFEB9
:1024B0000FA816F0DAFD21000FA803F095FB0FA975
:1024C0000CA816F0B1FE0FA816F0CFFD824C834980
:1024D00020001BF0B5FA824920001BF08BFA8149DD
:1024E00020001BF087FA804D200029001BF082FAA3
:1024F0007E4920001BF07EFA7D4E200031001BF04B
:1025000079FA069920001BF075FA310020001BF0C3
:1025100071FA290020001BF06DFA764920001BF0AB
:1025200069FA310020001BF065FA099920001BF0C0
:1025300061FA310020001BF05DFA290020001BF039
:1025400059FA6D4920001BF055FA310020001BF0AC
:1025500051FA0C9920001BF04DFA310020001BF0BD
:1025600049FA290020001BF045FA644920001BF0BD
:1025700041FAFFF7CBFD0A2201000FA816F006FE74
:102580000F9920001BF036FA0FA816F06EFD2900F7
:1025900020001BF02FFA5A4920001BF02BFA85234C
:1025A000584E9B00F15A0A220FA816F0DDFD0F9934
:1025B00020001BF01FFA0FA816F057FD290020007D
:1025C0001BF018FA504920001BF014FA4F4B0A2256
:1025D000F15A0FA816F0C8FD0F9920001BF00AFA57
:1025E0000FA816F042FD290020001BF003FA48490D
:1025F00020001BF0FFF9474B0A2219780FA816F0AC
:10260000A2FD0F9920001BF0F5F90FA816F02DFD83
:10261000290020001BF0EEF93F4920001BF0EAF9E9
:1026200086239B00F15A0A220FA816F09DFD0F99F0
:1026300020001BF0DFF90FA816F017FD3749200026
:102640001BF0D8F9364D0A223649280016F0E7FC6F
:102650000A223549280016F0E2FC2100280016F075
:102660008DFC02F08FFA3149280016F087FC3049C2
:102670000FA816F049FD06A90FA816F065FE2D4912
:1026800016F06FFE00222C4E009213000100300065
:1026900013F0B2FB0FA816F0E8FC2100300016F092
:1026A00051FC300013F097FF2449280016F066FC17
:1026B0000CA816F0DAFC09A816F0D7FC06A816F04C
:1026C000D4FC03A816F0D1FC12B070BD2450020057
:1026D0009C45002048030020900400206C1202005A
:1026E0006E120200761202008112020083120200B2
:1026F0006D210200911202009D120200A61202003A
:10270000B3120200D4410020BD12020012020000E8
:10271000C91202000C030020DB120200E6120200C4
:10272000485000203D3D3D3D6E6F734AE812020067
:10273000011302000A1302004C0300201C130200C4
:10274000F0B587B002F00AFAFA20400014F096F9CA
:102750000A2002F0ADF97A4D7A49280016F00EFCF5
:10276000FFF7D4FC7849280016F008FC77492800C8
:1027700016F0E8FB7649280016F000FC754C764907
:1027800020001BF05DF9754920001BF033F97449F6
:1027900020001BF02FF9734E200031001BF02AF9A6
:1027A000714920001BF026F9704F200039001BF002
:1027B00021F96F4920001BF01DF9390020001BF0A2
:1027C00019F9310020001BF015F96A4920001BF0AF
:1027D00011F9FFF79BFC0A22010003A816F0D6FCB2
:1027E000039920001BF006F903A816F03EFC310007
:1027F00020001BF0FFF8604920001BF0FBF85F4B46
:102800000020185E18F084F8F621890517F06AFD9B
:102810000222011C03A816F01AFD039920001BF0E8
:10282000E9F803A816F021FC310020001BF0E2F8C3
:10283000534920001BF0DEF8524B0020185E18F0C0
:1028400067F8F621890517F04DFD0222011C03A847
:1028500016F0FDFC039920001BF0CCF803A816F03D
:1028600004FC310020001BF0C5F8474920001BF094
:10287000C1F8464B0020185E18F04AF8F621890589
:1028800017F030FD0222011C03A816F0E0FC0399AA
:1028900020001BF0AFF803A816F0E7FB3100200082
:1028A0001BF0A8F83A4920001BF0A4F8394B00208F
:1028B000185E18F02DF8F621890517F013FD022295
:1028C000011C03A816F0C3FC039920001BF092F82A
:1028D00003A816F0CAFB304920001BF08BF82F49E3
:1028E000280016F04BFB2100280016F047FB02F0F1
:1028F00049F92B49280016F041FB2A4903A816F094
:1029000003FC294903A816F01FFD284916F029FDEC
:102910000022274E009213000100300013F06CFAE1
:1029200003A816F0A2FB2100300016F00BFB3000CC
:1029300013F051FE1F49280016F020FB07B0F0BD30
:1029400048500020D9110200EB1102000C120200C5
:102950009C450020900400206C1202006E120200C0
:102960001C12020081120200831202006D2102007B
:1029700023120200A612020030120200CC02002034
:1029800037120200E80200203C1202000A03002075
:102990004112020008030020E61202004812020061
:1029A0005C12020001130200D00200200A13020090
:1029B0004C0300201C13020070B505000024AC423B
:1029C0000FDA0121062014F0A9FAC82002F0EAF873
:1029D0000021062014F0A2FAC82002F0E3F8013426
:1029E000EDE770BDF8B53E4C3E49200016F0C6FA42
:1029F0003D4D0221280013F095FE3C4F3C493880A4
:102A0000200016F0BBFAFA20800002F0CBF801217A
:102A1000280013F087FE374E37493080200016F02B
:102A2000ADFAFA20800002F0BDF80021280013F072
:102A300079FE324D32492880200016F09FFAFA20A4
:102A4000800002F0AFF802212E4813F06BFE2E4BEF
:102A50002E491880200016F091FAFA20800002F02A
:102A6000A1F8FFF753FB2A4B2A491860200016F003
:102A700085FA2949200016F065FA0023F95E0A223A
:102A8000200016F0CCFA2549200016F05BFA00234E
:102A9000F15E0A22200016F0C2FA2149200016F049
:102AA00051FA0023E95E0A22200016F0B8FA1D4907
:102AB000200016F047FA144B0A220021595E20002C
:102AC00016F0ADFA1849200016F058FA174A184BBC
:102AD000D35C002B02D00120FFF76EFFF8BDC0468B
:102AE00048500020831002000E030020CC0200207A
:102AF0009E100200E8020020AA1002000A03002033
:102B0000B81002001403002008030020C9100200BE
:102B100004030020D9100200271102002D11020029
:102B200033110200391102003F110200D44100208C
:102B30004A04000073B51A4C1A49200016F01EFA18
:102B4000FA261949200016F019FA012502F006F8B4
:102B5000B60000950123154A1549164802F0BEFC3F
:102B6000032807D01449200016F0ECF9300013F0C8
:102B700085FFEEE72900114802F0B6F80428F1D1EC
:102B80000F49200016F0FAF90A2001F091FF0D49D3
:102B9000200016F0F3F9200016F0DEF973BDC046F0
:102BA00048500020D614020004150200EE43002015
:102BB0000F44002014040020D71002002803002036
:102BC000101502001A150200F0B55D4D5D4987B081
:102BD000280016F0D3F95C4C0121200002F060FAC5
:102BE000200002F025FA0028FAD05849280016F0F3
:102BF000A9F95749200002F0EDF8FA210022C90096
:102C0000200002F0F3F9534E2800310016F0B6F917
:102C10005149280016F0B2F95049200002F0DAF8C4
:102C20004F4A6421200002F0E1F93100280016F03B
:102C3000A5F94C49280016F085F9FA274A492000E1
:102C400002F0C8F8BF00642013F018FF47492800BD
:102C500016F078F9200002F0EBF90022390020008C
:102C600002F0C4F90128EED13100280016F086F9EF
:102C70003F49280016F082F9FA273E49200002F069
:102C8000A9F8BF00642013F0F9FE3849280016F0B7
:102C900059F9200002F0CCF900223900200002F09E
:102CA000A5F90128EED13100280016F067F9324964
:102CB000280016F063F963273049200002F070F80D
:102CC000FA21274AC900200002F090F92C4903A8F4
:102CD00016F01AFA03A9224816F0B4FB019003A8D3
:102CE00016F0C3F9019B01330CD0019B06221C494D
:102CF00003A816F0F7FB03A816F068FC070003A86A
:102D000016F0B3F9FA20800013F0B8FE1F2FD3DCC1
:102D10003100280016F032F91A49280016F02EF971
:102D20002000194902F056F8FA210D4AC900200086
:102D300002F05CF93100280016F020F907B0F0BD70
:102D400048500020A40E020024460020C60E0200B7
:102D5000E30E0200ED0E0200F30E0200180F020057
:102D600084040020220F02004E0F0200D710020040
:102D7000590F0200900F02009A0F0200D70F0200B5
:102D800081120200DE0F0200F50F0200F0B524C828
:102D9000954211D90800130007781C785E1CBC42CC
:102DA00004D1002C09D001303300F5E71878013345
:102DB0001A000028FAD1EBE700221000F0BD002332
:102DC000F0B585B007000C00029103920093994280
:102DD00008D00168994208D17F22237A9343237255
:102DE00001230093009805B0F0BD039E3000FFF76B
:102DF000CDFF051E1BD1BB6875680193B268013316
:102E0000EB18934207D9012333747F22237A93432B
:102E100023720023E5E77360002DF6D0019A39682C
:102E2000280019F078FD6A46019B1278EA547F2247
:102E3000237A256093431A00052313432372CFE7B7
:102E400070B5037A0D0016007F211A0004000A40B5
:102E500005D18B435F390B4303720260426020222D
:102E6000237A1340181E12D0281E10D02900206883
:102E7000FFF7C8F900280AD131002000FFF7D8F980
:102E8000002804D07F22037AC5601340037270BD0E
:102E900010B50200037A20200340181E02D01068EB
:102EA000FFF7B0F910BD437C002B06D1C3685A1C54
:102EB000C2601B78037401234374007C704710B513
:102EC00004002000FFF7EFFF0A2806D8092808D2DF
:102ED000002809D0012020720CE00D2801D0202804
:102EE000F8D100236374ECE7237A58345A1E9341D7
:102EF0000133237010BD1FB57F220300007A1040FC
:102F0000043808282ED816F01BFC0F0F052D082DAD
:102F10000D2D1A00187804B010BD1868C343DB17D4
:102F20001840F8E71868F6E71868002301AC237228
:102F30002100FFF799F92000FFF7DDFFEBE7CF2134
:102F40001C680906201C16F0FFFD0028E3D09E2116
:102F5000201CC90516F0E4FD0028DCD0201C17F069
:102F6000B7FCD8E70020D6E770B530C814340E009F
:102F700020002900FFF78CFF002806D07F22037A6B
:102F80001340082B03D00A2B04D030680AE00368F2
:102F9000002BFADB29002000FFF77AFF002801D080
:102FA000FFF7A9FF70BD70B504000D00FFF77BFFB0
:102FB0000023A84201D163740133180070BD2F288B
:102FC00015D90123392803D95E2803D97A2803D8D3
:102FD0001800704740280AD901235A28F8D900233D
:102FE00001222D38C0B282425B41DBB2F0E70123FF
:102FF0002B28F4D1ECE737B500236A461370C3B22F
:103000007F280BD853706B460233013B1878002899
:1030100031D00A68541C0C601070F6E73F248022FF
:103020006D4623405242134380096B7085B2C3B290
:103030001F2D06D8403213436A4693706B46033304
:10304000E3E76D46234000041343800DAB70C3B229
:103050000F2805DC202252421343EB7001ABD4E76A
:103060001C40102380115B4218436B462243EA70D8
:1030700028710533C9E737BDF7B505000027FFF70D
:1030800012FF6F7401902800FFF70DFF0024019AD2
:1030900003006C74824259D0A04204D102235835F7
:1030A00000202B70FEBD5C284BD12800FFF7FBFEF3
:1030B0000028F3D0284B752839D104266C742800D9
:1030C000FFF7F1FE0028E9D0402806D83038C0B21A
:1030D0000F2806D958350323E2E7202398433738D1
:1030E000F5E700232401013E0443F6B2A4B26B7459
:1030F0009E42E4D1A0239B01E318184A9BB293425D
:1031000002D8A405A70DBEE790239B01E3189BB24C
:103110002000934206D880238005BC02800D204306
:103120005B02C0182900FFF766FFACE702331A788C
:10313000002ACFD09042F9D15B78002BCAD0002270
:103140006A742A68511C296013709CE72B6801205F
:103150005A1C2A601C70A5E748150200FF030000F6
:10316000036870B543600400FFF79DFE27280DD06B
:1031700022280BD02000FFF796FE0500FFF71FFF67
:10318000061E09D103235834237003E02000FFF703
:1031900073FF0600300070BD0023637423682000B5
:1031A0005A1C22601D70FFF77EFE0500FFF707FF27
:1031B0000028F1D123685A1C22601870EAE7F7B59D
:1031C00004000D001F1CFFF77AFE0190002801D1BA
:1031D000002658E02000FFF766FE272800D17BE09C
:1031E0001DD8222800D177E02000FFF75CFE0026E2
:1031F00000900098F7B2FFF7E2FE002800D17EE0D1
:103200000136402E00D179E06A46002312786374BB
:10321000A319DA752000FFF746FE0090E9E75B2866
:1032200013D07B28E0D17F222B7A290093431A0008
:10323000202313432B72002300222B606B6020009D
:103240003B1C00F087F806001DE07F222B7AFFB2BE
:1032500093431A00402313432B7200232B606B60AF
:103260009F4203D1583405332370B1E763742000C3
:10327000FFF725FE0028ABD05D212000FFF793FE6D
:10328000061E02D0019E3000FEBD61692800FEF7D7
:10329000CFFF011E03D1042358342370F3E77B1EB4
:1032A00000222000FFF78BFF002800D190E72000CC
:1032B000FFF705FE002800D18AE75D212000FFF717
:1032C00072FE0028DED12C212000FFF76CFE0028C2
:1032D000DBD158340323C7E7236820006360FFF77E
:1032E000CBFE061E00D173E77F2263682B602B7A2A
:1032F00093431A00042313432B72C4E73F27002192
:10330000E3191976237E742B0DD17F222B7A9343F8
:103310001A00062313432B7201232B70042FB1D004
:1033200058340223A0E7662B0AD17F222B7A29701A
:1033300093431A00062313432B72052FF0D1A1E704
:103340006E2BEBD0200029001830FEF78DFF0028EF
:10335000BFD097E7F7B5DFB204000E00002F04D10D
:1033600005235834237000250DE000234374FFF734
:10337000A6FD01900028F6D07D212000FFF713FE66
:10338000051E28D0019D2800FEBD63683068190025
:103390000093FEF737FF002831D001007B1E00228A
:1033A0002000FFF70CFF0028DDD02000FFF787FD8D
:1033B0000028D8D07D212000FFF7F5FD0028E1D1BD
:1033C0002C212000FFF7EFFD002814D02000FFF78C
:1033D00076FD0028C7D02000FFF7C2FE0028C2D02B
:1033E0002000FFF76CFD0028BDD03A212000FFF738
:1033F000DAFD0028C9D1032358342370C3E761697B
:103400003000FEF715FF002802D158340423F4E7FA
:103410007F22037A13400372009BC360BDE710B59F
:103420000400006803685B68984763681818606068
:1034300010BD70B5050008000C001AF009FB210052
:1034400002002800FFF7EBFF70BDF0B5162407005F
:103450000D000A2687B06C442800310016F00AFAE5
:10346000013C303121702800310016F07DF9051E35
:10347000F2D116236B441A1B21003800FFF7CFFF4F
:1034800007B0F0BD10B50400006803685B6898479A
:1034900063681818606010BD70B5050008000C0066
:1034A0001AF0D6FA210002002800FFF7EBFF70BDEA
:1034B000F0B5162407000D000A2687B06C442800DA
:1034C000310016F0D7F9013C30312170280031006D
:1034D00016F04AF9051EF2D116236B441A1B21007F
:1034E0003800FFF7CFFF07B0F0BD00000623F7B5A7
:1034F0000E1C070083725849301C16F025FB00286B
:1035000044D00023142420250093544B311C185917
:1035100016F006FB002809D0514B301C195916F043
:10352000E1FE009B061CE81803B20093043C6D10FA
:10353000231DEAD103340021301C16F0FBFA0028C9
:1035400028D0301C19F00CF8464A474B16F0AEFA5A
:1035500000281FD0A300019323061BD4434B019ADC
:10356000311C985816F0E6FA00280AD03B4B019A15
:10357000301C995816F0B6FE009B061C581B03B26F
:103580000093019B6D10013C043BE4E720250524DA
:103590000090D0E76B461B88301C3B8116F04CFB3B
:1035A0000400334D38600190019B092B0DD90A218D
:1035B000280016F0D9F8BB7A0500013B0198BB72D0
:1035C0000A2116F0D1F80190EEE7200017F0EAF991
:1035D000011C301C16F0B8FF061C280017F0E2F999
:1035E000011C301C16F07EFE019016F025FB060033
:1035F00017F0D8F9011C019816F0A6FF011C16F06F
:1036000011FC16F019FB8619AE4214D27E600A2511
:103610007E682900300016F02DF900291AD10A24FD
:103620003C57002C16DD2900300016F09DF8013CB7
:103630007860BC72ECE700237B60009B01343C6047
:10364000002BE4D0092CE2D9180001230130388185
:103650003B60DCE73800FEBD8096184B8C0E020004
:10366000740E0200F168E388B5F8E43E5C0E0200D7
:1036700040420F0010B50400006803681B689847BB
:1036800063681818606010BD70B50D000400222139
:103690002000FFF7EFFF2978002909D00A4B0135F8
:1036A0001E78002EF4D05A788A4206D00233F7E70B
:1036B00022212000FFF7DEFF70BD5C212000FFF714
:1036C000D9FF3100E4E7C0464A150200F0B5040016
:1036D0008DB0081C0E1C16F013FA002805D14149C4
:1036E0002000FFF7A6FE0DB0F0BD0021301C16F043
:1036F00007FA002809D1311C301C16F093FB011C7D
:10370000301C16F0FDF90028E9D10021301C16F01C
:10371000FDF9002806D02D212000FFF7ABFF802304
:103720001B06F61803AD311C2800FFF7DFFE0399D6
:103730002000FFF78AFE0A23EB560093002B23D0CC
:103740006F6801930AAE019B013E013B5BB201939E
:1037500001330BD038000A2116F08CF8303131706B
:1037600038000A2116F000F80700ECE76B461B78DA
:103770002026D9432E228B1902A8C2540AAB4A42F2
:1037800020005918FFF74BFE0822AB5E002BAAD091
:1037900065212000FFF76EFF0823EE5EB5B2002E14
:1037A00005DA2D212000FFF765FF7542ADB2262610
:1037B0000A2702ABF6182800390016F05BF8013E24
:1037C000303131702800390015F0CEFF85B2002D60
:1037D000F1D1262302AA9B189A1B31002000FFF783
:1037E0001EFE80E7431502007F2270B5037A0500B4
:1037F0000C001340062B00D169E008D8022B0DD332
:10380000032B50D806CD2000FFF709FE25E00C2B36
:103810001FD005D8082B58D00A2B49D030495BE07F
:10382000202B21D0402BF9D15B212000FFF722FF74
:103830002D68002D13D021002800FFF7D5FF2800A8
:10384000FEF7D8FC051E0AD02C212000FFF712FF3E
:10385000EFE701682000FFF739FF606870BD5D2168
:103860002000FFF707FFF8E77B212000FFF702FFAA
:103870002D68002D15D0E9682000FFF705FF3A21DB
:103880002000FFF7F7FE21002800FFF7ADFF28001A
:10389000FEF7B0FC051E04D02C212000FFF7EAFE45
:1038A000E7E77D21DCE701682000FFF7EDFED4E7C4
:1038B0000568002D04DA2D212000FFF7DBFE6D42A4
:1038C00029002000FFF7C1FDC7E70168F9E7037889
:1038D0000449002B00D104492000FFF7AAFDBCE7F2
:1038E00043150200591502005E15020010B50C00C8
:1038F000002802D0FFF778FF10BD20000249FFF733
:1039000098FD6068F8E7C0464315020010B5040052
:10391000006803681B68984763681818606010BDEA
:10392000F0B504008DB0081C0E1C16F0E9F8002854
:1039300005D141492000FFF7AFFD0DB0F0BD0021DA
:10394000301C16F0DDF8002809D1311C301C16F0AF
:1039500069FA011C301C16F0D3F80028E9D10021C7
:10396000301C16F0D3F8002806D02D212000FFF7D8
:10397000CDFF80231B06F61803AD311C2800FFF78E
:10398000B5FD03992000FFF793FD0A23EB56009342
:10399000002B23D06F6801930AAE019B013E013BCF
:1039A0005BB2019301330BD038000A2115F062FF9E
:1039B0003031317038000A2115F0D6FE0700ECE7EF
:1039C0006B461B782026D9432E228B1902A8C2549D
:1039D0000AAB4A4220005918FFF754FD0822AB5E9B
:1039E000002BAAD065212000FFF790FF0823EE5E90
:1039F000B5B2002E05DA2D212000FFF787FF7542B2
:103A0000ADB226260A2702ABF6182800390015F0B9
:103A100031FF013E303131702800390015F0A4FE2D
:103A200085B2002DF1D1262302AA9B189A1B3100E2
:103A30002000FFF727FD80E74315020070B50D0059
:103A4000040022212000FFF761FF2978002909D016
:103A50000A4B01351E78002EF4D05A788A4206D0DF
:103A60000233F7E722212000FFF750FF70BD5C21F1
:103A70002000FFF74BFF3100E4E7C0464A15020083
:103A80007F2270B5037A05000C001340062B00D18D
:103A900069E008D8022B0DD3032B50D806CD2000A7
:103AA000FFF7F0FC25E00C2B1FD005D8082B58D0D1
:103AB0000A2B49D030495BE0202B21D0402BF9D193
:103AC0005B212000FFF722FF2D68002D13D021007D
:103AD0002800FFF7D5FF2800FEF78CFB051E0AD053
:103AE0002C212000FFF712FFEFE701682000FFF70D
:103AF00017FF606870BD5D212000FFF707FFF8E742
:103B00007B212000FFF702FF2D68002D15D0E9680A
:103B10002000FFF793FF3A212000FFF7F7FE210076
:103B20002800FFF7ADFF2800FEF764FB051E04D058
:103B30002C212000FFF7EAFEE7E77D21DCE70168A2
:103B40002000FFF77BFFD4E70568002D04DA2D2164
:103B50002000FFF7DBFE6D4229002000FFF7A8FCE4
:103B6000C7E70168F9E703780449002B00D104494D
:103B70002000FFF791FCBCE7431502005915020035
:103B80005E150200F0B5584FD5B05849380015F011
:103B9000F5F9FA20400101F005F8FEF7B7FA5449AB
:103BA00005A815F0B1FA534B0BA8196819F048FF96
:103BB0002CAC34AB2C93636054ABA360E360002364
:103BC0007F252374237F2200AB4323774A4931A802
:103BD000FFF736F9002806D00423027AAA431343DC
:103BE0000372464B0360FEF791FA22000500444938
:103BF00031A8FFF725F9002807D07F22037A056056
:103C000093431A0008231343037222003D4931A84D
:103C1000FFF716F92200010008903B480994FFF7CE
:103C2000CEF82200394931A8FFF70AF9061E16D04E
:103C30000BA92000FFF7AAF8051E4BD10BA819F01D
:103C400007FF030065680133A268EB1803909342F5
:103C500035D9012323747F22337A934333720024AE
:103C600008A931A808970994FFF740FE380015F01D
:103C700073F9274905A815F0DFFA234905A815F0BF
:103C800025FB244905A815F033FB234D2300220012
:103C900005A90094280012F0AFF808A931A80895EA
:103CA0000994FFF7EDFE280012F095FC1049114829
:103CB00015F0C2FA05A815F0D8F955B0F0BD63604B
:103CC000002DC8D0039A0BA9280018F024FE002369
:103CD000039AAB547F22337A356093431A0005234D
:103CE00013433372BBE7C0464850002088140200DB
:103CF00024500200DC020020A41402009E140200E2
:103D0000A9140200B3140200D0020020BA14020069
:103D1000011302000A1302004C030020F8B5424EC2
:103D2000424F3100380015F0EFF9414C414D22006F
:103D30002900380015F0FCFC3F4F3100380015F029
:103D4000E3F922002900380015F0F2FC3B4F310066
:103D5000380015F0D9F922002900380015F0E8FCE8
:103D6000374F3100380015F0CFF922002900380014
:103D700015F0DEFC334F3100380015F0C5F929008D
:103D80002200380015F0D4FC2F4F380000F040FF1F
:103D900022002E49380015F0CBFC2D4F00213800B1
:103DA00001F024FA22002B49380015F0C1FC2A4FFB
:103DB0000121380001F09CFE22002849380015F04E
:103DC000B7FC3900264803F00DFD220025492448A0
:103DD00015F0AEFC244F2249380011F077FE220086
:103DE0002249380015F0A4FC214801F0D5FE214FEE
:103DF0003100380015F088F922002900380015F04C
:103E000097FC1D4F3100380015F07EF92200290083
:103E1000380015F08DFC4821184812F03DFC49216E
:103E2000174812F039FCF8BD245002008404002029
:103E3000000000206B900100EC020020D002002066
:103E4000F8020020DC02002028030020E54B0000DF
:103E500014040020FD2000003C040020FD5500005B
:103E600088060020257700004C030020C15901007E
:103E700048030020A84100201C0300200E0300205E
:103E800014030020E121F0B5624C85B04902200006
:103E900013F0BEFB604B05201A78604B1A70FEF7DA
:103EA0008BFDFEF791FE5E49200015F067F800F0EB
:103EB00055FEE1215B48490214F014FD5A4E3000D2
:103EC00000F062FD5949300000F0DEFD300000F0E6
:103ED0005BFDFEF7B3FA564F380002F0D3F9002825
:103EE00004D15449200015F049F8FEE7524D08224C
:103EF0000021280002F04EFF390001A802F0D0FA9C
:103F00000199280002F064FF01A815F0AEF828001E
:103F100003F00CF949494A4803F04FFB280002F02E
:103F200051FF0700280002F050FF3A000300002173
:103F3000444803F061FC444BF35C444E012B0BD12D
:103F40004349200015F01AF84249434815F074F926
:103F50004249300015F070F9414D3100280015F04C
:103F6000B5F94049280015F0C3F93B4F2800390046
:103F700015F0ACF93C49280015F0BAF93B4920008E
:103F800014F0E0FF2900200014F0EEFF384E390055
:103F9000300011F0A3FD374901A815F0B5F801AACA
:103FA0002900300011F09FFD01A815F05EF83000E7
:103FB000314911F091FD0121062012F063FFE1214A
:103FC0001848490214F08EFCE1212000490213F048
:103FD0001FFB00F0C3FD2949200014F0CFFF0A2089
:103FE00000F066FD2649200014F0C8FF00F0CAFD6D
:103FF00080212448C90012F056FB80212248C900C4
:1040000012F051FB0022214B21481A8001F0C6FD1D
:1040100005B0F0BD48500020380400400C030020DB
:104020004D160200884B0020D44100202D210000B5
:10403000CC4600205D160200704700200D210000D4
:10404000584A0020880600204B040000F802002097
:10405000701602009C450020D00200201944002068
:10406000A84100200813020093160200AB160200BC
:104070004C030020245002007D420000B7160200CD
:10408000C51602000E030020140300207C0400204B
:104090004803002030B5A5B02A49684615F034F829
:1040A0002949684615F0C8F82849684615F00EF900
:1040B0002749684615F01CF9264B03A8196819F022
:1040C000BFFC254C2549200014F03CFF03A920002B
:1040D00014F038FF2249200014F050FF214D224AED
:1040E00003A9280012F048FA00280FD11F49200028
:1040F00014F028FF280011F002FD0A220100200020
:1041000014F08DFF1A4800F04DFDE7E7200014F091
:1041100023FF1849200014F031FF200014F01CFF89
:104120001549200014F00EFF6946200014F01CFF12
:1041300000226946280012F002F9684614F095FF43
:1041400025B030BD2450020001130200D00200202F
:1041500009100200F802002048500020211002003F
:10416000EC1E02004C030020B3220000D710020016
:10417000881300003D1002006110020070B52E4C43
:104180002E49200014F0FAFE00F0FCFC2C4920001F
:1041900014F0D8FE2B4D0A220023E95E200014F013
:1041A0003EFF0023EA5E8623274E9B00F35A9A4285
:1041B00006DD2649200014F0E1FE254B1B689847D8
:1041C000244801F0F7F903282FD02349200014F0E8
:1041D000D5FEFEF7AFFC214811F0F3FC002805D115
:1041E0001F49200014F0CAFEFFF754FF0220FEF71B
:1041F000E3FB1C49200014F0C1FE1B49200014F011
:10420000BDFEFEF7EFFB1949200014F0B7FEFEF7E4
:1042100097FA1749200014F0B1FE164BF05A00F03F
:10422000C1FC2B8801332B8070BD134800F082FD48
:104230000428CAD1CFE7C0464850002064150200C8
:10424000711502007C040020D44100207B1502007F
:104250008004002014040020A91502004C03002053
:10426000C5150200DE1502000E1602001C16020023
:10427000341602001202000028030020F0B5894C19
:104280008949A544040000AF884814F05BFE230070
:104290006A460833DB08DB00D31A9D466E466D463E
:1042A000AB1B9C4205DD824811F077FB287001357D
:1042B000F6E7E3430025DB171C40355531007B480A
:1042C00014F040FE794814F047FE082160237A1864
:1042D000D4182033D218BA667A18D3186360A02392
:1042E0009B00D218A2607A18D3187F22E360237F44
:1042F0000C20934323772B00FE60BE610E007A18DA
:104300005C33D3183D613D757D7725743C62791827
:104310001D7074350A23491900223818FEF74FFF23
:10432000BB1964495819FEF7B3FD002800D1B6E067
:104330007F22037A1340043B012B00D9AFE00568CC
:10434000002D00D1ABE05C49584814F0FBFD29007A
:10435000564814F013FE5949280019F067FB061E51
:1043600000D08CE05649514814F008FE4F4B082508
:104370000C22FB6074237819B918C0183E61FFF74E
:10438000B5FA4A4814F0E8FD0C224E4B013E79196B
:10439000B818FC603B61BE60FEF7E6FD0C224A4B9C
:1043A0007919B818FC603B61BE60FEF7DDFD0C2298
:1043B000464B79193860B818FC603B61BE60FEF767
:1043C000D3FD434B05003B610823F9180433F8186B
:1043D000FC60BE60FEF7C8FD2A003E4B643A786080
:1043E0003D4C9A420ED83D49304814F0ABFD0A22AC
:1043F00029002E4814F00FFE39492C4814F0BEFD58
:10440000384BE5523B68013B0E2B11D8274E3649FD
:10441000300014F097FD0A222900300014F0FBFD53
:104420003249300014F0AAFD85233A889B00E252FD
:104430007B68013B082B0DD81C4D2D49280014F03A
:1044400081FD0A227968280014F0E9FD8623BA88E4
:104450009B00E2520121200000F0B4FAFEF706F8BA
:1044600001211D4800F0AEFA224B9B68002B01D0C1
:10447000FFF788FBBD46A3239B009D44F0BD1E496A
:10448000280019F0D3FA002804D11C49074814F079
:1044900075FDE3E71A49174814F0CEFEE0E7194925
:1044A000F9E7C04674FDFFFF2D13020048500020BD
:1044B0004C0300204D130200521302001317020098
:1044C000621302007F130200831302008A130200AA
:1044D000931302005CD40100D44100209B1302001E
:1044E000BD13020012020000C1130200D513020026
:1044F000E4130200DC020020F9130200FE130200A4
:104500002A1402006C14020010B50121014800F0C9
:1045100059FA10BDD4410020F0B5B9B0040012F032
:1045200077FAFA2301259B00C318009300232F007C
:10453000029312F06DFA009BC01A00D4AEE0029B09
:10454000F92B00D9AAE0002D12D05949200014F00F
:1045500015FD2100574800F03FF9200000F068FAEF
:104560005549200014F0EEFC029B0133DBB20293AC
:10457000236820001B69984700282AD1236820005F
:104580001B699847051ED4D000231E000393019396
:1045900012F03EFA009BC01A75D5019B002B23D167
:1045A000236820005B699847051EF1DD12F030FAA0
:1045B000FA239B00C31800930D2D3CD123682900DA
:1045C0001B682000984712F023FA323003900197BD
:1045D000DEE7236820009B6998470028CED1236836
:1045E00020005B699847C3E7236820009B699847D0
:1045F000431C58D112F00CFA039BC01AD0D40025EA
:1046000005AB9B191D70AE4293DB12D02B4905A858
:1046100019F0D2F9A84241D005AA3900254800F086
:1046200070F8A84233D012F0F3F9FA239B00C318B4
:1046300000933D007DE70A2D05D1236829001B6802
:1046400020009847DBE700230193082D01D07F2D40
:1046500009D19E429CD0236803225B681849200040
:104660009847013E94E7C72E92D82B00203B5E2B43
:104670008ED82368EDB21B6829002000984705AB4F
:104680009D55013684E7002505AB1D7051E705A94E
:104690000C4800F0E7F90028C5D1CAE7200014F063
:1046A0005BFC39B0F0BD0A2800D179E7A7E7C04626
:1046B000CF160200F4160200DB160200EF1602000D
:1046C000EB160200D4410020F7B506000F000024CD
:1046D0000192BC4212D018236343F3185D6828008E
:1046E00019F0B6F929000200019819F0B8F9631C15
:1046F000002801D12000FEBD1C00EAE70120404255
:10470000F9E770B506001500FFF7DEFF00239842B9
:104710000DDB182444433419A6680133002E06D05B
:10472000606819F095F929182000B0470123180096
:1047300070BD70B504690500002C08D042692000E6
:1047400019F0C2F96B69E4180023013C237070BDB5
:1047500010B504690B00002C05D0002218001100D0
:1047600019F060FF207010BD10B504690B00002C1B
:1047700005D000221800110019F054FF208010BD50
:1047800070B50C0005000A49200014F0DBFB296815
:10479000200014F0D7FB0749200014F0D3FB696810
:1047A000200014F0CFFB0449200014F0CBFB70BDB7
:1047B000EB1E02001F1702002217020070B50C004A
:1047C0000500080014F0C8FB2968200014F0BAFBAB
:1047D000200014F0C1FB70BD70B505690C00FFF737
:1047E000CFFF002D04D02900200014F0C7FB70BDBE
:1047F000200014F0B1FBFAE770B505690C00002D3C
:1048000006D0FFF7BDFF29780A22200014F021FC12
:1048100070BD70B505690C00002D06D0FFF7B0FF24
:1048200029880A22200014F0FAFB70BD30B5094D2A
:10483000094CAB685B035B0F9B001C590460AB68C1
:1048400001619BB243606343A4008360C460426122
:1048500030BDC0460040004128170200F7B5802651
:104860001A4D01916F6803333E439B086E60002B25
:104870002BD0174E2E802E7DF107FCD51E00076829
:10488000991BBF088F4219D9002E17D0FF21177826
:104890008C433C430F4957780C403F023C43977888
:1048A000013E39040C4F2740D478BFB20F43240691
:1048B00001993C4310C101910432E0E7074B2B8082
:1048C0002B7DDB07FCD53300D1E7F7BD004000416D
:1048D00044A5FFFFFF00FFFFFFFF00FF04A5FFFF50
:1048E000044B054A4908D9611A801A7DD207FCD5C4
:1048F0007047C0460040004102A5FFFF70B50400AC
:104900000D001600E36829002000B34205D2FFF72E
:10491000E7FFE368ED18F61AF4E7FFF7E1FF70BD73
:1049200010B510001A0017F0F6FF10BD0D4BF0B5D2
:10493000C418082500230C4EA04210D002781202A1
:1049400053402A001FB259008BB2002F01DA714088
:104950008BB2013AD2B2002AF4D10130ECE7180050
:10496000F0BDC0464C04000021100000044B10B5FF
:104970001B68002B00D098470122024B1A7010BD13
:10498000B8410020B441002010B504000A482200BC
:1049900043690169FFF7C4FF2000FFF7C7FF2288C2
:1049A000064B9A4203D1064BE35A834202D02000C1
:1049B000FFF7DCFF10BDC046BC410020EFBE000089
:1049C0004C04000030B5134C134DA54404000029DD
:1049D00002D12B78002B19D0104B20002380FFF739
:1049E000A5FF0F4B2100E0520E4A684617F093FFD7
:1049F0000D4C626921692000FFF780FF63696A46F8
:104A000021692000FFF72AFF00232B70074B9D44EC
:104A100030BDC046ACFBFFFFB4410020EFBEFFFF3E
:104A20004C0400004E040000BC410020540400006F
:104A300070B50500902614F08FFA0849280014F08C
:104A40009DFA0024760006482018C368002B01D088
:104A5000290098471834B442F5D170BD201E0200D9
:104A6000001D020010B50A0004480C21FFF749FEA2
:104A7000002802D00122024B1A7010BD001D020056
:104A8000B441002001207047014B19607047C046B7
:104A9000B841002010B5034A03490448FFF7C6FE99
:104AA00010BDC0464E04000000180200BC410020AA
:104AB0001023224A91690B439361214B1A7852B219
:104AC000002A3ADB1F4A2049916020495160517801
:104AD00049B20029FBDB1E495180517849B20029B7
:104AE000FBDB02211A788A431A70DA7952B2002A63
:104AF000FBDB04211A788A431A70DA7952B2002A51
:104B0000FBDB0F21421C0A405A70022208409870B9
:104B100019780A431A70DA7952B2002AFBDB0122B3
:104B2000C0205A710B4B03321A6080001A580A4990
:104B30001140C02212040A431A507047000400407A
:104B400000100040000C00400404000004031100A9
:104B50000344000000E100E0FFFF00FF0221074BDB
:104B60001A788A431A70DA7952B2002AFBDB1021D4
:104B7000034A93698B4393617047C046001000401D
:104B800000040040064B1900DA7952B2002AFBDB20
:104B9000A5221A72CB795BB2002BFBDB7047C046B3
:104BA0000010004070B5040011F032FF0A2504190E
:104BB00011F02EFFA0420AD2FFF7E4FF11F028FF08
:104BC000201A0A2800D9280011F058FFF0E770BD1C
:104BD0000123024A1370024A937170472246002053
:104BE0000010004010B50400034B083303600C3084
:104BF00014F03BFA200010BDE41F020010B50400C1
:104C0000FFF7F0FF200014F00FFD200010BD0000A2
:104C1000074B10B5083303600123040003720549F4
:104C20000C3014F071FA00232000E36110BDC0467F
:104C3000E41F02002450020030B5264C85B0050068
:104C4000200000F0CDF9002837D0200000F0E0F877
:104C500000226B681000013B052B2ED8180014F0C1
:104C60006FFD03090D182E341B49200000F098F841
:104C7000022300E003236B6000201EE029002000D7
:104C80000C3100F077FA1549200000F089F8042370
:104C9000F1E7134901A814F037FA280001A90C30F4
:104CA00014F08FFB040001A814F0DFF9002CDFD012
:104CB000002301206B6004332B7205B030BD09491D
:104CC000200000F06DF80623D5E701236A602B72FF
:104CD000D2E7C04624460020C11F0200CC1F0200BC
:104CE0007C200200D61F0200F8B501234360DB18C8
:104CF00004000372002919D011F08AFEFA26070079
:104D000076002000FFF798FF051E09D1E369002B0C
:104D100008D011F07DFEE369C01B984202D36560A4
:104D2000207AF8BD300011F0A9FEEAE7FFF784FF12
:104D3000F6E7000010B50400024800F069F8207A98
:104D400010BDC0462446002010B504001C3014F0ED
:104D50008CF9200010BD000070B58360049B060034
:104D60000025C360012304001C36426005610575FF
:104D7000836101603000054914F0C6F9A562300076
:104D8000402114F093F9200070BDC0462450020069
:104D9000014B024A1A6070475046002048500020DC
:104DA00070B504000D0011F033FE2369C01A1328FA
:104DB00003D81423181A11F061FE2900206814F09A
:104DC000DDF820680368DB68984700232375A3613A
:104DD00070BD00000EB410B50A4C0B49A544040088
:104DE000FFAB183304CB02A8019319F0BBFE02A954
:104DF0002000FFF7D5FF054B9D4410BC08BC03B055
:104E00001847C046F4FBFFFFFF0300000C0400003E
:104E1000F0B5040087B0206803681B699847002834
:104E200000D192E0206803685B699847634BC6B283
:104E30001868002803D0036831001B6898472500D4
:104E40001C353100280014F05CFA277D012F48D072
:104E50005B49684614F058F96946280014F0A5FA31
:104E60000026B0420DD0574903A814F04DF903A90C
:104E7000280014F0A6FA461EB041C6B203A814F0EA
:104E8000F4F8684614F0F1F8002E06D001232375DB
:104E90004D49280014F0D0F9BDE74A4903A814F0A1
:104EA00033F903A9280014F08CFA070003A814F0C2
:104EB000DCF8002FAFD0280014F05FFB636A002BF2
:104EC000E6D011F0A5FD2061404BB200D05800287B
:104ED00003D0036829001B6898470136082EF3D1D8
:104EE000D6E70A2E97D111F093FD3949206103A826
:104EF00014F00AF903A9280014F0EDFA060003A83B
:104F000014F0B3F8731C22D0A761A369002B82D0E0
:104F1000A26A002A13D0012B4ADD03A8636A32007B
:104F2000290014F0DFFA03A814F09FF8280014F009
:104F300024FB2900A06A14F05DF90023A36200237A
:104F400021492375280014F077F907B0F0BD2149F5
:104F500003A814F0D9F803A9280014F0BCFA06003D
:104F600003A814F082F8731C02D00223A361CCE7DB
:104F7000194903A814F0C8F803A9280014F0ABFAE3
:104F8000060003A814F071F8731C01D00323EDE7A9
:104F9000124903A814F0B8F803A9280014F09BFAEA
:104FA000060003A814F061F8731CAED00423DDE7FB
:104FB0003100280014F0CEFAB8E7C0465046002071
:104FC000F41F0200F91F0200245002005446002082
:104FD000F71F0200FC1F0200042002001120020043
:104FE00010B50400FFF714FFA06910BD70B5826210
:104FF00004000E0011F00CFD050011F009FD401B2E
:10500000B04208D22000FFF703FFA0690028F4D0C7
:105010000023A36270BD00232000A3621C3003495B
:1050200014F00AF901204042F4E7C046245002007F
:1050300010B504000549FFF7B3FE0022C821200087
:10504000FFF7D4FF01384342584110BDF41F02005E
:1050500070B505000E0011F0DBFC040011F0D8FC67
:10506000001BB04208D22800FFF7E2FF012804D05D
:10507000642011F003FDF1E7002070BD10B5074971
:105080000400FFF78DFEFA21002289002000FFF7BF
:10509000ADFF01384342584110BDC0464E0F0200DB
:1050A00070B50400E1230D00616800685B0299425D
:1050B00000D919000368DB699847E3680121D8B279
:1050C00011F0E0FEE3680121D8B211F027FFA068DB
:1050D00000283CDB002D3AD0C0B2012111F0D2FEF5
:1050E000A3680121D8B211F019FF642011F0C6FCA9
:1050F000A3680021D8B211F011FF1C492000FFF76E
:10510000A7FF002829D0E12362685B0201209A42B0
:1051100024D917492000FFF75DFE0022C821200096
:10512000FFF764FF012818D1206803685B6A98477D
:10513000642011F0A3FC206861680368DB6998476C
:105140000A492000FFF784FF431E984106E0074903
:105150002000FFF77DFF002801D1002070BD200056
:10516000FFF78CFF0028C8D1F7E7C04610270000E2
:105170001B20020081627047002310B5054A980089
:105180008458002C01D1815010BD0133082BF6D179
:10519000FAE7C04654460020002310B5054A98009F
:1051A00084588C4202D10023835010BD0133082B58
:1051B000F5D1FAE7544600202323E12213B5074C2A
:1051C00000935202043B06492000FFF7C5FD054A43
:1051D0000549200014F0ACFA13BDC0462446002057
:1051E000CC4D002000000020494D000070B5002586
:1051F00004000E000849057045608560C1600161CA
:105200004161183013F080FF6562AE4202D003485E
:10521000FFF7BEFD200070BD245002002446002090
:10522000F0B5037885B005000224002B21D07F4E15
:105230003000FFF7D5FE041E1BD03000FFF7E8FD5D
:105240006F68172F15D8380014F07AFA0C161D2540
:10525000293459686C72757B7F85898F939A9EB2C9
:10526000B7BDC2CD72493000FFF79AFD01233C0063
:105270006B60200005B0F0BD0223012C08DD002387
:1052800002242B70F5E76B493000FFF789FD0323FB
:105290006B600024EDE7012CF1DC0423F8E7290022
:1052A00030001831FFF766FF63493000FFF778FDE3
:1052B0000523EDE7012CF0DC2E006049183601A82B
:1052C00013F022FF01A9300014F07BF8040001A8BC
:1052D00013F0CBFE002C01D00A23D9E7584901A8CE
:1052E00013F012FF300001A914F06BF8060001A8BA
:1052F00013F0BBFE002EC2D006236B60B9E7AB688B
:10530000002BBCD0290030001831FFF733FFAA680A
:105310004C493000FFF75EFD0723B9E70823012C55
:10532000B6DDACE748493000FFF73AFD0923AFE7A7
:10533000012CD1DDA3E745493000FFF731FD0B23F8
:10534000A6E70C23012CA3DD99E741493000FFF7C4
:1053500027FD0D239CE70E23012C99DD8FE73D49A6
:105360003000FFF71DFD0F2392E71023012C8FDD86
:1053700085E7EA6838493000FFF72CFD112387E7FD
:105380001223012C84DD7AE72B6969691A78002AD7
:1053900002D10A78002A06D00A0030002F49FFF710
:1053A00019FD132374E72E493000FFF713FDF8E7CA
:1053B0001423012C00DC6BE761E72A493000FFF77A
:1053C000EFFC152364E7012C00DD58E716235FE7A7
:1053D000290030001831FFF7CDFE23493000FFF7D8
:1053E000DFFC172354E7012C00DD48E728002B6A77
:1053F0001830591E14F012F8FB230340302BE5D06F
:10540000312B02D03038082805D118236B60153BAA
:105410002B7001242DE7022803D1162328706B601E
:1054200037E7032800D024E729E7C04624460020B8
:10543000302002003A200200442002004D200200E9
:10544000532002005B200200D61F020068200200E9
:1054500072200200802002008A200200A1200200A7
:10546000BB200200900F020026200200F7B51D00AD
:1054700008AB160004CB0F0019780AAB1B780400A8
:10548000154800920193FFF70BFE002803D100237B
:1054900023702078FEBD009B0020636101232370F0
:1054A000019BA760E660256160608342F2D011F045
:1054B000AFFA05002000FFF7B3FE0028E9D1636AC8
:1054C000002B05D011F0A4FA636A401B9842DED28B
:1054D000642011F0D3FAEDE72446002030B51C001B
:1054E00085B008AB1D78044B029501940093FFF73B
:1054F000BDFF05B030BDC04624500200F0B58DB0F0
:105500002849684613F000FE274C28492000FFF781
:1055100047FC6A4664212000FFF768FD012806D099
:105520000026684613F0A1FD30000DB0F0BD2D211E
:10553000684613F0A4FF0100431C02D0684614F033
:1055400009F803AA1A49009818F032FE0028E7D09B
:1055500003A817F0CFFA06000F0068461A2113F0CF
:105560005DFF1B210400684613F058FF0A23303CFE
:10557000634330381818E1239B0058431921040075
:10558000C517684613F04AFF2D2802D136196F411E
:10559000C7E71921684613F041FF2B28C1D1361BFC
:1055A000AF41BEE72450020024460020CC20020078
:1055B000D5200200007870470020704713B56B4675
:1055C0000268D9710733546819000122A04716BD3B
:1055D00080690130431E9841C0B2704713B56B46D5
:1055E000DC1D036801225B6A21009847012801D174
:1055F000207816BD01204042FBE77047094B0100AF
:105600001A0010B5040008325433026003611031EF
:105610000548FFF7C1FD2000343013F026FD2000BF
:1056200010BDC0469C2102002446002010B5040095
:10563000FFF7E4FF200013F0F7FF200010BD00008B
:10564000F0B5474E89B004003000FFF7C9FC051ED5
:1056500017D0236A581E092813D8002314F070F8B5
:105660000514373E43494D6E737A210030003431C2
:10567000FFF780FD3B493000FFF792FB0223002536
:105680002362280009B0F0BD012D0FDC2600364949
:10569000343605A813F038FD05A9300013F085FE57
:1056A000070005A813F0E1FC002F02D100232362BC
:1056B000E7E7E36B3000591E13F0B0FE23003038EB
:1056C000A06132331B78002B15D00323D7E7A269E2
:1056D00026493000FFF77EFB0423D0E70523012D88
:1056E000CDDD0923CBE722493000FFF759FB062324
:1056F000C5E7012DF5DC0723C1E7E36A218EA26926
:10570000002B06D0009130001A49FFF763FB0823F5
:10571000B5E7230028331B78039121002B3109784A
:105720003000029121002A310978019121002931AC
:10573000097800911049FFF74DFBE8E7012DD0DC17
:105740000122E261B3E7A2690C493000FFF742FB96
:105750000A2394E7236201235B42A36191E7C046D9
:1057600024460020EF200200FA200200032102005C
:1057700014210200252102003921020056210200D5
:1057800010B5036804001B699847002804DDA1696F
:10579000034800F047FB10BD01204042FBE7C04634
:1057A0007446002070B50025826904000562AA4293
:1057B00011DB094E09493000FFF70CFB2A000849AC
:1057C0003000FFF713FCA169064800F053FA0123EB
:1057D0005B42A361E56170BD2446002056210200B2
:1057E000102700007446002010B504000D48FFF794
:1057F0000FFBA16900204B1C12D00B4800F064FA8B
:10580000002808DB230032331B780120002B07D04F
:10581000E369002B04D1236820009B6A984700208D
:1058200010BDC046244600207446002010B5037DFC
:105830000400002B0AD023682000DB6B9847002867
:10584000F9D0A1694B1C07D1002010BD0368DB6BA8
:1058500098470028F5D1F7E7044800F035FA00280A
:10586000F3DA236820009B6A9847EDE7744600202E
:1058700070B5836904000E001500013301D10020CA
:1058800070BD002AFBD003681B6998470028F6D03A
:105890002B003200A169024800F0D4FAF0E7C046BC
:1058A000744600207FB50C000500134901A813F0D1
:1058B0002BFC01A9200013F078FD060001A813F0CD
:1058C000D4FB002E17D00921200013F0A7FDAB69EF
:1058D000303883420FD1094901A813F015FC20008C
:1058E00001A913F06EFD040001A813F0BEFB002C0B
:1058F00001D00023EB617FBD852102008F210200D2
:1059000008B4024B9C46103808BC6047A5580000FC
:105910000300F0B58FB0039133331B7804001500FA
:10592000002B0DD023682000DB6B98470028F9D0AE
:10593000A36901330AD10023009300980FB0F0BD92
:105940000368DB6B98470028F2D1F4E7484905A8C3
:1059500013F0DAFB802329005B009D4200D9190077
:105960004900133105A813F0A1FB00230093002D7B
:1059700071D080232E005B009D4200D91E00710073
:10598000133105A813F092FB3A4905A813F054FC13
:10599000A16905A813F0BEFC374905A813F0A8FCBF
:1059A000310005A813F0C3FC344905A813F0A0FC8E
:1059B000009A039B9446634402930193019B0F2238
:1059C0001F783B09190017403031092B01D93733B3
:1059D000190005A813F095FC39003031092F00D9C2
:1059E000073105A813F08DFC019B029A0133019346
:1059F0009B1A9E42E2D8224905A813F079FC214F58
:105A000005993800FFF7CCF9230033331B78002BBE
:105A100028D0174908A813F077FB08AA1A493800BC
:105A2000FFF7E4FA01281AD0042811D117490BA86E
:105A300013F06AFB0BA908A813F004FD05000BA8DE
:105A400013F013FB6B1C03D0236820009B6A98475C
:105A500008A813F00AFB05A813F007FB6DE708A8D8
:105A600013F003FB009BAD1B9B1900937FE7C0461F
:105A70002450020062210200811202006C21020007
:105A80006D21020024460020102700006F21020033
:105A9000FA2370B500259B008360124B040045601B
:105AA0001800083020602000543323612275A16162
:105AB000E56129002562243013F07AF923000122E0
:105AC00020003233E562258607491D705A70343054
:105AD00013F01AFB210005481031FFF74DFB2000A1
:105AE00070BDC0469C2102002450020024460020C4
:105AF0000A00012110B504004942FFF7C9FF200048
:105B000010BD10B583690400013302D003689B6A9D
:105B10009847237D002B0BD023682000DB6B984730
:105B20000028F9D00120237D2062002B07D110BD71
:105B300023682000DB6B98470028F3D1F7E7236840
:105B40002000DB6B9847002803D1643010F096FFEB
:105B5000F5E7A0690130431E9841E8E74B6810B5AE
:105B600002860200836200233232C3621370FFF7A1
:105B7000C8FF10BD70B504000E00243000211500D0
:105B800013F01EF9230000223233E662258620003E
:105B90001A70FFF7B6FF70BD7047000010B5012105
:105BA0000248FFF77DFA431E984110BD24460020AD
:105BB00070B50400094913F0A7FA0F21200013F073
:105BC00075FA074D07492800FFF7EAF82800220078
:105BD0006421FFF70BFA200070BDC046245002007C
:105BE00024460020F42102007FB50400164D290050
:105BF00013F08AFA1B21200013F058FA134E1449AF
:105C00003000FFF7CDF8FA21220089003000FFF7BD
:105C1000EDF9104901A813F077FA01A9200013F05B
:105C2000C4FB060001A813F020FA002E07D00722BB
:105C30000021200013F074FC200004B070BD290086
:105C4000200013F0F9FAF7E7245002002446002060
:105C5000FC2102000422020010B50400044B54226F
:105C6000083308C0002116F072FE200010BDC046A7
:105C70002422020010B50C244C430419606800284B
:105C800005D016F01DFE0023A3606360E36010BD25
:105C900070B505000024064B08330360210028007E
:105CA0000134FFF7E7FF072CF8D1280070BDC0468C
:105CB0002422020010B50400FFF7EAFF200013F0D1
:105CC000B3FC200010BD0000F0B50C244C430419B7
:105CD000E56889B000900F00002D00D08BE063686C
:105CE000002B06D18020800016F0E0FDE560A0606A
:105CF0006060454902A813F007FA8023434E3A003A
:105D0000434930009B00FFF765F802AA4149300083
:105D1000FFF76CF901281AD0022800D171E004289D
:105D20000FD13D4905A813F0EFF905A902A813F01A
:105D300089FB050005A8013513F097F96B1E9D41FD
:105D40006D4202A813F091F9280009B0F0BD334963
:105D500005A813F0D9F905A902A813F026FB06003F
:105D600005A813F082F9002EEBD02D4905A813F0F9
:105D7000CBF905A902A813F065FB050005A813F0EF
:105D800074F96A1C0025002102A813F0C9FB049BCA
:105D900002A8591E13F0DEFB049B5B080193019BD4
:105DA0009D421ED0690002A813F020FB6B0006780C
:105DB000591C02A813F01AFB3300303B0278DBB207
:105DC000392E01D9373EF3B21600303EF6B2392AE9
:105DD00001D9373AD6B21B016268334353550135B6
:105DE000DDE76368009AA3600C237B43D318DD6072
:105DF00002A813F03AF90C235F43009BDF19FD68FA
:105E0000A2E701259CE7C04624500200244600205A
:105E10000C220200102700006F2102001B2202004A
:105E20006D21020070B504000D00FFF74DFF002842
:105E300005D00C2169436418A368187870BD01204F
:105E40004042FBE7F8B506000C0017001D00FFF705
:105E50003BFF002811D0854200DD05000C235C4388
:105E600034192A00A168380016F055FD2800A368EF
:105E70005B19A360E3685B1BE360F8BD10B5054CDC
:105E80002000FFF7E9FE044A0449200013F050FC0B
:105E900010BDC0467446002000000020915C000048
:105EA000704710B5040013F0BFFB200010BD10B503
:105EB0000368C9B21B68984710BD10B5040040685C
:105EC000217A0368DB6A984702216068FFF7EFFFD9
:105ED000606803685B6B98470023984203D10120F8
:105EE00010F0CCFD0123180010BD00000B4B10B5C5
:105EF000134004D52020013B4042034301331F24BB
:105F0000D01720401C3CA1408018DA172240D3183B
:105F100040119B1000021843084310BD1F00008071
:105F2000F0B5081E1BD00020824218D08B189C466A
:105F3000082201230E781C003440651EAC41C70BBB
:105F4000400080B2BC4202D0054C604080B25B0091
:105F5000013ADBB2002AEED101316145E8D1F0BD52
:105F60000580FFFFF0B585B000AFFC6AFB80230021
:105F70006E4608333B600733DB08DB00F31A032669
:105F80009D4605001E70E01D013E58709970DA7044
:105F9000B91D320001A816F0BEFC6B462200B96A9A
:105FA000981D16F0B8FC6B46621D591C2800FFF7BF
:105FB000B7FF0E23F881A01D3200F918684416F0CF
:105FC000AAFC6868297A0368DB6A984768686946AA
:105FD00003683A685B689847686803685B6B984732
:105FE000BD464342584105B0F0BDF0B5130085B041
:105FF00000AFBA60D51C6A460A33DB08DB00D31A4F
:106000009D46FB601523040039607B606068217A3F
:1060100003682A009B6B1E000123B047A84204D0EE
:106020007B68013B7B60002BF0D1606803685B6993
:106030009847FB681870C0B2A84203D00020BD4644
:1060400005B0F0BDFB685D1C2E00606803681B692D
:106050009847002806D0606803685B6998472870F5
:106060000135F2E7BB68F9685D1C2A002000FFF7E4
:1060700057FFBA68FB689B189A78FB6812025B5D51
:1060800013439842DAD1BA683100386816F043FCFD
:106090000120D4E737B504004068124903689B6AC1
:1060A0009847606800210368DB6A98476068036866
:1060B0005B6B98470C4810F005FD6B46DD1D012217
:1060C00029002000FFF791FF002809D02B7800203D
:1060D000112B05D16068054903689B6A9847012028
:1060E0003EBDC046A0860100DC05000040420F0016
:1060F00073B504000D001600FFF7CCFF002801D196
:10610000002076BD0022ABB2019200924021200017
:10611000FFF728FF0028F3D0732010F0AFFC4022D7
:1061200031002000FFF761FF0028E9D0012010F0C6
:10613000A5FC2000FFF7C1FE0120E2E730B585B0E5
:106140000400FFF7A7FF002802D1002005B030BDF2
:10615000002247210192009213002000FFF702FF66
:106160000028F2D00F2509206D4410F087FC012291
:1061700029002000FFF739FF0028E6D0012010F0A9
:106180007DFC2000FFF799FE287843425841DDE767
:1061900030B585B004000D00FFF77CFF002802D168
:1061A000002005B030BD4023009501930122472116
:1061B0002000FFF7D7FE0028F2D00F2509206D44FC
:1061C00010F05CFC012229002000FFF70EFF0028E0
:1061D000E6D0012010F052FC2000FFF76EFE287878
:1061E00043425841DDE7F7B504000F0015001E00DB
:1061F000FFF750FF002801D10020FEBDABB2019592
:106200000097022247212000FFF7ACFE0028F3D0C0
:10621000092010F033FC202231002000FFF7E5FEBA
:106220000028E9D0012010F029FC2000FFF745FEEE
:106230000120E2E730B5002485B005000394FFF7A4
:1062400029FFA04202D1002005B030BD0194009486
:106250002300220030212800FFF784FE0028F2D01E
:10626000022010F00BFC042203A92800FFF7BDFE5A
:106270000028E8D0012010F001FC2800FFF71DFEE7
:106280000398E1E710B5040040680368DB699847AC
:106290002000FFF7FFFE2000FFF70FFE2000FFF7B2
:1062A000C9FFF0231B041840034BC018034B1840D0
:1062B0004342584110BDC0460000B0FFFFFFEFFF52
:1062C00030B585B004000D00FFF7E4FE002802D1D0
:1062D000002005B030BD2023009501930322002348
:1062E00016212000FFF73EFE0028F1D00F251D20CB
:1062F0006D4410F0C3FB012229002000FFF775FE5A
:106300000028E6D0012010F0B9FB2000FFF7D5FDF2
:10631000287843425841DCE7F0B5A5B004000F00EF
:106320001600FFF7B7FE002802D1002025B0F0BD0F
:1063300004AD40223900280016F0EDFA4022310069
:1063400014A816F0E8FA80230095019302227C3B02
:1063500045212000FFF706FE0028E6D00F25482043
:106360006D4410F08BFB012229002000FFF73DFE59
:106370000028DBD0012010F081FB2000FFF79DFDFD
:10638000287843425841D1E770B5040015001E003B
:10639000FFF796FF002806D0320029002000FFF703
:1063A000BBFF431E984170BD73B504000D0016007D
:1063B000FFF770FE002801D1002076BD0022ABB2AD
:1063C00001920092412180322000FFF7CBFD00288E
:1063D000F2D0462010F052FB402231002000FFF79F
:1063E00004FE0028E8D0012010F048FB2000FFF751
:1063F00064FD0120E1E7F0B585B006000D000392D1
:106400001F000A9CFFF746FE002803D1002420004D
:1064100005B0F0BD042C03D0202CF7D180231D4300
:1064200000216B46EAB29B89300001910091023154
:10643000FFF798FD0028E9D0052010F01FFB22008F
:1064400039003000FFF7D1FD0028DFD0012010F027
:1064500015FB3000FFF731FDD9E773B500220426A4
:106460000C000B00009611000500FFF7C4FF002888
:1064700001D1002076BD231D0096022200212800B4
:10648000FFF7B9FF0028F4D0230000960833032259
:1064900000212800FFF7AFFF431E9841EAE7000004
:1064A00070B50D0086B00021040012F02DFE694683
:1064B0002800FFF7D2FF00281ED01221200012F082
:1064C000F5FD00256B465E5D0F2E03D80C492000BC
:1064D00012F00EFF1022310003A812F034FE03A9BF
:1064E000200012F0F3FE013503A812F0BEFD092DC5
:1064F000E8D1200013F034F8200006B070BDC0468B
:1065000012210200F0B585B002900F0003921D0029
:106510000F291DD8032420261C4002D0002005B0DE
:10652000F0BDAC4217DA2B1B1F2B00DC0426220027
:1065300039000298FFF7DAFC039B02001B19009652
:1065400002210298FFF757FF0028E7D0A419E8E7D7
:1065500001204042E3E70120E1E71FB5042303AC3B
:106560000093152223000021FFF745FF002806D0E5
:106570000020A378834202D1E0784342584104B01E
:1065800010BDF0B585B005000C0016001F00FFF728
:1065900081FD002802D1002005B0F0BD0A9B042B2C
:1065A00003D0202BF7D160331C430A99B3B2019179
:1065B000E2B2009712212800FFF7D4FC0028EAD0AD
:1065C0000F241A206C4410F059FA012221002800EF
:1065D000FFF70BFD0028DFD0012010F04FFA280054
:1065E000FFF76BFC207843425841D5E7F0B585B002
:1065F00002900F0003921D000F291DD803242026AE
:106600001C4002D0002005B0F0BDAC4217DA2B1BB5
:106610001F2B00DC0426220039000298FFF766FCDD
:10662000039B02001B19009602210298FFF7A9FFA5
:106630000028E7D0A419E8E701204042E3E7012061
:10664000E1E7F0B58BB005000E001400FFF722FD66
:10665000002822D0002C22D000221B21019200927F
:1066600013002800FFF77EFC002815D0172010F03B
:1066700005FA202202A92800FFF7B7FC00280BD05A
:1066800027001F2C00DD202730003A0002A916F059
:1066900042F9E41BF619DDE700200BB0F0BD012044
:1066A00010F0ECF92800FFF708FC0120F5E7F0B541
:1066B00089B00D0017006946202204001E00FFF774
:1066C000C0FF002802D1002009B0F0BD3900200031
:1066D000FFF7F6FD0028F6D0320029002000FFF772
:1066E00063FE431E9841EFE7064B0748083310B599
:1066F0000360064B064A436060230649037213F0A9
:1067000017F810BD34220200CC4600201C4800209F
:1067100000000020A15E000030B59C68039B8868E3
:106720009968049B95689A68059B9B68002800D02F
:106730000B30002D01D00B354019002C01D00B344B
:106740000019002901D00B314018002A01D00B326A
:106750008018002B01D00B33C01830BD5B20704770
:106760000A0030B50020202520320C5C2B1A002CAA
:106770000ED101302028F8D101230D0040313F35E2
:106780001478881A002C0AD1AA4204D00132F7E703
:10679000E4091B19F1E701201533181830BDE4098D
:1067A0000019F9E70B78002B04D1012A04DD01312F
:1067B000013AF7E7DB09D218901C70470420FF2943
:1067C00003DC01387F2900DC013870473023F7B53E
:1067D000137093701D3BD3700D3B9C4613710723C0
:1067E0005371053BD372013B137353750633937595
:1067F0005920422301916146507013763D200023B9
:106800002A2786264825CE24517308219072D074F9
:1068100053763A3804339771D6711572D77316745C
:1068200055745472917394741075D07593761B32AD
:1068300010000199402216F06EF85B20FEBD302357
:10684000F7B50F0020241370263B5370043B937060
:106850000233D370223313715C3353713E3B937117
:106860008633D371913B1372393B5372013B937260
:10687000013BD37220370091009B1B78002B01D184
:10688000012C0AD1080040313F303E78CD1B002E4C
:1068900009D1874206D00137F7E7009B013C01335D
:1068A0000093E9E70125DB09E4180323F609AD1994
:1068B0001373E0B2EBB20193C318DBB2D91D0433FA
:1068C000137402235173302600215374009B91737B
:1068D000D67390741B787F2B25D8133216003000A6
:1068E0002200009916F017F8009B36191B787F2BB1
:1068F00000D90134022333706B461B79B01C7370CE
:106900003B787F2B03D90023F01CB370013D2A0094
:10691000390016F000F83B787F2B00D901352000B4
:1069200015304019FEBD1600D1741436013CD6E76F
:1069300070B50D0014002A78002A04D1012C04DD62
:106940000135013CF7E7D209A41802225C701A70E5
:106950002A78981C7F2A03D90022D81C9A70013CFF
:106960002200290015F0D7FF2B787F2B00D90134A6
:10697000A01C70BD312070B58C681870E0B20500A5
:1069800009355D7030259D70C51DDD7006251A72B4
:1069900013221D71033D5D7152359D71513DDD71B5
:1069A0005A7298720B3318000968220015F0B3FF71
:1069B00020000B3070BDF7B51E008B680500170076
:1069C0000B9C002B04D023000622FFF7D3FF2418D2
:1069D000BB68002B06D02300082239002800FFF7EF
:1069E000C9FF2418B368002B06D02300072231000A
:1069F0002800FFF7BFFF2418089B9B680193002B1A
:106A000006D023000A2208992800FFF7B3FF2418B4
:106A1000099B9B680193002B06D023000B22099948
:106A20002800FFF7A7FF24180A9B9B680193002BFF
:106A300005D0230003220A992800FFF79BFFF7BD2A
:106A400030231370FF290DDD5233081253709070FC
:106A5000D31C19700420FF2903DC01387F2900DCD6
:106A600001387047531C7F29F3DD8120931C50703F
:106A7000EFE70000F7B50193424B0E0000920B9D2B
:106A800099426ADD1823FA212B70093B6B7089004B
:106A9000300012F0F3FEFA213030A8708900300087
:106AA00012F0D2FF0800642112F0E8FE3030E870E6
:106AB0006421300012F0C8FF08000A2112F0DEFE47
:106AC000303028710A21300012F0BEFF3031AC1D89
:106AD00069710A21009812F0D1FE303020700A212D
:106AE000009812F0B1FF3031617001980A2112F064
:106AF000C5FE3030A0700A21019812F0A5FF303198
:106B0000E17008980A2112F0B9FE303020710A2194
:106B1000089812F099FF3031617109980A2112F03A
:106B2000ADFE3030A0710A21099812F08DFF30318E
:106B3000E1710A980A2112F0A1FE303020720A2178
:106B40000A9812F081FF5A23A3720E4B3031617202
:106B500011209E4200DC0238FEBD0B4B2C1DCF18CD
:106B600017232B700A3B6B700A21380012F086FE47
:106B70003030A8700A21380012F066FF3031E97019
:106B8000A7E7C0460108000030F8FFFF30230B7074
:106B9000263B4B70043B8B700233CB7022330B715E
:106BA0005C334B713E3B8B718633CB71913B0B72E7
:106BB000393B4B72013B8B72013B0C20CB7270470F
:106BC00010B504000D4B08330360443012F04DFA49
:106BD0002000383012F049FA20002C3012F045FA2B
:106BE0002000203012F041FA2000143012F03DFA5B
:106BF0002000083012F039FA200010BD44220200B3
:106C000010B50400FFF7DCFF200012F00DFD20009E
:106C100010BD000070B50400114B124D0833036025
:106C20002900083012F070FA20002900143012F008
:106C30006BFA20002900203012F066FA20002900AB
:106C40002C3012F061FA20002900383012F05CFA82
:106C500020002900443012F057FA200070BDC046D1
:106C6000442202002450020010B5054C2000FFF71A
:106C7000D1FF044A0449200012F05AFD10BDC0465D
:106C8000DC46002000000020C16B0000704710B5FA
:106C9000040012F0C9FC200010BD000010B5044B28
:106CA00004480833044A0549036012F041FD10BD51
:106CB000542202006C470020000000208D6C000070
:106CC00070B50500124BA435083303600400286832
:106CD000002803D015F0F4FD00232B60200048307D
:106CE00012F0C3F920003C3012F0BFF92000303020
:106CF00012F0BBF92000243012F0B7F92000183050
:106D000012F0B3F920000C3012F0AFF9200070BD82
:106D10006822020010B50400FFF7D2FF200012F035
:106D200083FC200010BD000070B50400164B174D09
:106D30000833036029000C3012F0E6F92000290026
:106D4000183012F0E1F920002900243012F0DCF9AB
:106D500020002900303012F0D7F9200029003C3003
:106D600012F0D2F920002900483012F0CDF92300AA
:106D7000074A9C331A6001225A6022000023A43281
:106D800020001360536070BD68220200245002008E
:106D90006422020010B503000C0000201100082C32
:106DA0000CD8083A072A09D85C60996054331A0055
:106DB00003484823FFF7A6FB431E984110BDC04679
:106DC000CC460020A43000687047A83000687047A7
:106DD00010B5483012F030FA10BD00000300FA225E
:106DE000F0B594331B78D200DB06DB0E9B18020053
:106DF0009832127887B0D206D20E9B181A4A040035
:106E00001E27934200DD023722002300174D9C33DA
:106E1000A032196812682800FFF7C4FC06002000A1
:106E20002300220021004830029030340C382433F3
:106E30001832019000940C312800FFF76DFC01001E
:106E400004002800FFF7BAFC05902800FFF786FC35
:106E50000300059A1136A4186400A619B81C30184E
:106E6000C018043007B0F0BD01080000D84600206B
:106E7000F0B51400020091B00F91FA21943212780B
:106E8000C900D206D20E52180B9202009532127827
:106E9000564D1207120F0C9202009632127806001D
:106EA000D206D20E0D920200973212781900D20645
:106EB000D20E0E92020018320A9280321778280001
:106EC0002200FFF7BDFDA0230222201803709D3B86
:106ED000437082700271012332003100C370441D7F
:106EE000A0329C312300126809682800FFF720FDBA
:106EF000241821002800FFF749FE33000C330593C6
:106F0000183306930C3307930C330893089B4836C9
:106F10000193079B241800930A9A069B05990296F1
:106F200028000996FFF7F8FB2200010004902800D2
:106F3000FFF786FD099B24180293089B0394019395
:106F4000079B0A9A00930599069B2800FFF733FDDB
:106F5000049BFF06E418302323700B9BFF0E244A8A
:106F6000DF190223974200DC00231E336370A61C46
:106F700000241E4D0E9B039600930C9A0D9B0B99BB
:106F8000029401942800FFF775FD0E9B36180396B6
:106F900000930C9A0D9B3900029401942800FFF78E
:106FA00069FD3618320004992800FFF749FD099B56
:106FB00036180293089B03960193079B0A9A009345
:106FC0000599069B2800FFF7F6FC049B0F99F6181D
:106FD00032002800FFF7FAFBA32330180370A13B0F
:106FE00043702E338370C47011B0F0BDD8460020BA
:106FF000010800001823F0B54A4EA7B000AF040006
:107000003961FA1841683000FFF772F8002854D04F
:107010002000FFF7E3FE050001004348FFF7CEFB29
:107020006A462B187B610733DB08DB00D31A9D46C9
:10703000BB602B0018256A4679192000FFF718FF5E
:107040003B69002B3CD0402278190021801815F0B4
:107050007EFC3000FFF772F800282DD000257B69F8
:10706000304EAB4213DD5A1BBB6859193F2A06DD6F
:107070003000FFF78DF800281ED04035EFE71820CC
:1070800040233818C3183000FFF7ADF8F3E72500A8
:1070900018214022791854358A182B006168300075
:1070A000FFF705FB002807D048232A00A16830001D
:1070B000FFF79CFA002803D10020BD4627B0F0BDA1
:1070C0002300194E543319003000FB60FFF748FBD2
:1070D0007B6925001B18190030003B61FFF76EFB30
:1070E0003B69A8351918A434296020687C6016F023
:1070F000F5FB7B68041E186001D12860DCE7020004
:1071000039693000FFF79CFC24187A69B9682000BF
:1071100015F001FC7B69F968E2183000FFF78FFB7E
:107120000120CAE7CC460020D846002010B5002137
:10713000FFF760FF431E984110BD000010B5054CDD
:107140002000FFF7F1FD044A0449200012F0F0FA94
:1071500010BDC0467047002000000020C16C000038
:1071600010B503689C6B0123A04710BD8C2300223F
:107170009B00C154103BC3185A609A60DA60012327
:107180008375704710B5036801211B6B984710BDCC
:10719000F8B505000E0017000024BC4208D02B688B
:1071A000315D1B6828009847002801D00134F4E7BE
:1071B0002000F8BDFC30406A704770478E239B006A
:1071C000C15070478D239B00C15070470300FC33B2
:1071D0005A6A002A03D01B6AC018007E704701203B
:1071E0004042FBE770B5060018250C49006910F015
:1071F000A7F9306910F008F82B000821307D084C01
:107200004343E31859560FF0B5FE0821707D4543FE
:10721000641961560FF0AEFE70BDC046A086010035
:10722000FC6C020070B504000D00006910F001F85C
:107230002900206910F084F920690FF0E5FF70BD86
:1072400010B500690FF0F5FF10BD0000F7B5019310
:10725000FA238026002504009B008360134B7600F0
:1072600008330F0045602900009203603200183097
:1072700015F06DFB23002000FC332530DD6132006A
:107280001D6229005D62FF3015F061FB88239B00C1
:10729000E3185D609D60DD606B461B782761237598
:1072A0006B461B79A57520006375FEBD7822020030
:1072B00070B506001825006910F01CF930690FF050
:1072C000A3FF2B000821307D064C4343E318595699
:1072D0000FF050FE0821707D4543641961560FF090
:1072E00049FE70BDFC6C020010B50022FFF7E0FF04
:1072F00010BD0300802210B5FC33DC6852009442BC
:1073000008D05A6881545A680132D2B25A60DA6899
:107310000132DA6010BDF7B50400171E019302D1E7
:1073200000252800FEBD03000022FC33DA611A624A
:107330005A62006901320FF0AFFF061EF0D0230041
:1073400020691833009310F03AF801000098FFF715
:10735000D0FF01252069BD4214D010F00EF800289E
:107360000FD020690FF078FF022120690FF07EFF17
:10737000206910F024F801000098FFF7BAFF0135EA
:10738000E8E7060020690FF05EFF019B002B06D0A6
:10739000002E06D0032120690FF068FFC1E7002E00
:1073A000BFD1013DBDE7002310B5827D9A420CD0CC
:1073B000882292008218D46880225200944204D01D
:1073C0002530FF30FFF795FF0123180010BD0300A3
:1073D000FC33DA68002A09D09A68805C9A68013226
:1073E000D2B29A60DA68013ADA607047012040420E
:1073F000FBE700228C2370B59B00827504000E0011
:10740000C15C00690FF048FF002806D10321206904
:107410000FF02CFF0225280070BD88239B00E31885
:10742000DD68002D11D020002530FF302569FFF7E1
:10743000CEFFC1B228000FF071FF0028EDD103216B
:1074400020690FF013FF0325E5E7002EE3D00321A9
:1074500020690FF00BFFDEE710B51830FFF7B7FF1C
:1074600010BD70B5040000690FF07EFF002815D034
:1074700020690FF090FF002811D020690FF0ECFE7A
:10748000032120690FF0F2FE8E239B00E558002DAA
:1074900035D10023FC34E3612362636270BD20694F
:1074A0000FF083FF002809D020690FF079FF002832
:1074B00004D020690FF07EFF0028DED020690FF095
:1074C00074FF002821D120690FF060FF0028E5D06B
:1074D00020690FF06FFF002833D088239B00E3184A
:1074E000DB68FF21002B05D020002530FF30FFF79F
:1074F0006EFFC1B220690FF029FFA075CEE72368A7
:1075000020001B699847A847C3E720690FF0A4FE35
:10751000206903210FF0AAFE20690FF04BFF00281D
:10752000BCD0882300229B00E3185A609A60DA607E
:107530000123A3758D239B00E3589342AED0984757
:10754000ACE72300FC335A6A802320695B009A422F
:1075500006D10FF078FE032120690FF087FE9DE72A
:107560000FF02DFF010020001830FFF7C2FE206948
:107570000FF072FEEFE7000010B50248FFF771FF51
:1075800010BDC0461C48002010B50C230B22024938
:107590000248FFF75BFE10BD205000201C48002071
:1075A000704710B5040012F03FF8200010BD43688A
:1075B00010B5181E00D0984710BD416070470000FC
:1075C000054B0648083310B503600023044A0549FB
:1075D000436012F0ADF810BDC8220200584A0020E6
:1075E00000000020A175000013B56B460268D97138
:1075F0000733546819000122A04716BD13B56B4626
:10760000DC1D036801225B6A21009847012801D133
:10761000207816BD01204042FBE710B500690368E1
:107620001B6B984710BD036870B5DB6A04000D0042
:1076300016009847002809D0236832005B6A2900A9
:1076400020009847431C03D1002001E00120404264
:1076500070BD036870B5DB6A04000D001600984722
:10766000002807D0236832005B6829002000984773
:10767000002801D10120404270BD0000F8B505008E
:107680000F0016000024B4420AD20B4B320039001E
:10769000E8180CF0ACFC00280BDB3F182418F2E7CC
:1076A000B44206D1044BE8180CF0C3FCC043C01729
:1076B00004402000F8BDC0460C3B000010B504009B
:1076C000044BC0180CF0B5FC20690368DB689847D0
:1076D00010BDC0460C3B0000044B10B5C0180CF0A8
:1076E0002FFCC343DB17184010BDC0460C3B000005
:1076F00010B5024BC0180CF0FFFB10BD0C3B000096
:1077000013B56B46DC1D064B0122C01821000CF09E
:107710003BFC012801D1207816BD01204042FBE747
:107720000C3B0000084B10B50833036003003033F6
:107730001B780400002B04D0806A002801D015F0CB
:10774000BFF8200010BDC046D83B020010B50400B1
:10775000FFF7E8FF200011F067FF200010BD10B513
:10776000040000690368DB6A9847002807D02000FE
:1077700038300BF025F80138431E9841C0B210BDD7
:1077800010B5040000690368DB6A984700280DD033
:10779000200038300BF014F8C30703D4044BE01872
:1077A0000CF052FC206903689B6A984710BDC046E4
:1077B0000C3B000030B5FA25836103000024AD00C6
:1077C0008560074D303308350560446001614261D2
:1077D000C461046244628462C4621C7030BDC046ED
:1077E000D83B020010B504000F23024AFFF7E2FF66
:1077F000200010BDE828020010B5016217242021E6
:10780000C3620023C461416282623030037010BDE4
:10781000F0B505000400444B8FB03835426905913E
:10782000C118836928000AF099FB404B404AE118CF
:10783000280001230AF0ECFD3E4E06AF3000FEF7B3
:1078400021FD002809D10026FF21002011F083FA34
:10785000B8550136202EF7D12DE03000FEF77DFE21
:107860000028F0D0202239003000FEF7EAFE002880
:10787000E9D0314B314A3249A350324A6118A258FB
:107880000B60314BE3181A60E36A002B13D0636A74
:10789000002B10D004F0A8F92C4B210003930223F5
:1078A00001932E330093230002901C3301222831D0
:1078B00028000AF0C7FA3900202228000AF000FE4A
:1078C0000022059928000AF0F9FA2148FFF76FFE17
:1078D000204B2149E618070011F046FF1F4B1E49B7
:1078E000C0187063380011F0C5FF1D4BB1631D4A0D
:1078F000E618236930000193009229001A4A0CF01F
:10790000F3FA30000CF095FB0826012428000AF059
:1079100057FF0300334004D12042F7D018000FB0C6
:10792000F0BD0120FBE7C046880D00007019000083
:107930009A210000CC46002025590100440D00008A
:10794000641900003C0D000068190000E9580100AE
:10795000584A0020840E000080510100A8FA0A0055
:107960000C3B0000537600002776000030B5040081
:10797000006949680368084D85B001910391DB698E
:10798000029502A99847002803D000212000FFF7A4
:107990003FFF05B030BDC0465471020070B5040011
:1079A00000690D0003681B6A9847002803D029006E
:1079B0002000FFF72DFF70BD4369C069181A70479A
:1079C000036810B51B6904009847002805D0E369D7
:1079D000A269591CE161D05C10BD01204042FBE767
:1079E000036810B51B6904009847002803D0A269FA
:1079F000E369D05C10BD01204042FBE7704713B53E
:107A00006B460268D9710733546819000122A047F8
:107A100016BD036870B59B6A0500140098470028DE
:107A200002D1012304006B60200070BD002370B5FB
:107A30004360FA2304009B008360084B0D00083369
:107A4000036021614261C261100014F02FFFA06148
:107A5000280014F02BFF2062200070BD1C3C0200A7
:107A6000094B10B5083304000360006A002803D0F6
:107A700014F026FF00232362A069002801D014F02F
:107A80001FFF200010BDC0461C3C020010B50400C2
:107A9000034B08330360FFF7E3FF200010BDC0462F
:107AA000543C020010B50400FFF7F0FF200011F075
:107AB000BBFD200010BD10B5283008F0B3FD01203B
:107AC00010BD10B5283008F06BFF012010BD10B5B7
:107AD000283008F097FF012010BD000010B5040009
