:1020000000800020716E0100596E0100596E0100C0
:1020100000000000000000000000000000000000C0
:10202000000000000000000000000000596E0100E8
:102030000000000000000000596E0100C56E0100A4
:10204000596E0100596E0100554C0000596E010097
:10205000596E0100596E0100596E01005D6E01005C
:10206000596E0100596E0100596E0100FD750000A6
:10207000596E0100B16D0100A16D0100596E0100A2
:10208000596E0100596E0100596E0100596E010030
:1020900000000000596E0100596E0100596E0100E8
:1020A000596E0100596E0100596E0100596E010010
:1020B0000000000010B5064C2378002B07D1054B1B
:1020C000002B02D0044800E000BF0123237010BDA4
:1020D000B002002000000000A07C0200044B10B5FC
:1020E000002B03D00349044800E000BF10BDC046E8
:1020F00000000000B4020020A07C020010B5040023
:10210000183017F088FA200010BD000010B50449FF
:10211000044817F009FA044803F032FA10BDC0462B
:102120006E190200885000202C04002070B5012593
:102130001A4C1B4B1B491C48E5541BF0BBFE1B49AA
:102140001B481BF0B7FE1B491B481BF0B3FE1B4B83
:102150001B491C48E5541BF0ADFEFA221A4B5201F4
:10216000E2523C220233E5520433E252174B184943
:10217000E55402231748E3722373E57125721BF0BF
:1021800099FE154915481BF095FE154915481BF099
:1021900091FE154915481BF08DFE70BDEC410020E5
:1021A0004B04000015160200B44500201F16020063
:1021B000274400202616020006440020490400009F
:1021C0003616020031440020120200004A040000CA
:1021D0002E1502001B4200205B1602003B4200202D
:1021E000F52302005B4200205D1602009B420020A6
:1021F0000A21435E0200181E01D01B01D01870474F
:1022000070B50D00041E0FD0C168A9420CD0002D7E
:1022100006D0002904D028001BF042FE002803D07D
:102220002000FFF7E5FFEDE7200070BD4A688B68EE
:102230001032934204D201230B740023180070471C
:10224000103B8B60002BF9D04268002A08D0991A05
:1022500009115181002243605A811A72DA60EDE758
:102260000360F7E7F7B5037804000D002B2B1DD0B2
:102270002D2B1CD10127013423781A00303A092A6A
:1022800002D92E2B00D0C9E000200A26644922780A
:102290001300303BDBB2092B0BD8884211D8DA434C
:1022A000704382420DD3C0180134F0E70134002797
:1022B000E2E7002A05D1002F18D080231B069842A0
:1022C00009D90026574B98421AD90A21013617F02E
:1022D000EFFC76B2F6E77F222B7A404293431A0056
:1022E0000A2313432B7228603800FEBD7F222B7A0D
:1022F000286093431A00082313432B720127F3E746
:1023000023781A00303A092A03D8013676B201340C
:10231000F6E72E2B0FD10A21434A01342378303BB4
:10232000DBB2092B07D8904203D84843013E181866
:1023300076B20134F2E7202322789A430023452A1B
:102340003AD162782D2A1FD1023401330193002340
:1023500021783039CAB2092A2AD80A225343CB1825
:10236000F118262922DD019A2B7A7F20002A11D02C
:102370000024002F01D0802424060C2183430B432A
:102380002B722C60019FAFE72B2A01D00134DDE7CF
:102390000234DBE7002F06D024490C228343134389
:1023A0002B722960AAE7FF21C905F6E70134CFE7C0
:1023B000019A002A00D05B422478002C2ED1F61816
:1023C00018F04AFD002E1ADD01231E4204D0184ADF
:1023D000A300D15818F02AFA01347610E4B2002E86
:1023E000F2D1002F02D080231B06C0187F222B7A47
:1023F000286093431A000C2313432B727EE7764226
:10240000002EEED001231E4204D00A4AA300D15868
:1024100018F00CFA01347610E4B2F1E7002763E714
:1024200099999919FFFF7F00CBCC0C00000080FF29
:1024300014130200FC12020070B5094C200002F0D7
:10244000ADF8084D2100280002F05EFB0028F4D012
:10245000200002F02FFB2800002102F0F5FA70BDE9
:1024600088500020EC41002070B592B0FFF74EFE7E
:10247000954C03A8210017F01DF9210006A817F0BC
:1024800019F9210009A817F015F921000CA817F077
:1024900011F98E4906A817F0A5F98D4C0FA8210057
:1024A00003F0C8FB0FA909A817F094F90FA817F0BB
:1024B000B2F821000FA803F0D9FB0FA90CA817F060
:1024C00089F90FA817F0A7F8824C834920001BF068
:1024D000F1FC824920001BF0C7FC814920001BF061
:1024E000C3FC804D200029001BF0BEFC7E4920006B
:1024F0001BF0BAFC7D4E200031001BF0B5FC0699A4
:1025000020001BF0B1FC310020001BF0ADFC2900C5
:1025100020001BF0A9FC764920001BF0A5FC31002F
:1025200020001BF0A1FC099920001BF09DFC31004C
:1025300020001BF099FC290020001BF095FC6D4940
:1025400020001BF091FC310020001BF08DFC0C9949
:1025500020001BF089FC310020001BF085FC2900C5
:1025600020001BF081FC644920001BF07DFCFFF77C
:10257000CDFD0A2201000FA817F0DEF80F99200008
:102580001BF072FC0FA817F046F8290020001BF082
:102590006BFC5A4920001BF067FC8523584E9B00BA
:1025A000F15A0A220FA817F0B5F80F9920001BF076
:1025B0005BFC0FA817F02FF8290020001BF054FC3B
:1025C000504920001BF050FC4F4B0A22F15A0FA833
:1025D00017F0A0F80F9920001BF046FC0FA817F089
:1025E0001AF8290020001BF03FFC484920001BF08E
:1025F0003BFC474B0A2219780FA817F07AF80F997D
:1026000020001BF031FC0FA817F005F8290020006E
:102610001BF02AFC3F4920001BF026FC86239B0070
:10262000F15A0A220FA817F075F80F9920001BF035
:102630001BFC0FA816F0EFFF374920001BF014FC1D
:10264000364D0A223649280016F0BFFF0A223549C6
:10265000280016F0BAFF2100280016F065FF02F0EE
:10266000D3FA3149280016F05FFF30490FA817F060
:1026700021F806A90FA817F01FF92D4917F029F91D
:1026800000222C4E009213000100300013F0F9FBE1
:102690000FA816F0C0FF2100300016F029FF30000F
:1026A00013F0E5FF2449280016F03EFF0CA816F0B1
:1026B000B2FF09A816F0AFFF06A816F0ACFF03A8FA
:1026C00016F0A9FF12B070BD24540200B4450020DA
:1026D0005C030020A8040020031702000517020075
:1026E0000D170200181702001A1702006D250200CC
:1026F00028170200341702003D1702004A17020093
:10270000EC41002054170200120200006017020082
:102710000C030020721702007D1702008850002071
:102720003D3D3D3D6E6F734A7F17020098170200D2
:10273000A117020060030020B3170200F0B57F4B21
:1027400089B000229B5E7E4D032B04DD7D4928006D
:1027500016F0EAFEFEE77C49280016F0E5FE02F0DE
:102760003FFAFA20400014F0F1FB0A2002F0E2F9EF
:10277000764F380013F026FC7549280016F0D4FE79
:10278000FFF7C4FC734902A816F094FF724C02A82C
:10279000210017F027F87149280016F0C5FE70498E
:1027A000280016F0A5FE2100280016F0BDFE6D4C95
:1027B0006D4920001BF07EFB6C4920001BF054FB90
:1027C0006B4920001BF050FB6A4E200031001BF0CB
:1027D0004BFB694920001BF047FB684920001BF0B8
:1027E00043FB029920001BF03FFB644920001BF0D3
:1027F0003BFB310020001BF037FB614920001BF040
:1028000033FBFFF783FC0A22010005A816F094FFB2
:10281000059920001BF028FB05A816F0FCFE3100EE
:1028200020001BF021FB574920001BF01DFB564BDD
:102830000A220021595E05A816F06CFF05992000B8
:102840001BF012FB05A816F0E6FE310020001BF07D
:102850000BFB4E4920001BF007FB4D4B0A220021C9
:10286000595E05A816F056FF059920001BF0FCFAEA
:1028700005A816F0D0FE310020001BF0F5FA4549FE
:1028800020001BF0F1FA444B0A220021595E05A8F2
:1028900016F040FF059920001BF0E6FA05A816F097
:1028A000BAFE310020001BF0DFFA3C4920001BF08B
:1028B000DBFA3B4B0A220021595E05A816F02AFFDD
:1028C000059920001BF0D0FA05A816F0A4FE3549A2
:1028D00020001BF0C9FA3449280016F025FE21001B
:1028E000280016F021FE02F08FF93049280016F07A
:1028F0001BFE2F4905A816F0DDFE2E4905A816F08F
:10290000DBFF2D4916F0E5FF0022010000921300C5
:10291000380013F0B6FA05A816F07DFE2100380045
:1029200016F0E6FD380013F0A2FE2449280016F048
:10293000FBFD02A816F06FFE09B0F0BDCC410020EF
:1029400088500020611602006D160200600300200E
:102950007D16020024540200B44500208F160200A8
:10296000B0160200A8040020031702000517020099
:10297000C0160200181702001A1702006D25020087
:102980003D170200C7160200CC020020CE1602003E
:10299000E8020020D31602000A030020D816020025
:1029A000080300207D170200DF160200F316020064
:1029B00098170200D0020020A1170200B3170200EE
:1029C00070B505000024AC420FDA0121062014F096
:1029D0000DFDC82002F028F90021062014F006FDA4
:1029E000C82002F021F90134EDE770BDF8B53E4C86
:1029F0003E49200016F098FD3D4D0221280013F0BD
:102A00001DFF3C4F3C493880200016F08DFDFA2018
:102A1000800002F009F90121280013F00FFF374E62
:102A200037493080200016F07FFDFA20800002F048
:102A3000FBF80021280013F001FF324D32492880B5
:102A4000200016F071FDFA20800002F0EDF802215E
:102A50002E4813F0F3FE2E4B2E491880200016F05E
:102A600063FDFA20800002F0DFF8FFF74FFB2A4BEE
:102A70002A491860200016F057FD2949200016F059
:102A800037FD0023F95E0A22200016F09EFD25493D
:102A9000200016F02DFD0023F15E0A22200016F022
:102AA00094FD2149200016F023FD0023E95E0A224F
:102AB000200016F08AFD1D49200016F019FD144B68
:102AC0000A220021595E200016F07FFD18492000DF
:102AD00016F02AFD174A184BD35C002B02D00120B8
:102AE000FFF76EFFF8BDC046885000200B150200AE
:102AF00010030020CC02002026150200E80200206E
:102B0000321502000A0300204015020020030020B5
:102B10000803002051150200040300206115020083
:102B2000AF150200B5150200BB150200C115020069
:102B3000C7150200EC4100204A04000073B51A4C8E
:102B40001A49200016F0F0FCFA261949200016F068
:102B5000EBFC012502F044F8B60000950123154A6C
:102B60001549164802F0FCFC032807D01449200040
:102B700016F0BEFC300014F0E9F9EEE72900114828
:102B800002F0F4F80428F1D10F49200016F0CCFC33
:102B90000A2001F0CFFF0D49200016F0C5FC2000EF
:102BA00016F0B0FC73BDC0468850002082190200A8
:102BB000B019020006440020274400202C04002005
:102BC0005F1502003C030020BC190200C619020078
:102BD000F0B55D4D5D4987B0280016F0A5FC5C4C52
:102BE0000121200002F09EFA200002F063FA002882
:102BF000FAD05849280016F07BFC5749200002F013
:102C00002BF9FA210022C900200002F031FA534EBC
:102C10002800310016F088FC5149280016F084FC89
:102C20005049200002F018F94F4A6421200002F0B8
:102C30001FFA3100280016F077FC4C49280016F0E6
:102C400057FCFA274A49200002F006F9BF00642029
:102C500014F07CF94749280016F04AFC200002F0E5
:102C600029FA00223900200002F002FA0128EED1F0
:102C70003100280016F058FC3F49280016F054FC9B
:102C8000FA273E49200002F0E7F8BF00642014F064
:102C90005DF93849280016F02BFC200002F00AFAF2
:102CA00000223900200002F0E3F90128EED13100C2
:102CB000280016F039FC3249280016F035FC63274D
:102CC0003049200002F0AEF8FA21274AC90020005E
:102CD00002F0CEF92C4903A816F0ECFC03A9224817
:102CE00016F068FE019003A816F095FC019B0133D5
:102CF0000CD0019B06221C4903A816F0ABFE03A8CA
:102D000016F01CFF070003A816F085FCFA208000CF
:102D100014F01CF91F2FD3DC3100280016F004FC3E
:102D20001A49280016F000FC2000194902F094F816
:102D3000FA210D4AC900200002F09AF9310028005A
:102D400016F0F2FB07B0F0BD885000202C130200F3
:102D50003C4600204E1302006B1302007513020064
:102D60007B130200A01302009C040020AA1302009F
:102D7000D61302005F150200E113020018140200CE
:102D8000221402005F1402001817020066140200E9
:102D90007D14020007B500201BF092FE6B4607333E
:102DA000181A0EBDF0B524C8954211D908001300B9
:102DB00007781C785E1CBC4204D1002C09D001307D
:102DC0003300F5E7187801331A000028FAD1EBE751
:102DD00000221000F0BD0023F0B585B007000C0004
:102DE000029103920093994208D00168994208D158
:102DF0007F22237A9343237201230093009805B026
:102E0000F0BD039E3000FFF7CDFF051E1BD1BB6850
:102E100075680193B2680133EB18934207D9012317
:102E200033747F22237A934323720023E5E7736090
:102E3000002DF6D0019A3968280019F0C6FF6A46BD
:102E4000019B1278EA547F22237A256093431A006B
:102E5000052313432372CFE770B5037A0D001600E4
:102E60007F211A0004000A4005D18B435F390B43D0
:102E70000372026042602022237A1340181E12D08F
:102E8000281E10D029002068FFF7BAF900280AD1BF
:102E900031002000FFF7CAF9002804D07F22037A0E
:102EA000C5601340037270BD10B50200037A202084
:102EB0000340181E02D01068FFF7A2F910BD437C32
:102EC000002B06D1C3685A1CC2601B78037401230F
:102ED0004374007C704710B504002000FFF7EFFF3B
:102EE0000A2806D8092808D2002809D00120207213
:102EF0000CE00D2801D02028F8D100236374ECE702
:102F0000237A58345A1E93410133237010BD1FB5E4
:102F10007F220300007A1040043808282ED816F0CB
:102F2000B3FE0F0F052D082D0D2D1A00187804B0D3
:102F300010BD1868C343DB171840F8E71868F6E7B8
:102F40001868002301AC23722100FFF78BF92000E1
:102F5000FFF7DDFFEBE7CF211C680906201C17F007
:102F600097F80028E3D09E21201CC90517F07CF8B3
:102F70000028DCD0201C17F04FFFD8E70020D6E750
:102F800070B530C814340E0020002900FFF78CFF04
:102F9000002806D07F22037A1340082B03D00A2B87
:102FA00004D030680AE00368002BFADB2900200017
:102FB000FFF77AFF002801D0FFF7A9FF70BD70B5B9
:102FC00004000D00FFF77BFF0023A84201D16374CA
:102FD0000133180070BD2F2815D90123392803D9D2
:102FE0005E2803D97A2803D81800704740280AD9E8
:102FF00001235A28F8D9002301222D38C0B2824279
:103000005B41DBB2F0E701232B28F4D1ECE737B5C5
:1030100000236A461370C3B27F280BD853706B46E7
:103020000233013B1878002831D00A68541C0C6028
:103030001070F6E73F2480226D462340524213432E
:1030400080096B7085B2C3B21F2D06D8403213437E
:103050006A4693706B460333E3E76D4623400004F2
:103060001343800DAB70C3B20F2805DC20225242FF
:103070001343EB7001ABD4E71C40102380115B427B
:1030800018436B462243EA7028710533C9E737BD00
:10309000F7B505000027FFF712FF6F7401902800B5
:1030A000FFF70DFF0024019A03006C74824259D08F
:1030B000A04204D10223583500202B70FEBD5C28AD
:1030C0004BD12800FFF7FBFE0028F3D0284B7528D2
:1030D00039D104266C742800FFF7F1FE0028E9D0EE
:1030E000402806D83038C0B20F2806D958350323F7
:1030F000E2E7202398433738F5E700232401013E17
:103100000443F6B2A4B26B749E42E4D1A0239B01A7
:10311000E318184A9BB2934202D8A405A70DBEE754
:1031200090239B01E3189BB22000934206D8802392
:103130008005BC02800D20435B02C0182900FFF708
:1031400066FFACE702331A78002ACFD09042F9D15B
:103150005B78002BCAD000226A742A68511C29604F
:1031600013709CE72B6801205A1C2A601C70A5E78D
:10317000F4190200FF030000036870B54360040007
:10318000FFF79DFE27280DD022280BD02000FFF747
:1031900096FE0500FFF71FFF061E09D103235834D2
:1031A000237003E02000FFF773FF0600300070BDBE
:1031B00000236374236820005A1C22601D70FFF7EF
:1031C0007EFE0500FFF707FF0028F1D123685A1C97
:1031D00022601870EAE7F7B504000D001F1CFFF726
:1031E0007AFE0190002801D1002658E02000FFF768
:1031F00066FE272800D17BE01DD8222800D177E089
:103200002000FFF75CFE002600900098F7B2FFF761
:10321000E2FE002800D17EE00136402E00D179E0A8
:103220006A46002312786374A319DA752000FFF749
:1032300046FE0090E9E75B2813D07B28E0D17F228F
:103240002B7A290093431A00202313432B72002367
:1032500000222B606B6020003B1C00F087F806000A
:103260001DE07F222B7AFFB293431A0040231343C1
:103270002B7200232B606B609F4203D158340533BF
:103280002370B1E763742000FFF725FE0028ABD060
:103290005D212000FFF793FE061E02D0019E300044
:1032A000FEBD61692800FEF7C1FF011E03D10423A2
:1032B00058342370F3E77B1E00222000FFF78BFFBA
:1032C000002800D190E72000FFF705FE002800D17C
:1032D0008AE75D212000FFF772FE0028DED12C2155
:1032E0002000FFF76CFE0028DBD158340323C7E72A
:1032F000236820006360FFF7CBFE061E00D173E752
:103300007F2263682B602B7A93431A0004231343B4
:103310002B72C4E73F270021E3191976237E742B13
:103320000DD17F222B7A93431A00062313432B726D
:1033300001232B70042FB1D058340223A0E7662B51
:103340000AD17F222B7A297093431A000623134354
:103350002B72052FF0D1A1E76E2BEBD020002900B6
:103360001830FEF77FFF0028BFD097E7F7B5DFB230
:1033700004000E00002F04D10523583423700025CB
:103380000DE000234374FFF7A6FD01900028F6D05E
:103390007D212000FFF713FE051E28D0019D280087
:1033A000FEBD6368306819000093FEF729FF00280E
:1033B00031D001007B1E00222000FFF70CFF002807
:1033C000DDD02000FFF787FD0028D8D07D21200028
:1033D000FFF7F5FD0028E1D12C212000FFF7EFFDDC
:1033E000002814D02000FFF776FD0028C7D0200069
:1033F000FFF7C2FE0028C2D02000FFF76CFD0028B6
:10340000BDD03A212000FFF7DAFD0028C9D10323FF
:1034100058342370C3E761693000FEF707FF0028C6
:1034200002D158340423F4E77F22037A1340037255
:10343000009BC360BDE710B50400006803685B68CB
:10344000984763681818606010BD70B505000800E3
:103450000C001AF037FD210002002800FFF7EBFFF7
:1034600070BDF0B5162407000D000A2687B06C4425
:103470002800310016F0A2FC013C303121702800F8
:10348000310016F015FC051EF2D116236B441A1BF1
:1034900021003800FFF7CFFF07B0F0BD10B50400E2
:1034A000006803685B68984763681818606010BD1F
:1034B00070B5050008000C001AF004FD21000200A0
:1034C0002800FFF7EBFF70BDF0B5162407000D00D4
:1034D0000A2687B06C442800310016F06FFC013CCE
:1034E000303121702800310016F0E2FB051EF2D1C8
:1034F00016236B441A1B21003800FFF7CFFF07B0DB
:10350000F0BD00000623F7B50E1C07008372584972
:10351000301C16F0BDFD002844D0002314242025C3
:103520000093544B311C185916F09EFD002809D009
:10353000514B301C195917F079F9009B061CE818FB
:1035400003B20093043C6D10231DEAD10334002123
:10355000301C16F093FD002828D0301C19F05AFAC0
:10356000464A474B16F046FD00281FD0A3000193A2
:1035700023061BD4434B019A311C985816F07EFD4C
:1035800000280AD03B4B019A301C995817F04EF98D
:10359000009B061C581B03B20093019B6D10013C5D
:1035A000043BE4E7202505240090D0E76B461B8808
:1035B000301C3B8116F0E4FD0400334D386001906F
:1035C000019B092B0DD90A21280016F071FBBB7A4B
:1035D0000500013B0198BB720A2116F069FB0190BE
:1035E000EEE7200017F038FC011C301C17F050FAF1
:1035F000061C280017F030FC011C301C17F016F9CF
:10360000019016F0BDFD060017F026FC011C019884
:1036100017F03EFA011C16F0A9FE16F0B1FD86194E
:10362000AE4214D27E600A257E682900300016F072
:10363000C5FB00291AD10A243C57002C16DD2900AD
:10364000300016F035FB013C7860BC72ECE70023DB
:103650007B60009B01343C60002BE4D0092CE2D954
:1036600018000123013038813B60DCE73800FEBDE3
:103670008096184B14130200FC120200F168E388D4
:10368000B5F8E43EE412020040420F0010B5040019
:10369000006803681B68984763681818606010BD6D
:1036A00070B50D00040022212000FFF7EFFF2978FC
:1036B000002909D00A4B01351E78002EF4D05A7823
:1036C0008A4206D00233F7E722212000FFF7DEFF0F
:1036D00070BD5C212000FFF7D9FF3100E4E7C04650
:1036E000F6190200F0B504008DB0081C0E1C16F08F
:1036F000ABFC002805D141492000FFF7A6FE0DB024
:10370000F0BD0021301C16F09FFC002809D1311CAF
:10371000301C16F02BFE011C301C16F095FC002806
:10372000E9D10021301C16F095FC002806D02D218F
:103730002000FFF7ABFF80231B06F61803AD311CFA
:103740002800FFF7DFFE03992000FFF78AFE0A2317
:10375000EB560093002B23D06F6801930AAE019BB8
:10376000013E013B5BB2019301330BD038000A21CB
:1037700016F024FB3031317038000A2116F098FA27
:103780000700ECE76B461B782026D9432E228B19C5
:1037900002A8C2540AAB4A4220005918FFF74BFE58
:1037A0000822AB5E002BAAD065212000FFF76EFF38
:1037B0000823EE5EB5B2002E05DA2D212000FFF7BA
:1037C00065FF7542ADB226260A2702ABF61828001F
:1037D000390016F0F3FA013E30313170280039001B
:1037E00016F066FA85B2002DF1D1262302AA9B18A5
:1037F0009A1B31002000FFF71EFE80E7EF19020040
:103800007F2270B5037A05000C001340062B00D10F
:1038100069E008D8022B0DD3032B50D806CD200029
:10382000FFF709FE25E00C2B1FD005D8082B58D038
:103830000A2B49D030495BE0202B21D0402BF9D115
:103840005B212000FFF722FF2D68002D13D02100FF
:103850002800FFF7D5FF2800FEF7CAFC051E0AD096
:103860002C212000FFF712FFEFE701682000FFF78F
:1038700039FF606870BD5D212000FFF707FFF8E7A2
:103880007B212000FFF702FF2D68002D15D0E9688D
:103890002000FFF705FF3A212000FFF7F7FE210087
:1038A0002800FFF7ADFF2800FEF7A2FC051E04D09C
:1038B0002C212000FFF7EAFEE7E77D21DCE7016825
:1038C0002000FFF7EDFED4E70568002D04DA2D2176
:1038D0002000FFF7DBFE6D4229002000FFF7C1FD4D
:1038E000C7E70168F9E703780449002B00D10449D0
:1038F0002000FFF7AAFDBCE7EF190200051A02003D
:103900000A1A020010B50C00002802D0FFF778FF59
:1039100010BD20000249FFF798FD6068F8E7C04637
:10392000EF19020010B50400006803681B6898478F
:1039300063681818606010BDF0B504008DB0081CF5
:103940000E1C16F081FB002805D141492000FFF72D
:10395000AFFD0DB0F0BD0021301C16F075FB002846
:1039600009D1311C301C16F001FD011C301C16F071
:103970006BFB0028E9D10021301C16F06BFB0028FE
:1039800006D02D212000FFF7CDFF80231B06F6185F
:1039900003AD311C2800FFF7B5FD03992000FFF7A8
:1039A00093FD0A23EB560093002B23D06F680193FD
:1039B0000AAE019B013E013B5BB2019301330BD088
:1039C00038000A2116F0FAF93031317038000A2136
:1039D00016F06EF90700ECE76B461B782026D943FA
:1039E0002E228B1902A8C2540AAB4A422000591851
:1039F000FFF754FD0822AB5E002BAAD06521200002
:103A0000FFF790FF0823EE5EB5B2002E05DA2D21F8
:103A10002000FFF787FF7542ADB226260A2702ABCA
:103A2000F6182800390016F0C9F9013E303131701E
:103A30002800390016F03CF985B2002DF1D126237B
:103A400002AA9B189A1B31002000FFF727FD80E790
:103A5000EF19020070B50D00040022212000FFF7CD
:103A600061FF2978002909D00A4B01351E78002E04
:103A7000F4D05A788A4206D00233F7E72221200098
:103A8000FFF750FF70BD5C212000FFF74BFF3100B6
:103A9000E4E7C046F61902007F2270B5037A0500FC
:103AA0000C001340062B00D169E008D8022B0DD37F
:103AB000032B50D806CD2000FFF7F0FC25E00C2B9F
:103AC0001FD005D8082B58D00A2B49D030495BE0CD
:103AD000202B21D0402BF9D15B212000FFF722FFC2
:103AE0002D68002D13D021002800FFF7D5FF2800F6
:103AF000FEF77EFB051E0AD02C212000FFF712FFE7
:103B0000EFE701682000FFF717FF606870BD5D21D7
:103B10002000FFF707FFF8E77B212000FFF702FFF7
:103B20002D68002D15D0E9682000FFF793FF3A219A
:103B30002000FFF7F7FE21002800FFF7ADFF280067
:103B4000FEF756FB051E04D02C212000FFF7EAFEED
:103B5000E7E77D21DCE701682000FFF77BFFD4E782
:103B60000568002D04DA2D212000FFF7DBFE6D42F1
:103B700029002000FFF7A8FCC7E70168F9E70378F0
:103B80000449002B00D104492000FFF791FCBCE759
:103B9000EF190200051A02000A1A0200F0B5584F88
:103BA000D5B05849380015F0BFFCFA20400101F0AB
:103BB0003BF8FEF7ABFA544905A815F07BFD534BD3
:103BC0000BA819681AF076F92CAC34AB2C9363600F
:103BD00054ABA360E36000237F252374237F22007E
:103BE000AB4323774A4931A8FFF736F9002806D0BE
:103BF0000423027AAA4313430372464B0360FEF781
:103C000085FA22000500444931A8FFF725F900286C
:103C100007D07F22037A056093431A0008231343D9
:103C2000037222003D4931A8FFF716F92200010076
:103C300008903B480994FFF7CEF82200394931A893
:103C4000FFF70AF9061E16D00BA92000FFF7AAF805
:103C5000051E4BD10BA81AF035F903006568013336
:103C6000A268EB180390934235D9012323747F2275
:103C7000337A93433372002408A931A80897099432
:103C8000FFF740FE380015F03DFC274905A815F068
:103C9000A9FD234905A815F0D1FD244905A815F073
:103CA000DFFD234D2300220005A90094280012F017
:103CB000E8F808A931A808950994FFF7EDFE280057
:103CC00012F0D5FC1049114815F08CFD05A815F02F
:103CD000A2FC55B0F0BD6360002DC8D0039A0BA9BB
:103CE000280019F072F80023039AAB547F22337A2C
:103CF000356093431A00052313433372BBE7C04674
:103D0000885000203419020024540200DC020020F4
:103D1000501902004A190200551902005F190200E9
:103D2000D00200206619020098170200A1170200B5
:103D300060030020F8B5414E414F3100380015F0C6
:103D4000B9FC404C404D22002900380015F094FF8A
:103D50003E4F3100380015F0ADFC2200290038003C
:103D600015F08AFF3A4F3100380015F0A3FC22000D
:103D70002900380015F080FF364F3100380015F06B
:103D800099FC22002900380015F076FF324F3100EF
:103D9000380015F08FFC29002200380015F06CFF68
:103DA0002E4F380000F076FF22002D49380015F024
:103DB00063FF2C4F0021380001F05AFA22002A49F3
:103DC000380015F059FF294F0121380001F0D2FECB
:103DD00022002749380015F04FFF3900254803F02D
:103DE00043FD22002449234815F046FF234F214973
:103DF000380011F0AFFE22002149380015F03CFFD9
:103E0000204801F00BFF204F3100380015F052FC24
:103E100022002900380015F02FFF1C4F3100380018
:103E200015F048FC29002200380015F025FF18483D
:103E300012F083FC174812F080FCF8BD24540200F5
:103E40009C0400200000002017960100EC020020D6
:103E5000D0020020F8020020DC0200203C030020F9
:103E6000694C00002C040020FD20000054040020B8
:103E700081560000A0060020A97700006003002002
:103E8000455A01005C030020C0410020300300209F
:103E90001003002020030020E121F0B5694C85B01B
:103EA0004902200013F08AFE674B05201A78674B01
:103EB0001A70FEF785FD664D48212A00654812F00C
:103EC00043FC2A004921644812F03EFCFEF780FEC4
:103ED0006249200015F028FB00F082FEE1216048D5
:103EE000490214F0D5FF5F4E300000F08FFD5E49AF
:103EF000300000F00BFE300000F088FDFEF79CFA69
:103F00005A4F380002F000FA002804D15849200026
:103F100015F00AFBFEE7574D08220021280002F0A9
:103F20007BFF390001A802F0FDFA0199280002F098
:103F300091FF01A815F06FFB280003F039F94E49F5
:103F40004E4803F07CFB280002F07EFF07002800AB
:103F500002F07DFF3A0003000021494803F08EFC87
:103F6000484BF35C484E012B0BD14849200015F01B
:103F7000DBFA4749474815F035FC4749300015F052
:103F800031FC464D3100280015F058FC444928000A
:103F900015F066FC3F4F2800390015F04FFC4149F1
:103FA000280015F05DFC4049200015F0A1FA290019
:103FB000200015F0AFFA3D4E3900300011F0D2FD6F
:103FC0003B4901A815F076FB01AA2900300011F049
:103FD000CEFD01A815F01FFB3000364911F0C0FDE1
:103FE0000121062013F0B6F9E1211D48490214F021
:103FF0004FFFE1212000490213F0E0FD00F0F0FD49
:104000002D49200015F090FA0A2000F093FD2B496D
:10401000200015F089FA00F0F7FD80210D48C90055
:1040200012F0A4FB80210024C9000B4812F09EFB73
:10403000234B24481C8001F0F3FD234B1C8005B06A
:10404000F0BDC04688500020380400400C0300201A
:10405000344800201003002020030020061B02002B
:10406000C84B0020EC4100202D210000E446002038
:10407000161B0200884700200D210000704A002016
:10408000A00600204B040000F8020020291B0200BB
:10409000B4450020D002002031440020C04100205F
:1040A0009F1702004C1B0200641B020060030020EB
:1040B00024540200D9420000701B02007E1B020043
:1040C000940400205C030020CC41002030B5A5B052
:1040D0002A49684615F0EEFA2949684615F082FB30
:1040E0002849684615F0AAFB2749684615F0B8FB31
:1040F000264B03A8196819F0DDFE254C2549200040
:1041000015F0F6F903A9200015F0F2F92249200074
:1041100015F00AFA214D224A03A9280012F078FA74
:1041200000280FD11F49200015F0E2F9280011F0F6
:104130002AFD0A220100200015F047FA1A4800F073
:1041400073FDE7E7200015F0DDF91849200015F0B0
:10415000EBF9200015F0D6F91549200015F0C8F943
:104160006946200015F0D6F900226946280012F0B1
:104170002FF9684615F04FFA25B030BD24540200DF
:1041800098170200D002002091140200F8020020CB
:1041900088500020A9140200EC22020060030020D5
:1041A000B32200005F15020088130000C51402004E
:1041B000E914020070B5354C3549200015F0B4F90A
:1041C00000F022FD3349200015F092F9324D0A2209
:1041D0000023E95E200015F0F8F90023EA5E86234B
:1041E0002E4E9B00F35A9A4206DD2D49200015F011
:1041F0009BF92C4B1B6898472B4801F01DFA0328AC
:104200003ED02A49200015F08FF9FEF797FC284888
:1042100011F01BFD002805D12649200015F084F976
:10422000FFF754FF0220FEF7CBFB2349200015F0D7
:104230007BF92249200015F077F9FEF7D7FB2049DA
:10424000200015F071F9FEF779FA1E49200015F0EB
:104250006BF91D4BF05A00F0E7FC2B881B4901332A
:1042600020002B8015F044F9FEF794FD184A010058
:1042700013882000013313800A2215F0A2F970BDC3
:10428000144800F099FD0428BBD1C0E788500020F5
:10429000101A02001D1A020094040020EC410020B4
:1042A000271A0200980400202C040020551A02004E
:1042B00060030020711A02008A1A0200BA1A020072
:1042C000C81A0200E01A020012020000F91A0200E5
:1042D000CC4100203C030020F0B5904C9049A5440F
:1042E000040000AF8F4815F003F923006A46083335
:1042F000DB08DB00D31A9D466E466D46AB1B9C4225
:1043000005DD894811F08BFB28700135F6E7E343A2
:104310000025DB171C4035553100824815F0E8F8C0
:10432000804815F0EFF8082160237A18D41820335C
:10433000D218BA667A18D3186360A0239B00D218EB
:10434000A2607A18D3187F22E360237F0C20934366
:1043500023772B00FE60BE610E007A185C33D31801
:104360003D613D757D7725743C6279181D7074350B
:104370000A23491900223818FEF72DFFBB196B4993
:104380005819FEF791FD002800D1C4E07F22037A7E
:104390001340043B012B00D9BDE00568002D00D17E
:1043A000B9E063495F4815F0A3F829005D4815F0AE
:1043B000BBF86049280019F073FD061E00D098E094
:1043C0005D49584815F0B0F8564B08250C22FB60A3
:1043D00074237819B918C0183E61FFF793FA514851
:1043E00015F090F80C22554B013E7919B818FC6075
:1043F0003B61BE60FEF7C4FD0C22514B7919B81821
:10440000FC603B61BE60FEF7BBFD0C224D4B791991
:104410003860B818FC603B61BE60FEF7B1FD4A4BE6
:1044200005003B610823F9180433F818FC60BE60EE
:10443000FEF7A6FD2A00454B643A7860444C9A4248
:104440000ED84449374815F053F80A222900354858
:1044500015F0B7F84049334815F066F83F4BE55280
:104460003B68013B0E2B11D82E4E3D49300015F014
:104470003FF80A222900300015F0A3F8394930002E
:1044800015F052F885233A889B00E2527B68364A41
:10449000013B002593420ED8224D3449280015F0E7
:1044A00027F80A222800796815F08FF8862301255D
:1044B000BA889B00E2520121200000F0C5FAFDF706
:1044C000D3FF002D06D02A49164815F02DF8294BA8
:1044D0001B68984701211E4800F0B6FA264B9B68DE
:1044E000002B01D0FFF75AFBBD46A3239B009D4440
:1044F000F0BD2249280019F0D3FC002806D120493C
:10450000084815F011F8FDF7AFFFE3E71D491A4819
:1045100015F068F9DEE71C49F9E7C04674FDFFFFB6
:10452000C41702008850002060030020E417020036
:10453000E9170200CB1B0200F9170200161802004F
:104540001A180200211802002A1802005CD4010087
:10455000EC41002032180200541802001202000040
:10456000581802006C1802000E0E00007B180200A2
:104570009018020098040020DC020020A518020018
:10458000AA180200D61802001819020010B501215D
:10459000014800F059FA10BDEC410020F0B5B9B067
:1045A000040012F09DFCFA2301259B00C318009320
:1045B00000232F00029312F093FC009BC01A00D43A
:1045C000AEE0029BF92B00D9AAE0002D12D0594988
:1045D000200014F0A9FF2100574800F03FF9200007
:1045E00000F068FA5549200014F082FF029B013365
:1045F000DBB20293236820001B69984700282AD168
:10460000236820001B699847051ED4D000231E0094
:104610000393019312F064FC009BC01A75D5019BB3
:10462000002B23D1236820005B699847051EF1DD2C
:1046300012F056FCFA239B00C31800930D2D3CD1B9
:10464000236829001B682000984712F049FC32308B
:1046500003900197DEE7236820009B6998470028B4
:10466000CED1236820005B699847C3E72368200008
:104670009B699847431C58D112F032FC039BC01A27
:10468000D0D4002505AB9B191D70AE4293DB12D030
:104690002B4905A819F0CAFBA84241D005AA390048
:1046A000254800F070F8A84233D012F019FCFA2324
:1046B0009B00C31800933D007DE70A2D05D12368B8
:1046C00029001B6820009847DBE700230193082D91
:1046D00001D07F2D09D19E429CD0236803225B68C4
:1046E000184920009847013E94E7C72E92D82B0026
:1046F000203B5E2B8ED82368EDB21B68290020007A
:10470000984705AB9D55013684E7002505AB1D7024
:1047100051E705A90C4800F0E7F90028C5D1CAE720
:10472000200014F0EFFE39B0F0BD0A2800D179E77F
:10473000A7E7C046881B0200AC1B0200941B0200C6
:10474000A81B0200A41B0200EC410020F7B50600E4
:104750000F0000240192BC4212D018236343F318C7
:104760005D68280019F0AEFB29000200019819F0DD
:10477000B0FB631C002801D12000FEBD1C00EAE74D
:1047800001204042F9E770B506001500FFF7DEFF93
:10479000002398420DDB182444433419A6680133E2
:1047A000002E06D0606819F08DFB29182000B04754
:1047B0000123180070BD70B504690500002C08D0F5
:1047C0004269200019F0BAFB6B69E4180023013C30
:1047D000237070BD10B504690B00002C05D00022B9
:1047E000180011001AF058F9207010BD10B50469B6
:1047F0000B00002C05D00022180011001AF04CF913
:10480000208010BD70B50C0005000A49200014F08E
:104810006FFE2968200014F06BFE0749200014F099
:1048200067FE6968200014F063FE0449200014F05C
:104830005FFE70BDEB220200D71B0200DA1B0200F4
:1048400070B50C000500080014F05CFE296820001B
:1048500014F04EFE200014F055FE70BD70B50569D1
:104860000C00FFF7CFFF002D04D02900200014F02A
:104870005BFE70BD200014F045FEFAE770B50569D7
:104880000C00002D06D0FFF7BDFF29780A2220007A
:1048900014F0B5FE70BD70B505690C00002D06D092
:1048A000FFF7B0FF29880A22200014F08EFE70BDA9
:1048B00030B5094D094CAB685B035B0F9B001C597D
:1048C0000460AB6801619BB243606343A4008360F2
:1048D000C460426130BDC04600400041E01B0200A0
:1048E000F7B580261A4D01916F6803333E439B084C
:1048F0006E60002B2BD0174E2E802E7DF107FCD53D
:104900001E000768991BBF088F4219D9002E17D0C7
:10491000FF2117788C433C430F4957780C403F02E6
:104920003C439778013E39040C4F2740D478BFB2FE
:104930000F43240601993C4310C101910432E0E782
:10494000074B2B802B7DDB07FCD53300D1E7F7BD70
:104950000040004144A5FFFFFF00FFFFFFFF00FFF5
:1049600004A5FFFF044B054A4908D9611A801A7D46
:10497000D207FCD57047C0460040004102A5FFFFAA
:1049800070B504000D001600E36829002000B34252
:1049900005D2FFF7E7FFE368ED18F61AF4E7FFF733
:1049A000E1FF70BD10B510001A0018F00EFA10BD2E
:1049B0000D4BF0B5C418082500230C4EA04210D0B2
:1049C0000278120253402A001FB259008BB2002F06
:1049D00001DA71408BB2013AD2B2002AF4D101302F
:1049E000ECE71800F0BDC0464C04000021100000A8
:1049F000044B10B51B68002B00D098470122024BD6
:104A00001A7010BDD0410020CE41002010B5040026
:104A10000A48220043690169FFF7C4FF2000FFF73D
:104A2000C7FF2288064B9A4203D1064BE35A8342C2
:104A300002D02000FFF7DCFF10BDC046D4410020AB
:104A4000EFBE00004C04000030B5134C134DA544DC
:104A50000400002902D12B78002B19D0104B200024
:104A60002380FFF7A5FF0F4B2100E0520E4A684656
:104A700018F0ABF90D4C626921692000FFF780FF47
:104A800063696A4621692000FFF72AFF00232B7023
:104A9000074B9D4430BDC046ACFBFFFFCE4100201C
:104AA000EFBEFFFF4C0400004E040000D441002084
:104AB0005404000070B50500902614F023FD084949
:104AC000280014F031FD0024760006482018C36841
:104AD000002B01D0290098471834B442F5D170BD9D
:104AE000202202000021020010B50A0004480C2117
:104AF000FFF749FE002802D00122024B1A7010BDB8
:104B000000210200CE41002001207047014B1960B6
:104B10007047C046D041002010B5034A03490448FD
:104B2000FFF7C6FE10BDC0464E040000001C020088
:104B3000D44100201023224A91690B439361214BF9
:104B40001A7852B2002A3ADB1F4A20499160204964
:104B50005160517849B20029FBDB1E4951805178E0
:104B600049B20029FBDB02211A788A431A70DA79EC
:104B700052B2002AFBDB04211A788A431A70DA79D0
:104B800052B2002AFBDB0F21421C0A405A7002225B
:104B90000840987019780A431A70DA7952B2002ADC
:104BA000FBDB0122C0205A710B4B03321A608000DC
:104BB0001A580A491140C02212040A431A50704779
:104BC0000004004000100040000C004004040000FD
:104BD000040311000344000000E100E0FFFF00FFB8
:104BE0000221074B1A788A431A70DA7952B2002AE6
:104BF000FBDB1021034A93698B4393617047C046E6
:104C00000010004000040040064B1900DA7952B24F
:104C1000002AFBDBA5221A72CB795BB2002BFBDBEF
:104C20007047C0460010004070B5040012F058F9FB
:104C30000A25041912F054F9A0420AD2FFF7E4FF42
:104C400012F04EF9201A0A2800D9280012F07EF935
:104C5000F0E770BD0123024A1370024A9371704756
:104C60003A4600200010004010B50400034B083302
:104C700003600C3014F0CFFC200010BDE4230200D0
:104C800010B50400FFF7F0FF200014F085FF2000AE
:104C900010BD0000074B10B508330360012304006A
:104CA000037205490C3014F005FD00232000E36178
:104CB00010BDC046E42302002454020030B5264C47
:104CC00085B00500200000F0CDF9002837D0200085
:104CD00000F0E0F800226B681000013B052B2ED895
:104CE000180014F0D1FF03090D182E341B492000C1
:104CF00000F098F8022300E003236B6000201EE020
:104D0000290020000C3100F077FA1549200000F04E
:104D100089F80423F1E7134901A814F0CBFC28001B
:104D200001A90C3014F005FE040001A814F073FC76
:104D3000002CDFD0002301206B6004332B7205B000
:104D400030BD0949200000F06DF80623D5E70123A6
:104D50006A602B72D2E7C0463C460020C1230200A5
:104D6000CC2302007C240200D6230200F8B50123E4
:104D70004360DB1804000372002919D012F0B0F868
:104D8000FA26070076002000FFF798FF051E09D1DC
:104D9000E369002B08D012F0A3F8E369C01B984226
:104DA00002D36560207AF8BD300012F0CFF8EAE750
:104DB000FFF784FFF6E7000010B50400024800F09A
:104DC00069F8207A10BDC0463C46002010B50400AA
:104DD0001C3014F020FC200010BD000070B5836072
:104DE000049B06000025C360012304001C364260BA
:104DF00005610575836101603000054914F05AFCB6
:104E0000A5623000402114F027FC200070BDC04690
:104E100024540200014B024A1A6070476846002081
:104E20008850002070B504000D0012F059F8236975
:104E3000C01A132803D81423181A12F087F829006F
:104E4000206814F071FB20680368DB689847002332
:104E50002375A36170BD00000EB410B50A4C0B4958
:104E6000A5440400FFAB183304CB02A801931AF049
:104E7000BDF802A92000FFF7D5FF054B9D4410BCEB
:104E800008BC03B01847C046F4FBFFFFFF03000057
:104E90000C040000F0B5040087B0206803681B69AB
:104EA0009847002800D192E0206803685B69984722
:104EB000634BC6B21868002803D0036831001B6832
:104EC000984725001C353100280014F0D2FC277DBE
:104ED000012F48D05B49684614F0ECFB6946280076
:104EE00014F01BFD0026B0420DD0574903A814F062
:104EF000E1FB03A9280014F01CFD461EB041C6B218
:104F000003A814F088FB684614F085FB002E06D039
:104F1000012323754D49280014F064FCBDE74A497C
:104F200003A814F0C7FB03A9280014F002FD070032
:104F300003A814F070FB002FAFD0280014F0D5FDAB
:104F4000636A002BE6D011F0CBFF2061404BB2002A
:104F5000D058002803D0036829001B689847013601
:104F6000082EF3D1D6E70A2E97D111F0B9FF3949AF
:104F7000206103A814F09EFB03A9280014F063FD30
:104F8000060003A814F047FB731C22D0A761A36995
:104F9000002B82D0A26A002A13D0012B4ADD03A87D
:104FA000636A3200290014F055FD03A814F033FBA6
:104FB000280014F09AFD2900A06A14F0F1FB0023E8
:104FC000A362002321492375280014F00BFC07B0CD
:104FD000F0BD214903A814F06DFB03A9280014F0CB
:104FE00032FD060003A814F016FB731C02D0022346
:104FF000A361CCE7194903A814F05CFB03A92800BE
:1050000014F021FD060003A814F005FB731C01D069
:105010000323EDE7124903A814F04CFB03A9280071
:1050200014F011FD060003A814F0F5FA731CAED0BD
:105030000423DDE73100280014F044FDB8E7C04642
:1050400068460020F4230200F923020024540200E1
:105050006C460020F7230200FC2302000424020017
:105060001124020010B50400FFF714FFA06910BD61
:1050700070B5826204000E0011F032FF050011F0DD
:105080002FFF401BB04208D22000FFF703FFA069AA
:105090000028F4D00023A36270BD00232000A36287
:1050A0001C30034914F09EFB01204042F4E7C04647
:1050B0002454020010B504000549FFF7B3FE002296
:1050C000C8212000FFF7D4FF01384342584110BDEA
:1050D000F423020070B505000E0011F001FF04007A
:1050E00011F0FEFE001BB04208D22800FFF7E2FFDD
:1050F000012804D0642011F029FFF1E7002070BDE1
:1051000010B507490400FFF78DFEFA21002289003F
:105110002000FFF7ADFF01384342584110BDC046A3
:10512000D613020070B50400E1230D006168006829
:105130005B02994200D919000368DB699847E3686C
:105140000121D8B212F006F9E3680121D8B212F0B9
:105150004DF9A06800283CDB002D3AD0C0B20121F7
:1051600012F0F8F8A3680121D8B212F03FF96420D8
:1051700011F0ECFEA3680021D8B212F037F91C49F7
:105180002000FFF7A7FF002829D0E12362685B0217
:1051900001209A4224D917492000FFF75DFE002222
:1051A000C8212000FFF764FF012818D12068036898
:1051B0005B6A9847642011F0C9FE20686168036843
:1051C000DB6998470A492000FFF784FF431E984196
:1051D00006E007492000FFF77DFF002801D10020ED
:1051E00070BD2000FFF78CFF0028C8D1F7E7C0464C
:1051F000102700001B24020081627047002310B5B5
:10520000054A98008458002C01D1815010BD01330B
:10521000082BF6D1FAE7C0466C460020002310B5F3
:10522000054A980084588C4202D10023835010BD57
:105230000133082BF5D1FAE76C4600202323E12245
:1052400013B5074C00935202043B06492000FFF7B8
:10525000C5FD054A0549200014F00EFD13BDC046EA
:105260003C4600200C4E002000000020CD4D0000E8
:1052700070B5002504000E00084905704560856082
:10528000C16001614161183014F014FA6562AE42E8
:1052900002D00348FFF7BEFD200070BD2454020079
:1052A0003C460020F0B5037885B005000224002BB1
:1052B00021D07F4E3000FFF7D5FE041E1BD03000FA
:1052C000FFF7E8FD6F68172F15D8380014F0DCFCE5
:1052D0000C161D25293459686C72757B7F85898F62
:1052E000939A9EB2B7BDC2CD72493000FFF79AFDC6
:1052F00001233C006B60200005B0F0BD0223012CAF
:1053000008DD002302242B70F5E76B493000FFF71E
:1053100089FD03236B600024EDE7012CF1DC0423FD
:10532000F8E7290030001831FFF766FF63493000C5
:10533000FFF778FD0523EDE7012CF0DC2E00604936
:10534000183601A814F0B6F901A9300014F0F1FAEA
:10535000040001A814F05FF9002C01D00A23D9E75A
:10536000584901A814F0A6F9300001A914F0E1FA97
:10537000060001A814F04FF9002EC2D006236B607E
:10538000B9E7AB68002BBCD0290030001831FFF71B
:1053900033FFAA684C493000FFF75EFD0723B9E7E9
:1053A0000823012CB6DDACE748493000FFF73AFD91
:1053B0000923AFE7012CD1DDA3E745493000FFF712
:1053C00031FD0B23A6E70C23012CA3DD99E741490E
:1053D0003000FFF727FD0D239CE70E23012C99DDFC
:1053E0008FE73D493000FFF71DFD0F2392E71023A3
:1053F000012C8FDD85E7EA6838493000FFF72CFD86
:10540000112387E71223012C84DD7AE72B69696970
:105410001A78002A02D10A78002A06D00A00300041
:105420002F49FFF719FD132374E72E493000FFF7CA
:1054300013FDF8E71423012C00DC6BE761E72A4930
:105440003000FFF7EFFC152364E7012C00DD58E77F
:1054500016235FE7290030001831FFF7CDFE2349FE
:105460003000FFF7DFFC172354E7012C00DD48E78D
:1054700028002B6A1830591E14F088FAFB230340C9
:10548000302BE5D0312B02D03038082805D1182335
:105490006B60153B2B7001242DE7022803D11623E6
:1054A00028706B6037E7032800D024E729E7C0465F
:1054B0003C460020302402003A240200442402002A
:1054C0004D240200532402005B240200D623020074
:1054D0006824020072240200802402008A24020050
:1054E000A1240200BB24020018140200262402009A
:1054F000F7B51D0008AB160004CB0F0019780AABF6
:105500001B780400154800920193FFF70BFE00285A
:1055100003D1002323702078FEBD009B002063612F
:1055200001232370019BA760E660256160608342D0
:10553000F2D011F0D5FC05002000FFF7B3FE0028E3
:10554000E9D1636A002B05D011F0CAFC636A401BE5
:105550009842DED2642011F0F9FCEDE73C460020D1
:1055600030B51C0085B008AB1D78044B0295019442
:105570000093FFF7BDFF05B030BDC04624540200C4
:10558000F0B58DB02849684614F094F8274C2849A6
:105590002000FFF747FC6A4664212000FFF768FD02
:1055A000012806D00026684614F035F830000DB00A
:1055B000F0BD2D21684614F01AFA0100431C02D0F8
:1055C000684614F07FFA03AA1A49009819F02AF8DD
:1055D0000028E7D003A817F0E7FC06000F00684694
:1055E0001A2114F0D3F91B210400684614F0CEF9F7
:1055F0000A23303C634330381818E1239B0058439A
:1056000019210400C517684614F0C0F92D2802D1ED
:1056100036196F41C7E71921684614F0B7F92B28EE
:10562000C1D1361BAF41BEE7245402003C460020E6
:10563000CC240200D5240200007870470020704777
:1056400013B56B460268D9710733546819000122FB
:10565000A04716BD80690130431E9841C0B2704713
:1056600013B56B46DC1D036801225B6A2100984775
:10567000012801D1207816BD01204042FBE7704788
:10568000094B01001A0010B50400083254330260BF
:10569000036110310548FFF7C1FD2000343013F0DD
:1056A000BAFF200010BDC0469C2502003C460020E9
:1056B00010B50400FFF7E4FF200014F06DFA20009D
:1056C00010BD0000F0B5474E89B004003000FFF770
:1056D000C9FC051E17D0236A581E092813D80023B9
:1056E00014F0D2FA0514373E43494D6E737A210007
:1056F00030003431FFF780FD3B493000FFF792FB6B
:10570000022300252362280009B0F0BD012D0FDC23
:1057100026003649343605A813F0CCFF05A9300021
:1057200014F0FBF8070005A813F075FF002F02D155
:1057300000232362E7E7E36B3000591E14F026F9DB
:1057400023003038A06132331B78002B15D003239F
:10575000D7E7A26926493000FFF77EFB0423D0E794
:105760000523012DCDDD0923CBE722493000FFF7CA
:1057700059FB0623C5E7012DF5DC0723C1E7E36AE2
:10578000218EA269002B06D0009130001A49FFF744
:1057900063FB0823B5E7230028331B78039121001E
:1057A0002B3109783000029121002A3109780191CA
:1057B00021002931097800911049FFF74DFBE8E7F6
:1057C000012DD0DC0122E261B3E7A2690C4930006F
:1057D000FFF742FB0A2394E7236201235B42A361A4
:1057E00091E7C0463C460020EF240200FA24020064
:1057F0000325020014250200252502003925020098
:105800005625020010B5036804001B69984700285C
:1058100004DDA169034800F047FB10BD01204042B0
:10582000FBE7C0468C46002070B500258269040065
:105830000562AA4211DB094E09493000FFF70CFB53
:105840002A0008493000FFF713FCA169064800F060
:1058500053FA01235B42A361E56170BD3C46002021
:1058600056250200102700008C46002010B50400C9
:105870000D48FFF70FFBA16900204B1C12D00B480D
:1058800000F064FA002808DB230032331B78012083
:10589000002B07D0E369002B04D1236820009B6A0A
:1058A0009847002010BDC0463C4600208C46002092
:1058B00010B5037D0400002B0AD023682000DB6BA9
:1058C00098470028F9D0A1694B1C07D1002010BDD2
:1058D0000368DB6B98470028F5D1F7E7044800F030
:1058E00035FA0028F3DA236820009B6A9847EDE731
:1058F0008C46002070B5836904000E00150001334A
:1059000001D1002070BD002AFBD003681B699847B5
:105910000028F6D02B003200A169024800F0D4FA2A
:10592000F0E7C0468C4600207FB50C000500134907
:1059300001A813F0BFFE01A9200013F0EEFF06003E
:1059400001A813F068FE002E17D00921200014F0E2
:105950001DF8AB69303883420FD1094901A813F013
:10596000A9FE200001A913F0E4FF040001A813F030
:1059700052FE002C01D00023EB617FBD8525020083
:105980008F25020008B4024B9C46103808BC6047C3
:10599000295900000300F0B58FB0039133331B7811
:1059A00004001500002B0DD023682000DB6B984706
:1059B0000028F9D0A36901330AD10023009300988D
:1059C0000FB0F0BD0368DB6B98470028F2D1F4E715
:1059D000484905A813F06EFE802329005B009D4214
:1059E00000D919004900133105A813F035FE002332
:1059F0000093002D71D080232E005B009D4200D9C2
:105A00001E007100133105A813F026FE3A4905A8BF
:105A100013F0E8FEA16905A813F034FF374905A883
:105A200013F01EFF310005A813F039FF344905A813
:105A300013F016FF009A039B94466344029301936C
:105A4000019B0F221F783B09190017403031092BA9
:105A500001D93733190005A813F00BFF3900303195
:105A6000092F00D9073105A813F003FF019B029A03
:105A7000013301939B1A9E42E2D8224905A813F0F4
:105A8000EFFE214F05993800FFF7CCF9230033339F
:105A90001B78002B28D0174908A813F00BFE08AA82
:105AA0001A493800FFF7E4FA01281AD0042811D166
:105AB00017490BA813F0FEFD0BA908A813F07AFFF5
:105AC00005000BA813F0A7FD6B1C03D02368200072
:105AD0009B6A984708A813F09EFD05A813F09BFD4C
:105AE0006DE708A813F097FD009BAD1B9B19009371
:105AF0007FE7C04624540200622502001817020006
:105B00006C2502006D2502003C4600201027000095
:105B10006F250200FA2370B500259B008360124BAD
:105B200004004560180008302060200054332361D1
:105B30002275A161E56129002562243013F00EFC75
:105B40002300012220003233E562258607491D70BB
:105B50005A70343013F0AEFD210005481031FFF7C4
:105B60004DFB200070BDC0469C250200245402005D
:105B70003C4600200A00012110B504004942FFF70D
:105B8000C9FF200010BD10B583690400013302D0A5
:105B900003689B6A9847237D002B0BD02368200065
:105BA000DB6B98470028F9D00120237D2062002B71
:105BB00007D110BD23682000DB6B98470028F3D184
:105BC000F7E723682000DB6B9847002803D1643097
:105BD00011F0BCF9F5E7A0690130431E9841E8E7F0
:105BE0004B6810B502860200836200233232C36222
:105BF0001370FFF7C8FF10BD70B504000E0024300D
:105C00000021150013F0B2FB230000223233E662BC
:105C1000258620001A70FFF7B6FF70BD70470000A0
:105C200010B501210248FFF77DFA431E984110BDCF
:105C30003C46002070B50400094913F03BFD0F21DC
:105C4000200013F009FD074D07492800FFF7EAF887
:105C5000280022006421FFF70BFA200070BDC04627
:105C6000245402003C460020F42502007FB50400C5
:105C7000164D290013F01EFD1B21200013F0ECFC33
:105C8000134E14493000FFF7CDF8FA2122008900A5
:105C90003000FFF7EDF9104901A813F00BFD01A941
:105CA000200013F03AFE060001A813F0B4FC002E09
:105CB00007D007220021200013F0EAFE200004B0E4
:105CC00070BD2900200013F08DFDF7E72454020079
:105CD0003C460020FC2502000426020010B504000A
:105CE000044B5422083308C0002117F08AF8200022
:105CF00010BDC0462426020010B50C244C430419E4
:105D00006068002805D017F035F80023A3606360B1
:105D1000E36010BD70B505000024064B0833036036
:105D2000210028000134FFF7E7FF072CF8D12800F5
:105D300070BDC0462426020010B50400FFF7EAFF3C
:105D4000200013F029FF200010BD0000F0B50C2446
:105D50004C430419E56889B000900F00002D00D075
:105D60008BE06368002B06D18020800016F0F8FFDE
:105D7000E560A0606060454902A813F09BFC8023A9
:105D8000434E3A00434930009B00FFF765F802AAF2
:105D900041493000FFF76CF901281AD0022800D1E0
:105DA00071E004280FD13D4905A813F083FC05A933
:105DB00002A813F0FFFD050005A8013513F02BFC28
:105DC0006B1E9D416D4202A813F025FC280009B00E
:105DD000F0BD334905A813F06DFC05A902A813F026
:105DE0009CFD060005A813F016FC002EEBD02D49F3
:105DF00005A813F05FFC05A902A813F0DBFD050060
:105E000005A813F008FC6A1C0025002102A813F065
:105E10003FFE049B02A8591E13F054FE049B5B082E
:105E20000193019B9D421ED0690002A813F096FDCC
:105E30006B000678591C02A813F090FD3300303B2C
:105E40000278DBB2392E01D9373EF3B21600303E6C
:105E5000F6B2392A01D9373AD6B21B016268334308
:105E600053550135DDE76368009AA3600C237B433B
:105E7000D318DD6002A813F0CEFB0C235F43009B18
:105E8000DF19FD68A2E701259CE7C0462454020003
:105E90003C4600200C260200102700006F2502005F
:105EA0001B2602006D25020070B504000D00FFF7EF
:105EB0004DFF002805D00C2169436418A3681878A9
:105EC00070BD01204042FBE7F8B506000C0017004A
:105ED0001D00FFF73BFF002811D0854200DD0500C3
:105EE0000C235C4334192A00A168380016F06DFFBA
:105EF0002800A3685B19A360E3685B1BE360F8BD3F
:105F000010B5054C2000FFF7E9FE044A04492000C3
:105F100013F0B2FE10BDC0468C46002000000020E9
:105F2000155D0000704710B5040013F035FE200029
:105F300010BD10B50368C9B21B68984710BD10B5F5
:105F400004004068217A0368DB6A98470221606890
:105F5000FFF7EFFF606803685B6B98470023984288
:105F600003D1012010F0F2FF0123180010BD000042
:105F70000B4B10B5134004D52020013B4042034396
:105F800001331F24D01720401C3CA1408018DA1791
:105F90002240D31840119B1000021843084310BD43
:105FA0001F000080F0B5081E1BD00020824218D0D0
:105FB0008B189C46082201230E781C003440651E75
:105FC000AC41C70B400080B2BC4202D0054C6040DF
:105FD00080B25B00013ADBB2002AEED101316145AB
:105FE000E8D1F0BD0580FFFFF0B585B000AFFC6AD9
:105FF000FB8023006E4608333B600733DB08DB0081
:10600000F31A03269D4605001E70E01D013E5870E0
:106010009970DA70B91D320001A816F0D6FE6B46F1
:106020002200B96A981D16F0D0FE6B46621D591CFD
:106030002800FFF7B7FF0E23F881A01D3200F918E2
:10604000684416F0C2FE6868297A0368DB6A9847DC
:106050006868694603683A685B68984768680368D7
:106060005B6B9847BD464342584105B0F0BDF0B563
:10607000130085B000AFBA60D51C6A460A33DB084E
:10608000DB00D31A9D46FB601523040039607B605A
:106090006068217A03682A009B6B1E000123B047C9
:1060A000A84204D07B68013B7B60002BF0D1606884
:1060B00003685B699847FB681870C0B2A84203D0B8
:1060C0000020BD4605B0F0BDFB685D1C2E00606879
:1060D00003681B699847002806D0606803685B69FD
:1060E000984728700135F2E7BB68F9685D1C2A0003
:1060F0002000FFF757FFBA68FB689B189A78FB6887
:1061000012025B5D13439842DAD1BA6831003868F5
:1061100016F05BFE0120D4E737B504004068124951
:1061200003689B6A9847606800210368DB6A9847A8
:10613000606803685B6B98470C4810F02BFF6B4658
:10614000DD1D012229002000FFF791FF002809D062
:106150002B780020112B05D16068054903689B6AE4
:10616000984701203EBDC046A0860100DC05000026
:1061700040420F0073B504000D001600FFF7CCFF7E
:10618000002801D1002076BD0022ABB2019200921E
:1061900040212000FFF728FF0028F3D0732010F0E3
:1061A000D5FE402231002000FFF761FF0028E9D032
:1061B000012010F0CBFE2000FFF7C1FE0120E2E736
:1061C00030B585B00400FFF7A7FF002802D10020FA
:1061D00005B030BD0022472101920092130020003B
:1061E000FFF702FF0028F2D00F2509206D4410F0C0
:1061F000ADFE012229002000FFF739FF0028E6D07C
:10620000012010F0A3FE2000FFF799FE28784342FA
:106210005841DDE730B585B004000D00FFF77CFF85
:10622000002802D1002005B030BD40230095019325
:10623000012247212000FFF7D7FE0028F2D00F25CA
:1062400009206D4410F082FE012229002000FFF792
:106250000EFF0028E6D0012010F078FE2000FFF7A6
:106260006EFE287843425841DDE7F7B504000F0081
:1062700015001E00FFF750FF002801D10020FEBDD1
:10628000ABB201950097022247212000FFF7ACFE38
:106290000028F3D0092010F059FE20223100200000
:1062A000FFF7E5FE0028E9D0012010F04FFE2000A6
:1062B000FFF745FE0120E2E730B5002485B0050078
:1062C0000394FFF729FFA04202D1002005B030BDA2
:1062D000019400942300220030212800FFF784FE5F
:1062E0000028F2D0022010F031FE042203A9280079
:1062F000FFF7BDFE0028E8D0012010F027FE28009F
:10630000FFF71DFE0398E1E710B50400406803683D
:10631000DB6998472000FFF7FFFE2000FFF70FFE24
:106320002000FFF7C9FFF0231B041840034BC018DF
:10633000034B18404342584110BDC0460000B0FF17
:10634000FFFFEFFF30B585B004000D00FFF7E4FE5E
:10635000002802D1002005B030BD20230095019314
:106360000322002316212000FFF73EFE0028F1D073
:106370000F251D206D4410F0E9FD012229002000A9
:10638000FFF775FE0028E6D0012010F0DFFD2000A9
:10639000FFF7D5FD287843425841DCE7F0B5A5B0BA
:1063A00004000F001600FFF7B7FE002802D10020FE
:1063B00025B0F0BD04AD40223900280016F005FDDF
:1063C0004022310014A816F000FD802300950193AF
:1063D00002227C3B45212000FFF706FE0028E6D084
:1063E0000F2548206D4410F0B1FD01222900200046
:1063F000FFF73DFE0028DBD0012010F0A7FD2000B4
:10640000FFF79DFD287843425841D1E770B504005D
:1064100015001E00FFF796FF002806D03200290065
:106420002000FFF7BBFF431E984170BD73B5040009
:106430000D001600FFF770FE002801D1002076BD88
:106440000022ABB201920092412180322000FFF77E
:10645000CBFD0028F2D0462010F078FD402231001C
:106460002000FFF704FE0028E8D0012010F06EFDA8
:106470002000FFF764FD0120E1E7F0B585B00600DC
:106480000D0003921F000A9CFFF746FE002803D16F
:106490000024200005B0F0BD042C03D0202CF7D13F
:1064A00080231D4300216B46EAB29B893000019195
:1064B00000910231FFF798FD0028E9D0052010F087
:1064C00045FD220039003000FFF7D1FD0028DFD064
:1064D000012010F03BFD3000FFF731FDD9E773B527
:1064E000002204260C000B00009611000500FFF7A7
:1064F000C4FF002801D1002076BD231D0096022292
:1065000000212800FFF7B9FF0028F4D023000096EF
:106510000833032200212800FFF7AFFF431E9841F4
:10652000EAE7000070B50D0086B00021040013F00A
:10653000C1F869462800FFF7D2FF00281ED01221BB
:10654000200013F089F800256B465E5D0F2E03D8FE
:106550000C49200013F084F91022310003A813F035
:10656000C8F803A9200013F069F9013503A813F056
:1065700052F8092DE8D1200013F0AAFA200006B045
:1065800070BDC04612250200F0B585B002900F0024
:1065900003921D000F291DD8032420261C4002D081
:1065A000002005B0F0BDAC4217DA2B1B1F2B00DC1E
:1065B0000426220039000298FFF7DAFC039B020050
:1065C0001B19009602210298FFF757FF0028E7D019
:1065D000A419E8E701204042E3E70120E1E71FB505
:1065E000042303AC0093152223000021FFF745FF8D
:1065F000002806D00020A378834202D1E0784342ED
:10660000584104B010BDF0B585B005000C0016006F
:106610001F00FFF781FD002802D1002005B0F0BD6A
:106620000A9B042B03D0202BF7D160331C430A991B
:10663000B3B20191E2B2009712212800FFF7D4FC17
:106640000028EAD00F241A206C4410F07FFC0122AD
:1066500021002800FFF70BFD0028DFD0012010F0FB
:1066600075FC2800FFF76BFC207843425841D5E7C2
:10667000F0B585B002900F0003921D000F291DD8C0
:10668000032420261C4002D0002005B0F0BDAC42FF
:1066900017DA2B1B1F2B00DC04262200390002987E
:1066A000FFF766FC039B02001B190096022102986B
:1066B000FFF7A9FF0028E7D0A419E8E7012040422E
:1066C000E3E70120E1E7F0B58BB005000E00140010
:1066D000FFF722FD002822D0002C22D000221B210F
:1066E0000192009213002800FFF77EFC002815D0CD
:1066F000172010F02BFC202202A92800FFF7B7FC7E
:1067000000280BD027001F2C00DD202730003A0086
:1067100002A916F05AFBE41BF619DDE700200BB0C6
:10672000F0BD012010F012FC2800FFF708FC01204A
:10673000F5E7F0B589B00D00170069462022040086
:106740001E00FFF7C0FF002802D1002009B0F0BDF5
:1067500039002000FFF7F6FD0028F6D032002900AE
:106760002000FFF763FE431E9841EFE7064B074802
:10677000083310B50360064B064A436060230649A0
:10678000037213F079FA10BD34260200E4460020AB
:106790003448002000000020255F000030B59C68D0
:1067A000039B88689968049B95689A68059B9B6819
:1067B000002800D00B30002D01D00B354019002CE3
:1067C00001D00B340019002901D00B314018002AE8
:1067D00001D00B328018002B01D00B33C01830BD14
:1067E0005B2070470A0030B50020202520320C5C69
:1067F0002B1A002C0ED101302028F8D101230D00D6
:1068000040313F351478881A002C0AD1AA4204D0AE
:106810000132F7E7E4091B19F1E7012015331818D5
:1068200030BDE4090019F9E70B78002B04D1012AE7
:1068300004DD0131013AF7E7DB09D218901C7047FB
:106840000420FF2903DC01387F2900DC0138704770
:106850003023F7B5137093701D3BD3700D3B9C46EE
:10686000137107235371053BD372013B13735375A7
:106870000633937559204223019161465070137677
:106880003D2000232A2786264825CE24517308213F
:106890009072D07453763A3804339771D67115726A
:1068A000D773167455745472917394741075D075AF
:1068B00093761B3210000199402216F086FA5B2075
:1068C000FEBD3023F7B50F0020241370263B537014
:1068D000043B93700233D370223313715C335371D2
:1068E0003E3B93718633D371913B1372393B5372A4
:1068F000013B9372013BD37220370091009B1B78C0
:10690000002B01D1012C0AD1080040313F303E78E4
:10691000CD1B002E09D1874206D00137F7E7009B37
:10692000013C01330093E9E70125DB09E418032367
:10693000F609AD191373E0B2EBB20193C318DBB2E1
:10694000D91D04331374022351733026002153746C
:10695000009B9173D67390741B787F2B25D81332CC
:10696000160030002200009916F02FFA009B36190D
:106970001B787F2B00D90134022333706B461B79BF
:10698000B01C73703B787F2B03D90023F01CB370CD
:10699000013D2A00390016F018FA3B787F2B00D908
:1069A0000135200015304019FEBD1600D174143693
:1069B000013CD6E770B50D0014002A78002A04D1F6
:1069C000012C04DD0135013CF7E7D209A4180222AD
:1069D0005C701A702A78981C7F2A03D90022D81C70
:1069E0009A70013C2200290016F0EFF92B787F2BDA
:1069F00000D90134A01C70BD312070B58C681870AE
:106A0000E0B2050009355D7030259D70C51DDD7053
:106A100006251A7213221D71033D5D7152359D7159
:106A2000513DDD715A7298720B33180009682200CB
:106A300016F0CBF920000B3070BDF7B51E008B6847
:106A4000050017000B9C002B04D023000622FFF743
:106A5000D3FF2418BB68002B06D02300082239007E
:106A60002800FFF7C9FF2418B368002B06D02300C5
:106A7000072231002800FFF7BFFF2418089B9B68FE
:106A80000193002B06D023000A2208992800FFF763
:106A9000B3FF2418099B9B680193002B06D02300A9
:106AA0000B2209992800FFF7A7FF24180A9B9B686F
:106AB0000193002B05D0230003220A992800FFF739
:106AC0009BFFF7BD30231370FF290DDD52330812F1
:106AD00053709070D31C19700420FF2903DC013817
:106AE0007F2900DC01387047531C7F29F3DD8120AA
:106AF000931C5070EFE70000F7B50193424B0E0076
:106B000000920B9D99426ADD1823FA212B70093BF4
:106B10006B708900300013F055F9FA213030A870FD
:106B20008900300013F034FA0800642113F04AF9A8
:106B30003030E8706421300013F02AFA08000A218E
:106B400013F040F9303028710A21300013F020FA98
:106B50003031AC1D69710A21009813F033F93030DF
:106B600020700A21009813F013FA303161700198F7
:106B70000A2113F027F93030A0700A21019813F090
:106B800007FA3031E17008980A2113F01BF9303010
:106B900020710A21089813F0FBF9303161710998CE
:106BA0000A2113F00FF93030A0710A21099813F06F
:106BB000EFF93031E1710A980A2113F003F930300E
:106BC00020720A210A9813F0E3F95A23A3720E4B9C
:106BD0003031617211209E4200DC0238FEBD0B4B49
:106BE0002C1DCF1817232B700A3B6B700A2138001D
:106BF00013F0E8F83030A8700A21380013F0C8F913
:106C00003031E970A7E7C0460108000030F8FFFF07
:106C100030230B70263B4B70043B8B700233CB70E0
:106C200022330B715C334B713E3B8B718633CB71DE
:106C3000913B0B72393B4B72013B8B72013B0C2039
:106C4000CB72704710B504000D4B0833036044301D
:106C500012F0E1FC2000383012F0DDFC20002C3076
:106C600012F0D9FC2000203012F0D5FC20001430A6
:106C700012F0D1FC2000083012F0CDFC200010BD35
:106C80004426020010B50400FFF7DCFF200012F0DC
:106C900083FF200010BD000070B50400114B124DA1
:106CA000083303602900083012F004FD2000290099
:106CB000143012F0FFFC20002900203012F0FAFC02
:106CC000200029002C3012F0F5FC2000290038307B
:106CD00012F0F0FC20002900443012F0EBFC200000
:106CE00070BDC046442602002454020010B5054C75
:106CF0002000FFF7D1FF044A0449200012F0BCFF36
:106D000010BDC046F446002000000020456C000085
:106D1000704710B5040012F03FFF200010BD0000C6
:106D200010B5044B04480833044A0549036012F0C7
:106D3000A3FF10BD5426020084470020000000205D
:106D4000116D000070B50500124BA43508330360C7
:106D500004002868002803D016F00CF800232B60EC
:106D60002000483012F057FC20003C3012F053FC59
:106D70002000303012F04FFC2000243012F04BFC89
:106D80002000183012F047FC20000C3012F043FCB9
:106D9000200070BD6826020010B50400FFF7D2FF86
:106DA000200012F0F9FE200010BD000070B50400B4
:106DB000164B174D0833036029000C3012F07AFC93
:106DC00020002900183012F075FC20002900243022
:106DD00012F070FC20002900303012F06BFC200013
:106DE00029003C3012F066FC20002900483012F0E7
:106DF00061FC2300074A9C331A6001225A6022007A
:106E00000023A43220001360536070BD6826020086
:106E1000245402006426020010B503000C00002078
:106E20001100082C0CD8083A072A09D85C60996030
:106E300054331A0003484823FFF7A6FB431E98412A
:106E400010BDC046E4460020A43000687047A8305A
:106E50000068704710B5483012F0C4FC10BD000047
:106E60000300FA22F0B594331B78D200DB06DB0E68
:106E70009B1802009832127887B0D206D20E9B1867
:106E80001A4A04001E27934200DD02372200230025
:106E9000174D9C33A032196812682800FFF7C4FC14
:106EA00006002000230022002100483002903034E8
:106EB0000C3824331832019000940C312800FFF76D
:106EC0006DFC010004002800FFF7BAFC05902800C3
:106ED000FFF786FC0300059A1136A4186400A61972
:106EE000B81C3018C018043007B0F0BD010800000D
:106EF000F0460020F0B51400020091B00F91FA2185
:106F000094321278C900D206D20E52180B920200A7
:106F100095321278564D1207120F0C9202009632DB
:106F200012780600D206D20E0D9202009732127825
:106F30001900D206D20E0E92020018320A92803246
:106F4000177828002200FFF7BDFDA0230222201899
:106F500003709D3B43708270027101233200310047
:106F6000C370441DA0329C312300126809682800B8
:106F7000FFF720FD241821002800FFF749FE330009
:106F80000C330593183306930C3307930C33089393
:106F9000089B48360193079B241800930A9A069B86
:106FA0000599029628000996FFF7F8FB22000100D8
:106FB00004902800FFF786FD099B24180293089B84
:106FC00003940193079B0A9A00930599069B280056
:106FD000FFF733FD049BFF06E418302323700B9B5F
:106FE000FF0E244ADF190223974200DC00231E33E0
:106FF0006370A61C00241E4D0E9B039600930C9AF2
:107000000D9B0B99029401942800FFF775FD0E9BD0
:107010003618039600930C9A0D9B39000294019444
:107020002800FFF769FD3618320004992800FFF7A1
:1070300049FD099B36180293089B03960193079B11
:107040000A9A00930599069B2800FFF7F6FC049B1B
:107050000F99F61832002800FFF7FAFBA323301827
:107060000370A13B43702E338370C47011B0F0BD28
:10707000F0460020010800001823F0B54A4EA7B0E2
:1070800000AF04003961FA1841683000FFF772F868
:10709000002854D02000FFF7E3FE0500010043481C
:1070A000FFF7CEFB6A462B187B610733DB08DB005A
:1070B000D31A9D46BB602B0018256A46791920001B
:1070C000FFF718FF3B69002B3CD0402278190021C4
:1070D000801815F096FE3000FFF772F800282DD0CA
:1070E00000257B69304EAB4213DD5A1BBB68591932
:1070F0003F2A06DD3000FFF78DF800281ED040350E
:10710000EFE7182040233818C3183000FFF7ADF818
:10711000F3E7250018214022791854358A182B00EE
:1071200061683000FFF705FB002807D048232A00DC
:10713000A1683000FFF79CFA002803D10020BD466B
:1071400027B0F0BD2300194E543319003000FB6006
:10715000FFF748FB7B6925001B18190030003B61D5
:10716000FFF76EFB3B69A8351918A4342960206825
:107170007C6016F00DFE7B68041E186001D128604B
:10718000DCE7020039693000FFF79CFC24187A69BB
:10719000B968200015F019FE7B69F968E218300023
:1071A000FFF78FFB0120CAE7E4460020F0460020ED
:1071B00010B50021FFF760FF431E984110BD00008D
:1071C00010B5054C2000FFF7F1FD044A04492000EA
:1071D00012F052FD10BDC04688470020000000207C
:1071E000456D000010B503689C6B0123A04710BDDE
:1071F0008C2300229B00C154103BC3185A609A6034
:10720000DA6001238375704710B5036801211B6B99
:10721000984710BDF8B505000E0017000024BC42C9
:1072200008D02B68315D1B6828009847002801D0E2
:107230000134F4E72000F8BDFC30406A7047704725
:107240008E239B00C15070478D239B00C150704717
:107250000300FC335A6A002A03D01B6AC018007E60
:10726000704701204042FBE770B5060018250C4925
:10727000006910F03BFC306910F079FA2B0008210E
:10728000307D084C4343E318595610F0DBF80821D1
:10729000707D45436419615610F0D4F870BDC04646
:1072A000A08601004471020070B504000D00006961
:1072B00010F072FA2900206910F018FC206910F013
:1072C00056FA70BD10B5006910F066FA10BD0000E6
:1072D000F7B50193FA238026002504009B00836004
:1072E000134B760008330F004560290000920360BD
:1072F0003200183015F085FD23002000FC332530C6
:10730000DD6132001D6229005D62FF3015F079FDFC
:1073100088239B00E3185D609D60DD606B461B78F1
:10732000276123756B461B79A57520006375FEBD2B
:107330007826020070B506001825006910F0B1FB30
:10734000306910F014FA2B000821307D064C4343BD
:10735000E318595610F076F80821707D45436419FA
:10736000615610F06FF870BD4471020010B5002234
:10737000FFF7E0FF10BD0300802210B5FC33DC688E
:107380005200944208D05A6881545A680132D2B2ED
:107390005A60DA680132DA6010BDF7B50400171ED2
:1073A000019302D100252800FEBD03000022FC331A
:1073B000DA611A625A620069013210F01FFA061E81
:1073C000F0D0230020691833009310F0AAFA0100CE
:1073D0000098FFF7D0FF01252069BD4214D010F0BE
:1073E0007EFA00280FD0206910F0E8F90221206908
:1073F00010F0EEF9206910F094FA01000098FFF700
:10740000BAFF0135E8E70600206910F0CFF9019BCB
:10741000002B06D0002E06D00321206910F0D8F9E9
:10742000C1E7002EBFD1013DBDE7002310B5827D2D
:107430009A420CD0882292008218D468802252008E
:10744000944204D02530FF30FFF795FF0123180048
:1074500010BD0300FC33DA68002A09D09A68805C0A
:107460009A680132D2B29A60DA68013ADA607047FB
:1074700001204042FBE700228C2370B59B008275FF
:1074800004000E00C15C006910F0B8F9002806D1B4
:107490000321206910F09CF90225280070BD882383
:1074A0009B00E318DD68002D11D020002530FF304F
:1074B0002569FFF7CEFFC1B2280010F0E1F90028DE
:1074C000EDD10321206910F083F90325E5E7002EB3
:1074D000E3D00321206910F07BF9DEE710B5183006
:1074E000FFF7B7FF10BD70B50400006910F0EEF9AA
:1074F000002815D0206910F000FA002811D020696A
:1075000010F05CF90321206910F062F98E239B00D2
:10751000E558002D35D10023FC34E361236263621A
:1075200070BD206910F0F3F9002809D0206910F02F
:10753000E9F9002804D0206910F0EEF90028DED027
:10754000206910F0E4F9002821D1206910F0D0F969
:107550000028E5D0206910F0DFF9002833D0882317
:107560009B00E318DB68FF21002B05D020002530AD
:10757000FF30FFF76EFFC1B2206910F099F9A075D6
:10758000CEE7236820001B699847A847C3E7206916
:1075900010F014F92069032110F01AF9206910F095
:1075A000BBF90028BCD0882300229B00E3185A6056
:1075B0009A60DA600123A3758D239B00E358934200
:1075C000AED09847ACE72300FC335A6A8023206989
:1075D0005B009A4206D110F0E9F80321206910F00F
:1075E000F7F89DE710F09DF9010020001830FFF733
:1075F000C2FE206910F0E2F8EFE7000010B5024883
:10760000FFF771FF10BDC0463448002010B50C23B1
:107610000B2202490248FFF75BFE10BD60500020BC
:1076200034480020704710B5040012F0B5FA20006D
:1076300010BD436810B5181E00D0984710BD4160BA
:1076400070470000054B0648083310B5036000235F
:10765000044A0549436012F00FFB10BDC826020022
:10766000704A0020000000202576000013B56B460C
:107670000268D9710733546819000122A04716BD6A
:1076800013B56B46DC1D036801225B6A2100984735
:10769000012801D1207816BD01204042FBE710B53A
:1076A000006903681B6B984710BD036870B5DB6AFF
:1076B00004000D0016009847002809D02368320006
:1076C0005B6A290020009847431C03D1002001E099
:1076D0000120404270BD036870B5DB6A04000D00F4
:1076E00016009847002807D0236832005B682900FD
:1076F00020009847002801D10120404270BD0000C1
:10770000F8B505000F0016000024B4420AD20B4B56
:1077100032003900E8180CF0ACFC00280BDB3F18F5
:107720002418F2E7B44206D1044BE8180CF0C3FC6D
:10773000C043C01704402000F8BDC0460C3B000009
:1077400010B50400044BC0180CF0B5FC20690368A8
:10775000DB68984710BDC0460C3B0000044B10B5D9
:10776000C0180CF02FFCC343DB17184010BDC046F7
:107770000C3B000010B5024BC0180CF0FFFB10BD15
:107780000C3B000013B56B46DC1D064B0122C018F4
:1077900021000CF03BFC012801D1207816BD01200E
:1077A0004042FBE70C3B0000084B10B50833036078
:1077B000030030331B780400002B04D0806A0028BB
:1077C00001D015F0D7FA200010BDC046D83F020006
:1077D00010B50400FFF7E8FF200012F0DDF92000EB
:1077E00010BD10B5040000690368DB6A98470028E3
:1077F00007D0200038300BF025F80138431E98419F
:10780000C0B210BD10B5040000690368DB6A984778
:1078100000280DD0200038300BF014F8C30703D433
:10782000044BE0180CF052FC206903689B6A9847EF
:1078300010BDC0460C3B000030B5FA258361030043
:107840000024AD008560074D303308350560446085
:1078500001614261C461046244628462C4621C705A
:1078600030BDC046D83F020010B504000F23024AC5
:10787000FFF7E2FF200010BDE82C020010B5016206
:1078800017242021C3620023C46141628262303028
:10789000037010BDF0B505000400444B8FB03835BF
:1078A00042690591C118836928000AF099FB404B91
:1078B000404AE118280001230AF0ECFD3E4E06AFD5
:1078C0003000FEF721FD002809D10026FF2100200D
:1078D00011F017FDB8550136202EF7D12DE03000FC
:1078E000FEF77DFE0028F0D0202239003000FEF7A0
:1078F000EAFE0028E9D0314B314A3249A350324ADE
:107900006118A2580B60314BE3181A60E36A002B30
:1079100013D0636A002B10D004F0A8F92C4B21007F
:107920000393022301932E330093230002901C3310
:107930000122283128000AF0C7FA39002022280045
:107940000AF000FE0022059928000AF0F9FA214801
:10795000FFF76FFE204B2149E618070012F0A8F947
:107960001F4B1E49C0187063380012F027FA1D4BD8
:10797000B1631D4AE6182369300001930092290083
:107980001A4A0CF0F3FA30000CF095FB082601249B
:1079900028000AF057FF0300334004D12042F7D0FB
:1079A00018000FB0F0BD0120FBE7C046880D0000B5
:1079B000701900009A210000E4460020A959010036
:1079C000440D0000641900003C0D0000681900001F
:1079D0006D590100704A0020840E000080510100A2
:1079E000A8FA0A000C3B0000D7760000AB76000036
:1079F00030B50400006949680368084D85B00191FD
:107A00000391DB69029502A99847002803D0002161
:107A10002000FFF73FFF05B030BDC0469C75020057
:107A200070B5040000690D0003681B6A98470028C0
:107A300003D029002000FFF72DFF70BD4369C06906
:107A4000181A7047036810B51B690400984700288E
:107A500005D0E369A269591CE161D05C10BD012029
:107A60004042FBE7036810B51B69040098470028F3
:107A700003D0A269E369D05C10BD01204042FBE75E
:107A8000704713B56B460268D97107335468190003
:107A90000122A04716BD036870B59B6A050014005B
:107AA0009847002802D1012304006B60200070BDBC
:107AB000002370B54360FA2304009B008360084BE9
:107AC0000D000833036021614261C261100015F0AE
:107AD00047F9A061280015F043F92062200070BD2D
