:020000040000FA
:10000000FC7F0020790B0000690B00006D0B0000E5
:1000100000000000000000000000000000000000E0
:10002000000000000000000000000000710B000054
:100030000000000000000000750B0000CD0C000067
:1000400010B5064C2378002B07D1054B002B02D0AE
:10005000044800E000BF0123237010BD5C000020B5
:1000600000000000CC1E000008B5084B002B03D098
:100070000748084900E000BF07480368002B03D089
:10008000064B002B00D0984708BDC046000000007A
:10009000CC1E00006000002058000020000000007E
:1000A000064B0322104002040549586808401043DB
:1000B0005860DA695107FCD47047C0460008004216
:1000C000FFFFFCFF38B5284A284B5A805A7852B2B5
:1000D000002AFBDB264B04211A6A264D0A431A62CA
:1000E0002B68012213432B602A680123214C1A42FA
:1000F000FAD1E2691A42F7D11423236041001E4865
:1001000001F008FD421EE068FF231A4098431043A7
:10011000E0602368022213432360EA69154B9107CC
:10012000FBD45A8B30218A4310210A435A83EB694E
:1001300001205A07FBD4114B02241A7802431A708B
:100140000F4B0F22197891431970197821431970B8
:100150000C490C782043087019780A401A701A78F4
:1001600020210A431A7038BD14400000000C0040E2
:100170000004004000080042006CDC0248440041DA
:100180003444004149440041F7B500230F1C01925B
:100190001D1C994254D001212A4E4000084333705F
:1001A000C1B2294B0322588B1C1C000910400128A6
:1001B00004D05B8B1B091A40022AF2D1606AC00A84
:1001C000C00208436062217E1F4B0122880708D4C9
:1001D000197E1142F7D05968C02292020A435A6030
:1001E00003E05B8B9B08134201D0002528E03270AE
:1001F000237E9907FCD5154A154B117801251970F6
:100200006268BD4212D0134B022013406360FFF7B7
:1002100047FF33785A1C3270227E9007FCD50B4979
:100220000B480A780135C254EDB2E9E78023DB02BE
:10023000134363600199002902D00320FFF730FFC8
:10024000281CFEBD7800002000080042280800425B
:1002500099000020FFFFFBFF024B00221870024BA9
:100260001A7070477A00002079000020F8B5274BFB
:100270001C786400E4B2264B03215D8B1A1C2D0907
:100280000D40012D04D05B8B1B0919400229F2D1CE
:10029000536ADB0ADB0223435362117E01231942B6
:1002A000FBD01B49498B8908194204D00320FFF772
:1002B000F7FE022427E017490D782B1C002B11D0E4
:1002C000154EEC1A365D154C2670114E177E012422
:1002D000768B274202D12642F7D00BE0B6082642A1
:1002E0000ED007E00B701C1C00280CD00320FFF779
:1002F000D7FE08E003200B700324FFF7D1FE02E0D5
:10030000013BDBB2DAE7201CF8BDC0467A000020D2
:1003100000080042790000207B00002028080042ED
:10032000034A1378591C1170024AD05401207047B7
:10033000790000207B000020154A164B1178002917
:1003400009D11549187809784118C9B21970802067
:1003500012494003C86111780131C9B2117019788E
:10036000F02902D81978092909D80B4908784042A0
:10037000C0B20870187809784118C9B2197012789B
:100380001B789A4203D18022044B5203DA617047F2
:100390007D000020010000200000002000440041FA
:1003A00010B5041C6B20FFF757FF201CFFF7B8FFA8
:1003B0000120FFF75BFF01210A1C6B20FFF7E4FE21
:1003C000014B187810BDC0469900002038B5051CB7
:1003D0006B200C1CFFF740FF281CFFF7A1FF201C1F
:1003E000FFF79EFF0120FFF741FF022038BD08B54F
:1003F0000520FFF7D5FFCE23011C19400520FFF78C
:10040000E5FF012008BD000010B5041C0020FFF727
:10041000C7FF78232D4A9843C1B2944242D018D8DE
:100420002B4B9C4238D009D82A4B9C4230D02A4BC7
:100430009C422FD0294B9C4245D13FE0284B9C4207
:100440002CD0284B9C422BD0274B9C423BD12023C5
:1004500033E0264A94422BD00AD8254B9C4223D025
:10046000244B9C4222D0244B9C422CD1402324E09C
:10047000224A94421ED004D8214B9C4223D16023AF
:100480001BE0204A944217D01F4A944215D01AE02C
:10049000082312E0102310E018230EE028230CE0BC
:1004A00030230AE0382308E0482306E0502304E024
:1004B000582302E0682300E0702319430020FFF76F
:1004C00085FF012000E0002010BDC046581100004B
:1004D00018100000780F0000C80F0000280F00005F
:1004E000B810000008110000681000009812000009
:1004F000F811000048120000A81100003813000095
:10050000E812000088130000D813000010B5041C86
:100510000020FFF745FF07239843E122C1B2920074
:10052000944220D008D8962C18D0FA235B009C4225
:1005300017D0642C22D11CE0114A944215D005D862
:100540009623DB009C4219D1042311E0FA22D20049
:1005500094420CD00B4A94420AD00FE0012421436C
:1005600007E0022304E0032302E0052300E0062362
:1005700019430020FFF72AFF012000E0002010BDF2
:10058000DC050000B80B000070B504AC267805ACA3
:100590002578441EA041C401002901D040210C430C
:1005A000002A01D020221443002B01D010231C4329
:1005B000002E01D008231C43002D01D004231C432E
:1005C0000220FFF7EDFE0125011C294021430220F6
:1005D000FFF7FCFE281C70BD10B5041C0420FFF7BB
:1005E000DFFE03231840084B9C4204D0074B9C427B
:1005F00008D1B02100E0982101430420FFF7E6FE76
:10060000012000E0002010BD10100000701000005C
:1006100008B50120FFF7C4FECF23011C19400120BB
:10062000FFF7D4FE012008BD07B5FFF7E0FEFFF796
:10063000EFFF0948FFF7E8FEFA20C000FFF766FF6A
:10064000002300930193181C191C1A1CFFF79CFF30
:100650000248FFF7C1FF07BD08110000101000009D
:1006600008B50348FFF72EFDFFF7DEFF08BDC046C3
:10067000A086010010B5C3699C07FCD4036802245E
:10068000A3430360C46901231C42FBD104682343D4
:1006900003600368DC07FCD4C46901231C42FBD15E
:1006A000C469DC401C42F7D1084B1A430260C3699D
:1006B0005A07FCD4C0239B0243608181C3699C0715
:1006C000FCD4036802221343036010BD0400004001
:1006D000037EDA07FCD5018570470000027E012306
:1006E0005107FBD5428B1A4207D1428BDA401A429E
:1006F00003D1428B92081A4202D0034B01221A7096
:10070000008DC0B27047C0467E00002070B50368FF
:10071000041C988B1A1C0821FF32084226D0802026
:1007200099839872112353704021144B9171507129
:100730005E68134DC0202E40800506435E605E69F2
:100740003540284358610F4818600F4818615D68AC
:100750000E4828408025AD02284358605868800B19
:100760008003586000235171237105E0137ADA0683
:1007700002D5201C00F0E4FA207970BD9C01002015
:10078000FFFFFF8F9C0000201C010020FF3F00F0B6
:10079000002303714371044B016083600B780222D4
:1007A00013430B707047C0460D07000038B5364B39
:1007B0002021DA6901200A43DA61344B06241A78D1
:1007C00002431A70324B0F2219789143197019782D
:1007D000214319702F490C782043087019780A407A
:1007E0001A701A7860210A431A702B4B2B4A5A80D0
:1007F0005A7852B2002AFBDB294B01211A780A43AE
:100800001A709A78D107FCD426480268510B1F222F
:100810001140914200D1052111408C011D8D2249CA
:100820002940214319850468A10C0A401F2A00D1E0
:100830001D221C8D1F210A408C4322431A85026809
:100840000721D20D0A408A4200D103220A40188DA6
:100850001103164A02400A431A8519787F220A407A
:100860001A701A78042112480A431A7058621A89B9
:100870000C218A431A811A8901218A431A81002195
:10088000802201F0A0F938BD000400405844004126
:100890003C44004159440041000C00400640000027
:1008A00000500041246080003FF8FFFFFF8FFFFFF2
:1008B0009C010020F7B5141C1F4A5F0101971D1C05
:1008C000D319061C5869271C4000400F0330103311
:1008D000C74006D00F1C8022596812060A435A608E
:1008E00009E02F1C7B1E9F41144BBF01FF18381CD1
:1008F000221C01F05FF901990F4808354218176171
:10090000131C5269A104920B890C92030A435A6189
:1009100059690B4A0A405A616B01F3180222DA71D5
:100920005979802252420A435A716B01F318DB79DC
:100930009A07FAD5201CFEBD9C0100201C01002056
:10094000FF3F00F0F8B51A4E051C3378141C002B3D
:1009500012D1184B184A1A645A6C920B92035A64BB
:10096000586C164A02405A64A2235B00EA5C40209D
:100970000243EA54012333704827FF37EA5D01231D
:10098000134012D00B4B5A6C9204920CA24202D22A
:100990005C6CA404A40C081C221C074901F00AF991
:1009A0000123EB550023337000E01C1C201CF8BD14
:1009B0007F0000209C010020DC000020FF3F00F0B1
:1009C000FF3083792022002900D110221343837144
:1009D00070470000084BFF305A69920B92035A612E
:1009E00002230372827980235B4213438371037A6B
:1009F0009A07FCD57047C0469C01002080235B42CB
:100A00001943C9B28172704770B5A02303225B00FD
:100A1000C254134B134A5C6CC021144089050C432B
:100A200046255C64FF35402444550F4D30261D6437
:100A300090256D0046555D6B1540294392255963FD
:100A40006D0080214155094D1D63B0256D00445551
:100A50005C6F22405A67B2235B00C15470BDC04630
:100A60009C010020FFFFFF8FDC0000205C010020C4
:100A7000024B5B785BB2002BFADB7047000C004046
:100A8000024BDB68DA06FBD57047C0460008004021
:100A9000F8B52A4B1E22596891430222114359602E
:100AA000274B28491E1C9982998A0A439A82F36827
:100AB0000227234C3B42FAD0234D0123AB60FFF7C2
:100AC000D7FF224B6B60FFF7D3FF8223DB016B80E4
:100AD000FFF7CEFFA38C80229343A384FFF7D0FFC0
:100AE0001B4BE362FFF7CCFFA38C1A4A1343A3848A
:100AF000FFF7C6FFA38C1F43A784F3681A06FCD533
:100B00000F4BDB685A06F8D50024FFF7B9FFAC603D
:100B1000FFF7AEFF104B6B60FFF7AAFF0F4B104AB9
:100B2000C0215A600F4A0906106A0002000A0143F8
:100B3000116207229C601A60F8BDC0460040004167
:100B4000000800400C060000000C004001050100F8
:100B5000B805FF7D040A00000007030010E000E074
:100B6000E703000000ED00E00EBEFEE70DBEFEE76D
:100B700005BEFEE702BEFEE70E4A0F4838B58242C8
:100B800004D10E4A0E4B93420ED10AE00D4C944212
:100B9000F7D00023D1188842F3D9E55804330D600B
:100BA000F8E700F011F804E09342FAD2002102C302
:100BB000FAE7FEE7000000205C000020AC03002004
:100BC0005C000020D01E000038B5344D2B68013386
:100BD0001AD0334B2A1D1A60EAB2002A14D1314BC5
:100BE000197801231940304B0AD118682F4A9042D6
:100BF00001D1196008E01A602D4A013A002AFCD19F
:100C00001A602C4B01221A70FFF742FF62B6FFF701
:100C100027FD284B284C1B78002B0AD02B6883F328
:100C200008881E4BFF229343A3601D4B1B681B6863
:100C3000184700F09DFD00F04FF8204B8022520332
:100C40009A601F4B1F4A051C5A60216AC022090284
:100C5000090A12060A43226200229A6007221A60D9
:100C6000AB68281C9847184B002801D001221A7045
:100C70001A78002A05D0002000F08CFA00F004FB5E
:100C8000FCE71B78002BEBD100F0E6FD0028E7D055
:100C9000012000F07FFA00F0F7FAFCE700200000E6
:100CA0001C02002038040040FC7F002035817307BF
:100CB00048E801008000002000ED00E00044004111
:100CC00010E000E0E70300008100002008B5FFF716
:100CD00033FB00F0C3FA08BD10B5054B054C23608B
:100CE000FFF764FD201C2168FFF752FD201C10BD9A
:100CF000005000412002002070B5051CC0B0081C47
:100D0000161C0C1C00F067FF40006A4603230230EB
:100D10005370107076080123E218013A11785A00D6
:100D2000002906D1281C69460023FFF7C3FD40B007
:100D300070BDB342F6DA684681520133ECE7000039
:100D4000F7B5BA4A04681378B949271CFF37051C60
:100D5000102038720B705378B648B74E03709378F2
:100D60003380D178338809020B4333801179B34B38
:100D70001980517918880902084318809079B04980
:100D80000880D2790888120202430A8040227A71D0
:100D9000A84F3A78A64F120238780F1C0243A94890
:100DA0008446181C624500D1C2E020DC8021490045
:100DB0008A4200D16EE109DC812A00D192E0822AC8
:100DC00000D195E0802A00D064E18BE081235B00B4
:100DD0009A4200D1CFE000DA58E1C0239B009A424A
:100DE00000D157E1984B9A4200D14FE152E1902354
:100DF0001B019A4269D015DCD023DB009A4222D035
:100E000088231B019A4269D0A023DB009A4200D0BC
:100E100040E1201CFFF7DEFD3188286889B2FFF72A
:100E2000EDFD3BE1894B9A4200D12FE100DC31E13D
:100E3000874B9A4200D11DE1864B9A4200D029E1AE
:100E400033886B7122E133881B0A012B08D10B8890
:100E500012222868934201D80A8892B27E4911E191
:100E600033881B0A022B08D10B884322286893423F
:100E700001D80A8892B2794904E133881B0A032B0E
:100E800000D007E13388DBB2012B17D0002B07D04D
:100E9000022B00D0FEE00A882868D2B2704911E027
:100EA000042201A86F4900F085FE3B8804222868CF
:100EB000934201D83A8892B201A9E3E00A882868EF
:100EC0006949D2B2FFF718FFE8E03388201C2B7184
:100ED000FFF780FD201CFFF797FDDFE0291C01C90B
:100EE0000122CFE0614900230B8028680222CAE07A
:100EF0005E4900220A801888502210405C4A107017
:100F00001E880F20304018801888032800D9C1E0BF
:100F100012781B8808335B01E418A379002A01D0FA
:100F20009B0600E0DB06DB0F0B8028680222A9E0AD
:100F300019887F2291434E4AC9B2117018880F2137
:100F4000014019803188002900D0A3E019880029C8
:100F500000D19FE01988032900D99BE012781B88F3
:100F600008335B01E318002A02D020225A718DE079
:100F7000102159718AE002887F239A433C4BD2B2F8
:100F80001A7001880F220A4002803288002A00D09D
:100F900080E00288002A00D17CE00288032A00D980
:100FA00078E01B78002B1FD0038808335B01E3181F
:100FB0009B799A066AD50388202208335B01E318DF
:100FC0001A71038808335B01E318DB795F065DD58E
:100FD0000388402208335B01E318DA710388022298
:100FE00008335B01E3181EE0038808335B01E31854
:100FF0009B79D9064AD50388102208335B01E31890
:101000001A71038808335B01E318DB799A063DD532
:101010000388202208335B01E318DA710388012278
:1010200008335B01E3181A7130E0C0469C000020D1
:1010300083000020880000208A0000208C0000200F
:1010400086000020020300000103000021200000B0
:10105000A121000021220000201C0000040000202B
:101060000C1C0000FC1B0000001C00008400002081
:10107000820000200B8808222868934201D80A8841
:1010800092B207490023FFF715FC07E0201CFFF789
:10109000A1FC03E0201C0121FFF792FCF7BDC04634
:1010A0004800002007B5054B0122019001A91868EE
:1010B000131CFFF7FFFB01200EBDC04620020020DD
:1010C00013B5054B6C4607341868211C0122FFF745
:1010D00039FC207816BDC0462002002010B5074C10
:1010E000201CFFF713FB031C0020834205D022685D
:1010F0004823FF33D05C0123184010BD200200209C
:1011000010B5054A0C1C031C191C10680123221C75
:10111000FFF7D0FB201C10BD2002002070B5084C4A
:10112000061C201C0D1CFFF7F1FA0023984205D085
:101130002068311C2A1CFFF705FC031C181C70BD1D
:1011400020020020F8B50C4C051C201C0E1CFFF7DB
:10115000DDFA0023271C341C98420AD0002C07D04B
:10116000291C221C3868FFF7EDFB241A2D18F5E71F
:10117000331C181CF8BDC0462002002008B5031C13
:10118000081C111C9847024B64221A8008BDC046F7
:1011900092000020012805D1054B064A1A60064B33
:1011A000187004E0002802D1044A014B1A6070470D
:1011B00090020020541C000098000020A01C000099
:1011C00030B50A1C1C4985B00978031C00292AD0B7
:1011D000042A01D1006804E0022A01D1008800E05D
:1011E0000078520004A98B180B3B9C1AA3420BD029
:1011F0000F210140092902D83025294300E0373169
:1012000019700009013BF1E701A930230B70782325
:101210004B700A208B1898700D20D870074B043241
:101220001B68D86803E005490968C868191CFFF7FE
:10123000A5FF05B030BDC0468E0000209002002002
:1012400072B6EFF30883044A1360036883F30888D7
:10125000436818477047C04694020020084B1A881C
:10126000002A03D01A88013A92B21A80054B1A88D4
:10127000002A03D01A88013A92B21A807047C046F9
:101280009200002090000020F0B591B008A9CC4A4F
:101290000B1C31CA31C351CA51C360CA60C3C94BA8
:1012A000C9489A687A255203520F92005258C7498A
:1012B00002609C68A4B262430C60C54900240A60C5
:1012C000C44A1460C44C2570C44CC54D2368281C06
:1012D0001B6940219847002802D0C24B64221A8023
:1012E000C14B00221860C14B1D60C14BC04DBE4FA9
:1012F0001A602A683B689A42E6D2BC4B1B681A788F
:10130000FF2A00D114E2232A00D0EBE1B94E337852
:10131000002B06D0B14BB8491B680222D868FFF7F2
:101320002DFFAD4B1B78532B3CD13B682A68934271
:101330001ED9AE4801322A609A1AB04B01681B6868
:1013400001310160AE4E9A4201D2326000E033605A
:10135000A04832680068049000F02CFC33682968CB
:101360005A182A60A14A1668F1181160A54A13702C
:101370002B68013B2B609D4B1A68013A1A60A14B08
:101380009E4A1B7811688B420AD222689148C91A7A
:10139000006892699047002802D0924B64221A801C
:1013A000C0468DE1522B0AD18A48944A23680068CE
:1013B00011685B69039098476422934B0DE04F2BB3
:1013C00005D1844B8D4A1B6812681A7078E1482B4E
:1013D00005D1804B894A1B6812681A8070E1572B2F
:1013E00005D17C4B854A1B6812681A6068E16F2B37
:1013F00003D1784B0121186807E0682B08D1754BA1
:101400007E481B6802211B880360FFF7D9FE57E165
:10141000772B06D16F4B79481B6804211B6803604A
:10142000F3E7472B13D1754B1868FFF709FF774B8C
:101430001B6883F3088862B6754B1B78002B00D1BC
:101440003EE1664B06201B681B68984738E1542B29
:1014500004D101233370614B1B6864E04E2B0CD127
:101460003378002B06D15D4B63491B680222D86894
:10147000FFF784FE0023337022E1562B57D12368F7
:101480006449D8680122FFF779FE23686249D86869
:101490000322FFF773FE614D2368291CD8680122DF
:1014A000FFF76CFE23685E49D8680D22FFF766FEE1
:1014B0002368291CD8680122FFF760FE4B4F4C4D72
:1014C0005849002339602B603A1C281C13685E1CA5
:1014D00016601B780593002B03D00368013303606B
:1014E000F4E73E4E2A683368D868FFF747FE336852
:1014F0004A49D8680122FFF741FE059929604A4907
:1015000039603A4A1368581C10601B78002B04D0CD
:10151000374B1A6801321A60F3E733682A68D868D3
:10152000FFF72CFE3368D86833490222C6E0334AFD
:10153000582B17D1244E264D366813682A68B100FF
:1015400093420AD21F4D5808E861384828801D4D43
:10155000287DC607FBD55B18F2E7204B34491B6892
:10156000D868AAE0592B79D112681A4B3149002A60
:1015700002D11B680B606CE0124D086819686B683B
:10158000104E8025AB4392087360002A61D02A4B2D
:101590000C4D2B800B4E337DDD07FBD500230A4D10
:1015A0002D680195AD08AB4203D3244D054E35801F
:1015B00046E09342F9D09D00465901334E51EEE783
:1015C000341C00000040004148020020400200207E
:1015D0003C0200208C0200203802002090020020F3
:1015E0004C02002090000020300200203402002035
:1015F000440200208E000020941C0000980200206D
:101600009C0200202C020020920000209402002066
:1016100098000020701C0000991C0000721C000043
:10162000BC1C0000741C0000801C000002A5FFFF11
:10163000891C00009400002044A5FFFF04A5FFFFC3
:101640003F4E357DEE07FBD59D0049194019D21A52
:101650009BE73C4B3C491B68D8682EE05A2B2FD1A6
:101660003A4B17681D680026EF19BD4206D028784E
:10167000311C00F013F90135061CF6E7314B3449F3
:101680001B680122D868FFF779FD07230F2232403B
:10169000111C36093031092A00DD07311820C01825
:1016A0006A468154013BF1D2236806A9D868082212
:1016B000FFF764FD23682749D8680322FFF75EFD22
:1016C000254B7A221A70254B00221A60244B1B7876
:1016D00093422DD01B4B23491B680122D868FFF78A
:1016E0004DFD25E0111C3039C8B21C4B092804D827
:1016F0001D682A01114319601AE0111C413905299E
:1017000003D81E68373A310106E0111C61390529FA
:1017100004D81868573A01010A4308E02C2A03D17B
:101720000A4A1968116001E00B490A7000221A6028
:101730000D4B1A6801321A600C4B1A680132D5E55C
:1017400000400041900200208D1C00008C0200200F
:10175000911C0000931C0000380200209802002019
:101760008E000020971C000044020020340200205C
:1017700010B51C4B01201A78032402431A701A4B2F
:101780000F2219789143197019782143197017495C
:101790000C782043087019780A401A701A783021A2
:1017A0000A431A70124B80211A6A0A431A62114BBB
:1017B000114A5A805A7852B2002AFBDBC4220F48E1
:1017C0000F499203FEF756FF0E4A002313700E4A8C
:1017D00013700E4A13700E4A13700E4A13700E4A9D
:1017E000137010BDD6440041BB440041D7440041B2
:1017F00000040040000C004019400000001C0042A2
:101800002AF60000A002002027030020A1020020E9
:10181000A4020020280300202503002008B5C1B23F
:101820000248FEF755FF012008BDC046001C0042DB
:10183000024B187E4007C00F7047C046001C004294
:1018400008B5FFF7F5FF0028FBD00248FEF746FF7A
:1018500008BDC046001C004208B5FFF7E9FF0023A1
:10186000984205D0FFF7ECFF031C233B5A4253413B
:10187000181C08BD70B5041C0D1C4618B44204D0D9
:101880002078FFF7CBFF0134F8E7281C70BD10B5B6
:10189000041CFFF7D5FF2070012010BD0B0A584033
:1018A000034B4000C05A0902484080B27047C0460E
:1018B000CA1C0000F7B50024051C0F1C261CBC42E6
:1018C00020D0FFF7BDFF114BC0B21B780190002B59
:1018D0001AD1311CFFF7E2FF0D4B061C1A88002AB3
:1018E00004D10C4A11782A1C002907D001996A1CDE
:1018F0002970802F02D11988013919800134A4B2CE
:10190000151CDCE7301C00E00120FEBD2503002093
:10191000A202002026030020F0B53E4E85B0002232
:1019200003900C1C32703C4B914201D1012201E02A
:101930003A490C801A707F231C4201D080349C43AA
:10194000FFF77EFF3378C0B2002B07D0002535703B
:10195000FFF776FF3378C0B2AB4236D1432803D0CD
:10196000712853D01528EBD1012300930120FFF7F4
:1019700055FF0098FFF752FF00998025C843C0B279
:10198000FFF74CFF039B00270293244A1388002B88
:101990001DD1214901930978002918D10198FFF739
:1019A0003DFF391C0198FFF779FF013D071C002D11
:1019B000EBD1000AC0B2FFF731FFF8B2FFF72EFFFC
:1019C000FFF73EFF3378002B0AD035701FE00299F5
:1019D000013B09781380029B019101330293DDE7FB
:1019E000C0B2062807D1009B03990133DBB28031D6
:1019F0000093803C0391002CB8D10420FFF70EFF28
:101A0000FFF71EFF044B01251C7000E00025281C79
:101A100005B0F0BD2503002026030020A20200200F
:101A2000F0B5384C87B0002301902370994201D162
:101A3000012301E0344A1180344A642613704320A4
:101A4000FFF7ECFE324FFFF7F3FE002803D1002F23
:101A500003D0013FF7E7002F03D1013E002EEED166
:101A60004DE00125FFF7ECFE2378002B38D1C0B202
:101A70000290012805D004283DD10620FFF7CEFEB4
:101A800039E005AE0221301CFFF714FF01988021D8
:101A9000FFF710FF23780390002B18D1FFF7D0FE3B
:101AA0000702FFF7CDFEBFB223783F18BFB2012B6C
:101AB0000DD0039B9F4207D13378AB4204D1EB4357
:101AC0007278DBB29A4204D01820FFF7A7FE0023F9
:101AD00003E00620FFF7A2FE029B2278002A02D034
:101AE000002626700BE0012B05D1019A6B1C803279
:101AF000DDB20192B6E7054A002313700126301CBF
:101B000007B0F0BD25030020A2020020260300201C
:101B100000350C00002934D00123002210B4884283
:101B20002CD301242407A14204D2814202D209010C
:101B30001B01F8E7E400A14204D2814202D249002D
:101B40005B00F8E7884201D3401A1A434C08A042D0
:101B500002D3001B5C0822438C08A04202D3001B66
:101B60009C082243CC08A04202D3001BDC0822437D
:101B7000002803D01B0901D00909E3E7101C10BCA1
:101B80007047002801D00020C04307B4024802A1DA
:101B90004018029003BDC046190000000029F0D093
:101BA00003B5FFF7B9FF0EBC4243891A1847C04678
:101BB0007047C04610B50023934203D0CC5CC45498
:101BC0000133F9E710BD031C8218934202D019704B
:101BD0000133FAE770470023C25C0133002AFBD1CE
:101BE000581E7047F8B5C046F8BC08BC9E46704702
:101BF000F8B5C046F8BC08BC9E467047040309040B
:101C000041726475696E6F204C4C4300417264757B
:101C1000696E6F204D4B52204E42203135303000DE
:101C2000120100020200004041235500000201029F
:101C3000000100000800000010000000200000006B
:101C400040000000800000000001000000020000D1
:101C5000000400001D1800004118000031180000A9
:101C6000751800008F18000019190000211A0000D3
:101C7000760020004170722031312032303139003D
:101C800031333A30393A353700580A0D00590A0DC8
:101C9000005A00230A0D003E00322E3000000000E2
:101CA000A5100000C1100000DD10000001110000AF
:101CB0001D11000001110000451100005B4172641C
:101CC00075696E6F3A58595A5D0000002110422024
:101CD00063308440A550C660E770088129914AA10D
:101CE0006BB18CC1ADD1CEE1EFF131121002733284
:101CF0005222B5529442F772D662399318837BB35D
:101D00005AA3BDD39CC3FFF3DEE362244334200413
:101D10000114E664C774A44485546AA54BB52885AC
:101D20000995EEE5CFF5ACC58DD553367226111663
:101D30003006D776F6669556B4465BB77AA71997FC
:101D40003887DFF7FEE79DD7BCC7C448E5588668EB
:101D5000A7784008611802282338CCC9EDD98EE94C
:101D6000AFF9488969990AA92BB9F55AD44AB77AC3
:101D7000966A711A500A333A122AFDDBDCCBBFFB9C
:101D80009EEB799B588B3BBB1AABA66C877CE44CD3
:101D9000C55C222C033C600C411CAEED8FFDECCDEC
:101DA000CDDD2AAD0BBD688D499D977EB66ED55EA3
:101DB000F44E133E322E511E700E9FFFBEEFDDDF3C
:101DC000FCCF1BBF3AAF599F788F8891A981CAB1C8
:101DD000EBA10CD12DC14EF16FE18010A100C230FA
:101DE000E3200450254046706760B9839893FBA3B5
:101DF000DAB33DC31CD37FE35EF3B1029012F3224A
:101E0000D2323542145277625672EAB5CBA5A89504
:101E100089856EF54FE52CD50DC5E234C324A01499
:101E200081046674476424540544DBA7FAB7998794
:101E3000B8975FE77EF71DC73CD7D326F2369106E9
:101E4000B01657667676154634564CD96DC90EF9DC
:101E50002FE9C899E9898AB9ABA944586548067839
:101E60002768C018E1088238A3287DCB5CDB3FEBF4
:101E70001EFBF98BD89BBBAB9ABB754A545A376A89
:101E8000167AF10AD01AB32A923A2EFD0FED6CDDC4
:101E90004DCDAABD8BADE89DC98D267C076C645CD9
:101EA000454CA23C832CE01CC10C1FEF3EFF5DCFD4
:101EB0007CDF9BAFBABFD98FF89F176E367E554E29
:101EC000745E932EB23ED10EF01E000000000000A2
:101ED00001140000090243000201008032090400DD
:101EE0000001020200000524001001042402000584
:101EF000240600010524010001070583030800FFF3
:101F000009040100020A00000007058102400000E8
:101F1000070502024000000000C2010000000800A6
:0C1F20006900000041000000000000000B
:1020000000800020F58C0100DD8C0100DD8C0100DA
:1020100000000000000000000000000000000000C0
:10202000000000000000000000000000DD8C010046
:102030000000000000000000DD8C0100498D01005F
:10204000DD8C0100DD8C01003D520000798701002C
:10205000DD8C0100DD8C0100DD8C0100E18C0100D4
:10206000DD8C0100DD8C0100DD8C0100E17B0000D6
:10207000DD8C0100358C0100258C0100DD8C010018
:10208000DD8C0100DD8C0100DD8C0100DD8C0100A8
:1020900000000000DD8C0100DD8C0100DD8C010002
:1020A000DD8C0100DD8C0100DD8C0100DD8C010088
:1020B0000000000010B5064C2378002B07D1054B1B
:1020C000002B02D0044800E000BF0123237010BDA4
:1020D000C002002000000000B08A0200044B10B5CE
:1020E000002B03D00349044800E000BF10BDC046E8
:1020F00000000000C4020020B08A020010B50400F5
:10210000183019F0CAF9200010BD000010B50248BF
:1021100016F022FC10BDC0465C09002070B50125F8
:10212000184C194B19491A48E5541DF07DFD194901
:1021300019481DF079FD194919481DF075FD194B15
:1021400019491A48E5541DF06FFD194A194B1A49EF
:10215000E2520233E552194B1948E5540223E57166
:10216000E372237325721DF05FFD164916481DF0BA
:102170005BFD164916481DF057FD164916481DF01F
:1021800053FD70BDA44600204B0400006D260200E4
:102190006C4A002077260200DF4800207E260200DD
:1021A000BE480020490400008E260200E9480020B5
:1021B00078E6FFFF12020000B32602004A04000086
:1021C000D3460020B7260200F34600203134020037
:1021D00013470020B9260200534700200A21435E1E
:1021E0000200181E01D01B01D018704770B50D00F9
:1021F000041E0FD0C168A9420CD0002D06D00029C2
:1022000004D028001DF006FD002803D02000FFF7B1
:10221000E5FFEDE7200070BD4A688B6810329342FD
:1022200004D201230B74002318007047103B8B600D
:10223000002BF9D04268002A08D0991A091151815F
:10224000002243605A811A72DA60EDE70360F7E713
:10225000F7B5037804000D002B2B1DD02D2B1CD1BE
:102260000127013423781A00303A092A02D92E2B8B
:1022700000D0C9E000200A26644922781300303BD0
:10228000DBB2092B0BD8884211D8DA437043824263
:102290000DD3C0180134F0E701340027E2E7002A2B
:1022A00005D1002F18D080231B06984209D900269B
:1022B000574B98421AD90A21013619F089FC76B297
:1022C000F6E77F222B7A404293431A000A231343F6
:1022D0002B7228603800FEBD7F222B7A2860934342
:1022E0001A00082313432B720127F3E723781A00FF
:1022F000303A092A03D8013676B20134F6E72E2B9C
:102300000FD10A21434A01342378303BDBB2092B39
:1023100007D8904203D84843013E181876B20134DA
:10232000F2E7202322789A430023452A3AD16278A3
:102330002D2A1FD102340133019300232178303933
:10234000CAB2092A2AD80A225343CB18F1182629DF
:1023500022DD019A2B7A7F20002A11D00024002F41
:1023600001D0802424060C2183430B432B722C6064
:10237000019FAFE72B2A01D00134DDE70234DBE710
:10238000002F06D024490C22834313432B7229606B
:10239000AAE7FF21C905F6E70134CFE7019A002A31
:1023A00000D05B422478002C2ED1F6181AF002FCE3
:1023B000002E1ADD01231E4204D0184AA300D15872
:1023C0001AF0E2F801347610E4B2002EF2D1002FB8
:1023D00002D080231B06C0187F222B7A28609343EB
:1023E0001A000C2313432B727EE77642002EEED0A8
:1023F00001231E4204D00A4AA300D1581AF0C4F89F
:1024000001347610E4B2F1E7002763E7999999194E
:10241000FFFF7F00CBCC0C00000080FF8823020070
:102420007023020070B592B0FFF770FE954C03A8C0
:10243000210019F081F8210006A819F07DF821008B
:1024400009A819F079F821000CA819F075F88E493F
:1024500006A819F029F98D4C0FA8210003F098FE69
:102460000FA909A819F018F90FA819F016F82100FA
:102470000FA803F0A9FE0FA90CA819F00DF90FA8D9
:1024800019F00BF8824C834920001DF0CDFB8249E6
:1024900020001DF0A3FB814920001DF09FFB804D13
:1024A000200029001DF09AFB7E4920001DF096FBBC
:1024B0007D4E200031001DF091FB069920001DF09B
:1024C0008DFB310020001DF089FB290020001DF04C
:1024D00085FB764920001DF081FB310020001DF0B6
:1024E0007DFB099920001DF079FB310020001DF0D3
:1024F00075FB290020001DF071FB6D4920001DF0C7
:102500006DFB310020001DF069FB0C9920001DF0CF
:1025100065FB310020001DF061FB290020001DF04B
:102520005DFB644920001DF059FBFFF7EFFD0A2217
:1025300001000FA819F062F80F9920001DF04EFB62
:102540000FA818F0AAFF290020001DF047FB5A49E8
:1025500020001DF043FB8523584E9B00F15A0A22B0
:102560000FA819F027F80F9920001DF037FB0FA8CE
:1025700018F093FF290020001DF030FB5049200087
:102580001DF02CFB4F4B0A22F15A0FA819F012F83C
:102590000F9920001DF022FB0FA818F07EFF2900E4
:1025A00020001DF01BFB484920001DF017FB474B86
:1025B0000A2219780FA818F0ECFF0F9920001DF0DF
:1025C0000DFB0FA818F069FF290020001DF006FB85
:1025D0003F4920001DF002FB86239B00F15A0A228E
:1025E0000FA818F0E7FF0F9920001DF0F7FA0FA8C9
:1025F00018F053FF374920001DF0F0FA364D0A223B
:102600003649280018F023FF0A223549280018F01F
:102610001EFF2100280018F0C9FE02F0E9FD314933
:10262000280018F0C3FE30490FA818F085FF06A94E
:102630000FA819F0A3F82D4919F0ADF800222C4E7F
:10264000009213000100300013F00DFF0FA818F0E6
:1026500024FF2100300018F08DFE300014F0F9FA4C
:102660002449280018F0A2FE0CA818F016FF09A8AB
:1026700018F013FF06A818F010FF03A818F00DFFBC
:1026800012B070BD4C6402006C4A0020100800209B
:102690005E0900208B2702008D270200952702008B
:1026A000A0270200A227020086350200B027020000
:1026B000BC270200C5270200D2270200A446002042
:1026C000DC27020012020000E8270200BC070020FD
:1026D000FA27020005280200D45700203D3D3D3D69
:1026E0006E6F734A07280200202802002928020082
:1026F000140800203B280200F0B58BB0B94907A8A8
:1027000003F0A6FD07A819F0A9F90026029007A872
:1027100018F0C3FEFFF7FAFCB34904A818F00CFF49
:10272000B24D04A8290018F0BFFFB14CB1492000F8
:1027300018F03CFEB049200018F01CFE29002000D3
:1027400018F034FE3700B31C0393AC4B1B68BB423C
:1027500000DC42E1AA4CAB4920001DF065FAAA4911
:1027600020001DF03BFAA94920001DF037FAA84DC2
:10277000200029001DF032FAA64920001DF02EFA93
:10278000A54920001DF02AFA049920001DF026FA20
:10279000A14920001DF022FA290020001DF01EFA98
:1027A0009E4920001DF01AFA9D49BB00C9580A2213
:1027B00007A818F011FF079920001DF00FFA07A8CD
:1027C00018F06BFE290020001DF008FA9549200042
:1027D0001DF004FA944B0A22995F07A818F0EAFE4C
:1027E000079920001DF0FAF907A818F056FE2900F5
:1027F00020001DF0F3F98D4920001DF0EFF98C4BFE
:102800000A22995F07A818F0D5FE079920001DF04D
:10281000E5F907A818F041FE290020001DF0DEF9B7
:10282000844920001DF0DAF9834B0A22995F07A83A
:1028300018F0C0FE079920001DF0D0F907A818F085
:102840002CFE290020001DF0C9F97C4920001DF054
:10285000C5F97B4B0A22995F07A818F0ABFE0799D0
:1028600020001DF0BBF907A818F017FE2900200072
:102870001DF0B4F9734920001DF0B0F9724B0A2223
:10288000995F07A818F096FE079920001DF0A6F999
:1028900007A818F002FE290020001DF09FF96B49DF
:1028A00020001DF09BF96A4B0A22995F07A818F0D7
:1028B00081FE079920001DF091F907A818F0EDFDA1
:1028C000290020001DF08AF9624920001DF086F9D8
:1028D000614B0A22995F07A818F06CFE0799200047
:1028E0001DF07CF907A818F0D8FD290020001DF084
:1028F00075F95A4920001DF071F9594B0A22995F68
:1029000007A818F057FE079920001DF067F907A8DF
:1029100018F0C3FD290020001DF060F95149200086
:102920001DF05CF9504B0A22197807A818F031FE07
:10293000079920001DF052F907A818F0AEFD2900F4
:1029400020001DF04BF9494920001DF047F90A22EB
:10295000029907A818F02EFE079920001DF03EF9F5
:1029600007A818F09AFD424920001DF037F9204EC3
:102970004049300018F01AFD2100300018F016FD13
:1029800002F036FC3C49300018F010FD3B4907A826
:1029900018F0D2FD3A4907A818F0F0FE394918F0AE
:1029A000FAFE0022384D009213000100280013F0B7
:1029B0005AFD07A818F071FD2100280018F0DAFC74
:1029C000280014F046F93149300018F0EFFC2800D7
:1029D00013F0EAFD0137039EB5E604A818F05DFD8B
:1029E0000BB0F0BD480900204C6402006C4A002086
:1029F000D4570020BD260200DE2602000C0800206D
:102A00005E0900208B2702008D270200EE260200BF
:102A1000A0270200A227020086350200C527020077
:102A2000FC030020F526020064050020FB260200BE
:102A3000DC020020022702006C03002007270200AE
:102A4000440700200C270200DC05002012270200AA
:102A5000EC04002019270200540600201F27020062
:102A6000CC06002025270200BC0700202B270200EF
:102A70000528020031270200452702002028020015
:102A80005403002029280200140800203B280200DB
:102A900070B505000024AC420FDA0121062016F0C3
:102AA000E7FBC82002F0B4FB0021062016F0E0FB93
:102AB000C82002F0ADFB0134EDE770BD30B52A4906
:102AC00085B0040018F038FD284D280015F026FFC9
:102AD000092803D82649200018F024FE280015F004
:102AE0001DFF0A22010001A818F053FD01A92000D2
:102AF00018F006FE01A818F0D0FC280015F018FF09
:102B0000092803D81A49200018F00CFE280015F0F7
:102B10000FFF0A22010001A818F03BFD01A92000C7
:102B200018F0EEFD01A818F0B8FC280015F00AFF17
:102B3000092803D80E49200018F0F4FD280015F0EC
:102B400001FF0A22010001A818F023FD01A92000BD
:102B500018F0D6FD01A818F0A0FC0649200018F0D6
:102B6000E1FD200005B030BD4C6402005C0900208E
:102B70002B3502005E280200F0B593B01E0018ABA2
:102B8000019200229B5E0400029319AB0027DF5FD5
:102B90001AAB00229B5E0D0003931BAB00229B5ED1
:102BA000354904931CAB00229B5E3448059318F012
:102BB000FDFB06A8FFF782FF314B1B78002B56D098
:102BC0001723069A2F4909A814F098FC0A2221001D
:102BD00009A818F046FC2C4C09A8210018F0CAFBE3
:102BE0000A22390009A818F02EFC210009A818F0C3
:102BF000C1FB0A22310009A818F025FC210009A810
:102C000018F0B8FB0A22290009A818F01CFC2100C2
:102C100009A818F0AFFB0A22019909A818F013FCC3
:102C2000210009A818F0A6FB0A22039909A818F0A8
:102C30000AFC210009A818F09DFB0A22029909A8A4
:102C400018F001FC210009A818F094FB0A2204994D
:102C500009A818F0F8FB210009A818F08BFB0A223C
:102C6000059909A818F0F3FB09A814F08DFB06A834
:102C700018F013FC13B0F0BD4C280200D45700200C
:102C80005D09002090500020A027020030B52A499D
:102C900085B0040018F050FC284D280015F03EFEC9
:102CA000092803D82649200018F03CFD280015F01B
:102CB00035FE0A22010001A818F06BFC01A92000D2
:102CC00018F01EFD01A818F0E8FB280015F030FEF2
:102CD000092803D81A49200018F024FD280015F00F
:102CE00027FE0A22010001A818F053FC01A92000C8
:102CF00018F006FD01A818F0D0FB280015F022FE00
:102D0000092803D80E49200018F00CFD280015F002
:102D100019FE0A22010001A818F03BFC01A92000BD
:102D200018F0EEFC01A818F0B8FB0649200018F0D6
:102D3000F9FC200005B030BD4C6402005C090020A5
:102D40002B3502008627020030B58DB0050068469D
:102D5000FFF79CFF194C1A49200018F00BFB69463D
:102D6000200018F019FB174B1B78002B21D01649B7
:102D7000200018F0FFFA2900200018F0F4FA134997
:102D8000200018F013FB03A81723009A104914F031
:102D9000B5FB03A814F005FB00280AD00D4920005C
:102DA00018F004FB290003A818F0F6FA03A814F0A1
:102DB000EBFA684618F071FB0DB030BDD457002017
:102DC000552702005D0900206727020071270200D5
:102DD000905000207C270200F0B5414F414C8BB051
:102DE0003800210018F0E2FA210007A818F0A4FB2F
:102DF00007A8FFF7A9FF07A818F04FFB3A4D3B4C77
:102E000003212800266814F00BF8394B7600F052A5
:102E100002212800266814F003F8364B7600F052A1
:102E200001212800266813F0FBFF334B7600F05297
:102E300000212800266813F0F3FF304D304B760058
:102E4000F05203212800266813F0EAFF2D4B76008C
:102E5000F05202212800266813F0E2FF2A4B760088
:102E6000F05201212800266813F0DAFF274B760084
:102E7000F05200212800266813F0D2FF244D76007E
:102E80007053FFF743F92368224E9B009851224963
:102E9000380018F08BFA2468164B6000C35E184A9D
:102EA000455F825E1449A400415E0495174D455F5D
:102EB0000395144D455F02950D4D455F0195124DEB
:102EC000405F0090A059FFF757FE144A144BD35CA3
:102ED000002B02D00120FFF7DBFD0BB0F0BDC04698
:102EE000D457002028260200C00700200C0800202C
:102EF00064050020DC0200206C030020D0070020C5
:102F000044070020DC050020EC04002054060020CB
:102F1000CC060020FC03002043260200A44600202B
:102F20004A040000F0B53F4C3F4D89B02100280015
:102F300018F03CFA210005A818F0FEFA05A8FFF7E2
:102F400003FF05A818F0A9FA3849280018F02EFA4E
:102F5000012702F039F9364E02A8310003F078F962
:102F600002A818F07BFD3C000E280DDD310005A8FD
:102F700003F06EF905A818F071FD6338444244412E
:102F800005A8E4B218F089FA02A818F086FA002C15
:102F90002CD1FA260134B60000940123254A264993
:102FA000264802F0E7FD032833D12100244802F02F
:102FB000E7F904282DD12349280018F0F7F90A2051
:102FC00002F0ACF8204C2800210018F0EFF92100A5
:102FD00005A818F0B1FA05A8FFF7B6FE05A818F085
:102FE0005CFA280018F0D0F909B0F0BD17492800A4
:102FF00018F0DCF9164905A818F09EFA05A8FFF7A5
:10300000A3FE05A818F049FAFA20400015F0E0FEEA
:10301000A1E71049280018F0ADF9300015F0D8FEEE
:10302000BAE7C046F82A0200D4570020262B020037
:1030300048090020BE480020DF480020E0080020AA
:10304000EC0700205B2B0200652B0200322B0200F4
:103050003D2B020049290200F0B5894D894C85B00D
:103060002900200018F0A2F9290001A818F064FA3C
:1030700001A8FFF769FE01A818F00FFA824D01219F
:10308000280002F059FB280002F01EFB0028FAD0AD
:103090007E4E2000310018F06DF9310001A818F0C3
:1030A0004BFA01A8FFF750FE01A818F0F6F978498D
:1030B000280002F0DBF9FA210022C900280002F002
:1030C000E1FA744E2000310018F070F9724F2000C0
:1030D000390018F06BF9390001A818F02DFA01A891
:1030E000FFF732FE01A818F0D8F96C49280002F069
:1030F000BDF96B4A6421280002F0C4FA31002000B7
:1031000018F054F9674F2000390018F033F93900EE
:1031100001A818F011FA01A8FFF716FE01A818F08F
:10312000BCF9FA276049280002F0A0F9BF0064202A
:1031300015F04EFE5D49200018F01CF9524D280094
:1031400002F0C2FA00223900280002F09BFA01289E
:10315000EDD13100200018F029F9554F2000390039
:1031600018F024F9390001A818F0E6F901A8FFF7D2
:10317000EBFD01A818F091F9FA274E49280002F05A
:1031800075F9BF00642015F023FE4849200018F0AF
:10319000F1F8280002F098FA00223900280002F025
:1031A00071FA0128EED13100200018F0FFF8424DED
:1031B0002000290018F0FAF8290001A818F0BCF93D
:1031C00001A8FFF7C1FD01A818F067F963252E4F8C
:1031D0003A49380002F030F9FA21314AC900380082
:1031E00002F050FA364901A818F0A6F901A92C48B6
:1031F00018F070FB070001A818F04FF97B1C0CD0E9
:103200003B000622264901A818F0B4FB01A818F0DB
:1032100025FC050001A818F040F9FA20800015F0FF
:10322000D7FD1F2DD3DC3100200018F0BFF8254D4D
:103230002000290018F0BAF8290001A818F07CF93C
:1032400001A8FFF781FD01A818F027F90E4F1E49CC
:10325000380002F00BF9FA21114DC9002A0038009C
:1032600002F010FA1949200018F084F82900200013
:1032700018F092F83100200018F098F805B0F0BD71
:10328000A0230200D4570020004B0020C2230200DC
:10329000DF230200E9230200EF23020014240200CE
:1032A000500900201E2402004A240200492902007D
:1032B000552402008C24020096240200D32402002C
:1032C000A0270200DA240200F124020005250200F2
:1032D000F0B5A9B02422002112A81BF040FC614CDB
:1032E000614D2100280018F061F821001BA818F09A
:1032F00023F91BA8FFF728FD1BA818F0CEF85B48A0
:1033000002F048FC032800D095E0594F0021380016
:1033100015F078FB544C574D2000290018F046F862
:1033200029001BA818F008F91BA8FFF70DFD1BA822
:1033300018F0B3F8504E5149300002F07DF8FA21F0
:103340004F4DC9002A00300002F09CF94D49200081
:1033500018F010F82900200018F01EF822211BA8F0
:1033600018F009F91BA9280018F0B4FA06901BA858
:1033700018F093F822211BA818F0FDF81BA92800CB
:1033800018F0F1FA07901BA818F087F8069A0FAE0C
:10339000290030000132079B18F0ECFA002332229A
:1033A0001BA9300018F058FA300018F076F80EAB70
:1033B00003930DAB02930CAB01930BAB09AA0496DC
:1033C000009331490AAB1BA81CF0DEFB099B12A835
:1033D000643317930A9B013B16930B9B15930C9B2D
:1033E00014930D9B13930E9B12931BF08BFC099B64
:1033F0000D9ADEB20A9B0C99DDB20B9BD2B2DBB206
:1034000006930E9BC9B2DBB2380015F0FFF92A0013
:1034100033000699380015F045FA1C49200017F0D2
:10342000A9FF380015F098FA0A220100200018F0D0
:1034300028F829B0F0BD164801F0C8FF042800D1D3
:1034400063E7144C2800210017F0B0FF21001BA8EF
:1034500018F072F81BA8FFF777FC1BA818F01DF8EE
:10346000E7E7C0463F2A0200D4570020E0080020CA
:103470005C090020672A0200004B00208C2A020011
:1034800050090020952A02009C2A0200B12A02005D
:10349000EC070020C22A0200F0B524C8954211D9D9
:1034A0000800130007781C785E1CBC4204D1002C75
:1034B00009D001303300F5E7187801331A000028ED
:1034C000FAD1EBE700221000F0BD0023F0B585B083
:1034D00007000C00029103920093994208D0016802
:1034E000994208D17F22237A9343237201230093C8
:1034F000009805B0F0BD039E3000FFF7CDFF051E1C
:103500001BD1BB6875680193B2680133EB18934215
:1035100007D9012333747F22237A93432372002334
:10352000E5E77360002DF6D0019A396828001BF09A
:10353000FAFA6A46019B1278EA547F22237A2560C0
:1035400093431A00052313432372CFE770B5037A20
:103550000D0016007F211A0004000A4005D18B439C
:103560005F390B430372026042602022237A1340CA
:10357000181E12D0281E10D029002068FEF736FE33
:1035800000280AD131002000FEF746FE002804D0B2
:103590007F22037AC5601340037270BD10B502002C
:1035A000037A20200340181E02D01068FEF71EFE8A
:1035B00010BD437C002B06D1C3685A1CC2601B7827
:1035C000037401234374007C704710B5040020008D
:1035D000FFF7EFFF0A2806D8092808D2002809D0EB
:1035E000012020720CE00D2801D02028F8D1002302
:1035F0006374ECE7237A58345A1E934101332370E5
:1036000010BD1FB57F220300007A1040043808283F
:103610002ED818F0C9FA0F0F052D082D0D2D1A0000
:10362000187804B010BD1868C343DB171840F8E7DA
:103630001868F6E71868002301AC23722100FEF732
:1036400007FE2000FFF7DDFFEBE7CF211C6809062E
:10365000201C18F0ADFC0028E3D09E21201CC905D9
:1036600018F092FC0028DCD0201C19F083FAD8E76F
:103670000020D6E770B530C814340E0020002900B1
:10368000FFF78CFF002806D07F22037A1340082B17
:1036900003D00A2B04D030680AE00368002BFADB61
:1036A00029002000FFF77AFF002801D0FFF7A9FFCB
:1036B00070BD70B504000D00FFF77BFF0023A8422A
:1036C00001D163740133180070BD2F2815D901236F
:1036D000392803D95E2803D97A2803D818007047FF
:1036E00040280AD901235A28F8D9002301222D386D
:1036F000C0B282425B41DBB2F0E701232B28F4D158
:10370000ECE737B500236A461370C3B27F280BD8A5
:1037100053706B460233013B1878002831D00A6899
:10372000541C0C601070F6E73F2480226D46234045
:103730005242134380096B7085B2C3B21F2D06D865
:10374000403213436A4693706B460333E3E76D469A
:10375000234000041343800DAB70C3B20F2805DC77
:10376000202252421343EB7001ABD4E71C401023DC
:1037700080115B4218436B462243EA70287105337F
:10378000C9E737BDF7B505000027FFF712FF6F74D3
:1037900001902800FFF70DFF0024019A03006C74CC
:1037A000824259D0A04204D10223583500202B7008
:1037B000FEBD5C284BD12800FFF7FBFE0028F3D0AC
:1037C000284B752839D104266C742800FFF7F1FEC8
:1037D0000028E9D0402806D83038C0B20F2806D9D2
:1037E00058350323E2E7202398433738F5E70023D1
:1037F0002401013E0443F6B2A4B26B749E42E4D1AC
:10380000A0239B01E318184A9BB2934202D8A40557
:10381000A70DBEE790239B01E3189BB220009342C3
:1038200006D880238005BC02800D20435B02C018AF
:103830002900FFF766FFACE702331A78002ACFD0E1
:103840009042F9D15B78002BCAD000226A742A68B2
:10385000511C296013709CE72B6801205A1C2A60B8
:103860001C70A5E7932B0200FF030000036870B5EE
:1038700043600400FFF79DFE27280DD022280BD0BF
:103880002000FFF796FE0500FFF71FFF061E09D177
:1038900003235834237003E02000FFF773FF060072
:1038A000300070BD00236374236820005A1C22601E
:1038B0001D70FFF77EFE0500FFF707FF0028F1D11E
:1038C00023685A1C22601870EAE7F7B504000D005F
:1038D0001F1CFFF77AFE0190002801D1002658E056
:1038E0002000FFF766FE272800D17BE01DD82228A4
:1038F00000D177E02000FFF75CFE002600900098E2
:10390000F7B2FFF7E2FE002800D17EE00136402E3C
:1039100000D179E06A46002312786374A319DA753E
:103920002000FFF746FE0090E9E75B2813D07B28D4
:10393000E0D17F222B7A290093431A0020231343DE
:103940002B72002300222B606B6020003B1C00F0D8
:1039500087F806001DE07F222B7AFFB293431A00FE
:10396000402313432B7200232B606B609F4203D1D3
:10397000583405332370B1E763742000FFF725FE48
:103980000028ABD05D212000FFF793FE061E02D079
:10399000019E3000FEBD61692800FEF73DFC011E5E
:1039A00003D1042358342370F3E77B1E0022200048
:1039B000FFF78BFF002800D190E72000FFF705FEFE
:1039C000002800D18AE75D212000FFF772FE002861
:1039D000DED12C212000FFF76CFE0028DBD158340B
:1039E0000323C7E7236820006360FFF7CBFE061EB2
:1039F00000D173E77F2263682B602B7A93431A0010
:103A0000042313432B72C4E73F270021E3191976DF
:103A1000237E742B0DD17F222B7A93431A00062329
:103A200013432B7201232B70042FB1D0583402237F
:103A3000A0E7662B0AD17F222B7A297093431A00C4
:103A4000062313432B72052FF0D1A1E76E2BEBD089
:103A5000200029001830FEF7FBFB0028BFD097E7B5
:103A6000F7B5DFB204000E00002F04D1052358344F
:103A7000237000250DE000234374FFF7A6FD01909D
:103A80000028F6D07D212000FFF713FE051E28D068
:103A9000019D2800FEBD6368306819000093FEF7A1
:103AA000A5FB002831D001007B1E00222000FFF77B
:103AB0000CFF0028DDD02000FFF787FD0028D8D0BC
:103AC0007D212000FFF7F5FD0028E1D12C21200009
:103AD000FFF7EFFD002814D02000FFF776FD002847
:103AE000C7D02000FFF7C2FE0028C2D02000FFF799
:103AF0006CFD0028BDD03A212000FFF7DAFD002838
:103B0000C9D1032358342370C3E761693000FEF73D
:103B100083FB002802D158340423F4E77F22037A80
:103B200013400372009BC360BDE710B5040000683A
:103B300003685B68984763681818606010BD70B5CB
:103B4000050008000C001CF077F821000200280096
:103B5000FFF7EBFF70BDF0B5162407000D000A2635
:103B600087B06C442800310018F0B8F8013C3031BF
:103B700021702800310018F02BF8051EF2D1162311
:103B80006B441A1B21003800FFF7CFFF07B0F0BDD0
:103B900010B50400006803685B68984763681818EC
:103BA000606010BD70B5050008000C001CF044F802
:103BB000210002002800FFF7EBFF70BDF0B51624CE
:103BC00007000D000A2687B06C442800310018F069
:103BD00085F8013C303121702800310017F0F8FFE2
:103BE000051EF2D116236B441A1B21003800FFF783
:103BF000CFFF07B0F0BD00000623F7B50E1C07008D
:103C000083725849301C18F0D3F9002844D000239F
:103C1000142420250093544B311C185918F0B4F982
:103C2000002809D0514B301C195918F0ADFC009BED
:103C3000061CE81803B20093043C6D10231DEAD162
:103C400003340021301C18F0A9F9002828D0301CBA
:103C50001AF08EFD464A474B18F05CF900281FD039
:103C6000A300019323061BD4434B019A311C98589F
:103C700018F094F900280AD03B4B019A301C99584F
:103C800018F082FC009B061C581B03B20093019B9A
:103C90006D10013C043BE4E7202505240090D0E7AB
:103CA0006B461B88301C3B8118F0DAF90400334D59
:103CB00038600190019B092B0DD90A21280017F0CB
:103CC00087FFBB7A0500013B0198BB720A2117F000
:103CD0007FFF0190EEE7200018F06CFF011C301C04
:103CE00018F084FD061C280018F064FF011C301C2D
:103CF00018F04AFC019018F0B3F9060018F05AFFCA
:103D0000011C019818F072FD011C18F0DDF918F083
:103D1000A7F98619AE4214D27E600A257E68290072
:103D2000300017F0DBFF00291AD10A243C57002C81
:103D300016DD2900300017F04BFF013C7860BC72A3
:103D4000ECE700237B60009B01343C60002BE4D057
:103D5000092CE2D918000123013038813B60DCE7EF
:103D60003800FEBD8096184B8823020070230200A5
:103D7000F168E388B5F8E43E5823020040420F00A2
:103D800010B50400006803681B689847636818183A
:103D9000606010BD70B50D00040022212000FFF707
:103DA000EFFF2978002909D00A4B01351E78002E33
:103DB000F4D05A788A4206D00233F7E72221200055
:103DC000FFF7DEFF70BD5C212000FFF7D9FF310057
:103DD000E4E7C046952B0200F0B504008DB0081C46
:103DE0000E1C18F0C1F8002805D141492000FFF74A
:103DF000A6FE0DB0F0BD0021301C18F0B5F800286B
:103E000009D1311C301C18F05FF9011C301C18F06E
:103E1000ABF80028E9D10021301C18F0ABF80028DD
:103E200006D02D212000FFF7ABFF80231B06F618DC
:103E300003AD311C2800FFF7DFFE03992000FFF7D8
:103E40008AFE0A23EB560093002B23D06F68019360
:103E50000AAE019B013E013B5BB2019301330BD0E3
:103E600038000A2117F03AFF3031317038000A214A
:103E700017F0AEFE0700ECE76B461B782026D9430F
:103E80002E228B1902A8C2540AAB4A4220005918AC
:103E9000FFF74BFE0822AB5E002BAAD06521200065
:103EA000FFF76EFF0823EE5EB5B2002E05DA2D2176
:103EB0002000FFF765FF7542ADB226260A2702AB48
:103EC000F6182800390017F009FF013E3031317033
:103ED0002800390017F07CFE85B2002DF1D1262391
:103EE00002AA9B189A1B31002000FFF71EFE80E7F4
:103EF0008E2B02007F2270B5037A05000C00134060
:103F0000062B00D169E008D8022B0DD3032B50D823
:103F100006CD2000FFF709FE25E00C2B1FD005D8A9
:103F2000082B58D00A2B49D030495BE0202B21D0F8
:103F3000402BF9D15B212000FFF722FF2D68002DD7
:103F400013D021002800FFF7D5FF2800FEF746F91F
:103F5000051E0AD02C212000FFF712FFEFE70168B1
:103F60002000FFF739FF606870BD5D212000FFF77A
:103F700007FFF8E77B212000FFF702FF2D68002DE7
:103F800015D0E9682000FFF705FF3A212000FFF770
:103F9000F7FE21002800FFF7ADFF2800FEF71EF90D
:103FA000051E04D02C212000FFF7EAFEE7E77D2163
:103FB000DCE701682000FFF7EDFED4E70568002D7F
:103FC00004DA2D212000FFF7DBFE6D4229002000DE
:103FD000FFF7C1FDC7E70168F9E703780449002B43
:103FE00000D104492000FFF7AAFDBCE78E2B020098
:103FF000A42B0200A92B020010B50C00002802D04F
:10400000FFF778FF10BD20000249FFF798FD6068B8
:10401000F8E7C0468E2B020010B504000068036864
:104020001B68984763681818606010BDF0B50400FD
:104030008DB0081C0E1C17F097FF002805D14149D0
:104040002000FFF7AFFD0DB0F0BD0021301C17F0D0
:104050008BFF002809D1311C301C18F035F8011CE9
:10406000301C17F081FF0028E9D10021301C17F027
:1040700081FF002806D02D212000FFF7CDFF8023EF
:104080001B06F61803AD311C2800FFF7B5FD039998
:104090002000FFF793FD0A23EB560093002B23D05B
:1040A0006F6801930AAE019B013E013B5BB2019335
:1040B00001330BD038000A2117F010FE3031317077
:1040C00038000A2117F084FD0700ECE76B461B78E7
:1040D0002026D9432E228B1902A8C2540AAB4A4289
:1040E00020005918FFF754FD0822AB5E002BAAD020
:1040F00065212000FFF790FF0823EE5EB5B2002E89
:1041000005DA2D212000FFF787FF7542ADB2262684
:104110000A2702ABF6182800390017F0DFFD013E30
:10412000303131702800390017F052FD85B2002D72
:10413000F1D1262302AA9B189A1B31002000FFF719
:1041400027FD80E78E2B020070B50D0004002221B0
:104150002000FFF761FF2978002909D00A4B0135BB
:104160001E78002EF4D05A788A4206D00233F7E740
:1041700022212000FFF750FF70BD5C212000FFF7D7
:104180004BFF3100E4E7C046952B02007F2270B55B
:10419000037A05000C001340062B00D169E008D813
:1041A000022B0DD3032B50D806CD2000FFF7F0FCD7
:1041B00025E00C2B1FD005D8082B58D00A2B49D04E
:1041C00030495BE0202B21D0402BF9D15B2120002E
:1041D000FFF722FF2D68002D13D021002800FFF7E4
:1041E000D5FF2800FDF7FAFF051E0AD02C2120007C
:1041F000FFF712FFEFE701682000FFF717FF606885
:1042000070BD5D212000FFF707FFF8E77B2120004C
:10421000FFF702FF2D68002D15D0E9682000FFF799
:1042200093FF3A212000FFF7F7FE21002800FFF757
:10423000ADFF2800FDF7D2FF051E04D02C21200081
:10424000FFF7EAFEE7E77D21DCE701682000FFF7E2
:104250007BFFD4E70568002D04DA2D212000FFF74D
:10426000DBFE6D4229002000FFF7A8FCC7E70168CC
:10427000F9E703780449002B00D104492000FFF737
:1042800091FCBCE78E2B0200A42B0200A92B02009C
:10429000F0B5584FD5B05849380017F087F8FA20D4
:1042A000400100F0B5FFFDF731FF544905A817F0B4
:1042B00043F9534B0BA819681BF0B6FC2CAC34AB7C
:1042C0002C93636054ABA360E36000237F252374C9
:1042D000237F2200AB4323774A4931A8FFF736F901
:1042E000002806D00423027AAA4313430372464BE4
:1042F0000360FDF70BFF22000500444931A8FFF7DA
:1043000025F9002807D07F22037A056093431A001D
:1043100008231343037222003D4931A8FFF716F921
:104320002200010008903B480994FFF7CEF82200D4
:10433000394931A8FFF70AF9061E16D00BA920004B
:10434000FFF7AAF8051E4BD10BA81BF075FC030064
:1043500065680133A268EB180390934235D90123B5
:1043600023747F22337A93433372002408A931A83F
:1043700008970994FFF740FE380017F005F8274921
:1043800005A817F091F9234905A817F0B9F92449B0
:1043900005A817F0C7F9234D2300220005A90094B2
:1043A000280012F060F808A931A808950994FFF7D1
:1043B000EDFE280012F04DFC1049114817F074F979
:1043C00005A817F06AF855B0F0BD6360002DC8D09D
:1043D000039A0BA928001AF0A6FB0023039AAB54FA
:1043E0007F22337A356093431A00052313433372D7
:1043F000BBE7C046D45700200C2A02004C640200E0
:1044000060030020282A0200222A02002D2A02002E
:10441000B92D020054030020372A02002028020090
:104420002928020014080020F8B5454E454F3100F8
:10443000380017F081F8444C444D22002900380020
:1044400017F0AAFB424F3100380017F075F8220030
:104450002900380017F0A0FB3E4F3100380017F05C
:104460006BF822002900380017F096FB3A4F310014
:10447000380017F061F822002900380017F08CFB93
:10448000364F3100380017F057F829002200380065
:1044900017F082FB324F380000F006FF220031494E
:1044A000380017F079FB304F0021380001F0EAF9AD
:1044B00022002E49380017F06FFB2D4F01213800E4
:1044C00001F006FE22002B49380017F065FB390089
:1044D000294803F0BBFC22002849274817F05CFB61
:1044E000274F2549380011F027FE220025493800C2
:1044F00017F052FB244801F03FFE0021234801F051
:104500009BFE234814F034F9224F3100380017F095
:1045100013F822002900380017F03EFB1E4F31002F
:10452000380017F009F829002200380017F034FB92
:104530001A4812F0F4FB1A4812F0F1FBF8BDC0461D
:104540004C64020050090020000000209BB40100D0
:10455000E403002054030020F00300206003002047
:10456000EC0700207D520000E0080020FD20000044
:1045700008090020DD5B0000580B00208D7D000045
:1045800014080020296001001008002048090020BC
:104590005C09002078460020E0070020C0070020CA
:1045A000D0070020E121F0B5854C85B049022000FC
:1045B00015F046FAE1218348490216F0ABFB824927
:1045C000200016F0F3FE0421804812F001FF804D18
:1045D000061E00D0DBE07F49200016F0E7FE2E70BB
:1045E0007D4B7E4E1B7805203370FEF751FA7C4DD3
:1045F00048212A007B4812F099FB2A0049217A4879
:1046000012F094FB33789B0600D4C7E0774D20006E
:10461000290016F0CBFE290001A816F08DFF01A895
:10462000FEF792FB01A816F038FF7149200016F042
:10463000BDFE00F0C9FD6F4D280000F007FD6E497A
:10464000280000F057FD280000F000FD6B4802F044
:104650004DF9002811D16A4D2000290016F0A6FE60
:10466000290001A816F068FF01A8FEF76DFB01A85C
:1046700016F013FF634B1B689847634D0822002117
:10468000280002F0BBFE01A85C4902F03DFA019946
:10469000280002F0D1FE01A816F0FFFE280003F06A
:1046A00079F85A495A4803F0BCFA280002F0BEFED5
:1046B0000600280002F0BDFE32000300002155482C
:1046C00003F0CEFB544F5549380016F0EDFF544E21
:1046D0005449300016F0E8FF534D3100280017F020
:1046E0000FF85249280017F01DF83900280017F07C
:1046F00007F84F49280017F015F84E49200016F02A
:1047000039FE2900200016F047FE4B4E39003000DC
:1047100011F01AFD494901A816F00EFF01AA29005F
:10472000300011F016FD01A816F0B7FE3000444924
:1047300011F008FD0121062014F04EFDE121214871
:10474000490216F0E7FAE1212000490215F078F954
:1047500080212448C90012F0FBFA80212248C900B8
:1047600012F0F6FA0022374B37481A8001F006FDA6
:10477000FEF7D8FBFEF7ACFD3449200016F016FE1C
:104780000A2000F0CBFC00F033FD05B0F0BD0123A2
:104790002F4920002B7016F009FE21E72D4D200037
:1047A000290016F003FE290001A816F0C5FE01A895
:1047B000FEF7CAFA01A816F070FEFEF74DFC34E7CA
:1047C000D457002014530020192D020090500020CF
:1047D0005D090020312D020038040040BC07002094
:1047E000F84C0020C0070020D0070020652D0200F3
:1047F0008E2D0200A44600201D210000A84B0020A1
:104800009E2D02004C0900204C4C00200D21000080
:10481000344F0020580B0020540300206C4A002025
:10482000F0030020E94800207846002027280200F5
:10483000C02D0200D82D0200140800204C64020094
:10484000D54B00004A09002010080020E42D02008A
:10485000502D0200792D0200F0B5A9B04C4901A8F5
:1048600016F06AFE4B4901A816F01EFF4A4901A83E
:1048700016F046FF494901A816F054FF484B07A817
:1048800019681BF0D1F9474C4749200016F072FD1A
:1048900007A9200016F06EFDFA274449200016F003
:1048A00085FD0026BF00424D424A07A9280012F0AC
:1048B000A1F9002845D14049200016F05BFD2800F1
:1048C00011F053FC0A220100200016F0C0FD3B4904
:1048D00004A816F031FE04A8FEF736FA04A816F074
:1048E000DCFD380000F094FC3548013601F052F947
:1048F000032820D0334904A816F01EFE04A8FEF7B2
:1049000023FA04A816F0C9FDFEF70CFB052ECAD148
:104910002D4D2000290016F049FD290004A816F0AD
:104920000BFE04A8FEF710FA04A816F0B6FD274BFC
:104930001B689847B7E7264800F048FD0428D9D1FE
:10494000E4E7200016F020FD224E2000310016F092
:104950002DFD310004A816F0EFFD04A8FEF7F4F9D0
:1049600004A816F09AFD200016F00EFD1A4920004A
:1049700016F000FD01A9200016F00EFD002201A98D
:10498000280012F017F801A816F087FD29B0F0BD35
:104990004C64020020280200540300201925020064
:1049A000F0030020D457002031250200788A02004D
:1049B00014080020B3220000492902004D250200FE
:1049C000E00800206D250200AD2502004C09002002
:1049D000EC070020E2250200062602007FB500F069
:1049E00007FC674801F0D6F8664C032848D0664DAE
:1049F0002000290016F0DAFC290001A816F09CFD21
:104A000001A8FEF7A1F901A816F047FDFEF78AFA02
:104A10000220FEF73DF8FEF7DFF95C4D2B680E2B08
:104A200000DC9AE05A4E2000310016F0BFFC310045
:104A300001A816F081FD01A8FEF786F901A816F07D
:104A40002CFD2B683B2B21DD524D2000290016F058
:104A5000ADFC290001A816F06FFD01A8FEF774F95E
:104A600001A816F01AFD4C4B1B6898474B492000D3
:104A700016F09CFC4A4A4B4BD05A00F0C9FB7FBD54
:104A8000494800F0A3FC0428B1D1C1E7474E2000FB
:104A9000310016F08BFC310001A816F04DFD01A885
:104AA000FEF752F901A816F0F8FC414901A801F0FF
:104AB000CFFB01A816F0D2FF060001A816F0EDFC0E
:104AC0003C49200016F056FC31000A22200016F066
:104AD000BAFC3949200016F069FC632E2BD00F2E4A
:104AE00029DD364811F0A3FB002810D1344E2000F8
:104AF000310016F05BFC310001A816F01DFD01A885
:104B0000FEF722F901A816F0C8FCFFF7A5FE2D4E0E
:104B10002000310016F04AFC310001A816F00CFD0F
:104B200001A8FEF711F901A816F0B7FCFDF7E4FDA6
:104B300000232B609AE7244E2000310016F036FC4B
:104B4000310001A816F0F8FC01A8FEF7FDF801A855
:104B500016F0A3FC2B680133EBE71C49200016F08C
:104B600009FC0A222968200016F06DFC1849200073
:104B700016F000FC0A223C21200016F068FCE9E750
:104B8000E0080020D4570020AF2B02000C080020C2
:104B9000CB2B0200012C02004C090020FC2C02004F
:104BA000A446002012020000EC070020282C02007E
:104BB000480900204B2C02005D2C02001408002044
:104BC000612C02007A2C0200A92C0200DB2C0200CE
:104BD000F72C0200F0B5A84CA84DA54400AF08265C
:104BE00029000400A64816F0C5FB29006025BB1962
:104BF000581916F0A1FCBB195819FEF7A5F8BB19F6
:104C0000581916F04AFC6A46A319DB08DB00D31AD0
:104C10009D466D466E46731B9C4205DD994811F01A
:104C2000F0F930700136F6E7E3430026DB171C404D
:104C30002E552900924816F09DFB914816F0A4FBD2
:104C4000082160237A18D4182900200016F074FC7B
:104C50002000FEF779F8200016F01FFC08218023C1
:104C60007A18D218BA667A18D3186360A0239B000A
:104C7000D218A2607A18D3187F22E360237FFD60E8
:104C80009343237733007A185C33BD61D3187425BE
:104C90000C203E613E757E7726743C621E700E00CD
:104CA00079180A23491900223818FEF70EFEBB199D
:104CB00075495819FEF772FC002800D1DAE07F220E
:104CC000037A1340043B012B00D9D3E00568002D83
:104CD00000D1CFE06D496A4816F04CFB29006848C6
:104CE00016F064FB6A4928001AF094FF061E00D0F3
:104CF000A3E06849624816F059FB614B08250C2275
:104D0000FB6074237819B918C0183E61FFF774F975
:104D10005B4816F039FB0C225F4B013E7919B8183D
:104D2000FC603B61BE60FEF7A5FC0C225B4B791971
:104D3000B818FC603B61BE60FEF79CFC0C22584B2F
:104D400079193860B818FC603B61BE60FEF792FCD0
:104D5000544B05003B610823F9180433F818FC6034
:104D6000BE60FEF787FC2A004F4B643A78604F4CD8
:104D70009A420ED84E49424816F0FCFA0A222900FF
:104D80003F4816F060FB4B493D4816F00FFB4A4B7D
:104D9000E5523B68013B0E2B11D8394E4749300094
:104DA00016F0E8FA0A222900300016F04CFB4449BC
:104DB000300016F0FBFA85233A889B00E2527B68AC
:104DC000404A013B002593420ED82D4D3E49280014
:104DD00016F0D0FA0A222800796816F038FB8623EC
:104DE0000125BA889B00E2520121200000F04CF915
:104DF000FDF718FB002D11D00C243449204816F083
:104E0000D5FA3349381916F097FB3819FDF79CFF8E
:104E1000381916F042FB2F4B1B6898470121234895
:104E200000F032F92C4B9B68002B01D0FFF730FAD1
:104E3000BD46A3239B009D44F0BD284928001AF0DD
:104E4000E9FE002811D10C2425490D4816F0AEFAD0
:104E50002449381916F070FB3819FDF775FF381919
:104E600016F01BFBFDF7DEFAD8E71F491A4816F0CB
:104E70001BFCD3E71D49F9E774FDFFFF632802001F
:104E8000D457002014080020812802008628020040
:104E9000962802009F280200BC280200C0280200B9
:104EA000C7280200D02802005CD40100A4460020DC
:104EB000D8280200FA28020012020000FE28020090
:104EC000122902000E0E00002129020036290200DC
:104ED0004B2902004C0900206003002067290200D2
:104EE0006C29020098290200AE290200F029020074
:104EF00030B5094D094CAB685B035B0F9B001C5937
:104F00000460AB6801619BB243606343A4008360AB
:104F1000C460426130BDC04600400041002E020026
:104F2000F7B580261A4D01916F6803333E439B0805
:104F30006E60002B2BD0174E2E802E7DF107FCD5F6
:104F40001E000768991BBF088F4219D9002E17D081
:104F5000FF2117788C433C430F4957780C403F02A0
:104F60003C439778013E39040C4F2740D478BFB2B8
:104F70000F43240601993C4310C101910432E0E73C
:104F8000074B2B802B7DDB07FCD53300D1E7F7BD2A
:104F90000040004144A5FFFFFF00FFFFFFFF00FFAF
:104FA00004A5FFFF044B054A4908D9611A801A7D00
:104FB000D207FCD57047C0460040004102A5FFFF64
:104FC00070B504000D001600E36829002000B3420C
:104FD00005D2FFF7E7FFE368ED18F61AF4E7FFF7ED
:104FE000E1FF70BD10B510001A0019F09CFD10BD56
:104FF0000D4BF0B5C418082500230C4EA04210D06C
:105000000278120253402A001FB259008BB2002FBF
:1050100001DA71408BB2013AD2B2002AF4D10130E8
:10502000ECE71800F0BDC0464C0400002110000061
:10503000044B10B51B68002B00D098470122024B8F
:105040001A7010BD884600208446002010B5040068
:105050000A48220043690169FFF7C4FF2000FFF7F7
:10506000C7FF2288064B9A4203D1064BE35A83427C
:1050700002D02000FFF7DCFF10BDC0468C460020A8
:10508000EFBE00004C04000030B5134C134DA54496
:105090000400002902D12B78002B19D0104B2000DE
:1050A0002380FFF7A5FF0F4B2100E0520E4A684610
:1050B00019F039FD0D4C626921692000FFF780FF6E
:1050C00063696A4621692000FFF72AFF00232B70DD
:1050D000074B9D4430BDC046ACFBFFFF844600201B
:1050E000EFBEFFFF4C0400004E0400008C46002081
:1050F00054040000014B19607047C04688460020E8
:1051000010B5034A03490448FFF7F2FE10BDC0463C
:105110004E040000002F02008C4600201023224A7B
:1051200091690B439361214B1A7852B2002A3ADB02
:105130001F4A2049916020495160517849B20029A5
:10514000FBDB1E495180517849B20029FBDB02216B
:105150001A788A431A70DA7952B2002AFBDB0421EA
:105160001A788A431A70DA7952B2002AFBDB0F21CF
:10517000421C0A405A7002220840987019780A436B
:105180001A70DA7952B2002AFBDB0122C0205A7170
:105190000B4B03321A6080001A580A491140C02292
:1051A00012040A431A5070470004004000100040E7
:1051B000000C00400404000004031100034400003C
:1051C00000E100E0FFFF00FF0221074B1A788A434D
:1051D0001A70DA7952B2002AFBDB1021034A936974
:1051E0008B4393617047C0460010004000040040AC
:1051F000064B1900DA7952B2002AFBDBA5221A729B
:10520000CB795BB2002BFBDB7047C046001000403F
:1052100070B5040013F0A6FD0A25041913F0A2FDD1
:10522000A0420AD2FFF7E4FF13F09CFD201A0A28DF
:1052300000D9280013F0CCFDF0E770BD0123024A2D
:105240001370024A93717047F24A00200010004028
:10525000044B054A1A60054B054A1A60054B064A7D
:105260001A607047F44A0020A8610000FC4A002040
:10527000C0C62D00F84A002020A1070010B5040088
:10528000034B083303600C3016F007F9200010BD03
:105290002034020010B50400FFF7F0FF200016F0E4
:1052A0000BFC200010BD0000074B10B50833036055
:1052B00001230400037205490C3016F03DF9002368
:1052C0002000E36110BDC046203402004C6402009F
:1052D00030B5264C85B00500200000F0CDF900283F
:1052E00037D0200000F0E0F800226B681000013B8E
:1052F000052B2ED8180016F057FC03090D182E3474
:105300001B49200000F098F8022300E003236B60A3
:1053100000201EE0290020000C3100F077FA15492A
:10532000200000F089F80423F1E7134901A816F0E2
:1053300003F9280001A90C3016F05DFA040001A859
:1053400016F0ABF8002CDFD0002301206B60043393
:105350002B7205B030BD0949200000F06DF806231E
:10536000D5E701236A602B72D2E7C046004B0020CC
:10537000003402000B340200B8340200153402007D
:10538000F8B501234360DB1804000372002919D02B
:1053900013F0E8FCFA26070076002000FFF798FFDC
:1053A000051E09D1E369002B08D013F0DBFCE3698B
:1053B000C01B984202D36560207AF8BD300013F01C
:1053C00007FDEAE7FFF784FFF6E7000010B50400E9
:1053D000024800F069F8207A10BDC046004B00205A
:1053E00010B504001C3016F058F8200010BD000065
:1053F00070B58360049B06000025C3600123040090
:105400001C36426005610575836101603000054905
:1054100016F092F8A5623000402116F05FF82000E7
:1054200070BDC0464C640200014B024A1A607047CE
:105430002C4B0020D457002070B504000D0013F051
:1054400091FC2369C01A132803D81423181A13F0E7
:10545000BFFC2900206815F0A9FF20680368DB68FD
:10546000984700232375A36170BD00000EB410B5EA
:105470000A4C0B49A5440400FFAB183304CB02A827
:1054800001931BF00BF802A92000FFF7D5FF054B95
:105490009D4410BC08BC03B01847C046F4FBFFFF96
:1054A000FF0300000C040000F0B5040087B0206882
:1054B00003681B699847002800D192E020680368C0
:1054C0005B699847634BC6B21868002803D003682D
:1054D00031001B68984725001C353100280016F064
:1054E0002AF9277D012F48D05B49684616F024F839
:1054F0006946280016F073F90026B0420DD05749CE
:1055000003A816F019F803A9280016F074F9461E2E
:10551000B041C6B203A815F0C0FF684615F0BDFF44
:10552000002E06D0012323754D49280016F0BCF843
:10553000BDE74A4903A815F0FFFF03A9280016F0AC
:105540005AF9070003A815F0A8FF002FAFD02800D4
:1055500016F05BFA636A002BE6D013F003FC2061BF
:10556000404BB200D058002803D0036829001B68C4
:1055700098470136082EF3D1D6E70A2E97D113F0BB
:10558000F1FB3949206103A815F0D6FF03A92800D3
:1055900016F0E9F9060003A815F07FFF731C22D06E
:1055A000A761A369002B82D0A26A002A13D0012B25
:1055B0004ADD03A8636A3200290016F0DBF903A86C
:1055C00015F06BFF280016F020FA2900A06A16F0EB
:1055D00049F80023A362002321492375280016F00F
:1055E00063F807B0F0BD214903A815F0A5FF03A992
:1055F000280016F0B8F9060003A815F04EFF731C3A
:1056000002D00223A361CCE7194903A815F094FF47
:1056100003A9280016F0A7F9060003A815F03DFF1E
:10562000731C01D00323EDE7124903A815F084FF92
:1056300003A9280016F097F9060003A815F02DFF1E
:10564000731CAED00423DDE73100280016F0CAF940
:10565000B8E7C0462C4B002030340200353402003D
:105660004C640200304B0020333402003834020016
:10567000403402004D34020010B50400FFF714FF5F
:10568000A06910BD70B5826204000E0013F06AFBC1
:10569000050013F067FB401BB04208D22000FFF763
:1056A00003FFA0690028F4D00023A36270BD00238B
:1056B0002000A3621C30034915F0F6FF0120404290
:1056C000F4E7C0464C64020010B504000549FFF73A
:1056D000B3FE0022C8212000FFF7D4FF0138434267
:1056E000584110BD3034020070B505000E0013F0B3
:1056F00039FB040013F036FB001BB04208D228002F
:10570000FFF7E2FF012804D0642013F061FBF1E70A
:10571000002070BD10B507490400FFF78DFEFA2187
:10572000002289002000FFF7ADFF013843425841B5
:1057300010BDC0464A24020070B50400E1230D00EC
:10574000616800685B02994200D919000368DB694F
:105750009847E3680121D8B213F03EFDE3680121C8
:10576000D8B213F085FDA06800283CDB002D3AD0AC
:10577000C0B2012113F030FDA3680121D8B213F0AB
:1057800077FD642013F024FBA3680021D8B213F046
:105790006FFD1C492000FFF7A7FF002829D0E12357
:1057A00062685B0201209A4224D917492000FFF762
:1057B0005DFE0022C8212000FFF764FF012818D1F8
:1057C000206803685B6A9847642013F001FB206837
:1057D00061680368DB6998470A492000FFF784FF86
:1057E000431E984106E007492000FFF77DFF00288F
:1057F00001D1002070BD2000FFF78CFF0028C8D128
:10580000F7E7C04610270000573402008162704756
:10581000002310B5054A98008458002C01D181500E
:1058200010BD0133082BF6D1FAE7C046304B0020FB
:10583000002310B5054A980084588C4202D10023F9
:10584000835010BD0133082BF5D1FAE7304B00200F
:105850002323E12213B5074C00935202043B06496F
:105860002000FFF7C5FD054A0549200016F094F910
:1058700013BDC046004B00205855002000000020FA
:10588000E153000070B5002504000E0008490570C2
:1058900045608560C16001614161183015F04CFEC2
:1058A0006562AE4202D00348FFF7BEFD200070BD26
:1058B0004C640200004B0020F0B5037885B0050071
:1058C0000224002B21D07F4E3000FFF7D5FE041EAE
:1058D0001BD03000FFF7E8FD6F68172F15D8380090
:1058E00016F062F90C161D25293459686C72757B07
:1058F0007F85898F939A9EB2B7BDC2CD7249300021
:10590000FFF79AFD01233C006B60200005B0F0BD5D
:105910000223012C08DD002302242B70F5E76B49DC
:105920003000FFF789FD03236B600024EDE7012CB5
:10593000F1DC0423F8E7290030001831FFF766FF97
:1059400063493000FFF778FD0523EDE7012CF0DC1B
:105950002E006049183601A815F0EEFD01A93000AF
:1059600015F049FF040001A815F097FD002C01D0A7
:105970000A23D9E7584901A815F0DEFD300001A936
:1059800015F039FF060001A815F087FD002EC2D0E2
:1059900006236B60B9E7AB68002BBCD02900300050
:1059A0001831FFF733FFAA684C493000FFF75EFD5E
:1059B0000723B9E70823012CB6DDACE748493000DE
:1059C000FFF73AFD0923AFE7012CD1DDA3E74549F5
:1059D0003000FFF731FD0B23A6E70C23012CA3DDDC
:1059E00099E741493000FFF727FD0D239CE70E237F
:1059F000012C99DD8FE73D493000FFF71DFD0F2396
:105A000092E71023012C8FDD85E7EA6838493000E2
:105A1000FFF72CFD112387E71223012C84DD7AE7A1
:105A20002B6969691A78002A02D10A78002A06D0FF
:105A30000A0030002F49FFF719FD132374E72E49A0
:105A40003000FFF713FDF8E71423012C00DC6BE7AF
:105A500061E72A493000FFF7EFFC152364E7012CCA
:105A600000DD58E716235FE7290030001831FFF703
:105A7000CDFE23493000FFF7DFFC172354E7012C4C
:105A800000DD48E728002B6A1830591E15F0E0FEAB
:105A9000FB230340302BE5D0312B02D030380828CF
:105AA00005D118236B60153B2B7001242DE70228CC
:105AB00003D1162328706B6037E7032800D024E752
:105AC00029E7C046004B00206C3402007634020007
:105AD00080340200893402008F34020097340200BF
:105AE00015340200A4340200AE340200BC340200BB
:105AF000C6340200DD340200F73402008C240200B8
:105B000062340200F7B51D0008AB160004CB0F008D
:105B100019780AAB1B780400154800920193FFF72F
:105B20000BFE002803D1002323702078FEBD009BCC
:105B30000020636101232370019BA760E66025615B
:105B400060608342F2D013F00DF905002000FFF7EA
:105B5000B3FE0028E9D1636A002B05D013F002F9E7
:105B6000636A401B9842DED2642013F031F9EDE7FE
:105B7000004B002030B51C0085B008AB1D78044BED
:105B8000029501940093FFF7BDFF05B030BDC046FC
:105B90004C640200007870470020704713B56B46D4
:105BA0000268D9710733546819000122A04716BD55
