:020000040000FA
:10000000FC7F0020790B0000690B00006D0B0000E5
:1000100000000000000000000000000000000000E0
:10002000000000000000000000000000710B000054
:100030000000000000000000750B0000CD0C000067
:1000400010B5064C2378002B07D1054B002B02D0AE
:10005000044800E000BF0123237010BD5C000020B5
:1000600000000000CC1E000008B5084B002B03D098
:100070000748084900E000BF07480368002B03D089
:10008000064B002B00D0984708BDC046000000007A
:10009000CC1E00006000002058000020000000007E
:1000A000064B0322104002040549586808401043DB
:1000B0005860DA695107FCD47047C0460008004216
:1000C000FFFFFCFF38B5284A284B5A805A7852B2B5
:1000D000002AFBDB264B04211A6A264D0A431A62CA
:1000E0002B68012213432B602A680123214C1A42FA
:1000F000FAD1E2691A42F7D11423236041001E4865
:1001000001F008FD421EE068FF231A4098431043A7
:10011000E0602368022213432360EA69154B9107CC
:10012000FBD45A8B30218A4310210A435A83EB694E
:1001300001205A07FBD4114B02241A7802431A708B
:100140000F4B0F22197891431970197821431970B8
:100150000C490C782043087019780A401A701A78F4
:1001600020210A431A7038BD14400000000C0040E2
:100170000004004000080042006CDC0248440041DA
:100180003444004149440041F7B500230F1C01925B
:100190001D1C994254D001212A4E4000084333705F
:1001A000C1B2294B0322588B1C1C000910400128A6
:1001B00004D05B8B1B091A40022AF2D1606AC00A84
:1001C000C00208436062217E1F4B0122880708D4C9
:1001D000197E1142F7D05968C02292020A435A6030
:1001E00003E05B8B9B08134201D0002528E03270AE
:1001F000237E9907FCD5154A154B117801251970F6
:100200006268BD4212D0134B022013406360FFF7B7
:1002100047FF33785A1C3270227E9007FCD50B4979
:100220000B480A780135C254EDB2E9E78023DB02BE
:10023000134363600199002902D00320FFF730FFC8
:10024000281CFEBD7800002000080042280800425B
:1002500099000020FFFFFBFF024B00221870024BA9
:100260001A7070477A00002079000020F8B5274BFB
:100270001C786400E4B2264B03215D8B1A1C2D0907
:100280000D40012D04D05B8B1B0919400229F2D1CE
:10029000536ADB0ADB0223435362117E01231942B6
:1002A000FBD01B49498B8908194204D00320FFF772
:1002B000F7FE022427E017490D782B1C002B11D0E4
:1002C000154EEC1A365D154C2670114E177E012422
:1002D000768B274202D12642F7D00BE0B6082642A1
:1002E0000ED007E00B701C1C00280CD00320FFF779
:1002F000D7FE08E003200B700324FFF7D1FE02E0D5
:10030000013BDBB2DAE7201CF8BDC0467A000020D2
:1003100000080042790000207B00002028080042ED
:10032000034A1378591C1170024AD05401207047B7
:10033000790000207B000020154A164B1178002917
:1003400009D11549187809784118C9B21970802067
:1003500012494003C86111780131C9B2117019788E
:10036000F02902D81978092909D80B4908784042A0
:10037000C0B20870187809784118C9B2197012789B
:100380001B789A4203D18022044B5203DA617047F2
:100390007D000020010000200000002000440041FA
:1003A00010B5041C6B20FFF757FF201CFFF7B8FFA8
:1003B0000120FFF75BFF01210A1C6B20FFF7E4FE21
:1003C000014B187810BDC0469900002038B5051CB7
:1003D0006B200C1CFFF740FF281CFFF7A1FF201C1F
:1003E000FFF79EFF0120FFF741FF022038BD08B54F
:1003F0000520FFF7D5FFCE23011C19400520FFF78C
:10040000E5FF012008BD000010B5041C0020FFF727
:10041000C7FF78232D4A9843C1B2944242D018D8DE
:100420002B4B9C4238D009D82A4B9C4230D02A4BC7
:100430009C422FD0294B9C4245D13FE0284B9C4207
:100440002CD0284B9C422BD0274B9C423BD12023C5
:1004500033E0264A94422BD00AD8254B9C4223D025
:10046000244B9C4222D0244B9C422CD1402324E09C
:10047000224A94421ED004D8214B9C4223D16023AF
:100480001BE0204A944217D01F4A944215D01AE02C
:10049000082312E0102310E018230EE028230CE0BC
:1004A00030230AE0382308E0482306E0502304E024
:1004B000582302E0682300E0702319430020FFF76F
:1004C00085FF012000E0002010BDC046581100004B
:1004D00018100000780F0000C80F0000280F00005F
:1004E000B810000008110000681000009812000009
:1004F000F811000048120000A81100003813000095
:10050000E812000088130000D813000010B5041C86
:100510000020FFF745FF07239843E122C1B2920074
:10052000944220D008D8962C18D0FA235B009C4225
:1005300017D0642C22D11CE0114A944215D005D862
:100540009623DB009C4219D1042311E0FA22D20049
:1005500094420CD00B4A94420AD00FE0012421436C
:1005600007E0022304E0032302E0052300E0062362
:1005700019430020FFF72AFF012000E0002010BDF2
:10058000DC050000B80B000070B504AC267805ACA3
:100590002578441EA041C401002901D040210C430C
:1005A000002A01D020221443002B01D010231C4329
:1005B000002E01D008231C43002D01D004231C432E
:1005C0000220FFF7EDFE0125011C294021430220F6
:1005D000FFF7FCFE281C70BD10B5041C0420FFF7BB
:1005E000DFFE03231840084B9C4204D0074B9C427B
:1005F00008D1B02100E0982101430420FFF7E6FE76
:10060000012000E0002010BD10100000701000005C
:1006100008B50120FFF7C4FECF23011C19400120BB
:10062000FFF7D4FE012008BD07B5FFF7E0FEFFF796
:10063000EFFF0948FFF7E8FEFA20C000FFF766FF6A
:10064000002300930193181C191C1A1CFFF79CFF30
:100650000248FFF7C1FF07BD08110000101000009D
:1006600008B50348FFF72EFDFFF7DEFF08BDC046C3
:10067000A086010010B5C3699C07FCD4036802245E
:10068000A3430360C46901231C42FBD104682343D4
:1006900003600368DC07FCD4C46901231C42FBD15E
:1006A000C469DC401C42F7D1084B1A430260C3699D
:1006B0005A07FCD4C0239B0243608181C3699C0715
:1006C000FCD4036802221343036010BD0400004001
:1006D000037EDA07FCD5018570470000027E012306
:1006E0005107FBD5428B1A4207D1428BDA401A429E
:1006F00003D1428B92081A4202D0034B01221A7096
:10070000008DC0B27047C0467E00002070B50368FF
:10071000041C988B1A1C0821FF32084226D0802026
:1007200099839872112353704021144B9171507129
:100730005E68134DC0202E40800506435E605E69F2
:100740003540284358610F4818600F4818615D68AC
:100750000E4828408025AD02284358605868800B19
:100760008003586000235171237105E0137ADA0683
:1007700002D5201C00F0E4FA207970BD9C01002015
:10078000FFFFFF8F9C0000201C010020FF3F00F0B6
:10079000002303714371044B016083600B780222D4
:1007A00013430B707047C0460D07000038B5364B39
:1007B0002021DA6901200A43DA61344B06241A78D1
:1007C00002431A70324B0F2219789143197019782D
:1007D000214319702F490C782043087019780A407A
:1007E0001A701A7860210A431A702B4B2B4A5A80D0
:1007F0005A7852B2002AFBDB294B01211A780A43AE
:100800001A709A78D107FCD426480268510B1F222F
:100810001140914200D1052111408C011D8D2249CA
:100820002940214319850468A10C0A401F2A00D1E0
:100830001D221C8D1F210A408C4322431A85026809
:100840000721D20D0A408A4200D103220A40188DA6
:100850001103164A02400A431A8519787F220A407A
:100860001A701A78042112480A431A7058621A89B9
:100870000C218A431A811A8901218A431A81002195
:10088000802201F0A0F938BD000400405844004126
:100890003C44004159440041000C00400640000027
:1008A00000500041246080003FF8FFFFFF8FFFFFF2
:1008B0009C010020F7B5141C1F4A5F0101971D1C05
:1008C000D319061C5869271C4000400F0330103311
:1008D000C74006D00F1C8022596812060A435A608E
:1008E00009E02F1C7B1E9F41144BBF01FF18381CD1
:1008F000221C01F05FF901990F4808354218176171
:10090000131C5269A104920B890C92030A435A6189
:1009100059690B4A0A405A616B01F3180222DA71D5
:100920005979802252420A435A716B01F318DB79DC
:100930009A07FAD5201CFEBD9C0100201C01002056
:10094000FF3F00F0F8B51A4E051C3378141C002B3D
:1009500012D1184B184A1A645A6C920B92035A64BB
:10096000586C164A02405A64A2235B00EA5C40209D
:100970000243EA54012333704827FF37EA5D01231D
:10098000134012D00B4B5A6C9204920CA24202D22A
:100990005C6CA404A40C081C221C074901F00AF991
:1009A0000123EB550023337000E01C1C201CF8BD14
:1009B0007F0000209C010020DC000020FF3F00F0B1
:1009C000FF3083792022002900D110221343837144
:1009D00070470000084BFF305A69920B92035A612E
:1009E00002230372827980235B4213438371037A6B
:1009F0009A07FCD57047C0469C01002080235B42CB
:100A00001943C9B28172704770B5A02303225B00FD
:100A1000C254134B134A5C6CC021144089050C432B
:100A200046255C64FF35402444550F4D30261D6437
:100A300090256D0046555D6B1540294392255963FD
:100A40006D0080214155094D1D63B0256D00445551
:100A50005C6F22405A67B2235B00C15470BDC04630
:100A60009C010020FFFFFF8FDC0000205C010020C4
:100A7000024B5B785BB2002BFADB7047000C004046
:100A8000024BDB68DA06FBD57047C0460008004021
:100A9000F8B52A4B1E22596891430222114359602E
:100AA000274B28491E1C9982998A0A439A82F36827
:100AB0000227234C3B42FAD0234D0123AB60FFF7C2
:100AC000D7FF224B6B60FFF7D3FF8223DB016B80E4
:100AD000FFF7CEFFA38C80229343A384FFF7D0FFC0
:100AE0001B4BE362FFF7CCFFA38C1A4A1343A3848A
:100AF000FFF7C6FFA38C1F43A784F3681A06FCD533
:100B00000F4BDB685A06F8D50024FFF7B9FFAC603D
:100B1000FFF7AEFF104B6B60FFF7AAFF0F4B104AB9
:100B2000C0215A600F4A0906106A0002000A0143F8
:100B3000116207229C601A60F8BDC0460040004167
:100B4000000800400C060000000C004001050100F8
:100B5000B805FF7D040A00000007030010E000E074
:100B6000E703000000ED00E00EBEFEE70DBEFEE76D
:100B700005BEFEE702BEFEE70E4A0F4838B58242C8
:100B800004D10E4A0E4B93420ED10AE00D4C944212
:100B9000F7D00023D1188842F3D9E55804330D600B
:100BA000F8E700F011F804E09342FAD2002102C302
:100BB000FAE7FEE7000000205C000020AC03002004
:100BC0005C000020D01E000038B5344D2B68013386
:100BD0001AD0334B2A1D1A60EAB2002A14D1314BC5
:100BE000197801231940304B0AD118682F4A9042D6
:100BF00001D1196008E01A602D4A013A002AFCD19F
:100C00001A602C4B01221A70FFF742FF62B6FFF701
:100C100027FD284B284C1B78002B0AD02B6883F328
:100C200008881E4BFF229343A3601D4B1B681B6863
:100C3000184700F09DFD00F04FF8204B8022520332
:100C40009A601F4B1F4A051C5A60216AC022090284
:100C5000090A12060A43226200229A6007221A60D9
:100C6000AB68281C9847184B002801D001221A7045
:100C70001A78002A05D0002000F08CFA00F004FB5E
:100C8000FCE71B78002BEBD100F0E6FD0028E7D055
:100C9000012000F07FFA00F0F7FAFCE700200000E6
:100CA0001C02002038040040FC7F002035817307BF
:100CB00048E801008000002000ED00E00044004111
:100CC00010E000E0E70300008100002008B5FFF716
:100CD00033FB00F0C3FA08BD10B5054B054C23608B
:100CE000FFF764FD201C2168FFF752FD201C10BD9A
:100CF000005000412002002070B5051CC0B0081C47
:100D0000161C0C1C00F067FF40006A4603230230EB
:100D10005370107076080123E218013A11785A00D6
:100D2000002906D1281C69460023FFF7C3FD40B007
:100D300070BDB342F6DA684681520133ECE7000039
:100D4000F7B5BA4A04681378B949271CFF37051C60
:100D5000102038720B705378B648B74E03709378F2
:100D60003380D178338809020B4333801179B34B38
:100D70001980517918880902084318809079B04980
:100D80000880D2790888120202430A8040227A71D0
:100D9000A84F3A78A64F120238780F1C0243A94890
:100DA0008446181C624500D1C2E020DC8021490045
:100DB0008A4200D16EE109DC812A00D192E0822AC8
:100DC00000D195E0802A00D064E18BE081235B00B4
:100DD0009A4200D1CFE000DA58E1C0239B009A424A
:100DE00000D157E1984B9A4200D14FE152E1902354
:100DF0001B019A4269D015DCD023DB009A4222D035
:100E000088231B019A4269D0A023DB009A4200D0BC
:100E100040E1201CFFF7DEFD3188286889B2FFF72A
:100E2000EDFD3BE1894B9A4200D12FE100DC31E13D
:100E3000874B9A4200D11DE1864B9A4200D029E1AE
:100E400033886B7122E133881B0A012B08D10B8890
:100E500012222868934201D80A8892B27E4911E191
:100E600033881B0A022B08D10B884322286893423F
:100E700001D80A8892B2794904E133881B0A032B0E
:100E800000D007E13388DBB2012B17D0002B07D04D
:100E9000022B00D0FEE00A882868D2B2704911E027
:100EA000042201A86F4900F085FE3B8804222868CF
:100EB000934201D83A8892B201A9E3E00A882868EF
:100EC0006949D2B2FFF718FFE8E03388201C2B7184
:100ED000FFF780FD201CFFF797FDDFE0291C01C90B
:100EE0000122CFE0614900230B8028680222CAE07A
:100EF0005E4900220A801888502210405C4A107017
:100F00001E880F20304018801888032800D9C1E0BF
:100F100012781B8808335B01E418A379002A01D0FA
:100F20009B0600E0DB06DB0F0B8028680222A9E0AD
:100F300019887F2291434E4AC9B2117018880F2137
:100F4000014019803188002900D0A3E019880029C8
:100F500000D19FE01988032900D99BE012781B88F3
:100F600008335B01E318002A02D020225A718DE079
:100F7000102159718AE002887F239A433C4BD2B2F8
:100F80001A7001880F220A4002803288002A00D09D
:100F900080E00288002A00D17CE00288032A00D980
:100FA00078E01B78002B1FD0038808335B01E3181F
:100FB0009B799A066AD50388202208335B01E318DF
:100FC0001A71038808335B01E318DB795F065DD58E
:100FD0000388402208335B01E318DA710388022298
:100FE00008335B01E3181EE0038808335B01E31854
:100FF0009B79D9064AD50388102208335B01E31890
:101000001A71038808335B01E318DB799A063DD532
:101010000388202208335B01E318DA710388012278
:1010200008335B01E3181A7130E0C0469C000020D1
:1010300083000020880000208A0000208C0000200F
:1010400086000020020300000103000021200000B0
:10105000A121000021220000201C0000040000202B
:101060000C1C0000FC1B0000001C00008400002081
:10107000820000200B8808222868934201D80A8841
:1010800092B207490023FFF715FC07E0201CFFF789
:10109000A1FC03E0201C0121FFF792FCF7BDC04634
:1010A0004800002007B5054B0122019001A91868EE
:1010B000131CFFF7FFFB01200EBDC04620020020DD
:1010C00013B5054B6C4607341868211C0122FFF745
:1010D00039FC207816BDC0462002002010B5074C10
:1010E000201CFFF713FB031C0020834205D022685D
:1010F0004823FF33D05C0123184010BD200200209C
:1011000010B5054A0C1C031C191C10680123221C75
:10111000FFF7D0FB201C10BD2002002070B5084C4A
:10112000061C201C0D1CFFF7F1FA0023984205D085
:101130002068311C2A1CFFF705FC031C181C70BD1D
:1011400020020020F8B50C4C051C201C0E1CFFF7DB
:10115000DDFA0023271C341C98420AD0002C07D04B
:10116000291C221C3868FFF7EDFB241A2D18F5E71F
:10117000331C181CF8BDC0462002002008B5031C13
:10118000081C111C9847024B64221A8008BDC046F7
:1011900092000020012805D1054B064A1A60064B33
:1011A000187004E0002802D1044A014B1A6070470D
:1011B00090020020541C000098000020A01C000099
:1011C00030B50A1C1C4985B00978031C00292AD0B7
:1011D000042A01D1006804E0022A01D1008800E05D
:1011E0000078520004A98B180B3B9C1AA3420BD029
:1011F0000F210140092902D83025294300E0373169
:1012000019700009013BF1E701A930230B70782325
:101210004B700A208B1898700D20D870074B043241
:101220001B68D86803E005490968C868191CFFF7FE
:10123000A5FF05B030BDC0468E0000209002002002
:1012400072B6EFF30883044A1360036883F30888D7
:10125000436818477047C04694020020084B1A881C
:10126000002A03D01A88013A92B21A80054B1A88D4
:10127000002A03D01A88013A92B21A807047C046F9
:101280009200002090000020F0B591B008A9CC4A4F
:101290000B1C31CA31C351CA51C360CA60C3C94BA8
:1012A000C9489A687A255203520F92005258C7498A
:1012B00002609C68A4B262430C60C54900240A60C5
:1012C000C44A1460C44C2570C44CC54D2368281C06
:1012D0001B6940219847002802D0C24B64221A8023
:1012E000C14B00221860C14B1D60C14BC04DBE4FA9
:1012F0001A602A683B689A42E6D2BC4B1B681A788F
:10130000FF2A00D114E2232A00D0EBE1B94E337852
:10131000002B06D0B14BB8491B680222D868FFF7F2
:101320002DFFAD4B1B78532B3CD13B682A68934271
:101330001ED9AE4801322A609A1AB04B01681B6868
:1013400001310160AE4E9A4201D2326000E033605A
:10135000A04832680068049000F02CFC33682968CB
:101360005A182A60A14A1668F1181160A54A13702C
:101370002B68013B2B609D4B1A68013A1A60A14B08
:101380009E4A1B7811688B420AD222689148C91A7A
:10139000006892699047002802D0924B64221A801C
:1013A000C0468DE1522B0AD18A48944A23680068CE
:1013B00011685B69039098476422934B0DE04F2BB3
:1013C00005D1844B8D4A1B6812681A7078E1482B4E
:1013D00005D1804B894A1B6812681A8070E1572B2F
:1013E00005D17C4B854A1B6812681A6068E16F2B37
:1013F00003D1784B0121186807E0682B08D1754BA1
:101400007E481B6802211B880360FFF7D9FE57E165
:10141000772B06D16F4B79481B6804211B6803604A
:10142000F3E7472B13D1754B1868FFF709FF774B8C
:101430001B6883F3088862B6754B1B78002B00D1BC
:101440003EE1664B06201B681B68984738E1542B29
:1014500004D101233370614B1B6864E04E2B0CD127
:101460003378002B06D15D4B63491B680222D86894
:10147000FFF784FE0023337022E1562B57D12368F7
:101480006449D8680122FFF779FE23686249D86869
:101490000322FFF773FE614D2368291CD8680122DF
:1014A000FFF76CFE23685E49D8680D22FFF766FEE1
:1014B0002368291CD8680122FFF760FE4B4F4C4D72
:1014C0005849002339602B603A1C281C13685E1CA5
:1014D00016601B780593002B03D00368013303606B
:1014E000F4E73E4E2A683368D868FFF747FE336852
:1014F0004A49D8680122FFF741FE059929604A4907
:1015000039603A4A1368581C10601B78002B04D0CD
:10151000374B1A6801321A60F3E733682A68D868D3
:10152000FFF72CFE3368D86833490222C6E0334AFD
:10153000582B17D1244E264D366813682A68B100FF
:1015400093420AD21F4D5808E861384828801D4D43
:10155000287DC607FBD55B18F2E7204B34491B6892
:10156000D868AAE0592B79D112681A4B3149002A60
:1015700002D11B680B606CE0124D086819686B683B
:10158000104E8025AB4392087360002A61D02A4B2D
:101590000C4D2B800B4E337DDD07FBD500230A4D10
:1015A0002D680195AD08AB4203D3244D054E35801F
:1015B00046E09342F9D09D00465901334E51EEE783
:1015C000341C00000040004148020020400200207E
:1015D0003C0200208C0200203802002090020020F3
:1015E0004C02002090000020300200203402002035
:1015F000440200208E000020941C0000980200206D
:101600009C0200202C020020920000209402002066
:1016100098000020701C0000991C0000721C000043
:10162000BC1C0000741C0000801C000002A5FFFF11
:10163000891C00009400002044A5FFFF04A5FFFFC3
:101640003F4E357DEE07FBD59D0049194019D21A52
:101650009BE73C4B3C491B68D8682EE05A2B2FD1A6
:101660003A4B17681D680026EF19BD4206D028784E
:10167000311C00F013F90135061CF6E7314B3449F3
:101680001B680122D868FFF779FD07230F2232403B
:10169000111C36093031092A00DD07311820C01825
:1016A0006A468154013BF1D2236806A9D868082212
:1016B000FFF764FD23682749D8680322FFF75EFD22
:1016C000254B7A221A70254B00221A60244B1B7876
:1016D00093422DD01B4B23491B680122D868FFF78A
:1016E0004DFD25E0111C3039C8B21C4B092804D827
:1016F0001D682A01114319601AE0111C413905299E
:1017000003D81E68373A310106E0111C61390529FA
:1017100004D81868573A01010A4308E02C2A03D17B
:101720000A4A1968116001E00B490A7000221A6028
:101730000D4B1A6801321A600C4B1A680132D5E55C
:1017400000400041900200208D1C00008C0200200F
:10175000911C0000931C0000380200209802002019
:101760008E000020971C000044020020340200205C
:1017700010B51C4B01201A78032402431A701A4B2F
:101780000F2219789143197019782143197017495C
:101790000C782043087019780A401A701A783021A2
:1017A0000A431A70124B80211A6A0A431A62114BBB
:1017B000114A5A805A7852B2002AFBDBC4220F48E1
:1017C0000F499203FEF756FF0E4A002313700E4A8C
:1017D00013700E4A13700E4A13700E4A13700E4A9D
:1017E000137010BDD6440041BB440041D7440041B2
:1017F00000040040000C004019400000001C0042A2
:101800002AF60000A002002027030020A1020020E9
:10181000A4020020280300202503002008B5C1B23F
:101820000248FEF755FF012008BDC046001C0042DB
:10183000024B187E4007C00F7047C046001C004294
:1018400008B5FFF7F5FF0028FBD00248FEF746FF7A
:1018500008BDC046001C004208B5FFF7E9FF0023A1
:10186000984205D0FFF7ECFF031C233B5A4253413B
:10187000181C08BD70B5041C0D1C4618B44204D0D9
:101880002078FFF7CBFF0134F8E7281C70BD10B5B6
:10189000041CFFF7D5FF2070012010BD0B0A584033
:1018A000034B4000C05A0902484080B27047C0460E
:1018B000CA1C0000F7B50024051C0F1C261CBC42E6
:1018C00020D0FFF7BDFF114BC0B21B780190002B59
:1018D0001AD1311CFFF7E2FF0D4B061C1A88002AB3
:1018E00004D10C4A11782A1C002907D001996A1CDE
:1018F0002970802F02D11988013919800134A4B2CE
:10190000151CDCE7301C00E00120FEBD2503002093
:10191000A202002026030020F0B53E4E85B0002232
:1019200003900C1C32703C4B914201D1012201E02A
:101930003A490C801A707F231C4201D080349C43AA
:10194000FFF77EFF3378C0B2002B07D0002535703B
:10195000FFF776FF3378C0B2AB4236D1432803D0CD
:10196000712853D01528EBD1012300930120FFF7F4
:1019700055FF0098FFF752FF00998025C843C0B279
:10198000FFF74CFF039B00270293244A1388002B88
:101990001DD1214901930978002918D10198FFF739
:1019A0003DFF391C0198FFF779FF013D071C002D11
:1019B000EBD1000AC0B2FFF731FFF8B2FFF72EFFFC
:1019C000FFF73EFF3378002B0AD035701FE00299F5
:1019D000013B09781380029B019101330293DDE7FB
:1019E000C0B2062807D1009B03990133DBB28031D6
:1019F0000093803C0391002CB8D10420FFF70EFF28
:101A0000FFF71EFF044B01251C7000E00025281C79
:101A100005B0F0BD2503002026030020A20200200F
:101A2000F0B5384C87B0002301902370994201D162
:101A3000012301E0344A1180344A642613704320A4
:101A4000FFF7ECFE324FFFF7F3FE002803D1002F23
:101A500003D0013FF7E7002F03D1013E002EEED166
:101A60004DE00125FFF7ECFE2378002B38D1C0B202
:101A70000290012805D004283DD10620FFF7CEFEB4
:101A800039E005AE0221301CFFF714FF01988021D8
:101A9000FFF710FF23780390002B18D1FFF7D0FE3B
:101AA0000702FFF7CDFEBFB223783F18BFB2012B6C
:101AB0000DD0039B9F4207D13378AB4204D1EB4357
:101AC0007278DBB29A4204D01820FFF7A7FE0023F9
:101AD00003E00620FFF7A2FE029B2278002A02D034
:101AE000002626700BE0012B05D1019A6B1C803279
:101AF000DDB20192B6E7054A002313700126301CBF
:101B000007B0F0BD25030020A2020020260300201C
:101B100000350C00002934D00123002210B4884283
:101B20002CD301242407A14204D2814202D209010C
:101B30001B01F8E7E400A14204D2814202D249002D
:101B40005B00F8E7884201D3401A1A434C08A042D0
:101B500002D3001B5C0822438C08A04202D3001B66
:101B60009C082243CC08A04202D3001BDC0822437D
:101B7000002803D01B0901D00909E3E7101C10BCA1
:101B80007047002801D00020C04307B4024802A1DA
:101B90004018029003BDC046190000000029F0D093
:101BA00003B5FFF7B9FF0EBC4243891A1847C04678
:101BB0007047C04610B50023934203D0CC5CC45498
:101BC0000133F9E710BD031C8218934202D019704B
:101BD0000133FAE770470023C25C0133002AFBD1CE
:101BE000581E7047F8B5C046F8BC08BC9E46704702
:101BF000F8B5C046F8BC08BC9E467047040309040B
:101C000041726475696E6F204C4C4300417264757B
:101C1000696E6F204D4B52204E42203135303000DE
:101C2000120100020200004041235500000201029F
:101C3000000100000800000010000000200000006B
:101C400040000000800000000001000000020000D1
:101C5000000400001D1800004118000031180000A9
:101C6000751800008F18000019190000211A0000D3
:101C7000760020004170722031312032303139003D
:101C800031333A30393A353700580A0D00590A0DC8
:101C9000005A00230A0D003E00322E3000000000E2
:101CA000A5100000C1100000DD10000001110000AF
:101CB0001D11000001110000451100005B4172641C
:101CC00075696E6F3A58595A5D0000002110422024
:101CD00063308440A550C660E770088129914AA10D
:101CE0006BB18CC1ADD1CEE1EFF131121002733284
:101CF0005222B5529442F772D662399318837BB35D
:101D00005AA3BDD39CC3FFF3DEE362244334200413
:101D10000114E664C774A44485546AA54BB52885AC
:101D20000995EEE5CFF5ACC58DD553367226111663
:101D30003006D776F6669556B4465BB77AA71997FC
:101D40003887DFF7FEE79DD7BCC7C448E5588668EB
:101D5000A7784008611802282338CCC9EDD98EE94C
:101D6000AFF9488969990AA92BB9F55AD44AB77AC3
:101D7000966A711A500A333A122AFDDBDCCBBFFB9C
:101D80009EEB799B588B3BBB1AABA66C877CE44CD3
:101D9000C55C222C033C600C411CAEED8FFDECCDEC
:101DA000CDDD2AAD0BBD688D499D977EB66ED55EA3
:101DB000F44E133E322E511E700E9FFFBEEFDDDF3C
:101DC000FCCF1BBF3AAF599F788F8891A981CAB1C8
:101DD000EBA10CD12DC14EF16FE18010A100C230FA
:101DE000E3200450254046706760B9839893FBA3B5
:101DF000DAB33DC31CD37FE35EF3B1029012F3224A
:101E0000D2323542145277625672EAB5CBA5A89504
:101E100089856EF54FE52CD50DC5E234C324A01499
:101E200081046674476424540544DBA7FAB7998794
:101E3000B8975FE77EF71DC73CD7D326F2369106E9
:101E4000B01657667676154634564CD96DC90EF9DC
:101E50002FE9C899E9898AB9ABA944586548067839
:101E60002768C018E1088238A3287DCB5CDB3FEBF4
:101E70001EFBF98BD89BBBAB9ABB754A545A376A89
:101E8000167AF10AD01AB32A923A2EFD0FED6CDDC4
:101E90004DCDAABD8BADE89DC98D267C076C645CD9
:101EA000454CA23C832CE01CC10C1FEF3EFF5DCFD4
:101EB0007CDF9BAFBABFD98FF89F176E367E554E29
:101EC000745E932EB23ED10EF01E000000000000A2
:101ED00001140000090243000201008032090400DD
:101EE0000001020200000524001001042402000584
:101EF000240600010524010001070583030800FFF3
:101F000009040100020A00000007058102400000E8
:101F1000070502024000000000C2010000000800A6
:0C1F20006900000041000000000000000B
:1020000000800020A18B0100898B0100898B0100D9
:1020100000000000000000000000000000000000C0
:10202000000000000000000000000000898B01009B
:102030000000000000000000898B0100F58B01000A
:10204000898B0100898B010049530000258601001E
:10205000898B0100898B0100898B01008D8B010028
:10206000898B0100898B0100898B0100ED7C0000C8
:10207000898B0100E18A0100D18A0100898B01006E
:10208000898B0100898B0100898B0100898B0100FC
:1020900000000000898B0100898B0100898B010001
:1020A000898B0100898B0100898B0100898B0100DC
:1020B0000000000010B5064C2378002B07D1054B1B
:1020C000002B02D0044800E000BF0123237010BDA4
:1020D000C002002000000000A88A0200044B10B5D6
:1020E000002B03D00349044800E000BF10BDC046E8
:1020F00000000000C4020020A88A020010B50400FD
:10210000183019F050F9200010BD000010B5024839
:1021100016F078FB10BDC046BC05002070B5012547
:10212000184C194B19491A48E5541DF04DFD194931
:1021300019481DF049FD194919481DF045FD194B75
:1021400019491A48E5541DF03FFD0522184B19495D
:10215000E2520233E552184B1848E5540223E57168
:10216000E372237325721DF02FFD154915481DF0EC
:102170002BFD154915481DF027FD154915481DF083
:1021800023FD70BD044300204B04000067260200BD
:10219000CC460020712602003F4500207826020030
:1021A0001E45002049040000882602004945002001
:1021B00012020000AD2602004A0400003343002052
:1021C000B126020053430020313402007343002043
:1021D000B3260200B34300200A21435E0200181E0A
:1021E00001D01B01D018704770B50D00041E0FD030
:1021F000C168A9420CD0002D06D0002904D02800C7
:102200001DF0D8FC002803D02000FFF7E5FFEDE724
:10221000200070BD4A688B681032934204D20123BB
:102220000B74002318007047103B8B60002BF9D013
:102230004268002A08D0991A09115181002243608E
:102240005A811A72DA60EDE70360F7E7F7B50378B1
:1022500004000D002B2B1DD02D2B1CD10127013488
:1022600023781A00303A092A02D92E2B00D0C9E06F
:1022700000200A26644922781300303BDBB2092B88
:102280000BD8884211D8DA43704382420DD3C0186C
:102290000134F0E701340027E2E7002A05D1002FDE
:1022A00018D080231B06984209D90026574B984224
:1022B0001AD90A21013619F011FC76B2F6E77F220D
:1022C0002B7A404293431A000A2313432B7228604F
:1022D0003800FEBD7F222B7A286093431A00082322
:1022E00013432B720127F3E723781A00303A092AA7
:1022F00003D8013676B20134F6E72E2B0FD10A212E
:10230000434A01342378303BDBB2092B07D8904293
:1023100003D84843013E181876B20134F2E720236F
:1023200022789A430023452A3AD162782D2A1FD178
:10233000023401330193002321783039CAB2092ACB
:102340002AD80A225343CB18F118262922DD019AF4
:102350002B7A7F20002A11D00024002F01D0802466
:1023600024060C2183430B432B722C60019FAFE7A3
:102370002B2A01D00134DDE70234DBE7002F06D041
:1023800024490C22834313432B722960AAE7FF21BF
:10239000C905F6E70134CFE7019A002A00D05B4275
:1023A0002478002C2ED1F6181AF0D4FB002E1ADD5A
:1023B00001231E4204D0184AA300D1581AF06AF82B
:1023C00001347610E4B2002EF2D1002F02D0802327
:1023D0001B06C0187F222B7A286093431A000C2317
:1023E00013432B727EE77642002EEED001231E426D
:1023F00004D00A4AA300D1581AF04CF801347610E0
:10240000E4B2F1E7002763E799999919FFFF7F008C
:10241000CBCC0C00000080FF282302001023020018
:1024200070B592B0FFF772FE944C03A8210019F02A
:1024300009F8210006A819F005F8210009A819F0EB
:1024400001F821000CA818F0FDFF8D4906A819F02D
:10245000B1F88C4C0FA8210003F020FF0FA909A8A8
:1024600019F0A0F80FA818F09EFF21000FA803F0A4
:1024700031FF0FA90CA819F095F80FA818F093FFD9
:10248000814C824920001DF09FFB814920001DF0F6
:1024900075FB804920001DF071FB7F4D2000290055
:1024A0001DF06CFB7D4920001DF068FB7C4E200078
:1024B00031001DF063FB069920001DF05FFB310029
:1024C00020001DF05BFB290020001DF057FB754923
:1024D00020001DF053FB310020001DF04FFB099937
:1024E00020001DF04BFB310020001DF047FB2900B0
:1024F00020001DF043FB6C4920001DF03FFB310024
:1025000020001DF03BFB0C9920001DF037FB310033
:1025100020001DF033FB290020001DF02FFB634934
:1025200020001DF02BFBFFF7F1FD0A2201000FA890
:1025300018F0EAFF0F9920001DF020FB0FA818F0FB
:1025400032FF290020001DF019FB594920001DF021
:1025500015FB8523574E9B00F15A0A220FA818F04D
:10256000AFFF0F9920001DF009FB0FA818F01BFF0B
:10257000290020001DF002FB4F4920001DF0FEFA4B
:102580004E4B0A22F15A0FA818F09AFF0F9920001B
:102590001DF0F4FA0FA818F006FF290020001DF026
:1025A000EDFA474920001DF0E9FA464B0A22197856
:1025B0000FA818F074FF0F9920001DF0DFFA0FA884
:1025C00018F0F1FE290020001DF0D8FA3E49200045
:1025D0001DF0D4FA86239B00F15A0A220FA818F0A6
:1025E0006FFF0F9920001DF0C9FA0FA818F0DBFE4D
:1025F000364920001DF0C2FA354D0A22354928001F
:1026000018F0A1FE0A223449280018F09CFE21008F
:10261000280018F047FE3149280018F043FE3049E1
:102620000FA818F00FFF06A90FA819F02DF82D49D3
:1026300019F037F800222C4E0092130001003000F0
:1026400013F097FF0FA818F0AEFE2100300018F02D
:102650000DFE300014F083FB2449280018F022FE00
:102660000CA818F0A0FE09A818F09DFE06A818F006
:102670009AFE03A818F097FE12B070BD4C640200D9
:10268000CC46002070040020BE05002085270200F3
:10269000872702008F2702009A2702009C2702004A
:1026A00086350200AA270200B6270200BF270200D3
:1026B000CC27020004430020D627020012020000AB
:1026C000E22702003C040020F4270200FF2702005A
:1026D000345400203D3D3D3D6E6F734A0128020099
:1026E0001A28020023280200740400203528020062
:1026F000F0B58BB0B94907A803F030FE07A819F070
:1027000033F90026029007A818F04DFEFFF7FEFCF3
:10271000B34904A818F096FEB24D04A8290018F099
:1027200049FFB14CB149200018F0BCFDB049200070
:1027300018F09CFD2900200018F0B4FD3700B31CF0
:102740000393AC4B1B68BB4200DC42E1AA4CAB4993
:1027500020001DF039FAAA4920001DF00FFAA949FE
:1027600020001DF00BFAA84D200029001DF006FAEC
:10277000A64920001DF002FAA54920001DF0FEF92F
:10278000049920001DF0FAF9A14920001DF0F6F986
:10279000290020001DF0F2F99E4920001DF0EEF9FD
:1027A0009D4BB900C9580A2207A818F09BFE07994B
:1027B00020001DF0E3F907A818F0F5FD290020001E
:1027C0001DF0DCF9954920001DF0D8F9944B0A2240
:1027D000995F07A818F074FE079920001DF0CEF944
:1027E00007A818F0E0FD290020001DF0C7F98D4969
:1027F00020001DF0C3F98C4B0A22995F07A818F03E
:102800005FFE079920001DF0B9F907A818F0CBFD6D
:10281000290020001DF0B2F9844920001DF0AEF916
:10282000834B0A22995F07A818F04AFE07992000F7
:102830001DF0A4F907A818F0B6FD290020001DF02E
:102840009DF97C4920001DF099F97B4B0A22995F84
:1028500007A818F035FE079920001DF08FF907A88A
:1028600018F0A1FD290020001DF088F9734920000F
:102870001DF084F9724B0A22995F07A818F020FE18
:10288000079920001DF07AF907A818F08CFD29009F
:1028900020001DF073F96B4920001DF06FF96A4BA1
:1028A0000A22995F07A818F00BFE079920001DF077
:1028B00065F907A818F077FD290020001DF05EF9E2
:1028C000624920001DF05AF9614B0A22995F07A85E
:1028D00018F0F6FD079920001DF050F907A818F030
:1028E00062FD290020001DF049F95A4920001DF021
:1028F00045F9594B0A22995F07A818F0E1FD07999D
:1029000020001DF03BF907A818F04DFD290020001C
:102910001DF034F9514920001DF030F9504B0A22C6
:10292000197807A818F0BBFD079920001DF026F9BB
:1029300007A818F038FD290020001DF01FF94949AB
:1029400020001DF01BF90A22029907A818F0B8FD13
:10295000079920001DF012F907A818F024FD42493C
:1029600020001DF00BF9204E4049300018F09AFC71
:102970002100300018F096FC02F0C0FC3C49300009
:1029800018F090FC3B4907A818F05CFD3A4907A8ED
:1029900018F07AFE394918F084FE0022384D009272
:1029A00013000100280013F0E4FD07A818F0FBFC59
:1029B0002100280018F05AFC280014F0D0F9314901
:1029C000300018F06FFC280013F074FE0137039EEE
:1029D000B5E604A818F0E7FC0BB0F0BDA805002090
:1029E0004C640200CC46002034540020B72602007C
:1029F000D82602006C040020BE05002085270200B6
:102A000087270200E82602009A2702009C2702007E
:102A100086350200BF2702004C030020EF2602008B
:102A2000A6030020F5260200DC020020FC2602009E
:102A300014030020012702001E04002006270200C4
:102A4000C40300200C270200880300201327020083
:102A5000E203002019270200000400201F270200C3
:102A60003C04002025270200FF2702002B2702003C
:102A70003F2702001A280200FC020020232802003F
:102A8000740400203528020070B505000024AC4213
:102A90000FDA0121062016F067FBC82016F0EEF8C9
:102AA0000021062016F060FBC82016F0E7F801347C
:102AB000EDE770BD30B52A4985B0040018F0C2FCBE
:102AC000284D280015F080FE092803D8264920004B
:102AD00018F0AEFD280015F077FE0A22010001A8CB
:102AE00018F0DDFC01A9200018F090FD01A818F0F5
:102AF0005AFC280015F072FE092803D81A49200054
:102B000018F096FD280015F069FE0A22010001A8C0
:102B100018F0C5FC01A9200018F078FD01A818F0F4
:102B200042FC280015F064FE092803D80E49200055
:102B300018F07EFD280015F05BFE0A22010001A8B6
:102B400018F0ADFC01A9200018F060FD01A818F0F4
:102B50002AFC0649200018F06BFD200005B030BDAE
:102B60004C640200BC0500202B35020058280200EE
:102B7000F0B593B01E0018AB019200229B5E0400DA
:102B8000029319AB0027DF5F1AAB00229B5E0D009A
:102B900003931BAB00229B5E354904931CAB0022C0
:102BA0009B5E3448059318F07DFB06A8FFF782FF73
:102BB000314B1B78002B56D01723069A2F4909A8B2
:102BC00014F0F2FB0A22210009A818F0D0FB2C4CCB
:102BD00009A8210018F04AFB0A22390009A818F0B8
:102BE000AEFB210009A818F041FB0A22310009A818
:102BF00018F0A5FB210009A818F038FB0A222900CB
:102C000009A818F09CFB210009A818F02FFB0A2244
:102C1000019909A818F093FB210009A818F026FBD8
:102C20000A22039909A818F08AFB210009A818F0C4
:102C30001DFB0A22029909A818F081FB210009A8AE
:102C400018F014FB0A22049909A818F078FB210057
:102C500009A818F00BFB0A22059909A818F073FBC4
:102C600009A814F0E7FA06A818F09DFB13B0F0BD10
:102C70004628020034540020BD050020F04C0020FE
:102C80009A27020030B52A4985B0040018F0DAFB13
:102C9000284D280015F098FD092803D82649200062
:102CA00018F0C6FC280015F08FFD0A22010001A8CB
:102CB00018F0F5FB01A9200018F0A8FC01A818F0F5
:102CC00072FB280015F08AFD092803D81A49200054
:102CD00018F0AEFC280015F081FD0A22010001A8C1
:102CE00018F0DDFB01A9200018F090FC01A818F0F5
:102CF0005AFB280015F07CFD092803D80E49200056
:102D000018F096FC280015F073FD0A22010001A8B6
:102D100018F0C5FB01A9200018F078FC01A818F0F4
:102D200042FB0649200018F083FC200005B030BDAE
:102D30004C640200BC0500202B35020080270200F5
:102D400030B58DB005006846FFF79CFF194C1A4955
:102D5000200018F08BFA6946200018F099FA174BFA
:102D60001B78002B21D01649200018F07FFA29008B
:102D7000200018F074FA1349200018F093FA03A801
:102D80001723009A104914F00FFB03A814F05FFA00
:102D900000280AD00D49200018F084FA290003A861
:102DA00018F076FA03A814F045FA684618F0FBFA12
:102DB0000DB030BD345400204F270200BD05002067
:102DC000612702006B270200F04C002076270200EA
:102DD000F0B500270A26C8258FB07E497E4818F036
:102DE00061FA7E490BA818F02DFB0BA8FFF7A8FF8E
:102DF0000BA818F0D8FA0997089707970697764C0A
:102E00007749200018F032FA32003900200018F01B
:102E100096FA7449200018F029FA32003100200097
:102E200018F091FA0F2016F0E5F8069B01371B18F1
:102E30002800069315F022FF102016F0DBF8079B00
:102E40001B182800079315F019FF112016F0D2F86F
:102E5000089B1B182800089315F010FF122016F08D
:102E6000C9F8099B1B182800099315F007FF0A2FC2
:102E7000C5D15D4E3900336806985D0018F0B8FE84
:102E800019F01EFE594919F005FB19F0F9FD584BD0
:102E90003900E852079818F0ABFE19F011FE5349BB
:102EA00019F0F8FA19F0ECFD524B3900E852089885
:102EB00018F09EFE19F004FE4C4919F0EBFA19F0D7
:102EC000DFFD4D4B3900E852099818F091FE19F0DA
:102ED000F7FD464919F0DEFA19F0D2FD474B484A92
:102EE000E8520023AB52474AAB52474AAB52474ADB
:102EF000AB52FFF70BF93368454A464D9B0098509B
:102F00002900200018F0CEF92900200018F0CAF995
:102F10004149200018F0AAF933683D499B005958EF
:102F20003A00200018F019FA3C49200018F09EF9E8
:102F30003368314A5B00995E20003A0018F003FACA
:102F40003749200018F092F933682C4A5B00995EEB
:102F500020003A0018F0F7F93249200018F086F9FD
:102F60003368244A5B00995E20003A0018F0EBF9C0
:102F70002D49200018F07AF933681D4A5B00995EEC
:102F800020003A0018F0DFF934681A4B6000C35E85
:102F90001A4AA400825E1849415E1C4D455F0495A3
:102FA000194D455F0395164D455F0295104D455FE0
:102FB0000195144D405F009015482058FFF7D8FD4B
:102FC0001A4A1B4BD35C002B02D00120FFF75CFD9B
:102FD0000FB0F0BDD225020034540020F1250200CC
:102FE0000C2602001A2602006C04002000404E3F0E
:102FF000A6030020DC020020140300201E04002091
:10300000C403002088030020E20300200004002005
:103010004C030020232602004D2602005426020005
:10302000582602005C2602006226020004430020AB
:103030004A040000F0B5384C384D89B02100280012
:1030400018F030F9210005A818F0FCF905A8FFF7E1
:1030500077FE05A818F0A7F90127314E02A8310024
:1030600003F07CF902A818F07FFC3C000E280DDD6F
:10307000310005A803F072F905A818F075FC633853
:103080004442444105A8E4B218F08DF902A818F0B2
:103090008AF9002C25D1FA260134B60000940123C8
:1030A000204A2149214802F0EBFD03282CD12100C0
:1030B0001F4802F0EBF9042826D11E4C28002100FD
:1030C00018F0F0F8210005A818F0BCF905A8FFF7E2
:1030D00037FE05A818F067F9280018F0D1F809B0F4
:1030E000F0BD1549280018F0DDF8144905A818F0BE
:1030F000A9F905A8FFF724FE05A818F054F9FA204D
:10310000400015F0BBFDA8E70D49280018F0AEF807
:10311000300015F0B3FDC1E7F22A0200345400205C
:10312000A80500201E4500203F4500204005002046
:103130004C040020492B0200202B02002B2B020004
:1031400043290200F0B5894D894C85B02900200043
:1031500018F0A8F8290001A818F074F901A8FFF7E1
:10316000EFFD01A818F01FF9824D0121280002F09F
:1031700069FB280002F02EFB0028FAD07E4E2000CA
:10318000310018F073F8310001A818F05BF901A8BC
:10319000FFF7D6FD01A818F006F97849280002F0DB
:1031A000EBF9FA210022C900280002F0F1FA744E6E
:1031B0002000310018F076F8724F2000390018F026
:1031C00071F8390001A818F03DF901A8FFF7B8FD22
:1031D00001A818F0E8F86C49280002F0CDF96B4A14
:1031E0006421280002F0D4FA3100200018F05AF8C7
:1031F000674F2000390018F039F8390001A818F09D
:1032000021F901A8FFF79CFD01A818F0CCF8FA27D6
:103210006049280002F0B0F9BF00642015F02EFDCF
:103220005D49200018F022F8524D280002F0D2FA31
:1032300000223900280002F0ABFA0128EDD131005C
:10324000200018F02FF8554F2000390018F02AF808
:10325000390001A818F0F6F801A8FFF771FD01A8E0
:1032600018F0A1F8FA274E49280002F085F9BF00AE
:10327000642015F003FD4849200017F0F7FF2800EF
:1032800002F0A8FA00223900280002F081FA012891
:10329000EED13100200018F005F8424D2000290041
:1032A00018F000F8290001A818F0CCF801A8FFF7E1
:1032B00047FD01A818F077F863252E4F3A493800EA
:1032C00002F040F9FA21314AC900380002F060FAF0
:1032D000364901A818F0B6F801A92C4818F080FA70
:1032E000070001A818F05FF87B1C0CD03B000622F9
:1032F000264901A818F0C4FA01A818F035FB05000A
:1033000001A818F050F8FA20800015F0B7FC1F2D26
:10331000D3DC3100200017F0C5FF254D2000290027
:1033200017F0C0FF290001A818F08CF801A8FFF7DA
:1033300007FD01A818F037F80E4F1E49380002F0BB
:103340001BF9FA21114DC9002A00380002F020FAB9
:103350001949200017F08AFF2900200017F098FF74
:103360003100200017F09EFF05B0F0BD40230200A1
:103370003454002060470020622302007F230200B3
:10338000892302008F230200B4230200B00500202D
:10339000BE230200EA23020043290200F5230200B3
:1033A0002C24020036240200732402009A27020013
:1033B0007A24020091240200A5240200F0B5A9B0ED
:1033C0002422002112A81BF09AFB614C614D2100C0
:1033D000280017F067FF21001BA818F033F81BA87E
:1033E000FFF7AEFC1BA817F0DEFF5B4802F058FCAD
:1033F000032800D095E0594F0021380015F058FA05
:10340000544C574D2000290017F04CFF29001BA8F1
:1034100018F018F81BA8FFF793FC1BA817F0C3FFC0
:10342000504E5149300002F08DF8FA214F4DC9003D
:103430002A00300002F0ACF94D49200017F016FFC9
:103440002900200017F024FF22211BA818F019F8EA
:103450001BA9280018F0C4F906901BA817F0A3FFB9
:1034600022211BA818F00DF81BA9280018F001FA5A
:1034700007901BA817F097FF069A0FAE290030009F
:103480000132079B18F0FCF9002332221BA93000FF
:1034900018F068F9300017F086FF0EAB03930DAB00
:1034A00002930CAB01930BAB09AA0496009331492C
:1034B0000AAB1BA81CF038FB099B12A864331793B6
:1034C0000A9B013B16930B9B15930C9B14930D9B2E
:1034D00013930E9B12931BF0E5FB099B0D9ADEB232
:1034E0000A9B0C99DDB20B9BD2B2DBB206930E9B0A
:1034F000C9B2DBB2380015F0DFF82A0033000699B4
:10350000380015F025F91C49200017F0AFFE3800EF
:1035100015F078F90A220100200017F038FF29B0D1
:10352000F0BD164801F0D8FF042800D163E7144C21
:103530002800210017F0B6FE21001BA817F082FF1B
:103540001BA8FFF7FDFB1BA817F02DFFE7E7C04600
:10355000392A02003454002040050020BC05002018
:10356000612A020060470020862A0200B005002080
:103570008F2A0200962A0200AB2A02004C04002087
:10358000BC2A0200F0B524C8954211D908001300E6
:1035900007781C785E1CBC4204D1002C09D0013095
:1035A0003300F5E7187801331A000028FAD1EBE769
:1035B00000221000F0BD0023F0B585B007000C001C
:1035C000029103920093994208D00168994208D170
:1035D0007F22237A9343237201230093009805B03E
:1035E000F0BD039E3000FFF7CDFF051E1BD1BB6869
:1035F00075680193B2680133EB18934207D9012330
:1036000033747F22237A934323720023E5E77360A8
:10361000002DF6D0019A396828001BF054FA6A464A
:10362000019B1278EA547F22237A256093431A0083
:10363000052313432372CFE770B5037A0D001600FC
:103640007F211A0004000A4005D18B435F390B43E8
:103650000372026042602022237A1340181E12D0A7
:10366000281E10D029002068FEF7BEFD00280AD1D0
:1036700031002000FEF7CEFD002804D07F22037A1F
:10368000C5601340037270BD10B50200037A20209C
:103690000340181E02D01068FEF7A6FD10BD437C43
:1036A000002B06D1C3685A1CC2601B780374012327
:1036B0004374007C704710B504002000FFF7EFFF53
:1036C0000A2806D8092808D2002809D0012020722B
:1036D0000CE00D2801D02028F8D100236374ECE71A
:1036E000237A58345A1E93410133237010BD1FB5FD
:1036F0007F220300007A1040043808282ED818F0E2
:10370000D9F90F0F052D082D0D2D1A00187804B0CA
:1037100010BD1868C343DB171840F8E71868F6E7D0
:103720001868002301AC23722100FEF78FFD2000F2
:10373000FFF7DDFFEBE7CF211C680906201C18F01E
:10374000BDFB0028E3D09E21201CC90518F0A2FB78
:103750000028DCD0201C19F093F9D8E70020D6E728
:1037600070B530C814340E0020002900FFF78CFF1C
:10377000002806D07F22037A1340082B03D00A2B9F
:1037800004D030680AE00368002BFADB290020002F
:10379000FFF77AFF002801D0FFF7A9FF70BD70B5D1
:1037A00004000D00FFF77BFF0023A84201D16374E2
:1037B0000133180070BD2F2815D90123392803D9EA
:1037C0005E2803D97A2803D81800704740280AD900
:1037D00001235A28F8D9002301222D38C0B2824291
:1037E0005B41DBB2F0E701232B28F4D1ECE737B5DE
:1037F00000236A461370C3B27F280BD853706B4600
:103800000233013B1878002831D00A68541C0C6040
:103810001070F6E73F2480226D4623405242134346
:1038200080096B7085B2C3B21F2D06D84032134396
:103830006A4693706B460333E3E76D46234000040A
:103840001343800DAB70C3B20F2805DC2022524217
:103850001343EB7001ABD4E71C40102380115B4293
:1038600018436B462243EA7028710533C9E737BD18
:10387000F7B505000027FFF712FF6F7401902800CD
:10388000FFF70DFF0024019A03006C74824259D0A7
:10389000A04204D10223583500202B70FEBD5C28C5
:1038A0004BD12800FFF7FBFE0028F3D0284B7528EA
:1038B00039D104266C742800FFF7F1FE0028E9D006
:1038C000402806D83038C0B20F2806D9583503230F
:1038D000E2E7202398433738F5E700232401013E2F
:1038E0000443F6B2A4B26B749E42E4D1A0239B01C0
:1038F000E318184A9BB2934202D8A405A70DBEE76D
:1039000090239B01E3189BB22000934206D88023AA
:103910008005BC02800D20435B02C0182900FFF720
:1039200066FFACE702331A78002ACFD09042F9D173
:103930005B78002BCAD000226A742A68511C296067
:1039400013709CE72B6801205A1C2A601C70A5E7A5
:10395000772B0200FF030000036870B5436004008A
:10396000FFF79DFE27280DD022280BD02000FFF75F
:1039700096FE0500FFF71FFF061E09D103235834EA
:10398000237003E02000FFF773FF0600300070BDD6
:1039900000236374236820005A1C22601D70FFF707
:1039A0007EFE0500FFF707FF0028F1D123685A1CAF
:1039B00022601870EAE7F7B504000D001F1CFFF73E
:1039C0007AFE0190002801D1002658E02000FFF780
:1039D00066FE272800D17BE01DD8222800D177E0A1
:1039E0002000FFF75CFE002600900098F7B2FFF77A
:1039F000E2FE002800D17EE00136402E00D179E0C1
:103A00006A46002312786374A319DA752000FFF761
:103A100046FE0090E9E75B2813D07B28E0D17F22A7
:103A20002B7A290093431A00202313432B7200237F
:103A300000222B606B6020003B1C00F087F8060022
:103A40001DE07F222B7AFFB293431A0040231343D9
:103A50002B7200232B606B609F4203D158340533D7
:103A60002370B1E763742000FFF725FE0028ABD078
:103A70005D212000FFF793FE061E02D0019E30005C
:103A8000FEBD61692800FEF7C5FB011E03D10423BA
:103A900058342370F3E77B1E00222000FFF78BFFD2
:103AA000002800D190E72000FFF705FE002800D194
:103AB0008AE75D212000FFF772FE0028DED12C216D
:103AC0002000FFF76CFE0028DBD158340323C7E742
:103AD000236820006360FFF7CBFE061E00D173E76A
:103AE0007F2263682B602B7A93431A0004231343CD
:103AF0002B72C4E73F270021E3191976237E742B2C
:103B00000DD17F222B7A93431A00062313432B7285
:103B100001232B70042FB1D058340223A0E7662B69
:103B20000AD17F222B7A297093431A00062313436C
:103B30002B72052FF0D1A1E76E2BEBD020002900CE
:103B40001830FEF783FB0028BFD097E7F7B5DFB248
:103B500004000E00002F04D10523583423700025E3
:103B60000DE000234374FFF7A6FD01900028F6D076
:103B70007D212000FFF713FE051E28D0019D28009F
:103B8000FEBD6368306819000093FEF72DFB002826
:103B900031D001007B1E00222000FFF70CFF00281F
:103BA000DDD02000FFF787FD0028D8D07D21200040
:103BB000FFF7F5FD0028E1D12C212000FFF7EFFDF4
:103BC000002814D02000FFF776FD0028C7D0200081
:103BD000FFF7C2FE0028C2D02000FFF76CFD0028CE
:103BE000BDD03A212000FFF7DAFD0028C9D1032318
:103BF00058342370C3E761693000FEF70BFB0028DF
:103C000002D158340423F4E77F22037A134003726D
:103C1000009BC360BDE710B50400006803685B68E3
:103C2000984763681818606010BD70B505000800FB
:103C30000C001BF0D1FF210002002800FFF7EBFF72
:103C400070BDF0B5162407000D000A2687B06C443D
:103C50002800310017F0C8FF013C303121702800E6
:103C6000310017F03BFF051EF2D116236B441A1BDF
:103C700021003800FFF7CFFF07B0F0BD10B50400FA
:103C8000006803685B68984763681818606010BD37
:103C900070B5050008000C001BF09EFF210002001B
:103CA0002800FFF7EBFF70BDF0B5162407000D00EC
:103CB0000A2687B06C442800310017F095FF013CBC
:103CC000303121702800310017F008FF051EF2D1B5
:103CD00016236B441A1B21003800FFF7CFFF07B0F3
:103CE000F0BD00000623F7B50E1C0700837258498B
:103CF000301C18F0E3F8002844D0002314242025B9
:103D00000093544B311C185918F0C4F8002809D0FE
:103D1000514B301C195918F0BDFB009B061CE818CC
:103D200003B20093043C6D10231DEAD1033400213B
:103D3000301C18F0B9F8002828D0301C1AF0E8FC24
:103D4000464A474B18F06CF800281FD0A300019397
:103D500023061BD4434B019A311C985818F0A4F841
:103D600000280AD03B4B019A301C995818F092FB5E
:103D7000009B061C581B03B20093019B6D10013C75
:103D8000043BE4E7202505240090D0E76B461B8820
:103D9000301C3B8118F0EAF80400334D3860019084
:103DA000019B092B0DD90A21280017F097FEBB7A39
:103DB0000500013B0198BB720A2117F08FFE0190AC
:103DC000EEE7200018F0C6FE011C301C18F094FC31
:103DD000061C280018F0BEFE011C301C18F05AFB0F
:103DE000019018F0C3F8060018F0B4FE011C019809
:103DF00018F082FC011C18F0EDF818F0B7F88619DD
:103E0000AE4214D27E600A257E682900300017F089
:103E1000EBFE00291AD10A243C57002C16DD29009C
:103E2000300017F05BFE013C7860BC72ECE70023C9
:103E30007B60009B01343C60002BE4D0092CE2D96C
:103E400018000123013038813B60DCE73800FEBDFB
:103E50008096184B2823020010230200F168E388A3
:103E6000B5F8E43EF822020040420F0010B504000D
:103E7000006803681B68984763681818606010BD85
:103E800070B50D00040022212000FFF7EFFF297814
:103E9000002909D00A4B01351E78002EF4D05A783B
:103EA0008A4206D00233F7E722212000FFF7DEFF27
:103EB00070BD5C212000FFF7D9FF3100E4E7C04668
:103EC000792B0200F0B504008DB0081C0E1C17F011
:103ED000D1FF002805D141492000FFF7A6FE0DB013
:103EE000F0BD0021301C17F0C5FF002809D1311C9E
:103EF000301C18F06FF8011C301C17F0BBFF0028B5
:103F0000E9D10021301C17F0BBFF002806D02D217D
:103F10002000FFF7ABFF80231B06F61803AD311C12
:103F20002800FFF7DFFE03992000FFF78AFE0A232F
:103F3000EB560093002B23D06F6801930AAE019BD0
:103F4000013E013B5BB2019301330BD038000A21E3
:103F500017F04AFE3031317038000A2117F0BEFDEB
:103F60000700ECE76B461B782026D9432E228B19DD
:103F700002A8C2540AAB4A4220005918FFF74BFE70
:103F80000822AB5E002BAAD065212000FFF76EFF50
:103F90000823EE5EB5B2002E05DA2D212000FFF7D2
:103FA00065FF7542ADB226260A2702ABF618280037
:103FB000390017F019FE013E303131702800390008
:103FC00017F08CFD85B2002DF1D1262302AA9B1893
:103FD0009A1B31002000FFF71EFE80E7722B0200C3
:103FE0007F2270B5037A05000C001340062B00D128
:103FF00069E008D8022B0DD3032B50D806CD200042
:10400000FFF709FE25E00C2B1FD005D8082B58D050
:104010000A2B49D030495BE0202B21D0402BF9D12D
:104020005B212000FFF722FF2D68002D13D0210017
:104030002800FFF7D5FF2800FEF7CEF8051E0AD0AE
:104040002C212000FFF712FFEFE701682000FFF7A7
:1040500039FF606870BD5D212000FFF707FFF8E7BA
:104060007B212000FFF702FF2D68002D15D0E968A5
:104070002000FFF705FF3A212000FFF7F7FE21009F
:104080002800FFF7ADFF2800FEF7A6F8051E04D0B4
:104090002C212000FFF7EAFEE7E77D21DCE701683D
:1040A0002000FFF7EDFED4E70568002D04DA2D218E
:1040B0002000FFF7DBFE6D4229002000FFF7C1FD65
:1040C000C7E70168F9E703780449002B00D10449E8
:1040D0002000FFF7AAFDBCE7722B0200882B02002C
:1040E0008D2B020010B50C00002802D0FFF778FFDE
:1040F00010BD20000249FFF798FD6068F8E7C04650
:10410000722B020010B50400006803681B68984712
:1041100063681818606010BDF0B504008DB0081C0D
:104120000E1C17F0A7FE002805D141492000FFF71B
:10413000AFFD0DB0F0BD0021301C17F09BFE002834
:1041400009D1311C301C17F045FF011C301C17F041
:1041500091FE0028E9D10021301C17F091FE0028C3
:1041600006D02D212000FFF7CDFF80231B06F61877
:1041700003AD311C2800FFF7B5FD03992000FFF7C0
:1041800093FD0A23EB560093002B23D06F68019315
:104190000AAE019B013E013B5BB2019301330BD0A0
:1041A00038000A2117F020FD3031317038000A2123
:1041B00017F094FC0700ECE76B461B782026D943E8
:1041C0002E228B1902A8C2540AAB4A422000591869
:1041D000FFF754FD0822AB5E002BAAD0652120001A
:1041E000FFF790FF0823EE5EB5B2002E05DA2D2111
:1041F0002000FFF787FF7542ADB226260A2702ABE3
:10420000F6182800390017F0EFFC013E303131700C
:104210002800390017F062FC85B2002DF1D1262369
:1042200002AA9B189A1B31002000FFF727FD80E7A8
:10423000722B020070B50D00040022212000FFF750
:1042400061FF2978002909D00A4B01351E78002E1C
:10425000F4D05A788A4206D00233F7E722212000B0
:10426000FFF750FF70BD5C212000FFF74BFF3100CE
:10427000E4E7C046792B02007F2270B5037A05007F
:104280000C001340062B00D169E008D8022B0DD397
:10429000032B50D806CD2000FFF7F0FC25E00C2BB7
:1042A0001FD005D8082B58D00A2B49D030495BE0E5
:1042B000202B21D0402BF9D15B212000FFF722FFDA
:1042C0002D68002D13D021002800FFF7D5FF28000E
:1042D000FDF782FF051E0AD02C212000FFF712FFF8
:1042E000EFE701682000FFF717FF606870BD5D21F0
:1042F0002000FFF707FFF8E77B212000FFF702FF10
:104300002D68002D15D0E9682000FFF793FF3A21B2
:104310002000FFF7F7FE21002800FFF7ADFF28007F
:10432000FDF75AFF051E04D02C212000FFF7EAFEFE
:10433000E7E77D21DCE701682000FFF77BFFD4E79A
:104340000568002D04DA2D212000FFF7DBFE6D4209
:1043500029002000FFF7A8FCC7E70168F9E7037808
:104360000449002B00D104492000FFF791FCBCE771
:10437000722B0200882B02008D2B0200F0B5584FE3
:10438000D5B05849380016F08DFFFA20400100F0F2
:10439000C5FFFDF7BBFE544905A817F053F8534B72
:1043A0000BA819681BF010FC2CAC34AB2C93636089
:1043B00054ABA360E36000237F252374237F220096
:1043C000AB4323774A4931A8FFF736F9002806D0D6
:1043D0000423027AAA4313430372464B0360FDF79A
:1043E00095FE22000500444931A8FFF725F9002871
:1043F00007D07F22037A056093431A0008231343F2
:10440000037222003D4931A8FFF716F9220001008E
:1044100008903B480994FFF7CEF82200394931A8AB
:10442000FFF70AF9061E16D00BA92000FFF7AAF81D
:10443000051E4BD10BA81BF0CFFB030065680133B1
:10444000A268EB180390934235D9012323747F228D
:10445000337A93433372002408A931A8089709944A
:10446000FFF740FE380016F00BFF274905A817F0AC
:10447000A1F8234905A817F0C9F8244905A817F0A1
:10448000D7F8234D2300220005A90094280012F03C
:1044900070F808A931A808950994FFF7EDFE2800E7
:1044A00012F05DFC1049114817F084F805A816F0C9
:1044B0007AFF55B0F0BD6360002DC8D0039A0BA9F8
:1044C00028001AF000FB0023039AAB547F22337AB2
:1044D000356093431A00052313433372BBE7C0468C
:1044E00034540020062A02004C6402000803002015
:1044F000222A02001C2A0200272A0200BF2D0200E5
:10450000FC020020312A02001A280200232802009F
:1045100074040020F8B5424E424F3100380016F0C6
:1045200091FF414C414D22002900380017F0BAFAA2
:104530003F4F3100380016F085FF22002900380077
:1045400017F0B0FA3B4F3100380016F07BFF220025
:104550002900380017F0A6FA374F3100380016F05E
:1045600071FF22002900380017F09CFA334F310008
:10457000380016F067FF29002200380017F092FA81
:104580002F4F380000F016FF22002E49380017F098
:1045900089FA2D4F0021380001F0FAF922002B4949
:1045A000380017F07FFA2A4F0121380001F016FE7B
:1045B00022002849380017F075FA3900264803F020
:1045C000CBFC22002549244817F06CFA244F2249DD
:1045D000380011F037FE22002249380017F062FA45
:1045E000214801F04FFE0021204801F0ABFE204899
:1045F00014F014F81F4F3100380016F023FF22008A
:104600002900380017F04EFA1B4F3100380016F021
:1046100019FF29003800220017F044FAF8BDC046FF
:104620004C640200B005002000000020A7B3010088
:1046300034030020FC020020400300200803002077
:104640004C0400208953000040050020FD2000009C
:1046500068050020E95C0000B8070020997E000092
:10466000740400203561010070040020A8050020BA
:10467000BC050020D842002040040020E121F0B514
:104680007C4C85B04902200015F056F9E1217A48AA
:10469000490216F0BBFA7949200016F003FE042106
:1046A000774812F0EBFD774D061E00D0C9E0764941
:1046B000200016F0F7FD2E70744B754D1B78052009
:1046C0002B70FEF7E1F90C2014F03CFC2B789B06D4
:1046D00000D4BDE06F4D2000290016F0E3FD290055
:1046E00001A816F0AFFE01A8FEF72AFB01A816F0FC
:1046F0005AFE6949200016F0D5FD00F0EBFD674D2C
:10470000280000F029FD6649280000F079FD280006
:1047100000F022FD634802F06FF9002811D1624DCC
:104720002000290016F0BEFD290001A816F08AFE1F
:1047300001A8FEF705FB01A816F035FE5B4B1B68D0
:1047400098475B4D08220021280002F0DDFE01A8F9
:10475000544902F05FFA0199280002F0F3FE01A823
:1047600016F021FE280003F09BF85249524803F04E
:10477000DEFA280002F0E0FE0600280002F0DFFE6C
:104780003200030000214D4803F0F0FB4C4F4D492F
:10479000380016F00FFF4C4E4C49300016F00AFF5F
:1047A0004B4D3100280016F031FF4A49280016F021
:1047B0003FFF3900280016F029FF4749280016F06E
:1047C00037FF4649200016F051FD2900200016F061
:1047D0005FFD434E3900300011F03CFD414901A816
:1047E00016F030FE01AA2900300011F038FD01A8B2
:1047F00016F0D9FD30003C4911F02AFD01210620B8
:1048000014F066FCE1211C48490216F0FFF9E12191
:104810002000490215F090F80022344B34481A80E9
:1048200001F032FDFEF706FCFEF7C8FD314920001D
:1048300016F038FD0A2000F0F7FC00F05FFD05B02F
:10484000F0BD01232C4920002B7016F02BFD33E71F
:104850002A4D2000290016F025FD290001A816F098
:10486000F1FD01A8FEF76CFA01A816F09CFDFEF719
:1048700069FC3EE734540020744F00201F2D0200D5
:10488000F04C0020BD050020372D02003804004008
:104890003C0400206B2D0200942D020004430020F4
:1048A0001D21000008480020A42D0200AC050020B6
:1048B000AC4800200D210000944B0020B8070020D8
:1048C000FC020020CC460020400300204945002087
:1048D000D842002021280200C62D0200DE2D020051
:1048E000740400204C640200E14C0000AA05002082
:1048F00070040020EA2D0200562D02007F2D0200D8
:10490000F0B5A9B04F4901A816F09CFD4E4901A889
:1049100016F050FE4D4901A816F078FE4C4901A84A
:1049200016F086FE4B4C4C49200016F0BBFC00F004
:10493000E5FC4A4B07A819681BF046F948492000D6
:1049400016F094FC07A9200016F090FCFA274549C0
:10495000200016F0A7FC0026BF00434D434A07A9DC
:10496000280012F0CDF9002845D14149200016F069
:104970007DFC280011F07FFC0A220100200016F0C7
:10498000E2FC3C4904A816F05DFD04A8FEF7D8F946
:1049900004A816F008FD380000F0C0FC36480136C7
:1049A00001F07EF9032820D0344904A816F04AFD0E
:1049B00004A8FEF7C5F904A816F0F5FCFEF73AFBCB
:1049C000052ECAD12E4D2000290016F06BFC2900BF
:1049D00004A816F037FD04A8FEF7B2F904A816F0F3
:1049E000E2FC284B1B689847B7E7274800F074FDA6
:1049F0000428D9D1E4E7200016F042FC234E200021
:104A0000310016F04FFC310004A816F01BFD04A87D
:104A1000FEF796F904A816F0C6FC200016F030FC4C
:104A20001B49200016F022FC01A9200016F030FCE2
:104A3000002201A9280012F043F801A816F0B3FCE7
:104A400029B0F0BD4C6402001A280200FC020020CC
:104A5000B924020034540020D12402004003002075
:104A6000DB240200708A020074040020B3220000DC
:104A700043290200F7240200400500201725020008
:104A800057250200AC0500204C0400208C250200B4
:104A9000B0250200F0B50A2085B000F0C5FB00F09B
:104AA0002DFC7A4801F0FCF8794C032800D178E01D
:104AB000784D2000290016F0F5FB290001A816F01A
:104AC000C1FC01A8FEF73CF901A816F06CFCFEF74A
:104AD000B1FA714811F031FC002810D16F4D20005F
:104AE000290016F0DFFB290001A816F0ABFC01A895
:104AF000FEF726F901A816F056FCFFF701FF01208A
:104B0000FDF7C2FF664B0027DF5F002F2AD1FEF7BB
:104B10005FF9644D2B68002B00DC9EE0624E2000A4
:104B2000310016F0BFFB310001A816F08BFC01A884
:104B3000FEF706F901A816F036FC2B680E2B37DDC0
:104B40005A4D2000290016F0ADFB290001A816F0EF
:104B500079FC01A8FEF7F4F801A816F024FC544BE8
:104B60001B6898474E4D2B8801331BB2042B00DD88
:104B700089E0504920002B8016F078FB0A220023A0
:104B8000E95E200016F0DFFB4B49200016F08AFB9F
:104B9000414811F08FFDC820800014F06FF805B077
:104BA000F0BD464800F098FC042800D080E790E76C
:104BB000434E2000310016F075FB310001A816F0BD
:104BC00041FC01A8FEF7BCF801A816F0ECFB3D493A
:104BD00001A801F0C3FB01A816F0C6FE060001A85B
:104BE00016F0E1FB3849200016F040FB31000A22A4
:104BF000200016F0A4FB3549200016F053FB632E6D
:104C000017D00F2E15DD0520FDF73EFF304E20009A
:104C1000310016F047FB310001A816F013FC01A883
:104C2000FEF78EF801A816F0BEFBFDF761FD2F60C0
:104C300098E7284D2000290016F034FB290001A830
:104C400016F000FC01A8FEF77BF801A816F0ABFBFC
:104C5000144A13680133136084E71F49200016F0DB
:104C600005FB0A222968200016F069FB1B49200079
:104C700016F0FCFA0A220F21200016F064FB2B68C4
:104C800001332B606EE7002373E7C0464005002028
:104C900034540020932B020074040020AF2B020038
:104CA000AA0500206C040020C82B0200FE2B020085
:104CB000AC050020DB2C0200122D02004C04002069
:104CC000252C0200A8050020482C02005A2C0200C6
:104CD0005E2C02008D2C0200BF2C02001E2602005A
:104CE000F0B5A84CA84DA54400AF08262900040043
:104CF000A64816F0BBFA29006025BB19581916F012
:104D0000A1FBBB195819FEF71BF8BB19581916F06F
:104D10004AFB6A46A319DB08DB00D31A9D466D46A1
:104D20006E46731B9C4205DD994811F0F0F9307016
:104D30000136F6E7E3430026DB171C402E55290019
:104D4000924816F093FA914816F09AFA08216023D7
:104D50007A18D4182900200016F074FB2000FDF703
:104D6000EFFF200016F01FFB082180237A18D218CD
:104D7000BA667A18D3186360A0239B00D218A26089
:104D80007A18D3187F22E360237FFD609343237753
:104D900033007A185C33BD61D31874250C203E6152
:104DA0003E757E7726743C621E700E0079180A23C9
:104DB000491900223818FEF7FEFDBB19754958192C
:104DC000FEF762FC002800D1DAE07F22037A13406C
:104DD000043B012B00D9D3E00568002D00D1CFE0C2
:104DE0006D496A4816F042FA2900684816F05AFAE6
:104DF0006A4928001AF0DEFE061E00D0A3E06849CA
:104E0000624816F04FFA614B08250C22FB607423B0
:104E10007819B918C0183E61FFF764F95B4816F0BD
:104E20002FFA0C225F4B013E7919B818FC603B61E8
:104E3000BE60FEF795FC0C225B4B7919B818FC603C
:104E40003B61BE60FEF78CFC0C22584B7919386030
:104E5000B818FC603B61BE60FEF782FC544B050055
:104E60003B610823F9180433F818FC60BE60FEF7B4
:104E700077FC2A004F4B643A78604F4C9A420ED828
:104E80004E49424816F0F2F90A2229003F4816F02E
:104E900056FA4B493D4816F005FA4A4BE5523B6835
:104EA000013B0E2B11D8394E4749300016F0DEF980
:104EB0000A222900300016F042FA4449300016F068
:104EC000F1F985233A889B00E2527B68404A013B16
:104ED000002593420ED82D4D3E49280016F0C6F904
:104EE0000A222800796816F02EFA86230125BA884E
:104EF0009B00E2520121200000F04CF9FDF790FAEE
:104F0000002D11D00C243449204816F0CBF9334938
:104F1000381916F097FA3819FDF712FF381916F0FC
:104F200042FA2F4B1B6898470121234800F032F9C1
:104F30002C4B9B68002B01D0FFF720FABD46A32322
:104F40009B009D44F0BD284928001AF033FE00283C
:104F500011D10C2425490D4816F0A4F9244938191B
:104F600016F070FA3819FDF7EBFE381916F01BFA37
:104F7000FDF756FAD8E71F491A4816F01BFBD3E78E
:104F80001D49F9E774FDFFFF5D280200345400203D
:104F9000740400207B280200802802009028020070
:104FA00099280200B6280200BA280200C12802008F
:104FB000CA2802005CD4010004430020D228020069
:104FC000F428020012020000F82802000C29020056
:104FD0000E0E00001B2902003029020045290200A4
:104FE000AC050020080300206129020066290200A8
:104FF00092290200A8290200EA29020030B5094DD1
:10500000094CAB685B035B0F9B001C590460AB68E9
:1050100001619BB243606343A4008360C46042614A
:1050200030BDC04600400041042E0200F7B5802686
:105030001A4D01916F6803333E439B086E60002B4D
:105040002BD0174E2E802E7DF107FCD51E00076851
:10505000991BBF088F4219D9002E17D0FF2117784E
:105060008C433C430F4957780C403F023C439778B0
:10507000013E39040C4F2740D478BFB20F432406B9
:1050800001993C4310C101910432E0E7074B2B80AA
:105090002B7DDB07FCD53300D1E7F7BD0040004195
:1050A00044A5FFFFFF00FFFFFFFF00FF04A5FFFF78
:1050B000044B054A4908D9611A801A7DD207FCD5EC
:1050C0007047C0460040004102A5FFFF70B50400D4
:1050D0000D001600E36829002000B34205D2FFF757
:1050E000E7FFE368ED18F61AF4E7FFF7E1FF70BD9C
:1050F00010B510001A0019F0E6FC10BD0D4BF0B50C
:10510000C418082500230C4EA04210D002781202C9
:1051100053402A001FB259008BB2002F01DA7140B0
:105120008BB2013AD2B2002AF4D10130ECE7180078
:10513000F0BDC0464C04000021100000044B10B527
:105140001B68002B00D098470122024B1A7010BD3B
:10515000E8420020E442002010B504000A48220082
:1051600043690169FFF7C4FF2000FFF7C7FF2288EA
:10517000064B9A4203D1064BE35A834202D02000E9
:10518000FFF7DCFF10BDC046EC420020EFBE000080
:105190004C04000030B5134C134DA5440400002905
:1051A00002D12B78002B19D0104B20002380FFF761
:1051B000A5FF0F4B2100E0520E4A684619F083FC10
:1051C0000D4C626921692000FFF780FF63696A4620
:1051D00021692000FFF72AFF00232B70074B9D4415
:1051E00030BDC046ACFBFFFFE4420020EFBEFFFF36
:1051F0004C0400004E040000EC4200205404000067
:10520000014B19607047C046E842002010B5034AC0
:1052100003490448FFF7F2FE10BDC0464E040000EB
:10522000002F0200EC4200201023224A91690B4318
:105230009361214B1A7852B2002A3ADB1F4A204967
:10524000916020495160517849B20029FBDB1E4929
:105250005180517849B20029FBDB02211A788A4338
:105260001A70DA7952B2002AFBDB04211A788A43D9
:105270001A70DA7952B2002AFBDB0F21421C0A4075
:105280005A7002220840987019780A431A70DA7925
:1052900052B2002AFBDB0122C0205A710B4B0332B1
:1052A0001A6080001A580A491140C02212040A43A9
:1052B0001A5070470004004000100040000C0040ED
:1052C00004040000040311000344000000E100E0B6
:1052D000FFFF00FF0221074B1A788A431A70DA7920
:1052E00052B2002AFBDB1021034A93698B4393617E
:1052F0007047C0460010004000040040064B1900F3
:10530000DA7952B2002AFBDBA5221A72CB795BB2A2
:10531000002BFBDB7047C0460010004070B5040056
:1053200013F076FC0A25041913F072FCA0420AD28D
:10533000FFF7E4FF13F06CFC201A0A2800D92800BC
:1053400013F09CFCF0E770BD0123024A1370024A7F
:10535000937170475247002000100040044B054AEB
:105360001A60054B054A1A60054B064A1A607047D9
:1053700054470020A86100005C470020C0C62D00F3
:105380005847002020A1070010B50400034B083344
:1053900003600C3016F007F8200010BD2034020026
:1053A00010B50400FFF7F0FF200016F00BFB200003
:1053B00010BD0000074B10B5083303600123040043
:1053C000037205490C3016F03DF800232000E3611C
:1053D00010BDC046203402004C64020030B5264C9B
:1053E00085B00500200000F0CDF9002837D020005E
:1053F00000F0E0F800226B681000013B052B2ED86E
:10540000180016F057FB03090D182E341B49200015
:1054100000F098F8022300E003236B6000201EE0F8
:10542000290020000C3100F077FA1549200000F027
:1054300089F80423F1E7134901A816F003F82800BE
:1054400001A90C3016F05DF9040001A815F0ABFFBE
:10545000002CDFD0002301206B6004332B7205B0D9
:1054600030BD0949200000F06DF80623D5E701237F
:105470006A602B72D2E7C046604700200034020009
:105480000B340200B834020015340200F8B50123D1
:105490004360DB1804000372002919D013F0B8FB35
:1054A000FA26070076002000FFF798FF051E09D1B5
:1054B000E369002B08D013F0ABFBE369C01B9842F3
:1054C00002D36560207AF8BD300013F0D7FBEAE71D
:1054D000FFF784FFF6E7000010B50400024800F073
:1054E00069F8207A10BDC0466047002010B504005E
:1054F0001C3015F058FF200010BD000070B583600F
:10550000049B06000025C360012304001C36426092
:1055100005610575836101603000054915F092FF52
:10552000A5623000402115F05FFF200070BDC0462D
:105530004C640200014B024A1A6070478C470020FD
:105540003454002070B504000D0013F061FB236992
:10555000C01A132803D81423181A13F08FFB29003C
:10556000206815F09FFE20680368DB6898470023D9
:105570002375A36170BD00000EB410B50A4C0B4931
:10558000A5440400FFAB183304CB02A801931AF022
:1055900055FF02A92000FFF7D5FF054B9D4410BC25
:1055A00008BC03B01847C046F4FBFFFFFF03000030
:1055B0000C040000F0B5040087B0206803681B6984
:1055C0009847002800D192E0206803685B699847FB
:1055D000634BC6B21868002803D0036831001B680B
:1055E000984725001C353100280016F02AF8277D41
:1055F000012F48D05B49684615F024FF6946280012
:1056000016F073F80026B0420DD0574903A815F0E4
:1056100019FF03A9280016F074F8461EB041C6B25F
:1056200003A815F0C0FE684615F0BDFE002E06D09A
:10563000012323754D49280015F0BCFFBDE74A49F9
:1056400003A815F0FFFE03A9280016F05AF807007A
:1056500003A815F0A8FE002FAFD0280016F05BF9C4
:10566000636A002BE6D013F0D3FA2061404BB200FE
:10567000D058002803D0036829001B6898470136DA
:10568000082EF3D1D6E70A2E97D113F0C1FA394983
:10569000206103A815F0D6FE03A9280016F0E9F84A
:1056A000060003A815F07FFE731C22D0A761A36932
:1056B000002B82D0A26A002A13D0012B4ADD03A856
:1056C000636A3200290016F0DBF803A815F06BFEC0
:1056D000280016F020F92900A06A15F049FF0023E0
:1056E000A362002321492375280015F063FF07B04A
:1056F000F0BD214903A815F0A5FE03A9280016F066
:10570000B8F8060003A815F04EFE731C02D0022361
:10571000A361CCE7194903A815F094FE03A928005A
:1057200016F0A7F8060003A815F03DFE731C01D083
:105730000323EDE7124903A815F084FE03A928000E
:1057400016F097F8060003A815F02DFE731CAED0D6
:105750000423DDE73100280016F0CAF8B8E7C04698
:105760008C47002030340200353402004C640200C3
:1057700090470020333402003834020040340200E5
:105780004D34020010B50400FFF714FFA06910BDEE
:1057900070B5826204000E0013F03AFA050013F0AF
:1057A00037FA401BB04208D22000FFF703FFA06980
:1057B0000028F4D00023A36270BD00232000A36260
:1057C0001C30034915F0F6FE01204042F4E7C046C4
:1057D0004C64020010B504000549FFF7B3FE002237
:1057E000C8212000FFF7D4FF01384342584110BDC3
:1057F0003034020070B505000E0013F009FA040001
:1058000013F006FA001BB04208D22800FFF7E2FFAF
:10581000012804D0642013F031FAF1E7002070BDB4
:1058200010B507490400FFF78DFEFA210022890018
:105830002000FFF7ADFF01384342584110BDC0467C
:10584000EA23020070B50400E1230D0061680068DE
:105850005B02994200D919000368DB699847E36845
:105860000121D8B213F034FCE3680121D8B213F05F
:105870007BFCA06800283CDB002D3AD0C0B201219F
:1058800013F026FCA3680121D8B213F06DFC64204C
:1058900013F0F4F9A3680021D8B213F065FC1C4999
:1058A0002000FFF7A7FF002829D0E12362685B02F0
:1058B00001209A4224D917492000FFF75DFE0022FB
:1058C000C8212000FFF764FF012818D12068036871
:1058D0005B6A9847642013F0D1F920686168036817
:1058E000DB6998470A492000FFF784FF431E98416F
:1058F00006E007492000FFF77DFF002801D10020C6
:1059000070BD2000FFF78CFF0028C8D1F7E7C04624
:10591000102700005734020081627047002310B541
:10592000054A98008458002C01D1815010BD0133E4
:10593000082BF6D1FAE7C04690470020002310B5A7
:10594000054A980084588C4202D10023835010BD30
:105950000133082BF5D1FAE7904700202323E122F9
:1059600013B5074C00935202043B06492000FFF791
:10597000C5FD054A0549200016F094F813BDC04640
:1059800060470020B851002000000020ED540000C6
:1059900070B5002504000E0008490570456085605B
:1059A000C16001614161183015F04CFD6562AE4285
:1059B00002D00348FFF7BEFD200070BD4C6402001A
:1059C00060470020F0B5037885B005000224002B65
:1059D00021D07F4E3000FFF7D5FE041E1BD03000D3
:1059E000FFF7E8FD6F68172F15D8380016F062F83A
:1059F0000C161D25293459686C72757B7F85898F3B
:105A0000939A9EB2B7BDC2CD72493000FFF79AFD9E
:105A100001233C006B60200005B0F0BD0223012C87
:105A200008DD002302242B70F5E76B493000FFF7F7
:105A300089FD03236B600024EDE7012CF1DC0423D6
:105A4000F8E7290030001831FFF766FF634930009E
:105A5000FFF778FD0523EDE7012CF0DC2E0060490F
:105A6000183601A815F0EEFC01A9300015F049FE2A
:105A7000040001A815F097FC002C01D00A23D9E7F7
:105A8000584901A815F0DEFC300001A915F039FED7
:105A9000060001A815F087FC002EC2D006236B601B
:105AA000B9E7AB68002BBCD0290030001831FFF7F4
:105AB00033FFAA684C493000FFF75EFD0723B9E7C2
:105AC0000823012CB6DDACE748493000FFF73AFD6A
:105AD0000923AFE7012CD1DDA3E745493000FFF7EB
:105AE00031FD0B23A6E70C23012CA3DD99E74149E7
:105AF0003000FFF727FD0D239CE70E23012C99DDD5
:105B00008FE73D493000FFF71DFD0F2392E710237B
:105B1000012C8FDD85E7EA6838493000FFF72CFD5E
:105B2000112387E71223012C84DD7AE72B69696949
:105B30001A78002A02D10A78002A06D00A0030001A
:105B40002F49FFF719FD132374E72E493000FFF7A3
:105B500013FDF8E71423012C00DC6BE761E72A4909
:105B60003000FFF7EFFC152364E7012C00DD58E758
:105B700016235FE7290030001831FFF7CDFE2349D7
:105B80003000FFF7DFFC172354E7012C00DD48E766
:105B900028002B6A1830591E15F0E0FDFB23034046
:105BA000302BE5D0312B02D03038082805D118230E
