:020000040000FA
:10000000FC7F0020790B0000690B00006D0B0000E5
:1000100000000000000000000000000000000000E0
:10002000000000000000000000000000710B000054
:100030000000000000000000750B0000CD0C000067
:1000400010B5064C2378002B07D1054B002B02D0AE
:10005000044800E000BF0123237010BD5C000020B5
:1000600000000000CC1E000008B5084B002B03D098
:100070000748084900E000BF07480368002B03D089
:10008000064B002B00D0984708BDC046000000007A
:10009000CC1E00006000002058000020000000007E
:1000A000064B0322104002040549586808401043DB
:1000B0005860DA695107FCD47047C0460008004216
:1000C000FFFFFCFF38B5284A284B5A805A7852B2B5
:1000D000002AFBDB264B04211A6A264D0A431A62CA
:1000E0002B68012213432B602A680123214C1A42FA
:1000F000FAD1E2691A42F7D11423236041001E4865
:1001000001F008FD421EE068FF231A4098431043A7
:10011000E0602368022213432360EA69154B9107CC
:10012000FBD45A8B30218A4310210A435A83EB694E
:1001300001205A07FBD4114B02241A7802431A708B
:100140000F4B0F22197891431970197821431970B8
:100150000C490C782043087019780A401A701A78F4
:1001600020210A431A7038BD14400000000C0040E2
:100170000004004000080042006CDC0248440041DA
:100180003444004149440041F7B500230F1C01925B
:100190001D1C994254D001212A4E4000084333705F
:1001A000C1B2294B0322588B1C1C000910400128A6
:1001B00004D05B8B1B091A40022AF2D1606AC00A84
:1001C000C00208436062217E1F4B0122880708D4C9
:1001D000197E1142F7D05968C02292020A435A6030
:1001E00003E05B8B9B08134201D0002528E03270AE
:1001F000237E9907FCD5154A154B117801251970F6
:100200006268BD4212D0134B022013406360FFF7B7
:1002100047FF33785A1C3270227E9007FCD50B4979
:100220000B480A780135C254EDB2E9E78023DB02BE
:10023000134363600199002902D00320FFF730FFC8
:10024000281CFEBD7800002000080042280800425B
:1002500099000020FFFFFBFF024B00221870024BA9
:100260001A7070477A00002079000020F8B5274BFB
:100270001C786400E4B2264B03215D8B1A1C2D0907
:100280000D40012D04D05B8B1B0919400229F2D1CE
:10029000536ADB0ADB0223435362117E01231942B6
:1002A000FBD01B49498B8908194204D00320FFF772
:1002B000F7FE022427E017490D782B1C002B11D0E4
:1002C000154EEC1A365D154C2670114E177E012422
:1002D000768B274202D12642F7D00BE0B6082642A1
:1002E0000ED007E00B701C1C00280CD00320FFF779
:1002F000D7FE08E003200B700324FFF7D1FE02E0D5
:10030000013BDBB2DAE7201CF8BDC0467A000020D2
:1003100000080042790000207B00002028080042ED
:10032000034A1378591C1170024AD05401207047B7
:10033000790000207B000020154A164B1178002917
:1003400009D11549187809784118C9B21970802067
:1003500012494003C86111780131C9B2117019788E
:10036000F02902D81978092909D80B4908784042A0
:10037000C0B20870187809784118C9B2197012789B
:100380001B789A4203D18022044B5203DA617047F2
:100390007D000020010000200000002000440041FA
:1003A00010B5041C6B20FFF757FF201CFFF7B8FFA8
:1003B0000120FFF75BFF01210A1C6B20FFF7E4FE21
:1003C000014B187810BDC0469900002038B5051CB7
:1003D0006B200C1CFFF740FF281CFFF7A1FF201C1F
:1003E000FFF79EFF0120FFF741FF022038BD08B54F
:1003F0000520FFF7D5FFCE23011C19400520FFF78C
:10040000E5FF012008BD000010B5041C0020FFF727
:10041000C7FF78232D4A9843C1B2944242D018D8DE
:100420002B4B9C4238D009D82A4B9C4230D02A4BC7
:100430009C422FD0294B9C4245D13FE0284B9C4207
:100440002CD0284B9C422BD0274B9C423BD12023C5
:1004500033E0264A94422BD00AD8254B9C4223D025
:10046000244B9C4222D0244B9C422CD1402324E09C
:10047000224A94421ED004D8214B9C4223D16023AF
:100480001BE0204A944217D01F4A944215D01AE02C
:10049000082312E0102310E018230EE028230CE0BC
:1004A00030230AE0382308E0482306E0502304E024
:1004B000582302E0682300E0702319430020FFF76F
:1004C00085FF012000E0002010BDC046581100004B
:1004D00018100000780F0000C80F0000280F00005F
:1004E000B810000008110000681000009812000009
:1004F000F811000048120000A81100003813000095
:10050000E812000088130000D813000010B5041C86
:100510000020FFF745FF07239843E122C1B2920074
:10052000944220D008D8962C18D0FA235B009C4225
:1005300017D0642C22D11CE0114A944215D005D862
:100540009623DB009C4219D1042311E0FA22D20049
:1005500094420CD00B4A94420AD00FE0012421436C
:1005600007E0022304E0032302E0052300E0062362
:1005700019430020FFF72AFF012000E0002010BDF2
:10058000DC050000B80B000070B504AC267805ACA3
:100590002578441EA041C401002901D040210C430C
:1005A000002A01D020221443002B01D010231C4329
:1005B000002E01D008231C43002D01D004231C432E
:1005C0000220FFF7EDFE0125011C294021430220F6
:1005D000FFF7FCFE281C70BD10B5041C0420FFF7BB
:1005E000DFFE03231840084B9C4204D0074B9C427B
:1005F00008D1B02100E0982101430420FFF7E6FE76
:10060000012000E0002010BD10100000701000005C
:1006100008B50120FFF7C4FECF23011C19400120BB
:10062000FFF7D4FE012008BD07B5FFF7E0FEFFF796
:10063000EFFF0948FFF7E8FEFA20C000FFF766FF6A
:10064000002300930193181C191C1A1CFFF79CFF30
:100650000248FFF7C1FF07BD08110000101000009D
:1006600008B50348FFF72EFDFFF7DEFF08BDC046C3
:10067000A086010010B5C3699C07FCD4036802245E
:10068000A3430360C46901231C42FBD104682343D4
:1006900003600368DC07FCD4C46901231C42FBD15E
:1006A000C469DC401C42F7D1084B1A430260C3699D
:1006B0005A07FCD4C0239B0243608181C3699C0715
:1006C000FCD4036802221343036010BD0400004001
:1006D000037EDA07FCD5018570470000027E012306
:1006E0005107FBD5428B1A4207D1428BDA401A429E
:1006F00003D1428B92081A4202D0034B01221A7096
:10070000008DC0B27047C0467E00002070B50368FF
:10071000041C988B1A1C0821FF32084226D0802026
:1007200099839872112353704021144B9171507129
:100730005E68134DC0202E40800506435E605E69F2
:100740003540284358610F4818600F4818615D68AC
:100750000E4828408025AD02284358605868800B19
:100760008003586000235171237105E0137ADA0683
:1007700002D5201C00F0E4FA207970BD9C01002015
:10078000FFFFFF8F9C0000201C010020FF3F00F0B6
:10079000002303714371044B016083600B780222D4
:1007A00013430B707047C0460D07000038B5364B39
:1007B0002021DA6901200A43DA61344B06241A78D1
:1007C00002431A70324B0F2219789143197019782D
:1007D000214319702F490C782043087019780A407A
:1007E0001A701A7860210A431A702B4B2B4A5A80D0
:1007F0005A7852B2002AFBDB294B01211A780A43AE
:100800001A709A78D107FCD426480268510B1F222F
:100810001140914200D1052111408C011D8D2249CA
:100820002940214319850468A10C0A401F2A00D1E0
:100830001D221C8D1F210A408C4322431A85026809
:100840000721D20D0A408A4200D103220A40188DA6
:100850001103164A02400A431A8519787F220A407A
:100860001A701A78042112480A431A7058621A89B9
:100870000C218A431A811A8901218A431A81002195
:10088000802201F0A0F938BD000400405844004126
:100890003C44004159440041000C00400640000027
:1008A00000500041246080003FF8FFFFFF8FFFFFF2
:1008B0009C010020F7B5141C1F4A5F0101971D1C05
:1008C000D319061C5869271C4000400F0330103311
:1008D000C74006D00F1C8022596812060A435A608E
:1008E00009E02F1C7B1E9F41144BBF01FF18381CD1
:1008F000221C01F05FF901990F4808354218176171
:10090000131C5269A104920B890C92030A435A6189
:1009100059690B4A0A405A616B01F3180222DA71D5
:100920005979802252420A435A716B01F318DB79DC
:100930009A07FAD5201CFEBD9C0100201C01002056
:10094000FF3F00F0F8B51A4E051C3378141C002B3D
:1009500012D1184B184A1A645A6C920B92035A64BB
:10096000586C164A02405A64A2235B00EA5C40209D
:100970000243EA54012333704827FF37EA5D01231D
:10098000134012D00B4B5A6C9204920CA24202D22A
:100990005C6CA404A40C081C221C074901F00AF991
:1009A0000123EB550023337000E01C1C201CF8BD14
:1009B0007F0000209C010020DC000020FF3F00F0B1
:1009C000FF3083792022002900D110221343837144
:1009D00070470000084BFF305A69920B92035A612E
:1009E00002230372827980235B4213438371037A6B
:1009F0009A07FCD57047C0469C01002080235B42CB
:100A00001943C9B28172704770B5A02303225B00FD
:100A1000C254134B134A5C6CC021144089050C432B
:100A200046255C64FF35402444550F4D30261D6437
:100A300090256D0046555D6B1540294392255963FD
:100A40006D0080214155094D1D63B0256D00445551
:100A50005C6F22405A67B2235B00C15470BDC04630
:100A60009C010020FFFFFF8FDC0000205C010020C4
:100A7000024B5B785BB2002BFADB7047000C004046
:100A8000024BDB68DA06FBD57047C0460008004021
:100A9000F8B52A4B1E22596891430222114359602E
:100AA000274B28491E1C9982998A0A439A82F36827
:100AB0000227234C3B42FAD0234D0123AB60FFF7C2
:100AC000D7FF224B6B60FFF7D3FF8223DB016B80E4
:100AD000FFF7CEFFA38C80229343A384FFF7D0FFC0
:100AE0001B4BE362FFF7CCFFA38C1A4A1343A3848A
:100AF000FFF7C6FFA38C1F43A784F3681A06FCD533
:100B00000F4BDB685A06F8D50024FFF7B9FFAC603D
:100B1000FFF7AEFF104B6B60FFF7AAFF0F4B104AB9
:100B2000C0215A600F4A0906106A0002000A0143F8
:100B3000116207229C601A60F8BDC0460040004167
:100B4000000800400C060000000C004001050100F8
:100B5000B805FF7D040A00000007030010E000E074
:100B6000E703000000ED00E00EBEFEE70DBEFEE76D
:100B700005BEFEE702BEFEE70E4A0F4838B58242C8
:100B800004D10E4A0E4B93420ED10AE00D4C944212
:100B9000F7D00023D1188842F3D9E55804330D600B
:100BA000F8E700F011F804E09342FAD2002102C302
:100BB000FAE7FEE7000000205C000020AC03002004
:100BC0005C000020D01E000038B5344D2B68013386
:100BD0001AD0334B2A1D1A60EAB2002A14D1314BC5
:100BE000197801231940304B0AD118682F4A9042D6
:100BF00001D1196008E01A602D4A013A002AFCD19F
:100C00001A602C4B01221A70FFF742FF62B6FFF701
:100C100027FD284B284C1B78002B0AD02B6883F328
:100C200008881E4BFF229343A3601D4B1B681B6863
:100C3000184700F09DFD00F04FF8204B8022520332
:100C40009A601F4B1F4A051C5A60216AC022090284
:100C5000090A12060A43226200229A6007221A60D9
:100C6000AB68281C9847184B002801D001221A7045
:100C70001A78002A05D0002000F08CFA00F004FB5E
:100C8000FCE71B78002BEBD100F0E6FD0028E7D055
:100C9000012000F07FFA00F0F7FAFCE700200000E6
:100CA0001C02002038040040FC7F002035817307BF
:100CB00048E801008000002000ED00E00044004111
:100CC00010E000E0E70300008100002008B5FFF716
:100CD00033FB00F0C3FA08BD10B5054B054C23608B
:100CE000FFF764FD201C2168FFF752FD201C10BD9A
:100CF000005000412002002070B5051CC0B0081C47
:100D0000161C0C1C00F067FF40006A4603230230EB
:100D10005370107076080123E218013A11785A00D6
:100D2000002906D1281C69460023FFF7C3FD40B007
:100D300070BDB342F6DA684681520133ECE7000039
:100D4000F7B5BA4A04681378B949271CFF37051C60
:100D5000102038720B705378B648B74E03709378F2
:100D60003380D178338809020B4333801179B34B38
:100D70001980517918880902084318809079B04980
:100D80000880D2790888120202430A8040227A71D0
:100D9000A84F3A78A64F120238780F1C0243A94890
:100DA0008446181C624500D1C2E020DC8021490045
:100DB0008A4200D16EE109DC812A00D192E0822AC8
:100DC00000D195E0802A00D064E18BE081235B00B4
:100DD0009A4200D1CFE000DA58E1C0239B009A424A
:100DE00000D157E1984B9A4200D14FE152E1902354
:100DF0001B019A4269D015DCD023DB009A4222D035
:100E000088231B019A4269D0A023DB009A4200D0BC
:100E100040E1201CFFF7DEFD3188286889B2FFF72A
:100E2000EDFD3BE1894B9A4200D12FE100DC31E13D
:100E3000874B9A4200D11DE1864B9A4200D029E1AE
:100E400033886B7122E133881B0A012B08D10B8890
:100E500012222868934201D80A8892B27E4911E191
:100E600033881B0A022B08D10B884322286893423F
:100E700001D80A8892B2794904E133881B0A032B0E
:100E800000D007E13388DBB2012B17D0002B07D04D
:100E9000022B00D0FEE00A882868D2B2704911E027
:100EA000042201A86F4900F085FE3B8804222868CF
:100EB000934201D83A8892B201A9E3E00A882868EF
:100EC0006949D2B2FFF718FFE8E03388201C2B7184
:100ED000FFF780FD201CFFF797FDDFE0291C01C90B
:100EE0000122CFE0614900230B8028680222CAE07A
:100EF0005E4900220A801888502210405C4A107017
:100F00001E880F20304018801888032800D9C1E0BF
:100F100012781B8808335B01E418A379002A01D0FA
:100F20009B0600E0DB06DB0F0B8028680222A9E0AD
:100F300019887F2291434E4AC9B2117018880F2137
:100F4000014019803188002900D0A3E019880029C8
:100F500000D19FE01988032900D99BE012781B88F3
:100F600008335B01E318002A02D020225A718DE079
:100F7000102159718AE002887F239A433C4BD2B2F8
:100F80001A7001880F220A4002803288002A00D09D
:100F900080E00288002A00D17CE00288032A00D980
:100FA00078E01B78002B1FD0038808335B01E3181F
:100FB0009B799A066AD50388202208335B01E318DF
:100FC0001A71038808335B01E318DB795F065DD58E
:100FD0000388402208335B01E318DA710388022298
:100FE00008335B01E3181EE0038808335B01E31854
:100FF0009B79D9064AD50388102208335B01E31890
:101000001A71038808335B01E318DB799A063DD532
:101010000388202208335B01E318DA710388012278
:1010200008335B01E3181A7130E0C0469C000020D1
:1010300083000020880000208A0000208C0000200F
:1010400086000020020300000103000021200000B0
:10105000A121000021220000201C0000040000202B
:101060000C1C0000FC1B0000001C00008400002081
:10107000820000200B8808222868934201D80A8841
:1010800092B207490023FFF715FC07E0201CFFF789
:10109000A1FC03E0201C0121FFF792FCF7BDC04634
:1010A0004800002007B5054B0122019001A91868EE
:1010B000131CFFF7FFFB01200EBDC04620020020DD
:1010C00013B5054B6C4607341868211C0122FFF745
:1010D00039FC207816BDC0462002002010B5074C10
:1010E000201CFFF713FB031C0020834205D022685D
:1010F0004823FF33D05C0123184010BD200200209C
:1011000010B5054A0C1C031C191C10680123221C75
:10111000FFF7D0FB201C10BD2002002070B5084C4A
:10112000061C201C0D1CFFF7F1FA0023984205D085
:101130002068311C2A1CFFF705FC031C181C70BD1D
:1011400020020020F8B50C4C051C201C0E1CFFF7DB
:10115000DDFA0023271C341C98420AD0002C07D04B
:10116000291C221C3868FFF7EDFB241A2D18F5E71F
:10117000331C181CF8BDC0462002002008B5031C13
:10118000081C111C9847024B64221A8008BDC046F7
:1011900092000020012805D1054B064A1A60064B33
:1011A000187004E0002802D1044A014B1A6070470D
:1011B00090020020541C000098000020A01C000099
:1011C00030B50A1C1C4985B00978031C00292AD0B7
:1011D000042A01D1006804E0022A01D1008800E05D
:1011E0000078520004A98B180B3B9C1AA3420BD029
:1011F0000F210140092902D83025294300E0373169
:1012000019700009013BF1E701A930230B70782325
:101210004B700A208B1898700D20D870074B043241
:101220001B68D86803E005490968C868191CFFF7FE
:10123000A5FF05B030BDC0468E0000209002002002
:1012400072B6EFF30883044A1360036883F30888D7
:10125000436818477047C04694020020084B1A881C
:10126000002A03D01A88013A92B21A80054B1A88D4
:10127000002A03D01A88013A92B21A807047C046F9
:101280009200002090000020F0B591B008A9CC4A4F
:101290000B1C31CA31C351CA51C360CA60C3C94BA8
:1012A000C9489A687A255203520F92005258C7498A
:1012B00002609C68A4B262430C60C54900240A60C5
:1012C000C44A1460C44C2570C44CC54D2368281C06
:1012D0001B6940219847002802D0C24B64221A8023
:1012E000C14B00221860C14B1D60C14BC04DBE4FA9
:1012F0001A602A683B689A42E6D2BC4B1B681A788F
:10130000FF2A00D114E2232A00D0EBE1B94E337852
:10131000002B06D0B14BB8491B680222D868FFF7F2
:101320002DFFAD4B1B78532B3CD13B682A68934271
:101330001ED9AE4801322A609A1AB04B01681B6868
:1013400001310160AE4E9A4201D2326000E033605A
:10135000A04832680068049000F02CFC33682968CB
:101360005A182A60A14A1668F1181160A54A13702C
:101370002B68013B2B609D4B1A68013A1A60A14B08
:101380009E4A1B7811688B420AD222689148C91A7A
:10139000006892699047002802D0924B64221A801C
:1013A000C0468DE1522B0AD18A48944A23680068CE
:1013B00011685B69039098476422934B0DE04F2BB3
:1013C00005D1844B8D4A1B6812681A7078E1482B4E
:1013D00005D1804B894A1B6812681A8070E1572B2F
:1013E00005D17C4B854A1B6812681A6068E16F2B37
:1013F00003D1784B0121186807E0682B08D1754BA1
:101400007E481B6802211B880360FFF7D9FE57E165
:10141000772B06D16F4B79481B6804211B6803604A
:10142000F3E7472B13D1754B1868FFF709FF774B8C
:101430001B6883F3088862B6754B1B78002B00D1BC
:101440003EE1664B06201B681B68984738E1542B29
:1014500004D101233370614B1B6864E04E2B0CD127
:101460003378002B06D15D4B63491B680222D86894
:10147000FFF784FE0023337022E1562B57D12368F7
:101480006449D8680122FFF779FE23686249D86869
:101490000322FFF773FE614D2368291CD8680122DF
:1014A000FFF76CFE23685E49D8680D22FFF766FEE1
:1014B0002368291CD8680122FFF760FE4B4F4C4D72
:1014C0005849002339602B603A1C281C13685E1CA5
:1014D00016601B780593002B03D00368013303606B
:1014E000F4E73E4E2A683368D868FFF747FE336852
:1014F0004A49D8680122FFF741FE059929604A4907
:1015000039603A4A1368581C10601B78002B04D0CD
:10151000374B1A6801321A60F3E733682A68D868D3
:10152000FFF72CFE3368D86833490222C6E0334AFD
:10153000582B17D1244E264D366813682A68B100FF
:1015400093420AD21F4D5808E861384828801D4D43
:10155000287DC607FBD55B18F2E7204B34491B6892
:10156000D868AAE0592B79D112681A4B3149002A60
:1015700002D11B680B606CE0124D086819686B683B
:10158000104E8025AB4392087360002A61D02A4B2D
:101590000C4D2B800B4E337DDD07FBD500230A4D10
:1015A0002D680195AD08AB4203D3244D054E35801F
:1015B00046E09342F9D09D00465901334E51EEE783
:1015C000341C00000040004148020020400200207E
:1015D0003C0200208C0200203802002090020020F3
:1015E0004C02002090000020300200203402002035
:1015F000440200208E000020941C0000980200206D
:101600009C0200202C020020920000209402002066
:1016100098000020701C0000991C0000721C000043
:10162000BC1C0000741C0000801C000002A5FFFF11
:10163000891C00009400002044A5FFFF04A5FFFFC3
:101640003F4E357DEE07FBD59D0049194019D21A52
:101650009BE73C4B3C491B68D8682EE05A2B2FD1A6
:101660003A4B17681D680026EF19BD4206D028784E
:10167000311C00F013F90135061CF6E7314B3449F3
:101680001B680122D868FFF779FD07230F2232403B
:10169000111C36093031092A00DD07311820C01825
:1016A0006A468154013BF1D2236806A9D868082212
:1016B000FFF764FD23682749D8680322FFF75EFD22
:1016C000254B7A221A70254B00221A60244B1B7876
:1016D00093422DD01B4B23491B680122D868FFF78A
:1016E0004DFD25E0111C3039C8B21C4B092804D827
:1016F0001D682A01114319601AE0111C413905299E
:1017000003D81E68373A310106E0111C61390529FA
:1017100004D81868573A01010A4308E02C2A03D17B
:101720000A4A1968116001E00B490A7000221A6028
:101730000D4B1A6801321A600C4B1A680132D5E55C
:1017400000400041900200208D1C00008C0200200F
:10175000911C0000931C0000380200209802002019
:101760008E000020971C000044020020340200205C
:1017700010B51C4B01201A78032402431A701A4B2F
:101780000F2219789143197019782143197017495C
:101790000C782043087019780A401A701A783021A2
:1017A0000A431A70124B80211A6A0A431A62114BBB
:1017B000114A5A805A7852B2002AFBDBC4220F48E1
:1017C0000F499203FEF756FF0E4A002313700E4A8C
:1017D00013700E4A13700E4A13700E4A13700E4A9D
:1017E000137010BDD6440041BB440041D7440041B2
:1017F00000040040000C004019400000001C0042A2
:101800002AF60000A002002027030020A1020020E9
:10181000A4020020280300202503002008B5C1B23F
:101820000248FEF755FF012008BDC046001C0042DB
:10183000024B187E4007C00F7047C046001C004294
:1018400008B5FFF7F5FF0028FBD00248FEF746FF7A
:1018500008BDC046001C004208B5FFF7E9FF0023A1
:10186000984205D0FFF7ECFF031C233B5A4253413B
:10187000181C08BD70B5041C0D1C4618B44204D0D9
:101880002078FFF7CBFF0134F8E7281C70BD10B5B6
:10189000041CFFF7D5FF2070012010BD0B0A584033
:1018A000034B4000C05A0902484080B27047C0460E
:1018B000CA1C0000F7B50024051C0F1C261CBC42E6
:1018C00020D0FFF7BDFF114BC0B21B780190002B59
:1018D0001AD1311CFFF7E2FF0D4B061C1A88002AB3
:1018E00004D10C4A11782A1C002907D001996A1CDE
:1018F0002970802F02D11988013919800134A4B2CE
:10190000151CDCE7301C00E00120FEBD2503002093
:10191000A202002026030020F0B53E4E85B0002232
:1019200003900C1C32703C4B914201D1012201E02A
:101930003A490C801A707F231C4201D080349C43AA
:10194000FFF77EFF3378C0B2002B07D0002535703B
:10195000FFF776FF3378C0B2AB4236D1432803D0CD
:10196000712853D01528EBD1012300930120FFF7F4
:1019700055FF0098FFF752FF00998025C843C0B279
:10198000FFF74CFF039B00270293244A1388002B88
:101990001DD1214901930978002918D10198FFF739
:1019A0003DFF391C0198FFF779FF013D071C002D11
:1019B000EBD1000AC0B2FFF731FFF8B2FFF72EFFFC
:1019C000FFF73EFF3378002B0AD035701FE00299F5
:1019D000013B09781380029B019101330293DDE7FB
:1019E000C0B2062807D1009B03990133DBB28031D6
:1019F0000093803C0391002CB8D10420FFF70EFF28
:101A0000FFF71EFF044B01251C7000E00025281C79
:101A100005B0F0BD2503002026030020A20200200F
:101A2000F0B5384C87B0002301902370994201D162
:101A3000012301E0344A1180344A642613704320A4
:101A4000FFF7ECFE324FFFF7F3FE002803D1002F23
:101A500003D0013FF7E7002F03D1013E002EEED166
:101A60004DE00125FFF7ECFE2378002B38D1C0B202
:101A70000290012805D004283DD10620FFF7CEFEB4
:101A800039E005AE0221301CFFF714FF01988021D8
:101A9000FFF710FF23780390002B18D1FFF7D0FE3B
:101AA0000702FFF7CDFEBFB223783F18BFB2012B6C
:101AB0000DD0039B9F4207D13378AB4204D1EB4357
:101AC0007278DBB29A4204D01820FFF7A7FE0023F9
:101AD00003E00620FFF7A2FE029B2278002A02D034
:101AE000002626700BE0012B05D1019A6B1C803279
:101AF000DDB20192B6E7054A002313700126301CBF
:101B000007B0F0BD25030020A2020020260300201C
:101B100000350C00002934D00123002210B4884283
:101B20002CD301242407A14204D2814202D209010C
:101B30001B01F8E7E400A14204D2814202D249002D
:101B40005B00F8E7884201D3401A1A434C08A042D0
:101B500002D3001B5C0822438C08A04202D3001B66
:101B60009C082243CC08A04202D3001BDC0822437D
:101B7000002803D01B0901D00909E3E7101C10BCA1
:101B80007047002801D00020C04307B4024802A1DA
:101B90004018029003BDC046190000000029F0D093
:101BA00003B5FFF7B9FF0EBC4243891A1847C04678
:101BB0007047C04610B50023934203D0CC5CC45498
:101BC0000133F9E710BD031C8218934202D019704B
:101BD0000133FAE770470023C25C0133002AFBD1CE
:101BE000581E7047F8B5C046F8BC08BC9E46704702
:101BF000F8B5C046F8BC08BC9E467047040309040B
:101C000041726475696E6F204C4C4300417264757B
:101C1000696E6F204D4B52204E42203135303000DE
:101C2000120100020200004041235500000201029F
:101C3000000100000800000010000000200000006B
:101C400040000000800000000001000000020000D1
:101C5000000400001D1800004118000031180000A9
:101C6000751800008F18000019190000211A0000D3
:101C7000760020004170722031312032303139003D
:101C800031333A30393A353700580A0D00590A0DC8
:101C9000005A00230A0D003E00322E3000000000E2
:101CA000A5100000C1100000DD10000001110000AF
:101CB0001D11000001110000451100005B4172641C
:101CC00075696E6F3A58595A5D0000002110422024
:101CD00063308440A550C660E770088129914AA10D
:101CE0006BB18CC1ADD1CEE1EFF131121002733284
:101CF0005222B5529442F772D662399318837BB35D
:101D00005AA3BDD39CC3FFF3DEE362244334200413
:101D10000114E664C774A44485546AA54BB52885AC
:101D20000995EEE5CFF5ACC58DD553367226111663
:101D30003006D776F6669556B4465BB77AA71997FC
:101D40003887DFF7FEE79DD7BCC7C448E5588668EB
:101D5000A7784008611802282338CCC9EDD98EE94C
:101D6000AFF9488969990AA92BB9F55AD44AB77AC3
:101D7000966A711A500A333A122AFDDBDCCBBFFB9C
:101D80009EEB799B588B3BBB1AABA66C877CE44CD3
:101D9000C55C222C033C600C411CAEED8FFDECCDEC
:101DA000CDDD2AAD0BBD688D499D977EB66ED55EA3
:101DB000F44E133E322E511E700E9FFFBEEFDDDF3C
:101DC000FCCF1BBF3AAF599F788F8891A981CAB1C8
:101DD000EBA10CD12DC14EF16FE18010A100C230FA
:101DE000E3200450254046706760B9839893FBA3B5
:101DF000DAB33DC31CD37FE35EF3B1029012F3224A
:101E0000D2323542145277625672EAB5CBA5A89504
:101E100089856EF54FE52CD50DC5E234C324A01499
:101E200081046674476424540544DBA7FAB7998794
:101E3000B8975FE77EF71DC73CD7D326F2369106E9
:101E4000B01657667676154634564CD96DC90EF9DC
:101E50002FE9C899E9898AB9ABA944586548067839
:101E60002768C018E1088238A3287DCB5CDB3FEBF4
:101E70001EFBF98BD89BBBAB9ABB754A545A376A89
:101E8000167AF10AD01AB32A923A2EFD0FED6CDDC4
:101E90004DCDAABD8BADE89DC98D267C076C645CD9
:101EA000454CA23C832CE01CC10C1FEF3EFF5DCFD4
:101EB0007CDF9BAFBABFD98FF89F176E367E554E29
:101EC000745E932EB23ED10EF01E000000000000A2
:101ED00001140000090243000201008032090400DD
:101EE0000001020200000524001001042402000584
:101EF000240600010524010001070583030800FFF3
:101F000009040100020A00000007058102400000E8
:101F1000070502024000000000C2010000000800A6
:0C1F20006900000041000000000000000B
:1020000000800020618B0100498B0100498B010099
:1020100000000000000000000000000000000000C0
:10202000000000000000000000000000498B0100DB
:102030000000000000000000498B0100B58B01008A
:10204000498B0100498B010055530000498B010069
:10205000498B0100498B0100498B01004D8B010028
:10206000498B0100498B0100498B0100B17D0000C3
:10207000498B0100A18A0100918A0100498B01006E
:10208000498B0100498B0100498B0100498B0100FC
:1020900000000000498B0100498B0100498B0100C1
:1020A000498B0100498B0100498B0100498B0100DC
:1020B0000000000010B5064C2378002B07D1054B1B
:1020C000002B02D0044800E000BF0123237010BDA4
:1020D000C002002000000000F89B0200044B10B575
:1020E000002B03D00349044800E000BF10BDC046E8
:1020F00000000000C4020020F89B020010B504009C
:10210000183019F000F9200010BD000010B5044986
:10211000044819F081F8044803F0C8FD10BDC0461A
:1021200037370200305300204404002070B50125E9
:102130001A4C1B4B1B491C48E5541DF059FD1B490B
:102140001B481DF055FD1B491B481DF051FD1B4B45
:102150001B491C48E5541DF04BFDFA221A4B520155
:10216000E2521A4A0233E5520433E252184B19493B
:10217000E55402231848E3722373E57125721DF0BC
:1021800037FD164916481DF033FD164916481DF057
:102190002FFD164916481DF02BFD70BD044200208E
:1021A0004B04000075330200CC4500207F33020051
:1021B0003F440020863302001E44002049040000F2
:1021C00096330200494400201202000060EAFFFF3B
:1021D0004A0400006132020033420020BB33020097
:1021E00053420020F542020073420020BD3302003A
:1021F000B34200200A21435E0200181E01D01B01D9
:10220000D018704770B50D00041E0FD0C168A942E8
:102210000CD0002D06D0002904D028001DF0DEFCD3
:10222000002803D02000FFF7E5FFEDE7200070BD98
:102230004A688B681032934204D201230B74002346
:1022400018007047103B8B60002BF9D04268002AC1
:1022500008D0991A09115181002243605A811A72DB
:10226000DA60EDE70360F7E7F7B5037804000D00E7
:102270002B2B1DD02D2B1CD10127013423781A00C4
:10228000303A092A02D92E2B00D0C9E000200A26B4
:10229000644922781300303BDBB2092B0BD888420B
:1022A00011D8DA43704382420DD3C0180134F0E7ED
:1022B00001340027E2E7002A05D1002F18D080233F
:1022C0001B06984209D90026574B98421AD90A2171
:1022D000013619F08BFB76B2F6E77F222B7A40426B
:1022E00093431A000A2313432B7228603800FEBD63
:1022F0007F222B7A286093431A00082313432B7202
:102300000127F3E723781A00303A092A03D8013667
:1023100076B20134F6E72E2B0FD10A21434A01345D
:102320002378303BDBB2092B07D8904203D84843CF
:10233000013E181876B20134F2E7202322789A433E
:102340000023452A3AD162782D2A1FD10234013365
:102350000193002321783039CAB2092A2AD80A22E7
:102360005343CB18F118262922DD019A2B7A7F20BE
:10237000002A11D00024002F01D0802424060C2133
:1023800083430B432B722C60019FAFE72B2A01D0B4
:102390000134DDE70234DBE7002F06D024490C22AC
:1023A000834313432B722960AAE7FF21C905F6E78F
:1023B0000134CFE7019A002A00D05B422478002C38
:1023C0002ED1F6181AF0E6FB002E1ADD01231E426C
:1023D00004D0184AA300D1581AF0C6F80134761078
:1023E000E4B2002EF2D1002F02D080231B06C018C9
:1023F0007F222B7A286093431A000C2313432B72FD
:102400007EE77642002EEED001231E4204D00A4A17
:10241000A300D1581AF0A8F801347610E4B2F1E71D
:10242000002763E799999919FFFF7F00CBCC0C0037
:10243000000080FF3C3002002430020070B5094CDF
:10244000200002F02BFC084D2100280002F0DCFEE9
:102450000028F4D0200002F0ADFE2800002102F098
:1024600073FE70BD305300200442002070B592B05E
:10247000FFF74CFE954C03A8210018F093FF2100B4
:1024800006A818F08FFF210009A818F08BFF210083
:102490000CA818F087FF8E4906A819F02DF88D4C6E
:1024A0000FA8210003F05CFF0FA909A819F01CF880
:1024B0000FA818F028FF21000FA803F06DFF0FA947
:1024C0000CA819F011F80FA818F01DFF824C8349D1
:1024D00020001DF08DFB824920001DF063FB814927
:1024E00020001DF05FFB804D200029001DF05AFBED
:1024F0007E4920001DF056FB7D4E200031001DF06E
:1025000051FB069920001DF04DFB310020001DF00D
:1025100049FB290020001DF045FB764920001DF0F5
:1025200041FB310020001DF03DFB099920001DF00A
:1025300039FB310020001DF035FB290020001DF083
:1025400031FB6D4920001DF02DFB310020001DF0F6
:1025500029FB0C9920001DF025FB310020001DF007
:1025600021FB290020001DF01DFB644920001DF007
:1025700019FBFFF7CBFD0A2201000FA818F066FF38
:102580000F9920001DF00EFB0FA818F0BCFE2900CB
:1025900020001DF007FB5A4920001DF003FB852396
:1025A000584E9B00F15A0A220FA818F02BFF0F99E2
:1025B00020001DF0F7FA0FA818F0A5FE2900200052
:1025C0001DF0F0FA504920001DF0ECFA4F4B0A22A2
:1025D000F15A0FA818F016FF0F9920001DF0E2FA2B
:1025E0000FA818F090FE290020001DF0DBFA4849E2
:1025F00020001DF0D7FA474B0A2219780FA818F0CF
:10260000F0FE0F9920001DF0CDFA0FA818F07BFE08
:10261000290020001DF0C6FA3F4920001DF0C2FA33
:1026200086239B00F15A0A220FA818F0EBFE0F999F
:1026300020001DF0B7FA0FA818F065FE37492000FA
:102640001DF0B0FA364D0A223649280018F035FE42
:102650000A223549280018F030FE2100280018F021
:10266000DBFD02F051FE3149280018F0D5FD30495C
:102670000FA818F097FE06A90FA818F0A7FF2D497C
:1026800018F0B1FF00222C4E009213000100300020
:1026900013F0D1FF0FA818F036FE2100300018F01B
:1026A0009FFD300014F0BDFB2449280018F0B4FD54
:1026B0000CA818F028FE09A818F025FE06A818F0A6
:1026C00022FE03A818F01FFE12B070BD3473020082
:1026D000CC45002074030020C10400208134020096
:1026E000833402008B3402009634020098340200D6
:1026F0006D440200A6340200B2340200BB34020072
:10270000C834020004420020D23402001202000049
:10271000DE34020024030020F0340200FB34020007
:10272000305300203D3D3D3D6E6F734AFD34020045
:10273000163502001F3502007803002031350200F3
:10274000F0B58BB0B64907A803F06AFE07A819F0E8
:1027500093F8039007A818F0D6FDFFF7D7FCB1490E
:1027600004A818F01FFEB04C04A8210018F0C4FE05
:10277000AE4EAF49300018F04FFDAE49300018F0B2
:102780002FFD2100300018F047FDAB4CAB49200075
:102790001DF02EFAAA4920001DF004FAA9492000D4
:1027A0001DF000FAA84D200029001DF0FBF9A749F3
:1027B00020001DF0F7F9A64F200039001DF0F2F9B6
:1027C000049920001DF0EEF9390020001DF0EAF90F
:1027D000290020001DF0E6F99E4920001DF0E2F9D5
:1027E000FFF794FC0A22010007A818F02FFE0799B2
:1027F00020001DF0D7F907A818F085FD290020005A
:102800001DF0D0F9944920001DF0CCF9934B0A2219
:102810000021595E07A818F0F5FD079920001DF06A
:10282000C1F907A818F06FFD290020001DF0BAF9C2
:102830008B4920001DF0B6F98A4B0A220021595E0F
:1028400007A818F0DFFD079920001DF0ABF907A8D5
:1028500018F059FD290020001DF0A4F9824920003C
:102860001DF0A0F9814B0A220021595E07A818F03B
:10287000C9FD079920001DF095F907A818F043FD40
:10288000290020001DF08EF9794920001DF08AF9F9
:10289000784B0A220021595E07A818F0B3FD07996A
:1028A00020001DF07FF907A818F02DFD2900200059
:1028B0001DF078F9704920001DF074F96F4B0A2261
:1028C0000021595E07A818F09DFD079920001DF012
:1028D00069F907A818F017FD290020001DF062F91A
:1028E000674920001DF05EF9664B0A220021595EFF
:1028F00007A818F087FD079920001DF053F907A8D5
:1029000018F001FD290020001DF04CF95E4920005F
:102910001DF048F95D4B0A220021595E07A818F006
:1029200071FD079920001DF03DF907A818F0EBFC98
:10293000290020001DF036F9554920001DF032F91C
:10294000544B0A220021595E07A818F05BFD079935
:1029500020001DF027F907A818F0D5FC2900200059
:102960001DF020F94C4920001DF01CF94B4B0A22A8
:10297000197807A818F035FD079920001DF012F905
:1029800007A818F0C0FC290020001DF00BF94449ED
:1029900020001DF007F90A22039907A818F032FD5C
:1029A000079920001DF0FEF807A818F0ACFC3D497F
:1029B00020001DF0F7F83C49300018F02DFC2100F4
:1029C000300018F029FC02F09FFC3849300018F064
:1029D00023FC374907A818F0E5FC364907A818F08A
:1029E000F5FD354918F0FFFD0022344D009213002B
:1029F0000100280013F01FFE07A818F084FC210036
:102A0000280018F0EDFB280014F00BFA2C493000D8
:102A100018F002FC04A818F076FC0BB0F0BDC0461C
:102A2000AC04002034730200CC4500203053002059
:102A3000C1330200E2330200C104002081340200ED
:102A400083340200F233020096340200983402000C
:102A50006D440200BB340200F93302001A03002067
:102A6000FF330200DC02002006340200F8020020DE
:102A70000B34020022030020103402001C0300204B
:102A800016340200180300201D3402001E0300202B
:102A900023340200200300202934020024030020F4
:102AA0002F340200FB3402003534020049340200A6
:102AB00016350200E00200201F35020078030020D6
:102AC0003135020070B505000024AC420FDA012157
:102AD000062016F003FBC82002F026FC0021062089
:102AE00016F0FCFAC82002F01FFC0134EDE770BDBF
:102AF00030B58DB005001849684618F053FC174BE7
:102B00001B78002B22D0164C1649200018F068FBC9
:102B10002900200018F05DFB1349200018F07CFB11
:102B200003A81723009A114914F0D0FD03A814F04C
:102B300020FD00280AD00E49200018F06DFB290066
:102B400003A818F05FFB03A814F006FD684618F010
:102B5000DAFB0DB030BDC04659340200C00400207D
:102B600030530020623402006C340200F04B00202D
:102B700077340200F0B593B01D0018AB16000022A8
:102B80009B5E0400019319AB00229B5E0F00029331
:102B90001AAB00229B5E384903931BAB00229B5E5D
:102BA000364804931CAB00229B5E059318F034FB5F
:102BB000334906A818F0F6FB324B1B78002B56D091
:102BC0001723069A304909A814F080FD0A22210033
:102BD00009A818F07CFB2D4C09A8210018F000FB77
:102BE0000A22390009A818F064FB210009A818F08E
:102BF000F7FA0A22310009A818F05BFB210009A8A6
:102C000018F0EEFA0A22290009A818F052FB210058
:102C100009A818F0E5FA0A22019909A818F049FB59
:102C2000210009A818F0DCFA0A22029909A818F074
:102C300040FB210009A818F0D3FA0A22039909A839
:102C400018F037FB210009A818F0CAFA0A220499E3
:102C500009A818F02EFB210009A818F0C1FA0A22D1
:102C6000059909A818F029FB09A814F075FC06A815
:102C700018F049FB13B0F0BD42350200305300207C
:102C800054350200C0040020F04B002096340200AE
:102C9000F0B56C4C6C4D8BB02000290018F0BCFADC
:102CA000290007A818F07EFB07A8FFF721FF07A857
:102CB00018F029FB654D0321280014F099F9644BA5
:102CC00064491880200018F0A7FAC82002F02CFBF5
:102CD0000221280014F08CF95F4F604938802000F1
:102CE00018F09AFAC82002F01FFB0121280014F006
:102CF0007FF95B4B5B491880200018F08DFAC820E3
:102D000002F012FB0021280014F072F9564B5749CB
:102D10001880200018F080FAC82002F005FB544DFE
:102D20000321280014F064F9524B53491880200005
:102D300018F072FAC82002F0F7FA0221280014F005
:102D400057F94E4E4E493080200018F065FAC820E1
:102D500002F0EAFA0121280014F04AF9494B4A49E5
:102D60001880200018F058FAC82002F0DDFA00217F
:102D7000280014F03DF9454B45491880200018F013
:102D80004BFAC82002F0D0FAFFF7C0F9414D424992
:102D90002860200018F040FA2000404918F020FA7E
:102DA00020000023F95E0A2218F087FA20003C492F
:102DB00018F016FA2A4B20000021595E0A2218F05A
:102DC0007CFA2000374918F00BFA274B200000212D
:102DD000595E0A2218F071FA2000334918F000FAFF
:102DE00020000A220023F15E18F067FA20002F4924
:102DF00018F012FA0022BB5E1B4A0021525E1849ED
:102E00000020095E21480024005F04901D48002432
:102E1000005F039017480024005F02900C480024D4
:102E2000005F01900024305F00902868FFF7A2FE49
:102E30001F4A204BD35C002B02D00120FFF742FE3B
:102E40000BB0F0BD305300203332020028030020C5
:102E50001A0300204E320200DC0200205932020028
:102E6000F8020020653202002203002073320200C3
:102E7000380300201C0300208432020018030020C5
:102E8000933202001E030020A33202002003002020
:102E9000B232020014030020C13202000F330200DC
:102EA000153302001B3302002133020027330200D6
:102EB000044200204A040000F0B53F4C3F4D89B069
:102EC0002100280018F0A8F9210005A818F06AFAD6
:102ED00005A8FFF70DFE05A818F015FA38492800D7
:102EE00018F09AF9012702F0FBF9364E02A83100DA
:102EF00003F096FA02A818F0BFFC3C000E280DDD86
:102F0000310005A803F08CFA05A818F0B5FC633869
:102F10004442444105A8E4B218F0F5F902A818F0BB
:102F2000F2F9002C2CD1FA260134B60000940123CA
:102F3000254A2649264802F0A9FE032833D121005C
:102F4000244802F0A9FA04282DD12349280018F0BA
:102F500063F90A2002F06EF9204C2800210018F0D5
:102F60005BF9210005A818F01DFA05A8FFF7C0FDC0
:102F700005A818F0C8F9280018F03CF909B0F0BD10
:102F80001749280018F048F9164905A818F00AFA58
:102F900005A8FFF7ADFD05A818F0B5F9FA20400027
:102FA00015F04CFEA1E71049280018F019F930007F
:102FB00015F044FEBAE7C0464B37020030530020FC
:102FC00079370200AC0400201E4400203F4400205A
:102FD0004404002054030020AE370200B83702003A
:102FE0008537020090370200A1320200F0B5854D0E
:102FF000854C85B02900200018F00EF9290001A8A1
:1030000018F0D0F901A8FFF773FD01A818F07BF9BB
:103010007E4D0121280002F01BFC280002F0E0FB9D
:103020000028FAD07A4E2000310018F0D9F831008B
:1030300001A818F0B7F901A8FFF75AFD01A818F088
:1030400062F97449280002F09DFAFA210022C900B1
:10305000280002F0A3FB704E2000310018F0DCF8CD
:103060006E4F2000390018F0D7F8390001A818F089
:1030700099F901A8FFF73CFD01A818F044F9684947
:10308000280002F07FFA674A6421280002F086FBDC
:103090003100200018F0C0F8634F2000390018F00C
:1030A0009FF8390001A818F07DF901A8FFF720FD6D
:1030B00001A818F028F9FA275C49280002F062FA02
:1030C000BF00642015F0BAFD5949200018F088F8B7
:1030D0004E4D280002F084FB00223900280002F047
:1030E0005DFB0128EDD13100200018F095F8514F1B
:1030F0002000390018F090F8390001A818F052F9B2
:1031000001A8FFF7F5FC01A818F0FDF8FA274A49D5
:10311000280002F037FABF00642015F08FFD444903
:10312000200018F05DF8280002F05AFB0022390058
:10313000280002F033FB0128EED13100200018F006
:103140006BF83E4D2000290018F066F8290001A810
:1031500018F028F901A8FFF7CBFC01A818F0D3F864
:1031600063272A4D3649280002F0F2F9FA212D4A48
:10317000C900280002F012FB324901A818F012F928
:1031800001A9284818F0B4FA050001A818F0BBF806
:103190006B1C0CD02B000622224901A818F0F8FA6B
:1031A00001A818F069FB070001A818F0ACF8FA2094
:1031B000800015F043FD1F2FD3DC3100200018F0F4
:1031C0002BF8214D2000290018F026F8290001A82D
:1031D00018F0E8F801A8FFF78BFC01A818F093F8A5
:1031E0000A4D1A49280002F0CDF9FA210D4AC9000A
:1031F000280002F0D3FA3100200018F00DF805B0D5
:10320000F0BDC0465430020030530020604600201C
:1032100076300200933002009D300200A33002009D
:10322000C8300200B4040020D2300200FE30020098
:10323000A132020009310200403102004A3102008D
:1032400087310200963402008E310200A53102005F
:10325000F0B524C8954211D90800130007781C78EE
:103260005E1CBC4204D1002C09D001303300F5E7CC
:10327000187801331A000028FAD1EBE70022100079
:10328000F0BD0023F0B585B007000C000291039259
:103290000093994208D00168994208D17F22237A8D
:1032A0009343237201230093009805B0F0BD039E61
:1032B0003000FFF7CDFF051E1BD1BB687568019379
:1032C000B2680133EB18934207D9012333747F228C
:1032D000237A934323720023E5E77360002DF6D031
:1032E000019A396828001BF00EFC6A46019B12788F
:1032F000EA547F22237A256093431A00052313435F
:103300002372CFE770B5037A0D0016007F211A00F3
:1033100004000A4005D18B435F390B4303720260FE
:1033200042602022237A1340181E12D0281E10D08B
:1033300029002068FEF766FF00280AD1310020002E
:10334000FEF776FF002804D07F22037AC560134081
:10335000037270BD10B50200037A20200340181ECE
:1033600002D01068FEF74EFF10BD437C002B06D143
:10337000C3685A1CC2601B78037401234374007C29
:10338000704710B504002000FFF7EFFF0A2806D8A9
:10339000092808D2002809D0012020720CE00D284D
:1033A00001D02028F8D100236374ECE7237A583445
:1033B0005A1E93410133237010BD1FB57F220300B5
:1033C000007A1040043808282ED818F0FBFA0F0FA6
:1033D000052D082D0D2D1A00187804B010BD1868A1
:1033E000C343DB171840F8E71868F6E718680023AE
:1033F00001AC23722100FEF737FF2000FFF7DDFF4D
:10340000EBE7CF211C680906201C18F0DFFC002820
:10341000E3D09E21201CC90518F0C4FC0028DCD094
:10342000201C19F097FBD8E70020D6E770B530C80C
:1034300014340E0020002900FFF78CFF002806D06E
:103440007F22037A1340082B03D00A2B04D0306864
:103450000AE00368002BFADB29002000FFF77AFF5F
:10346000002801D0FFF7A9FF70BD70B504000D0062
:10347000FFF77BFF0023A84201D1637401331800DA
:1034800070BD2F2815D90123392803D95E2803D907
:103490007A2803D81800704740280AD901235A28EF
:1034A000F8D9002301222D38C0B282425B41DBB241
:1034B000F0E701232B28F4D1ECE737B500236A4667
:1034C0001370C3B27F280BD853706B460233013B95
:1034D0001878002831D00A68541C0C601070F6E788
:1034E0003F2480226D4623405242134380096B7073
:1034F00085B2C3B21F2D06D8403213436A4693707B
:103500006B460333E3E76D46234000041343800D0D
:10351000AB70C3B20F2805DC202252421343EB707C
:1035200001ABD4E71C40102380115B4218436B466B
:103530002243EA7028710533C9E737BDF7B50500A6
:103540000027FFF712FF6F7401902800FFF70DFFAF
:103550000024019A03006C74824259D0A04204D125
:103560000223583500202B70FEBD5C284BD128006B
:10357000FFF7FBFE0028F3D0284B752839D104262D
:103580006C742800FFF7F1FE0028E9D0402806D827
:103590003038C0B20F2806D958350323E2E720237C
:1035A00098433738F5E700232401013E0443F6B27F
:1035B000A4B26B749E42E4D1A0239B01E318184A85
:1035C0009BB2934202D8A405A70DBEE790239B01AE
:1035D000E3189BB22000934206D880238005BC02EA
:1035E000800D20435B02C0182900FFF766FFACE79F
:1035F00002331A78002ACFD09042F9D15B78002BA1
:10360000CAD000226A742A68511C296013709CE792
:103610002B6801205A1C2A601C70A5E7E6370200BF
:10362000FF030000036870B543600400FFF79DFED0
:1036300027280DD022280BD02000FFF796FE05008A
:10364000FFF71FFF061E09D103235834237003E040
:103650002000FFF773FF0600300070BD0023637485
:10366000236820005A1C22601D70FFF77EFE0500B3
:10367000FFF707FF0028F1D123685A1C2260187059
:10368000EAE7F7B504000D001F1CFFF77AFE019072
:10369000002801D1002658E02000FFF766FE272809
:1036A00000D17BE01DD8222800D177E02000FFF771
:1036B0005CFE002600900098F7B2FFF7E2FE0028BB
:1036C00000D17EE00136402E00D179E06A46002329
:1036D00012786374A319DA752000FFF746FE009094
:1036E000E9E75B2813D07B28E0D17F222B7A2900E1
:1036F00093431A00202313432B72002300222B60D4
:103700006B6020003B1C00F087F806001DE07F2264
:103710002B7AFFB293431A00402313432B720023EA
:103720002B606B609F4203D1583405332370B1E79F
:1037300063742000FFF725FE0028ABD05D21200038
:10374000FFF793FE061E02D0019E3000FEBD6169A8
:103750002800FEF76DFD011E03D1042358342370A9
:10376000F3E77B1E00222000FFF78BFF002800D12B
:1037700090E72000FFF705FE002800D18AE75D21D1
:103780002000FFF772FE0028DED12C212000FFF779
:103790006CFE0028DBD158340323C7E723682000E0
:1037A0006360FFF7CBFE061E00D173E77F226368DC
:1037B0002B602B7A93431A00042313432B72C4E724
:1037C0003F270021E3191976237E742B0DD17F2228
:1037D0002B7A93431A00062313432B7201232B7079
:1037E000042FB1D058340223A0E7662B0AD17F22E0
:1037F0002B7A297093431A00062313432B72052F4B
:10380000F0D1A1E76E2BEBD0200029001830FEF795
:103810002BFD0028BFD097E7F7B5DFB204000E00FC
:10382000002F04D105235834237000250DE0002318
:103830004374FFF7A6FD01900028F6D07D212000FB
:10384000FFF713FE051E28D0019D2800FEBD63680A
:10385000306819000093FEF7D5FC002831D0010034
:103860007B1E00222000FFF70CFF0028DDD0200087
:10387000FFF787FD0028D8D07D212000FFF7F5FD58
:103880000028E1D12C212000FFF7EFFD002814D003
:103890002000FFF776FD0028C7D02000FFF7C2FE0A
:1038A0000028C2D02000FFF76CFD0028BDD03A21CF
:1038B0002000FFF7DAFD0028C9D103235834237014
:1038C000C3E761693000FEF7B3FC002802D1583429
:1038D0000423F4E77F22037A13400372009BC36042
:1038E000BDE710B50400006803685B68984763682B
:1038F0001818606010BD70B5050008000C001CF0C1
:103900007FF9210002002800FFF7EBFF70BDF0B542
:10391000162407000D000A2687B06C4428003100E9
:1039200018F0EAF8013C303121702800310018F01D
:103930005DF8051EF2D116236B441A1B21003800D6
:10394000FFF7CFFF07B0F0BD10B5040000680368B3
:103950005B68984763681818606010BD70B5050013
:1039600008000C001CF04CF9210002002800FFF7B1
:10397000EBFF70BDF0B5162407000D000A2687B0D6
:103980006C442800310018F0B7F8013C3031217048
:103990002800310018F02AF8051EF2D116236B44D6
:1039A0001A1B21003800FFF7CFFF07B0F0BD000061
:1039B0000623F7B50E1C070083725849301C18F017
:1039C00005FA002844D00023142420250093544BEA
:1039D000311C185918F0E6F9002809D0514B301C59
:1039E000195918F0C1FD009B061CE81803B200939A
:1039F000043C6D10231DEAD103340021301C18F063
:103A0000DBF9002828D0301C1AF0A2FE464A474BAA
:103A100018F08EF900281FD0A300019323061BD4B1
:103A2000434B019A311C985818F0C6F900280AD067
:103A30003B4B019A301C995818F096FD009B061CD0
:103A4000581B03B20093019B6D10013C043BE4E75B
:103A5000202505240090D0E76B461B88301C3B8155
:103A600018F02CFA0400334D38600190019B092BAB
:103A70000DD90A21280017F0B9FFBB7A0500013BD8
:103A80000198BB720A2117F0B1FF0190EEE7200008
:103A900019F080F8011C301C18F098FE061C280054
:103AA00019F078F8011C301C18F05EFD019018F038
:103AB00005FA060019F06EF8011C019818F086FE50
:103AC000011C18F0F1FA18F0F9F98619AE4214D277
:103AD0007E600A257E682900300018F00DF8002964
:103AE0001AD10A243C57002C16DD2900300017F0AB
:103AF0007DFF013C7860BC72ECE700237B60009B9B
:103B000001343C60002BE4D0092CE2D918000123D9
:103B1000013038813B60DCE73800FEBD8096184BF1
:103B20003C30020024300200F168E388B5F8E43E3E
:103B30000C30020040420F0010B50400006803681A
:103B40001B68984763681818606010BD70B50D0059
:103B5000040022212000FFF7EFFF2978002909D077
:103B60000A4B01351E78002EF4D05A788A4206D0CE
:103B70000233F7E722212000FFF7DEFF70BD5C2152
:103B80002000FFF7D9FF3100E4E7C046E837020024
:103B9000F0B504008DB0081C0E1C18F0F3F80028D6
:103BA00005D141492000FFF7A6FE0DB0F0BD002170
:103BB000301C18F0E7F8002809D1311C301C18F02F
:103BC00073FA011C301C18F0DDF80028E9D100213F
:103BD000301C18F0DDF8002806D02D212000FFF75A
:103BE000ABFF80231B06F61803AD311C2800FFF73E
:103BF000DFFE03992000FFF78AFE0A23EB560093AD
:103C0000002B23D06F6801930AAE019B013E013B5C
:103C10005BB2019301330BD038000A2117F06CFF1F
:103C20003031317038000A2117F0E0FE0700ECE770
:103C30006B461B782026D9432E228B1902A8C2542A
:103C40000AAB4A4220005918FFF74BFE0822AB5E30
:103C5000002BAAD065212000FFF76EFF0823EE5E3F
:103C6000B5B2002E05DA2D212000FFF765FF754261
:103C7000ADB226260A2702ABF6182800390017F045
:103C80003BFF013E303131702800390017F0AEFEA5
:103C900085B2002DF1D1262302AA9B189A1B310070
:103CA0002000FFF71EFE80E7E13702007F2270B59B
:103CB000037A05000C001340062B00D169E008D8F8
:103CC000022B0DD3032B50D806CD2000FFF709FEA1
:103CD00025E00C2B1FD005D8082B58D00A2B49D033
:103CE00030495BE0202B21D0402BF9D15B21200013
:103CF000FFF722FF2D68002D13D021002800FFF7C9
:103D0000D5FF2800FEF776FA051E0AD02C212000E8
:103D1000FFF712FFEFE701682000FFF739FF606847
:103D200070BD5D212000FFF707FFF8E77B21200031
:103D3000FFF702FF2D68002D15D0E9682000FFF77E
:103D400005FF3A212000FFF7F7FE21002800FFF7CA
:103D5000ADFF2800FEF74EFA051E04D02C212000EE
:103D6000FFF7EAFEE7E77D21DCE701682000FFF7C7
:103D7000EDFED4E70568002D04DA2D212000FFF7C1
:103D8000DBFE6D4229002000FFF7C1FDC7E7016897
:103D9000F9E703780449002B00D104492000FFF71C
:103DA000AAFDBCE7E1370200F7370200FC3702004A
:103DB00010B50C00002802D0FFF778FF10BD2000DE
:103DC0000249FFF798FD6068F8E7C046E137020056
:103DD00010B50400006803681B68984763681818EA
:103DE000606010BDF0B504008DB0081C0E1C17F00B
:103DF000C9FF002805D141492000FFF7AFFD0DB0F4
:103E0000F0BD0021301C17F0BDFF002809D1311C86
:103E1000301C18F049F9011C301C17F0B3FF0028C2
:103E2000E9D10021301C17F0B3FF002806D02D2166
:103E30002000FFF7CDFF80231B06F61803AD311CD1
:103E40002800FFF7B5FD03992000FFF793FD0A2333
:103E5000EB560093002B23D06F6801930AAE019BB1
:103E6000013E013B5BB2019301330BD038000A21C4
:103E700017F042FE3031317038000A2117F0B6FDDC
:103E80000700ECE76B461B782026D9432E228B19BE
:103E900002A8C2540AAB4A4220005918FFF754FD49
:103EA0000822AB5E002BAAD065212000FFF790FF0F
:103EB0000823EE5EB5B2002E05DA2D212000FFF7B3
:103EC00087FF7542ADB226260A2702ABF6182800F6
:103ED000390017F011FE013E3031317028003900F1
:103EE00017F084FD85B2002DF1D1262302AA9B187C
:103EF0009A1B31002000FFF727FD80E7E137020021
:103F000070B50D00040022212000FFF761FF297821
:103F1000002909D00A4B01351E78002EF4D05A78BA
:103F20008A4206D00233F7E722212000FFF750FF34
:103F300070BD5C212000FFF74BFF3100E4E7C04675
:103F4000E83702007F2270B5037A05000C001340A9
:103F5000062B00D169E008D8022B0DD3032B50D8D3
:103F600006CD2000FFF7F0FC25E00C2B1FD005D874
:103F7000082B58D00A2B49D030495BE0202B21D0A8
:103F8000402BF9D15B212000FFF722FF2D68002D87
:103F900013D021002800FFF7D5FF2800FEF72AF9EB
:103FA000051E0AD02C212000FFF712FFEFE7016861
:103FB0002000FFF717FF606870BD5D212000FFF74C
:103FC00007FFF8E77B212000FFF702FF2D68002D97
:103FD00015D0E9682000FFF793FF3A212000FFF792
:103FE000F7FE21002800FFF7ADFF2800FEF702F9D9
:103FF000051E04D02C212000FFF7EAFEE7E77D2113
:10400000DCE701682000FFF77BFFD4E70568002D9F
:1040100004DA2D212000FFF7DBFE6D42290020008D
:10402000FFF7A8FCC7E70168F9E703780449002B0C
:1040300000D104492000FFF791FCBCE7E137020002
:10404000F7370200FC370200F0B5584FD5B0584999
:10405000380017F0E1F8FA20400101F065F9FEF7A9
:1040600055F8544905A817F09DF9534B0BA819684A
:104070001BF0BEFD2CAC34AB2C93636054ABA3603F
:10408000E36000237F252374237F2200AB43237743
:104090004A4931A8FFF736F9002806D00423027AEE
:1040A000AA4313430372464B0360FEF72FF8220026
:1040B0000500444931A8FFF725F9002807D07F22E1
:1040C000037A056093431A00082313430372220006
:1040D0003D4931A8FFF716F92200010008903B483E
:1040E0000994FFF7CEF82200394931A8FFF70AF901
:1040F000061E16D00BA92000FFF7AAF8051E4BD10B
:104100000BA81BF07DFD030065680133A268EB1866
:104110000390934235D9012323747F22337A93434A
:104120003372002408A931A808970994FFF740FECC
:10413000380017F05FF8274905A817F0DDF9234983
:1041400005A817F005FA244905A817F013FA234D1E
:104150002300220005A90094280012F06CFA08A997
:1041600031A808950994FFF7EDFE280012F059FEDA
:104170001049114817F0C0F905A817F0C4F855B058
:10418000F0BD6360002DC8D0039A0BA928001AF077
:10419000BAFC0023039AAB547F22337A35609343F1
:1041A0001A00052313433372BBE7C0463053002087
:1041B000FD36020034730200EC02002019370200C1
:1041C000133702001E37020028370200E0020020E9
:1041D0002F370200163502001F3502007803002039
:1041E000F8B5434E434F3100380017F0DBF8424C2E
:1041F000424D22002900380017F0DCFB404F31000F
:10420000380017F0CFF822002900380017F0D2FB51
:104210003C4F3100380017F0C5F822002900380063
:1042200017F0C8FB384F3100380017F0BBF82200F8
:104230002900380017F0BEFB344F3100380017F06A
:10424000B1F829002200380017F0B4FB304F3800D5
:1042500001F0B6F822002F49380017F0ABFB2E4FC3
:104260000021380001F09AFB22002C49380017F099
:10427000A1FB2B4F0121380002F012F8220029493E
:10428000380017F097FB3900274803F0C7FE2200DB
:104290002649254817F08EFB254F2349380012F098
:1042A00033F822002349380017F084FB224802F03B
:1042B0004BF80021214802F0A7F8214F31003800C7
:1042C00017F070F822002900380017F073FB1D4F1B
:1042D0003100380017F066F829002200380017F086
:1042E00069FB194812F003FE184812F000FEF8BDF1
:1042F00034730200B40400200000002007B3010062
:10430000FC020020E002002008030020EC02002054
:10431000540300209553000044040020FD200000B9
:104320006C040020AD5D0000B80600205D7F000039
:1043300078030020F961010074030020AC04002020
:10434000D841002048030020280300203803002023
:10435000E121F0B58A4C85B04902200015F0A6FA9B
:104360008849200016F058FF0421874813F018F9F7
:10437000864D061E55D18649200016F04DFF2E7041
:10438000844B854D1B7805202B70FEF79BFB834EDD
:1043900048213200824812F0B1FD320049218148A3
:1043A00012F0ACFD2B789B0642D57F4D20002900F2
:1043B00016F032FF290001A816F0F4FF01A8FEF75D
:1043C00097FB01A816F09FFF7849200016F024FF04
:1043D00000F086FFE1217648490216F0D1FB754EC8
:1043E000300000F093FE7449300000F00FFF300001
:1043F00000F08CFEFEF722F8704F380002F05EFBF2
:10440000002827D16E49200016F006FF664901A852
:1044100016F0C8FF01A8FEF76BFB01A816F073FFAA
:10442000FEE70123674920002B7016F0F5FEA7E791
:10443000654D2000290016F0EFFE290001A816F0B6
:10444000B1FF01A8FEF754FB01A816F05CFFFEF7D0
:10445000CDFDB9E75D4D08220021280003F0B6F834
:10446000390001A802F038FC0199280003F0CCF8CB
:1044700001A816F048FF280003F074FA5449554883
:1044800003F0B7FC280003F0B9F80700280003F098
:10449000B8F83A00030000214F4803F0C9FD4F4B24
:1044A000F35C4F4E012B0BD14E49200016F0B4FEA9
:1044B0004D494E4817F020F84D49300017F01CF8D0
:1044C0004C4D3100280017F043F84B49280017F0F5
:1044D00051F8464F2800390017F03AF847492800AC
:1044E00017F048F84649200016F07AFE290020000F
:1044F00016F088FE434E3900300011F00DFF42499E
:1045000001A816F04FFF01AA2900300011F009FFA1
:1045100001A816F0F8FE30003C4911F0FBFE012125
:10452000062014F08FFDE1212148490216F028FBF6
:10453000E1212000490215F0B9F900F0D1FE34491B
:10454000200016F069FE0A2000F074FE31492000B8
:1045500016F062FE00F0D8FE80211148C90012F06A
:10456000DFFC80210F48C90012F0DAFC00222A4B40
:104570002A481A8001F0EAFEFEF79EFC05B0F0BD65
:10458000305300203F390200F04B0020C0040020CF
:104590005739020038040040240300205848002006
:1045A000280300203803002085390200AE390200BC
:1045B000704E0020044200202D21000008470020FA
:1045C000BE3902007339020099390200AC4700205D
:1045D0000D210000944A0020B80600204B04000082
:1045E00008030020D1390200CC450020E002002061
:1045F00049440020D84100201D350200F439020052
:104600000C3A020078030020347302007149000064
:10461000183A0200263A0200AE040020740300207B
:1046200030B5A5B03149684616F0BCFE3049684641
:1046300016F062FF2F49684616F08AFF2E49684639
:1046400016F098FF2D4B03A819681BF0D1FA2C4CDB
:104650002C49200016F0C4FD03A9200016F0C0FD6F
:104660002949200016F0D8FD284D294A03A9280021
:1046700012F0A8FB00281CD12649200016F0B0FD3E
:10468000280011F05AFE0A220100200016F015FE43
:10469000214800F049FE214801F064FB032802D0C4
:1046A000FEF70AFCE0E71E4800F01CFF0428F7D1E3
:1046B000DAE7200016F09EFD1A49200016F0ACFD46
:1046C000200016F097FD1849200016F089FD694674
:1046D000200016F097FD00226946280012F052FAD9
:1046E000684616F010FE25B030BDC0463473020097
:1046F00016350200E0020020B93102000803002054
:1047000030530020D1310200EC4102007803002038
:10471000B3220000A13202008813000044040020EC
:1047200054030020ED3102001132020070B57A4BC3
:104730008CB01B78794C7A49002B00D17949200044
:1047400016F06AFD784D2000290016F065FD29005D
:1047500009A816F027FE09A8FEF7CAF909A816F05D
:10476000D2FD00F0D1FD714801F0FCFA032800D120
:10477000BBE06F4D2000290016F04EFD290009A86E
:1047800016F010FE09A8FEF7B3F909A816F0BBFD54
:10479000FEF792FB674811F032FE002810D1664DFB
:1047A0002000290016F038FD290009A816F0FAFDAE
:1047B00009A8FEF79DF909A816F0A5FDFFF730FF3F
:1047C0000220FEF77FF95D49200016F025FD5C49C7
:1047D000200016F021FDFEF75BFA5A49200016F082
:1047E0001BFD534909A816F0DDFD09A8FEF780F965
:1047F00009A816F088FD544909A816F0D3FD534EB8
:1048000003A8310001F00CFE03A817F035F80A22C6
:10481000010006A816F008FE06A909A816F0D6FEA3
:104820004B4916F0E0FE0100684616F053FE06A85C
:1048300016F069FD03A816F066FD09A816F063FDE1
:104840006946200016F0DEFC694609A816F042FE13
:1048500009A8FEF74DF909A816F055FD310006A884
:1048600001F0DEFD06A817F007F8002563280ED03A
:10487000310009A801F0D4FD09A816F0FDFF0123BD
:104880000F2800DC2B1C09A8DDB216F03CFD06A8A1
:1048900016F039FD002D2FD02E4D2000290016F0E6
:1048A000BBFC290009A816F07DFD09A8FEF720F938
:1048B00009A816F028FD1F4811F05EFFC82000F07F
:1048C00033FDFDF73DFF2449200016F0A5FC234AE7
:1048D000234BD05A00F028FD224A68461388013342
:1048E000138016F010FD0CB070BD1F4800F0FAFDEB
:1048F000042800D03DE74DE71C4D2000290016F0AC
:104900008BFC290009A816F04DFD09A8FEF7F0F868
:1049100009A816F0F8FCD6E7C004002030530020A8
:104920000238020015380200243802004404002036
:1049300032380200780300204E3802006738020047
:1049400097380200A5380200BE380200AC040020EF
:10495000D0380200D4380200263902000442002078
:1049600012020000AE0400205403002003390200AC
:10497000F0B5A84CA84DA54400AF082629000400B6
:10498000A64816F02DFC29006025BB19581916F011
:1049900009FDBB195819FEF7ABF8BB19581916F0E9
:1049A000B2FC6A46A319DB08DB00D31A9D466D46AC
:1049B0006E46731B9C4205DD994811F00AFC30706D
:1049C0000136F6E7E3430026DB171C402E5529008D
:1049D000924816F005FC914816F00CFC0821602363
:1049E0007A18D4182900200016F0DCFC2000FEF70D
:1049F0007FF8200016F087FC082180237A18D2184F
:104A0000BA667A18D3186360A0239B00D218A260FC
:104A10007A18D3187F22E360237FFD6093432377C6
:104A200033007A185C33BD61D31874250C203E61C5
:104A30003E757E7726743C621E700E0079180A233C
:104A4000491900223818FEF71CFEBB197549581980
:104A5000FEF780FC002800D1DAE07F22037A1340C1
:104A6000043B012B00D9D3E00568002D00D1CFE035
:104A70006D496A4816F0B4FB2900684816F0CCFB73
:104A80006A4928001BF0AAF8061E00D0A3E0684976
:104A9000624816F0C1FB614B08250C22FB607423B1
:104AA0007819B918C0183E61FFF782F95B4816F013
:104AB000A1FB0C225F4B013E7919B818FC603B61E9
:104AC000BE60FEF7B3FC0C225B4B7919B818FC6092
:104AD0003B61BE60FEF7AAFC0C22584B7919386086
:104AE000B818FC603B61BE60FEF7A0FC544B0500AB
:104AF0003B610823F9180433F818FC60BE60FEF728
:104B000095FC2A004F4B643A78604F4C9A420ED87D
:104B10004E49424816F064FB0A2229003F4816F02D
:104B2000C8FB4B493D4816F077FB4A4BE5523B68C2
:104B3000013B0E2B11D8394E4749300016F050FB7F
:104B40000A222900300016F0B4FB4449300016F068
:104B500063FB85233A889B00E2527B68404A013B15
:104B6000002593420ED82D4D3E49280016F038FB03
:104B70000A222800796816F0A0FB86230125BA884E
:104B80009B00E2520121200000F0DEFAFDF76EFCEE
:104B9000002D11D00C243449204816F03DFB334938
:104BA000381916F0FFFB3819FDF7A2FF381916F077
:104BB000AAFB2F4B1B6898470121234800F0C4FA39
:104BC0002C4B9B68002B01D0FFF73EFABD46A32378
:104BD0009B009D44F0BD284928001AF0FFFF0028E3
:104BE00011D10C2425490D4816F016FB244938191B
:104BF00016F0D8FB3819FDF77BFF381916F083FB48
:104C0000FDF734FCD8E71F491A4816F075FCD3E7C6
:104C10001D49F9E774FDFFFF5D35020030530020A8
:104C2000780300207B35020080350200733A0200D1
:104C300090350200AD350200B1350200B8350200F2
:104C4000C13502005CD4010004420020C9350200D5
:104C5000EB35020012020000EF35020003360200BD
:104C60000E0E000012360200273602003C3602000B
:104C7000B0040020EC020020583602005D3602002D
:104C8000893602009F360200E136020010B501218C
:104C9000014800F059FA10BD04420020F0B5B9B047
:104CA000040013F095FFFA2301259B00C31800931D
:104CB00000232F00029313F08BFF009BC01A00D437
:104CC000AEE0029BF92B00D9AAE0002D12D0594981
:104CD000200016F0A1FA2100574800F03FF920000B
:104CE00000F068FA5549200016F07AFA029B013369
:104CF000DBB20293236820001B69984700282AD161
:104D0000236820001B699847051ED4D000231E008D
:104D10000393019313F05CFF009BC01A75D5019BB0
:104D2000002B23D1236820005B699847051EF1DD25
:104D300013F04EFFFA239B00C31800930D2D3CD1B6
:104D4000236829001B682000984713F041FF323088
:104D500003900197DEE7236820009B6998470028AD
:104D6000CED1236820005B699847C3E72368200001
:104D70009B699847431C58D113F02AFF039BC01A24
:104D8000D0D4002505AB9B191D70AE4293DB12D029
:104D90002B4905A81AF0E8FEA84241D005AA39001F
:104DA000254800F070F8A84233D013F011FFFA2321
:104DB0009B00C31800933D007DE70A2D05D12368B1
:104DC00029001B6820009847DBE700230193082D8A
:104DD00001D07F2D09D19E429CD0236803225B68BD
:104DE000184920009847013E94E7C72E92D82B001F
:104DF000203B5E2B8ED82368EDB21B682900200073
:104E0000984705AB9D55013684E7002505AB1D701D
:104E100051E705A90C4800F0E7F90028C5D1CAE719
:104E2000200016F0E7F939B0F0BD0A2800D179E783
:104E3000A7E7C046303A0200543A02003C3A02006A
:104E4000503A02004C3A020004420020F7B5060036
:104E50000F0000240192BC4212D018236343F318C0
:104E60005D6828001AF0CCFE2900020001981AF0B3
:104E7000CEFE631C002801D12000FEBD1C00EAE725
:104E800001204042F9E770B506001500FFF7DEFF8C
:104E9000002398420DDB182444433419A6680133DB
:104EA000002E06D060681AF0ABFE29182000B0472B
:104EB0000123180070BD70B504690500002C08D0EE
:104EC000426920001AF0D8FE6B69E4180023013C07
:104ED000237070BD10B504690B00002C05D00022B2
:104EE000180011001BF076FC207010BD10B504698D
:104EF0000B00002C05D00022180011001BF06AFCEA
:104F0000208010BD70B50C0005000A49200016F085
:104F100067F92968200016F063F90749200016F0A8
:104F20005FF96968200016F05BF90449200016F06B
:104F300057F970BDEB4102007F3A0200823A02004D
:104F400070B50C000500080016F054F9296820001F
:104F500016F046F9200016F04DF970BD70B50569E0
:104F60000C00FFF7CFFF002D04D02900200016F021
:104F700053F970BD200016F03DF9FAE770B50569E8
:104F80000C00002D06D0FFF7BDFF29780A22200073
:104F900016F0ADF970BD70B505690C00002D06D096
:104FA000FFF7B0FF29880A22200016F086F970BDAD
:104FB00030B5094D094CAB685B035B0F9B001C5976
:104FC0000460AB6801619BB243606343A4008360EB
:104FD000C460426130BDC04600400041883A0200D2
:104FE000F7B580261A4D01916F6803333E439B0845
:104FF0006E60002B2BD0174E2E802E7DF107FCD536
:105000001E000768991BBF088F4219D9002E17D0C0
:10501000FF2117788C433C430F4957780C403F02DF
:105020003C439778013E39040C4F2740D478BFB2F7
:105030000F43240601993C4310C101910432E0E77B
:10504000074B2B802B7DDB07FCD53300D1E7F7BD69
:105050000040004144A5FFFFFF00FFFFFFFF00FFEE
:1050600004A5FFFF044B054A4908D9611A801A7D3F
:10507000D207FCD57047C0460040004102A5FFFFA3
:1050800070B504000D001600E36829002000B3424B
:1050900005D2FFF7E7FFE368ED18F61AF4E7FFF72C
:1050A000E1FF70BD10B510001A0019F02CFD10BD05
:1050B0000D4BF0B5C418082500230C4EA04210D0AB
:1050C0000278120253402A001FB259008BB2002FFF
:1050D00001DA71408BB2013AD2B2002AF4D1013028
:1050E000ECE71800F0BDC0464C04000021100000A1
:1050F000044B10B51B68002B00D098470122024BCF
:105100001A7010BDE8410020E441002010B50400F1
:105110000A48220043690169FFF7C4FF2000FFF736
:10512000C7FF2288064B9A4203D1064BE35A8342BB
:1051300002D02000FFF7DCFF10BDC046EC4100208C
:10514000EFBE00004C04000030B5134C134DA544D5
:105150000400002902D12B78002B19D0104B20001D
:105160002380FFF7A5FF0F4B2100E0520E4A68464F
:1051700019F0C9FC0D4C626921692000FFF780FF1E
:1051800063696A4621692000FFF72AFF00232B701C
:10519000074B9D4430BDC046ACFBFFFFE4410020FF
:1051A000EFBEFFFF4C0400004E040000EC41002065
:1051B0005404000070B50500902616F01BF808494D
:1051C000280016F029F80024760006482018C36845
:1051D000002B01D0290098471834B442F5D170BD96
:1051E000204102000040020010B50A0004480C21D2
:1051F000FFF749FE002802D00122024B1A7010BDB1
:1052000000400200E441002001207047014B19607A
:105210007047C046E841002010B5034A03490448DE
:10522000FFF7C6FE10BDC0464E040000003B020062
:10523000EC4100201023224A91690B439361214BDA
:105240001A7852B2002A3ADB1F4A2049916020495D
:105250005160517849B20029FBDB1E4951805178D9
:1052600049B20029FBDB02211A788A431A70DA79E5
:1052700052B2002AFBDB04211A788A431A70DA79C9
:1052800052B2002AFBDB0F21421C0A405A70022254
:105290000840987019780A431A70DA7952B2002AD5
:1052A000FBDB0122C0205A710B4B03321A608000D5
:1052B0001A580A491140C02212040A431A50704772
:1052C0000004004000100040000C004004040000F6
:1052D000040311000344000000E100E0FFFF00FFB1
:1052E0000221074B1A788A431A70DA7952B2002ADF
:1052F000FBDB1021034A93698B4393617047C046DF
:105300000010004000040040064B1900DA7952B248
:10531000002AFBDBA5221A72CB795BB2002BFBDBE8
:105320007047C0460010004070B5040013F050FCF8
:105330000A25041913F04CFCA0420AD2FFF7E4FF3F
:1053400013F046FC201A0A2800D9280013F076FC36
:10535000F0E770BD0123024A1370024A937170474F
:105360005246002000100040044B054A1A60054BCD
:10537000054A1A60054B064A1A60704754460020D9
:10538000A86100005C460020C0C62D0058460020E1
:1053900020A1070010B50400034B083303600C3054
:1053A00015F0B1FF200010BDE442020010B504006A
:1053B000FFF7F0FF200016F08DFA200010BD00006E
:1053C000074B10B50833036001230400037205493D
:1053D0000C3015F0E7FF00232000E36110BDC0464C
:1053E000E44202003473020030B5264C85B005005B
:1053F000200000F0CDF9002837D0200000F0E0F8C0
:1054000000226B681000013B052B2ED8180016F007
:10541000D9FA03090D182E341B49200000F098F822
:10542000022300E003236B6000201EE0290020001F
:105430000C3100F077FA1549200000F089F80423B8
:10544000F1E7134901A815F0ADFF280001A90C30C0
:1054500016F0F9F8040001A815F055FF002CDFD074
:10546000002301206B6004332B7205B030BD094965
:10547000200000F06DF80623D5E701236A602B7247
:10548000D2E7C04660460020C1420200CC42020082
:105490007C430200D6420200F8B501234360DB18CA
:1054A00004000372002919D013F092FBFA260700BA
:1054B00076002000FFF798FF051E09D1E369002B55
:1054C00008D013F085FBE369C01B984202D36560E6
:1054D000207AF8BD300013F0B1FBEAE7FFF784FF54
:1054E000F6E7000010B50400024800F069F8207AE1
:1054F00010BDC0466046002010B504001C3015F0F9
:1055000002FF200010BD000070B58360049B060000
:105510000025C360012304001C3642600561057547
:10552000836101603000054915F03CFFA562300041
:10553000402115F009FF200070BDC0463473020001
:10554000014B024A1A6070478C46002030530020FD
:1055500070B504000D0013F03BFB2369C01A13283B
:1055600003D81423181A13F069FB2900206815F0DA
:1055700053FE20680368DB68984700232375A36106
:1055800070BD00000EB410B50A4C0B49A5440400D0
:10559000FFAB183304CB02A801931BF0BBFB02A99D
:1055A0002000FFF7D5FF054B9D4410BC08BC03B09D
:1055B0001847C046F4FBFFFFFF0300000C04000087
:1055C000F0B5040087B0206803681B69984700287D
:1055D00000D192E0206803685B699847634BC6B2CC
:1055E0001868002803D0036831001B68984725001D
:1055F0001C353100280015F0C6FF277D012F48D04B
:105600005B49684615F0CEFE6946280016F00FF893
:105610000026B0420DD0574903A815F0C3FE03A9D8
:10562000280016F010F8461EB041C6B203A815F0C7
:105630006AFE684615F067FE002E06D0012323752A
:105640004D49280015F058FFBDE74A4903A815F059
:10565000A9FE03A9280015F0F6FF070003A815F01E
:1056600052FE002FAFD0280016F0DDF8636A002B41
:10567000E6D013F0ADFA2061404BB200D0580028BC
:1056800003D0036829001B6898470136082EF3D120
:10569000D6E70A2E97D113F09BFA3949206103A867
:1056A00015F080FE03A9280016F06BF8060003A889
:1056B00015F029FE731C22D0A761A369002B82D0AC
:1056C000A26A002A13D0012B4ADD03A8636A3200C4
:1056D000290016F05DF803A815F015FE280016F055
:1056E000A2F82900A06A15F0E5FE0023A3620023BA
:1056F00021492375280015F0FFFE07B0F0BD2149B0
:1057000003A815F04FFE03A9280016F03AF806008A
:1057100003A815F0F8FD731C02D00223A361CCE7A7
:10572000194903A815F03EFE03A9280016F029F830
:10573000060003A815F0E7FD731C01D00323EDE775
:10574000124903A815F02EFE03A9280016F019F837
:10575000060003A815F0D7FD731CAED00423DDE7C7
:105760003100280016F04CF8B8E7C0468C460020FF
:10577000F4420200F9420200347302009046002015
:10578000F7420200FC4202000443020011430200FF
:1057900010B50400FFF714FFA06910BD70B5826258
:1057A00004000E0013F014FA050013F011FA401B68
:1057B000B04208D22000FFF703FFA0690028F4D010
:1057C0000023A36270BD00232000A3621C300349A4
:1057D00015F092FE01204042F4E7C0463473020007
:1057E00010B504000549FFF7B3FE0022C8212000D0
:1057F000FFF7D4FF01384342584110BDF442020084
:1058000070B505000E0013F0E3F9040013F0E0F9A1
:10581000001BB04208D22800FFF7E2FF012804D0A5
:10582000642013F00BFAF1E7002070BD10B50749B2
:105830000400FFF78DFEFA21002289002000FFF707
:10584000ADFF01384342584110BDC046FE30020052
:1058500070B50400E1230D00616800685B029942A5
:1058600000D919000368DB699847E3680121D8B2C1
:1058700013F0E8FBE3680121D8B213F02FFCA06815
:1058800000283CDB002D3AD0C0B2012113F0DAFB36
:10589000A3680121D8B213F021FC642013F0CEF9E3
:1058A000A3680021D8B213F019FC1C492000FFF7AF
:1058B000A7FF002829D0E12362685B0201209A42F9
:1058C00024D917492000FFF75DFE0022C8212000DF
:1058D000FFF764FF012818D1206803685B6A9847C6
:1058E000642013F0ABF9206861680368DB699847AE
:1058F0000A492000FFF784FF431E984106E007494C
:105900002000FFF77DFF002801D1002070BD20009E
:10591000FFF78CFF0028C8D1F7E7C046102700002A
:105920001B43020081627047002310B5054A9800AE
:105930008458002C01D1815010BD0133082BF6D1C1
:10594000FAE7C04690460020002310B5054A9800AB
:1059500084588C4202D10023835010BD0133082BA0
:10596000F5D1FAE7904600202323E12213B5074C36
:1059700000935202043B06492000FFF7C5FD054A8B
:105980000549200016F016F813BDC04660460020F9
:10599000B450002000000020F954000070B500252C
:1059A00004000E000849057045608560C160016112
:1059B0004161183015F0F6FC6562AE4202D0034832
:1059C000FFF7BEFD200070BD34730200604600206A
:1059D000F0B5037885B005000224002B21D07F4E5E
:1059E0003000FFF7D5FE041E1BD03000FFF7E8FDA6
:1059F0006F68172F15D8380015F0E4FF0C161D2519
:105A0000293459686C72757B7F85898F939A9EB211
:105A1000B7BDC2CD72493000FFF79AFD01233C00AB
:105A20006B60200005B0F0BD0223012C08DD0023CF
:105A300002242B70F5E76B493000FFF789FD032343
:105A40006B600024EDE7012CF1DC0423F8E729006A
:105A500030001831FFF766FF63493000FFF778FD2B
:105A60000523EDE7012CF0DC2E006049183601A873
:105A700015F098FC01A9300015F0E5FD040001A81F
:105A800015F041FC002C01D00A23D9E7584901A8A0
:105A900015F088FC300001A915F0D5FD060001A81D
:105AA00015F031FC002EC2D006236B60B9E7AB685D
:105AB000002BBCD0290030001831FFF733FFAA6853
:105AC0004C493000FFF75EFD0723B9E70823012C9E
:105AD000B6DDACE748493000FFF73AFD0923AFE7F0
:105AE000012CD1DDA3E745493000FFF731FD0B2341
:105AF000A6E70C23012CA3DD99E741493000FFF70D
:105B000027FD0D239CE70E23012C99DD8FE73D49EE
:105B10003000FFF71DFD0F2392E71023012C8FDDCE
:105B200085E7EA6838493000FFF72CFD112387E745
:105B30001223012C84DD7AE72B6969691A78002A1F
:105B400002D10A78002A06D00A0030002F49FFF758
:105B500019FD132374E72E493000FFF713FDF8E712
:105B60001423012C00DC6BE761E72A493000FFF7C2
:105B7000EFFC152364E7012C00DD58E716235FE7EF
:105B8000290030001831FFF7CDFE23493000FFF720
:105B9000DFFC172354E7012C00DD48E728002B6ABF
:105BA0001830591E15F07CFDFB230340302BE5D047
