:020000040000FA
:10000000FC7F0020790B0000690B00006D0B0000E5
:1000100000000000000000000000000000000000E0
:10002000000000000000000000000000710B000054
:100030000000000000000000750B0000CD0C000067
:1000400010B5064C2378002B07D1054B002B02D0AE
:10005000044800E000BF0123237010BD5C000020B5
:1000600000000000CC1E000008B5084B002B03D098
:100070000748084900E000BF07480368002B03D089
:10008000064B002B00D0984708BDC046000000007A
:10009000CC1E00006000002058000020000000007E
:1000A000064B0322104002040549586808401043DB
:1000B0005860DA695107FCD47047C0460008004216
:1000C000FFFFFCFF38B5284A284B5A805A7852B2B5
:1000D000002AFBDB264B04211A6A264D0A431A62CA
:1000E0002B68012213432B602A680123214C1A42FA
:1000F000FAD1E2691A42F7D11423236041001E4865
:1001000001F008FD421EE068FF231A4098431043A7
:10011000E0602368022213432360EA69154B9107CC
:10012000FBD45A8B30218A4310210A435A83EB694E
:1001300001205A07FBD4114B02241A7802431A708B
:100140000F4B0F22197891431970197821431970B8
:100150000C490C782043087019780A401A701A78F4
:1001600020210A431A7038BD14400000000C0040E2
:100170000004004000080042006CDC0248440041DA
:100180003444004149440041F7B500230F1C01925B
:100190001D1C994254D001212A4E4000084333705F
:1001A000C1B2294B0322588B1C1C000910400128A6
:1001B00004D05B8B1B091A40022AF2D1606AC00A84
:1001C000C00208436062217E1F4B0122880708D4C9
:1001D000197E1142F7D05968C02292020A435A6030
:1001E00003E05B8B9B08134201D0002528E03270AE
:1001F000237E9907FCD5154A154B117801251970F6
:100200006268BD4212D0134B022013406360FFF7B7
:1002100047FF33785A1C3270227E9007FCD50B4979
:100220000B480A780135C254EDB2E9E78023DB02BE
:10023000134363600199002902D00320FFF730FFC8
:10024000281CFEBD7800002000080042280800425B
:1002500099000020FFFFFBFF024B00221870024BA9
:100260001A7070477A00002079000020F8B5274BFB
:100270001C786400E4B2264B03215D8B1A1C2D0907
:100280000D40012D04D05B8B1B0919400229F2D1CE
:10029000536ADB0ADB0223435362117E01231942B6
:1002A000FBD01B49498B8908194204D00320FFF772
:1002B000F7FE022427E017490D782B1C002B11D0E4
:1002C000154EEC1A365D154C2670114E177E012422
:1002D000768B274202D12642F7D00BE0B6082642A1
:1002E0000ED007E00B701C1C00280CD00320FFF779
:1002F000D7FE08E003200B700324FFF7D1FE02E0D5
:10030000013BDBB2DAE7201CF8BDC0467A000020D2
:1003100000080042790000207B00002028080042ED
:10032000034A1378591C1170024AD05401207047B7
:10033000790000207B000020154A164B1178002917
:1003400009D11549187809784118C9B21970802067
:1003500012494003C86111780131C9B2117019788E
:10036000F02902D81978092909D80B4908784042A0
:10037000C0B20870187809784118C9B2197012789B
:100380001B789A4203D18022044B5203DA617047F2
:100390007D000020010000200000002000440041FA
:1003A00010B5041C6B20FFF757FF201CFFF7B8FFA8
:1003B0000120FFF75BFF01210A1C6B20FFF7E4FE21
:1003C000014B187810BDC0469900002038B5051CB7
:1003D0006B200C1CFFF740FF281CFFF7A1FF201C1F
:1003E000FFF79EFF0120FFF741FF022038BD08B54F
:1003F0000520FFF7D5FFCE23011C19400520FFF78C
:10040000E5FF012008BD000010B5041C0020FFF727
:10041000C7FF78232D4A9843C1B2944242D018D8DE
:100420002B4B9C4238D009D82A4B9C4230D02A4BC7
:100430009C422FD0294B9C4245D13FE0284B9C4207
:100440002CD0284B9C422BD0274B9C423BD12023C5
:1004500033E0264A94422BD00AD8254B9C4223D025
:10046000244B9C4222D0244B9C422CD1402324E09C
:10047000224A94421ED004D8214B9C4223D16023AF
:100480001BE0204A944217D01F4A944215D01AE02C
:10049000082312E0102310E018230EE028230CE0BC
:1004A00030230AE0382308E0482306E0502304E024
:1004B000582302E0682300E0702319430020FFF76F
:1004C00085FF012000E0002010BDC046581100004B
:1004D00018100000780F0000C80F0000280F00005F
:1004E000B810000008110000681000009812000009
:1004F000F811000048120000A81100003813000095
:10050000E812000088130000D813000010B5041C86
:100510000020FFF745FF07239843E122C1B2920074
:10052000944220D008D8962C18D0FA235B009C4225
:1005300017D0642C22D11CE0114A944215D005D862
:100540009623DB009C4219D1042311E0FA22D20049
:1005500094420CD00B4A94420AD00FE0012421436C
:1005600007E0022304E0032302E0052300E0062362
:1005700019430020FFF72AFF012000E0002010BDF2
:10058000DC050000B80B000070B504AC267805ACA3
:100590002578441EA041C401002901D040210C430C
:1005A000002A01D020221443002B01D010231C4329
:1005B000002E01D008231C43002D01D004231C432E
:1005C0000220FFF7EDFE0125011C294021430220F6
:1005D000FFF7FCFE281C70BD10B5041C0420FFF7BB
:1005E000DFFE03231840084B9C4204D0074B9C427B
:1005F00008D1B02100E0982101430420FFF7E6FE76
:10060000012000E0002010BD10100000701000005C
:1006100008B50120FFF7C4FECF23011C19400120BB
:10062000FFF7D4FE012008BD07B5FFF7E0FEFFF796
:10063000EFFF0948FFF7E8FEFA20C000FFF766FF6A
:10064000002300930193181C191C1A1CFFF79CFF30
:100650000248FFF7C1FF07BD08110000101000009D
:1006600008B50348FFF72EFDFFF7DEFF08BDC046C3
:10067000A086010010B5C3699C07FCD4036802245E
:10068000A3430360C46901231C42FBD104682343D4
:1006900003600368DC07FCD4C46901231C42FBD15E
:1006A000C469DC401C42F7D1084B1A430260C3699D
:1006B0005A07FCD4C0239B0243608181C3699C0715
:1006C000FCD4036802221343036010BD0400004001
:1006D000037EDA07FCD5018570470000027E012306
:1006E0005107FBD5428B1A4207D1428BDA401A429E
:1006F00003D1428B92081A4202D0034B01221A7096
:10070000008DC0B27047C0467E00002070B50368FF
:10071000041C988B1A1C0821FF32084226D0802026
:1007200099839872112353704021144B9171507129
:100730005E68134DC0202E40800506435E605E69F2
:100740003540284358610F4818600F4818615D68AC
:100750000E4828408025AD02284358605868800B19
:100760008003586000235171237105E0137ADA0683
:1007700002D5201C00F0E4FA207970BD9C01002015
:10078000FFFFFF8F9C0000201C010020FF3F00F0B6
:10079000002303714371044B016083600B780222D4
:1007A00013430B707047C0460D07000038B5364B39
:1007B0002021DA6901200A43DA61344B06241A78D1
:1007C00002431A70324B0F2219789143197019782D
:1007D000214319702F490C782043087019780A407A
:1007E0001A701A7860210A431A702B4B2B4A5A80D0
:1007F0005A7852B2002AFBDB294B01211A780A43AE
:100800001A709A78D107FCD426480268510B1F222F
:100810001140914200D1052111408C011D8D2249CA
:100820002940214319850468A10C0A401F2A00D1E0
:100830001D221C8D1F210A408C4322431A85026809
:100840000721D20D0A408A4200D103220A40188DA6
:100850001103164A02400A431A8519787F220A407A
:100860001A701A78042112480A431A7058621A89B9
:100870000C218A431A811A8901218A431A81002195
:10088000802201F0A0F938BD000400405844004126
:100890003C44004159440041000C00400640000027
:1008A00000500041246080003FF8FFFFFF8FFFFFF2
:1008B0009C010020F7B5141C1F4A5F0101971D1C05
:1008C000D319061C5869271C4000400F0330103311
:1008D000C74006D00F1C8022596812060A435A608E
:1008E00009E02F1C7B1E9F41144BBF01FF18381CD1
:1008F000221C01F05FF901990F4808354218176171
:10090000131C5269A104920B890C92030A435A6189
:1009100059690B4A0A405A616B01F3180222DA71D5
:100920005979802252420A435A716B01F318DB79DC
:100930009A07FAD5201CFEBD9C0100201C01002056
:10094000FF3F00F0F8B51A4E051C3378141C002B3D
:1009500012D1184B184A1A645A6C920B92035A64BB
:10096000586C164A02405A64A2235B00EA5C40209D
:100970000243EA54012333704827FF37EA5D01231D
:10098000134012D00B4B5A6C9204920CA24202D22A
:100990005C6CA404A40C081C221C074901F00AF991
:1009A0000123EB550023337000E01C1C201CF8BD14
:1009B0007F0000209C010020DC000020FF3F00F0B1
:1009C000FF3083792022002900D110221343837144
:1009D00070470000084BFF305A69920B92035A612E
:1009E00002230372827980235B4213438371037A6B
:1009F0009A07FCD57047C0469C01002080235B42CB
:100A00001943C9B28172704770B5A02303225B00FD
:100A1000C254134B134A5C6CC021144089050C432B
:100A200046255C64FF35402444550F4D30261D6437
:100A300090256D0046555D6B1540294392255963FD
:100A40006D0080214155094D1D63B0256D00445551
:100A50005C6F22405A67B2235B00C15470BDC04630
:100A60009C010020FFFFFF8FDC0000205C010020C4
:100A7000024B5B785BB2002BFADB7047000C004046
:100A8000024BDB68DA06FBD57047C0460008004021
:100A9000F8B52A4B1E22596891430222114359602E
:100AA000274B28491E1C9982998A0A439A82F36827
:100AB0000227234C3B42FAD0234D0123AB60FFF7C2
:100AC000D7FF224B6B60FFF7D3FF8223DB016B80E4
:100AD000FFF7CEFFA38C80229343A384FFF7D0FFC0
:100AE0001B4BE362FFF7CCFFA38C1A4A1343A3848A
:100AF000FFF7C6FFA38C1F43A784F3681A06FCD533
:100B00000F4BDB685A06F8D50024FFF7B9FFAC603D
:100B1000FFF7AEFF104B6B60FFF7AAFF0F4B104AB9
:100B2000C0215A600F4A0906106A0002000A0143F8
:100B3000116207229C601A60F8BDC0460040004167
:100B4000000800400C060000000C004001050100F8
:100B5000B805FF7D040A00000007030010E000E074
:100B6000E703000000ED00E00EBEFEE70DBEFEE76D
:100B700005BEFEE702BEFEE70E4A0F4838B58242C8
:100B800004D10E4A0E4B93420ED10AE00D4C944212
:100B9000F7D00023D1188842F3D9E55804330D600B
:100BA000F8E700F011F804E09342FAD2002102C302
:100BB000FAE7FEE7000000205C000020AC03002004
:100BC0005C000020D01E000038B5344D2B68013386
:100BD0001AD0334B2A1D1A60EAB2002A14D1314BC5
:100BE000197801231940304B0AD118682F4A9042D6
:100BF00001D1196008E01A602D4A013A002AFCD19F
:100C00001A602C4B01221A70FFF742FF62B6FFF701
:100C100027FD284B284C1B78002B0AD02B6883F328
:100C200008881E4BFF229343A3601D4B1B681B6863
:100C3000184700F09DFD00F04FF8204B8022520332
:100C40009A601F4B1F4A051C5A60216AC022090284
:100C5000090A12060A43226200229A6007221A60D9
:100C6000AB68281C9847184B002801D001221A7045
:100C70001A78002A05D0002000F08CFA00F004FB5E
:100C8000FCE71B78002BEBD100F0E6FD0028E7D055
:100C9000012000F07FFA00F0F7FAFCE700200000E6
:100CA0001C02002038040040FC7F002035817307BF
:100CB00048E801008000002000ED00E00044004111
:100CC00010E000E0E70300008100002008B5FFF716
:100CD00033FB00F0C3FA08BD10B5054B054C23608B
:100CE000FFF764FD201C2168FFF752FD201C10BD9A
:100CF000005000412002002070B5051CC0B0081C47
:100D0000161C0C1C00F067FF40006A4603230230EB
:100D10005370107076080123E218013A11785A00D6
:100D2000002906D1281C69460023FFF7C3FD40B007
:100D300070BDB342F6DA684681520133ECE7000039
:100D4000F7B5BA4A04681378B949271CFF37051C60
:100D5000102038720B705378B648B74E03709378F2
:100D60003380D178338809020B4333801179B34B38
:100D70001980517918880902084318809079B04980
:100D80000880D2790888120202430A8040227A71D0
:100D9000A84F3A78A64F120238780F1C0243A94890
:100DA0008446181C624500D1C2E020DC8021490045
:100DB0008A4200D16EE109DC812A00D192E0822AC8
:100DC00000D195E0802A00D064E18BE081235B00B4
:100DD0009A4200D1CFE000DA58E1C0239B009A424A
:100DE00000D157E1984B9A4200D14FE152E1902354
:100DF0001B019A4269D015DCD023DB009A4222D035
:100E000088231B019A4269D0A023DB009A4200D0BC
:100E100040E1201CFFF7DEFD3188286889B2FFF72A
:100E2000EDFD3BE1894B9A4200D12FE100DC31E13D
:100E3000874B9A4200D11DE1864B9A4200D029E1AE
:100E400033886B7122E133881B0A012B08D10B8890
:100E500012222868934201D80A8892B27E4911E191
:100E600033881B0A022B08D10B884322286893423F
:100E700001D80A8892B2794904E133881B0A032B0E
:100E800000D007E13388DBB2012B17D0002B07D04D
:100E9000022B00D0FEE00A882868D2B2704911E027
:100EA000042201A86F4900F085FE3B8804222868CF
:100EB000934201D83A8892B201A9E3E00A882868EF
:100EC0006949D2B2FFF718FFE8E03388201C2B7184
:100ED000FFF780FD201CFFF797FDDFE0291C01C90B
:100EE0000122CFE0614900230B8028680222CAE07A
:100EF0005E4900220A801888502210405C4A107017
:100F00001E880F20304018801888032800D9C1E0BF
:100F100012781B8808335B01E418A379002A01D0FA
:100F20009B0600E0DB06DB0F0B8028680222A9E0AD
:100F300019887F2291434E4AC9B2117018880F2137
:100F4000014019803188002900D0A3E019880029C8
:100F500000D19FE01988032900D99BE012781B88F3
:100F600008335B01E318002A02D020225A718DE079
:100F7000102159718AE002887F239A433C4BD2B2F8
:100F80001A7001880F220A4002803288002A00D09D
:100F900080E00288002A00D17CE00288032A00D980
:100FA00078E01B78002B1FD0038808335B01E3181F
:100FB0009B799A066AD50388202208335B01E318DF
:100FC0001A71038808335B01E318DB795F065DD58E
:100FD0000388402208335B01E318DA710388022298
:100FE00008335B01E3181EE0038808335B01E31854
:100FF0009B79D9064AD50388102208335B01E31890
:101000001A71038808335B01E318DB799A063DD532
:101010000388202208335B01E318DA710388012278
:1010200008335B01E3181A7130E0C0469C000020D1
:1010300083000020880000208A0000208C0000200F
:1010400086000020020300000103000021200000B0
:10105000A121000021220000201C0000040000202B
:101060000C1C0000FC1B0000001C00008400002081
:10107000820000200B8808222868934201D80A8841
:1010800092B207490023FFF715FC07E0201CFFF789
:10109000A1FC03E0201C0121FFF792FCF7BDC04634
:1010A0004800002007B5054B0122019001A91868EE
:1010B000131CFFF7FFFB01200EBDC04620020020DD
:1010C00013B5054B6C4607341868211C0122FFF745
:1010D00039FC207816BDC0462002002010B5074C10
:1010E000201CFFF713FB031C0020834205D022685D
:1010F0004823FF33D05C0123184010BD200200209C
:1011000010B5054A0C1C031C191C10680123221C75
:10111000FFF7D0FB201C10BD2002002070B5084C4A
:10112000061C201C0D1CFFF7F1FA0023984205D085
:101130002068311C2A1CFFF705FC031C181C70BD1D
:1011400020020020F8B50C4C051C201C0E1CFFF7DB
:10115000DDFA0023271C341C98420AD0002C07D04B
:10116000291C221C3868FFF7EDFB241A2D18F5E71F
:10117000331C181CF8BDC0462002002008B5031C13
:10118000081C111C9847024B64221A8008BDC046F7
:1011900092000020012805D1054B064A1A60064B33
:1011A000187004E0002802D1044A014B1A6070470D
:1011B00090020020541C000098000020A01C000099
:1011C00030B50A1C1C4985B00978031C00292AD0B7
:1011D000042A01D1006804E0022A01D1008800E05D
:1011E0000078520004A98B180B3B9C1AA3420BD029
:1011F0000F210140092902D83025294300E0373169
:1012000019700009013BF1E701A930230B70782325
:101210004B700A208B1898700D20D870074B043241
:101220001B68D86803E005490968C868191CFFF7FE
:10123000A5FF05B030BDC0468E0000209002002002
:1012400072B6EFF30883044A1360036883F30888D7
:10125000436818477047C04694020020084B1A881C
:10126000002A03D01A88013A92B21A80054B1A88D4
:10127000002A03D01A88013A92B21A807047C046F9
:101280009200002090000020F0B591B008A9CC4A4F
:101290000B1C31CA31C351CA51C360CA60C3C94BA8
:1012A000C9489A687A255203520F92005258C7498A
:1012B00002609C68A4B262430C60C54900240A60C5
:1012C000C44A1460C44C2570C44CC54D2368281C06
:1012D0001B6940219847002802D0C24B64221A8023
:1012E000C14B00221860C14B1D60C14BC04DBE4FA9
:1012F0001A602A683B689A42E6D2BC4B1B681A788F
:10130000FF2A00D114E2232A00D0EBE1B94E337852
:10131000002B06D0B14BB8491B680222D868FFF7F2
:101320002DFFAD4B1B78532B3CD13B682A68934271
:101330001ED9AE4801322A609A1AB04B01681B6868
:1013400001310160AE4E9A4201D2326000E033605A
:10135000A04832680068049000F02CFC33682968CB
:101360005A182A60A14A1668F1181160A54A13702C
:101370002B68013B2B609D4B1A68013A1A60A14B08
:101380009E4A1B7811688B420AD222689148C91A7A
:10139000006892699047002802D0924B64221A801C
:1013A000C0468DE1522B0AD18A48944A23680068CE
:1013B00011685B69039098476422934B0DE04F2BB3
:1013C00005D1844B8D4A1B6812681A7078E1482B4E
:1013D00005D1804B894A1B6812681A8070E1572B2F
:1013E00005D17C4B854A1B6812681A6068E16F2B37
:1013F00003D1784B0121186807E0682B08D1754BA1
:101400007E481B6802211B880360FFF7D9FE57E165
:10141000772B06D16F4B79481B6804211B6803604A
:10142000F3E7472B13D1754B1868FFF709FF774B8C
:101430001B6883F3088862B6754B1B78002B00D1BC
:101440003EE1664B06201B681B68984738E1542B29
:1014500004D101233370614B1B6864E04E2B0CD127
:101460003378002B06D15D4B63491B680222D86894
:10147000FFF784FE0023337022E1562B57D12368F7
:101480006449D8680122FFF779FE23686249D86869
:101490000322FFF773FE614D2368291CD8680122DF
:1014A000FFF76CFE23685E49D8680D22FFF766FEE1
:1014B0002368291CD8680122FFF760FE4B4F4C4D72
:1014C0005849002339602B603A1C281C13685E1CA5
:1014D00016601B780593002B03D00368013303606B
:1014E000F4E73E4E2A683368D868FFF747FE336852
:1014F0004A49D8680122FFF741FE059929604A4907
:1015000039603A4A1368581C10601B78002B04D0CD
:10151000374B1A6801321A60F3E733682A68D868D3
:10152000FFF72CFE3368D86833490222C6E0334AFD
:10153000582B17D1244E264D366813682A68B100FF
:1015400093420AD21F4D5808E861384828801D4D43
:10155000287DC607FBD55B18F2E7204B34491B6892
:10156000D868AAE0592B79D112681A4B3149002A60
:1015700002D11B680B606CE0124D086819686B683B
:10158000104E8025AB4392087360002A61D02A4B2D
:101590000C4D2B800B4E337DDD07FBD500230A4D10
:1015A0002D680195AD08AB4203D3244D054E35801F
:1015B00046E09342F9D09D00465901334E51EEE783
:1015C000341C00000040004148020020400200207E
:1015D0003C0200208C0200203802002090020020F3
:1015E0004C02002090000020300200203402002035
:1015F000440200208E000020941C0000980200206D
:101600009C0200202C020020920000209402002066
:1016100098000020701C0000991C0000721C000043
:10162000BC1C0000741C0000801C000002A5FFFF11
:10163000891C00009400002044A5FFFF04A5FFFFC3
:101640003F4E357DEE07FBD59D0049194019D21A52
:101650009BE73C4B3C491B68D8682EE05A2B2FD1A6
:101660003A4B17681D680026EF19BD4206D028784E
:10167000311C00F013F90135061CF6E7314B3449F3
:101680001B680122D868FFF779FD07230F2232403B
:10169000111C36093031092A00DD07311820C01825
:1016A0006A468154013BF1D2236806A9D868082212
:1016B000FFF764FD23682749D8680322FFF75EFD22
:1016C000254B7A221A70254B00221A60244B1B7876
:1016D00093422DD01B4B23491B680122D868FFF78A
:1016E0004DFD25E0111C3039C8B21C4B092804D827
:1016F0001D682A01114319601AE0111C413905299E
:1017000003D81E68373A310106E0111C61390529FA
:1017100004D81868573A01010A4308E02C2A03D17B
:101720000A4A1968116001E00B490A7000221A6028
:101730000D4B1A6801321A600C4B1A680132D5E55C
:1017400000400041900200208D1C00008C0200200F
:10175000911C0000931C0000380200209802002019
:101760008E000020971C000044020020340200205C
:1017700010B51C4B01201A78032402431A701A4B2F
:101780000F2219789143197019782143197017495C
:101790000C782043087019780A401A701A783021A2
:1017A0000A431A70124B80211A6A0A431A62114BBB
:1017B000114A5A805A7852B2002AFBDBC4220F48E1
:1017C0000F499203FEF756FF0E4A002313700E4A8C
:1017D00013700E4A13700E4A13700E4A13700E4A9D
:1017E000137010BDD6440041BB440041D7440041B2
:1017F00000040040000C004019400000001C0042A2
:101800002AF60000A002002027030020A1020020E9
:10181000A4020020280300202503002008B5C1B23F
:101820000248FEF755FF012008BDC046001C0042DB
:10183000024B187E4007C00F7047C046001C004294
:1018400008B5FFF7F5FF0028FBD00248FEF746FF7A
:1018500008BDC046001C004208B5FFF7E9FF0023A1
:10186000984205D0FFF7ECFF031C233B5A4253413B
:10187000181C08BD70B5041C0D1C4618B44204D0D9
:101880002078FFF7CBFF0134F8E7281C70BD10B5B6
:10189000041CFFF7D5FF2070012010BD0B0A584033
:1018A000034B4000C05A0902484080B27047C0460E
:1018B000CA1C0000F7B50024051C0F1C261CBC42E6
:1018C00020D0FFF7BDFF114BC0B21B780190002B59
:1018D0001AD1311CFFF7E2FF0D4B061C1A88002AB3
:1018E00004D10C4A11782A1C002907D001996A1CDE
:1018F0002970802F02D11988013919800134A4B2CE
:10190000151CDCE7301C00E00120FEBD2503002093
:10191000A202002026030020F0B53E4E85B0002232
:1019200003900C1C32703C4B914201D1012201E02A
:101930003A490C801A707F231C4201D080349C43AA
:10194000FFF77EFF3378C0B2002B07D0002535703B
:10195000FFF776FF3378C0B2AB4236D1432803D0CD
:10196000712853D01528EBD1012300930120FFF7F4
:1019700055FF0098FFF752FF00998025C843C0B279
:10198000FFF74CFF039B00270293244A1388002B88
:101990001DD1214901930978002918D10198FFF739
:1019A0003DFF391C0198FFF779FF013D071C002D11
:1019B000EBD1000AC0B2FFF731FFF8B2FFF72EFFFC
:1019C000FFF73EFF3378002B0AD035701FE00299F5
:1019D000013B09781380029B019101330293DDE7FB
:1019E000C0B2062807D1009B03990133DBB28031D6
:1019F0000093803C0391002CB8D10420FFF70EFF28
:101A0000FFF71EFF044B01251C7000E00025281C79
:101A100005B0F0BD2503002026030020A20200200F
:101A2000F0B5384C87B0002301902370994201D162
:101A3000012301E0344A1180344A642613704320A4
:101A4000FFF7ECFE324FFFF7F3FE002803D1002F23
:101A500003D0013FF7E7002F03D1013E002EEED166
:101A60004DE00125FFF7ECFE2378002B38D1C0B202
:101A70000290012805D004283DD10620FFF7CEFEB4
:101A800039E005AE0221301CFFF714FF01988021D8
:101A9000FFF710FF23780390002B18D1FFF7D0FE3B
:101AA0000702FFF7CDFEBFB223783F18BFB2012B6C
:101AB0000DD0039B9F4207D13378AB4204D1EB4357
:101AC0007278DBB29A4204D01820FFF7A7FE0023F9
:101AD00003E00620FFF7A2FE029B2278002A02D034
:101AE000002626700BE0012B05D1019A6B1C803279
:101AF000DDB20192B6E7054A002313700126301CBF
:101B000007B0F0BD25030020A2020020260300201C
:101B100000350C00002934D00123002210B4884283
:101B20002CD301242407A14204D2814202D209010C
:101B30001B01F8E7E400A14204D2814202D249002D
:101B40005B00F8E7884201D3401A1A434C08A042D0
:101B500002D3001B5C0822438C08A04202D3001B66
:101B60009C082243CC08A04202D3001BDC0822437D
:101B7000002803D01B0901D00909E3E7101C10BCA1
:101B80007047002801D00020C04307B4024802A1DA
:101B90004018029003BDC046190000000029F0D093
:101BA00003B5FFF7B9FF0EBC4243891A1847C04678
:101BB0007047C04610B50023934203D0CC5CC45498
:101BC0000133F9E710BD031C8218934202D019704B
:101BD0000133FAE770470023C25C0133002AFBD1CE
:101BE000581E7047F8B5C046F8BC08BC9E46704702
:101BF000F8B5C046F8BC08BC9E467047040309040B
:101C000041726475696E6F204C4C4300417264757B
:101C1000696E6F204D4B52204E42203135303000DE
:101C2000120100020200004041235500000201029F
:101C3000000100000800000010000000200000006B
:101C400040000000800000000001000000020000D1
:101C5000000400001D1800004118000031180000A9
:101C6000751800008F18000019190000211A0000D3
:101C7000760020004170722031312032303139003D
:101C800031333A30393A353700580A0D00590A0DC8
:101C9000005A00230A0D003E00322E3000000000E2
:101CA000A5100000C1100000DD10000001110000AF
:101CB0001D11000001110000451100005B4172641C
:101CC00075696E6F3A58595A5D0000002110422024
:101CD00063308440A550C660E770088129914AA10D
:101CE0006BB18CC1ADD1CEE1EFF131121002733284
:101CF0005222B5529442F772D662399318837BB35D
:101D00005AA3BDD39CC3FFF3DEE362244334200413
:101D10000114E664C774A44485546AA54BB52885AC
:101D20000995EEE5CFF5ACC58DD553367226111663
:101D30003006D776F6669556B4465BB77AA71997FC
:101D40003887DFF7FEE79DD7BCC7C448E5588668EB
:101D5000A7784008611802282338CCC9EDD98EE94C
:101D6000AFF9488969990AA92BB9F55AD44AB77AC3
:101D7000966A711A500A333A122AFDDBDCCBBFFB9C
:101D80009EEB799B588B3BBB1AABA66C877CE44CD3
:101D9000C55C222C033C600C411CAEED8FFDECCDEC
:101DA000CDDD2AAD0BBD688D499D977EB66ED55EA3
:101DB000F44E133E322E511E700E9FFFBEEFDDDF3C
:101DC000FCCF1BBF3AAF599F788F8891A981CAB1C8
:101DD000EBA10CD12DC14EF16FE18010A100C230FA
:101DE000E3200450254046706760B9839893FBA3B5
:101DF000DAB33DC31CD37FE35EF3B1029012F3224A
:101E0000D2323542145277625672EAB5CBA5A89504
:101E100089856EF54FE52CD50DC5E234C324A01499
:101E200081046674476424540544DBA7FAB7998794
:101E3000B8975FE77EF71DC73CD7D326F2369106E9
:101E4000B01657667676154634564CD96DC90EF9DC
:101E50002FE9C899E9898AB9ABA944586548067839
:101E60002768C018E1088238A3287DCB5CDB3FEBF4
:101E70001EFBF98BD89BBBAB9ABB754A545A376A89
:101E8000167AF10AD01AB32A923A2EFD0FED6CDDC4
:101E90004DCDAABD8BADE89DC98D267C076C645CD9
:101EA000454CA23C832CE01CC10C1FEF3EFF5DCFD4
:101EB0007CDF9BAFBABFD98FF89F176E367E554E29
:101EC000745E932EB23ED10EF01E000000000000A2
:101ED00001140000090243000201008032090400DD
:101EE0000001020200000524001001042402000584
:101EF000240600010524010001070583030800FFF3
:101F000009040100020A00000007058102400000E8
:101F1000070502024000000000C2010000000800A6
:0C1F20006900000041000000000000000B
:10200000008000209D720100857201008572010030
:1020100000000000000000000000000000000000C0
:1020200000000000000000000000000085720100B8
:10203000000000000000000085720100F172010044
:102040008572010085720100CD5400008572010087
:10205000857201008572010085720100897201009C
:10206000857201008572010085720100757E000095
:1020700085720100DD710100CD71010085720100E2
:102080008572010085720100857201008572010070
:102090000000000085720100857201008572010058
:1020A0008572010085720100857201008572010050
:1020B0000000000010B5064C2378002B07D1054B1B
:1020C000002B02D0044800E000BF0123237010BDA4
:1020D000B00200200000000068800200044B10B530
:1020E000002B03D00349044800E000BF10BDC046E8
:1020F00000000000B40200206880020010B5040057
:10210000183017F03AFC200010BD000010B502484E
:1021100003F072FE10BDC0469405002070B5012585
:102120001A4C1B4B1B491C48E5541CF0C1F81B49B9
:102130001B481CF0BDF81B491B481CF0B9F81B4B91
:102140001B491C48E5541CF0B3F81B4B1B4A1C49A7
:10215000E2520A220233E2520433E552194B1A4882
:10216000E5540223E571E372237325721CF0A0F895
:10217000164917481CF09CF8164917481CF098F8A7
:10218000164917481CF094F870BDC0464C43002017
:102190004B04000056190200144700206019020089
:1021A00087450020671902006645002049040000A9
:1021B00077190200914500201202000088130000E8
:1021C0009C1902004A0400007B430020A019020071
:1021D0009B430020F5270200BB430020A219020008
:1021E000FB4300200023994208D07F220B7A08602D
:1021F00093431A00042313430B7201231800704702
:102200000A21435E0200181E01D01B01D01870473E
:1022100070B50D00041E0FD0C168A9420CD0002D6E
:1022200006D0002904D028001CF038F8002803D07C
:102230002000FFF7E5FFEDE7200070BD4A688B68DE
:102240001032934204D201230B740023180070470C
:10225000103B8B60002BF9D04268002A08D0991AF5
:1022600009115181002243605A811A72DA60EDE748
:102270000360F7E7F7B5037804000D002B2B1DD0A2
:102280002D2B1CD10127013423781A00303A092A5A
:1022900002D92E2B00D0C9E000200A2664492278FA
:1022A0001300303BDBB2092B0BD8884211D8DA433C
:1022B000704382420DD3C0180134F0E70134002787
:1022C000E2E7002A05D1002F18D080231B06984290
:1022D00009D90026574B98421AD90A21013617F01E
:1022E000C5FE76B2F6E77F222B7A404293431A006E
:1022F0000A2313432B7228603800FEBD7F222B7AFD
:10230000286093431A00082313432B720127F3E735
:1023100023781A00303A092A03D8013676B20134FC
:10232000F6E72E2B0FD10A21434A01342378303BA4
:10233000DBB2092B07D8904203D84843013E181856
:1023400076B20134F2E7202322789A430023452A0B
:102350003AD162782D2A1FD1023401330193002330
:1023600021783039CAB2092A2AD80A225343CB1815
:10237000F118262922DD019A2B7A7F20002A11D01C
:102380000024002F01D0802424060C2183430B431A
:102390002B722C60019FAFE72B2A01D00134DDE7BF
:1023A0000234DBE7002F06D024490C228343134379
:1023B0002B722960AAE7FF21C905F6E70134CFE7B0
:1023C000019A002A00D05B422478002C2ED1F61806
:1023D00018F020FF002E1ADD01231E4204D0184AF7
:1023E000A300D15818F000FC01347610E4B2002E9E
:1023F000F2D1002F02D080231B06C0187F222B7A37
:10240000286093431A000C2313432B727EE7764215
:10241000002EEED001231E4204D00A4AA300D15858
:1024200018F0E2FB01347610E4B2F1E7002763E72D
:1024300099999919FFFF7F00CBCC0C00000080FF19
:10244000FC160200E4160200054B1A78002A04D09C
:102450005978814201D00233F7E710007047C04637
:102460009C1D020070B50D00164E17490400300087
:1024700017F0E6F91549300017F0E2F91449300079
:1024800017F0DEF90A222900300017F066FA002D55
:1024900002D18021890008E0012DFAD08021022D8F
:1024A00002D0042D05D1C021C900200014F079FD0F
:1024B00070BD8021082D02D0102DEAD1A021090184
:1024C000F3E7C046C0510020061D0200181D02009F
:1024D000241D020070B5094C200002F09BFC084D41
:1024E0002100280002F04CFF0028F4D0200002F068
:1024F0001DFF2800002102F0E3FE70BDC051002046
:102500004C43002003280FD8104BDB7A0020012B0E
:1025100012D0022B13D0042B13D0082B13D0FE2182
:10252000102B0AD0002109E00438032802D8074BF9
:102530001B7BEBE70020F5E7FF2189057047044985
:10254000FCE70449FAE70449F8E7C0464C43002099
:102550000000B03F0000A03F0000903FF0B59DB0EC
:1025600004000291FFF7D2FD304D0AA8290017F0B0
:1025700053FA29000DA817F04FFA290010A817F0F8
:102580004BFA2B4913A817F047FA290016A817F0A1
:1025900043FA284D2849280017F06EF927492800EA
:1025A00017F04EF90A220299280017F0B6F9244BC9
:1025B0002000DA79197A00231F0008300993089364
:1025C00007930693059304930393029CA34239DA7D
:1025D000002A11D00025445F3F190225445F039D66
:1025E0002C1903940425445F049D2C19049406259A
:1025F000445F059D2C190594002913D00825445FDC
:10260000069D2C1906940A25445F079D2C190794F2
:102610000C25445F089D2C1908940E25445F099DE4
:102620002C19099401332830CFE7C0462458020002
:10263000A6190200C0510020AD190200CE190200F7
:102640004C430020F54CF649200017F015F9F54BE6
:10265000DB79002B23D0F449200017F0F1F80A228F
:102660003900200017F063F9F049200017F0E8F86E
:102670000A220399200017F05AF9ED49200017F0BB
:10268000DFF80A220499200017F051F9E9492000E7
:1026900017F0D6F80A220599200017F048F9E14B07
:1026A0001B7A002B24D0DD4CE349200017F0C8F83A
:1026B0000A220699200017F03AF9E049200017F0A5
:1026C000BFF80A220799200017F031F9DC492000F1
:1026D00017F0B6F80A220899200017F028F9D9490E
:1026E000200017F0ADF80A220999200017F01FF911
:1026F000D54910A817F016FAC84CD449200017F095
:102700009FF810A9200017F0ADF8D14ED149300044
:102710001BF0CEFDD04930001BF0A4FDCF493000A6
:102720001BF0A0FDCE4D300029001BF09BFDCD49D4
:1027300030001BF097FDCC4C300021001BF092FDC7
:10274000109930001BF08EFD210030001BF08AFD37
:10275000290030001BF086FDC44930001BF082FDCB
:10276000FFF7D4FC0A22010019A817F085F919997E
:1027700030001BF077FD19A817F0FFF8A94BDB7BA1
:10278000002B33D0290030001BF06CFD21003000FD
:102790001BF068FDB64919A817F03EF919993000E9
:1027A0001BF060FD19A817F0E8F8B24930001BF0E3
:1027B00059FD0020FFF7A6FE04000D003800029925
:1027C00017F0DEFC1AF098FA22002B0019F088FCB2
:1027D0000B0002210200009119A817F0AEF9199917
:1027E00030001BF03FFD19A817F0C7F88D4C2F34AF
:1027F0002378002B34D0964E994930001BF032FDDF
:10280000994930001BF02EFD210019A817F004F99A
:10281000199930001BF026FD19A817F0AEF895495C
:1028200030001BF01FFD0120FFF76CFE04000D00BF
:102830000398029917F0A4FC1AF05EFA22002B000C
:1028400019F04EFC0B0002210200009119A817F0AC
:1028500074F9199930001BF005FD19A817F08DF8CF
:10286000704D7B4C4F352B78002B33D07C492000AA
:102870001BF0F8FC7C4920001BF0F4FC290019A88F
:1028800017F0CAF8199920001BF0ECFC19A817F0F2
:1028900074F8784920001BF0E5FC0220FFF732FEB7
:1028A00006000F000498029917F06AFC1AF024FA47
:1028B00032003B0019F014FC0B00022102000091D1
:1028C00019A817F03AF9199920001BF0CBFC19A8A8
:1028D00017F053F8534E6F363378002B34D05C4DDD
:1028E0005F4928001BF0BEFC5F4928001BF0BAFCC2
:1028F000310019A817F090F8199928001BF0B2FCC4
:1029000019A817F03AF85B4928001BF0ABFC03202C
:10291000FFF7F8FD06000F000598029917F030FC4C
:102920001AF0EAF932003B0019F0DAFB0B00022141
:102930000200009119A817F000F9199928001BF05E
:1029400091FC19A817F019F8364E8F363378002B02
:1029500034D03F4D424928001BF084FC42492800F6
:102960001BF080FC310019A817F056F819992800BF
:102970001BF078FC19A817F000F83E4928001BF05E
:1029800071FC0420FFF7BEFD06000F0006980299B7
:1029900017F0F6FB1AF0B0F932003B0019F0A0FB7B
:1029A0000B0002210200009119A817F0C6F819992E
:1029B00028001BF057FC19A816F0DFFF194EAF36A0
:1029C0003378002B63D0224D254928001BF04AFCA8
:1029D000254928001BF046FC310019A817F01CF807
:1029E000199928001BF03EFC19A816F0C6FF2149D2
:1029F00028001BF037FC0520FFF784FD06000F00C0
:102A00000798029917F0BCFB1AF076F932003B00E8
:102A100019F066FB0B00022102002DE0C0510020DE
:102A2000EA1902004C430020FA1902000B1A0200B6
:102A30001C1A02002D1A02003E1A02004F1A020050
:102A4000601A0200711A020014470020821A020064
:102A500008060020921A0200941A02009C1A020032
:102A6000A31A0200A51A02006D290200B31A02007F
:102A70005B4300202F1B0200009119A817F05DF89E
:102A8000199928001BF0EEFB19A816F076FF5B4D94
:102A9000CF352B78002B33D0594920001BF0E2FBB7
:102AA000584920001BF0DEFB290019A816F0B4FFDE
:102AB000199920001BF0D6FB19A816F05EFF5249A9
:102AC00020001BF0CFFB0620FFF71CFD06000F00C7
:102AD0000898029917F054FB1AF00EF932003B00E7
:102AE00019F0FEFA0B0002210200009119A817F05C
:102AF00024F8199920001BF0B5FB19A816F03DFF2A
:102B00003E4DEF352B78002B33D03D4920001BF094
:102B1000A9FB3C4920001BF0A5FB290019A816F0D1
:102B20007BFF199920001BF09DFB19A816F025FFCB
:102B3000354920001BF096FB0720FFF7E3FC060059
:102B40000F000998029917F01BFB1AF0D5F8320014
:102B50003B0019F0C5FA0B0002210200009119A8F0
:102B600016F0EBFF199920001BF07CFB19A816F05A
:102B700004FF264E264930001BF074FB254C2649E5
:102B8000200016F079FE3100200016F075FE234972
:102B9000200016F071FE224919A816F03DFF10A979
:102BA00019A817F053F81F4917F05DF800221E4DC1
:102BB000009213000100280013F09CFD19A816F0E4
:102BC000DCFE3100280016F03BFE280014F081F9ED
:102BD0001649200016F050FE16A816F0CEFE13A8D7
:102BE00016F0CBFE10A816F0C8FE0DA816F0C5FE14
:102BF0000AA816F0C2FE1DB0F0BDC0464C4300202E
:102C0000A31A02006D2902002F1B020008060020F3
:102C1000C01A0200C0510020C21A0200CD1A0200E0
:102C2000E61A0200EF1A0200CC040020011B020089
:102C300070B505000024AC420FDA0121062014F023
:102C4000EBFDC82002F02CFC0021062014F0E4FD6E
:102C5000C82002F025FC0134EDE770BDF8B55E4DEB
:102C600004005E49280016F007FE5D4BDB79002B5F
:102C70003CD05C4E0321300014F0D2F95A4907B21F
:102C8000280016F0DDFD0A223900280016F045FE66
:102C900027810221300014F0C3F9544907B22800FB
:102CA00016F0CEFD0A223900280016F036FE6781A4
:102CB0000121300014F0B4F94D4907B2280016F094
:102CC000BFFD0A223900280016F027FE002130003F
:102CD000A78114F0A5F9474906B2280016F0B0FD07
:102CE0000A223100280016F018FEE6813C4B1B7AC0
:102CF000002B3CD0404E0321300014F091F93F49A5
:102D000007B2280016F09CFD0A223900280016F0B0
:102D100004FE27820221300014F082F9384907B2FC
:102D2000280016F08DFD0A223900280016F0F5FD66
:102D300067820121300014F073F9324907B228008C
:102D400016F07EFD0A223900280016F0E6FD00216B
:102D50003000A78214F064F92B4906B2280016F05F
:102D60006FFD0A223100280016F0D7FDE682FA2016
:102D7000800016F063FC2083FA20800016F05EFCD1
:102D80006083FA20800016F059FCA083FA208000AE
:102D900016F054FCE083FA20800016F04FFC2084EB
:102DA000FA20800016F04AFC6084FA20800016F0B9
:102DB00045FCA084FA20800016F040FC134B084A22
:102DC000E084D35C002B02D00120FFF731FFFFF736
:102DD0009DF92060F8BDC046C0510020F3180200E4
:102DE0004C430020FC0200200E19020017190200BB
:102DF00020190200291902000203002032190200E2
:102E00003B190200441902004D1902004A04000057
:102E100073B51A4C1A49200016F02EFDFA261949EE
:102E2000200016F029FD012502F016FBB6000095E2
:102E30000123154A1549164802F0CEFF032807D092
:102E40001449200016F0FCFC300014F095FAEEE76F
:102E50002900114802F0C6FB0428F1D10F492000D7
:102E600016F00AFD0A2002F0A1FA0D49200016F022
:102E700003FD200016F0EEFC73BDC046C0510020DB
:102E8000281D0200561D02006645002087450020CF
:102E9000940500200C19020014030020621D02009A
:102EA0006C1D0200F0B55D4D5D4987B0280016F03D
:102EB000E3FC5C4C0121200002F070FD200002F0D8
:102EC00035FD0028FAD05849280016F0B9FC5749BA
:102ED000200002F0FDFBFA210022C900200002F0D0
:102EE00003FD534E2800310016F0C6FC514928005E
:102EF00016F0C2FC5049200002F0EAFB4F4A642160
:102F0000200002F0F1FC3100280016F0B5FC4C491D
:102F1000280016F095FCFA274A49200002F0D8FB59
:102F2000BF00642014F028FA4749280016F088FCF6
:102F3000200002F0FBFC00223900200002F0D4FC4B
:102F40000128EED13100280016F096FC3F492800F8
:102F500016F092FCFA273E49200002F0B9FBBF00B0
:102F6000642014F009FA3849280016F069FC2000A2
:102F700002F0DCFC00223900200002F0B5FC012840
:102F8000EED13100280016F077FC3249280016F007
:102F900073FC63273049200002F080FBFA21274AA6
:102FA000C900200002F0A0FC2C4903A816F034FD53
:102FB00003A9224816F0C8FE019003A816F0DDFC14
:102FC000019B01330CD0019B06221C4903A816F07B
:102FD0000BFF03A816F07CFF070003A816F0CDFC3A
:102FE000FA20800014F0C8F91F2FD3DC310028002C
:102FF00016F042FC1A49280016F03EFC2000194940
:1030000002F066FBFA210D4AC900200002F06CFCB8
:103010003100280016F030FC07B0F0BDC051002090
:10302000141702009C4700203617020053170200B5
:103030005D1702006317020088170200FC050020DC
:1030400092170200BE1702000C190200C9170200F5
:10305000001802000A18020047180200A31A020012
:103060004E1802006518020003002033036043601D
:1030700088239B00C3188360C36000237F220374EE
:10308000037F934303777047F0B524C8954211D965
:103090000800130007781C785E1CBC4204D1002C89
:1030A00009D001303300F5E7187801331A00002801
:1030B000FAD1EBE700221000F0BD0023F0B585B097
:1030C00007000C00029103920093994208D0016816
:1030D000994208D17F22237A9343237201230093DC
:1030E000009805B0F0BD039E3000FFF7CDFF051E30
:1030F0001BD1BB6875680193B2680133EB1893422A
:1031000007D9012333747F22237A93432372002348
:10311000E5E77360002DF6D0019A396828001AF0AF
:1031200032F86A46019B1278EA547F22237A25609E
:1031300093431A00052313432372CFE770B5037A34
:103140000D0016007F211A0004000A4005D18B43B0
:103150005F390B430372026042602022237A1340DE
:10316000181E12D0281E10D029002068FFF750F832
:1031700000280AD131002000FFF760F8002804D0B1
:103180007F22037AC5601340037270BD10B5020040
:10319000037A20200340181E02D01068FFF738F889
:1031A00010BD437C002B06D1C3685A1CC2601B783B
:1031B000037401234374007C704710B504002000A1
:1031C000FFF7EFFF0A2806D8092808D2002809D0FF
:1031D000012020720CE00D2801D02028F8D1002316
:1031E0006374ECE7237A58345A1E934101332370F9
:1031F00010BD1FB57F220300007A10400438082854
:103200002ED816F01FFF0F0F052D082D0D2D1A00BB
:10321000187804B010BD1868C343DB171840F8E7EE
:103220001868F6E71868002301AC23722100FFF745
:1032300021F82000FFF7DDFFEBE7CF211C6809062E
:10324000201C17F003F90028E3D09E21201CC9059B
:1032500017F0E8F80028DCD0201C17F0BBFFD8E7F7
:103260000020D6E770B530C814340E0020002900C5
:10327000FFF78CFF002806D07F22037A1340082B2B
:1032800003D00A2B04D030680AE00368002BFADB75
:1032900029002000FFF77AFF002801D0FFF7A9FFDF
:1032A00070BD70B504000D00FFF77BFF0023A8423E
:1032B00001D163740133180070BD2F2815D9012383
:1032C000392803D95E2803D97A2803D81800704713
:1032D00040280AD901235A28F8D9002301222D3881
:1032E000C0B282425B41DBB2F0E701232B28F4D16C
:1032F000ECE710B5040008001AF0E2FF6368181844
:10330000606010BD37B500236A461370C3B27F28D2
:103310000BD853706B460233013B1878002831D02C
:103320000A68541C0C601070F6E73F2480226D463A
:1033300023405242134380096B7085B2C3B21F2DE4
:1033400006D8403213436A4693706B460333E3E773
:103350006D46234000041343800DAB70C3B20F28A9
:1033600005DC202252421343EB7001ABD4E71C4032
:10337000102380115B4218436B462243EA70287188
:103380000533C9E737BD0000F7B505000027FFF793
:1033900008FF6F7401902800FFF703FF0024019AD3
:1033A00003006C74824259D0A04204D102235835E4
:1033B00000202B70FEBD5C284BD12800FFF7F1FEEA
:1033C0000028F3D0284B752839D104266C742800C6
:1033D000FFF7E7FE0028E9D0402806D83038C0B211
:1033E0000F2806D958350323E2E7202398433738BE
:1033F000F5E700232401013E0443F6B2A4B26B7446
:103400009E42E4D1A0239B01E318184A9BB2934249
:1034100002D8A405A70DBEE790239B01E3189BB239
:103420002000934206D880238005BC02800D2043F3
:103430005B02C0182900FFF765FFACE702331A787A
:10344000002ACFD09042F9D15B78002BCAD000225D
:103450006A742A68511C296013709CE72B6801204C
:103460005A1C2A601C70A5E79A1D0200FF03000089
:10347000036870B543600400FFF793FE27280DD062
:1034800022280BD02000FFF78CFE0500FFF715FF68
:10349000061E09D103235834237003E02000FFF7F0
:1034A00073FF0600300070BD0023637423682000A2
:1034B0005A1C22601D70FFF774FE0500FFF7FDFE29
:1034C0000028F1D123685A1C22601870EAE7F7B58A
:1034D00004000D001F1CFFF770FE0190002801D1B1
:1034E000002658E02000FFF75CFE272800D17BE093
:1034F0001DD8222800D177E02000FFF752FE0026D9
:1035000000900098F7B2FFF7D8FE002800D17EE0C7
:103510000136402E00D179E06A46002312786374A8
:10352000A319DA752000FFF73CFE0090E9E75B285D
:1035300013D07B28E0D17F222B7A290093431A00F5
:10354000202313432B72002300222B606B6020008A
:103550003B1C00F087F806001DE07F222B7AFFB2AB
:1035600093431A00402313432B7200232B606B609C
:103570009F4203D1583405332370B1E763742000B0
:10358000FFF71BFE0028ABD05D212000FFF789FE6E
:10359000061E02D0019E3000FEBD61692800FEF7C4
:1035A0004DFE011E03D1042358342370F3E77B1E24
:1035B00000222000FFF78BFF002800D190E72000B9
:1035C000FFF7FBFD002800D18AE75D212000FFF70F
:1035D00068FE0028DED12C212000FFF762FE0028C3
:1035E000DBD158340323C7E7236820006360FFF76B
:1035F000CBFE061E00D173E77F2263682B602B7A17
:1036000093431A00042313432B72C4E73F2700217E
:10361000E3191976237E742B0DD17F222B7A9343E5
:103620001A00062313432B7201232B70042FB1D0F1
:1036300058340223A0E7662B0AD17F222B7A297007
:1036400093431A00062313432B72052FF0D1A1E7F1
:103650006E2BEBD0200029001830FEF70BFE00285F
:10366000BFD097E7F7B5DFB204000E00002F04D1FA
:1036700005235834237000250DE000234374FFF721
:103680009CFD01900028F6D07D212000FFF709FE67
:10369000051E28D0019D2800FEBD63683068190012
:1036A0000093FEF7B5FD002831D001007B1E0022FB
:1036B0002000FFF70CFF0028DDD02000FFF77DFD84
:1036C0000028D8D07D212000FFF7EBFD0028E1D1B4
:1036D0002C212000FFF7E5FD002814D02000FFF783
:1036E0006CFD0028C7D02000FFF7C2FE0028C2D022
:1036F0002000FFF762FD0028BDD03A212000FFF72F
:10370000D0FD0028C9D1032358342370C3E7616971
:103710003000FEF793FD002802D158340423F4E76B
:103720007F22037A13400372009BC360BDE770B52C
:1037300005000E0043680133436030786C68002850
:1037400009D00136FEF780FE002802D002346C60FA
:10375000F3E70134FBE701346C6070BDF0B516246B
:1037600006000D000A2787B06C442800390016F0C7
:1037700003FD013C303121702800390016F076FC41
:10378000051EF2D116236B441C1B73681C19746050
:1037900007B0F0BD10B50400006803685B68984787
:1037A00063681818606010BD70B5050008000C0053
:1037B0001AF086FD210002002800FFF7EBFF70BD24
:1037C000F0B5162407000D000A2687B06C442800C7
:1037D000310016F0D1FC013C30312170280031005D
:1037E00016F044FC051EF2D116236B441A1B21006F
:1037F0003800FFF7CFFF07B0F0BD00000623F7B594
:103800000E1C070083725849301C16F01FFE00285A
:1038100044D00023142420250093544B311C185904
:1038200016F000FE002809D0514B301C195917F032
:10383000DBF9009B061CE81803B20093043C6D10F2
:10384000231DEAD103340021301C16F0F5FD0028B9
:1038500028D0301C19F0BCFA464A474B16F0A8FD98
:1038600000281FD0A300019323061BD4434B019AC9
:10387000311C985816F0E0FD00280AD03B4B019A05
:10388000301C995817F0B0F9009B061C581B03B266
:103890000093019B6D10013C043BE4E720250524C7
:1038A0000090D0E76B461B88301C3B8116F046FE2B
:1038B0000400334D38600190019B092B0DD90A217A
:1038C000280016F0D3FBBB7A0500013B0198BB72C0
:1038D0000A2116F0CBFB0190EEE7200017F09AFCCE
:1038E000011C301C17F0B2FA061C280017F092FCDD
:1038F000011C301C17F078F9019016F01FFE06002D
:1039000017F088FC011C019817F0A0FA011C16F0B2
:103910000BFF16F013FE8619AE4214D27E600A2504
:103920007E682900300016F027FC00291AD10A24ED
:103930003C57002C16DD2900300016F097FB013CA7
:103940007860BC72ECE700237B60009B01343C6034
:10395000002BE4D0092CE2D9180001230130388172
:103960003B60DCE73800FEBD8096184BFC16020079
:10397000E4160200F168E388B5F8E43ECC160200D4
:1039800040420F00F0B504008DB0081C0D1C16F06D
:1039900039FD002805D13B492000FFF7AAFC0DB0F6
:1039A000F0BD0021281C16F02DFD002809D1291C8E
:1039B000281C16F0B9FE011C281C16F023FD002857
:1039C000E9D10021281C16F023FD002805D06368EA
:1039D0000133636080231B06ED1803AE291C300001
:1039E000FFF70CFF03992000FFF7B8FE0A23F356F8
:1039F0000093002B1DD01D0077680AAB0193019B3B
:103A0000013D013B6DB201936B1C0CD038000A21C3
:103A100016F0B2FB019B3031197038000A2116F004
:103A200025FB0700EBE76B461B786268DB43D31A84
:103A300063600823F25E002AB1D0636895B2002A61
:103A40001BDB0133636026260A2702ABF618280029
:103A5000390016F091FB013E3031317028003900F9
:103A600016F004FB85B2002DF1D1262302AA9B1883
:103A70009E1B63689E19666091E702336D42636026
:103A8000ADB2E0E7951D02007F2270B5037A0C000D
:103A90001340062B5ED007D8022B0CD3032B47D83C
:103AA00040684B68C01841E00C2B1DD005D8082B8E
:103AB0004ED00A2B41D02C4951E0202B1AD0402B5C
:103AC000F9D14B68056801334B60002D2CD02100E3
:103AD0002800FFF7D9FF2800FEF792FB051E23D030
:103AE000636801336360F0E701682000FFF74AFF75
:103AF00060681CE04B68056801334B60002D13D0F3
:103B0000E9682000FFF713FE63682100013363605A
:103B10002800FFF7B9FF2800FEF772FB051E03D04F
:103B2000636801336360E9E76368581C606070BDD7
:103B300001682000FFF7FBFDDAE70168002903DADE
:103B400063684942013363602000FFF707FECFE757
:103B50000168F9E703780549002B00D104492000EA
:103B6000FFF7C7FBC4E7C046951D0200AB1D02006E
:103B7000B01D020010B50400006803685B68984738
:103B800063681818606010BD70B5050008000C006F
:103B90001AF096FB210002002800FFF7EBFF70BD32
:103BA000F0B5162407000D000A2687B06C442800E3
:103BB000310016F0E1FA013C30312170280031006B
:103BC00016F054FA051EF2D116236B441A1B21007D
:103BD0003800FFF7CFFF07B0F0BD10B50400006854
:103BE00003681B68984763681818606010BD000080
:103BF000F0B504008DB0081C0E1C16F003FC002864
:103C000005D141492000FFF7CFFD0DB0F0BD0021E7
:103C1000301C16F0F7FB002809D1311C301C16F0BF
:103C200083FD011C301C16F0EDFB0028E9D10021BA
:103C3000301C16F0EDFB002806D02D212000FFF7E8
:103C4000CCFF80231B06F61803AD311C2800FFF7BC
:103C5000D5FD03992000FFF7B3FD0A23EB5600932F
:103C6000002B23D06F6801930AAE019B013E013BFC
:103C70005BB2019301330BD038000A2116F07CFAB5
:103C80003031317038000A2116F0F0F90700ECE706
:103C90006B461B782026D9432E228B1902A8C254CA
:103CA0000AAB4A4220005918FFF774FD0822AB5EA8
:103CB000002BAAD065212000FFF78FFF0823EE5EBE
:103CC000B5B2002E05DA2D212000FFF786FF7542E0
:103CD000ADB226260A2702ABF6182800390016F0E6
:103CE0004BFA013E303131702800390016F0BEF930
:103CF00085B2002DF1D1262302AA9B189A1B310010
:103D00002000FFF747FD80E7951D0200F8B50E0083
:103D1000040022212000FFF760FF3578002D0DD030
:103D20002800FEF791FB0136070029000028F1D09A
:103D30005C212000FFF751FF3900EBE72221200032
:103D4000FFF74BFFF8BD00007F2270B5037A050036
:103D50000C001340062B00D169E008D8022B0DD3CC
:103D6000032B50D806CD2000FFF714FD25E00C2BC7
:103D70001FD005D8082B58D00A2B49D030495BE01A
:103D8000202B21D0402BF9D15B212000FFF725FF0C
:103D90002D68002D13D021002800FFF7D5FF280043
:103DA000FEF72EFA051E0AD02C212000FFF715FF82
:103DB000EFE701682000FFF71BFF606870BD5D2121
:103DC0002000FFF70AFFF8E77B212000FFF705FF3F
:103DD0002D68002D15D0E9682000FFF797FF3A21E4
:103DE0002000FFF7FAFE21002800FFF7ADFF2800B2
:103DF000FEF706FA051E04D02C212000FFF7EDFE89
:103E0000E7E77D21DCE701682000FFF77FFFD4E7CB
:103E10000568002D04DA2D212000FFF7DEFE6D423B
:103E200029002000FFF7CCFCC7E70168F9E7037819
:103E30000449002B00D104492000FFF7B5FCBCE782
:103E4000951D0200AB1D0200B01D020010B50C0054
:103E5000002802D0FFF778FF10BD20000249FFF7CD
:103E6000A3FC6068F8E7C046951D02001FB500235B
:103E70000191143001A90293FFF7E8FF05B000BDDE
:103E8000F0B5BB4CA544FEF741F9BA4C02A821009D
:103E900015F0C2FD210005A815F0BEFD210008A8FF
:103EA00015F0BAFD21000BA815F0B6FD21000EA8F3
:103EB00015F0B2FDB04908A815F034FEAF4C14A8B7
:103EC000210002F0F3FA14A90BA815F023FE14A8A0
:103ED00015F053FD210014A802F004FB14A90EA84C
:103EE00015F018FE14A815F048FDA54DA54F2800A3
:103EF00039001AF0DDF9A44928001AF0B3F9A349F2
:103F000028001AF0AFF9A24C280021001AF0AAF9F3
:103F1000A04928001AF0A6F99F4E280031001AF097
:103F2000A1F9089928001AF09DF9310028001AF02B
:103F300099F99A4928001AF095F9390005A815F061
:103F40004CFE914905A815F048FE904905A815F0CA
:103F500044FE210005A815F040FE8E4905A815F085
:103F60003CFE310005A815F038FE08A905A815F09B
:103F700022FE310005A815F030FE210005A815F03D
:103F80002CFE874905A815F028FE310005A815F07C
:103F900024FE0BA905A815F00EFE310005A815F0AA
:103FA0001CFE210005A815F018FE7E4905A815F095
:103FB00014FE310005A815F010FE0EA905A815F095
:103FC000FAFD310005A815F008FE210005A815F03E
:103FD00004FE754905A815F000FEFEF797F8852741
:103FE000010005A815F025FE210005A815F0F5FD36
:103FF0006E4905A815F0F1FD6D4DBF00E95B05A800
:1040000015F0FDFD6B4E210005A815F0E6FD6A498F
:1040100005A815F0E2FDA95B05A815F0F0FD21004B
:1040200005A815F0DAFD654905A815F0D6FD86232B
:104030009B00E95A05A815F0E2FD584905A815F0BE
:10404000CCFD14A8FFF710F814AA5D4919A8FFF7D2
:1040500075F801005B48FEF7C5F814AA5A4919A87B
:10406000FFF76CF801004448FEF7BCF814AA574962
:1040700019A8FFF763F8002808D07F22037AE95BCC
:1040800093431A00082313430372016014AA504992
:1040900019A8FFF753F8002808D07F22037AA95BFC
:1040A00093431A00082313430372016014AA494979
:1040B00019A8FFF743F800280AD086237F229B0027
:1040C000E95A037A016093431A00082313430372E9
:1040D0000025414C14A82100FFF7C8FE200015F070
:1040E000B9FB11A919A81295FFF7CEFC06003B49B0
:1040F000200015F0C1FB0A223100200015F017FC4A
:104100003749200015F0B8FB364911A815F084FC9A
:1041100008A911A815F09AFD334915F0A4FD334EF6
:104120002B002A0001000095300012F0E3FA11A8DC
:1041300015F023FC05A9300015F07BFB300012F0D0
:10414000C8FE2B49200015F097FB0EA815F015FCB2
:104150000BA815F012FC08A815F00FFC05A815F027
:104160000CFC02A815F009FC9D239B009D44F0BDAA
:104170008CFDFFFF2458020014470020C8040020D3
:1041800008060020921A0200941A0200121B020074
:10419000A31A0200A51A02006D290200C01A02002B
:1041A0001D1B0200291B0200B31A0200321B020071
:1041B0004C430020120200003C1B0200481B02007E
:1041C000531B0200571F0200581B0200631B020012
:1041D0006A1B0200731B0200C05100207B1B0200FF
:1041E000CD1A0200E61A0200EF1A0200CC040020E9
:1041F000011B020010B50400006803681B689847A3
:1042000063681818606010BDF0B504008DB0081C1C
:104210000E1C16F0F7F8002805D141492000FFF7E1
:10422000B3FC0DB0F0BD0021301C16F0EBF80028F7
:1042300009D1311C301C16F077FA011C301C16F025
:10424000E1F80028E9D10021301C16F0E1F800283F
:1042500006D02D212000FFF7CDFF80231B06F61886
:1042600003AD311C2800FFF7C9FA03992000FFF7BE
:1042700097FC0A23EB560093002B23D06F68019321
:104280000AAE019B013E013B5BB2019301330BD0AF
:1042900038000A2115F070FF3031317038000A21E2
:1042A00015F0E4FE0700ECE76B461B782026D943A7
:1042B0002E228B1902A8C2540AAB4A422000591878
:1042C000FFF758FC0822AB5E002BAAD06521200026
:1042D000FFF790FF0823EE5EB5B2002E05DA2D2120
:1042E0002000FFF787FF7542ADB226260A2702ABF2
:1042F000F6182800390015F03FFF013E30313170CB
:104300002800390015F0B2FE85B2002DF1D1262328
:1043100002AA9B189A1B31002000FFF72BFC80E7B4
:10432000951D0200F8B50E00040022212000FFF7C1
:1043300061FF3578002D0DD02800FEF785F8013695
:10434000070029000028F1D05C212000FFF752FF70
:104350003900EBE722212000FFF74CFFF8BD0000F9
:104360007F2270B5037A05000C001340062B00D1A4
:1043700069E008D8022B0DD3032B50D806CD2000BE
:10438000FFF7F8FB25E00C2B1FD005D8082B58D0E1
:104390000A2B49D030495BE0202B21D0402BF9D1AA
:1043A0005B212000FFF726FF2D68002D13D0210090
:1043B0002800FFF7D5FF2800FDF722FF051E0AD0D1
:1043C0002C212000FFF716FFEFE701682000FFF720
:1043D0001BFF606870BD5D212000FFF70BFFF8E751
:1043E0007B212000FFF706FF2D68002D15D0E9681E
:1043F0002000FFF797FF3A212000FFF7FBFE210086
:104400002800FFF7ADFF2800FDF7FAFE051E04D0D7
:104410002C212000FFF7EEFEE7E77D21DCE70168B5
:104420002000FFF77FFFD4E70568002D04DA2D2177
:104430002000FFF7DFFE6D4229002000FFF7B0FBF0
:10444000C7E70168F9E703780449002B00D1044964
:104450002000FFF799FBBCE7951D0200AB1D020091
:10446000B01D0200F0B5544FD5B05449380015F0D6
:1044700003FAFA20400101F013F8FDF747FE504916
:1044800005A815F0C9FA4F4B0BA8196819F010FFD1
:104490002CAC34AB2C93636054ABA360E36000237B
:1044A0007F252374237F2200AB432377464931A81D
:1044B000FEF744FE01004548FDF794FEFDF726FE99
:1044C00022000600424931A8FEF738FE002805D038
:1044D0000823027A0660AA431343037222003D496F
:1044E00031A8FEF72BFE2200010008903A480994FB
:1044F000FEF7E3FD2200394931A8FEF71FFE061E34
:104500002AD00BA92000FEF7BFFD051E1CD10BA869
:1045100019F0D6FE030065680133A268EB1803901A
:10452000934206D9012323747F22337A9343337253
:1045300012E06360002DF7D0039A0BA9280018F051
:1045400022FE0023039AAB547F22337A35609343D3
:104550001A00052313433372002408A931A80897D1
:104560000994FFF773FC380015F074F91C4905A88D
:1045700015F0D8FA184905A815F01DFB194905A82A
:1045800015F02BFB184D2300220005A900942800EC
:1045900012F0B0F808A931A808950994FFF7E0FED9
:1045A000280012F096FC0649064815F0BBFA05A84B
:1045B00015F0E3F955B0F0BDC0510020CC1C02004D
:1045C00024580200D8020020E81C0200E21C02006D
:1045D000ED1C0200F71C0200CC020020FE1C0200B1
:1045E000E61A0200EF1A0200CC040020F8B5424E91
:1045F000424F3100380015F00FFA414C414D220076
:104600002900380015F016FD3F4F3100380015F035
:1046100003FA22002900380015F00CFD3B4F310051
:10462000380015F0F9F922002900380015F002FDD4
:10463000374F3100380015F0EFF92200290038001B
:1046400015F0F8FC334F3100380015F0E5F929007A
:104650002200380015F0EEFC2F4F380000F056FF16
:1046600022002E49380015F0E5FC2D4F00213800BE
:1046700001F03AFA22002B49380015F0DBFC2A4FF2
:104680000121380001F0B2FE22002849380015F05F
:10469000D1FC3900264803F023FD22002549244897
:1046A00015F0C8FC244F2249380011F08DFE22007D
:1046B0002249380015F0BEFC214801F0EBFE214FE5
:1046C0003100380015F0A8F922002900380015F053
:1046D000B1FC1D4F3100380015F09EF92200290071
:1046E000380015F0A7FC4821184812F053FC492166
:1046F000174812F04FFCF8BD24580200FC050020BA
:10470000000000207B990100E4020020CC02002080
:10471000F0020020D802002014030020E154000021
:1047200094050020FD200000BC050020F95E00007B
:104730000008002021800000CC040020BD620100A0
:10474000C80400202043002008030020FC020020B1
:1047500002030020F0B56C4B85B005201B78FEF7F6
:1047600067FAFEF79FFB694C6949200015F084F851
:1047700000F072FEE1216748490214F031FD664EF7
:10478000300000F07FFD6549300000F0FBFD300097
:1047900000F078FDFDF79EFE614F380002F0F0F961
:1047A000002804D15F49200015F066F8FEE75E4D51
:1047B00008220021280002F06BFF390001A802F056
:1047C000EDFA0199280002F081FF01A815F0D5F853
:1047D000280003F029F95549554803F06CFB2800DF
:1047E00002F06EFF0700280002F06DFF3A000300A0
:1047F0000021504803F07EFC4F4BF35C4F4E012BE1
:104800000BD14F49200015F037F84E494E4815F0AE
:1048100089F94E49300015F085F94D4D31002800D9
:1048200015F0C9F94B49280015F0D7F9464F280073
:10483000390015F0C0F94849280015F0CEF947496C
:10484000200014F0FDFF2900200015F00BF8444E65
:104850003900300011F0C0FD424901A815F0DCF824
:1048600001AA2900300011F0BCFD01A815F085F85F
:1048700030003D4911F0AEFD00233C4E01210620E1
:10488000336012F07DFFE1212248490214F0A8FCB8
:10489000E1212000490213F039FB00F0DDFD34492D
:1048A000200014F0E9FF0A2000F080FD31492000CB
:1048B00014F0E2FF00F0E4FD174DEB79002B0CD073
:1048C0002D49200014F0BCFFE97A0A22200015F0DF
:1048D00048F8E97A2948FDF7C5FD2B7A002B0CD062
:1048E0002749200014F0ACFF297B0A22200015F094
:1048F00038F8297B2348FDF7B5FD234801F0CCFDAE
:104900000023336005B0F0BD38040040C0510020E2
:10491000611E0200004D00204C4300201D210000BC
:1049200044480020711E0200E84800200D210000CC
:10493000D04B0020000800204B040000F0020020B3
:10494000841E020014470020CC0200209145002064
:1049500020430020ED1A0200A71E0200BF1E020025
:10496000CC040020245802007D4B000034030020BA
:10497000CB1E0200D91E0200E31E0200FC02002032
:10498000FB1E020002030020C804002030B5A5B0C1
:104990003149684615F040F83049684615F0C2F8CC
:1049A0002F49684615F007F92E49684615F015F9A4
:1049B0002D4C2E49200014F05FFF00F04DFD2C4BD4
:1049C00003A8196819F074FC2A49200014F038FF74
:1049D00003A9200014F034FF2749200014F04CFFF5
:1049E000264D274A03A9280012F044FA00280FD1C7
:1049F0002449200014F024FF280011F0FEFC0A22B4
:104A00000100200014F089FF1F4812F0B5FCE7E711
:104A1000200014F01FFF1D49200014F02DFF20007E
:104A200014F018FF1A49200014F00AFF694620000C
:104A300014F018FF00226946280012F0FEF815490C
:104A4000200014F019FF0A2000F0B0FC684614F0B2
:104A500094FF25B030BDC04624580200E61A02007B
:104A6000CC02002079180200C0510020561D02001F
:104A7000F002002091180200EC260200CC04002075
:104A8000B32200000C19020088130000AD180200C8
:104A9000D1180200621D0200F8B52B4C2B492000F2
:104AA00014F0EAFE00F0ECFC294801F001FA0328BA
:104AB00044D0FEF7ADF9274811F001FD002801D1DF
:104AC000FFF764FF0220FEF7B3F82349200014F03B
:104AD000D3FE28208527214DBF002B6858435A1C40
:104AE0001F4B2A60C018FEF7B9F81E49200014F0C9
:104AF000A7FE0A222968200014F00FFF1A4920009F
:104B000014F09EFE194E0A22F15B200014F005FFFE
:104B1000F35B2A6893420CDC1549200014F0ACFECC
:104B20000C4811F087FE29680D48FDF717FD00239A
:104B30002B60104BF05A00F0B3FCF8BD0E4800F0AB
:104B400077FD0428B5D1B6E7C0510020B61D02009C
:104B500094050020CC040020C31D02003403002073
:104B600038030020F31D0200091E02004C43002000
:104B7000281E02001202000014030020F0B5884C29
:104B8000884DA544040000AF8749280014F058FE62
:104B900023006A460833DB08DB00D31A9D466E46C5
:104BA0007B607B68F31A9C4205DD804811F073FB43
:104BB00030700136F5E7E3430026DB171C407B68C5
:104BC00028001E55190014F03BFE280014F042FE88
:104BD000082160237A18D4182000FEF745FA7F22B6
:104BE000BB6E08216360E3683E61A360237F3E756E
:104BF000934323777B687A18FB607B687E77BB6181
:104C00005C23D31826743C6278181E7074368119A0
:104C10000C200A2300223818FEF759FC0823FB1841
:104C200063499819FEF7B2FA002800D1B5E07F2257
:104C3000037A1340043B012B00D9AEE00668002E36
:104C400000D1AAE05B49280014F0FAFD31002800E9
:104C500014F012FE5849300019F020FB002800D053
:104C60008BE05649280014F007FE29002000FFF7CA
:104C7000FDF8280014F0EEFD514B08223B6101269F
:104C80000C237642B918F818FC60BE60FEF7EAFA09
:104C90004C4B08223B610C23B918F818FC60BE602D
:104CA000FEF7E0FA484B08223B610C23B918386044
:104CB000F818FC60BE60FEF7D5FA444B08223B6151
:104CC000012306005B42BB600D33B918F818FC6085
:104CD000FEF7C8FA32003E4B643A78603D4C9A4287
:104CE0000ED83D49280014F0ABFD0A2231002800FF
:104CF00014F00FFE3949280014F0BEFD384BE6527F
:104D00003B68013B092B11D8264D3649280014F089
:104D100097FD0A223100280014F0FBFD32492800DB
:104D200014F0AAFD85233A889B00E2527B68013B80
:104D3000082B0DD81B4D2D49280014F081FD0A22A7
:104D40007968280014F0E9FD8623BA889B00E252B6
:104D50000121200000F0B4FAFFF792F801211D486C
:104D600000F0AEFA224B9B68002B01D0FFF77AFBD4
:104D7000BD46A3239B009D44F0BD1E49300019F0A1
:104D80008DFA002804D11C49280014F075FDE3E7D2
:104D90001A49174814F0C6FEE0E71949F9E7C0467A
:104DA00074FDFFFFC05100208E1B0200CC040020C8
:104DB000531B0200AE1B0200571F0200BE1B020065
:104DC000DB1B0200631B02006A1B0200731B020054
:104DD0005BD401004C430020DF1B0200011C0200D9
:104DE00012020000051C0200191C0200281C02000F
:104DF000D80200203D1C0200421C02006E1C020072
:104E0000B01C020010B50121014800F059FA10BD94
:104E10004C430020F0B5B9B0040012F077FAFA2341
:104E200001259B00C318009300232F00029312F06A
:104E30006DFA009BC01A00D4AEE0029BF92B00D99A
:104E4000AAE0002D12D05949200014F015FD2100D0
:104E5000574800F03FF9200000F068FA554920005B
:104E600014F0EEFC029B0133DBB2029323682000B6
:104E70001B69984700282AD1236820001B6998479E
:104E8000051ED4D000231E000393019312F03EFAB6
:104E9000009BC01A75D5019B002B23D123682000ED
:104EA0005B699847051EF1DD12F030FAFA239B008A
:104EB000C31800930D2D3CD1236829001B682000E6
:104EC000984712F023FA323003900197DEE7236807
:104ED00020009B6998470028CED1236820005B6999
:104EE0009847C3E7236820009B699847431C58D123
:104EF00012F00CFA039BC01AD0D4002505AB9B1905
:104F00001D70AE4293DB12D02B4905A819F08CF925
:104F1000A84241D005AA3900254800F070F8A842FF
:104F200033D012F0F3F9FA239B00C31800933D002D
:104F30007DE70A2D05D1236829001B6820009847CA
:104F4000DBE700230193082D01D07F2D09D19E427C
:104F50009CD0236803225B68184920009847013ED3
:104F600094E7C72E92D82B00203B5E2B8ED8236867
:104F7000EDB21B6829002000984705AB9D5501360E
:104F800084E7002505AB1D7051E705A90C4800F02A
:104F9000E7F90028C5D1CAE7200014F05BFC39B05E
:104FA000F0BD0A2800D179E7A7E7C046131F020029
:104FB000381F02001F1F0200331F02002F1F0200B4
:104FC0004C430020F7B506000F0000240192BC42BC
:104FD00012D018236343F3185D68280019F070F9A4
:104FE00029000200019819F072F9631C002801D110
:104FF0002000FEBD1C00EAE701204042F9E770B541
:1050000006001500FFF7DEFF002398420DDB182491
:1050100044433419A6680133002E06D0606819F0A5
:105020004FF929182000B0470123180070BD70B552
:1050300004690500002C08D04269200019F07CF9B1
:105040006B69E4180023013C237070BD10B504693E
:105050000B00002C05D000221800110019F01AFFD7
:10506000207010BD10B504690B00002C05D0002283
:105070001800110019F00EFF208010BD70B50C0053
:1050800005000A49200014F0DBFB2968200014F019
:10509000D7FB0749200014F0D3FB6968200014F007
:1050A000CFFB0449200014F0CBFB70BDEB260200BF
:1050B000631F0200661F020070B50C0005000800A7
:1050C00014F0C8FB2968200014F0BAFB200014F08B
:1050D000C1FB70BD70B505690C00FFF7CFFF002D57
:1050E00004D02900200014F0C7FB70BD200014F08C
:1050F000B1FBFAE770B505690C00002D06D0FFF78B
:10510000BDFF29780A22200014F02BFC70BD70B579
:1051100005690C00002D06D0FFF7B0FF29880A2290
:10512000200014F0FAFB70BD30B5094D094CAB6896
:105130005B035B0F9B001C590460AB6801619BB271
:1051400043606343A4008360C460426130BDC046D5
:10515000004000416C1F0200F7B580261A4D0191F6
:105160006F6803333E439B086E60002B2BD0174EB5
:105170002E802E7DF107FCD51E000768991BBF0805
:105180008F4219D9002E17D0FF2117788C433C434A
:105190000F4957780C403F023C439778013E390451
:1051A0000C4F2740D478BFB20F43240601993C43EB
:1051B00010C101910432E0E7074B2B802B7DDB0708
:1051C000FCD53300D1E7F7BD0040004144A5FFFF07
:1051D000FF00FFFFFFFF00FF04A5FFFF044B054A90
:1051E0004908D9611A801A7DD207FCD57047C0469C
:1051F0000040004102A5FFFF70B504000D0016003D
:10520000E36829002000B34205D2FFF7E7FFE36817
:10521000ED18F61AF4E7FFF7E1FF70BD10B51000C6
:105220001A0017F0B0FF10BD0D4BF0B5C4180825DB
:1052300000230C4EA04210D00278120253402A00E4
:105240001FB259008BB2002F01DA71408BB2013AC4
:10525000D2B2002AF4D10130ECE71800F0BDC0460C
:105260004C04000021100000044B10B51B68002BFB
:1052700000D098470122024B1A7010BD3043002025
:105280002C43002010B504000A482200436901693C
:10529000FFF7C4FF2000FFF7C7FF2288064B9A42A2
:1052A00003D1064BE35A834202D02000FFF7DCFF14
:1052B00010BDC04634430020EFBE00004C04000087
:1052C00030B5134C134DA5440400002902D12B78AE
:1052D000002B19D0104B20002380FFF7A5FF0F4BA8
:1052E0002100E0520E4A684617F04DFF0D4C6269EE
:1052F00021692000FFF780FF63696A462169200069
:10530000FFF72AFF00232B70074B9D4430BDC0469A
:10531000ACFBFFFF2C430020EFBEFFFF4C0400005E
:105320004E040000344300205404000070B5050012
:10533000902614F08FFA0849280014F09DFA0024F2
:10534000760006482018C368002B01D02900984732
:105350001834B442F5D170BD2026020000250200A9
:1053600010B50A0004480C21FFF749FE002802D0BE
:105370000122024B1A7010BD002502002C430020B0
:1053800001207047014B19607047C0463043002030
:1053900010B5034A03490448FFF7C6FE10BDC046D6
:1053A0004E04000000200200344300201023224A53
:1053B00091690B439361214B1A7852B2002A3ADB70
:1053C0001F4A2049916020495160517849B2002913
:1053D000FBDB1E495180517849B20029FBDB0221D9
:1053E0001A788A431A70DA7952B2002AFBDB042158
:1053F0001A788A431A70DA7952B2002AFBDB0F213D
:10540000421C0A405A7002220840987019780A43D8
:105410001A70DA7952B2002AFBDB0122C0205A71DD
:105420000B4B03321A6080001A580A491140C022FF
:1054300012040A431A507047000400400010004054
:10544000000C0040040400000403110003440000A9
:1054500000E100E0FFFF00FF0221074B1A788A43BA
:105460001A70DA7952B2002AFBDB1021034A9369E1
:105470008B4393617047C046001000400004004019
:10548000064B1900DA7952B2002AFBDBA5221A7208
:10549000CB795BB2002BFBDB7047C04600100040AD
:1054A00070B5040011F032FF0A25041911F02EFF27
:1054B000A0420AD2FFF7E4FF11F028FF201A0A28C1
:1054C00000D9280011F058FFF0E770BD0123024A0F
:1054D0001370024A937170479A47002000100040F1
:1054E00010B50400034B083303600C3014F045FA88
:1054F000200010BDE427020010B50400FFF7F0FF04
:10550000200014F013FD200010BD0000074B10B563
:105510000833036001230400037205490C3014F0C2
:105520007BFA00232000E36110BDC046E42702009F
:105530002458020030B5264C85B00500200000F04C
:10554000CDF9002837D0200000F0E0F800226B6889
:105550001000013B052B2ED8180014F073FD030931
:105560000D182E341B49200000F098F8022300E0AB
:1055700003236B6000201EE0290020000C3100F0A6
:1055800077FA1549200000F089F80423F1E7134960
:1055900001A814F041FA280001A90C3014F093FB83
:1055A000040001A814F0E9F9002CDFD00023012049
:1055B0006B6004332B7205B030BD0949200000F048
:1055C0006DF80623D5E701236A602B72D2E7C04647
:1055D0009C470020C1270200CC2702007C28020043
:1055E000D6270200F8B501234360DB1804000372DC
:1055F000002919D011F08AFEFA2607007600200053
:10560000FFF798FF051E09D1E369002B08D011F0C0
:105610007DFEE369C01B984202D36560207AF8BD25
:10562000300011F0A9FEEAE7FFF784FFF6E700007B
:1056300010B50400024800F069F8207A10BDC04699
:105640009C47002010B504001C3014F096F920008F
:1056500010BD000070B58360049B06000025C36088
:10566000012304001C3642600561057583610160F9
:105670003000054914F0D0F9A5623000402114F043
:105680009DF9200070BDC04624580200014B024A1B
:105690001A607047C8470020C051002070B5040050
:1056A0000D0011F033FE2369C01A132803D8142308
:1056B000181A11F061FE2900206814F0DDF8206846
:1056C0000368DB68984700232375A36170BD000061
:1056D0000EB410B50A4C0B49A5440400FFAB1833B7
:1056E00004CB02A8019319F075FE02A92000FFF770
:1056F000D5FF054B9D4410BC08BC03B01847C046FD
:10570000F4FBFFFFFF0300000C040000F0B50400F1
:1057100087B0206803681B699847002800D192E091
:10572000206803685B699847634BC6B21868002815
:1057300003D0036831001B68984725001C353100F1
:10574000280014F053FA277D012F48D05B496846A2
:1057500014F062F96946280014F0A9FA0026B04254
:105760000DD0574903A814F057F903A9280014F0E5
:10577000AAFA461EB041C6B203A814F0FEF8684665
:1057800014F0FBF8002E06D0012323754D492800A4
:1057900014F0C8F9BDE74A4903A814F03DF903A97C
:1057A000280014F090FA070003A814F0E6F8002F80
:1057B000AFD0280014F063FB636A002BE6D011F031
:1057C000A5FD2061404BB200D058002803D00368EB
:1057D00029001B6898470136082EF3D1D6E70A2E18
:1057E00097D111F093FD3949206103A814F014F901
:1057F00003A9280014F0F1FA060003A814F0BDF87C
:10580000731C22D0A761A369002B82D0A26A002A50
:1058100013D0012B4ADD03A8636A3200290014F07B
:10582000E3FA03A814F0A9F8280014F028FB2900D3
:10583000A06A14F055F90023A362002321492375BF
:10584000280014F06FF907B0F0BD214903A814F047
:10585000E3F803A9280014F0C0FA060003A814F026
:105860008CF8731C02D00223A361CCE7194903A86A
:1058700014F0D2F803A9280014F0AFFA060003A828
:1058800014F07BF8731C01D00323EDE7124903A841
:1058900014F0C2F803A9280014F09FFA060003A828
:1058A00014F06BF8731CAED00423DDE73100280040
:1058B00014F0D2FAB8E7C046C8470020F427020027
:1058C000F927020024580200CC470020F7270200E5
:1058D000FC270200042802001128020010B5040071
:1058E000FFF714FFA06910BD70B5826204000E00BE
:1058F00011F00CFD050011F009FD401BB04208D26B
:105900002000FFF703FFA0690028F4D00023A36262
:1059100070BD00232000A3621C30034914F002F97B
:1059200001204042F4E7C0462458020010B50400AC
:105930000549FFF7B3FE0022C8212000FFF7D4FF7E
:1059400001384342584110BDF427020070B50500EC
:105950000E0011F0DBFC040011F0D8FC001BB0427B
:1059600008D22800FFF7E2FF012804D0642011F0DC
:1059700003FDF1E7002070BD10B507490400FFF7F3
:105980008DFEFA21002289002000FFF7ADFF0138CB
:105990004342584110BDC046BE17020070B5040016
:1059A000E1230D00616800685B02994200D919008B
:1059B0000368DB699847E3680121D8B211F0E0FE83
:1059C000E3680121D8B211F027FFA06800283CDB72
:1059D000002D3AD0C0B2012111F0D2FEA3680121FE
:1059E000D8B211F019FF642011F0C6FCA3680021A1
:1059F000D8B211F011FF1C492000FFF7A7FF0028C3
:105A000029D0E12362685B0201209A4224D9174918
:105A10002000FFF75DFE0022C8212000FFF764FF91
:105A2000012818D1206803685B6A9847642011F048
:105A3000A3FC206861680368DB6998470A49200075
:105A4000FFF784FF431E984106E007492000FFF757
:105A50007DFF002801D1002070BD2000FFF78CFFE2
:105A60000028C8D1F7E7C046102700001B28020015
:105A700081627047002310B5054A98008458002CB5
:105A800001D1815010BD0133082BF6D1FAE7C04691
:105A9000CC470020002310B5054A980084588C425A
:105AA00002D10023835010BD0133082BF5D1FAE752
:105AB000CC4700202323E12213B5074C0093520268
:105AC000043B06492000FFF7C5FD054A05492000B3
:105AD00014F0B0FA13BDC0469C470020444F00208C
:105AE000000000204556000070B5002504000E009F
:105AF0000849057045608560C160016141611830E9
:105B000013F08AFF6562AE4202D00348FFF7BEFD84
:105B1000200070BD245802009C470020F0B5037897
:105B200085B005000224002B21D07F4E3000FFF706
:105B3000D5FE041E1BD03000FFF7E8FD6F68172F5D
:105B400015D8380014F07EFA0C161D252934596832
:105B50006C72757B7F85898F939A9EB2B7BDC2CDDB
:105B600072493000FFF79AFD01233C006B60200072
:105B700005B0F0BD0223012C08DD002302242B70A8
:105B8000F5E76B493000FFF789FD03236B600024C4
:105B9000EDE7012CF1DC0423F8E72900300018318F
:105BA000FFF766FF63493000FFF778FD0523EDE757
