:1020000000800020818B0100698B0100698B010039
:1020100000000000000000000000000000000000C0
:10202000000000000000000000000000698B0100BB
:102030000000000000000000698B0100D58B01004A
:10204000698B0100698B01002D540000698B010030
:10205000698B0100698B0100698B01006D8B0100A8
:10206000698B0100698B0100698B0100D17D000043
:10207000698B0100C18A0100B18A0100698B0100EE
:10208000698B0100698B0100698B0100698B01007C
:1020900000000000698B0100698B0100698B010061
:1020A000698B0100698B0100698B0100698B01005C
:1020B0000000000010B5064C2378002B07D1054B1B
:1020C000002B02D0044800E000BF0123237010BDA4
:1020D000C002002000000000708C0200044B10B50C
:1020E000002B03D00349044800E000BF10BDC046E8
:1020F00000000000C4020020708C020010B5040033
:10210000183019F010F9200010BD0000F0B5A7B08C
:102110002422002110A81CF068FC2F4D2F49280014
:1021200003F082FAFA212E4CC9002200280003F0A5
:10213000A1FB2C4D2C49280019F062F82100280041
:1021400019F070F8222119A819F05BF919A92000DB
:1021500019F006FB060019A819F0E5F8222119A8C4
:1021600019F04FF919A9200019F043FB07000DAD34
:1021700019A819F0D8F8721C3B002100280019F0AA
:102180003FFB19A900233222280019F0ABFA2800DE
:1021900019F0C9F80CAB03930BAB02930AAB019394
:1021A00009AB009307AA08AB0495104919A81DF0C4
:1021B00031FC079B10A864331593089B013B1493D3
:1021C000099B13930A9B12930B9B11930C9B1093E7
:1021D0001CF0DEFC27B0F0BD60460020A7290200FD
:1021E000B404002030530020B0290200B7290200B7
:1021F00070B501251A4C1B4B1B491C48E5541DF0BA
:1022000077FC1B491B481DF073FC1B491B481DF044
:102210006FFC1B4B1B491C48E5541DF069FCFA225E
:102220001A4B5201E2521A4A0233E5520433E25287
:10223000184B1949E55402231848E3722373E571DA
:1022400025721DF055FC164916481DF051FC164923
:1022500016481DF04DFC164916481DF049FC70BD8E
:10226000044200204B040000E5250200CC4500207C
:10227000EF2502003F440020F62502001E44002006
:102280004904000006260200494400201202000012
:1022900060EAFFFF4A040000D1240200334200201C
:1022A0002B26020053420020F53502007342002025
:1022B0002D260200B34200200A21435E0200181EB0
:1022C00001D01B01D018704770B50D00041E0FD04F
:1022D000C168A9420CD0002D06D0002904D02800E6
:1022E0001DF0FCFB002803D02000FFF7E5FFEDE721
:1022F000200070BD4A688B681032934204D20123DB
:102300000B74002318007047103B8B60002BF9D032
:102310004268002A08D0991A0911518100224360AD
:102320005A811A72DA60EDE70360F7E7F7B50378D0
:1023300004000D002B2B1DD02D2B1CD101270134A7
:1023400023781A00303A092A02D92E2B00D0C9E08E
:1023500000200A26644922781300303BDBB2092BA7
:102360000BD8884211D8DA43704382420DD3C0188B
:102370000134F0E701340027E2E7002A05D1002FFD
:1023800018D080231B06984209D90026574B984243
:102390001AD90A21013619F061FB76B2F6E77F22DD
:1023A0002B7A404293431A000A2313432B7228606E
:1023B0003800FEBD7F222B7A286093431A00082341
:1023C00013432B720127F3E723781A00303A092AC6
:1023D00003D8013676B20134F6E72E2B0FD10A214D
:1023E000434A01342378303BDBB2092B07D89042B3
:1023F00003D84843013E181876B20134F2E720238F
:1024000022789A430023452A3AD162782D2A1FD197
:10241000023401330193002321783039CAB2092AEA
:102420002AD80A225343CB18F118262922DD019A13
:102430002B7A7F20002A11D00024002F01D0802485
:1024400024060C2183430B432B722C60019FAFE7C2
:102450002B2A01D00134DDE70234DBE7002F06D060
:1024600024490C22834313432B722960AAE7FF21DE
:10247000C905F6E70134CFE7019A002A00D05B4294
:102480002478002C2ED1F6181AF0DAFA002E1ADD74
:1024900001231E4204D0184AA300D15819F0BAFFF4
:1024A00001347610E4B2002EF2D1002F02D0802346
:1024B0001B06C0187F222B7A286093431A000C2336
:1024C00013432B727EE77642002EEED001231E428C
:1024D00004D00A4AA300D15819F09CFF01347610A9
:1024E000E4B2F1E7002763E799999919FFFF7F00AC
:1024F000CBCC0C00000080FF98220200802202005A
:1025000070B5094C200002F035FC084D2100280070
:1025100002F0E6FE0028F4D0200002F0B7FE28000A
:10252000002102F07DFE70BD3053002004420020E7
:1025300070B592B0FFF7EAFD954C03A8210018F0A2
:1025400041FF210006A818F03DFF210009A818F05E
:1025500039FF21000CA818F035FF8E4906A818F0A5
:10256000E9FF8D4C0FA8210003F00AFF0FA909A86D
:1025700018F0D8FF0FA818F0D6FE21000FA803F01E
:102580001BFF0FA90CA818F0CDFF0FA818F0CBFE69
:10259000824C834920001DF0ABFA824920001DF0D7
:1025A00081FA814920001DF07DFA804D200029002C
:1025B0001DF078FA7E4920001DF074FA7D4E20004F
:1025C00031001DF06FFA069920001DF06BFA310002
:1025D00020001DF067FA290020001DF063FA7649FB
:1025E00020001DF05FFA310020001DF05BFA099910
:1025F00020001DF057FA310020001DF053FA290089
:1026000020001DF04FFA6D4920001DF04BFA3100FB
:1026100020001DF047FA0C9920001DF043FA31000C
:1026200020001DF03FFA290020001DF03BFA64490C
:1026300020001DF037FAFFF769FD0A2201000FA8FC
:1026400018F022FF0F9920001DF02CFA0FA818F0A7
:102650006AFE290020001DF025FA5A4920001DF0CD
:1026600021FA8523584E9B00F15A0A220FA818F030
:10267000E7FE0F9920001DF015FA0FA818F053FE81
:10268000290020001DF00EFA504920001DF00AFA22
:102690004F4B0A22F15A0FA818F0D2FE0F992000D2
:1026A0001DF000FA0FA818F03EFE290020001DF0D2
:1026B000F9F9484920001DF0F5F9474B0A2219782D
:1026C0000FA818F0ACFE0F9920001DF0EBF90FA831
:1026D00018F029FE290020001DF0E4F93F492000F0
:1026E0001DF0E0F986239B00F15A0A220FA818F08A
:1026F000A7FE0F9920001DF0D5F90FA818F013FEC2
:10270000374920001DF0CEF9364D0A2236492800FF
:1027100018F0E3FD0A223549280018F0DEFD2100FB
:10272000280018F089FD02F05BFE3149280018F0FE
:1027300083FD30490FA818F045FE06A90FA818F030
:1027400063FF2D4918F06DFF00222C4E00921300FC
:102750000100300013F07FFF0FA818F0E4FD210006
:10276000300018F04DFD300014F06BFB24492800B8
:1027700018F062FD0CA818F0D6FD09A818F0D3FDDA
:1027800006A818F0D0FD03A818F0CDFD12B070BD5A
:102790000C660200CC45002074030020C104002018
:1027A000F1260200F3260200FB26020006270200A3
:1027B000082702004A3702001627020022270200DB
:1027C0002B27020038270200044200204227020083
:1027D000120200004E27020024030020602702009E
:1027E0006B270200305300203D3D3D3D6E6F734A24
:1027F0006D270200862702008F2702007803002041
:10280000A1270200F0B58BB0B64907A803F018FE67
:1028100007A819F069F8039007A818F084FDFFF7DE
:1028200075FCB14904A818F0CDFDB04C04A82100F6
:1028300018F080FEAE4EAF49300018F0FDFCAE49F6
:10284000300018F0DDFC2100300018F0F5FCAB4C36
:10285000AB4920001DF04CF9AA4920001DF022F9D7
:10286000A94920001DF01EF9A84D200029001DF0E7
:1028700019F9A74920001DF015F9A64F20003900CD
:102880001DF010F9049920001DF00CF9390020000A
:102890001DF008F9290020001DF004F99E492000D0
:1028A0001DF000F9FFF732FC0A22010007A818F01A
:1028B000EBFD079920001DF0F5F807A818F033FD8F
:1028C000290020001DF0EEF8944920001DF0EAF8E0
:1028D000934B0A220021595E07A818F0B1FD079911
:1028E00020001DF0DFF807A818F01DFD29002000CA
:1028F0001DF0D8F88B4920001DF0D4F88A4B0A222D
:102900000021595E07A818F09BFD079920001DF0D3
:10291000C9F807A818F007FD290020001DF0C2F82B
:10292000824920001DF0BEF8814B0A220021595E29
:1029300007A818F085FD079920001DF0B3F807A837
:1029400018F0F1FC290020001DF0ACF879492000B6
:102950001DF0A8F8784B0A220021595E07A818F04C
:102960006FFD079920001DF09DF807A818F0DBFC0B
:10297000290020001DF096F8704920001DF092F803
:102980006F4B0A220021595E07A818F059FD0799DC
:1029900020001DF087F807A818F0C5FC29002000CA
:1029A0001DF080F8674920001DF07CF8664B0A2274
:1029B0000021595E07A818F043FD079920001DF07B
:1029C00071F807A818F0AFFC290020001DF06AF884
:1029D0005E4920001DF066F85D4B0A220021595E19
:1029E00007A818F02DFD079920001DF05BF807A837
:1029F00018F099FC290020001DF054F855492000DA
:102A00001DF050F8544B0A220021595E07A818F017
:102A100017FD079920001DF045F807A818F083FC62
:102A2000290020001DF03EF84C4920001DF03AF826
:102A30004B4B0A22197807A818F0F1FC07992000DF
:102A40001DF030F807A818F06EFC290020001DF0DA
:102A500029F8444920001DF025F80A22039907A807
:102A600018F0EEFC079920001DF01CF807A818F0DC
:102A70005AFC3D4920001DF015F83C49300018F083
:102A8000DBFB2100300018F0D7FB02F0A9FC38492D
:102A9000300018F0D1FB374907A818F093FC3649ED
:102AA00007A818F0B1FD354918F0BBFD0022344DE0
:102AB000009213000100280013F0CDFD07A818F0C4
:102AC00032FC2100280018F09BFB280014F0B9F913
:102AD0002C49300018F0B0FB04A818F024FC0BB00F
:102AE000F0BDC046AC0400200C660200CC450020BE
:102AF000305300203126020052260200C10400207B
:102B0000F1260200F32602006226020006270200D8
:102B1000082702004A3702002B270200692602001C
:102B20001A0300206F260200DC0200207626020035
:102B3000F80200207B2602002203002080260200EB
:102B40001C03002086260200180300208D260200A8
:102B50001E03002093260200200300209926020075
:102B6000240300209F2602006B270200A5260200F6
:102B7000B926020086270200E00200208F2702000B
:102B800078030020A127020070B505000024AC42A4
:102B90000FDA0121062016F0B1FAC82002F030FC4D
:102BA0000021062016F0AAFAC82002F029FC013400
:102BB000EDE770BD30B58DB005001849684618F0D6
:102BC00001FC174B1B78002B22D0164C1649200015
:102BD00018F016FB2900200018F00BFB1349200009
:102BE00018F02AFB03A81723009A114914F07EFD60
:102BF00003A814F0CEFC00280AD00E49200018F0DB
:102C00001BFB290003A818F00DFB03A814F0B4FC6B
:102C1000684618F088FB0DB030BDC046C9260200DA
:102C2000C004002030530020D2260200DC2602001F
:102C3000F04B0020E7260200F0B593B01D0018AB62
:102C4000160000229B5E0400019319AB00229B5EDC
:102C50000F0002931AAB00229B5E384903931BAB13
:102C600000229B5E364804931CAB00229B5E0593BA
:102C700018F0E2FA334906A818F0A4FB324B1B788F
:102C8000002B56D01723069A304909A814F02EFDC0
:102C90000A22210009A818F02AFB2D4C09A82100BE
:102CA00018F0AEFA0A22390009A818F012FB210028
:102CB00009A818F0A5FA0A22310009A818F009FBA2
:102CC000210009A818F09CFA0A22290009A818F086
:102CD00000FB210009A818F093FA0A22019909A81B
:102CE00018F0F7FA210009A818F08AFA0A220299C6
:102CF00009A818F0EEFA210009A818F081FA0A22B2
:102D0000039909A818F0E5FA210009A818F078FA43
:102D10000A22049909A818F0DCFA210009A818F081
:102D20006FFA0A22059909A818F0D7FA09A814F031
:102D300023FC06A818F0F7FA13B0F0BDB227020082
:102D400030530020C4270200C0040020F04B0020B4
:102D500006270200F0B56C4C6C4D8BB020002900AA
:102D600018F06AFA290007A818F02CFB07A8FFF74B
:102D700021FF07A818F0D7FA654D0321280014F0A9
:102D800047F9644B64491880200018F055FAC820B0
:102D900002F036FB0221280014F03AF95F4F604937
:102DA0003880200018F048FAC82002F029FB0121E1
:102DB000280014F02DF95B4B5B491880200018F0B7
:102DC0003BFAC82002F01CFB0021280014F020F977
:102DD000564B57491880200018F02EFAC82002F0F0
:102DE0000FFB544D0321280014F012F9524B5349A4
:102DF0001880200018F020FAC82002F001FB022100
:102E0000280014F005F94E4E4E493080200018F08D
:102E100013FAC82002F0F4FA0121280014F0F8F89F
:102E2000494B4A491880200018F006FAC82002F0E1
:102E3000E7FA0021280014F0EBF8454B45491880CB
:102E4000200018F0F9F9C82002F0DAFAFFF75EF96D
:102E5000414D42492860200018F0EEF92000404919
:102E600018F0CEF920000023F95E0A2218F035FA96
:102E700020003C4918F0C4F92A4B20000021595E7B
:102E80000A2218F02AFA2000374918F0B9F9274B1E
:102E900020000021595E0A2218F01FFA2000334951
:102EA00018F0AEF920000A220023F15E18F015FA9E
:102EB00020002F4918F0C0F90022BB5E1B4A0021F8
:102EC000525E18490020095E21480024005F0490EA
:102ED0001D480024005F039017480024005F029003
:102EE0000C480024005F01900024305F00902868A7
:102EF000FFF7A2FE1F4A204BD35C002B02D001201B
:102F0000FFF742FE0BB0F0BD30530020A3240200B7
:102F1000280300201A030020BE240200DC02002047
:102F2000C9240200F8020020D52402002203002058
:102F3000E3240200380300201C030020F4240200D4
:102F400018030020032502001E03002013250200A1
:102F50002003002022250200140300203125020056
:102F60007F250200852502008B25020091250200A5
:102F700097250200044200204A040000F0B53F4CAF
:102F80003F4D89B02100280018F056F9210005A80E
:102F900018F018FA05A8FFF70DFE05A818F0C3F9F8
:102FA0003849280018F048F9012702F005FA364E92
:102FB00002A8310003F044FA02A818F095FC3C0086
:102FC0000E280DDD310005A803F03AFA05A818F027
:102FD0008BFC63384442444105A8E4B218F0A3F9DD
:102FE00002A818F0A0F9002C2CD1FA260134B60062
:102FF00000940123254A2649264802F0B3FE0328FF
:1030000033D12100244802F0B3FA04282DD12349FA
:10301000280018F011F90A2002F078F9204C280055
:10302000210018F009F9210005A818F0CBF905A82E
:10303000FFF7C0FD05A818F076F9280018F0EAF8A7
:1030400009B0F0BD1749280018F0F6F8164905A890
:1030500018F0B8F905A8FFF7ADFD05A818F063F959
:10306000FA20400015F0FAFDA1E71049280018F0F9
:10307000C7F8300015F0F2FDBAE7C046CC290200CF
:1030800030530020FA290200AC0400201E44002026
:103090003F44002044040020540300202F2A020053
:1030A000392A0200062A0200112A02001125020014
:1030B000F0B5894D894C85B02900200018F0BCF886
:1030C000290001A818F07EF901A8FFF773FD01A8F7
:1030D00018F029F9824D0121280002F025FC280072
:1030E00002F0EAFB0028FAD07E4E2000310018F0F2
:1030F00087F8310001A818F065F901A8FFF75AFD1B
:1031000001A818F010F97849280002F0A7FAFA216E
:103110000022C900280002F0ADFB744E20003100EF
:1031200018F08AF8724F2000390018F085F839003D
:1031300001A818F047F901A8FFF73CFD01A818F015
:10314000F2F86C49280002F089FA6B4A64212800E1
:1031500002F090FB3100200018F06EF8674F20005D
:10316000390018F04DF8390001A818F02BF901A822
:10317000FFF720FD01A818F0D6F8FA2760492800CB
:1031800002F06CFABF00642015F068FD5D49200074
:1031900018F036F8524D280002F08EFB002239005C
:1031A000280002F067FB0128EDD13100200018F063
:1031B00043F8554F2000390018F03EF8390001A8B7
:1031C00018F000F901A8FFF7F5FC01A818F0ABF81A
:1031D000FA274E49280002F041FABF00642015F09A
:1031E0003DFD4849200018F00BF8280002F064FB70
:1031F00000223900280002F03DFB0128EED1310009
:10320000200018F019F8424D2000290018F014F899
:10321000290001A818F0D6F801A8FFF7CBFC01A8F7
:1032200018F081F863252E4F3A49380002F0FCF976
:10323000FA21314AC900380002F01CFB364901A8C6
:1032400018F0C0F801A92C4818F08AFA070001A864
:1032500018F069F87B1C0CD03B000622264901A817
:1032600018F0CEFA01A818F03FFB050001A818F0ED
:103270005AF8FA20800015F0F1FC1F2DD3DC310044
:10328000200017F0D9FF254D2000290017F0D4FFAA
:10329000290001A818F096F801A8FFF78BFC01A8F7
:1032A00018F041F80E4F1E49380002F0D7F9FA2104
:1032B000114DC9002A00380002F0DCFA194920003B
:1032C00017F09EFF2900200017F0ACFF310020000E
:1032D00017F0B2FF05B0F0BDB0220200305300205D
:1032E00060460020D2220200EF220200F9220200F2
:1032F000FF22020024230200B40400202E23020037
:103300005A23020011250200652302009C230200BB
:10331000A6230200E323020006270200EA2302009C
:103320000124020015240200F0B524C8954211D9E9
:103330000800130007781C785E1CBC4204D1002CE6
:1033400009D001303300F5E7187801331A0000285E
:10335000FAD1EBE700221000F0BD0023F0B585B0F4
:1033600007000C00029103920093994208D0016873
:10337000994208D17F22237A934323720123009339
:10338000009805B0F0BD039E3000FFF7CDFF051E8D
:103390001BD1BB6875680193B2680133EB18934287
:1033A00007D9012333747F22237A934323720023A6
:1033B000E5E77360002DF6D0019A396828001BF00C
:1033C000F8FA6A46019B1278EA547F22237A256034
:1033D00093431A00052313432372CFE770B5037A92
:1033E0000D0016007F211A0004000A4005D18B430E
:1033F0005F390B430372026042602022237A13403C
:10340000181E12D0281E10D029002068FEF75CFF7D
:1034100000280AD131002000FEF76CFF002804D0FC
:103420007F22037AC5601340037270BD10B502009D
:10343000037A20200340181E02D01068FEF744FFD4
:1034400010BD437C002B06D1C3685A1CC2601B7898
:10345000037401234374007C704710B504002000FE
:10346000FFF7EFFF0A2806D8092808D2002809D05C
:10347000012020720CE00D2801D02028F8D1002373
:103480006374ECE7237A58345A1E93410133237056
:1034900010BD1FB57F220300007A104004380828B1
:1034A0002ED818F0C7FA0F0F052D082D0D2D1A0074
:1034B000187804B010BD1868C343DB171840F8E74C
:1034C0001868F6E71868002301AC23722100FEF7A4
:1034D0002DFF2000FFF7DDFFEBE7CF211C68090679
:1034E000201C18F0ABFC0028E3D09E21201CC9054D
:1034F00018F090FC0028DCD0201C19F081FAD8E7E5
:103500000020D6E770B530C814340E002000290022
:10351000FFF78CFF002806D07F22037A1340082B88
:1035200003D00A2B04D030680AE00368002BFADBD2
:1035300029002000FFF77AFF002801D0FFF7A9FF3C
:1035400070BD70B504000D00FFF77BFF0023A8429B
:1035500001D163740133180070BD2F2815D90123E0
:10356000392803D95E2803D97A2803D81800704770
:1035700040280AD901235A28F8D9002301222D38DE
:10358000C0B282425B41DBB2F0E701232B28F4D1C9
:10359000ECE737B500236A461370C3B27F280BD817
:1035A00053706B460233013B1878002831D00A680B
:1035B000541C0C601070F6E73F2480226D462340B7
:1035C0005242134380096B7085B2C3B21F2D06D8D7
:1035D000403213436A4693706B460333E3E76D460C
:1035E000234000041343800DAB70C3B20F2805DCE9
:1035F000202252421343EB7001ABD4E71C4010234E
:1036000080115B4218436B462243EA7028710533F0
:10361000C9E737BDF7B505000027FFF712FF6F7444
:1036200001902800FFF70DFF0024019A03006C743D
:10363000824259D0A04204D10223583500202B7079
:10364000FEBD5C284BD12800FFF7FBFE0028F3D01D
:10365000284B752839D104266C742800FFF7F1FE39
:103660000028E9D0402806D83038C0B20F2806D943
:1036700058350323E2E7202398433738F5E7002342
:103680002401013E0443F6B2A4B26B749E42E4D11D
:10369000A0239B01E318184A9BB2934202D8A405C9
:1036A000A70DBEE790239B01E3189BB22000934235
:1036B00006D880238005BC02800D20435B02C01821
:1036C0002900FFF766FFACE702331A78002ACFD053
:1036D0009042F9D15B78002BCAD000226A742A6824
:1036E000511C296013709CE72B6801205A1C2A602A
:1036F0001C70A5E7672A0200FF030000036870B58D
:1037000043600400FFF79DFE27280DD022280BD030
:103710002000FFF796FE0500FFF71FFF061E09D1E8
:1037200003235834237003E02000FFF773FF0600E3
:10373000300070BD00236374236820005A1C22608F
:103740001D70FFF77EFE0500FFF707FF0028F1D18F
:1037500023685A1C22601870EAE7F7B504000D00D0
:103760001F1CFFF77AFE0190002801D1002658E0C7
:103770002000FFF766FE272800D17BE01DD8222815
:1037800000D177E02000FFF75CFE00260090009853
:10379000F7B2FFF7E2FE002800D17EE00136402EAE
:1037A00000D179E06A46002312786374A319DA75B0
:1037B0002000FFF746FE0090E9E75B2813D07B2846
:1037C000E0D17F222B7A290093431A002023134350
:1037D0002B72002300222B606B6020003B1C00F04A
:1037E00087F806001DE07F222B7AFFB293431A0070
:1037F000402313432B7200232B606B609F4203D145
:10380000583405332370B1E763742000FFF725FEB9
:103810000028ABD05D212000FFF793FE061E02D0EA
:10382000019E3000FEBD61692800FEF763FD011EA8
:1038300003D1042358342370F3E77B1E00222000B9
:10384000FFF78BFF002800D190E72000FFF705FE6F
:10385000002800D18AE75D212000FFF772FE0028D2
:10386000DED12C212000FFF76CFE0028DBD158347C
:103870000323C7E7236820006360FFF7CBFE061E23
:1038800000D173E77F2263682B602B7A93431A0081
:10389000042313432B72C4E73F270021E319197651
:1038A000237E742B0DD17F222B7A93431A0006239B
:1038B00013432B7201232B70042FB1D058340223F1
:1038C000A0E7662B0AD17F222B7A297093431A0036
:1038D000062313432B72052FF0D1A1E76E2BEBD0FB
:1038E000200029001830FEF721FD0028BFD097E7FF
:1038F000F7B5DFB204000E00002F04D105235834C1
:10390000237000250DE000234374FFF7A6FD01900E
:103910000028F6D07D212000FFF713FE051E28D0D9
:10392000019D2800FEBD6368306819000093FEF712
:10393000CBFC002831D001007B1E00222000FFF7C5
:103940000CFF0028DDD02000FFF787FD0028D8D02D
:103950007D212000FFF7F5FD0028E1D12C2120007A
:10396000FFF7EFFD002814D02000FFF776FD0028B8
:10397000C7D02000FFF7C2FE0028C2D02000FFF70A
:103980006CFD0028BDD03A212000FFF7DAFD0028A9
:10399000C9D1032358342370C3E761693000FEF7AF
:1039A000A9FC002802D158340423F4E77F22037ACB
:1039B00013400372009BC360BDE710B504000068AC
:1039C00003685B68984763681818606010BD70B53D
:1039D000050008000C001CF093F8210002002800EC
:1039E000FFF7EBFF70BDF0B5162407000D000A26A7
:1039F00087B06C442800310018F0B6F8013C303133
:103A000021702800310018F029F8051EF2D1162384
:103A10006B441A1B21003800FFF7CFFF07B0F0BD41
:103A200010B50400006803685B689847636818185D
:103A3000606010BD70B5050008000C001CF060F857
:103A4000210002002800FFF7EBFF70BDF0B516243F
:103A500007000D000A2687B06C442800310018F0DA
:103A600083F8013C303121702800310017F0F6FF57
:103A7000051EF2D116236B441A1B21003800FFF7F4
:103A8000CFFF07B0F0BD00000623F7B50E1C0700FE
:103A900083725849301C18F0D1F9002844D0002313
:103AA000142420250093544B311C185918F0B2F9F6
:103AB000002809D0514B301C195918F0ABFC009B61
:103AC000061CE81803B20093043C6D10231DEAD1D4
:103AD00003340021301C18F0A7F9002828D0301C2E
:103AE0001AF08CFD464A474B18F05AF900281FD0AF
:103AF000A300019323061BD4434B019A311C985811
:103B000018F092F900280AD03B4B019A301C9958C2
:103B100018F080FC009B061C581B03B20093019B0D
:103B20006D10013C043BE4E7202505240090D0E71C
:103B30006B461B88301C3B8118F0D8F90400334DCC
:103B400038600190019B092B0DD90A21280017F03C
:103B500085FFBB7A0500013B0198BB720A2117F073
:103B60007DFF0190EEE7200018F06AFF011C301C79
:103B700018F082FD061C280018F062FF011C301CA2
:103B800018F048FC019018F0B1F9060018F058FF41
:103B9000011C019818F070FD011C18F0DBF918F0F9
:103BA000A5F98619AE4214D27E600A257E682900E6
:103BB000300017F0D9FF00291AD10A243C57002CF5
:103BC00016DD2900300017F049FF013C7860BC7217
:103BD000ECE700237B60009B01343C60002BE4D0C9
:103BE000092CE2D918000123013038813B60DCE761
:103BF0003800FEBD8096184B9822020080220200F9
:103C0000F168E388B5F8E43E6822020040420F0004
:103C100010B50400006803681B68984763681818AB
:103C2000606010BD70B50D00040022212000FFF778
:103C3000EFFF2978002909D00A4B01351E78002EA4
:103C4000F4D05A788A4206D00233F7E722212000C6
:103C5000FFF7DEFF70BD5C212000FFF7D9FF3100C8
:103C6000E4E7C046692A0200F0B504008DB0081CE4
:103C70000E1C18F0BFF8002805D141492000FFF7BD
:103C8000A6FE0DB0F0BD0021301C18F0B3F80028DE
:103C900009D1311C301C18F05DF9011C301C18F0E2
:103CA000A9F80028E9D10021301C18F0A9F8002853
:103CB00006D02D212000FFF7ABFF80231B06F6184E
:103CC00003AD311C2800FFF7DFFE03992000FFF74A
:103CD0008AFE0A23EB560093002B23D06F680193D2
:103CE0000AAE019B013E013B5BB2019301330BD055
:103CF00038000A2117F038FF3031317038000A21BE
:103D000017F0ACFE0700ECE76B461B782026D94382
:103D10002E228B1902A8C2540AAB4A42200059181D
:103D2000FFF74BFE0822AB5E002BAAD065212000D6
:103D3000FFF76EFF0823EE5EB5B2002E05DA2D21E7
:103D40002000FFF765FF7542ADB226260A2702ABB9
:103D5000F6182800390017F007FF013E30313170A6
:103D60002800390017F07AFE85B2002DF1D1262304
:103D700002AA9B189A1B31002000FFF71EFE80E765
:103D8000622A02007F2270B5037A05000C001340FE
:103D9000062B00D169E008D8022B0DD3032B50D895
:103DA00006CD2000FFF709FE25E00C2B1FD005D81B
:103DB000082B58D00A2B49D030495BE0202B21D06A
:103DC000402BF9D15B212000FFF722FF2D68002D49
:103DD00013D021002800FFF7D5FF2800FEF76CFA6A
:103DE000051E0AD02C212000FFF712FFEFE7016823
:103DF0002000FFF739FF606870BD5D212000FFF7EC
:103E000007FFF8E77B212000FFF702FF2D68002D58
:103E100015D0E9682000FFF705FF3A212000FFF7E1
:103E2000F7FE21002800FFF7ADFF2800FEF744FA57
:103E3000051E04D02C212000FFF7EAFEE7E77D21D4
:103E4000DCE701682000FFF7EDFED4E70568002DF0
:103E500004DA2D212000FFF7DBFE6D42290020004F
:103E6000FFF7C1FDC7E70168F9E703780449002BB4
:103E700000D104492000FFF7AAFDBCE7622A020036
:103E8000782A02007D2A020010B50C00002802D01A
:103E9000FFF778FF10BD20000249FFF798FD60682A
:103EA000F8E7C046622A020010B504000068036803
:103EB0001B68984763681818606010BDF0B504006F
:103EC0008DB0081C0E1C17F095FF002805D1414944
:103ED0002000FFF7AFFD0DB0F0BD0021301C17F042
:103EE00089FF002809D1311C301C18F033F8011C5F
:103EF000301C17F07FFF0028E9D10021301C17F09B
:103F00007FFF002806D02D212000FFF7CDFF802362
:103F10001B06F61803AD311C2800FFF7B5FD039909
:103F20002000FFF793FD0A23EB560093002B23D0CC
:103F30006F6801930AAE019B013E013B5BB20193A6
:103F400001330BD038000A2117F00EFE30313170EA
:103F500038000A2117F082FD0700ECE76B461B785A
:103F60002026D9432E228B1902A8C2540AAB4A42FA
:103F700020005918FFF754FD0822AB5E002BAAD091
:103F800065212000FFF790FF0823EE5EB5B2002EFA
:103F900005DA2D212000FFF787FF7542ADB22626F6
:103FA0000A2702ABF6182800390017F0DDFD013EA4
:103FB000303131702800390017F050FD85B2002DE6
:103FC000F1D1262302AA9B189A1B31002000FFF78B
:103FD00027FD80E7622A020070B50D00040022214F
:103FE0002000FFF761FF2978002909D00A4B01352D
:103FF0001E78002EF4D05A788A4206D00233F7E7B2
:1040000022212000FFF750FF70BD5C212000FFF748
:104010004BFF3100E4E7C046692A02007F2270B5F9
:10402000037A05000C001340062B00D169E008D884
:10403000022B0DD3032B50D806CD2000FFF7F0FC48
:1040400025E00C2B1FD005D8082B58D00A2B49D0BF
:1040500030495BE0202B21D0402BF9D15B2120009F
:10406000FFF722FF2D68002D13D021002800FFF755
:10407000D5FF2800FEF720F9051E0AD02C212000CC
:10408000FFF712FFEFE701682000FFF717FF6068F6
:1040900070BD5D212000FFF707FFF8E77B212000BE
:1040A000FFF702FF2D68002D15D0E9682000FFF70B
:1040B00093FF3A212000FFF7F7FE21002800FFF7C9
:1040C000ADFF2800FEF7F8F8051E04D02C212000D3
:1040D000FFF7EAFEE7E77D21DCE701682000FFF754
:1040E0007BFFD4E70568002D04DA2D212000FFF7BF
:1040F000DBFE6D4229002000FFF7A8FCC7E701683E
:10410000F9E703780449002B00D104492000FFF7A8
:1041100091FCBCE7622A0200782A02007D2A020094
:10412000F0B5584FD5B05849380017F085F8FA2047
:10413000400101F065F9FDF7E9FF544905A817F0C2
:1041400041F9534B0BA819681BF0D2FC2CAC34ABD3
:104150002C93636054ABA360E36000237F2523743A
:10416000237F2200AB4323774A4931A8FFF736F972
:10417000002806D00423027AAA4313430372464B55
:104180000360FDF7C3FF22000500444931A8FFF793
:1041900025F9002807D07F22037A056093431A008F
:1041A00008231343037222003D4931A8FFF716F993
:1041B0002200010008903B480994FFF7CEF8220046
:1041C000394931A8FFF70AF9061E16D00BA92000BD
:1041D000FFF7AAF8051E4BD10BA81BF091FC0300BA
:1041E00065680133A268EB180390934235D9012327
:1041F00023747F22337A93433372002408A931A8B1
:1042000008970994FFF740FE380017F003F8274994
:1042100005A817F08FF9234905A817F0B7F9244925
:1042200005A817F0C5F9234D2300220005A9009425
:10423000280012F010FA08A931A808950994FFF790
:10424000EDFE280012F0FDFD1049114817F072F93B
:1042500005A817F068F855B0F0BD6360002DC8D010
:10426000039A0BA928001AF0A4FB0023039AAB546D
:104270007F22337A356093431A0005231343337248
:10428000BBE7C046305300206D2902000C660200D7
:10429000EC02002089290200832902008E290200F5
:1042A00098290200E00200209F29020086270200D0
:1042B0008F27020078030020F8B5434E434F3100AA
:1042C000380017F07FF8424C424D22002900380098
:1042D00017F0A8FB404F3100380017F073F82200A8
:1042E0002900380017F09EFB3C4F3100380017F0D2
:1042F00069F822002900380017F094FB384F31008C
:10430000380017F05FF822002900380017F08AFB08
:10431000344F3100380017F055F8290022003800DA
:1043200017F080FB304F380001F0B6F822002F491B
:10433000380017F077FB2E4F0021380001F09AFB70
:1043400022002C49380017F06DFB2B4F012138005B
:1043500001F0B6FF22002949380017F063FB39004D
:10436000274803F06BFE22002649254817F05AFB28
:10437000254F2349380011F0D7FF22002349380088
:1043800017F050FB224801F0EFFF0021214802F016
:104390004BF8214F3100380017F014F822002900A3
:1043A000380017F03FFB1D4F3100380017F00AF8B6
:1043B00029002200380017F035FB194812F0A7FD3C
:1043C000184812F0A4FDF8BD0C660200B4040020E9
:1043D0000000002027B30100FC020020E0020020C2
:1043E00008030020EC020020540300206D5400005C
:1043F00044040020FD2000006C040020CD5D00007E
:10440000B80600207D7F00007803002019620100BB
:1044100074030020AC040020D84100204803002091
:104420002803002038030020E121F0B58A4C85B034
:104430004902200015F04AFA8849200016F0FCFED7
:104440000421874813F0BCF8864D061E55D18649D5
:10445000200016F0F1FE2E70844B854D1B78052050
:104460002B70FEF791FB834E48213200824812F0F8
:1044700055FD32004921814812F050FD2B789B06F2
:1044800042D57F4D2000290016F0D6FE290001A854
:1044900016F098FF01A8FEF78DFB01A816F043FF68
:1044A0007849200016F0C8FE00F086FFE12176482A
:1044B000490216F075FB754E300000F093FE74490A
:1044C000300000F00FFF300000F08CFEFEF718F80F
:1044D000704F380002F002FB002827D16E492000FF
:1044E00016F0AAFE664901A816F06CFF01A8FEF7B7
:1044F00061FB01A816F017FFFEE7012367492000C2
:104500002B7016F099FEA7E7654D2000290016F0E4
:1045100093FE290001A816F055FF01A8FEF74AFBFB
:1045200001A816F000FFFEF7C3FDB9E75D4D0822B4
:104530000021280003F05AF8390001A802F0DCFB42
:104540000199280003F070F801A816F0ECFE28008D
:1045500003F018FA5449554803F05BFC280003F0B7
:104560005DF80700280003F05CF83A000300002122
:104570004F4803F06DFD4F4BF35C4F4E012B0BD1B9
:104580004E49200016F058FE4D494E4816F0D2FF15
:104590004D49300016F0CEFF4C4D3100280016F08A
:1045A000F5FF4B49280017F003F8464F2800390063
:1045B00016F0ECFF4749280016F0FAFF46492000A4
:1045C00016F01EFE2900200016F02CFE434E390086
:1045D000300011F0B1FE424901A816F0F3FE01AA25
:1045E0002900300011F0ADFE01A816F09CFE30004D
:1045F0003C4911F09FFE0121062014F033FDE1211A
:104600002148490216F0CCFAE1212000490215F0B8
:104610005DF900F0D1FE3449200016F00DFE0A20AD
:1046200000F074FE3149200016F006FE00F0D8FEBE
:1046300080211148C90012F083FC80210F48C90075
:1046400012F07EFC00222A4B2A481A8001F08EFECE
:10465000FEF794FC05B0F0BD30530020C02B0200E3
:10466000F04B0020C0040020D82B0200380400408A
:10467000240300205848002028030020380300208D
:10468000062C02002F2C0200704E00200442002055
:10469000F1210000084700203F2C0200F42B02000B
:1046A0001A2C0200AC4700200D210000944A002083
:1046B000B80600204B04000008030020522C020022
:1046C000CC450020E002002049440020D8410020D1
:1046D0008D270200752C02008D2C0200780300202B
:1046E0000C660200494A0000992C0200A72C020027
:1046F000AE0400207403002030B5A5B031496846EF
:1047000016F060FE3049684616F014FF2F496846DF
:1047100016F03CFF2E49684616F04AFF2D4B03A8C1
:1047200019681BF0E5F92C4C2C49200016F068FDA7
:1047300003A9200016F064FD2949200016F07CFD35
:10474000284D294A03A9280012F04CFB00281CD14F
:104750002649200016F054FD280011F0FEFD0A2223
:104760000100200016F0B9FD214800F049FE214863
:1047700001F008FB032802D0FEF700FCE0E71E482A
:1047800000F01CFF0428F7D1DAE7200016F042FD04
:104790001A49200016F050FD200016F03BFD184984
:1047A000200016F02DFD6946200016F03BFD00228A
:1047B0006946280012F0F6F9684616F0B4FD25B0F7
:1047C00030BDC0460C66020086270200E0020020D1
:1047D0002924020008030020305300204124020055
:1047E000EC34020078030020B322000011250200FF
:1047F0008813000044040020540300205D240200BC
:104800008124020070B57A4B8CB01B78794C7A49C0
:10481000002B00D17949200016F00EFD784D2000C4
:10482000290016F009FD290009A816F0CBFD09A8FA
:10483000FEF7C0F909A816F076FD00F0D1FD714829
:1048400001F0A0FA032800D1BBE06F4D2000290041
:1048500016F0F2FC290009A816F0B4FD09A8FEF72D
:10486000A9F909A816F05FFDFEF788FB674811F06B
:10487000D6FD002810D1664D2000290016F0DCFC82
:10488000290009A816F09EFD09A8FEF793F909A8CA
:1048900016F049FDFFF730FF0220FEF775F95D497C
:1048A000200016F0C9FC5C49200016F0C5FCFEF79C
:1048B00051FA5A49200016F0BFFC534909A816F0D6
:1048C00081FD09A8FEF776F909A816F02CFD5449D8
:1048D00009A816F077FD534E03A8310001F0B0FD92
:1048E00003A817F001F80A22010006A816F0BAFD85
:1048F00006A909A816F088FE4B4916F092FE0100A1
:10490000684616F005FE06A816F00DFD03A816F081
:104910000AFD09A816F007FD6946200016F082FC82
:10492000694609A816F0F4FD09A8FEF743F909A89D
:1049300016F0F9FC310006A801F082FD06A816F079
:10494000D3FF002563280ED0310009A801F078FDBF
:1049500009A816F0C9FF01230F2800DC2B1C09A8A9
:10496000DDB216F0E0FC06A816F0DDFC002D2FD01D
:104970002E4D2000290016F05FFC290009A816F032
:1049800021FD09A8FEF716F909A816F0CCFC1F486E
:1049900011F002FFC82000F033FDFDF733FF24497A
:1049A000200016F049FC234A234BD05A00F028FD82
:1049B000224A684613880133138016F0B4FC0CB009
:1049C00070BD1F4800F0FAFD042800D03DE74DE718
:1049D0001C4D2000290016F02FFC290009A816F014
:1049E000F1FC09A8FEF7E6F809A816F09CFCD6E74A
:1049F000C004002030530020832A0200962A0200BF
:104A0000A52A020044040020B32A020078030020F3
:104A1000CF2A0200E82A0200182B0200262B0200EF
:104A20003F2B0200AC040020512B0200552B02004A
:104A3000A72B02000442002012020000AE04002056
:104A400054030020842B0200F0B5A84CA84DA544C7
:104A500000AF082629000400A64816F0D1FB290063
:104A60006025BB19581916F0ADFCBB195819FEF793
:104A7000A1F8BB19581916F056FC6A46A319DB08B1
:104A8000DB00D31A9D466D466E46731B9C4205DDC6
:104A9000994811F0AEFB30700136F6E7E34300268B
:104AA000DB171C402E552900924816F0A9FB9148AF
:104AB00016F0B0FB082160237A18D41829002000D2
:104AC00016F080FC2000FEF775F8200016F02BFC95
:104AD000082180237A18D218BA667A18D31863602E
:104AE000A0239B00D218A2607A18D3187F22E3601B
:104AF000237FFD609343237733007A185C33BD61D5
:104B0000D31874250C203E613E757E7726743C6276
:104B10001E700E0079180A23491900223818FEF772
:104B20001CFEBB1975495819FEF780FC002800D1FE
:104B3000DAE07F22037A1340043B012B00D9D3E053
:104B40000568002D00D1CFE06D496A4816F058FB8A
:104B50002900684816F070FB6A4928001AF0BEFF69
:104B6000061E00D0A3E06849624816F065FB614B61
:104B700008250C22FB6074237819B918C0183E610F
:104B8000FFF782F95B4816F045FB0C225F4B013EB4
:104B90007919B818FC603B61BE60FEF7B3FC0C22CB
:104BA0005B4B7919B818FC603B61BE60FEF7AAFC4C
:104BB0000C22584B79193860B818FC603B61BE6014
:104BC000FEF7A0FC544B05003B610823F9180433A1
:104BD000F818FC60BE60FEF795FC2A004F4B643A63
:104BE00078604F4C9A420ED84E49424816F008FB66
:104BF0000A2229003F4816F06CFB4B493D4816F04D
:104C00001BFB4A4BE5523B68013B0E2B11D8394E3A
:104C10004749300016F0F4FA0A222900300016F055
:104C200058FB4449300016F007FB85233A889B0067
:104C3000E2527B68404A013B002593420ED82D4D3D
:104C40003E49280016F0DCFA0A222800796816F09E
:104C500044FB86230125BA889B00E25201212000F3
:104C600000F0DEFAFDF764FC002D11D00C2434496D
:104C7000204816F0E1FA3349381916F0A3FB381929
:104C8000FDF798FF381916F04EFB2F4B1B6898471D
:104C90000121234800F0C4FA2C4B9B68002B01D063
:104CA000FFF73EFABD46A3239B009D44F0BD284973
:104CB00028001AF013FF002811D10C2425490D48B3
:104CC00016F0BAFA2449381916F07CFB3819FDF7AA
:104CD00071FF381916F027FBFDF72AFCD8E71F49AA
:104CE0001A4816F027FCD3E71D49F9E774FDFFFFCA
:104CF000CD2702003053002078030020EB2702006C
:104D0000F0270200F32C0200002802001D280200F8
:104D10002128020028280200312802005CD401006A
:104D200004420020392802005B2802001202000021
:104D30005F280200732802000E0E00008228020085
:104D400097280200AC280200B0040020EC020020EA
:104D5000C8280200CD280200F92802000F2902000D
:104D60005129020010B50121014800F059FA10BD87
:104D700004420020F0B5B9B0040013F039FFFA2363
:104D800001259B00C318009300232F00029313F00A
:104D90002FFF009BC01A00D4AEE0029BF92B00D974
:104DA000AAE0002D12D05949200016F045FA210042
:104DB000574800F03FF9200000F068FA55492000FC
:104DC00016F01EFA029B0133DBB202932368200027
:104DD0001B69984700282AD1236820001B6998473F
:104DE000051ED4D000231E000393019313F000FF8F
:104DF000009BC01A75D5019B002B23D1236820008E
:104E00005B699847051EF1DD13F0F2FEFA239B0063
:104E1000C31800930D2D3CD1236829001B68200086
:104E2000984713F0E5FE323003900197DEE72368E0
:104E300020009B6998470028CED1236820005B6939
:104E40009847C3E7236820009B699847431C58D1C3
:104E500013F0CEFE039BC01AD0D4002505AB9B19DE
:104E60001D70AE4293DB12D02B4905A81AF0FCFD51
:104E7000A84241D005AA3900254800F070F8A842A0
:104E800033D013F0B5FEFA239B00C31800933D0006
:104E90007DE70A2D05D1236829001B68200098476B
:104EA000DBE700230193082D01D07F2D09D19E421D
:104EB0009CD0236803225B68184920009847013E74
:104EC00094E7C72E92D82B00203B5E2B8ED8236808
:104ED000EDB21B6829002000984705AB9D550136AF
:104EE00084E7002505AB1D7051E705A90C4800F0CB
:104EF000E7F90028C5D1CAE7200016F08BF939B0D0
:104F0000F0BD0A2800D179E7A7E7C046B12C02001E
:104F1000D42C0200BD2C0200D12C0200CD2C0200AA
:104F200004420020F7B506000F0000240192BC42A5
:104F300012D018236343F3185D6828001AF0E0FDCF
:104F40002900020001981AF0E2FD631C002801D13B
:104F50002000FEBD1C00EAE701204042F9E770B5E1
:104F600006001500FFF7DEFF002398420DDB182432
:104F700044433419A6680133002E06D060681AF045
:104F8000BFFD29182000B0470123180070BD70B57F
:104F900004690500002C08D0426920001AF0ECFDDD
:104FA0006B69E4180023013C237070BD10B50469DF
:104FB0000B00002C05D00022180011001AF056FF3B
:104FC000207010BD10B504690B00002C05D0002224
:104FD000180011001AF04AFF208010BD70B50C00B7
:104FE00005000A49200016F00BF92968200016F088
:104FF00007F90749200016F003F96968200016F048
:10500000FFF80449200016F0FBF870BDEB340200F5
:10501000FF2C0200022D020070B50C0005000800F4
:1050200016F0F8F82968200016F0EAF8200016F0CB
:10503000F1F870BD70B505690C00FFF7CFFF002DCA
:1050400004D02900200016F0F7F870BD200016F0FB
:10505000E1F8FAE770B505690C00002D06D0FFF7FE
:10506000BDFF29780A22200016F051F970BD70B5F5
:1050700005690C00002D06D0FFF7B0FF29880A2231
:10508000200016F02AF970BD30B5094D094CAB6807
:105090005B035B0F9B001C590460AB6801619BB212
:1050A00043606343A4008360C460426130BDC04676
:1050B00000400041082D0200F7B580261A4D0191ED
:1050C0006F6803333E439B086E60002B2BD0174E56
:1050D0002E802E7DF107FCD51E000768991BBF08A6
:1050E0008F4219D9002E17D0FF2117788C433C43EB
:1050F0000F4957780C403F023C439778013E3904F2
:105100000C4F2740D478BFB20F43240601993C438B
:1051100010C101910432E0E7074B2B802B7DDB07A8
:10512000FCD53300D1E7F7BD0040004144A5FFFFA7
:10513000FF00FFFFFFFF00FF04A5FFFF044B054A30
:105140004908D9611A801A7DD207FCD57047C0463C
:105150000040004102A5FFFF70B504000D001600DD
:10516000E36829002000B34205D2FFF7E7FFE368B8
:10517000ED18F61AF4E7FFF7E1FF70BD10B5100067
:105180001A0019F016FC10BD0D4BF0B5C418082517
:1051900000230C4EA04210D00278120253402A0085
:1051A0001FB259008BB2002F01DA71408BB2013A65
:1051B000D2B2002AF4D10130ECE71800F0BDC046AD
:1051C0004C04000021100000044B10B51B68002B9C
:1051D00000D098470122024B1A7010BDE841002010
:1051E000E441002010B504000A4822004369016927
:1051F000FFF7C4FF2000FFF7C7FF2288064B9A4243
:1052000003D1064BE35A834202D02000FFF7DCFFB4
:1052100010BDC046EC410020EFBE00004C04000071
:1052200030B5134C134DA5440400002902D12B784E
:10523000002B19D0104B20002380FFF7A5FF0F4B48
:105240002100E0520E4A684619F0B3FB0D4C62692A
:1052500021692000FFF780FF63696A462169200009
:10526000FFF72AFF00232B70074B9D4430BDC0463B
:10527000ACFBFFFFE4410020EFBEFFFF4C04000049
:105280004E040000EC4100205404000070B50500FD
:10529000902615F0BFFF0849280015F0CDFF002427
:1052A000760006482018C368002B01D029009847D3
:1052B0001834B442F5D170BD20340200003302002E
:1052C00010B50A0004480C21FFF749FE002802D05F
:1052D0000122024B1A7010BD00330200E44100208D
:1052E00001207047014B19607047C046E84100201B
:1052F00010B5034A03490448FFF7C6FE10BDC04677
:105300004E040000002E0200EC4100201023224A2F
:1053100091690B439361214B1A7852B2002A3ADB10
:105320001F4A2049916020495160517849B20029B3
:10533000FBDB1E495180517849B20029FBDB022179
:105340001A788A431A70DA7952B2002AFBDB0421F8
:105350001A788A431A70DA7952B2002AFBDB0F21DD
:10536000421C0A405A7002220840987019780A4379
:105370001A70DA7952B2002AFBDB0122C0205A717E
:105380000B4B03321A6080001A580A491140C022A0
:1053900012040A431A5070470004004000100040F5
:1053A000000C00400404000004031100034400004A
:1053B00000E100E0FFFF00FF0221074B1A788A435B
:1053C0001A70DA7952B2002AFBDB1021034A936982
:1053D0008B4393617047C0460010004000040040BA
:1053E000064B1900DA7952B2002AFBDBA5221A72A9
:1053F000CB795BB2002BFBDB7047C046001000404E
:1054000070B5040013F0F4FB0A25041913F0F0FB47
:10541000A0420AD2FFF7E4FF13F0EAFB201A0A28A1
:1054200000D9280013F01AFCF0E770BD0123024AEE
:105430001370024A937170475246002000100040DA
:10544000044B054A1A60054B054A1A60054B064A8B
:105450001A60704754460020A86100005C46002096
:10546000C0C62D005846002020A1070010B504003A
:10547000034B083303600C3015F055FF200010BDBE
:10548000E435020010B50400FFF7F0FF200016F02D
:1054900059FA200010BD0000074B10B50833036017
:1054A00001230400037205490C3015F08BFF002323
:1054B0002000E36110BDC046E43502000C66020026
:1054C00030B5264C85B00500200000F0CDF900284D
:1054D00037D0200000F0E0F800226B681000013B9C
:1054E000052B2ED8180016F0A5FA03090D182E3436
:1054F0001B49200000F098F8022300E003236B60B2
:1055000000201EE0290020000C3100F077FA154938
:10551000200000F089F80423F1E7134901A815F0F1
:1055200051FF280001A90C3016F0ABF8040001A8C7
:1055300015F0F9FE002CDFD0002301206B6004334E
:105540002B7205B030BD0949200000F06DF806232C
:10555000D5E701236A602B72D2E7C046604600207F
:10556000C1350200CC3502007C360200D63502007F
:10557000F8B501234360DB1804000372002919D039
:1055800013F036FBFA26070076002000FFF798FF9D
:10559000051E09D1E369002B08D013F029FBE3694C
:1055A000C01B984202D36560207AF8BD300013F02A
:1055B00055FBEAE7FFF784FFF6E7000010B50400AB
:1055C000024800F069F8207A10BDC046604600200D
:1055D00010B504001C3015F0A6FE200010BD000020
:1055E00070B58360049B06000025C360012304009E
:1055F0001C36426005610575836101603000054914
:1056000015F0E0FEA5623000402115F0ADFE20004F
:1056100070BDC0460C660200014B024A1A6070471A
:105620008C4600203053002070B504000D0013F0AC
:10563000DFFA2369C01A132803D81423181A13F0A9
:105640000DFB2900206815F0F7FD20680368DB6872
:10565000984700232375A36170BD00000EB410B5F8
:105660000A4C0B49A5440400FFAB183304CB02A835
:1056700001931AF09BFE02A92000FFF7D5FF054B0E
:105680009D4410BC08BC03B01847C046F4FBFFFFA4
:10569000FF0300000C040000F0B5040087B0206890
:1056A00003681B699847002800D192E020680368CE
:1056B0005B699847634BC6B21868002803D003683B
:1056C00031001B68984725001C353100280015F073
:1056D00078FF277D012F48D05B49684615F072FEA0
:1056E0006946280015F0C1FF0026B0420DD0574989
:1056F00003A815F067FE03A9280015F0C2FF461E97
:10570000B041C6B203A815F00EFE684615F00BFEB8
:10571000002E06D0012323754D49280015F00AFFFD
:10572000BDE74A4903A815F04DFE03A9280015F06E
:10573000A8FF070003A815F0F6FD002FAFD0280042
:1057400016F0A9F8636A002BE6D013F051FA206135
:10575000404BB200D058002803D0036829001B68D2
:1057600098470136082EF3D1D6E70A2E97D113F0C9
:105770003FFA3949206103A815F024FE03A9280047
:1057800016F037F8060003A815F0CDFD731C22D0E3
:10579000A761A369002B82D0A26A002A13D0012B33
:1057A0004ADD03A8636A3200290016F029F803A82D
:1057B00015F0B9FD280016F06EF82900A06A15F062
:1057C00097FE0023A362002321492375280015F0CA
:1057D000B1FE07B0F0BD214903A815F0F3FD03A900
:1057E000280016F006F8060003A815F09CFD731CAF
:1057F00002D00223A361CCE7194903A815F0E2FD0A
:1058000003A9280015F0F5FF060003A815F08BFD8D
:10581000731C01D00323EDE7124903A815F0D2FD54
:1058200003A9280015F0E5FF060003A815F07BFD8D
:10583000731CAED00423DDE73100280016F018F801
:10584000B8E7C0468C460020F4350200F935020066
:105850000C66020090460020F7350200FC3502007D
:10586000043602001136020010B50400FFF714FFE1
:10587000A06910BD70B5826204000E0013F0B8F983
:10588000050013F0B5F9401BB04208D22000FFF725
:1058900003FFA0690028F4D00023A36270BD002399
:1058A0002000A3621C30034915F044FE0120404251
:1058B000F4E7C0460C66020010B504000549FFF786
:1058C000B3FE0022C8212000FFF7D4FF0138434275
:1058D000584110BDF435020070B505000E0013F0FC
:1058E00087F9040013F084F9001BB04208D22800A5
:1058F000FFF7E2FF012804D0642013F0AFF9F1E7CD
:10590000002070BD10B507490400FFF78DFEFA2195
:10591000002289002000FFF7ADFF013843425841C3
:1059200010BDC0465A23020070B50400E1230D00EB
:10593000616800685B02994200D919000368DB695D
:105940009847E3680121D8B213F08CFBE36801218A
:10595000D8B213F0D3FBA06800283CDB002D3AD06E
:10596000C0B2012113F07EFBA3680121D8B213F06D
:10597000C5FB642013F072F9A3680021D8B213F0BC
:10598000BDFB1C492000FFF7A7FF002829D0E12319
:1059900062685B0201209A4224D917492000FFF770
:1059A0005DFE0022C8212000FFF764FF012818D106
:1059B000206803685B6A9847642013F04FF92068F9
:1059C00061680368DB6998470A492000FFF784FF94
:1059D000431E984106E007492000FFF77DFF00289D
:1059E00001D1002070BD2000FFF78CFF0028C8D136
:1059F000F7E7C046102700001B360200816270479F
:105A0000002310B5054A98008458002C01D181501C
:105A100010BD0133082BF6D1FAE7C04690460020AE
:105A2000002310B5054A980084588C4202D1002307
:105A3000835010BD0133082BF5D1FAE790460020C2
:105A40002323E12213B5074C00935202043B06497D
:105A50002000FFF7C5FD054A0549200015F0E2FFCB
:105A600013BDC04660460020B45000200000002056
:105A7000D155000070B5002504000E0008490570DE
:105A800045608560C16001614161183015F09AFC84
:105A90006562AE4202D00348FFF7BEFD200070BD34
:105AA0000C66020060460020F0B5037885B0050062
:105AB0000224002B21D07F4E3000FFF7D5FE041EBC
:105AC0001BD03000FFF7E8FD6F68172F15D838009E
:105AD00015F0B0FF0C161D25293459686C72757BC2
:105AE0007F85898F939A9EB2B7BDC2CD724930002F
:105AF000FFF79AFD01233C006B60200005B0F0BD6C
:105B00000223012C08DD002302242B70F5E76B49EA
:105B10003000FFF789FD03236B600024EDE7012CC3
:105B2000F1DC0423F8E7290030001831FFF766FFA5
:105B300063493000FFF778FD0523EDE7012CF0DC29
:105B40002E006049183601A815F03CFC01A9300070
:105B500015F097FD040001A815F0E5FB002C01D01D
:105B60000A23D9E7584901A815F02CFC300001A9F7
:105B700015F087FD060001A815F0D5FB002EC2D058
:105B800006236B60B9E7AB68002BBCD0290030005E
:105B90001831FFF733FFAA684C493000FFF75EFD6C
:105BA0000723B9E70823012CB6DDACE748493000EC
:105BB000FFF73AFD0923AFE7012CD1DDA3E7454903
:105BC0003000FFF731FD0B23A6E70C23012CA3DDEA
:105BD00099E741493000FFF727FD0D239CE70E238D
:105BE000012C99DD8FE73D493000FFF71DFD0F23A4
:105BF00092E71023012C8FDD85E7EA6838493000F1
:105C0000FFF72CFD112387E71223012C84DD7AE7AF
:105C10002B6969691A78002A02D10A78002A06D00D
:105C20000A0030002F49FFF719FD132374E72E49AE
:105C30003000FFF713FDF8E71423012C00DC6BE7BD
:105C400061E72A493000FFF7EFFC152364E7012CD8
:105C500000DD58E716235FE7290030001831FFF711
:105C6000CDFE23493000FFF7DFFC172354E7012C5A
:105C700000DD48E728002B6A1830591E15F02EFD6C
:105C8000FB230340302BE5D0312B02D030380828DD
:105C900005D118236B60153B2B7001242DE70228DA
:105CA00003D1162328706B6037E7032800D024E760
:105CB00029E7C04660460020303602003A3602002E
:105CC000443602004D360200533602005B360200B5
:105CD000D6350200683602007236020080360200B5
:105CE0008A360200A1360200BB3602009C23020065
:105CF00026360200F7B51D0008AB160004CB0F00D6
:105D000019780AAB1B780400154800920193FFF73D
:105D10000BFE002803D1002323702078FEBD009BDA
:105D20000020636101232370019BA760E660256169
:105D300060608342F2D012F05BFF05002000FFF7A5
:105D4000B3FE0028E9D1636A002B05D012F050FFA2
:105D5000636A401B9842DED2642012F07FFFEDE7B9
:105D60006046002030B51C0085B008AB1D78044BA0
:105D7000029501940093FFF7BDFF05B030BDC0460A
:105D80000C660200007870470020704713B56B4620
:105D90000268D9710733546819000122A04716BD63
:105DA00080690130431E9841C0B2704713B56B46FD
:105DB000DC1D036801225B6A21009847012801D19C
:105DC000207816BD01204042FBE77047094B0100D7
:105DD0001A0010B504000832543302600361103118
:105DE0000548FFF71DFE2000343015F09CFA200016
:105DF00010BDC046783702006046002010B5040090
:105E0000FFF7E4FF200015F09DFD200010BD00000D
:105E1000F0B5474E89B004003000FFF725FD051EA0
:105E200017D0236A581E092813D8002315F002FE44
:105E30000514373E43494D6E737A210030003431EA
:105E4000FFF7DCFD3B493000FFF7EEFB02230025A6
:105E50002362280009B0F0BD012D0FDC2600364971
:105E6000343605A815F0AEFA05A9300015F0FDFB93
:105E7000070005A815F057FA002F02D1002323626E
:105E8000E7E7E36B3000591E15F028FC230030389B
:105E9000A06132331B78002B15D00323D7E7A2690A
:105EA00026493000FFF7DAFB0423D0E70523012D54
:105EB000CDDD0923CBE722493000FFF7B5FB0623F0
:105EC000C5E7012DF5DC0723C1E7E36A218EA2694E
:105ED000002B06D0009130001A49FFF7BFFB0823C2
:105EE000B5E7230028331B78039121002B31097873
:105EF0003000029121002A310978019121002931D5
:105F0000097800911049FFF7A9FBE8E7012DD0DCE3
:105F10000122E261B3E7A2690C493000FFF79EFB62
:105F20000A2394E7236201235B42A36191E7C04601
:105F300060460020CC360200D7360200E036020070
:105F4000F136020002370200163702003337020032
:105F500010B5036804001B699847002804DDA16997
:105F6000034800F08BFB10BD01204042FBE7C04618
:105F7000B046002070B50025826904000562AA427F
:105F800011DB094E09493000FFF768FB2A00084978
:105F90003000FFF76FFCA169064800F097FA012373
:105FA0005B42A361E56170BD6046002033370200AB
:105FB00010270000B046002010B504000D48FFF780
:105FC0006BFBA16900204B1C12D00B4800F0A8FA13
:105FD000002808DB230032331B780120002B07D078
:105FE000E369002B04D1236820009B6A98470020B6
:105FF00010BDC04660460020B046002010B5037DAD
:106000000400002B0AD023682000DB6B984700288F
:10601000F9D0A1694B1C07D1002010BD0368DB6BD0
:1060200098470028F5D1F7E7044800F079FA0028EE
:10603000F3DA236820009B6A9847EDE7B04600201A
:1060400070B5836904000E001500013301D10020F2
:1060500070BD002AFBD003681B6998470028F6D062
:106060002B003200A169024800F018FBF0E7C0469F
:10607000B04600207FB50C000500134901A815F0BB
:10608000A1F901A9200015F0F0FA060001A815F009
:106090004AF9002E17D00921200015F01FFBAB692B
:1060A000303883420FD1094901A815F08BF920003F
:1060B00001A915F0E6FA040001A815F034F9002C46
:1060C00001D00023EB617FBD623702006C37020014
:1060D00008B4024B9C46103808BC6047756000004D
:1060E0000300F0B58FB0039133331B780400150023
:1060F000002B0DD023682000DB6B98470028F9D0D7
:10610000A36901330AD10023009300980FB0F0BDBA
:106110000368DB6B98470028F2D1F4E7484905A8EB
:1061200015F050F9802329005B009D4200D9190029
:106130004900133105A815F017F900230093002D2D
:1061400071D080232E005B009D4200D91E0071009B
:10615000133105A815F008F93A4905A815F0EAF930
:10616000A16905A815F036FA374905A815F020FAF7
:10617000310005A815F03BFA344905A815F018FAC6
:10618000009A039B9446634402930193019B0F2260
:106190001F783B09190017403031092B01D93733DB
:1061A000190005A815F00DFA39003031092F00D972
:1061B000073105A815F005FA019B029A01330193F6
:1061C0009B1A9E42E2D8224905A815F0F1F9214F09
:1061D00005993800FFF728FA230033331B78002B8A
:1061E00028D0174908A815F0EDF808AA1A49380070
:1061F000FFF740FB01281AD0042811D117490BA83A
:1062000015F0E0F80BA908A815F0AAFA05000BA8EC
:1062100015F089F86B1C03D0236820009B6A98470F
:1062200008A815F080F805A815F07DF86DE708A816
:1062300015F079F8009BAD1B9B1900937FE7C046D2
:106240000C6602003F3702000627020049370200B1
:106250004A37020060460020102700004C37020039
:10626000FA2370B500259B008360124B0400456043
:106270001800083020602000543323612275A1618A
:10628000E56129002562243014F0F0FE230001228C
:1062900020003233E562258607491D705A7034307C
:1062A00015F090F8210005481031FFF7A9FB2000F8
:1062B00070BDC046783702000C66020060460020C0
:1062C0000A00012110B504004942FFF7C9FF200070
:1062D00010BD10B583690400013302D003689B6AC6
:1062E0009847237D002B0BD023682000DB6B984759
:1062F0000028F9D00120237D2062002B07D110BD9A
:1063000023682000DB6B98470028F3D1F7E7236868
:106310002000DB6B9847002803D1643012F09EFC0C
:10632000F5E7A0690130431E9841E8E74B6810B5D6
:1063300002860200836200233232C3621370FFF7C9
:10634000C8FF10BD70B504000E00243000211500F8
:1063500014F094FE230000223233E66225862000EA
:106360001A70FFF7B6FF70BD7047000010B501212D
:106370000248FFF7D9FA431E984110BD604600203D
:1063800070B50400094915F01DF80F21200014F024
:10639000EBFF074D07492800FFF746F928002200C8
:1063A0006421FFF767FA200070BDC0460C6602004A
:1063B00060460020D03702007FB50400164D29004A
:1063C00015F000F81B21200014F0CEFF134E1449E5
:1063D0003000FFF729F9FA21220089003000FFF789
:1063E00049FA104901A814F0EDFF01A9200015F0A9
:1063F0003CF9060001A814F096FF002E07D00722F2
:106400000021200015F01AFA200004B070BD290008
:10641000200015F08FF8F7E70C66020060460020B8
:10642000D8370200E037020010B50400002902D07E
:106430000248FFF7F1F8200010BDC046604600207A
:106440007FB5184E0500310001A814F0BBFF164CB3
:1064500016492000FFF7E8F801AA64212000FFF7A1
:1064600009FA012818D1202101A815F064F92C217E
:10647000040001A815F091F90300621C0CD0421C25
:106480000AD0621C01A9280015F0BAF901A814F07D
:106490004AFF280004B070BD3100280014F092FFBC
:1064A000F4E7C0460C66020060460020E3230200C9
:1064B00010B50400044B5422083308C0002118F022
:1064C00094FA200010BDC0460C38020010B50C2410
:1064D0004C4304196068002805D018F03FFA0023E7
:1064E000A3606360E36010BD70B505000024064B37
:1064F00008330360210028000134FFF7E7FF072C71
:10650000F8D1280070BDC0460C38020010B5040058
:10651000FFF7EAFF200015F015FA200010BD00007B
:10652000F0B50C244C430419E56889B000900F00C5
:10653000002D00D08BE06368002B06D18020800006
:1065400018F002FAE560A0606060454902A814F006
:1065500039FF8023434E3A00434930009B00FFF748
:106560007DF802AA41493000FFF784F901281AD0CA
:10657000022800D171E004280FD13D4905A814F08C
:1065800021FF05A902A815F0EBF8050005A80135C3
:1065900014F0C9FE6B1E9D416D4202A814F0C3FEAB
:1065A000280009B0F0BD334905A814F00BFF05A978
:1065B00002A815F05AF8060005A814F0B4FE002E43
:1065C000EBD02D4905A814F0FDFE05A902A815F091
:1065D000C7F8050005A814F0A6FE6A1C00250021D6
:1065E00002A815F02BF9049B02A8591E15F040F9DA
:1065F000049B5B080193019B9D421ED0690002A889
:1066000015F054F86B000678591C02A815F04EF8E6
:106610003300303B0278DBB2392E01D9373EF3B27A
:106620001600303EF6B2392A01D9373AD6B21B01EC
:106630006268334353550135DDE76368009AA36010
:106640000C237B43D318DD6002A814F06CFE0C23EE
:106650005F43009BDF19FD68A2E701259CE7C04668
:106660000C66020060460020F1370200102700008F
:106670004C370200003802004A37020070B50400AF
:106680000D00FFF74DFF002805D00C216943641869
:10669000A368187870BD01204042FBE7F8B50600FA
:1066A0000C0017001D00FFF73BFF002811D08542AA
:1066B00000DD05000C235C4334192A00A168380072
:1066C00018F077F92800A3685B19A360E3685B1BE7
:1066D000E360F8BD10B5054C2000FFF7E9FE044A61
:1066E0000449200015F09EF910BDC046B0460020B8
:1066F00000000020E9640000704710B5040015F0A8
:1067000021F9200010BD10B50368C9B21B68984775
:1067100010BD10B504004068217A0368DB6A984711
:1067200002216068FFF7EFFF606803685B6B9847C2
:106730000023984203D1012012F090FA012318009F
:1067400010BD00000B4B10B5134004D52020013BB9
:106750004042034301331F24D01720401C3CA1407A
:106760008018DA172240D31840119B1000021843FA
:10677000084310BD1F000080F0B5081E1BD000208C
:10678000824218D08B189C46082201230E781C00E8
:106790003440651EAC41C70B400080B2BC4202D001
:1067A000054C604080B25B00013ADBB2002AEED1BA
:1067B00001316145E8D1F0BD0580FFFFF0B585B03E
:1067C00000AFFC6AFB8023006E4608333B60073352
:1067D000DB08DB00F31A03269D4605001E70E01D52
:1067E000013E58709970DA70B91D320001A818F096
:1067F000E0F86B462200B96A981D18F0DAF86B468B
:10680000621D591C2800FFF7B7FF0E23F881A01D59
:106810003200F918684418F0CCF86868297A0368DF
:10682000DB6A98476868694603683A685B68984716
:10683000686803685B6B9847BD464342584105B0A2
:10684000F0BDF0B5130085B000AFBA60D51C6A4644
:106850000A33DB08DB00D31A9D46FB6015230400D6
:1068600039607B606068217A03682A009B6B1E0098
:106870000123B047A84204D07B68013B7B60002B1A
:10688000F0D1606803685B699847FB681870C0B214
:10689000A84203D00020BD4605B0F0BDFB685D1CDA
:1068A0002E00606803681B699847002806D060685E
:1068B00003685B69984728700135F2E7BB68F9689F
:1068C0005D1C2A002000FFF757FFBA68FB689B1881
:1068D0009A78FB6812025B5D13439842DAD1BA687A
:1068E0003100386818F065F80120D4E737B50400A6
:1068F0004068124903689B6A9847606800210368F2
:10690000DB6A9847606803685B6B98470C4812F035
:10691000C9F96B46DD1D012229002000FFF791FF18
:10692000002809D02B780020112B05D1606805497B
:1069300003689B6A984701203EBDC046A0860100BF
:10694000DC05000040420F0073B504000D00160086
:10695000FFF7CCFF002801D1002076BD0022ABB2AA
:106960000192009240212000FFF728FF0028F3D079
:10697000732012F073F9402231002000FFF761FF0D
:106980000028E9D0012012F069F92000FFF7C1FECC
:106990000120E2E730B585B00400FFF7A7FF00282B
:1069A00002D1002005B030BD0022472101920092A3
:1069B00013002000FFF702FF0028F2D00F25092066
:1069C0006D4412F04BF9012229002000FFF739FF36
:1069D0000028E6D0012012F041F92000FFF799FECF
:1069E000287843425841DDE730B585B004000D00FA
:1069F000FFF77CFF002802D1002005B030BD402306
:106A000000950193012247212000FFF7D7FE0028BF
:106A1000F2D00F2509206D4412F020F9012229003F
:106A20002000FFF70EFF0028E6D0012012F016F933
:106A30002000FFF76EFE287843425841DDE7F7B5A6
:106A400004000F0015001E00FFF750FF002801D1C1
:106A50000020FEBDABB20195009702224721200025
:106A6000FFF7ACFE0028F3D0092012F0F7F820223F
:106A700031002000FFF7E5FE0028E9D0012012F0E8
:106A8000EDF82000FFF745FE0120E2E730B50024D5
:106A900085B005000394FFF729FFA04202D1002032
:106AA00005B030BD0194009423002200302128005D
:106AB000FFF784FE0028F2D0022012F0CFF8042263
:106AC00003A92800FFF7BDFE0028E8D0012012F03E
:106AD000C5F82800FFF71DFE0398E1E710B5040094
:106AE00040680368DB6998472000FFF7FFFE20003D
:106AF000FFF70FFE2000FFF7C9FFF0231B0418402B
:106B0000034BC018034B18404342584110BDC046C8
:106B10000000B0FFFFFFEFFF30B585B004000D00AF
:106B2000FFF7E4FE002802D1002005B030BD20238D
:106B3000009501930322002316212000FFF73EFE5B
:106B40000028F1D00F251D206D4412F087F8012296
:106B500029002000FFF775FE0028E6D0012012F082
:106B60007DF82000FFF7D5FD287843425841DCE747
:106B7000F0B5A5B004000F001600FFF7B7FE00281F
:106B800002D1002025B0F0BD04AD4022390028001C
:106B900017F00FFF4022310014A817F00AFF8023DE
:106BA0000095019302227C3B45212000FFF706FE61
:106BB0000028E6D00F2548206D4412F04FF801223E
:106BC00029002000FFF73DFE0028DBD0012012F055
:106BD00045F82000FFF79DFD287843425841D1E752
:106BE00070B5040015001E00FFF796FF002806D0C0
:106BF000320029002000FFF7BBFF431E984170BD03
:106C000073B504000D001600FFF770FE002801D1D7
:106C1000002076BD0022ABB2019200924121803269
:106C20002000FFF7CBFD0028F2D0462012F016F826
:106C3000402231002000FFF704FE0028E8D00120A8
:106C400012F00CF82000FFF764FD0120E1E7F0B539
:106C500085B006000D0003921F000A9CFFF746FE58
:106C6000002803D10024200005B0F0BD042C03D07F
:106C7000202CF7D180231D4300216B46EAB29B896B
:106C80003000019100910231FFF798FD0028E9D012
:106C9000052011F0E3FF220039003000FFF7D1FD9D
:106CA0000028DFD0012011F0D9FF3000FFF731FDBF
:106CB000D9E773B5002204260C000B0000961100E2
:106CC0000500FFF7C4FF002801D1002076BD231D79
:106CD0000096022200212800FFF7B9FF0028F4D017
:106CE000230000960833032200212800FFF7AFFF9E
:106CF000431E9841EAE7000070B50D0086B0002100
:106D0000040014F05FFB69462800FFF7D2FF00285B
:106D10001ED01221200014F027FB00256B465E5D7B
:106D20000F2E03D80C49200014F042FC1022310031
:106D300003A814F074FB03A9200014F027FC01350C
:106D400003A814F0F0FA092DE8D1200014F096FD04
:106D5000200006B070BDC046EF360200F0B585B029
:106D600002900F0003921D000F291DD80324202636
:106D70001C4002D0002005B0F0BDAC4217DA2B1B3E
:106D80001F2B00DC0426220039000298FFF7DAFCF2
:106D9000039B02001B19009602210298FFF757FF80
:106DA0000028E7D0A419E8E701204042E3E70120EA
:106DB000E1E71FB5042303AC009315222300002153
:106DC000FFF745FF002806D00020A378834202D1B8
:106DD000E0784342584104B010BDF0B585B00500DD
:106DE0000C0016001F00FFF781FD002802D10020D3
:106DF00005B0F0BD0A9B042B03D0202BF7D16033E4
:106E00001C430A99B3B20191E2B200971221280003
:106E1000FFF7D4FC0028EAD00F241A206C4411F0AC
:106E20001DFF012221002800FFF70BFD0028DFD005
:106E3000012011F013FF2800FFF76BFC207843427C
:106E40005841D5E7F0B585B002900F0003921D00C0
:106E50000F291DD8032420261C4002D0002005B095
:106E6000F0BDAC4217DA2B1B1F2B00DC04262200DE
:106E700039000298FFF766FC039B02001B1900967D
:106E800002210298FFF7A9FF0028E7D0A419E8E73C
:106E900001204042E3E70120E1E7F0B58BB00500B7
:106EA0000E001400FFF722FD002822D0002C22D073
:106EB00000221B210192009213002800FFF77EFCA4
:106EC000002815D0172011F0C9FE202202A92800A1
:106ED000FFF7B7FC00280BD027001F2C00DD202770
:106EE00030003A0002A917F064FDE41BF619DDE753
:106EF00000200BB0F0BD012011F0B0FE2800FFF71C
:106F000008FC0120F5E7F0B589B00D0017006946CF
:106F1000202204001E00FFF7C0FF002802D100203D
:106F200009B0F0BD39002000FFF7F6FD0028F6D0CB
:106F3000320029002000FFF763FE431E9841EFE76F
:106F4000064B0748083310B50360064B064A4360FA
:106F500060230649037214F065FD10BD1C38020061
:106F6000084700205848002000000020F966000073
:106F700030B59C68039B88689968049B95689A68FB
:106F8000059B9B68002800D00B30002D01D00B35ED
:106F90004019002C01D00B340019002901D00B310D
:106FA0004018002A01D00B328018002B01D00B337F
:106FB000C01830BD5B2070470A0030B50020202586
:106FC00020320C5C2B1A002C0ED101302028F8D175
:106FD00001230D0040313F351478881A002C0AD166
:106FE000AA4204D00132F7E7E4091B19F1E70120B6
:106FF0001533181830BDE4090019F9E70B78002B98
:1070000004D1012A04DD0131013AF7E7DB09D21886
:10701000901C70470420FF2903DC01387F2900DC25
:10702000013870473023F7B5137093701D3BD37050
:107030000D3B9C46137107235371053BD372013BF3
:10704000137353750633937559204223019161469A
:10705000507013763D2000232A2786264825CE240B
:10706000517308219072D07453763A380433977173
:10707000D6711572D77316745574547291739474D3
:107080001075D07593761B3210000199402217F0CD
:1070900090FC5B20FEBD3023F7B50F002024137059
:1070A000263B5370043B93700233D3702233137129
:1070B0005C3353713E3B93718633D371913B1372B2
:1070C000393B5372013B9372013BD37220370091DD
:1070D000009B1B78002B01D1012C0AD10800403104
:1070E0003F303E78CD1B002E09D1874206D00137B4
:1070F000F7E7009B013C01330093E9E70125DB0939
:10710000E4180323F609AD191373E0B2EBB201934F
:10711000C318DBB2D91D0433137402235173302614
:1071200000215374009B9173D67390741B787F2B4E
:1071300025D81332160030002200009917F039FCD0
:10714000009B36191B787F2B00D901340223337042
:107150006B461B79B01C73703B787F2B03D90023DF
:10716000F01CB370013D2A00390017F022FC3B7877
:107170007F2B00D90135200015304019FEBD1600C7
:10718000D1741436013CD6E770B50D0014002A788E
:10719000002A04D1012C04DD0135013CF7E7D209B6
:1071A000A41802225C701A702A78981C7F2A03D9CE
:1071B0000022D81C9A70013C2200290017F0F9FB2C
:1071C0002B787F2B00D90134A01C70BD312070B505
:1071D0008C681870E0B2050009355D7030259D702F
:1071E000C51DDD7006251A7213221D71033D5D71E8
:1071F00052359D71513DDD715A7298720B331800F2
:107200000968220017F0D5FB20000B3070BDF7B5E0
:107210001E008B68050017000B9C002B04D0230078
:107220000622FFF7D3FF2418BB68002B06D02300EB
:10723000082239002800FFF7C9FF2418B368002B83
:1072400006D02300072231002800FFF7BFFF2418D3
:10725000089B9B680193002B06D023000A22089903
:107260002800FFF7B3FF2418099B9B680193002BAC
:1072700006D023000B2209992800FFF7A7FF241846
:107280000A9B9B680193002B05D0230003220A99D7
:107290002800FFF79BFFF7BD30231370FF290DDD9A
:1072A0005233081253709070D31C19700420FF29B8
:1072B00003DC01387F2900DC01387047531C7F292B
:1072C000F3DD8120931C5070EFE70000F7B50193C8
:1072D000424B0E0000920B9D99426ADD1823FA2161
:1072E0002B70093B6B708900300014F041FCFA21CF
:1072F0003030A8708900300014F020FD08006421AF
:1073000014F036FC3030E8706421300014F016FDC3
:1073100008000A2114F02CFC303028710A213000BA
:1073200014F00CFD3031AC1D69710A21009814F085
:107330001FFC303020700A21009814F0FFFC30311F
:10734000617001980A2114F013FC3030A0700A21FA
:10735000019814F0F3FC3031E17008980A2114F020
:1073600007FC303020710A21089814F0E7FC303116
:10737000617109980A2114F0FBFB3030A0710A21D9
:10738000099814F0DBFC3031E1710A980A2114F0FD
:10739000EFFB303020720A210A9814F0CFFC5A23F8
:1073A000A3720E4B3031617211209E4200DC023814
:1073B000FEBD0B4B2C1DCF1817232B700A3B6B7097
:1073C0000A21380014F0D4FB3030A8700A213800AC
:1073D00014F0B4FC3031E970A7E7C04601080000A2
:1073E00030F8FFFF30230B70263B4B70043B8B7053
:1073F0000233CB7022330B715C334B713E3B8B718C
:107400008633CB71913B0B72393B4B72013B8B72D4
:10741000013B0C20CB72704710B504000D4B0833B4
:107420000360443013F07FFF2000383013F07BFFFF
:1074300020002C3013F077FF2000203013F073FF72
:107440002000143013F06FFF2000083013F06BFFA2
:10745000200010BD2C38020010B50400FFF7DCFF3F
:10746000200014F06FFA200010BD000070B5040079
:10747000114B124D083303602900083013F0A2FFAE
:1074800020002900143013F09DFF20002900203037
:1074900013F098FF200029002C3013F093FF2000F8
:1074A0002900383013F08EFF20002900443013F0FB
:1074B00089FF200070BDC0462C3802000C66020017
:1074C00010B5054C2000FFF7D1FF044A0449200005
:1074D00014F0A8FA10BDC046184700200000002094
:1074E00019740000704710B5040014F02BFA200046
:1074F00010BD000010B5044B04480833044A054988
:10750000036014F08FFA10BD3C380200A847002039
:1075100000000020E574000070B50500124BA43592
:107520000833036004002868002803D017F016FA17
:1075300000232B602000483013F0F5FE20003C3083
:1075400013F0F1FE2000303013F0EDFE2000243067
:1075500013F0E9FE2000183013F0E5FE20000C3097
:1075600013F0E1FE200070BD5038020010B5040099
:10757000FFF7D2FF200014F0E5F9200010BD000055
:1075800070B50400164B174D0833036029000C300A
:1075900013F018FF20002900183013F013FF20000B
:1075A0002900243013F00EFF20002900303013F0A2
:1075B00009FF200029003C3013F004FF20002900BF
:1075C000483013F0FFFE2300074A9C331A60012263
:1075D0005A6022000023A43220001360536070BD63
:1075E000503802000C6602004C38020010B503004F
:1075F0000C0000201100082C0CD8083A072A09D8E2
:107600005C60996054331A0003484823FFF7A6FBD7
:10761000431E984110BDC04608470020A4300068B2
:107620007047A8300068704710B5483013F082FFEB
:1076300010BD00000300FA22F0B594331B78D2008D
:10764000DB06DB0E9B1802009832127887B0D20658
:10765000D20E9B181A4A04001E27934200DD0237FF
:1076600022002300174D9C33A032196812682800AD
:10767000FFF7C4FC06002000230022002100483050
:10768000029030340C3824331832019000940C31BD
:107690002800FFF76DFC010004002800FFF7BAFC8A
:1076A00005902800FFF786FC0300059A1136A41800
:1076B0006400A619B81C3018C018043007B0F0BD1B
:1076C0000108000014470020F0B51400020091B03A
:1076D0000F91FA2194321278C900D206D20E5218B4
:1076E0000B92020095321278564D1207120F0C922F
:1076F0000200963212780600D206D20E0D920200D7
:10770000973212781900D206D20E0E920200183269
:107710000A928032177828002200FFF7BDFDA023CF
:107720000222201803709D3B437082700271012376
:1077300032003100C370441DA0329C312300126816
:1077400009682800FFF720FD241821002800FFF712
:1077500049FE33000C330593183306930C3307931B
:107760000C330893089B48360193079B2418009319
:107770000A9A069B0599029628000996FFF7F8FBDE
:107780002200010004902800FFF786FD099B2418C1
:107790000293089B03940193079B0A9A009305990F
:1077A000069B2800FFF733FD049BFF06E4183023F7
:1077B00023700B9BFF0E244ADF190223974200DC43
:1077C00000231E336370A61C00241E4D0E9B0396DF
:1077D00000930C9A0D9B0B99029401942800FFF7DB
:1077E00075FD0E9B3618039600930C9A0D9B39007D
:1077F000029401942800FFF769FD361832000499BD
:107800002800FFF749FD099B36180293089B039651
:107810000193079B0A9A00930599069B2800FFF79E
:10782000F6FC049B0F99F61832002800FFF7FAFBCC
:10783000A32330180370A13B43702E338370C470B0
:1078400011B0F0BD14470020010800001823F0B566
:107850004A4EA7B000AF04003961FA184168300001
:10786000FFF772F8002854D02000FFF7E3FE050070
:1078700001004348FFF7CEFB6A462B187B610733B4
:10788000DB08DB00D31A9D46BB602B0018256A4637
:1078900079192000FFF718FF3B69002B3CD04022EC
:1078A00078190021801817F0A0F83000FFF772F85F
:1078B00000282DD000257B69304EAB4213DD5A1BCA
:1078C000BB6859193F2A06DD3000FFF78DF8002804
:1078D0001ED04035EFE7182040233818C318300079
:1078E000FFF7ADF8F3E72500182140227918543549
:1078F0008A182B0061683000FFF705FB002807D0CD
:1079000048232A00A1683000FFF79CFA002803D121
:107910000020BD4627B0F0BD2300194E5433190096
:107920003000FB60FFF748FB7B6925001B1819003E
:1079300030003B61FFF76EFB3B69A8351918A43492
:10794000296020687C6018F017F87B68041E1860B6
:1079500001D12860DCE7020039693000FFF79CFCA8
:1079600024187A69B968200017F023F87B69F96850
:10797000E2183000FFF78FFB0120CAE7084700201C
:107980001447002010B50021FFF760FF431E984107
:1079900010BD000010B5054C2000FFF7F1FD044AB2
:1079A0000449200014F03EF810BDC046AC4700204A
:1079B000000000201975000010B503689C6B0123BE
:1079C000A04710BD8C2300229B00C154103BC3185C
:1079D0005A609A60DA6001238375704710B50368B6
:1079E00001211B6B984710BDF8B505000E0017006C
:1079F0000024BC4208D02B68315D1B6828009847E2
:107A0000002801D00134F4E72000F8BDFC30406AC2
:107A1000704770478E239B00C15070478D239B0099
:107A2000C15070470300FC335A6A002A03D01B6A16
:107A3000C018007E704701204042FBE770B5060089
:107A400018250C49006911F0D9FE306911F017FDB5
:107A50002B000821307D084C4343E318595611F0A0
:107A600079FB0821707D45436419615611F072FB62
:107A700070BDC046A08601007883020070B5040086
:107A80000D00006911F010FD2900206911F0B6FE0B
:107A9000206911F0F4FC70BD10B5006911F004FD0F
:107AA00010BD0000F7B50193FA23802600250400DD
:107AB0009B008360134B760008330F00456029005C
:107AC000009203603200183016F08FFF2300200070
:107AD000FC332530DD6132001D6229005D62FF301C
