:020000040000FA
:10000000FC7F0020790B0000690B00006D0B0000E5
:1000100000000000000000000000000000000000E0
:10002000000000000000000000000000710B000054
:100030000000000000000000750B0000CD0C000067
:1000400010B5064C2378002B07D1054B002B02D0AE
:10005000044800E000BF0123237010BD5C000020B5
:1000600000000000CC1E000008B5084B002B03D098
:100070000748084900E000BF07480368002B03D089
:10008000064B002B00D0984708BDC046000000007A
:10009000CC1E00006000002058000020000000007E
:1000A000064B0322104002040549586808401043DB
:1000B0005860DA695107FCD47047C0460008004216
:1000C000FFFFFCFF38B5284A284B5A805A7852B2B5
:1000D000002AFBDB264B04211A6A264D0A431A62CA
:1000E0002B68012213432B602A680123214C1A42FA
:1000F000FAD1E2691A42F7D11423236041001E4865
:1001000001F008FD421EE068FF231A4098431043A7
:10011000E0602368022213432360EA69154B9107CC
:10012000FBD45A8B30218A4310210A435A83EB694E
:1001300001205A07FBD4114B02241A7802431A708B
:100140000F4B0F22197891431970197821431970B8
:100150000C490C782043087019780A401A701A78F4
:1001600020210A431A7038BD14400000000C0040E2
:100170000004004000080042006CDC0248440041DA
:100180003444004149440041F7B500230F1C01925B
:100190001D1C994254D001212A4E4000084333705F
:1001A000C1B2294B0322588B1C1C000910400128A6
:1001B00004D05B8B1B091A40022AF2D1606AC00A84
:1001C000C00208436062217E1F4B0122880708D4C9
:1001D000197E1142F7D05968C02292020A435A6030
:1001E00003E05B8B9B08134201D0002528E03270AE
:1001F000237E9907FCD5154A154B117801251970F6
:100200006268BD4212D0134B022013406360FFF7B7
:1002100047FF33785A1C3270227E9007FCD50B4979
:100220000B480A780135C254EDB2E9E78023DB02BE
:10023000134363600199002902D00320FFF730FFC8
:10024000281CFEBD7800002000080042280800425B
:1002500099000020FFFFFBFF024B00221870024BA9
:100260001A7070477A00002079000020F8B5274BFB
:100270001C786400E4B2264B03215D8B1A1C2D0907
:100280000D40012D04D05B8B1B0919400229F2D1CE
:10029000536ADB0ADB0223435362117E01231942B6
:1002A000FBD01B49498B8908194204D00320FFF772
:1002B000F7FE022427E017490D782B1C002B11D0E4
:1002C000154EEC1A365D154C2670114E177E012422
:1002D000768B274202D12642F7D00BE0B6082642A1
:1002E0000ED007E00B701C1C00280CD00320FFF779
:1002F000D7FE08E003200B700324FFF7D1FE02E0D5
:10030000013BDBB2DAE7201CF8BDC0467A000020D2
:1003100000080042790000207B00002028080042ED
:10032000034A1378591C1170024AD05401207047B7
:10033000790000207B000020154A164B1178002917
:1003400009D11549187809784118C9B21970802067
:1003500012494003C86111780131C9B2117019788E
:10036000F02902D81978092909D80B4908784042A0
:10037000C0B20870187809784118C9B2197012789B
:100380001B789A4203D18022044B5203DA617047F2
:100390007D000020010000200000002000440041FA
:1003A00010B5041C6B20FFF757FF201CFFF7B8FFA8
:1003B0000120FFF75BFF01210A1C6B20FFF7E4FE21
:1003C000014B187810BDC0469900002038B5051CB7
:1003D0006B200C1CFFF740FF281CFFF7A1FF201C1F
:1003E000FFF79EFF0120FFF741FF022038BD08B54F
:1003F0000520FFF7D5FFCE23011C19400520FFF78C
:10040000E5FF012008BD000010B5041C0020FFF727
:10041000C7FF78232D4A9843C1B2944242D018D8DE
:100420002B4B9C4238D009D82A4B9C4230D02A4BC7
:100430009C422FD0294B9C4245D13FE0284B9C4207
:100440002CD0284B9C422BD0274B9C423BD12023C5
:1004500033E0264A94422BD00AD8254B9C4223D025
:10046000244B9C4222D0244B9C422CD1402324E09C
:10047000224A94421ED004D8214B9C4223D16023AF
:100480001BE0204A944217D01F4A944215D01AE02C
:10049000082312E0102310E018230EE028230CE0BC
:1004A00030230AE0382308E0482306E0502304E024
:1004B000582302E0682300E0702319430020FFF76F
:1004C00085FF012000E0002010BDC046581100004B
:1004D00018100000780F0000C80F0000280F00005F
:1004E000B810000008110000681000009812000009
:1004F000F811000048120000A81100003813000095
:10050000E812000088130000D813000010B5041C86
:100510000020FFF745FF07239843E122C1B2920074
:10052000944220D008D8962C18D0FA235B009C4225
:1005300017D0642C22D11CE0114A944215D005D862
:100540009623DB009C4219D1042311E0FA22D20049
:1005500094420CD00B4A94420AD00FE0012421436C
:1005600007E0022304E0032302E0052300E0062362
:1005700019430020FFF72AFF012000E0002010BDF2
:10058000DC050000B80B000070B504AC267805ACA3
:100590002578441EA041C401002901D040210C430C
:1005A000002A01D020221443002B01D010231C4329
:1005B000002E01D008231C43002D01D004231C432E
:1005C0000220FFF7EDFE0125011C294021430220F6
:1005D000FFF7FCFE281C70BD10B5041C0420FFF7BB
:1005E000DFFE03231840084B9C4204D0074B9C427B
:1005F00008D1B02100E0982101430420FFF7E6FE76
:10060000012000E0002010BD10100000701000005C
:1006100008B50120FFF7C4FECF23011C19400120BB
:10062000FFF7D4FE012008BD07B5FFF7E0FEFFF796
:10063000EFFF0948FFF7E8FEFA20C000FFF766FF6A
:10064000002300930193181C191C1A1CFFF79CFF30
:100650000248FFF7C1FF07BD08110000101000009D
:1006600008B50348FFF72EFDFFF7DEFF08BDC046C3
:10067000A086010010B5C3699C07FCD4036802245E
:10068000A3430360C46901231C42FBD104682343D4
:1006900003600368DC07FCD4C46901231C42FBD15E
:1006A000C469DC401C42F7D1084B1A430260C3699D
:1006B0005A07FCD4C0239B0243608181C3699C0715
:1006C000FCD4036802221343036010BD0400004001
:1006D000037EDA07FCD5018570470000027E012306
:1006E0005107FBD5428B1A4207D1428BDA401A429E
:1006F00003D1428B92081A4202D0034B01221A7096
:10070000008DC0B27047C0467E00002070B50368FF
:10071000041C988B1A1C0821FF32084226D0802026
:1007200099839872112353704021144B9171507129
:100730005E68134DC0202E40800506435E605E69F2
:100740003540284358610F4818600F4818615D68AC
:100750000E4828408025AD02284358605868800B19
:100760008003586000235171237105E0137ADA0683
:1007700002D5201C00F0E4FA207970BD9C01002015
:10078000FFFFFF8F9C0000201C010020FF3F00F0B6
:10079000002303714371044B016083600B780222D4
:1007A00013430B707047C0460D07000038B5364B39
:1007B0002021DA6901200A43DA61344B06241A78D1
:1007C00002431A70324B0F2219789143197019782D
:1007D000214319702F490C782043087019780A407A
:1007E0001A701A7860210A431A702B4B2B4A5A80D0
:1007F0005A7852B2002AFBDB294B01211A780A43AE
:100800001A709A78D107FCD426480268510B1F222F
:100810001140914200D1052111408C011D8D2249CA
:100820002940214319850468A10C0A401F2A00D1E0
:100830001D221C8D1F210A408C4322431A85026809
:100840000721D20D0A408A4200D103220A40188DA6
:100850001103164A02400A431A8519787F220A407A
:100860001A701A78042112480A431A7058621A89B9
:100870000C218A431A811A8901218A431A81002195
:10088000802201F0A0F938BD000400405844004126
:100890003C44004159440041000C00400640000027
:1008A00000500041246080003FF8FFFFFF8FFFFFF2
:1008B0009C010020F7B5141C1F4A5F0101971D1C05
:1008C000D319061C5869271C4000400F0330103311
:1008D000C74006D00F1C8022596812060A435A608E
:1008E00009E02F1C7B1E9F41144BBF01FF18381CD1
:1008F000221C01F05FF901990F4808354218176171
:10090000131C5269A104920B890C92030A435A6189
:1009100059690B4A0A405A616B01F3180222DA71D5
:100920005979802252420A435A716B01F318DB79DC
:100930009A07FAD5201CFEBD9C0100201C01002056
:10094000FF3F00F0F8B51A4E051C3378141C002B3D
:1009500012D1184B184A1A645A6C920B92035A64BB
:10096000586C164A02405A64A2235B00EA5C40209D
:100970000243EA54012333704827FF37EA5D01231D
:10098000134012D00B4B5A6C9204920CA24202D22A
:100990005C6CA404A40C081C221C074901F00AF991
:1009A0000123EB550023337000E01C1C201CF8BD14
:1009B0007F0000209C010020DC000020FF3F00F0B1
:1009C000FF3083792022002900D110221343837144
:1009D00070470000084BFF305A69920B92035A612E
:1009E00002230372827980235B4213438371037A6B
:1009F0009A07FCD57047C0469C01002080235B42CB
:100A00001943C9B28172704770B5A02303225B00FD
:100A1000C254134B134A5C6CC021144089050C432B
:100A200046255C64FF35402444550F4D30261D6437
:100A300090256D0046555D6B1540294392255963FD
:100A40006D0080214155094D1D63B0256D00445551
:100A50005C6F22405A67B2235B00C15470BDC04630
:100A60009C010020FFFFFF8FDC0000205C010020C4
:100A7000024B5B785BB2002BFADB7047000C004046
:100A8000024BDB68DA06FBD57047C0460008004021
:100A9000F8B52A4B1E22596891430222114359602E
:100AA000274B28491E1C9982998A0A439A82F36827
:100AB0000227234C3B42FAD0234D0123AB60FFF7C2
:100AC000D7FF224B6B60FFF7D3FF8223DB016B80E4
:100AD000FFF7CEFFA38C80229343A384FFF7D0FFC0
:100AE0001B4BE362FFF7CCFFA38C1A4A1343A3848A
:100AF000FFF7C6FFA38C1F43A784F3681A06FCD533
:100B00000F4BDB685A06F8D50024FFF7B9FFAC603D
:100B1000FFF7AEFF104B6B60FFF7AAFF0F4B104AB9
:100B2000C0215A600F4A0906106A0002000A0143F8
:100B3000116207229C601A60F8BDC0460040004167
:100B4000000800400C060000000C004001050100F8
:100B5000B805FF7D040A00000007030010E000E074
:100B6000E703000000ED00E00EBEFEE70DBEFEE76D
:100B700005BEFEE702BEFEE70E4A0F4838B58242C8
:100B800004D10E4A0E4B93420ED10AE00D4C944212
:100B9000F7D00023D1188842F3D9E55804330D600B
:100BA000F8E700F011F804E09342FAD2002102C302
:100BB000FAE7FEE7000000205C000020AC03002004
:100BC0005C000020D01E000038B5344D2B68013386
:100BD0001AD0334B2A1D1A60EAB2002A14D1314BC5
:100BE000197801231940304B0AD118682F4A9042D6
:100BF00001D1196008E01A602D4A013A002AFCD19F
:100C00001A602C4B01221A70FFF742FF62B6FFF701
:100C100027FD284B284C1B78002B0AD02B6883F328
:100C200008881E4BFF229343A3601D4B1B681B6863
:100C3000184700F09DFD00F04FF8204B8022520332
:100C40009A601F4B1F4A051C5A60216AC022090284
:100C5000090A12060A43226200229A6007221A60D9
:100C6000AB68281C9847184B002801D001221A7045
:100C70001A78002A05D0002000F08CFA00F004FB5E
:100C8000FCE71B78002BEBD100F0E6FD0028E7D055
:100C9000012000F07FFA00F0F7FAFCE700200000E6
:100CA0001C02002038040040FC7F002035817307BF
:100CB00048E801008000002000ED00E00044004111
:100CC00010E000E0E70300008100002008B5FFF716
:100CD00033FB00F0C3FA08BD10B5054B054C23608B
:100CE000FFF764FD201C2168FFF752FD201C10BD9A
:100CF000005000412002002070B5051CC0B0081C47
:100D0000161C0C1C00F067FF40006A4603230230EB
:100D10005370107076080123E218013A11785A00D6
:100D2000002906D1281C69460023FFF7C3FD40B007
:100D300070BDB342F6DA684681520133ECE7000039
:100D4000F7B5BA4A04681378B949271CFF37051C60
:100D5000102038720B705378B648B74E03709378F2
:100D60003380D178338809020B4333801179B34B38
:100D70001980517918880902084318809079B04980
:100D80000880D2790888120202430A8040227A71D0
:100D9000A84F3A78A64F120238780F1C0243A94890
:100DA0008446181C624500D1C2E020DC8021490045
:100DB0008A4200D16EE109DC812A00D192E0822AC8
:100DC00000D195E0802A00D064E18BE081235B00B4
:100DD0009A4200D1CFE000DA58E1C0239B009A424A
:100DE00000D157E1984B9A4200D14FE152E1902354
:100DF0001B019A4269D015DCD023DB009A4222D035
:100E000088231B019A4269D0A023DB009A4200D0BC
:100E100040E1201CFFF7DEFD3188286889B2FFF72A
:100E2000EDFD3BE1894B9A4200D12FE100DC31E13D
:100E3000874B9A4200D11DE1864B9A4200D029E1AE
:100E400033886B7122E133881B0A012B08D10B8890
:100E500012222868934201D80A8892B27E4911E191
:100E600033881B0A022B08D10B884322286893423F
:100E700001D80A8892B2794904E133881B0A032B0E
:100E800000D007E13388DBB2012B17D0002B07D04D
:100E9000022B00D0FEE00A882868D2B2704911E027
:100EA000042201A86F4900F085FE3B8804222868CF
:100EB000934201D83A8892B201A9E3E00A882868EF
:100EC0006949D2B2FFF718FFE8E03388201C2B7184
:100ED000FFF780FD201CFFF797FDDFE0291C01C90B
:100EE0000122CFE0614900230B8028680222CAE07A
:100EF0005E4900220A801888502210405C4A107017
:100F00001E880F20304018801888032800D9C1E0BF
:100F100012781B8808335B01E418A379002A01D0FA
:100F20009B0600E0DB06DB0F0B8028680222A9E0AD
:100F300019887F2291434E4AC9B2117018880F2137
:100F4000014019803188002900D0A3E019880029C8
:100F500000D19FE01988032900D99BE012781B88F3
:100F600008335B01E318002A02D020225A718DE079
:100F7000102159718AE002887F239A433C4BD2B2F8
:100F80001A7001880F220A4002803288002A00D09D
:100F900080E00288002A00D17CE00288032A00D980
:100FA00078E01B78002B1FD0038808335B01E3181F
:100FB0009B799A066AD50388202208335B01E318DF
:100FC0001A71038808335B01E318DB795F065DD58E
:100FD0000388402208335B01E318DA710388022298
:100FE00008335B01E3181EE0038808335B01E31854
:100FF0009B79D9064AD50388102208335B01E31890
:101000001A71038808335B01E318DB799A063DD532
:101010000388202208335B01E318DA710388012278
:1010200008335B01E3181A7130E0C0469C000020D1
:1010300083000020880000208A0000208C0000200F
:1010400086000020020300000103000021200000B0
:10105000A121000021220000201C0000040000202B
:101060000C1C0000FC1B0000001C00008400002081
:10107000820000200B8808222868934201D80A8841
:1010800092B207490023FFF715FC07E0201CFFF789
:10109000A1FC03E0201C0121FFF792FCF7BDC04634
:1010A0004800002007B5054B0122019001A91868EE
:1010B000131CFFF7FFFB01200EBDC04620020020DD
:1010C00013B5054B6C4607341868211C0122FFF745
:1010D00039FC207816BDC0462002002010B5074C10
:1010E000201CFFF713FB031C0020834205D022685D
:1010F0004823FF33D05C0123184010BD200200209C
:1011000010B5054A0C1C031C191C10680123221C75
:10111000FFF7D0FB201C10BD2002002070B5084C4A
:10112000061C201C0D1CFFF7F1FA0023984205D085
:101130002068311C2A1CFFF705FC031C181C70BD1D
:1011400020020020F8B50C4C051C201C0E1CFFF7DB
:10115000DDFA0023271C341C98420AD0002C07D04B
:10116000291C221C3868FFF7EDFB241A2D18F5E71F
:10117000331C181CF8BDC0462002002008B5031C13
:10118000081C111C9847024B64221A8008BDC046F7
:1011900092000020012805D1054B064A1A60064B33
:1011A000187004E0002802D1044A014B1A6070470D
:1011B00090020020541C000098000020A01C000099
:1011C00030B50A1C1C4985B00978031C00292AD0B7
:1011D000042A01D1006804E0022A01D1008800E05D
:1011E0000078520004A98B180B3B9C1AA3420BD029
:1011F0000F210140092902D83025294300E0373169
:1012000019700009013BF1E701A930230B70782325
:101210004B700A208B1898700D20D870074B043241
:101220001B68D86803E005490968C868191CFFF7FE
:10123000A5FF05B030BDC0468E0000209002002002
:1012400072B6EFF30883044A1360036883F30888D7
:10125000436818477047C04694020020084B1A881C
:10126000002A03D01A88013A92B21A80054B1A88D4
:10127000002A03D01A88013A92B21A807047C046F9
:101280009200002090000020F0B591B008A9CC4A4F
:101290000B1C31CA31C351CA51C360CA60C3C94BA8
:1012A000C9489A687A255203520F92005258C7498A
:1012B00002609C68A4B262430C60C54900240A60C5
:1012C000C44A1460C44C2570C44CC54D2368281C06
:1012D0001B6940219847002802D0C24B64221A8023
:1012E000C14B00221860C14B1D60C14BC04DBE4FA9
:1012F0001A602A683B689A42E6D2BC4B1B681A788F
:10130000FF2A00D114E2232A00D0EBE1B94E337852
:10131000002B06D0B14BB8491B680222D868FFF7F2
:101320002DFFAD4B1B78532B3CD13B682A68934271
:101330001ED9AE4801322A609A1AB04B01681B6868
:1013400001310160AE4E9A4201D2326000E033605A
:10135000A04832680068049000F02CFC33682968CB
:101360005A182A60A14A1668F1181160A54A13702C
:101370002B68013B2B609D4B1A68013A1A60A14B08
:101380009E4A1B7811688B420AD222689148C91A7A
:10139000006892699047002802D0924B64221A801C
:1013A000C0468DE1522B0AD18A48944A23680068CE
:1013B00011685B69039098476422934B0DE04F2BB3
:1013C00005D1844B8D4A1B6812681A7078E1482B4E
:1013D00005D1804B894A1B6812681A8070E1572B2F
:1013E00005D17C4B854A1B6812681A6068E16F2B37
:1013F00003D1784B0121186807E0682B08D1754BA1
:101400007E481B6802211B880360FFF7D9FE57E165
:10141000772B06D16F4B79481B6804211B6803604A
:10142000F3E7472B13D1754B1868FFF709FF774B8C
:101430001B6883F3088862B6754B1B78002B00D1BC
:101440003EE1664B06201B681B68984738E1542B29
:1014500004D101233370614B1B6864E04E2B0CD127
:101460003378002B06D15D4B63491B680222D86894
:10147000FFF784FE0023337022E1562B57D12368F7
:101480006449D8680122FFF779FE23686249D86869
:101490000322FFF773FE614D2368291CD8680122DF
:1014A000FFF76CFE23685E49D8680D22FFF766FEE1
:1014B0002368291CD8680122FFF760FE4B4F4C4D72
:1014C0005849002339602B603A1C281C13685E1CA5
:1014D00016601B780593002B03D00368013303606B
:1014E000F4E73E4E2A683368D868FFF747FE336852
:1014F0004A49D8680122FFF741FE059929604A4907
:1015000039603A4A1368581C10601B78002B04D0CD
:10151000374B1A6801321A60F3E733682A68D868D3
:10152000FFF72CFE3368D86833490222C6E0334AFD
:10153000582B17D1244E264D366813682A68B100FF
:1015400093420AD21F4D5808E861384828801D4D43
:10155000287DC607FBD55B18F2E7204B34491B6892
:10156000D868AAE0592B79D112681A4B3149002A60
:1015700002D11B680B606CE0124D086819686B683B
:10158000104E8025AB4392087360002A61D02A4B2D
:101590000C4D2B800B4E337DDD07FBD500230A4D10
:1015A0002D680195AD08AB4203D3244D054E35801F
:1015B00046E09342F9D09D00465901334E51EEE783
:1015C000341C00000040004148020020400200207E
:1015D0003C0200208C0200203802002090020020F3
:1015E0004C02002090000020300200203402002035
:1015F000440200208E000020941C0000980200206D
:101600009C0200202C020020920000209402002066
:1016100098000020701C0000991C0000721C000043
:10162000BC1C0000741C0000801C000002A5FFFF11
:10163000891C00009400002044A5FFFF04A5FFFFC3
:101640003F4E357DEE07FBD59D0049194019D21A52
:101650009BE73C4B3C491B68D8682EE05A2B2FD1A6
:101660003A4B17681D680026EF19BD4206D028784E
:10167000311C00F013F90135061CF6E7314B3449F3
:101680001B680122D868FFF779FD07230F2232403B
:10169000111C36093031092A00DD07311820C01825
:1016A0006A468154013BF1D2236806A9D868082212
:1016B000FFF764FD23682749D8680322FFF75EFD22
:1016C000254B7A221A70254B00221A60244B1B7876
:1016D00093422DD01B4B23491B680122D868FFF78A
:1016E0004DFD25E0111C3039C8B21C4B092804D827
:1016F0001D682A01114319601AE0111C413905299E
:1017000003D81E68373A310106E0111C61390529FA
:1017100004D81868573A01010A4308E02C2A03D17B
:101720000A4A1968116001E00B490A7000221A6028
:101730000D4B1A6801321A600C4B1A680132D5E55C
:1017400000400041900200208D1C00008C0200200F
:10175000911C0000931C0000380200209802002019
:101760008E000020971C000044020020340200205C
:1017700010B51C4B01201A78032402431A701A4B2F
:101780000F2219789143197019782143197017495C
:101790000C782043087019780A401A701A783021A2
:1017A0000A431A70124B80211A6A0A431A62114BBB
:1017B000114A5A805A7852B2002AFBDBC4220F48E1
:1017C0000F499203FEF756FF0E4A002313700E4A8C
:1017D00013700E4A13700E4A13700E4A13700E4A9D
:1017E000137010BDD6440041BB440041D7440041B2
:1017F00000040040000C004019400000001C0042A2
:101800002AF60000A002002027030020A1020020E9
:10181000A4020020280300202503002008B5C1B23F
:101820000248FEF755FF012008BDC046001C0042DB
:10183000024B187E4007C00F7047C046001C004294
:1018400008B5FFF7F5FF0028FBD00248FEF746FF7A
:1018500008BDC046001C004208B5FFF7E9FF0023A1
:10186000984205D0FFF7ECFF031C233B5A4253413B
:10187000181C08BD70B5041C0D1C4618B44204D0D9
:101880002078FFF7CBFF0134F8E7281C70BD10B5B6
:10189000041CFFF7D5FF2070012010BD0B0A584033
:1018A000034B4000C05A0902484080B27047C0460E
:1018B000CA1C0000F7B50024051C0F1C261CBC42E6
:1018C00020D0FFF7BDFF114BC0B21B780190002B59
:1018D0001AD1311CFFF7E2FF0D4B061C1A88002AB3
:1018E00004D10C4A11782A1C002907D001996A1CDE
:1018F0002970802F02D11988013919800134A4B2CE
:10190000151CDCE7301C00E00120FEBD2503002093
:10191000A202002026030020F0B53E4E85B0002232
:1019200003900C1C32703C4B914201D1012201E02A
:101930003A490C801A707F231C4201D080349C43AA
:10194000FFF77EFF3378C0B2002B07D0002535703B
:10195000FFF776FF3378C0B2AB4236D1432803D0CD
:10196000712853D01528EBD1012300930120FFF7F4
:1019700055FF0098FFF752FF00998025C843C0B279
:10198000FFF74CFF039B00270293244A1388002B88
:101990001DD1214901930978002918D10198FFF739
:1019A0003DFF391C0198FFF779FF013D071C002D11
:1019B000EBD1000AC0B2FFF731FFF8B2FFF72EFFFC
:1019C000FFF73EFF3378002B0AD035701FE00299F5
:1019D000013B09781380029B019101330293DDE7FB
:1019E000C0B2062807D1009B03990133DBB28031D6
:1019F0000093803C0391002CB8D10420FFF70EFF28
:101A0000FFF71EFF044B01251C7000E00025281C79
:101A100005B0F0BD2503002026030020A20200200F
:101A2000F0B5384C87B0002301902370994201D162
:101A3000012301E0344A1180344A642613704320A4
:101A4000FFF7ECFE324FFFF7F3FE002803D1002F23
:101A500003D0013FF7E7002F03D1013E002EEED166
:101A60004DE00125FFF7ECFE2378002B38D1C0B202
:101A70000290012805D004283DD10620FFF7CEFEB4
:101A800039E005AE0221301CFFF714FF01988021D8
:101A9000FFF710FF23780390002B18D1FFF7D0FE3B
:101AA0000702FFF7CDFEBFB223783F18BFB2012B6C
:101AB0000DD0039B9F4207D13378AB4204D1EB4357
:101AC0007278DBB29A4204D01820FFF7A7FE0023F9
:101AD00003E00620FFF7A2FE029B2278002A02D034
:101AE000002626700BE0012B05D1019A6B1C803279
:101AF000DDB20192B6E7054A002313700126301CBF
:101B000007B0F0BD25030020A2020020260300201C
:101B100000350C00002934D00123002210B4884283
:101B20002CD301242407A14204D2814202D209010C
:101B30001B01F8E7E400A14204D2814202D249002D
:101B40005B00F8E7884201D3401A1A434C08A042D0
:101B500002D3001B5C0822438C08A04202D3001B66
:101B60009C082243CC08A04202D3001BDC0822437D
:101B7000002803D01B0901D00909E3E7101C10BCA1
:101B80007047002801D00020C04307B4024802A1DA
:101B90004018029003BDC046190000000029F0D093
:101BA00003B5FFF7B9FF0EBC4243891A1847C04678
:101BB0007047C04610B50023934203D0CC5CC45498
:101BC0000133F9E710BD031C8218934202D019704B
:101BD0000133FAE770470023C25C0133002AFBD1CE
:101BE000581E7047F8B5C046F8BC08BC9E46704702
:101BF000F8B5C046F8BC08BC9E467047040309040B
:101C000041726475696E6F204C4C4300417264757B
:101C1000696E6F204D4B52204E42203135303000DE
:101C2000120100020200004041235500000201029F
:101C3000000100000800000010000000200000006B
:101C400040000000800000000001000000020000D1
:101C5000000400001D1800004118000031180000A9
:101C6000751800008F18000019190000211A0000D3
:101C7000760020004170722031312032303139003D
:101C800031333A30393A353700580A0D00590A0DC8
:101C9000005A00230A0D003E00322E3000000000E2
:101CA000A5100000C1100000DD10000001110000AF
:101CB0001D11000001110000451100005B4172641C
:101CC00075696E6F3A58595A5D0000002110422024
:101CD00063308440A550C660E770088129914AA10D
:101CE0006BB18CC1ADD1CEE1EFF131121002733284
:101CF0005222B5529442F772D662399318837BB35D
:101D00005AA3BDD39CC3FFF3DEE362244334200413
:101D10000114E664C774A44485546AA54BB52885AC
:101D20000995EEE5CFF5ACC58DD553367226111663
:101D30003006D776F6669556B4465BB77AA71997FC
:101D40003887DFF7FEE79DD7BCC7C448E5588668EB
:101D5000A7784008611802282338CCC9EDD98EE94C
:101D6000AFF9488969990AA92BB9F55AD44AB77AC3
:101D7000966A711A500A333A122AFDDBDCCBBFFB9C
:101D80009EEB799B588B3BBB1AABA66C877CE44CD3
:101D9000C55C222C033C600C411CAEED8FFDECCDEC
:101DA000CDDD2AAD0BBD688D499D977EB66ED55EA3
:101DB000F44E133E322E511E700E9FFFBEEFDDDF3C
:101DC000FCCF1BBF3AAF599F788F8891A981CAB1C8
:101DD000EBA10CD12DC14EF16FE18010A100C230FA
:101DE000E3200450254046706760B9839893FBA3B5
:101DF000DAB33DC31CD37FE35EF3B1029012F3224A
:101E0000D2323542145277625672EAB5CBA5A89504
:101E100089856EF54FE52CD50DC5E234C324A01499
:101E200081046674476424540544DBA7FAB7998794
:101E3000B8975FE77EF71DC73CD7D326F2369106E9
:101E4000B01657667676154634564CD96DC90EF9DC
:101E50002FE9C899E9898AB9ABA944586548067839
:101E60002768C018E1088238A3287DCB5CDB3FEBF4
:101E70001EFBF98BD89BBBAB9ABB754A545A376A89
:101E8000167AF10AD01AB32A923A2EFD0FED6CDDC4
:101E90004DCDAABD8BADE89DC98D267C076C645CD9
:101EA000454CA23C832CE01CC10C1FEF3EFF5DCFD4
:101EB0007CDF9BAFBABFD98FF89F176E367E554E29
:101EC000745E932EB23ED10EF01E000000000000A2
:101ED00001140000090243000201008032090400DD
:101EE0000001020200000524001001042402000584
:101EF000240600010524010001070583030800FFF3
:101F000009040100020A00000007058102400000E8
:101F1000070502024000000000C2010000000800A6
:0C1F20006900000041000000000000000B
:1020000000800020116F0100F96E0100F96E0100DF
:1020100000000000000000000000000000000000C0
:10202000000000000000000000000000F96E010048
:102030000000000000000000F96E0100656F010063
:10204000F96E0100F96E010041510000F96E0100C6
:10205000F96E0100F96E0100F96E0100FD6E0100DC
:10206000F96E0100F96E0100F96E0100E97A0000D5
:10207000F96E0100516E0100416E0100F96E010020
:10208000F96E0100F96E0100F96E0100F96E0100B0
:1020900000000000F96E0100F96E0100F96E010008
:1020A000F96E0100F96E0100F96E0100F96E010090
:1020B0000000000010B5064C2378002B07D1054B1B
:1020C000002B02D0044800E000BF0123237010BDA4
:1020D000B002002000000000687C0200044B10B534
:1020E000002B03D00349044800E000BF10BDC046E8
:1020F00000000000B4020020687C020010B504005B
:10210000183017F074FA200010BD000010B5024816
:1021100003F0ACFC10BDC0469405002070B501254D
:102120001A4C1B4B1B491C48E5541BF001FF1B4973
:102130001B481BF0FDFE1B491B481BF0F9FE1B4B07
:102140001B491C48E5541BF0F3FEFA221A4BD2003F
:10215000E2520233E5520433E552184B1849E55474
:1021600002231848E3722373E57125721BF0E0FE29
:10217000154916481BF0DCFE154916481BF0D8FE21
:10218000154916481BF0D4FE70BDC0464C430020D4
:102190004B040000D615020014470020E015020091
:1021A00087450020E715020066450020490400002D
:1021B000F715020091450020120200004A040000B9
:1021C0001C1602007B430020201602009B430020C7
:1021D000F5230200BB43002022160200FB4300202F
:1021E0000A21435E0200181E01D01B01D01870475F
:1021F00070B50D00041E0FD0C168A9420CD0002D8F
:1022000006D0002904D028001BF088FE002803D047
:102210002000FFF7E5FFEDE7200070BD4A688B68FE
:102220001032934204D201230B740023180070472C
:10223000103B8B60002BF9D04268002A08D0991A15
:1022400009115181002243605A811A72DA60EDE768
:102250000360F7E7F7B5037804000D002B2B1DD0C2
:102260002D2B1CD10127013423781A00303A092A7A
:1022700002D92E2B00D0C9E000200A26644922781A
:102280001300303BDBB2092B0BD8884211D8DA435C
:10229000704382420DD3C0180134F0E701340027A7
:1022A000E2E7002A05D1002F18D080231B069842B0
:1022B00009D90026574B98421AD90A21013617F03E
:1022C00015FD76B2F6E77F222B7A404293431A003F
:1022D0000A2313432B7228603800FEBD7F222B7A1D
:1022E000286093431A00082313432B720127F3E756
:1022F00023781A00303A092A03D8013676B201341D
:10230000F6E72E2B0FD10A21434A01342378303BC4
:10231000DBB2092B07D8904203D84843013E181876
:1023200076B20134F2E7202322789A430023452A2B
:102330003AD162782D2A1FD1023401330193002350
:1023400021783039CAB2092A2AD80A225343CB1835
:10235000F118262922DD019A2B7A7F20002A11D03C
:102360000024002F01D0802424060C2183430B433A
:102370002B722C60019FAFE72B2A01D00134DDE7DF
:102380000234DBE7002F06D024490C228343134399
:102390002B722960AAE7FF21C905F6E70134CFE7D0
:1023A000019A002A00D05B422478002C2ED1F61826
:1023B00018F070FD002E1ADD01231E4204D0184AC9
:1023C000A300D15818F050FA01347610E4B2002E70
:1023D000F2D1002F02D080231B06C0187F222B7A57
:1023E000286093431A000C2313432B727EE7764236
:1023F000002EEED001231E4204D00A4AA300D15879
:1024000018F032FA01347610E4B2F1E7002763E7FE
:1024100099999919FFFF7F00CBCC0C00000080FF39
:102420007C1302006413020070B50D00164E1749AC
:102430000400300017F03EF81549300017F03AF864
:102440001449300017F036F80A222900300017F03E
:10245000BEF8002D02D18021890008E0012DFAD0BC
:102460008021022D02D0042D05D1C021C9002000F9
:1024700014F0D1FB70BD8021082D02D0102DEAD1BF
:10248000A0210901F3E7C046C051002068190200ED
:102490007A1902008619020070B5094C200002F07A
:1024A000F3FA084D2100280002F0A4FD0028F4D022
:1024B000200002F075FD2800002102F03BFD70BDF8
:1024C000C05100204C43002070B592B0FFF71EFEB3
:1024D0008A4C03A8210017F0D9F8210006A817F0AC
:1024E000D5F8210009A817F0D1F821000CA817F0A1
:1024F000CDF8834906A817F061F9824C0FA8210096
:1025000003F00EFE0FA909A817F050F90FA817F055
:102510006EF821000FA803F01FFE0FA90CA817F0FA
:1025200045F90FA817F063F8774C784920001BF0A5
:10253000FFFC774920001BF0D5FC764920001BF0FA
:10254000D1FC754D200029001BF0CCFC7349200004
:102550001BF0C8FC724E200031001BF0C3FC069932
:1025600020001BF0BFFC310020001BF0BBFC290049
:1025700020001BF0B7FC6B4920001BF0B3FC3100BE
:1025800020001BF0AFFC099920001BF0ABFC3100D0
:1025900020001BF0A7FC290020001BF0A3FC6249CF
:1025A00020001BF09FFC310020001BF09BFC0C99CD
:1025B00020001BF097FC310020001BF093FC290049
:1025C00020001BF08FFC594920001BF08BFCFFF70B
:1025D0009DFD0A2201000FA817F09AF80F9920001C
:1025E0001BF080FC0FA817F002F8290020001BF058
:1025F00079FC4F4920001BF075FC85234D4E9B0054
:10260000F15A0A220FA817F071F80F9920001BF059
:1026100069FC0FA816F0EBFF290020001BF062FCFC
:10262000454920001BF05EFC444B0A22F15A0FA8DA
:1026300017F05CF80F9920001BF054FC0FA816F05F
:10264000D6FF290020001BF04DFC3D4920001BF067
:1026500049FC86239B00F15A0A220FA817F046F87E
:102660000F9920001BF03EFC0FA816F0C0FF354963
:1026700020001BF037FC344D0A223449280016F0A4
:1026800086FF0A223249280016F081FF2100280027
:1026900016F02CFF2F49280016F028FF2E490FA80E
:1026A00016F0F4FF06A90FA817F00FF92B4917F041
:1026B00019F900222A4E009213000100300013F095
:1026C00053FE0FA816F093FF2100300016F0F2FE23
:1026D000300014F038FA2349280016F007FF0CA840
:1026E00016F085FF09A816F082FF06A816F07FFFF6
:1026F00003A816F07CFF12B070BDC046245402003F
:1027000014470020C80400200806002024170200F7
:10271000261702002E170200391702003B1702008D
:102720006D25020049170200551702005E170200CE
:102730006B1702004C4300207517020012020000C4
:10274000811702008C170200C05100203D3D3D3D25
:102750006E6F734A8E170200A7170200B0170200AF
:10276000CC040020C217020003280FD8104BDB7ADC
:102770000020012B12D0022B13D0042B13D0082BD6
:1027800013D0FE21102B0AD0002109E004380328C1
:1027900002D8074B1B7BEBE70020F5E7FF218905FB
:1027A00070470449FCE70449FAE70449F8E7C046E2
:1027B0004C4300200000B03F0000A03F0000903FCD
:1027C000F0B59DB004000291FFF7A0FC304D0AA8BF
:1027D000290016F05BFF29000DA816F057FF29000D
:1027E00010A816F053FF2B4913A816F04FFF29002D
:1027F00016A816F04BFF284D2849280016F076FE43
:102800002749280016F056FE0A220299280016F0E1
:10281000BEFE244B2000DA79197A00231F0008300D
:102820000993089307930693059304930393029CDB
:10283000A34239DA002A11D00025445F3F1902254E
:10284000445F039D2C1903940425445F049D2C19B7
:1028500004940625445F059D2C190594002913D086
:102860000825445F069D2C1906940A25445F079DA0
:102870002C1907940C25445F089D2C1908940E25EB
:10288000445F099D2C19099401332830CFE7C046D5
:102890002454020026160200C05100202D1602000A
:1028A0004E1602004C430020F54CF649200016F06D
:1028B0001DFEF54BDB79002B23D0F449200016F0E8
:1028C000F9FD0A223900200016F06BFEF0492000C5
:1028D00016F0F0FD0A220399200016F062FEED4981
:1028E000200016F0E7FD0A220499200016F059FE98
:1028F000E949200016F0DEFD0A220599200016F0B5
:1029000050FEE14B1B7A002B24D0DD4CE349200024
:1029100016F0D0FD0A220699200016F042FEE0498A
:10292000200016F0C7FD0A220799200016F039FE94
:10293000DC49200016F0BEFD0A220899200016F09E
:1029400030FED949200016F0B5FD0A220999200071
:1029500016F027FED54910A816F030FFC84CD44910
:10296000200016F0A7FD10A9200016F0B5FDD14EED
:10297000D14930001BF0DCFAD04930001BF0B2FA2C
:10298000CF4930001BF0AEFACE4D300029001BF0CD
:10299000A9FACD4930001BF0A5FACC4C300021003B
:1029A0001BF0A0FA109930001BF09CFA21003000B7
:1029B0001BF098FA290030001BF094FAC44930004B
:1029C0001BF090FAFFF7A2FB0A22010019A816F0EB
:1029D0009FFE199930001BF085FA19A816F007FE22
:1029E000A94BDB7B002B33D0290030001BF07AFA97
:1029F000210030001BF076FAB64919A816F046FE01
:102A0000199930001BF06EFA19A816F0F0FDB249C2
:102A100030001BF067FA0020FFF7A6FE04000D004F
:102A20003800029917F0ECF919F0A6FF22002B00EC
:102A300019F096F90B0002210200009119A816F076
:102A4000C8FE199930001BF04DFA19A816F0CFFDF9
:102A50008D4C2F342378002B34D0964E994930007A
:102A60001BF040FA994930001BF03CFA210019A8EC
:102A700016F00CFE199930001BF034FA19A816F064
:102A8000B6FD954930001BF02DFA0120FFF76CFED2
:102A900004000D000398029917F0B2F919F06CFFC9
:102AA00022002B0019F05CF90B00022102000091BA
:102AB00019A816F08EFE199930001BF013FA19A808
:102AC00016F095FD704D7B4C4F352B78002B33D095
:102AD0007C4920001BF006FA7C4920001BF002FA1A
:102AE000290019A816F0D2FD199920001BF0FAF957
:102AF00019A816F07CFD784920001BF0F3F902209C
:102B0000FFF732FE06000F000498029917F078F9DB
:102B100019F032FF32003B0019F022F90B000221BC
:102B20000200009119A816F054FE199920001BF01C
:102B3000D9F919A816F05BFD534E6F363378002B88
:102B400034D05C4D5F4928001BF0CCF95F49280068
:102B50001BF0C8F9310019A816F098FD1999280042
:102B60001BF0C0F919A816F042FD5B4928001BF0C4
:102B7000B9F90320FFF7F8FD06000F000598029948
:102B800017F03EF919F0F8FE32003B0019F0E8F8B2
:102B90000B0002210200009119A816F01AFE1999E3
:102BA00028001BF09FF919A816F021FD364E8F362C
:102BB0003378002B34D03F4D424928001BF092F966
:102BC000424928001BF08EF9310019A816F05EFD6D
:102BD000199928001BF086F919A816F008FD3E493E
:102BE00028001BF07FF90420FFF7BEFD06000F0050
:102BF0000698029917F004F919F0BEFE32003B0066
:102C000019F0AEF80B0002210200009119A816F08D
:102C1000E0FD199928001BF065F919A816F0E7FCEA
:102C2000194EAF363378002B63D0224D254928004A
:102C30001BF058F9254928001BF054F9310019A858
:102C400016F024FD199928001BF04CF919A816F06C
:102C5000CEFC214928001BF045F90520FFF784FD33
:102C600006000F000798029917F0CAF819F084FEC1
:102C700032003B0019F074F80B00022102002DE035
:102C8000C05100206A1602004C4300207A16020050
:102C90008B1602009C160200AD160200BE16020042
:102CA000CF160200E0160200F116020014470020C1
:102CB000021702000806002024170200261702004F
:102CC00012170200391702003B1702006D2502009F
:102CD0005E1702005B4300205B170200009119A8F9
:102CE00016F077FD199928001BF0FCF819A816F0CA
:102CF0007EFC5B4DCF352B78002B33D0594920001B
:102D00001BF0F0F8584920001BF0ECF8290019A836
:102D100016F0BCFC199920001BF0E4F819A816F075
:102D200066FC524920001BF0DDF80620FFF71CFD71
:102D300006000F000898029917F062F819F01CFEBF
:102D400032003B0019F00CF80B0002210200009148
:102D500019A816F03EFD199920001BF0C3F819A818
:102D600016F045FC3E4DEF352B78002B33D03D4916
:102D700020001BF0B7F83C4920001BF0B3F82900F5
:102D800019A816F083FC199920001BF0ABF819A8BC
:102D900016F02DFC354920001BF0A4F80720FFF7A2
:102DA000E3FC06000F000998029917F029F819F0C2
:102DB000E3FD32003B0018F0D3FF0B0002210200BC
:102DC000009119A816F005FD199920001BF08AF84A
:102DD00019A816F00CFC264E264930001BF082F88C
:102DE000254C2649200016F081FB3100200016F00A
:102DF0007DFB2349200016F079FB224919A816F023
:102E000045FC10A919A816F060FD1F4916F06AFDCF
:102E100000221E4D009213000100280013F0A4FAB6
:102E200019A816F0E4FB3100280016F043FB280037
:102E300013F089FE1649200016F058FB16A816F06C
:102E4000D6FB13A816F0D3FB10A816F0D0FB0DA8E4
:102E500016F0CDFB0AA816F0CAFB1DB0F0BDC046A7
:102E60004C430020391702006D2502005B17020059
:102E7000080600208C170200C0510020191702001C
:102E80008E170200A7170200B0170200CC04002022
:102E9000C217020070B505000024AC420FDA012110
:102EA000062014F0F3FAC82002F034F900210620BD
:102EB00014F0ECFAC82002F02DF90134EDE770BDF2
:102EC000F8B55E4D04005E49280016F00FFB5D4B1F
:102ED000DB79002B3CD05C4E0321300013F0DAFE8E
:102EE0005A4907B2280016F0E5FA0A2239002800EC
:102EF00016F04DFB27810221300013F0CBFE544920
:102F000007B2280016F0D6FA0A223900280016F077
:102F10003EFB67810121300013F0BCFE4D4907B232
:102F2000280016F0C7FA0A223900280016F02FFBF5
:102F300000213000A78113F0ADFE474906B22800FA
:102F400016F0B8FA0A223100280016F020FBE681BC
:102F50003C4B1B7A002B3CD0404E0321300013F039
:102F600099FE3F4907B2280016F0A4FA0A22390058
:102F7000280016F00CFB27820221300013F08AFE95
:102F8000384907B2280016F095FA0A2239002800BD
:102F900016F0FDFA67820121300013F07BFE324902
:102FA00007B2280016F086FA0A223900280016F027
:102FB000EEFA00213000A78213F06CFE2B4906B216
:102FC000280016F077FA0A223100280016F0DFFAFE
:102FD000E682FA20800016F06BF92083FA20800048
:102FE00016F066F96083FA20800016F061F9A0837C
:102FF000FA20800016F05CF9E083FA20800016F0D9
:1030000057F92084FA20800016F052F96084FA20E3
:10301000800016F04DF9A084FA20800016F048F9DF
:10302000134B084AE084D35C002B02D00120FFF749
:1030300031FFFFF76BF82060F8BDC046C05100209B
:10304000731502004C430020FC0200208E15020084
:1030500097150200A0150200A91502000203002026
:10306000B2150200BB150200C4150200CD15020006
:103070004A04000073B51A4C1A49200016F036FABB
:10308000FA261949200016F031FA012502F01EF83F
:10309000B60000950123154A1549164802F0D6FCE2
:1030A000032807D01449200016F004FA300013F06A
:1030B0009DFFEEE72900114802F0CEF80428F1D177
:1030C0000F49200016F012FA0A2001F0A9FF0D495D
:1030D000200016F00BFA200016F0F6F973BDC0467A
:1030E000C05100208A190200B8190200664500206C
:1030F00087450020940500208C1502001403002051
:10310000C4190200CE190200F0B55D4D5D4987B0CB
:10311000280016F0EBF95C4C0121200002F078FA4F
:10312000200002F03DFA0028FAD05849280016F095
:10313000C1F95749200002F005F9FA210022C9001F
:10314000200002F00BFA534E2800310016F0CEF9A1
:103150005149280016F0CAF95049200002F0F2F84F
:103160004F4A6421200002F0F9F93100280016F0DE
:10317000BDF94C49280016F09DF9FA274A4920006C
:1031800002F0E0F8BF00642013F030FF4749280048
:1031900016F090F9200002F003FA00223900200016
:1031A00002F0DCF90128EED13100280016F09EF97A
:1031B0003F49280016F09AF9FA273E49200002F00C
:1031C000C1F8BF00642013F011FF3849280016F041
:1031D00071F9200002F0E4F900223900200002F029
:1031E000BDF90128EED13100280016F07FF93249EF
:1031F000280016F07BF963273049200002F088F898
:10320000FA21274AC900200002F0A8F92C4903A896
:1032100016F03CFA03A9224816F0D6FB019003A849
:1032200016F0E5F9019B01330CD0019B06221C49E5
:1032300003A816F019FC03A816F08AFC070003A8DF
:1032400016F0D5F9FA20800013F0D0FE1F2FD3DC42
:103250003100280016F04AF91A49280016F046F9FC
:103260002000194902F06EF8FA210D4AC900200029
:1032700002F074F93100280016F038F907B0F0BDFB
:10328000C0510020941302009C470020B613020096
:10329000D3130200DD130200E3130200081402003E
:1032A000FC050020121402003E1402008C150200DE
:1032B00049140200801402008A140200C71402009C
:1032C00039170200CE140200E5140200F0B524C83C
:1032D000954211D90800130007781C785E1CBC4287
:1032E00004D1002C09D001303300F5E71878013300
:1032F0001A000028FAD1EBE700221000F0BD0023ED
:10330000F0B585B007000C0002910392009399423A
:1033100008D00168994208D17F22237A934323720F
:1033200001230093009805B0F0BD039E3000FFF725
:10333000CDFF051E1BD1BB6875680193B2680133D0
:10334000EB18934207D9012333747F22237A9343E6
:1033500023720023E5E77360002DF6D0019A3968E7
:10336000280019F050FD6A46019B1278EA547F222A
:10337000237A256093431A00052313432372CFE772
:1033800070B5037A0D0016007F211A0004000A4070
:1033900005D18B435F390B430372026042602022E8
:1033A000237A1340181E12D0281E10D0290020683E
:1033B000FEF71EFF00280AD131002000FEF72EFF85
:1033C000002804D07F22037AC5601340037270BDC9
:1033D00010B50200037A20200340181E02D01068A6
:1033E000FEF706FF10BD437C002B06D1C3685A1CB4
:1033F000C2601B78037401234374007C704710B5CE
:1034000004002000FFF7EFFF0A2806D8092808D299
:10341000002809D0012020720CE00D2801D02028BE
:10342000F8D100236374ECE7237A58345A1E934191
:103430000133237010BD1FB57F220300007A1040B6
:10344000043808282ED816F03DFC0F0F052D082D46
:103450000D2D1A00187804B010BD1868C343DB178F
:103460001840F8E71868F6E71868002301AC2372E3
:103470002100FEF7EFFE2000FFF7DDFFEBE7CF2195
:103480001C680906201C16F021FE0028E3D09E21AE
:10349000201CC90516F006FE0028DCD0201C17F001
:1034A000D9FCD8E70020D6E770B530C814340E0038
:1034B00020002900FFF78CFF002806D07F22037A26
:1034C0001340082B03D00A2B04D030680AE00368AD
:1034D000002BFADB29002000FFF77AFF002801D03B
:1034E000FFF7A9FF70BD70B504000D00FFF77BFF6B
:1034F0000023A84201D163740133180070BD2F2846
:1035000015D90123392803D95E2803D97A2803D88D
:103510001800704740280AD901235A28F8D90023F7
:1035200001222D38C0B282425B41DBB2F0E70123B9
:103530002B28F4D1ECE737B500236A461370C3B2E9
:103540007F280BD853706B460233013B1878002854
:1035500031D00A68541C0C601070F6E73F248022BA
:103560006D4623405242134380096B7085B2C3B24B
:103570001F2D06D8403213436A4693706B460333BF
:10358000E3E76D46234000041343800DAB70C3B2E4
:103590000F2805DC202252421343EB7001ABD4E725
:1035A0001C40102380115B4218436B462243EA7093
:1035B00028710533C9E737BDF7B505000027FFF7C8
:1035C00012FF6F7401902800FFF70DFF0024019A8D
:1035D00003006C74824259D0A04204D102235835B2
:1035E00000202B70FEBD5C284BD12800FFF7FBFEAE
:1035F0000028F3D0284B752839D104266C74280094
:10360000FFF7F1FE0028E9D0402806D83038C0B2D4
:103610000F2806D958350323E2E72023984337388B
:10362000F5E700232401013E0443F6B2A4B26B7413
:103630009E42E4D1A0239B01E318184A9BB2934217
:1036400002D8A405A70DBEE790239B01E3189BB207
:103650002000934206D880238005BC02800D2043C1
:103660005B02C0182900FFF766FFACE702331A7847
:10367000002ACFD09042F9D15B78002BCAD000222B
:103680006A742A68511C296013709CE72B6801201A
:103690005A1C2A601C70A5E7FC190200FF030000F9
:1036A000036870B543600400FFF79DFE27280DD026
:1036B00022280BD02000FFF796FE0500FFF71FFF22
:1036C000061E09D103235834237003E02000FFF7BE
:1036D00073FF0600300070BD002363742368200070
:1036E0005A1C22601D70FFF77EFE0500FFF707FFE2
:1036F0000028F1D123685A1C22601870EAE7F7B558
:1037000004000D001F1CFFF77AFE0190002801D174
:10371000002658E02000FFF766FE272800D17BE056
:103720001DD8222800D177E02000FFF75CFE00269C
:1037300000900098F7B2FFF7E2FE002800D17EE08B
:103740000136402E00D179E06A4600231278637476
:10375000A319DA752000FFF746FE0090E9E75B2821
:1037600013D07B28E0D17F222B7A290093431A00C3
:10377000202313432B72002300222B606B60200058
:103780003B1C00F087F806001DE07F222B7AFFB279
:1037900093431A00402313432B7200232B606B606A
:1037A0009F4203D1583405332370B1E7637420007E
:1037B000FFF725FE0028ABD05D212000FFF793FE28
:1037C000061E02D0019E3000FEBD61692800FEF792
:1037D00025FD011E03D1042358342370F3E77B1E1B
:1037E00000222000FFF78BFF002800D190E7200087
:1037F000FFF705FE002800D18AE75D212000FFF7D2
:1038000072FE0028DED12C212000FFF76CFE00287C
:10381000DBD158340323C7E7236820006360FFF738
:10382000CBFE061E00D173E77F2263682B602B7AE4
:1038300093431A00042313432B72C4E73F2700214C
:10384000E3191976237E742B0DD17F222B7A9343B3
:103850001A00062313432B7201232B70042FB1D0BF
:1038600058340223A0E7662B0AD17F222B7A2970D5
:1038700093431A00062313432B72052FF0D1A1E7BF
:103880006E2BEBD0200029001830FEF7E3FC002857
:10389000BFD097E7F7B5DFB204000E00002F04D1C8
:1038A00005235834237000250DE000234374FFF7EF
:1038B000A6FD01900028F6D07D212000FFF713FE21
:1038C000051E28D0019D2800FEBD636830681900E0
:1038D0000093FEF78DFC002831D001007B1E0022F2
:1038E0002000FFF70CFF0028DDD02000FFF787FD48
:1038F0000028D8D07D212000FFF7F5FD0028E1D178
:103900002C212000FFF7EFFD002814D02000FFF746
:1039100076FD0028C7D02000FFF7C2FE0028C2D0E5
:103920002000FFF76CFD0028BDD03A212000FFF7F2
:10393000DAFD0028C9D1032358342370C3E7616935
:103940003000FEF76BFC002802D158340423F4E762
:103950007F22037A13400372009BC360BDE710B55A
:103960000400006803685B68984763681818606023
:1039700010BD70B5050008000C001AF0E1FA210036
:1039800002002800FFF7EBFF70BDF0B5162407001A
:103990000D000A2687B06C442800310016F02CFA7E
:1039A000013C303121702800310016F09FF9051ECE
:1039B000F2D116236B441A1B21003800FFF7CFFF0A
:1039C00007B0F0BD10B50400006803685B68984755
:1039D00063681818606010BD70B5050008000C0021
:1039E0001AF0AEFA210002002800FFF7EBFF70BDCD
:1039F000F0B5162407000D000A2687B06C44280095
:103A0000310016F0F9F9013C303121702800310005
:103A100016F06CF9051EF2D116236B441A1B210017
:103A20003800FFF7CFFF07B0F0BD00000623F7B561
:103A30000E1C070083725849301C16F047FB002803
:103A400044D00023142420250093544B311C1859D2
:103A500016F028FB002809D0514B301C195916F0DC
:103A600003FF009B061CE81803B20093043C6D1092
:103A7000231DEAD103340021301C16F01DFB002861
:103A800028D0301C18F0E4FF464A474B16F0D0FA15
:103A900000281FD0A300019323061BD4434B019A97
:103AA000311C985816F008FB00280AD03B4B019AAD
:103AB000301C995816F0D8FE009B061C581B03B208
:103AC0000093019B6D10013C043BE4E72025052495
:103AD0000090D0E76B461B88301C3B8116F06EFBD4
:103AE0000400334D38600190019B092B0DD90A2148
:103AF000280016F0FBF8BB7A0500013B0198BB7269
:103B00000A2116F0F3F80190EEE7200017F0C2F951
:103B1000011C301C16F0DAFF061C280017F0BAF959
:103B2000011C301C16F0A0FE019016F047FB0600A9
:103B300017F0B0F9011C019816F0C8FF011C16F02F
:103B400033FC16F03BFB8619AE4214D27E600A2588
:103B50007E682900300016F04FF900291AD10A2496
:103B60003C57002C16DD2900300016F0BFF8013C50
:103B70007860BC72ECE700237B60009B01343C6002
:103B8000002BE4D0092CE2D9180001230130388140
:103B90003B60DCE73800FEBD8096184B7C130200CA
:103BA00064130200F168E388B5F8E43E4C130200A8
:103BB00040420F0010B50400006803681B68984776
:103BC00063681818606010BD70B50D0004002221F4
:103BD0002000FFF7EFFF2978002909D00A4B0135B3
:103BE0001E78002EF4D05A788A4206D00233F7E7C6
:103BF00022212000FFF7DEFF70BD5C212000FFF7CF
:103C0000D9FF3100E4E7C046FE190200F0B5040018
:103C10008DB0081C0E1C16F035FA002805D141495C
:103C20002000FFF7A6FE0DB0F0BD0021301C16F0FD
:103C300029FA002809D1311C301C16F0B5FB011CF3
:103C4000301C16F01FFA0028E9D10021301C16F0B4
:103C50001FFA002806D02D212000FFF7ABFF80239C
:103C60001B06F61803AD311C2800FFF7DFFE039991
:103C70002000FFF78AFE0A23EB560093002B23D087
:103C80006F6801930AAE019B013E013B5BB2019359
:103C900001330BD038000A2116F0AEF83031317004
:103CA00038000A2116F022F80700ECE76B461B7873
:103CB0002026D9432E228B1902A8C2540AAB4A42AD
:103CC00020005918FFF74BFE0822AB5E002BAAD04C
:103CD00065212000FFF76EFF0823EE5EB5B2002ECF
:103CE00005DA2D212000FFF765FF7542ADB22626CB
:103CF0000A2702ABF6182800390016F07DF8013EBD
:103D0000303131702800390015F0F0FF85B2002DF8
:103D1000F1D1262302AA9B189A1B31002000FFF73D
:103D20001EFE80E7F71902007F2270B5037A0500B6
:103D30000C001340062B00D169E008D8022B0DD3EC
:103D4000032B50D806CD2000FFF709FE25E00C2BF1
:103D50001FD005D8082B58D00A2B49D030495BE03A
:103D6000202B21D0402BF9D15B212000FFF722FF2F
:103D70002D68002D13D021002800FFF7D5FF280063
:103D8000FEF72EFA051E0AD02C212000FFF712FFA5
:103D9000EFE701682000FFF739FF606870BD5D2123
:103DA0002000FFF707FFF8E77B212000FFF702FF65
:103DB0002D68002D15D0E9682000FFF705FF3A2196
:103DC0002000FFF7F7FE21002800FFF7ADFF2800D5
:103DD000FEF706FA051E04D02C212000FFF7EAFEAC
:103DE000E7E77D21DCE701682000FFF7EDFED4E77F
:103DF0000568002D04DA2D212000FFF7DBFE6D425F
:103E000029002000FFF7C1FDC7E70168F9E7037843
:103E10000449002B00D104492000FFF7AAFDBCE7AC
:103E2000F71902000D1A0200121A020010B50C0058
:103E3000002802D0FFF778FF10BD20000249FFF7ED
:103E400098FD6068F8E7C046F719020010B5040055
:103E5000006803681B68984763681818606010BDA5
:103E6000F0B504008DB0081C0E1C16F00BF90028EC
:103E700005D141492000FFF7AFFD0DB0F0BD002195
:103E8000301C16F0FFF8002809D1311C301C16F048
:103E90008BFA011C301C16F0F5F80028E9D100213E
:103EA000301C16F0F5F8002806D02D212000FFF771
:103EB000CDFF80231B06F61803AD311C2800FFF749
:103EC000B5FD03992000FFF793FD0A23EB560093FD
:103ED000002B23D06F6801930AAE019B013E013B8A
:103EE0005BB2019301330BD038000A2115F084FF37
:103EF0003031317038000A2115F0F8FE0700ECE788
:103F00006B461B782026D9432E228B1902A8C25457
:103F10000AAB4A4220005918FFF754FD0822AB5E55
:103F2000002BAAD065212000FFF790FF0823EE5E4A
:103F3000B5B2002E05DA2D212000FFF787FF75426C
:103F4000ADB226260A2702ABF6182800390015F074
:103F500053FF013E303131702800390015F0C6FEA4
:103F600085B2002DF1D1262302AA9B189A1B31009D
:103F70002000FFF727FD80E7F719020070B50D005C
:103F8000040022212000FFF761FF2978002909D0D1
:103F90000A4B01351E78002EF4D05A788A4206D09A
:103FA0000233F7E722212000FFF750FF70BD5C21AC
:103FB0002000FFF74BFF3100E4E7C046FE19020086
:103FC0007F2270B5037A05000C001340062B00D148
:103FD00069E008D8022B0DD3032B50D806CD200062
:103FE000FFF7F0FC25E00C2B1FD005D8082B58D08C
:103FF0000A2B49D030495BE0202B21D0402BF9D14E
:104000005B212000FFF722FF2D68002D13D0210037
:104010002800FFF7D5FF2800FEF7E2F8051E0AD0BA
:104020002C212000FFF712FFEFE701682000FFF7C7
:1040300017FF606870BD5D212000FFF707FFF8E7FC
:104040007B212000FFF702FF2D68002D15D0E968C5
:104050002000FFF793FF3A212000FFF7F7FE210031
:104060002800FFF7ADFF2800FEF7BAF8051E04D0C0
:104070002C212000FFF7EAFEE7E77D21DCE701685D
:104080002000FFF77BFFD4E70568002D04DA2D211F
:104090002000FFF7DBFE6D4229002000FFF7A8FC9F
:1040A000C7E70168F9E703780449002B00D1044908
:1040B0002000FFF791FCBCE7F71902000D1A02007F
:1040C000121A0200F0B5584FD5B05849380015F013
:1040D0000DFAFA20400101F01DF8FEF717F85449D7
:1040E00005A815F0D3FA534B0BA8196819F020FF57
:1040F0002CAC34AB2C93636054ABA360E36000231F
:104100007F252374237F2200AB4323774A4931A8BC
:10411000FFF736F9002806D00423027AAA43134396
:104120000372464B0360FDF7F1FF2200050044498E
:1041300031A8FFF725F9002807D07F22037A056010
:1041400093431A0008231343037222003D4931A808
:10415000FFF716F92200010008903B480994FFF789
:10416000CEF82200394931A8FFF70AF9061E16D009
:104170000BA92000FFF7AAF8051E4BD10BA819F0D8
:10418000DFFE030065680133A268EB1803909342D9
:1041900035D9012323747F22337A93433372002469
:1041A00008A931A808970994FFF740FE380015F0D8
:1041B0008BF9274905A815F001FB234905A815F03F
:1041C00046FB244905A815F054FB234D230022008B
:1041D00005A90094280012F0C7F808A931A808958D
:1041E0000994FFF7EDFE280012F0ADFC10491148CC
:1041F00015F0E4FA05A815F0FAF955B0F0BD6360C2
:10420000002DC8D0039A0BA9280018F0FCFD00234C
:10421000039AAB547F22337A356093431A00052307
:1042200013433372BBE7C046C05100202E19020071
:1042300024540200D80200204A1902004419020046
:104240004F19020059190200CC0200206019020027
:10425000A7170200B0170200CC040020F8B5424EA8
:10426000424F3100380015F011FA414C414D220007
:104270002900380015F01EFD3F4F3100380015F0C1
:1042800005FA22002900380015F014FD3B4F3100DB
:10429000380015F0FBF922002900380015F00AFD5E
:1042A000374F3100380015F0F1F9220029003800AD
:1042B00015F000FD334F3100380015F0E7F9290003
:1042C0002200380015F0F6FC2F4F380000F058FFA0
:1042D00022002E49380015F0EDFC2D4F002138004A
:1042E00001F03CFA22002B49380015F0E3FC2A4F7C
:1042F0000121380001F0B4FE22002849380015F0F1
:10430000D9FC3900264803F025FD22002549244820
:1043100015F0D0FC244F2249380011F08FFE220006
:104320002249380015F0C6FC214801F0EDFE214F6E
:104330003100380015F0AAF922002900380015F0E4
:10434000B9FC1D4F3100380015F0A0F922002900FA
:10435000380015F0AFFC4821184812F055FC4921EF
:10436000174812F051FCF8BD24540200FC0500204F
:1043700000000020EF950100E4020020CC020020A4
:10438000F0020020D8020020140300205551000044
:1043900094050020FD200000BC0500206D5B00009E
:1043A00000080020957C0000CC040020315F010053
:1043B000C80400202043002008030020FC02002045
:1043C00002030020F0B56C4B85B005201B78FEF78A
:1043D00061FDFEF799FE694C6949200015F086F8E9
:1043E00000F074FEE1216748490214F033FD664E87
:1043F000300000F081FD6549300000F0FDFD300027
:1044000000F07AFDFEF748F8614F380002F0F2F94B
:10441000002804D15F49200015F068F8FEE75E4DE2
:1044200008220021280002F06DFF390001A802F0E7
:10443000EFFA0199280002F083FF01A815F0D7F8E0
:10444000280003F02BF95549554803F06EFB28006E
:1044500002F070FF0700280002F06FFF3A0003002F
:104460000021504803F080FC4F4BF35C4F4E012B72
:104470000BD14F49200015F039F84E494E4815F040
:104480009DF94E49300015F099F94D4D3100280045
:1044900015F0DDF94B49280015F0EBF9464F2800DF
:1044A000390015F0D4F94849280015F0E2F94749D8
:1044B000200014F0FFFF2900200015F00DF8444EF5
:1044C0003900300011F0C2FD424901A815F0DEF8B4
:1044D00001AA2900300011F0BEFD01A815F087F8EF
:1044E00030003D4911F0B0FD00233C4E0121062073
:1044F000336012F07FFFE1212248490214F0AAFC48
:10450000E1212000490213F03BFB00F0DFFD3449BC
:10451000200014F0EBFF0A2000F082FD314920005A
:1045200014F0E4FF00F0E6FD174DEB79002B0CD002
:104530002D49200014F0BEFFE97A0A22200015F070
:104540004AF8E97A2948FDF76FFF2B7A002B0CD047
:104550002749200014F0AEFF297B0A22200015F025
:104560003AF8297B2348FDF75FFF234801F0CEFD91
:104570000023336005B0F0BD38040040C051002076
:10458000C31A0200004D00204C4300201D210000F2
:1045900044480020D31A0200E84800200D21000002
:1045A000D04B0020000800204B040000F002002047
:1045B000E61A020014470020CC020020914500209A
:1045C00020430020AE170200091B0200211B02003D
:1045D000CC04002024540200ED47000034030020E6
:1045E0002D1B02003B1B0200451B0200FC020020A9
:1045F0005D1B020002030020C804002030B5A5B0F6
:104600003149684615F042F83049684615F0D6F849
:104610002F49684615F01BF92E49684615F029F90F
:104620002D4C2E49200014F061FF00F04FFD2C4B63
:1046300003A8196819F07CFC2A49200014F03AFFFD
:1046400003A9200014F036FF2749200014F04EFF84
:10465000264D274A03A9280012F046FA00280FD158
:104660002449200014F026FF280011F000FD0A2242
:104670000100200014F08BFF1F4812F0B7FCE7E7A1
:10468000200014F021FF1D49200014F02FFF20000E
:1046900014F01AFF1A49200014F00CFF694620009C
:1046A00014F01AFF00226946280012F000F915499B
:1046B000200014F01BFF0A2000F0B2FC684614F042
:1046C00096FF25B030BDC04624540200A717020053
:1046D000CC020020F9140200C0510020B8190200D9
:1046E000F002002011150200EC220200CC04002090
:1046F000B32200008C150200881300002D15020063
:1047000051150200C4190200F8B52B4C2B492000AA
:1047100014F0ECFE00F0EEFC294801F003FA032847
:1047200044D0FEF7A7FC274811F003FD002801D173
:10473000FFF764FF0220FEF7ADFB2349200014F0D1
:10474000D5FE28208527214DBF002B6858435A1CD1
:104750001F4B2A60C018FEF7B3FB1E49200014F05F
:10476000A9FE0A222968200014F011FF1A4920002E
:1047700014F0A0FE194E0A22F15B200014F007FF8E
:10478000F35B2A6893420CDC1549200014F0AEFE5E
:104790000C4811F089FE29680D48FEF711F8002336
:1047A0002B60104BF05A00F0B5FCF8BD0E4800F03D
:1047B00079FD0428B5D1B6E7C0510020181A0200CF
:1047C00094050020CC040020251A020034030020A8
:1047D00038030020551A02006B1A02004C430020D7
:1047E0008A1A02001202000014030020F0B5894C5E
:1047F0008949A544040000AF884814F05BFE2300FB
:104800006A460833DB08DB00D31A9D466E466D46C8
:10481000AB1B9C4205DD824811F077FB2870013507
:10482000F6E7E3430025DB171C40355531007B4894
:1048300014F040FE794814F047FE082160237A18EE
:10484000D4182033D218BA667A18D3186360A0231C
:104850009B00D218A2607A18D3187F22E360237FCE
:104860000C20934323772B00FE60BE610E007A1864
:104870005C33D3183D613D757D7725743C627918B2
:104880001D7074350A23491900223818FEF737FFC6
:10489000BB1964495819FEF79BFD002800D1B6E00A
:1048A0007F22037A1340043B012B00D9AFE0056857
:1048B000002D00D1ABE05C49584814F0FBFD290005
:1048C000564814F013FE5949280019F027FB061E1C
:1048D00000D08CE05649514814F008FE4F4B082593
:1048E0000C22FB6074237819B918C0183E61FFF7D9
:1048F0009DFA4A4814F0E8FD0C224E4B013E79190E
:10490000B818FC603B61BE60FEF7CEFD0C224A4B3E
:104910007919B818FC603B61BE60FEF7C5FD0C223A
:10492000464B79193860B818FC603B61BE60FEF7F1
:10493000BBFD434B05003B610823F9180433F8180D
:10494000FC60BE60FEF7B0FD2A003E4B643A786022
:104950003D4C9A420ED83D49304814F0ABFD0A2236
:1049600029002E4814F00FFE39492C4814F0BEFDE2
:10497000384BE5523B68013B092B11D8274E36498D
:10498000300014F097FD0A222900300014F0FBFDDE
:104990003249300014F0AAFD85233A889B00E25288
:1049A0007B68013B082B0DD81C4D2D49280014F0C5
:1049B00081FD0A227968280014F0E9FD8623BA886F
:1049C0009B00E2520121200000F0B4FAFDF77CFDCB
:1049D00001211D4800F0AEFA224B9B68002B01D04C
:1049E000FFF770FBBD46A3239B009D44F0BD1E490D
:1049F000280019F093FA002804D11C49074814F044
:104A000075FDE3E71A49174814F0D8FEE0E71949A5
:104A1000F9E7C04674FDFFFFD3170200C051002024
:104A2000CC040020F3170200F8170200B71B0200A5
:104A30000818020025180200291802003018020088
:104A4000391802005BD401004C43002041180200D9
:104A50006318020012020000671802007B180200AF
:104A60008A180200D80200209F180200A418020031
:104A7000D01802001219020010B50121014800F0FF
:104A800059FA10BD4C430020F0B5B9B0040012F043
:104A900077FAFA2301259B00C318009300232F0007
:104AA000029312F06DFA009BC01A00D4AEE0029B94
:104AB000F92B00D9AAE0002D12D05949200014F09A
:104AC00015FD2100574800F03FF9200000F068FA7A
:104AD0005549200014F0EEFC029B0133DBB2029337
:104AE000236820001B69984700282AD123682000EA
:104AF0001B699847051ED4D000231E000393019321
:104B000012F03EFA009BC01A75D5019B002B23D1F1
:104B1000236820005B699847051EF1DD12F030FA2A
:104B2000FA239B00C31800930D2D3CD12368290064
:104B30001B682000984712F023FA32300390019747
:104B4000DEE7236820009B6998470028CED12368C0
:104B500020005B699847C3E7236820009B6998475A
:104B6000431C58D112F00CFA039BC01AD0D4002574
:104B700005AB9B191D70AE4293DB12D02B4905A8E3
:104B800019F092F9A84241D005AA3900254800F051
:104B900070F8A84233D012F0F3F9FA239B00C3183F
:104BA00000933D007DE70A2D05D1236829001B688D
:104BB00020009847DBE700230193082D01D07F2DCB
:104BC00009D19E429CD0236803225B6818492000CB
:104BD0009847013E94E7C72E92D82B00203B5E2BCE
:104BE0008ED82368EDB21B6829002000984705ABDA
:104BF0009D55013684E7002505AB1D7051E705A9D9
:104C00000C4800F0E7F90028C5D1CAE7200014F0ED
:104C10005BFC39B0F0BD0A2800D179E7A7E7C046B0
:104C2000751B0200981B0200811B0200951B0200ED
:104C3000911B02004C430020F7B506000F00002432
:104C40000192BC4212D018236343F3185D68280018
:104C500019F076F929000200019819F078F9631C1F
:104C6000002801D12000FEBD1C00EAE701204042DF
:104C7000F9E770B506001500FFF7DEFF0023984244
:104C80000DDB182444433419A6680133002E06D0E6
:104C9000606819F055F929182000B0470123180061
:104CA00070BD70B504690500002C08D04269200071
:104CB00019F082F96B69E4180023013C237070BD80
:104CC00010B504690B00002C05D00022180011005B
:104CD00019F020FF207010BD10B504690B00002CE6
:104CE00005D000221800110019F014FF208010BD1B
:104CF00070B50C0005000A49200014F0DBFB2968A0
:104D0000200014F0D7FB0749200014F0D3FB69689A
:104D1000200014F0CFFB0449200014F0CBFB70BD41
:104D2000EB220200C31B0200C61B020070B50C0080
:104D30000500080014F0C8FB2968200014F0BAFB35
:104D4000200014F0C1FB70BD70B505690C00FFF7C1
:104D5000CFFF002D04D02900200014F0C7FB70BD48
:104D6000200014F0B1FBFAE770B505690C00002DC6
:104D700006D0FFF7BDFF29780A22200014F02BFC93
:104D800070BD70B505690C00002D06D0FFF7B0FFAF
:104D900029880A22200014F0FAFB70BD30B5094DB5
:104DA000094CAB685B035B0F9B001C590460AB684C
:104DB00001619BB243606343A4008360C4604261AD
:104DC00030BDC04600400041CC1B0200F7B5802634
:104DD0001A4D01916F6803333E439B086E60002BB0
:104DE0002BD0174E2E802E7DF107FCD51E000768B4
:104DF000991BBF088F4219D9002E17D0FF211778B1
:104E00008C433C430F4957780C403F023C43977812
:104E1000013E39040C4F2740D478BFB20F4324061B
:104E200001993C4310C101910432E0E7074B2B800C
:104E30002B7DDB07FCD53300D1E7F7BD00400041F7
:104E400044A5FFFFFF00FFFFFFFF00FF04A5FFFFDA
:104E5000044B054A4908D9611A801A7DD207FCD54E
:104E60007047C0460040004102A5FFFF70B5040036
:104E70000D001600E36829002000B34205D2FFF7B9
:104E8000E7FFE368ED18F61AF4E7FFF7E1FF70BDFE
:104E900010B510001A0017F0B6FF10BD0D4BF0B59D
:104EA000C418082500230C4EA04210D0027812022C
:104EB00053402A001FB259008BB2002F01DA714013
:104EC0008BB2013AD2B2002AF4D10130ECE71800DB
:104ED000F0BDC0464C04000021100000044B10B58A
:104EE0001B68002B00D098470122024B1A7010BD9E
:104EF000304300202C43002010B504000A48220053
:104F000043690169FFF7C4FF2000FFF7C7FF22884C
:104F1000064B9A4203D1064BE35A834202D020004B
:104F2000FFF7DCFF10BDC04634430020EFBE000099
:104F30004C04000030B5134C134DA5440400002967
:104F400002D12B78002B19D0104B20002380FFF7C3
:104F5000A5FF0F4B2100E0520E4A684617F053FFA1
:104F60000D4C626921692000FFF780FF63696A4682
:104F700021692000FFF72AFF00232B70074B9D4477
:104F800030BDC046ACFBFFFF2C430020EFBEFFFF4F
:104F90004C0400004E040000344300205404000080
:104FA00070B50500902614F08FFA0849280014F017
:104FB0009DFA0024760006482018C368002B01D013
:104FC000290098471834B442F5D170BD2022020060
:104FD0000021020010B50A0004480C21FFF749FE29
:104FE000002802D00122024B1A7010BD00210200DD
:104FF0002C43002001207047014B19607047C046C8
:105000003043002010B5034A03490448FFF7C6FEA9
:1050100010BDC0464E040000001C020034430020B6
:105020001023224A91690B439361214B1A7852B2A3
:10503000002A3ADB1F4A204991602049516051788B
:1050400049B20029FBDB1E495180517849B2002941
:10505000FBDB02211A788A431A70DA7952B2002AED
:10506000FBDB04211A788A431A70DA7952B2002ADB
:10507000FBDB0F21421C0A405A7002220840987044
:1050800019780A431A70DA7952B2002AFBDB01223E
:10509000C0205A710B4B03321A6080001A580A491B
:1050A0001140C02212040A431A5070470004004005
:1050B00000100040000C0040040400000403110034
:1050C0000344000000E100E0FFFF00FF0221074B66
:1050D0001A788A431A70DA7952B2002AFBDB10215F
:1050E000034A93698B4393617047C04600100040A8
:1050F00000040040064B1900DA7952B2002AFBDBAB
:10510000A5221A72CB795BB2002BFBDB7047C0463D
:105110000010004070B5040011F032FF0A25041998
:1051200011F02EFFA0420AD2FFF7E4FF11F028FF92
:10513000201A0A2800D9280011F058FFF0E770BDA6
:105140000123024A1370024A937170479A47002064
:105150000010004010B50400034B083303600C300E
:1051600014F045FA200010BDE423020010B504003D
:10517000FFF7F0FF200014F019FD200010BD000023
:10518000074B10B50833036001230400037205497F
:105190000C3014F07BFA00232000E36110BDC04600
:1051A000E42302002454020030B5264C85B00500EB
:1051B000200000F0CDF9002837D0200000F0E0F802
:1051C00000226B681000013B052B2ED8180014F04C
:1051D00079FD03090D182E341B49200000F098F8C2
:1051E000022300E003236B6000201EE02900200062
:1051F0000C3100F077FA1549200000F089F80423FB
:10520000F1E7134901A814F041FA280001A90C3074
:1052100014F098FB040001A814F0E9F9002CDFD089
:10522000002301206B6004332B7205B030BD0949A7
:10523000200000F06DF80623D5E701236A602B7289
:10524000D2E7C0469C470020C1230200CC230200C5
:105250007C240200D6230200F8B501234360DB184A
:1052600004000372002919D011F08AFEFA26070003
:1052700076002000FFF798FF051E09D1E369002B97
:1052800008D011F07DFEE369C01B984202D365602F
:10529000207AF8BD300011F0A9FEEAE7FFF784FF9D
:1052A000F6E7000010B50400024800F069F8207A23
:1052B00010BDC0469C47002010B504001C3014F0FF
:1052C00096F9200010BD000070B58360049B0600B5
:1052D0000025C360012304001C364260056105758A
:1052E000836101603000054914F0D0F9A5623000F7
:1052F000402114F09DF9200070BDC04624540200E6
:10530000014B024A1A607047C8470020C051002074
:1053100070B504000D0011F033FE2369C01A132884
:1053200003D81423181A11F061FE2900206814F024
:10533000DDF820680368DB68984700232375A361C4
:1053400070BD00000EB410B50A4C0B49A544040012
:10535000FFAB183304CB02A8019319F07BFE02A91E
:105360002000FFF7D5FF054B9D4410BC08BC03B0DF
:105370001847C046F4FBFFFFFF0300000C040000C9
:10538000F0B5040087B0206803681B6998470028BF
:1053900000D192E0206803685B699847634BC6B20E
:1053A0001868002803D0036831001B68984725005F
:1053B0001C353100280014F065FA277D012F48D0F4
:1053C0005B49684614F062F96946280014F0AEFAA9
:1053D0000026B0420DD0574903A814F057F903A98D
:1053E000280014F0AFFA461EB041C6B203A814F06C
:1053F000FEF8684614F0FBF8002E06D00123237552
:105400004D49280014F0DAF9BDE74A4903A814F021
:105410003DF903A9280014F095FA070003A814F039
:10542000E6F8002FAFD0280014F069FB636A002B68
:10543000E6D011F0A5FD2061404BB200D058002805
:1054400003D0036829001B6898470136082EF3D162
:10545000D6E70A2E97D111F093FD3949206103A8B0
:1054600014F014F903A9280014F0F7FA060003A8B1
:1054700014F0BDF8731C22D0A761A369002B82D061
:10548000A26A002A13D0012B4ADD03A8636A320006
:10549000290014F0E9FA03A814F0A9F8280014F080
:1054A0002EFB2900A06A14F067F90023A3620023F1
:1054B00021492375280014F081F907B0F0BD214976
:1054C00003A814F0E3F803A9280014F0C6FA0600B4
:1054D00003A814F08CF8731C02D00223A361CCE75C
:1054E000194903A814F0D2F803A9280014F0B5FA5A
:1054F000060003A814F07BF8731C01D00323EDE72A
:10550000124903A814F0C2F803A9280014F0A5FA60
:10551000060003A814F06BF8731CAED00423DDE77B
:105520003100280014F0D8FAB8E7C046C847002078
:10553000F4230200F923020024540200CC47002087
:10554000F7230200FC2302000424020011240200BD
:1055500010B50400FFF714FFA06910BD70B582629A
:1055600004000E0011F00CFD050011F009FD401BB8
:10557000B04208D22000FFF703FFA0690028F4D052
:105580000023A36270BD00232000A3621C300349E6
:1055900014F014F901204042F4E7C04624540200FC
:1055A00010B504000549FFF7B3FE0022C821200012
:1055B000FFF7D4FF01384342584110BDF4230200E5
:1055C00070B505000E0011F0DBFC040011F0D8FCF2
:1055D000001BB04208D22800FFF7E2FF012804D0E8
:1055E000642011F003FDF1E7002070BD10B50749FC
:1055F0000400FFF78DFEFA21002289002000FFF74A
:10560000ADFF01384342584110BDC0463E14020070
:1056100070B50400E1230D00616800685B029942E7
:1056200000D919000368DB699847E3680121D8B203
:1056300011F0E0FEE3680121D8B211F027FFA06865
:1056400000283CDB002D3AD0C0B2012111F0D2FE7F
:10565000A3680121D8B211F019FF642011F0C6FC33
:10566000A3680021D8B211F011FF1C492000FFF7F8
:10567000A7FF002829D0E12362685B0201209A423B
:1056800024D917492000FFF75DFE0022C821200021
:10569000FFF764FF012818D1206803685B6A984708
:1056A000642011F0A3FC206861680368DB699847F7
:1056B0000A492000FFF784FF431E984106E007498E
:1056C0002000FFF77DFF002801D1002070BD2000E1
:1056D000FFF78CFF0028C8D1F7E7C046102700006D
:1056E0001B24020081627047002310B5054A980010
:1056F0008458002C01D1815010BD0133082BF6D104
:10570000FAE7C046CC470020002310B5054A9800B0
:1057100084588C4202D10023835010BD0133082BE2
:10572000F5D1FAE7CC4700202323E12213B5074C3B
:1057300000935202043B06492000FFF7C5FD054ACD
:105740000549200014F0B6FA13BDC0469C4700205E
:10575000444F002000000020B952000070B5002521
:1057600004000E000849057045608560C160016154
:105770004161183013F08AFF6562AE4202D00348DF
:10578000FFF7BEFD200070BD245402009C4700209E
:10579000F0B5037885B005000224002B21D07F4EA0
:1057A0003000FFF7D5FE041E1BD03000FFF7E8FDE8
:1057B0006F68172F15D8380014F084FA0C161D25C1
:1057C000293459686C72757B7F85898F939A9EB254
:1057D000B7BDC2CD72493000FFF79AFD01233C00EE
:1057E0006B60200005B0F0BD0223012C08DD002312
:1057F00002242B70F5E76B493000FFF789FD032386
:105800006B600024EDE7012CF1DC0423F8E72900AC
:1058100030001831FFF766FF63493000FFF778FD6D
:105820000523EDE7012CF0DC2E006049183601A8B5
:1058300013F02CFF01A9300014F084F8040001A833
:1058400013F0D5FE002C01D00A23D9E7584901A84E
:1058500013F01CFF300001A914F074F8060001A831
:1058600013F0C5FE002EC2D006236B60B9E7AB680B
:10587000002BBCD0290030001831FFF733FFAA6895
:105880004C493000FFF75EFD0723B9E70823012CE0
:10589000B6DDACE748493000FFF73AFD0923AFE732
:1058A000012CD1DDA3E745493000FFF731FD0B2383
:1058B000A6E70C23012CA3DD99E741493000FFF74F
:1058C00027FD0D239CE70E23012C99DD8FE73D4931
:1058D0003000FFF71DFD0F2392E71023012C8FDD11
:1058E00085E7EA6838493000FFF72CFD112387E788
:1058F0001223012C84DD7AE72B6969691A78002A62
:1059000002D10A78002A06D00A0030002F49FFF79A
:1059100019FD132374E72E493000FFF713FDF8E754
:105920001423012C00DC6BE761E72A493000FFF704
:10593000EFFC152364E7012C00DD58E716235FE731
:10594000290030001831FFF7CDFE23493000FFF762
:10595000DFFC172354E7012C00DD48E728002B6A01
:105960001830591E14F01CF8FB230340302BE5D0EF
:10597000312B02D03038082805D118236B60153B35
:105980002B7001242DE7022803D1162328706B60A9
:1059900037E7032800D024E729E7C0469C470020CA
:1059A000302402003A240200442402004D24020064
:1059B000532402005B240200D62302006824020064
:1059C00072240200802402008A240200A124020022
:1059D000BB2402008014020026240200F7B51D003B
:1059E00008AB160004CB0F0019780AAB1B78040033
:1059F000154800920193FFF70BFE002803D1002306
:105A000023702078FEBD009B00206361012323707A
:105A1000019BA760E660256160608342F2D011F0CF
:105A2000AFFA05002000FFF7B3FE0028E9D1636A52
:105A3000002B05D011F0A4FA636A401B9842DED215
:105A4000642011F0D3FAEDE79C47002030B51C002C
:105A500085B008AB1D78044B029501940093FFF7C5
:105A6000BDFF05B030BDC04624540200F0B58DB076
:105A70002849684613F00AFE274C28492000FFF702
:105A800047FC6A4664212000FFF768FD012806D024
:105A90000026684613F0ABFD30000DB0F0BD2D219F
:105AA000684613F0AEFF0100431C02D0684614F0B4
:105AB00013F803AA1A49009818F0F2FD0028E7D05D
:105AC00003A817F08FFA06000F0068461A2113F09A
:105AD00067FF1B210400684613F062FF0A23303C75
:105AE000634330381818E1239B0058431921040000
:105AF000C517684613F054FF2D2802D136196F419F
:105B0000C7E71921684613F04BFF2B28C1D1361B7C
:105B1000AF41BEE7245402009C470020CC24020081
:105B2000D5240200007870470020704713B56B46FB
:105B30000268D9710733546819000122A04716BDC5
:105B400080690130431E9841C0B2704713B56B465F
:105B5000DC1D036801225B6A21009847012801D1FE
:105B6000207816BD01204042FBE77047094B010039
:105B70001A0010B50400083254330260036110317A
:105B80000548FFF7C1FD2000343013F030FD200040
:105B900010BDC0469C2502009C47002010B50400A3
:105BA000FFF7E4FF200014F001F8200010BD000012
