:1020000000800020D5700100BD700100BD7001008E
:1020100000000000000000000000000000000000C0
:10202000000000000000000000000000BD70010082
:102030000000000000000000BD70010029710100D7
:10204000BD700100BD70010005530000BD700100AE
:10205000BD700100BD700100BD700100C1700100C4
:10206000BD700100BD700100BD700100AD7C0000BD
:10207000BD7001001570010005700100BD70010008
:10208000BD700100BD700100BD700100BD70010098
:1020900000000000BD700100BD700100BD700100B6
:1020A000BD700100BD700100BD700100BD70010078
:1020B0000000000010B5064C2378002B07D1054B1B
:1020C000002B02D0044800E000BF0123237010BDA4
:1020D000B002002000000000607E0200044B10B53A
:1020E000002B03D00349044800E000BF10BDC046E8
:1020F00000000000B4020020607E020010B5040061
:10210000183017F056FB200010BD000010B5024833
:1021100003F08EFD10BDC0469405002070B501256A
:102120001A4C1B4B1B491C48E5541BF0B1FF1B49C3
:102130001B481BF0ADFF1B491B481BF0A9FF1B4BA5
:102140001B491C48E5541BF0A3FFFA221A4B9200CE
:10215000E2520233E5520433E552184B1849E55474
:1021600002231848E3722373E57125721BF090FF78
:10217000154916481BF08CFF154916481BF088FFBF
:10218000154916481BF084FF70BDC046544100201D
:102190004B040000541702001C4500205E1702008B
:1021A0008F430020651702006E43002049040000A1
:1021B0007517020099430020120200004A04000033
:1021C0009A170200834100209E170200A3410020BD
:1021D000F5250200C3410020A017020003420020A1
:1021E0000023994208D07F220B7A086093431A009B
:1021F000042313430B720123180070470A21435E26
:102200000200181E01D01B01D018704770B50D00D8
:10221000041E0FD0C168A9420CD0002D06D00029A1
:1022200004D028001BF02AFF002803D02000FFF76D
:10223000E5FFEDE7200070BD4A688B6810329342DD
:1022400004D201230B74002318007047103B8B60ED
:10225000002BF9D04268002A08D0991A091151813F
:10226000002243605A811A72DA60EDE70360F7E7F3
:10227000F7B5037804000D002B2B1DD02D2B1CD19E
:102280000127013423781A00303A092A02D92E2B6B
:1022900000D0C9E000200A26644922781300303BB0
:1022A000DBB2092B0BD8884211D8DA437043824243
:1022B0000DD3C0180134F0E701340027E2E7002A0B
:1022C00005D1002F18D080231B06984209D900267B
:1022D000574B98421AD90A21013617F0C5FD76B23C
:1022E000F6E77F222B7A404293431A000A231343D6
:1022F0002B7228603800FEBD7F222B7A2860934322
:102300001A00082313432B720127F3E723781A00DE
:10231000303A092A03D8013676B20134F6E72E2B7B
:102320000FD10A21434A01342378303BDBB2092B19
:1023300007D8904203D84843013E181876B20134BA
:10234000F2E7202322789A430023452A3AD1627883
:102350002D2A1FD102340133019300232178303913
:10236000CAB2092A2AD80A225343CB18F1182629BF
:1023700022DD019A2B7A7F20002A11D00024002F21
:1023800001D0802424060C2183430B432B722C6044
:10239000019FAFE72B2A01D00134DDE70234DBE7F0
:1023A000002F06D024490C22834313432B7229604B
:1023B000AAE7FF21C905F6E70134CFE7019A002A11
:1023C00000D05B422478002C2ED1F61818F020FEA5
:1023D000002E1ADD01231E4204D0184AA300D15852
:1023E00018F000FB01347610E4B2002EF2D1002F79
:1023F00002D080231B06C0187F222B7A28609343CB
:102400001A000C2313432B727EE77642002EEED087
:1024100001231E4204D00A4AA300D15818F0E2FA60
:1024200001347610E4B2F1E7002763E7999999192E
:10243000FFFF7F00CBCC0C00000080FFDC1402000B
:10244000C4140200054B1A78002A04D0597881423E
:1024500001D00233F7E710007047C046791B020035
:1024600070B50D00164E17490400300017F004F93E
:102470001549300017F000F91449300017F0FCF846
:102480000A222900300017F084F9002D02D18021A2
:10249000890008E0012DFAD08021022D02D0042D00
:1024A00005D1C021C900200014F097FC70BD802127
:1024B000082D02D0102DEAD1A0210901F3E7C04672
:1024C000C84F0020F91A02000B1B0200171B020064
:1024D00070B5094C200002F0B9FB084D210028001E
:1024E00002F06AFE0028F4D0200002F03BFE280033
:1024F000002102F001FE70BDC84F002054410020B1
:1025000003280FD8104BDB7A0020012B12D0022BAE
:1025100013D0042B13D0082B13D0FE21102B0AD07C
:10252000002109E00438032802D8074B1B7BEBE7A6
:102530000020F5E7FF21890570470449FCE70449BD
:10254000FAE70449F8E7C046544100200000B03FD4
:102550000000A03F0000903FF0B50C00A1B00500C6
:10256000FFF7D4FD314E0BA8310017F071F931009F
:102570000EA817F06DF9310011A817F069F93100B4
:1025800014A817F065F92A4917A817F061F9310066
:102590001AA817F05DF9274E2749300017F088F880
:1025A0002649300017F068F80A222100300017F0A1
:1025B000D0F8234B2800DA79197A00231D0008305F
:1025C0000993089307930693059304930393A342F7
:1025D00038DA002A11D00027C65FAD190227C65F7E
:1025E000039FBE1903960427C65F049FBE19049675
:1025F0000627C65F059FBE190596002913D0082738
:10260000C65F069FBE1906960A27C65F079FBE19BA
:1026100007960C27C65F089FBE1908960E27C65F4F
:10262000099FBE19099601332830D0E724560200CD
:10263000A4170200C84F0020AB170200CC170200FD
:1026400054410020F34EF449300017F031F8F34BB9
:10265000DB79002B23D0F249300017F00DF80A2265
:102660002900300017F07FF8EE49300017F004F829
:102670000A220399300017F076F8EB49300016F083
:10268000FBFF0A220499300017F06DF8E74930008B
:1026900016F0F2FF0A220599300017F064F8DF4BBC
:1026A0001B7A002B24D0DB4EE149300016F0E4FF0A
:1026B0000A220699300017F056F8DE49300016F06D
:1026C000DBFF0A220799300017F04DF8DA49300095
:1026D00016F0D2FF0A220899300017F044F8D749C3
:1026E000300016F0C9FF0A220999300017F03BF8B4
:1026F000D34914A817F020F9C64ED249300016F07D
:10270000BBFF14A9300016F0C9FFCF490BA817F082
:1027100051F9CE490BA817F04DF9CD490BA817F088
:1027200049F9CC4F0BA8390017F044F9CA490BA856
:1027300017F040F9C94E0BA8310017F03BF914A966
:102740000BA817F025F931000BA817F033F9390061
:102750000BA817F02FF9C2490BA817F02BF9FFF7B8
:10276000D5FC01000BA817F051F9AC4BDB7B002B1B
:1027700023D039000BA817F01DF931000BA817F072
:1027800019F9B8490BA817F015F9B7490BA817F0B4
:1027900011F90020FFF7B4FE06000F002800210009
:1027A00017F0ECFB1AF0A6F932003B0019F096FB8B
:1027B00002000B000BA817F036F9984D2F352B7837
:1027C000002B23D0A3490BA817F0F4F8A3490BA8BA
:1027D00017F0F0F829000BA817F0ECF8A2490BA8A5
:1027E00017F0E8F80120FFF78BFE06000F000398B2
:1027F000210017F0C3FB1AF07DF932003B0019F0FD
:102800006DFB02000B000BA817F00DF9834D4F353F
:102810002B78002B23D08F490BA817F0CBF88F49CA
:102820000BA817F0C7F829000BA817F0C3F88E49BA
:102830000BA817F0BFF80220FFF762FE06000F009A
:102840000498210017F09AFB1AF054F932003B006B
:1028500019F044FB02000B000BA817F0E4F86F4DD1
:102860006F352B78002B23D07A490BA817F0A2F8EC
:102870007A490BA817F09EF829000BA817F09AF8D0
:1028800079490BA817F096F80320FFF739FE0600E8
:102890000F000598210017F071FB1AF02BF9320098
:1028A0003B0019F01BFB02000B000BA817F0BBF854
:1028B0005A4D8F352B78002B23D066490BA817F083
:1028C00079F866490BA817F075F829000BA817F0DE
:1028D00071F865490BA817F06DF80420FFF710FE9A
:1028E00006000F000698210017F048FB1AF002F9C5
:1028F00032003B0019F0F2FA02000B000BA817F0AF
:1029000092F8464DAF352B78002B23D051490BA8B8
:1029100017F050F851490BA817F04CF829000BA8F4
:1029200017F048F850490BA817F044F80520FFF7B6
:10293000E7FD06000F000798210017F01FFB1AF0B3
:10294000D9F832003B0019F0C9FA02000B000BA8BD
:1029500017F069F8314D2E00CF363378002B23D095
:102960003C490BA817F026F83C490BA817F022F8B1
:1029700031000BA817F01EF83B490BA817F01AF806
:102980000620FFF7BDFD06000F000898210017F094
:10299000F5FA1AF0AFF832003B0019F09FFA020086
:1029A0000B000BA817F03FF8EF352B78002B23D046
:1029B00028490BA816F0FEFF28490BA816F0FAFFCD
:1029C00029000BA816F0F6FF27490BA816F0F2FF16
:1029D0000720FFF795FD06000F000998210017F06A
:1029E000CDFA1AF087F832003B0019F077FA0200AE
:1029F0000B000BA817F017F81C490BA816F0DAFF0C
:102A0000044D1B49280016F053FE1A491DA816F064
:102A10001FFF31E0C84F0020E8170200544100209A
:102A2000F8170200091802001A1802002B180200F9
:102A30003C1802004D1802005E1802006F180200D8
:102A40001C45002080180200901802009218020015
:102A50009A180200A1180200A31802006D270200B4
:102A6000B11802006341002022190200BE180200C2
:102A7000C0180200D918020014A91DA816F0E4FF1E
:102A8000164916F0EEFF0022154C009213000100CB
:102A9000200013F04BFD1DA816F08BFE0BA92000A3
:102AA00016F0E3FD200014F030F90E49280016F06E
:102AB000FFFD1AA816F07DFE17A816F07AFE14A8DE
:102AC00016F077FE11A816F074FE0EA816F071FE2F
:102AD0000BA816F06EFE21B0F0BDC046E218020051
:102AE000CC040020F418020070B505000024AC42AC
:102AF0000FDA0121062014F0ABFDC82002F0ECFB38
:102B00000021062014F0A4FDC82002F0E5FB0134EA
:102B1000EDE770BDF8B55E4D04005E49280016F083
:102B2000C7FD5D4BDB79002B3CD05C4E03213000B0
:102B300014F092F95A4907B2280016F09DFD0A22B6
:102B40003900280016F005FE27810221300014F01C
:102B500083F9544907B2280016F08EFD0A22390085
:102B6000280016F0F6FD67810121300014F074F999
:102B70004D4907B2280016F07FFD0A2239002800CF
:102B800016F0E7FD00213000A78114F065F94749F0
:102B900006B2280016F070FD0A223100280016F057
:102BA000D8FDE6813C4B1B7A002B3CD0404E0321E4
:102BB000300014F051F93F4907B2280016F05CFDCF
:102BC0000A223900280016F0C4FD278202213000B5
:102BD00014F042F9384907B2280016F04DFD0A22D8
:102BE0003900280016F0B5FD67820121300014F08D
:102BF00033F9324907B2280016F03EFD0A223900A7
:102C0000280016F0A6FD00213000A78214F024F958
:102C10002B4906B2280016F02FFD0A2231002800A9
:102C200016F097FDE682FA20800016F023FC208340
:102C3000FA20800016F01EFC6083FA20800016F057
:102C400019FCA083FA20800016F014FCE083FA201F
:102C5000800016F00FFC2084FA20800016F00AFC99
:102C60006084FA20800016F005FCA084FA20800021
:102C700016F000FC134B084AE084D35C002B02D012
:102C80000120FFF731FFFFF741FA2060F8BDC04691
:102C9000C84F0020F116020054410020FC02002021
:102CA0000C170200151702001E170200271702005A
:102CB00002030020301702003917020042170200F9
:102CC0004B1702004A04000073B5134C134920004F
:102CD000FA2616F0EDFC0125B60000950123104AF6
:102CE0001049114802F094FF032807D00F49200033
:102CF00016F0C2FC300014F05BFAEEE729000C4835
:102D000002F08CFB0428F1D10A49200016F0D0FC17
:102D1000200016F0BBFC73BDC84F00201B1B020037
:102D20006E4300208F430020940500200A17020004
:102D300014030020491B0200F0B55D4D5D4987B0CA
:102D4000280016F0B5FC5C4C0121200002F042FD89
:102D5000200002F007FD0028FAD05849280016F09C
:102D60008BFC5749200002F0CFFBFA210022C9005A
:102D7000200002F0D5FC534E2800310016F098FCDC
:102D80005149280016F094FC5049200002F0BCFB89
:102D90004F4A6421200002F0C3FC3100280016F0E5
:102DA00087FC4C49280016F067FCFA274A492000A6
:102DB00002F0AAFBBF00642014F0FAF9474928008A
:102DC00016F05AFC200002F0CDFC00223900200051
:102DD00002F0A6FC0128EED13100280016F068FCB4
:102DE0003F49280016F064FCFA273E49200002F013
:102DF0008BFBBF00642014F0DBF93849280016F083
:102E00003BFC200002F0AEFC00223900200002F062
:102E100087FC0128EED13100280016F049FC324928
:102E2000280016F045FC63273049200002F052FBD1
:102E3000FA21274AC900200002F072FC2C4903A89D
:102E400016F006FD03A9224816F07CFE019003A8A7
:102E500016F0AFFC019B01330CD0019B06221C49EC
:102E600003A816F0BFFE03A816F030FF070003A862
:102E700016F09FFCFA20800014F09AF91F2FD3DC83
:102E80003100280016F014FC1A49280016F010FC36
:102E90002000194902F038FBFA210D4AC900200030
:102EA00002F03EFC3100280016F002FC07B0F0BD35
:102EB000C84F0020F4140200A4450020161502009B
:102EC000331502003D15020043150200681502008B
:102ED000FC050020721502009E1502000A17020070
:102EE000A9150200E0150200EA15020027160200EB
:102EF000A11802002E16020045160200030020331E
:102F00000360436088239B00C3188360C360002371
:102F10007F220374037F934303777047F0B524C87F
:102F2000954211D90800130007781C785E1CBC423A
:102F300004D1002C09D001303300F5E718780133B3
:102F40001A000028FAD1EBE700221000F0BD0023A0
:102F5000F0B585B007000C000291039200939942EE
:102F600008D00168994208D17F22237A93432372C3
:102F700001230093009805B0F0BD039E3000FFF7D9
:102F8000CDFF051E1BD1BB6875680193B268013384
:102F9000EB18934207D9012333747F22237A93439A
:102FA00023720023E5E77360002DF6D0019A39689B
:102FB000280019F0E6FF6A46019B1278EA547F2246
:102FC000237A256093431A00052313432372CFE726
:102FD00070B5037A0D0016007F211A0004000A4024
:102FE00005D18B435F390B4303720260426020229C
:102FF000237A1340181E12D0281E10D029002068F2
:10300000FFF704F900280AD131002000FFF714F976
:10301000002804D07F22037AC5601340037270BD7C
:1030200010B50200037A20200340181E02D0106859
:10303000FFF7ECF810BD437C002B06D1C3685A1C87
:10304000C2601B78037401234374007C704710B581
:1030500004002000FFF7EFFF0A2806D8092808D24D
:10306000002809D0012020720CE00D2801D0202872
:10307000F8D100236374ECE7237A58345A1E934145
:103080000133237010BD1FB57F220300007A10406A
:10309000043808282ED816F0D3FE0F0F052D082D62
:1030A0000D2D1A00187804B010BD1868C343DB1743
:1030B0001840F8E71868F6E71868002301AC237297
:1030C0002100FFF7D5F82000FFF7DDFFEBE7CF2168
:1030D0001C680906201C17F0B7F80028E3D09E21D1
:1030E000201CC90517F09CF80028DCD0201C17F024
:1030F0006FFFD8E70020D6E770B530C814340E0053
:1031000020002900FFF78CFF002806D07F22037AD9
:103110001340082B03D00A2B04D030680AE0036860
:10312000002BFADB29002000FFF77AFF002801D0EE
:10313000FFF7A9FF70BD70B504000D00FFF77BFF1E
:103140000023A84201D163740133180070BD2F28F9
:1031500015D90123392803D95E2803D97A2803D841
:103160001800704740280AD901235A28F8D90023AB
:1031700001222D38C0B282425B41DBB2F0E701236D
:103180002B28F4D1ECE710B5040008001AF088FFF2
:1031900063681818606010BD37B500236A46137065
:1031A000C3B27F280BD853706B460233013B1878AB
:1031B000002831D00A68541C0C601070F6E73F24D8
:1031C00080226D4623405242134380096B7085B2C2
:1031D000C3B21F2D06D8403213436A4693706B4624
:1031E0000333E3E76D46234000041343800DAB70C7
:1031F000C3B20F2805DC202252421343EB7001AB0F
:10320000D4E71C40102380115B4218436B462243D5
:10321000EA7028710533C9E737BD0000F7B505002E
:103220000027FFF708FF6F7401902800FFF703FFE6
:103230000024019A03006C74824259D0A04204D148
:103240000223583500202B70FEBD5C284BD128008E
:10325000FFF7F1FE0028F3D0284B752839D104265A
:103260006C742800FFF7E7FE0028E9D0402806D854
:103270003038C0B20F2806D958350323E2E720239F
:1032800098433738F5E700232401013E0443F6B2A2
:10329000A4B26B749E42E4D1A0239B01E318184AA8
:1032A0009BB2934202D8A405A70DBEE790239B01D1
:1032B000E3189BB22000934206D880238005BC020D
:1032C000800D20435B02C0182900FFF765FFACE7C3
:1032D00002331A78002ACFD09042F9D15B78002BC4
:1032E000CAD000226A742A68511C296013709CE7B6
:1032F0002B6801205A1C2A601C70A5E7771B02006E
:10330000FF030000036870B543600400FFF793FEFD
:1033100027280DD022280BD02000FFF78CFE0500B7
:10332000FFF715FF061E09D103235834237003E06D
:103330002000FFF773FF0600300070BD00236374A8
:10334000236820005A1C22601D70FFF774FE0500E0
:10335000FFF7FDFE0028F1D123685A1C2260187087
:10336000EAE7F7B504000D001F1CFFF770FE01909F
:10337000002801D1002658E02000FFF75CFE272836
:1033800000D17BE01DD8222800D177E02000FFF794
:1033900052FE002600900098F7B2FFF7D8FE0028F2
:1033A00000D17EE00136402E00D179E06A4600234C
:1033B00012786374A319DA752000FFF73CFE0090C1
:1033C000E9E75B2813D07B28E0D17F222B7A290004
:1033D00093431A00202313432B72002300222B60F7
:1033E0006B6020003B1C00F087F806001DE07F2288
:1033F0002B7AFFB293431A00402313432B7200230E
:103400002B606B609F4203D1583405332370B1E7C2
:1034100063742000FFF71BFE0028ABD05D21200065
:10342000FFF789FE061E02D0019E3000FEBD6169D5
:103430002800FEF701FF011E03D104235834237036
:10344000F3E77B1E00222000FFF78BFF002800D14E
:1034500090E72000FFF7FBFD002800D18AE75D21FF
:103460002000FFF768FE0028DED12C212000FFF7A6
:1034700062FE0028DBD158340323C7E7236820000D
:103480006360FFF7CBFE061E00D173E77F226368FF
:103490002B602B7A93431A00042313432B72C4E747
:1034A0003F270021E3191976237E742B0DD17F224B
:1034B0002B7A93431A00062313432B7201232B709C
:1034C000042FB1D058340223A0E7662B0AD17F2203
:1034D0002B7A297093431A00062313432B72052F6E
:1034E000F0D1A1E76E2BEBD0200029001830FEF7B9
:1034F000BFFE0028BFD097E7F7B5DFB204000E008B
:10350000002F04D105235834237000250DE000233B
:103510004374FFF79CFD01900028F6D07D21200028
:10352000FFF709FE051E28D0019D2800FEBD636837
:10353000306819000093FEF769FE002831D00100C1
:103540007B1E00222000FFF70CFF0028DDD02000AA
:10355000FFF77DFD0028D8D07D212000FFF7EBFD8F
:103560000028E1D12C212000FFF7E5FD002814D030
:103570002000FFF76CFD0028C7D02000FFF7C2FE37
:103580000028C2D02000FFF762FD0028BDD03A21FC
:103590002000FFF7D0FD0028C9D103235834237041
:1035A000C3E761693000FEF747FE002802D15834B6
:1035B0000423F4E77F22037A13400372009BC36065
:1035C000BDE770B505000E004368013343603078F5
:1035D0006C68002809D00136FEF734FF002802D0BD
:1035E00002346C60F3E70134FBE701346C6070BDBA
:1035F000F0B5162406000D000A2787B06C44280099
:10360000390016F0B7FC013C303121702800390038
:1036100016F02AFC051EF2D116236B441C1B73689E
:103620001C19746007B0F0BD10B504000068036891
:103630005B68984763681818606010BD70B5050036
:1036400008000C001AF02CFD210002002800FFF7F2
:10365000EBFF70BDF0B5162407000D000A2687B0F9
:103660006C442800310016F085FC013C303121709B
:103670002800310016F0F8FB051EF2D116236B442A
:103680001A1B21003800FFF7CFFF07B0F0BD000084
:103690000623F7B50E1C070083725849301C16F03C
:1036A000D3FD002844D00023142420250093544B3C
:1036B000311C185916F0B4FD002809D0514B301CAC
:1036C000195917F08FF9009B061CE81803B20093F4
:1036D000043C6D10231DEAD103340021301C16F088
:1036E000A9FD002828D0301C19F070FA464A474B33
:1036F00016F05CFD00281FD0A300019323061BD405
:10370000434B019A311C985816F094FD00280AD0BA
:103710003B4B019A301C995817F064F9009B061C2A
:10372000581B03B20093019B6D10013C043BE4E77E
:10373000202505240090D0E76B461B88301C3B8178
:1037400016F0FAFD0400334D38600190019B092BFF
:103750000DD90A21280016F087FBBB7A0500013B32
:103760000198BB720A2116F07FFB0190EEE7200062
:1037700017F04EFC011C301C17F066FA061C2800DE
:1037800017F046FC011C301C17F02CF9019016F0C4
:10379000D3FD060017F03CFC011C019817F054FA09
:1037A000011C16F0BFFE16F0C7FD8619AE4214D2FA
:1037B0007E600A257E682900300016F0DBFB0029B8
:1037C0001AD10A243C57002C16DD2900300016F0CF
:1037D0004BFB013C7860BC72ECE700237B60009BF4
:1037E00001343C60002BE4D0092CE2D918000123FD
:1037F000013038813B60DCE73800FEBD8096184B15
:10380000DC140200C4140200F168E388B5F8E43E59
:10381000AC14020040420F00F0B504008DB0081C4B
:103820000D1C16F0EDFC002805D13B492000FFF7E8
:10383000AAFC0DB0F0BD0021281C16F0E1FC002808
:1038400009D1291C281C16F06DFE011C281C16F03D
:10385000D7FC0028E9D10021281C16F0D7FC00284D
:1038600005D063680133636080231B06ED1803AE47
:10387000291C3000FFF70CFF03992000FFF7B8FE6A
:103880000A23F3560093002B1DD01D0077680AAB66
:103890000193019B013D013B6DB201936B1C0CD068
:1038A00038000A2116F066FB019B30311970380090
:1038B0000A2116F0D9FA0700EBE76B461B7862681D
:1038C000DB43D31A63600823F25E002AB1D0636839
:1038D00095B2002A1BDB0133636026260A2702AB60
:1038E000F6182800390016F045FB013E30313170E2
:1038F0002800390016F0B8FA85B2002DF1D1262340
:1039000002AA9B189E1B63689E19666091E70233AA
:103910006D426360ADB2E0E7721B02007F2270B5BA
:10392000037A0C001340062B5ED007D8022B0CD371
:10393000032B47D840684B68C01841E00C2B1DD0C2
:1039400005D8082B4ED00A2B41D02C4951E0202B12
:103950001AD0402BF9D14B68056801334B60002D1C
:103960002CD021002800FFF7D9FF2800FEF746FCE5
:10397000051E23D0636801336360F0E7016820000F
:10398000FFF74AFF60681CE04B68056801334B6035
:10399000002D13D0E9682000FFF713FE63682100B3
:1039A000013363602800FFF7B9FF2800FEF726FC0B
:1039B000051E03D0636801336360E9E76368581C40
:1039C000606070BD01682000FFF7FBFDDAE7016869
:1039D000002903DA63684942013363602000FFF77E
:1039E00007FECFE70168F9E703780549002B00D10E
:1039F00004492000FFF7C7FBC4E7C046721B020062
:103A0000881B02008D1B020010B5040000680368CB
:103A10005B68984763681818606010BD70B5050052
:103A200008000C001AF03CFB210002002800FFF700
:103A3000EBFF70BDF0B5162407000D000A2687B015
:103A40006C442800310016F095FA013C30312170A9
:103A50002800310016F008FA051EF2D116236B4437
:103A60001A1B21003800FFF7CFFF07B0F0BD10B5DB
:103A70000400006803681B68984763681818606052
:103A800010BD0000F0B504008DB0081C0E1C16F02F
:103A9000B7FB002805D141492000FFF7CFFD0DB04D
:103AA000F0BD0021301C16F0ABFB002809D1311C01
:103AB000301C16F037FD011C301C16F0A1FB00284D
:103AC000E9D10021301C16F0A1FB002806D02D21E1
:103AD0002000FFF7CCFF80231B06F61803AD311C36
:103AE0002800FFF7D5FD03992000FFF7B3FD0A2357
:103AF000EB560093002B23D06F6801930AAE019B15
:103B0000013E013B5BB2019301330BD038000A2127
:103B100016F030FA3031317038000A2116F0A4F96D
:103B20000700ECE76B461B782026D9432E228B1921
:103B300002A8C2540AAB4A4220005918FFF774FD8C
:103B40000822AB5E002BAAD065212000FFF78FFF73
:103B50000823EE5EB5B2002E05DA2D212000FFF716
:103B600086FF7542ADB226260A2702ABF61828005A
:103B7000390016F0FFF9013E30313170280039006C
:103B800016F072F985B2002DF1D1262302AA9B18F6
:103B90009A1B31002000FFF747FD80E7721B0200EF
:103BA000F8B50E00040022212000FFF760FF3578F1
:103BB000002D0DD02800FEF745FC01360700290036
:103BC0000028F1D05C212000FFF751FF3900EBE71E
:103BD00022212000FFF74BFFF8BD00007F2270B5C7
:103BE000037A05000C001340062B00D169E008D8C9
:103BF000022B0DD3032B50D806CD2000FFF714FD68
:103C000025E00C2B1FD005D8082B58D00A2B49D003
:103C100030495BE0202B21D0402BF9D15B212000E3
:103C2000FFF725FF2D68002D13D021002800FFF796
:103C3000D5FF2800FEF7E2FA051E0AD02C2120004D
:103C4000FFF715FFEFE701682000FFF71BFF606833
:103C500070BD5D212000FFF70AFFF8E77B212000FF
:103C6000FFF705FF2D68002D15D0E9682000FFF74C
:103C700097FF3A212000FFF7FAFE21002800FFF706
:103C8000ADFF2800FEF7BAFA051E04D02C21200053
:103C9000FFF7EDFEE7E77D21DCE701682000FFF795
:103CA0007FFFD4E70568002D04DA2D212000FFF7FF
:103CB000DEFE6D4229002000FFF7CCFCC7E701685B
:103CC000F9E703780449002B00D104492000FFF7ED
:103CD000B5FCBCE7721B0200881B02008D1B0200B2
:103CE00010B50C00002802D0FFF778FF10BD2000AF
:103CF0000249FFF7A3FC6068F8E7C046721B0200A8
:103D00001FB500230191143001A90293FFF7E8FFCA
:103D100005B000BDF0B5AA4CAA4EA544FEF7F6F9D1
:103D2000A94C02A8210015F093FD210005A815F06B
:103D30008FFD210008A815F08BFD21000BA815F0C0
:103D400087FD21000EA815F083FDA04F08A83900BB
:103D500015F0F2FD9E4C14A8210002F0C3FA14A93C
:103D60000BA815F0E1FD14A815F023FD210014A8FF
:103D700002F0D4FA14A90EA815F0D6FD14A815F077
:103D800018FD944905A815F015FE934905A815F0EE
:103D900011FE924905A815F00DFE914C05A82100D1
:103DA00015F008FE8F4905A815F004FE8E4D05A8F4
:103DB000290015F0FFFD08A905A815F0E9FD290067
:103DC00005A815F0F7FD210005A815F0F3FD8749BA
:103DD00005A815F0EFFD290005A815F0EBFD0BA9CE
:103DE00005A815F0D5FD290005A815F0E3FD210073
:103DF00005A815F0DFFD7E4905A815F0DBFD2900BB
:103E000005A815F0D7FD0EA905A815F0C1FD2900DC
:103E100005A815F0CFFD210005A815F0CBFD7549CB
:103E200005A815F0C7FDFEF771F9010005A815F00A
:103E3000EDFD210005A815F0BDFD6F4905A815F0A1
:103E4000B9FD85236D4D9B00E95A05A815F0C4FD09
:103E5000210005A815F0AEFD694905A815F0AAFDD9
:103E6000A95B05A815F0B8FD210005A815F0A2FD75
:103E7000644905A815F09EFD86239B00E95A05A814
:103E800015F0AAFD604905A815F094FD14A8FFF7E8
:103E900035F814AA5D4919A8FFF79AF801005C48A3
:103EA000FEF79EF914AA5B4919A8FFF791F80100E3
:103EB0003800FEF795F914AA574919A8FFF788F8B2
:103EC00000280AD085237F229B00E95A037A0160EB
:103ED00093431A0008231343037214AA4F4919A8E5
:103EE000FFF776F8002808D07F22037AA95B934376
:103EF0001A00082313430372016014AA484919A841
:103F0000FFF766F800280AD086237F229B00E95A33
:103F1000037A016093431A000823134303720025B8
:103F2000404C14A82100FFF7EBFE200015F0AEFB7B
:103F300011A919A81295FFF7F1FC06003A492000D3
:103F400015F0B6FB0A223100200015F00CFC3749B1
:103F5000200015F0ADFB364911A815F079FC08A931
:103F600011A815F071FD334915F07BFD324E2B0081
:103F70002A0001000095300012F0D8FA11A815F0BF
:103F800018FC05A9300015F070FB300012F0BDFEE2
:103F90002A49200015F08CFB0EA815F00AFC0BA88E
:103FA00015F007FC08A815F004FC05A815F001FCA5
:103FB00002A815F0FEFB9D239B009D44F0BDC0466A
:103FC0008CFDFFFF12020000245602001C45002059
:103FD000C80400209018020092180200051902007F
:103FE000A1180200A31802006D2702001019020098
:103FF0001C190200B11802002519020054410020CA
:104000002F1902003B190200BE18020046190200D7
:104010002F1D02004B190200561902005D19020003
:1040200066190200C84F00206E190200C018020075
:10403000D9180200E2180200CC040020F418020093
:1040400010B50400006803681B6898476368181877
:10405000606010BDF0B504008DB0081C0E1C16F099
:10406000CFF8002805D141492000FFF7D7FC0DB05B
:10407000F0BD0021301C16F0C3F8002809D1311C16
:10408000301C16F04FFA011C301C16F0B9F800284D
:10409000E9D10021301C16F0B9F8002806D02D21F6
:1040A0002000FFF7CDFF80231B06F61803AD311C5F
:1040B0002800FFF7EDFA03992000FFF7BBFC0A2365
:1040C000EB560093002B23D06F6801930AAE019B3F
:1040D000013E013B5BB2019301330BD038000A2152
:1040E00015F048FF3031317038000A2115F0BCFE60
:1040F0000700ECE76B461B782026D9432E228B194C
:1041000002A8C2540AAB4A4220005918FFF77CFCAF
:104110000822AB5E002BAAD065212000FFF790FF9C
:104120000823EE5EB5B2002E05DA2D212000FFF740
:1041300087FF7542ADB226260A2702ABF618280083
:10414000390015F017FF013E303131702800390079
:1041500015F08AFE85B2002DF1D1262302AA9B1804
:104160009A1B31002000FFF74FFC80E7721B020012
:10417000F8B50E00040022212000FFF761FF35781A
:10418000002D0DD02800FEF75DF90136070029004B
:104190000028F1D05C212000FFF752FF3900EBE747
:1041A00022212000FFF74CFFF8BD00007F2270B5F0
:1041B000037A05000C001340062B00D169E008D8F3
:1041C000022B0DD3032B50D806CD2000FFF71CFC8B
:1041D00025E00C2B1FD005D8082B58D00A2B49D02E
:1041E00030495BE0202B21D0402BF9D15B2120000E
:1041F000FFF726FF2D68002D13D021002800FFF7C0
:10420000D5FF2800FDF7FAFF051E0AD02C2120005B
:10421000FFF716FFEFE701682000FFF71BFF60685C
:1042200070BD5D212000FFF70BFFF8E77B21200028
:10423000FFF706FF2D68002D15D0E9682000FFF775
:1042400097FF3A212000FFF7FBFE21002800FFF72F
:10425000ADFF2800FDF7D2FF051E04D02C21200061
:10426000FFF7EEFEE7E77D21DCE701682000FFF7BE
:104270007FFFD4E70568002D04DA2D212000FFF729
:10428000DFFE6D4229002000FFF7D4FBC7E701687D
:10429000F9E703780449002B00D104492000FFF717
:1042A000BDFBBCE7721B0200881B02008D1B0200D5
:1042B000F0B5544FD5B05449380015F0F9F9FA204B
:1042C000400101F009F8FDF721FF504905A815F05C
:1042D000BFFA4F4B0BA8196819F0DAFE2CAC34ABBF
:1042E0002C93636054ABA360E36000237F252374A9
:1042F000237F2200AB432377464931A8FEF768FEAF
:1043000001004548FDF76CFFFDF700FF22000600A5
:10431000424931A8FEF75CFE002805D00823027A46
:104320000660AA431343037222003D4931A8FEF7F9
:104330004FFE2200010008903A480994FEF707FE5C
:104340002200394931A8FEF743FE061E2AD00BA9E8
:104350002000FEF7E3FD051E1CD10BA819F0A0FEFE
:10436000030065680133A268EB180390934206D9F5
:10437000012323747F22337A9343337212E0636004
:10438000002DF7D0039A0BA9280018F0FAFD00239E
:10439000039AAB547F22337A356093431A00052386
:1043A00013433372002408A931A808970994FFF732
:1043B00097FC380015F06AF91C4905A815F0BCFAFD
:1043C000184905A815F0E4FA194905A815F0F2FAFC
:1043D000184D2300220005A90094280012F0A6F829
:1043E00008A931A808950994FFF7E0FE280012F00B
:1043F0008CFC0649064815F09FFA05A815F0D9F976
:1044000055B0F0BDC84F0020BF1A0200245602006C
:10441000D8020020DB1A0200D51A0200E01A0200BE
:10442000EA1A0200CC020020F11A0200D918020098
:10443000E2180200CC040020F8B5424E424F310091
:10444000380015F005FA414C414D22002900380092
:1044500015F0EEFC3F4F3100380015F0F9F922005D
:104460002900380015F0E4FC3B4F3100380015F00E
:10447000EFF922002900380015F0DAFC374F31003F
:10448000380015F0E5F922002900380015F0D0FCBD
:10449000334F3100380015F0DBF9290022003800D5
:1044A00015F0C6FC2F4F380000F04CFF22002E49BB
:1044B000380015F0BDFC2D4F0021380001F030FA16
:1044C00022002B49380015F0B3FC2A4F0121380097
:1044D00001F0A8FE22002849380015F0A9FC390097
:1044E000264803F019FD22002549244815F0A0FCB8
:1044F000244F2249380011F083FE2200224938005F
:1045000015F096FC214801F0E1FE214F3100380002
:1045100015F09EF922002900380015F089FC1D4F86
:104520003100380015F094F922002900380015F008
:104530007FFC4821184812F049FC4921174812F025
:1045400045FCF8BD24560200FC05002000000020B8
:10455000B3970100E4020020CC020020F00200200A
:10456000D8020020140300201953000094050020F5
:10457000FD200000BC050020315D00000806002081
:10458000597E0000CC040020F5600100C804002022
:104590002841002008030020FC0200200203002024
:1045A000F0B56C4B85B005201B78FEF79DFAFEF741
:1045B000C3FB694C6949200015F07AF800F068FEE9
:1045C000E1216748490214F027FD664E300000F0F3
:1045D00075FD6549300000F0F1FD300000F06EFD22
:1045E000FDF776FF614F380002F0E6F9002804D1AC
:1045F0005F49200015F05CF8FEE75E4D08220021BF
:10460000280002F061FF390001A802F0E3FA0199E5
:10461000280002F077FF01A815F0CBF8280003F07E
:104620001FF95549554803F062FB280002F064FF6A
:104630000700280002F063FF3A0003000021504801
:1046400003F074FC4F4BF35C4F4E012B0BD14F49E1
:10465000200015F02DF84E494E4815F06DF94E49E1
:10466000300015F069F94D4D3100280015F090F932
:104670004B49280015F09EF9464F2800390015F0E7
:1046800087F94849280015F095F94749200014F0AA
:10469000F3FF2900200015F001F8444E39003000E6
:1046A00011F0B6FD424901A815F0D2F801AA29007F
:1046B000300011F0B2FD01A815F07BF830003D4943
:1046C00011F0A4FD00233C4E01210620336012F0BE
:1046D00073FFE1212248490214F09EFCE1212000F1
:1046E000490213F02FFB00F0D3FD3449200014F0F1
:1046F000DFFF0A2000F076FD3149200014F0D8FFDA
:1047000000F0DAFD174DEB79002B0CD02D4920007D
:1047100014F0B2FFE97A0A22200015F03EF8E97A97
:104720002948FDF79DFE2B7A002B0CD0274920004D
:1047300014F0A2FF297B0A22200015F02EF8297B15
:104740002348FDF78DFE234801F0C2FD00233360AE
:1047500005B0F0BD38040040C84F00203E1C0200E8
:10476000084B0020544100201D2100004C46002031
:104770004E1C0200F04600200D210000D849002008
:10478000080600204B040000F0020020611C02001B
:104790001C450020CC020020994300202841002025
:1047A000E0180200841C02009C1C0200CC040020C3
:1047B00024560200B549000034030020A81C020062
:1047C000B61C0200C01C0200FC020020D61C020025
:1047D00002030020C804002030B5A5B02E49684669
:1047E00015F036F82D49684615F0A6F82C496846AC
:1047F00015F0CEF82B49684615F0DCF82A4C2B4909
:10480000200014F055FFFA20400100F065FD284B10
:1048100003A8196819F03CFC2649200014F02CFF6D
:1048200003A9200014F028FF2349200014F040FFC2
:10483000224D234A03A9280012F038FA00280FD18C
:104840002049200014F018FF280011F0F2FC0A2281
:104850000100200014F07DFF1B4812F0A9FCE7E7DF
:10486000200014F013FF1949200014F021FF20004C
:1048700014F00CFF1649200014F0FEFE69462000DB
:1048800014F00CFF00226946280012F0F2F8684686
:1048900014F08FFF25B030BD24560200D918020055
:1048A000CC02002059160200C84F002071160200E9
:1048B000F00200208F160200EC240200CC0400203D
:1048C000B32200000A17020088130000AB16020092
:1048D000CF160200F8B52B4C2B49200014F0E8FE4F
:1048E00000F0EAFC294801F0FFF9032844D0FEF764
:1048F000EBF9274811F0FFFC002801D1FFF76CFF0E
:104900000220FEF7F1F82349200014F0D1FE282000
:104910008526214DB6002B6858435A1C1F4B2A6030
:10492000C018FEF7F7F81E49200014F0A5FE0A2271
:104930002968200014F00DFF1A49200014F09CFE95
:10494000194F0A22B95B200014F003FFBB5B2A68F1
:10495000934210DC1549200014F0AAFEFA20400111
:1049600000F0BAFC0A4811F081FE29680B48FDF7F7
:10497000F3FD00232B60F8BD0D4800F075FD042801
:10498000B5D1B6E7C84F0020931B02009405002064
:10499000CC040020A01B02003403002038030020B8
:1049A000D01B0200E61B020054410020051C02003F
:1049B00014030020F0B5884C884DA544040000AFD6
:1049C0008749280014F058FE23006A460833DB08A4
:1049D000DB00D31A9D466E467B607B68F31A9C42CF
:1049E00005DD804811F073FB30700136F5E7E343D5
:1049F0000026DB171C407B6828001E55190014F0A8
:104A00003BFE280014F042FE082160237A18D418D7
:104A10002000FEF773FA7F22BB6E08216360E36813
:104A20003E61A360237F3E75934323777B687A18AA
:104A3000FB607B687E77BB615C23D31826743C6285
:104A400078181E70743681190C200A230022381839
:104A5000FEF787FC0823FB1863499819FEF7E0FA74
:104A6000002800D1B5E07F22037A1340043B012BDC
:104A700000D9AEE00668002E00D1AAE05B4928000C
:104A800014F0FAFD3100280014F012FE58493000ED
:104A900019F0F4FA002800D08BE05649280014F0F1
:104AA00007FE29002000FFF72BF9280014F0EEFD87
:104AB000514B08223B6101260C237642B918F818A5
:104AC000FC60BE60FEF718FB4C4B08223B610C23D8
:104AD000B918F818FC60BE60FEF70EFB484B0822C0
:104AE0003B610C23B9183860F818FC60BE60FEF713
:104AF00003FB444B08223B61012306005B42BB6081
:104B00000D33B918F818FC60FEF7F6FA32003E4B88
:104B1000643A78603D4C9A420ED83D49280014F022
:104B2000ABFD0A223100280014F00FFE394928009D
:104B300014F0BEFD384BE6523B68013B092B11D8FF
:104B4000264D3649280014F097FD0A22310028002E
:104B500014F0FBFD3249280014F0AAFD85233A88A1
:104B60009B00E2527B68013B082B0DD81B4D2D4961
:104B7000280014F081FD0A227968280014F0E9FD6C
:104B80008623BA889B00E2520121200000F0B4FA8B
:104B9000FFF7C0F801211D4800F0AEFA224B9B68D8
:104BA000002B01D0FFF784FBBD46A3239B009D444F
:104BB000F0BD1E49300019F061FA002804D11C49EB
:104BC000280014F075FDE3E71A49174814F0B4FE05
:104BD000E0E71949F9E7C04674FDFFFFC84F002020
:104BE00081190200CC04002046190200A11902001C
:104BF0002F1D0200B1190200CE1902005619020041
:104C00005D190200661902005BD4010054410020C6
:104C1000D2190200F419020012020000F819020071
:104C20000C1A02001B1A0200D8020020301A0200DF
:104C3000351A0200611A0200A31A020010B5012100
:104C4000014800F059FA10BD54410020F0B5B9B048
:104C5000040012F077FAFA2301259B00C318009391
:104C600000232F00029312F06DFA009BC01A00D4AB
:104C7000AEE0029BF92B00D9AAE0002D12D05949D1
:104C8000200014F015FD2100574800F03FF92000E6
:104C900000F068FA5549200014F0EEFC029B013345
:104CA000DBB20293236820001B69984700282AD1B1
:104CB000236820001B699847051ED4D000231E00DE
:104CC0000393019312F03EFA009BC01A75D5019B25
:104CD000002B23D1236820005B699847051EF1DD76
:104CE00012F030FAFA239B00C31800930D2D3CD12B
:104CF000236829001B682000984712F023FA3230FD
:104D000003900197DEE7236820009B6998470028FD
:104D1000CED1236820005B699847C3E72368200051
:104D20009B699847431C58D112F00CFA039BC01A98
:104D3000D0D4002505AB9B191D70AE4293DB12D079
:104D40002B4905A819F06EF9A84241D005AA3900EF
:104D5000254800F070F8A84233D012F0F3F9FA2396
:104D60009B00C31800933D007DE70A2D05D1236801
:104D700029001B6820009847DBE700230193082DDA
:104D800001D07F2D09D19E429CD0236803225B680D
:104D9000184920009847013E94E7C72E92D82B006F
:104DA000203B5E2B8ED82368EDB21B6829002000C3
:104DB000984705AB9D55013684E7002505AB1D706E
:104DC00051E705A90C4800F0E7F90028C5D1CAE76A
:104DD000200014F05BFC39B0F0BD0A2800D179E75F
:104DE000A7E7C046EC1C0200101D0200F81C0200E0
:104DF0000C1D0200081D020054410020F7B50600FA
:104E00000F0000240192BC4212D018236343F31810
:104E10005D68280019F044F929000200019819F092
:104E200046F9631C002801D12000FEBD1C00EAE702
:104E300001204042F9E770B506001500FFF7DEFFDC
:104E4000002398420DDB182444433419A66801332B
:104E5000002E06D0606819F023F929182000B04709
:104E60000123180070BD70B504690500002C08D03E
:104E70004269200019F050F96B69E4180023013CE5
:104E8000237070BD10B504690B00002C05D0002202
:104E90001800110019F0EEFE207010BD10B5046965
:104EA0000B00002C05D000221800110019F0E2FEC2
:104EB000208010BD70B50C0005000A49200014F0D8
:104EC000DBFB2968200014F0D7FB0749200014F011
:104ED000D3FB6968200014F0CFFB0449200014F0D4
:104EE000CBFB70BDEB2402003B1D02003E1D020007
:104EF00070B50C000500080014F0C8FB29682000FC
:104F000014F0BAFB200014F0C1FB70BD70B5056948
:104F10000C00FFF7CFFF002D04D02900200014F073
:104F2000C7FB70BD200014F0B1FBFAE770B505694E
:104F30000C00002D06D0FFF7BDFF29780A222000C3
:104F400014F02BFC70BD70B505690C00002D06D067
:104F5000FFF7B0FF29880A22200014F0FAFB70BD89
:104F600030B5094D094CAB685B035B0F9B001C59C6
:104F70000460AB6801619BB243606343A40083603B
:104F8000C460426130BDC04600400041441D020083
:104F9000F7B580261A4D01916F6803333E439B0895
:104FA0006E60002B2BD0174E2E802E7DF107FCD586
:104FB0001E000768991BBF088F4219D9002E17D011
:104FC000FF2117788C433C430F4957780C403F0230
:104FD0003C439778013E39040C4F2740D478BFB248
:104FE0000F43240601993C4310C101910432E0E7CC
:104FF000074B2B802B7DDB07FCD53300D1E7F7BDBA
:105000000040004144A5FFFFFF00FFFFFFFF00FF3E
:1050100004A5FFFF044B054A4908D9611A801A7D8F
:10502000D207FCD57047C0460040004102A5FFFFF3
:1050300070B504000D001600E36829002000B3429B
:1050400005D2FFF7E7FFE368ED18F61AF4E7FFF77C
:10505000E1FF70BD10B510001A0017F092FF10BDEF
:105060000D4BF0B5C418082500230C4EA04210D0FB
:105070000278120253402A001FB259008BB2002F4F
:1050800001DA71408BB2013AD2B2002AF4D1013078
:10509000ECE71800F0BDC0464C04000021100000F1
:1050A000044B10B51B68002B00D098470122024B1F
:1050B0001A7010BD384100203441002010B50400A2
:1050C0000A48220043690169FFF7C4FF2000FFF787
:1050D000C7FF2288064B9A4203D1064BE35A83420C
:1050E00002D02000FFF7DCFF10BDC0463C4100208D
:1050F000EFBE00004C04000030B5134C134DA54426
:105100000400002902D12B78002B19D0104B20006D
:105110002380FFF7A5FF0F4B2100E0520E4A68469F
:1051200017F02FFF0D4C626921692000FFF780FF07
:1051300063696A4621692000FFF72AFF00232B706C
:10514000074B9D4430BDC046ACFBFFFF34410020FF
:10515000EFBEFFFF4C0400004E0400003C41002065
:105160005404000070B50500902614F08FFA084929
:10517000280014F09DFA0024760006482018C36821
:10518000002B01D0290098471834B442F5D170BDE6
:10519000202402000023020010B50A0004480C215C
:1051A000FFF749FE002802D00122024B1A7010BD01
:1051B000002302003441002001207047014B196098
:1051C0007047C0463841002010B5034A03490448DF
:1051D000FFF7C6FE10BDC0464E040000001E0200D0
:1051E0003C4100201023224A91690B439361214BDB
:1051F0001A7852B2002A3ADB1F4A204991602049AE
:105200005160517849B20029FBDB1E495180517829
:1052100049B20029FBDB02211A788A431A70DA7935
:1052200052B2002AFBDB04211A788A431A70DA7919
:1052300052B2002AFBDB0F21421C0A405A700222A4
:105240000840987019780A431A70DA7952B2002A25
:10525000FBDB0122C0205A710B4B03321A60800025
:105260001A580A491140C02212040A431A507047C2
:105270000004004000100040000C00400404000046
:10528000040311000344000000E100E0FFFF00FF01
:105290000221074B1A788A431A70DA7952B2002A2F
:1052A000FBDB1021034A93698B4393617047C0462F
:1052B0000010004000040040064B1900DA7952B299
:1052C000002AFBDBA5221A72CB795BB2002BFBDB39
:1052D0007047C0460010004070B5040011F032FF66
:1052E0000A25041911F02EFFA0420AD2FFF7E4FFAD
:1052F00011F028FF201A0A2800D9280011F058FFC1
:10530000F0E770BD0123024A1370024A937170479F
:10531000A24500200010004010B50400034B0833E4
:1053200003600C3014F045FA200010BDE4250200A3
:1053300010B50400FFF7F0FF200014F0F5FC20008A
:1053400010BD0000074B10B50833036001230400B3
:10535000037205490C3014F07BFA00232000E3614E
:1053600010BDC046E42502002456020030B5264C8C
:1053700085B00500200000F0CDF9002837D02000CE
:1053800000F0E0F800226B681000013B052B2ED8DE
:10539000180014F055FD03090D182E341B49200088
:1053A00000F098F8022300E003236B6000201EE069
:1053B000290020000C3100F077FA1549200000F098
:1053C00089F80423F1E7134901A814F041FA2800F1
:1053D00001A90C3014F075FB040001A814F0E9F9E0
:1053E000002CDFD0002301206B6004332B7205B04A
:1053F00030BD0949200000F06DF80623D5E70123F0
:105400006A602B72D2E7C046A4450020C125020085
:10541000CC2502007C260200D6250200F8B5012327
:105420004360DB1804000372002919D011F08AFED2
:10543000FA26070076002000FFF798FF051E09D125
:10544000E369002B08D011F07DFEE369C01B984290
:1054500002D36560207AF8BD300011F0A9FEEAE7BA
:10546000FFF784FFF6E7000010B50400024800F0E3
:1054700069F8207A10BDC046A445002010B504008C
:105480001C3014F096F9200010BD000070B5836048
:10549000049B06000025C360012304001C36426003
:1054A00005610575836101603000054914F0D0F98C
:1054B000A5623000402114F09DF9200070BDC04667
:1054C00024560200014B024A1A607047D045002062
:1054D000C84F002070B504000D0011F033FE2369A1
:1054E000C01A132803D81423181A11F061FE2900DA
:1054F000206814F0DDF820680368DB689847002313
:105500002375A36170BD00000EB410B50A4C0B49A1
:10551000A5440400FFAB183304CB02A8019319F093
:1055200049FE02A92000FFF7D5FF054B9D4410BCA2
:1055300008BC03B01847C046F4FBFFFFFF030000A0
:105540000C040000F0B5040087B0206803681B69F4
:105550009847002800D192E0206803685B6998476B
:10556000634BC6B21868002803D0036831001B687B
:10557000984725001C353100280014F024FA277DB7
:10558000012F48D05B49684614F062F9694628004B
:1055900014F08BFA0026B0420DD0574903A814F03E
:1055A00057F903A9280014F08CFA461EB041C6B280
:1055B00003A814F0FEF8684614F0FBF8002E06D09D
:1055C000012323754D49280014F0B6F9BDE74A4977
:1055D00003A814F03DF903A9280014F072FA07009B
:1055E00003A814F0E6F8002FAFD0280014F045FB14
:1055F000636A002BE6D011F0A5FD2061404BB2009C
:10560000D058002803D0036829001B68984701364A
:10561000082EF3D1D6E70A2E97D111F093FD394920
:10562000206103A814F014F903A9280014F0D3FA98
:10563000060003A814F0BDF8731C22D0A761A3696B
:10564000002B82D0A26A002A13D0012B4ADD03A8C6
:10565000636A3200290014F0C5FA03A814F0A9F80F
:10566000280014F00AFB2900A06A14F043F9002373
:10567000A362002321492375280014F05DF907B0C7
:10568000F0BD214903A814F0E3F803A9280014F0A1
:10569000A2FA060003A814F08CF8731C02D00223AF
:1056A000A361CCE7194903A814F0D2F803A9280094
:1056B00014F091FA060003A814F07BF8731C01D0D3
:1056C0000323EDE7124903A814F0C2F803A9280048
:1056D00014F081FA060003A814F06BF8731CAED026
:1056E0000423DDE73100280014F0B4FAB8E7C0461F
:1056F000D0450020F4250200F925020024560200BE
:10570000D4450020F7250200FC25020004260200F3
:105710001126020010B50400FFF714FFA06910BDA8
:1057200070B5826204000E0011F00CFD050011F04E
:1057300009FD401BB04208D22000FFF703FFA0691B
:105740000028F4D00023A36270BD00232000A362D0
:105750001C30034914F0F0F801204042F4E7C04641
:105760002456020010B504000549FFF7B3FE0022DD
:10577000C8212000FFF7D4FF01384342584110BD33
:10578000F425020070B505000E0011F0DBFC0400EA
:1057900011F0D8FC001BB04208D22800FFF7E2FF4E
:1057A000012804D0642011F003FDF1E7002070BD52
:1057B00010B507490400FFF78DFEFA210022890089
:1057C0002000FFF7ADFF01384342584110BDC046ED
:1057D0009E15020070B50400E1230D0061680068A9
:1057E0005B02994200D919000368DB699847E368B6
:1057F0000121D8B211F0E0FEE3680121D8B211F026
:1058000027FFA06800283CDB002D3AD0C0B2012160
:1058100011F0D2FEA3680121D8B211F019FF642063
:1058200011F0C6FCA3680021D8B211F011FF1C4989
:105830002000FFF7A7FF002829D0E12362685B0260
:1058400001209A4224D917492000FFF75DFE00226B
:10585000C8212000FFF764FF012818D120680368E1
:105860005B6A9847642011F0A3FC206861680368B4
:10587000DB6998470A492000FFF784FF431E9841DF
:1058800006E007492000FFF77DFF002801D1002036
:1058900070BD2000FFF78CFF0028C8D1F7E7C04695
:1058A000102700001B26020081627047002310B5FC
:1058B000054A98008458002C01D1815010BD013355
:1058C000082BF6D1FAE7C046D4450020002310B5D6
:1058D000054A980084588C4202D10023835010BDA1
:1058E0000133082BF5D1FAE7D44500202323E12228
:1058F00013B5074C00935202043B06492000FFF702
:10590000C5FD054A0549200014F092FA13BDC046B2
:10591000A44500204C4D0020000000207D540000D4
:1059200070B5002504000E000849057045608560CB
:10593000C16001614161183013F08AFF6562AE42B7
:1059400002D00348FFF7BEFD200070BD24560200C0
:10595000A4450020F0B5037885B005000224002B93
:1059600021D07F4E3000FFF7D5FE041E1BD0300043
:10597000FFF7E8FD6F68172F15D8380014F060FAAC
:105980000C161D25293459686C72757B7F85898FAB
:10599000939A9EB2B7BDC2CD72493000FFF79AFD0F
:1059A00001233C006B60200005B0F0BD0223012CF8
:1059B00008DD002302242B70F5E76B493000FFF768
:1059C00089FD03236B600024EDE7012CF1DC042347
:1059D000F8E7290030001831FFF766FF634930000F
:1059E000FFF778FD0523EDE7012CF0DC2E00604980
:1059F000183601A813F02CFF01A9300014F061F84B
:105A0000040001A813F0D5FE002C01D00A23D9E729
:105A1000584901A813F01CFF300001A914F051F8F7
:105A2000060001A813F0C5FE002EC2D006236B604D
:105A3000B9E7AB68002BBCD0290030001831FFF764
:105A400033FFAA684C493000FFF75EFD0723B9E732
:105A50000823012CB6DDACE748493000FFF73AFDDA
:105A60000923AFE7012CD1DDA3E745493000FFF75B
:105A700031FD0B23A6E70C23012CA3DD99E7414957
:105A80003000FFF727FD0D239CE70E23012C99DD45
:105A90008FE73D493000FFF71DFD0F2392E71023EC
:105AA000012C8FDD85E7EA6838493000FFF72CFDCF
:105AB000112387E71223012C84DD7AE72B696969BA
:105AC0001A78002A02D10A78002A06D00A0030008B
:105AD0002F49FFF719FD132374E72E493000FFF714
:105AE00013FDF8E71423012C00DC6BE761E72A497A
:105AF0003000FFF7EFFC152364E7012C00DD58E7C9
:105B000016235FE7290030001831FFF7CDFE234947
:105B10003000FFF7DFFC172354E7012C00DD48E7D6
:105B200028002B6A1830591E13F0F8FFFB2303409E
:105B3000302BE5D0312B02D03038082805D118237E
:105B40006B60153B2B7001242DE7022803D116232F
:105B500028706B6037E7032800D024E729E7C046A8
:105B6000A4450020302602003A2602004426020006
:105B70004D260200532602005B260200D6250200B5
:105B80006826020072260200802602008A26020091
:105B9000A1260200BB260200E01502002626020014
:105BA000F7B51D0008AB160004CB0F0019780AAB3F
:105BB0001B780400154800920193FFF70BFE0028A4
:105BC00003D1002323702078FEBD009B0020636179
:105BD00001232370019BA760E6602561606083421A
:105BE000F2D011F0AFFA05002000FFF7B3FE002855
:105BF000E9D1636A002B05D011F0A4FA636A401B57
:105C00009842DED2642011F0D3FAEDE7A4450020DB
:105C100030B51C0085B008AB1D78044B029501948B
:105C20000093FFF7BDFF05B030BDC046245602000B
:105C3000F0B58DB02849684613F00AFE274C284974
:105C40002000FFF747FC6A4664212000FFF768FD4B
:105C5000012806D00026684613F0ABFD30000DB0D9
:105C6000F0BD2D21684613F08AFF0100431C02D0CD
:105C7000684613F0EFFF03AA1A49009818F0C0FD18
:105C80000028E7D003A817F06BFA06000F0068465B
:105C90001A2113F043FF1B210400684613F03EFF56
:105CA0000A23303C634330381818E1239B005843E3
:105CB00019210400C517684613F030FF2D2802D1C2
:105CC00036196F41C7E71921684613F027FF2B28C3
:105CD000C1D1361BAF41BEE724560200A4450020C7
:105CE000CC260200D52602000078704700207047BD
:105CF00013B56B460268D971073354681900012245
:105D0000A04716BD80690130431E9841C0B270475C
:105D100013B56B46DC1D036801225B6A21009847BE
:105D2000012801D1207816BD01204042FBE77047D1
:105D3000094B01001A0010B5040008325433026008
:105D4000036110310548FFF7C1FD2000343013F026
:105D500030FD200010BDC0469C270200A445002055
:105D600010B50400FFF7E4FF200013F0DDFF200072
:105D700010BD0000F0B5474E89B004003000FFF7B9
:105D8000C9FC051E17D0236A581E092813D8002302
:105D900014F056F80514373E43494D6E737A2100CE
:105DA00030003431FFF780FD3B493000FFF792FBB4
:105DB000022300252362280009B0F0BD012D0FDC6D
:105DC00026003649343605A813F042FD05A93000F7
:105DD00013F06BFE070005A813F0EBFC002F02D1B7
:105DE00000232362E7E7E36B3000591E13F096FEB1
:105DF00023003038A06132331B78002B15D00323E9
:105E0000D7E7A26926493000FFF77EFB0423D0E7DD
:105E10000523012DCDDD0923CBE722493000FFF713
:105E200059FB0623C5E7012DF5DC0723C1E7E36A2B
:105E3000218EA269002B06D0009130001A49FFF78D
:105E400063FB0823B5E7230028331B780391210067
:105E50002B3109783000029121002A310978019113
:105E600021002931097800911049FFF74DFBE8E73F
:105E7000012DD0DC0122E261B3E7A2690C493000B8
:105E8000FFF742FB0A2394E7236201235B42A361ED
:105E900091E7C046A4450020EF260200FA26020042
:105EA00003270200142702002527020039270200D9
:105EB0005627020010B5036804001B6998470028A4
:105EC00004DDA169034800F047FB10BD01204042FA
:105ED000FBE7C046F445002070B500258269040048
:105EE0000562AA4211DB094E09493000FFF70CFB9D
:105EF0002A0008493000FFF713FCA169064800F0AA
:105F000053FA01235B42A361E56170BDA445002003
:105F10005627020010270000F445002010B50400A9
:105F20000D48FFF70FFBA16900204B1C12D00B4856
:105F300000F064FA002808DB230032331B780120CC
:105F4000002B07D0E369002B04D1236820009B6A53
:105F50009847002010BDC046A4450020F44500200D
:105F600010B5037D0400002B0AD023682000DB6BF2
:105F700098470028F9D0A1694B1C07D1002010BD1B
:105F80000368DB6B98470028F5D1F7E7044800F079
:105F900035FA0028F3DA236820009B6A9847EDE77A
:105FA000F445002070B5836904000E00150001332C
:105FB00001D1002070BD002AFBD003681B699847FF
:105FC0000028F6D02B003200A169024800F0D4FA74
:105FD000F0E7C046F44500207FB50C0005001349EA
:105FE00001A813F035FC01A9200013F05EFD0600A6
:105FF00001A813F0DEFB002E17D00921200013F0BA
:106000008DFDAB69303883420FD1094901A813F0E7
:106010001FFC200001A913F054FD040001A813F097
:10602000C8FB002C01D00023EB617FBD8527020057
:106030008F27020008B4024B9C46103808BC60470A
:10604000D95F00000300F0B58FB0039133331B78A4
:1060500004001500002B0DD023682000DB6B98474F
:106060000028F9D0A36901330AD1002300930098D6
:106070000FB0F0BD0368DB6B98470028F2D1F4E75E
:10608000484905A813F0E4FB802329005B009D42EA
:1060900000D919004900133105A813F0ABFB002308
:1060A0000093002D71D080232E005B009D4200D90B
:1060B0001E007100133105A813F09CFB3A4905A896
:1060C00013F03AFCA16905A813F086FC374905A82E
:1060D00013F070FC310005A813F08BFC344905A8BF
:1060E00013F068FC009A039B944663440293019367
:1060F000019B0F221F783B09190017403031092BF3
:1061000001D93733190005A813F05DFC390030318F
:10611000092F00D9073105A813F055FC019B029AFD
:10612000013301939B1A9E42E2D8224905A813F03D
:1061300041FC214F05993800FFF7CCF92300333398
:106140001B78002B28D0174908A813F081FB08AA58
:106150001A493800FFF7E4FA01281AD0042811D1AF
:1061600017490BA813F074FB0BA908A813F0EAFC5D
:1061700005000BA813F01DFB6B1C03D02368200047
:106180009B6A984708A813F014FB05A813F011FBAD
:106190006DE708A813F00DFB009BAD1B9B19009346
:1061A0007FE7C0462456020062270200A1180200C1
:1061B0006C2702006D270200A44500201027000074
:1061C0006F270200FA2370B500259B008360124BF5
:1061D000040045601800083020602000543323611B
:1061E0002275A161E56129002562243013F07AF956
:1061F0002300012220003233E562258607491D7005
:106200005A70343013F024FB210005481031FFF799
:106210004DFB200070BDC0469C27020024560200A2
:10622000A44500200A00012110B504004942FFF7EF
:10623000C9FF200010BD10B583690400013302D0EE
:1062400003689B6A9847237D002B0BD023682000AE
:10625000DB6B98470028F9D00120237D2062002BBA
:1062600007D110BD23682000DB6B98470028F3D1CD
:10627000F7E723682000DB6B9847002803D16430E0
:1062800010F096FFF5E7A0690130431E9841E8E75A
:106290004B6810B502860200836200233232C3626B
:1062A0001370FFF7C8FF10BD70B504000E00243056
:1062B0000021150013F01EF9230000223233E6629C
:1062C000258620001A70FFF7B6FF70BD70470000EA
:1062D00010B501210248FFF77DFA431E984110BD19
:1062E000A445002070B50400094913F0B1FA0F214C
:1062F000200013F07FFA074D07492800FFF7EAF85E
:10630000280022006421FFF70BFA200070BDC04670
:1063100024560200A4450020F42702007FB50400A3
:10632000164D290013F094FA1B21200013F062FA95
:10633000134E14493000FFF7CDF8FA2122008900EE
:106340003000FFF7EDF9104901A813F081FA01A917
:10635000200013F0AAFB060001A813F02AFA002E71
:1063600007D007220021200013F05AFC200004B0BF
:1063700070BD2900200013F0DFFAF7E72456020071
:10638000A4450020FC2702000428020010B50400E8
:10639000044B5422083308C0002116F00EFE2000E2
:1063A00010BDC0462428020010B50C244C4304192B
:1063B0006068002805D016F0B9FD0023A360636073
:1063C000E36010BD70B505000024064B0833036080
:1063D000210028000134FFF7E7FF072CF8D128003F
:1063E00070BDC0462428020010B50400FFF7EAFF84
:1063F000200013F099FC200010BD0000F0B50C2423
:106400004C430419E56889B000900F00002D00D0BE
:106410008BE06368002B06D18020800016F07CFDA5
:10642000E560A0606060454902A813F011FA80237E
:10643000434E3A00434930009B00FFF765F802AA3B
:1064400041493000FFF76CF901281AD0022800D129
:1064500071E004280FD13D4905A813F0F9F905A909
:1064600002A813F06FFB050005A8013513F0A1F990
:106470006B1E9D416D4202A813F09BF9280009B0E4
:10648000F0BD334905A813F0E3F905A902A813F0FC
:106490000CFB060005A813F08CF9002EEBD02D495B
:1064A00005A813F0D5F905A902A813F04BFB0500C8
:1064B00005A813F07EF96A1C0025002102A813F03C
:1064C000AFFB049B02A8591E13F0C4FB049B5B089E
:1064D0000193019B9D421ED0690002A813F006FBA8
:1064E0006B000678591C02A813F000FB3300303B08
:1064F0000278DBB2392E01D9373EF3B21600303EB6
:10650000F6B2392A01D9373AD6B21B016268334351
:1065100053550135DDE76368009AA3600C237B4384
:10652000D318DD6002A813F044F90C235F43009BED
:10653000DF19FD68A2E701259CE7C046245602004A
:10654000A44500200C280200102700006F2702003D
:106550001B2802006D27020070B504000D00FFF734
:106560004DFF002805D00C2169436418A3681878F2
:1065700070BD01204042FBE7F8B506000C00170093
:106580001D00FFF73BFF002811D0854200DD05000C
:106590000C235C4334192A00A168380016F0F1FC82
:1065A0002800A3685B19A360E3685B1BE360F8BD88
:1065B00010B5054C2000FFF7E9FE044A044920000D
:1065C00013F036FC10BDC046F4450020000000204A
:1065D000C5630000704710B5040013F0A5FB200050
:1065E00010BD10B50368C9B21B68984710BD10B53F
:1065F00004004068217A0368DB6A984702216068DA
:10660000FFF7EFFF606803685B6B984700239842D1
:1066100003D1012010F0CCFD0123180010BD0000B3
:106620000B4B10B5134004D52020013B40420343DF
:1066300001331F24D01720401C3CA1408018DA17DA
:106640002240D31840119B1000021843084310BD8C
:106650001F000080F0B5081E1BD00020824218D019
:106660008B189C46082201230E781C003440651EBE
:10667000AC41C70B400080B2BC4202D0054C604028
:1066800080B25B00013ADBB2002AEED101316145F4
:10669000E8D1F0BD0580FFFFF0B585B000AFFC6A22
:1066A000FB8023006E4608333B600733DB08DB00CA
:1066B000F31A03269D4605001E70E01D013E58702A
:1066C0009970DA70B91D320001A816F05AFC6B46B9
:1066D0002200B96A981D16F054FC6B46621D591CC5
:1066E0002800FFF7B7FF0E23F881A01D3200F9182C
:1066F000684416F046FC6868297A0368DB6A9847A4
:106700006868694603683A685B6898476868036820
:106710005B6B9847BD464342584105B0F0BDF0B5AC
:10672000130085B000AFBA60D51C6A460A33DB0897
:10673000DB00D31A9D46FB601523040039607B60A3
:106740006068217A03682A009B6B1E000123B04712
:10675000A84204D07B68013B7B60002BF0D16068CD
:1067600003685B699847FB681870C0B2A84203D001
:106770000020BD4605B0F0BDFB685D1C2E006068C2
:1067800003681B699847002806D0606803685B6946
:10679000984728700135F2E7BB68F9685D1C2A004C
:1067A0002000FFF757FFBA68FB689B189A78FB68D0
:1067B00012025B5D13439842DAD1BA68310038683F
:1067C00016F0DFFB0120D4E737B50400406812491A
:1067D00003689B6A9847606800210368DB6A9847F2
:1067E000606803685B6B98470C4810F005FD6B46CA
:1067F000DD1D012229002000FFF791FF002809D0AC
:106800002B780020112B05D16068054903689B6A2D
:10681000984701203EBDC046A0860100DC0500006F
:1068200040420F0073B504000D001600FFF7CCFFC7
:10683000002801D1002076BD0022ABB20192009267
:1068400040212000FFF728FF0028F3D0732010F02C
:10685000AFFC402231002000FFF761FF0028E9D0A3
:10686000012010F0A5FC2000FFF7C1FE0120E2E7A7
:1068700030B585B00400FFF7A7FF002802D1002043
:1068800005B030BD00224721019200921300200084
:10689000FFF702FF0028F2D00F2509206D4410F009
:1068A00087FC012229002000FFF739FF0028E6D0ED
:1068B000012010F07DFC2000FFF799FE287843426C
:1068C0005841DDE730B585B004000D00FFF77CFFCF
:1068D000002802D1002005B030BD4023009501936F
:1068E000012247212000FFF7D7FE0028F2D00F2514
:1068F00009206D4410F05CFC012229002000FFF704
:106900000EFF0028E6D0012010F052FC2000FFF717
:106910006EFE287843425841DDE7F7B504000F00CA
:1069200015001E00FFF750FF002801D10020FEBD1A
:10693000ABB201950097022247212000FFF7ACFE81
:106940000028F3D0092010F033FC20223100200071
:10695000FFF7E5FE0028E9D0012010F029FC200017
:10696000FFF745FE0120E2E730B5002485B00500C1
:106970000394FFF729FFA04202D1002005B030BDEB
:10698000019400942300220030212800FFF784FEA8
:106990000028F2D0022010F00BFC042203A92800EA
:1069A000FFF7BDFE0028E8D0012010F001FC280010
:1069B000FFF71DFE0398E1E710B504004068036887
:1069C000DB6998472000FFF7FFFE2000FFF70FFE6E
:1069D0002000FFF7C9FFF0231B041840034BC01829
:1069E000034B18404342584110BDC0460000B0FF61
:1069F000FFFFEFFF30B585B004000D00FFF7E4FEA8
:106A0000002802D1002005B030BD2023009501935D
:106A10000322002316212000FFF73EFE0028F1D0BC
:106A20000F251D206D4410F0C3FB0122290020001A
:106A3000FFF775FE0028E6D0012010F0B9FB20001A
:106A4000FFF7D5FD287843425841DCE7F0B5A5B003
:106A500004000F001600FFF7B7FE002802D1002047
:106A600025B0F0BD04AD40223900280016F089FAA7
:106A70004022310014A816F084FA80230095019377
:106A800002227C3B45212000FFF706FE0028E6D0CD
:106A90000F2548206D4410F08BFB012229002000B7
:106AA000FFF73DFE0028DBD0012010F081FB200025
:106AB000FFF79DFD287843425841D1E770B50400A7
:106AC00015001E00FFF796FF002806D032002900AF
:106AD0002000FFF7BBFF431E984170BD73B5040053
:106AE0000D001600FFF770FE002801D1002076BDD2
:106AF0000022ABB201920092412180322000FFF7C8
:106B0000CBFD0028F2D0462010F052FB402231008D
:106B10002000FFF704FE0028E8D0012010F048FB19
:106B20002000FFF764FD0120E1E7F0B585B0060025
:106B30000D0003921F000A9CFFF746FE002803D1B8
:106B40000024200005B0F0BD042C03D0202CF7D188
:106B500080231D4300216B46EAB29B8930000191DE
:106B600000910231FFF798FD0028E9D0052010F0D0
:106B70001FFB220039003000FFF7D1FD0028DFD0D5
:106B8000012010F015FB3000FFF731FDD9E773B598
:106B9000002204260C000B00009611000500FFF7F0
:106BA000C4FF002801D1002076BD231D00960222DB
:106BB00000212800FFF7B9FF0028F4D02300009639
:106BC0000833032200212800FFF7AFFF431E98413E
:106BD000EAE7000070B50D0086B00021040012F055
:106BE00037FE69462800FFF7D2FF00281ED0122189
:106BF000200012F0FFFD00256B465E5D0F2E03D8CE
:106C00000C49200012F0D6FE1022310003A812F029
:106C10003EFE03A9200012F0BBFE013503A812F0CE
:106C2000C8FD092DE8D1200013F01AF8200006B0A5
:106C300070BDC04612270200F0B585B002900F006B
:106C400003921D000F291DD8032420261C4002D0CA
:106C5000002005B0F0BDAC4217DA2B1B1F2B00DC67
:106C60000426220039000298FFF7DAFC039B020099
:106C70001B19009602210298FFF757FF0028E7D062
:106C8000A419E8E701204042E3E70120E1E71FB54E
:106C9000042303AC0093152223000021FFF745FFD6
:106CA000002806D00020A378834202D1E078434236
:106CB000584104B010BDF0B585B005000C001600B9
:106CC0001F00FFF781FD002802D1002005B0F0BDB4
:106CD0000A9B042B03D0202BF7D160331C430A9965
:106CE000B3B20191E2B2009712212800FFF7D4FC61
:106CF0000028EAD00F241A206C4410F059FA01221F
:106D000021002800FFF70BFD0028DFD0012010F044
:106D10004FFA2800FFF76BFC207843425841D5E733
:106D2000F0B585B002900F0003921D000F291DD809
:106D3000032420261C4002D0002005B0F0BDAC4248
:106D400017DA2B1B1F2B00DC0426220039000298C7
:106D5000FFF766FC039B02001B19009602210298B4
:106D6000FFF7A9FF0028E7D0A419E8E70120404277
:106D7000E3E70120E1E7F0B58BB005000E00140059
:106D8000FFF722FD002822D0002C22D000221B2158
:106D90000192009213002800FFF77EFC002815D016
:106DA000172010F005FA202202A92800FFF7B7FCEF
:106DB00000280BD027001F2C00DD202730003A00D0
:106DC00002A916F0DEF8E41BF619DDE700200BB08F
:106DD000F0BD012010F0ECF92800FFF708FC0120BD
:106DE000F5E7F0B589B00D001700694620220400D0
:106DF0001E00FFF7C0FF002802D1002009B0F0BD3F
:106E000039002000FFF7F6FD0028F6D032002900F7
:106E10002000FFF763FE431E9841EFE7064B07484B
:106E2000083310B50360064B064A436060230649E9
:106E3000037212F0FDFF10BD342802004C46002002
:106E40009C47002000000020D565000030B59C68FC
:106E5000039B88689968049B95689A68059B9B6862
:106E6000002800D00B30002D01D00B354019002C2C
:106E700001D00B340019002901D00B314018002A31
:106E800001D00B328018002B01D00B33C01830BD5D
:106E90005B2070470A0030B50020202520320C5CB2
:106EA0002B1A002C0ED101302028F8D101230D001F
:106EB00040313F351478881A002C0AD1AA4204D0F8
:106EC0000132F7E7E4091B19F1E70120153318181F
:106ED00030BDE4090019F9E70B78002B04D1012A31
:106EE00004DD0131013AF7E7DB09D218901C704745
:106EF0000420FF2903DC01387F2900DC01387047BA
:106F00003023F7B5137093701D3BD3700D3B9C4637
:106F1000137107235371053BD372013B13735375F0
:106F200006339375592042230191614650701376C0
:106F30003D2000232A2786264825CE245173082188
:106F40009072D07453763A3804339771D6711572B3
:106F5000D773167455745472917394741075D075F8
:106F600093761B3210000199402216F00AF85B203C
:106F7000FEBD3023F7B50F0020241370263B53705D
:106F8000043B93700233D370223313715C3353711B
:106F90003E3B93718633D371913B1372393B5372ED
:106FA000013B9372013BD37220370091009B1B7809
:106FB000002B01D1012C0AD1080040313F303E782E
:106FC000CD1B002E09D1874206D00137F7E7009B81
:106FD000013C01330093E9E70125DB09E4180323B1
:106FE000F609AD191373E0B2EBB20193C318DBB22B
:106FF000D91D0433137402235173302600215374B6
:10700000009B9173D67390741B787F2B25D8133215
:10701000160030002200009915F0B3FF009B3619CE
:107020001B787F2B00D90134022333706B461B7908
:10703000B01C73703B787F2B03D90023F01CB37016
:10704000013D2A00390015F09CFF3B787F2B00D9C9
:107050000135200015304019FEBD1600D1741436DC
:10706000013CD6E770B50D0014002A78002A04D13F
:10707000012C04DD0135013CF7E7D209A4180222F6
:107080005C701A702A78981C7F2A03D90022D81CB9
:107090009A70013C2200290015F073FF2B787F2B9A
:1070A00000D90134A01C70BD312070B58C681870F7
:1070B000E0B2050009355D7030259D70C51DDD709D
:1070C00006251A7213221D71033D5D7152359D71A3
:1070D000513DDD715A7298720B3318000968220015
:1070E00015F04FFF20000B3070BDF7B51E008B6808
:1070F000050017000B9C002B04D023000622FFF78D
:10710000D3FF2418BB68002B06D0230008223900C7
:107110002800FFF7C9FF2418B368002B06D023000E
:10712000072231002800FFF7BFFF2418089B9B6847
:107130000193002B06D023000A2208992800FFF7AC
:10714000B3FF2418099B9B680193002B06D02300F2
:107150000B2209992800FFF7A7FF24180A9B9B68B8
:107160000193002B05D0230003220A992800FFF782
:107170009BFFF7BD30231370FF290DDD523308123A
:1071800053709070D31C19700420FF2903DC013860
:107190007F2900DC01387047531C7F29F3DD8120F3
:1071A000931C5070EFE70000F7B50193424B0E00BF
:1071B00000920B9D99426ADD1823FA212B70093B3E
:1071C0006B708900300012F0D9FEFA213030A870BF
:1071D0008900300012F0B8FF0800642112F0CEFEE2
:1071E0003030E8706421300012F0AEFF08000A2150
:1071F00012F0C4FE303028710A21300012F0A4FFD2
:107200003031AC1D69710A21009812F0B7FE3030A0
:1072100020700A21009812F097FF303161700198B8
:107220000A2112F0ABFE3030A0700A21019812F052
:107230008BFF3031E17008980A2112F09FFE303048
:1072400020710A21089812F07FFF3031617109988E
:107250000A2112F093FE3030A0710A21099812F031
:1072600073FF3031E1710A980A2112F087FE303045
:1072700020720A210A9812F067FF5A23A3720E4B5C
:107280003031617211209E4200DC0238FEBD0B4B92
:107290002C1DCF1817232B700A3B6B700A21380066
:1072A00012F06CFE3030A8700A21380012F04CFF4A
:1072B0003031E970A7E7C0460108000030F8FFFF51
:1072C00030230B70263B4B70043B8B700233CB702A
:1072D00022330B715C334B713E3B8B718633CB7128
:1072E000913B0B72393B4B72013B8B72013B0C2083
:1072F000CB72704710B504000D4B08330360443067
:1073000012F057FA2000383012F053FA20002C30D7
:1073100012F04FFA2000203012F04BFA2000143007
:1073200012F047FA2000083012F043FA200010BD96
:107330004428020010B50400FFF7DCFF200012F023
:10734000F3FC200010BD000070B50400114B124D7D
:10735000083303602900083012F07AFA200029006F
:10736000143012F075FA20002900203012F070FA63
:10737000200029002C3012F06BFA20002900383050
:1073800012F066FA20002900443012F061FA200061
:1073900070BDC046442802002456020010B5054CBA
:1073A0002000FFF7D1FF044A0449200012F040FDFD
:1073B00010BDC0465C46002000000020F5720000B1
:1073C000704710B5040012F0AFFC200010BD0000A3
:1073D00010B5044B04480833044A0549036012F011
:1073E00027FD10BD54280200EC46002000000020BC
:1073F000C173000070B50500124BA435083303605B
:1074000004002868002803D015F090FD00232B60AD
:107410002000483012F0CDF920003C3012F0C9F9BC
:107420002000303012F0C5F92000243012F0C1F9EC
:107430002000183012F0BDF920000C3012F0B9F91C
:10744000200070BD6828020010B50400FFF7D2FFCD
:10745000200012F069FC200010BD000070B504008F
:10746000164B174D0833036029000C3012F0F0F969
:1074700020002900183012F0EBF9200029002430F8
:1074800012F0E6F920002900303012F0E1F9200076
:1074900029003C3012F0DCF920002900483012F0BD
:1074A000D7F92300074A9C331A6001225A60220050
:1074B0000023A43220001360536070BD68280200CE
:1074C000245602006428020010B503000C000020BE
:1074D0001100082C0CD8083A072A09D85C6099607A
:1074E00054331A0003484823FFF7A6FB431E984174
:1074F00010BDC0464C460020A43000687047A8303C
:107500000068704710B5483012F016FA10BD000040
:107510000300FA22F0B594331B78D200DB06DB0EB1
:107520009B1802009832127887B0D206D20E9B18B0
:107530001A4A04001E27934200DD0237220023006E
:10754000174D9C33A032196812682800FFF7C4FC5D
:107550000600200023002200210048300290303431
:107560000C3824331832019000940C312800FFF7B6
:107570006DFC010004002800FFF7BAFC059028000C
:10758000FFF786FC0300059A1136A4186400A619BB
:10759000B81C3018C018043007B0F0BD0108000056
:1075A00058460020F0B51400020091B00F91FA2166
:1075B00094321278C900D206D20E52180B920200F1
:1075C00095321278564D1207120F0C920200963225
:1075D00012780600D206D20E0D920200973212786F
:1075E0001900D206D20E0E92020018320A92803290
:1075F000177828002200FFF7BDFDA02302222018E3
:1076000003709D3B43708270027101233200310090
:10761000C370441DA0329C31230012680968280001
:10762000FFF720FD241821002800FFF749FE330052
:107630000C330593183306930C3307930C330893DC
:10764000089B48360193079B241800930A9A069BCF
:107650000599029628000996FFF7F8FB2200010021
:1076600004902800FFF786FD099B24180293089BCD
:1076700003940193079B0A9A00930599069B28009F
:10768000FFF733FD049BFF06E418302323700B9BA8
:10769000FF0E244ADF190223974200DC00231E3329
:1076A0006370A61C00241E4D0E9B039600930C9A3B
:1076B0000D9B0B99029401942800FFF775FD0E9B1A
:1076C0003618039600930C9A0D9B3900029401948E
:1076D0002800FFF769FD3618320004992800FFF7EB
:1076E00049FD099B36180293089B03960193079B5B
:1076F0000A9A00930599069B2800FFF7F6FC049B65
:107700000F99F61832002800FFF7FAFBA323301870
:107710000370A13B43702E338370C47011B0F0BD71
:1077200058460020010800001823F0B54A4EA7B0C3
:1077300000AF04003961FA1841683000FFF772F8B1
:10774000002854D02000FFF7E3FE05000100434865
:10775000FFF7CEFB6A462B187B610733DB08DB00A3
:10776000D31A9D46BB602B0018256A467919200064
:10777000FFF718FF3B69002B3CD04022781900210D
:10778000801815F01AFC3000FFF772F800282DD091
:1077900000257B69304EAB4213DD5A1BBB6859197B
:1077A0003F2A06DD3000FFF78DF800281ED0403557
:1077B000EFE7182040233818C3183000FFF7ADF862
:1077C000F3E7250018214022791854358A182B0038
:1077D00061683000FFF705FB002807D048232A0026
:1077E000A1683000FFF79CFA002803D10020BD46B5
:1077F00027B0F0BD2300194E543319003000FB6050
:10780000FFF748FB7B6925001B18190030003B611E
:10781000FFF76EFB3B69A8351918A434296020686E
:107820007C6016F091FB7B68041E186001D1286013
:10783000DCE7020039693000FFF79CFC24187A6904
:10784000B968200015F09DFB7B69F968E2183000EB
:10785000FFF78FFB0120CAE74C4600205846002066
:1078600010B50021FFF760FF431E984110BD0000D6
:1078700010B5054C2000FFF7F1FD044A0449200033
:1078800012F0D6FA10BDC046F046002000000020DD
:10789000F573000010B503689C6B0123A04710BD71
:1078A0008C2300229B00C154103BC3185A609A607D
:1078B000DA6001238375704710B5036801211B6BE3
:1078C000984710BDF8B505000E0017000024BC4213
:1078D00008D02B68315D1B6828009847002801D02C
:1078E0000134F4E72000F8BDFC30406A704770476F
:1078F0008E239B00C15070478D239B00C150704761
:107900000300FC335A6A002A03D01B6AC018007EA9
:10791000704701204042FBE770B5060018250C496E
:10792000006910F0A7F9306910F008F82B00082161
:10793000307D084C4343E31859560FF0B5FE08213B
:10794000707D4543641961560FF0AEFE70BDC046B0
:10795000A0860100FC72020070B504000D000069F1
:1079600010F001F82900206910F084F920690FF067
:10797000E5FF70BD10B500690FF0F5FF10BD000008
:10798000F7B50193FA238026002504009B0083604D
:10799000134B760008330F00456029000092036006
:1079A0003200183015F009FB23002000FC3325308D
:1079B000DD6132001D6229005D62FF3015F0FDFAC5
:1079C00088239B00E3185D609D60DD606B461B783B
:1079D000276123756B461B79A57520006375FEBD75
:1079E0007828020070B506001825006910F01CF90F
:1079F00030690FF0A3FF2B000821307D064C434374
:107A0000E31859560FF050FE0821707D4543641964
:107A100061560FF049FE70BDFC72020010B50022E5
:107A2000FFF7E0FF10BD0300802210B5FC33DC68D7
:107A30005200944208D05A6881545A680132D2B236
:107A40005A60DA680132DA6010BDF7B50400171E1B
:107A5000019302D100252800FEBD03000022FC3363
:107A6000DA611A625A62006901320FF0AFFF061E36
:107A7000F0D0230020691833009310F03AF8010089
:107A80000098FFF7D0FF01252069BD4214D010F007
:107A90000EF800280FD020690FF078FF022120692E
:107AA0000FF07EFF206910F024F801000098FFF726
:107AB000BAFF0135E8E7060020690FF05EFF019B81
:107AC000002B06D0002E06D0032120690FF068FF9E
:107AD000C1E7002EBFD1013DBDE7002310B5827D77
