:020000040000FA
:10000000FC7F0020790B0000690B00006D0B0000E5
:1000100000000000000000000000000000000000E0
:10002000000000000000000000000000710B000054
:100030000000000000000000750B0000CD0C000067
:1000400010B5064C2378002B07D1054B002B02D0AE
:10005000044800E000BF0123237010BD5C000020B5
:1000600000000000CC1E000008B5084B002B03D098
:100070000748084900E000BF07480368002B03D089
:10008000064B002B00D0984708BDC046000000007A
:10009000CC1E00006000002058000020000000007E
:1000A000064B0322104002040549586808401043DB
:1000B0005860DA695107FCD47047C0460008004216
:1000C000FFFFFCFF38B5284A284B5A805A7852B2B5
:1000D000002AFBDB264B04211A6A264D0A431A62CA
:1000E0002B68012213432B602A680123214C1A42FA
:1000F000FAD1E2691A42F7D11423236041001E4865
:1001000001F008FD421EE068FF231A4098431043A7
:10011000E0602368022213432360EA69154B9107CC
:10012000FBD45A8B30218A4310210A435A83EB694E
:1001300001205A07FBD4114B02241A7802431A708B
:100140000F4B0F22197891431970197821431970B8
:100150000C490C782043087019780A401A701A78F4
:1001600020210A431A7038BD14400000000C0040E2
:100170000004004000080042006CDC0248440041DA
:100180003444004149440041F7B500230F1C01925B
:100190001D1C994254D001212A4E4000084333705F
:1001A000C1B2294B0322588B1C1C000910400128A6
:1001B00004D05B8B1B091A40022AF2D1606AC00A84
:1001C000C00208436062217E1F4B0122880708D4C9
:1001D000197E1142F7D05968C02292020A435A6030
:1001E00003E05B8B9B08134201D0002528E03270AE
:1001F000237E9907FCD5154A154B117801251970F6
:100200006268BD4212D0134B022013406360FFF7B7
:1002100047FF33785A1C3270227E9007FCD50B4979
:100220000B480A780135C254EDB2E9E78023DB02BE
:10023000134363600199002902D00320FFF730FFC8
:10024000281CFEBD7800002000080042280800425B
:1002500099000020FFFFFBFF024B00221870024BA9
:100260001A7070477A00002079000020F8B5274BFB
:100270001C786400E4B2264B03215D8B1A1C2D0907
:100280000D40012D04D05B8B1B0919400229F2D1CE
:10029000536ADB0ADB0223435362117E01231942B6
:1002A000FBD01B49498B8908194204D00320FFF772
:1002B000F7FE022427E017490D782B1C002B11D0E4
:1002C000154EEC1A365D154C2670114E177E012422
:1002D000768B274202D12642F7D00BE0B6082642A1
:1002E0000ED007E00B701C1C00280CD00320FFF779
:1002F000D7FE08E003200B700324FFF7D1FE02E0D5
:10030000013BDBB2DAE7201CF8BDC0467A000020D2
:1003100000080042790000207B00002028080042ED
:10032000034A1378591C1170024AD05401207047B7
:10033000790000207B000020154A164B1178002917
:1003400009D11549187809784118C9B21970802067
:1003500012494003C86111780131C9B2117019788E
:10036000F02902D81978092909D80B4908784042A0
:10037000C0B20870187809784118C9B2197012789B
:100380001B789A4203D18022044B5203DA617047F2
:100390007D000020010000200000002000440041FA
:1003A00010B5041C6B20FFF757FF201CFFF7B8FFA8
:1003B0000120FFF75BFF01210A1C6B20FFF7E4FE21
:1003C000014B187810BDC0469900002038B5051CB7
:1003D0006B200C1CFFF740FF281CFFF7A1FF201C1F
:1003E000FFF79EFF0120FFF741FF022038BD08B54F
:1003F0000520FFF7D5FFCE23011C19400520FFF78C
:10040000E5FF012008BD000010B5041C0020FFF727
:10041000C7FF78232D4A9843C1B2944242D018D8DE
:100420002B4B9C4238D009D82A4B9C4230D02A4BC7
:100430009C422FD0294B9C4245D13FE0284B9C4207
:100440002CD0284B9C422BD0274B9C423BD12023C5
:1004500033E0264A94422BD00AD8254B9C4223D025
:10046000244B9C4222D0244B9C422CD1402324E09C
:10047000224A94421ED004D8214B9C4223D16023AF
:100480001BE0204A944217D01F4A944215D01AE02C
:10049000082312E0102310E018230EE028230CE0BC
:1004A00030230AE0382308E0482306E0502304E024
:1004B000582302E0682300E0702319430020FFF76F
:1004C00085FF012000E0002010BDC046581100004B
:1004D00018100000780F0000C80F0000280F00005F
:1004E000B810000008110000681000009812000009
:1004F000F811000048120000A81100003813000095
:10050000E812000088130000D813000010B5041C86
:100510000020FFF745FF07239843E122C1B2920074
:10052000944220D008D8962C18D0FA235B009C4225
:1005300017D0642C22D11CE0114A944215D005D862
:100540009623DB009C4219D1042311E0FA22D20049
:1005500094420CD00B4A94420AD00FE0012421436C
:1005600007E0022304E0032302E0052300E0062362
:1005700019430020FFF72AFF012000E0002010BDF2
:10058000DC050000B80B000070B504AC267805ACA3
:100590002578441EA041C401002901D040210C430C
:1005A000002A01D020221443002B01D010231C4329
:1005B000002E01D008231C43002D01D004231C432E
:1005C0000220FFF7EDFE0125011C294021430220F6
:1005D000FFF7FCFE281C70BD10B5041C0420FFF7BB
:1005E000DFFE03231840084B9C4204D0074B9C427B
:1005F00008D1B02100E0982101430420FFF7E6FE76
:10060000012000E0002010BD10100000701000005C
:1006100008B50120FFF7C4FECF23011C19400120BB
:10062000FFF7D4FE012008BD07B5FFF7E0FEFFF796
:10063000EFFF0948FFF7E8FEFA20C000FFF766FF6A
:10064000002300930193181C191C1A1CFFF79CFF30
:100650000248FFF7C1FF07BD08110000101000009D
:1006600008B50348FFF72EFDFFF7DEFF08BDC046C3
:10067000A086010010B5C3699C07FCD4036802245E
:10068000A3430360C46901231C42FBD104682343D4
:1006900003600368DC07FCD4C46901231C42FBD15E
:1006A000C469DC401C42F7D1084B1A430260C3699D
:1006B0005A07FCD4C0239B0243608181C3699C0715
:1006C000FCD4036802221343036010BD0400004001
:1006D000037EDA07FCD5018570470000027E012306
:1006E0005107FBD5428B1A4207D1428BDA401A429E
:1006F00003D1428B92081A4202D0034B01221A7096
:10070000008DC0B27047C0467E00002070B50368FF
:10071000041C988B1A1C0821FF32084226D0802026
:1007200099839872112353704021144B9171507129
:100730005E68134DC0202E40800506435E605E69F2
:100740003540284358610F4818600F4818615D68AC
:100750000E4828408025AD02284358605868800B19
:100760008003586000235171237105E0137ADA0683
:1007700002D5201C00F0E4FA207970BD9C01002015
:10078000FFFFFF8F9C0000201C010020FF3F00F0B6
:10079000002303714371044B016083600B780222D4
:1007A00013430B707047C0460D07000038B5364B39
:1007B0002021DA6901200A43DA61344B06241A78D1
:1007C00002431A70324B0F2219789143197019782D
:1007D000214319702F490C782043087019780A407A
:1007E0001A701A7860210A431A702B4B2B4A5A80D0
:1007F0005A7852B2002AFBDB294B01211A780A43AE
:100800001A709A78D107FCD426480268510B1F222F
:100810001140914200D1052111408C011D8D2249CA
:100820002940214319850468A10C0A401F2A00D1E0
:100830001D221C8D1F210A408C4322431A85026809
:100840000721D20D0A408A4200D103220A40188DA6
:100850001103164A02400A431A8519787F220A407A
:100860001A701A78042112480A431A7058621A89B9
:100870000C218A431A811A8901218A431A81002195
:10088000802201F0A0F938BD000400405844004126
:100890003C44004159440041000C00400640000027
:1008A00000500041246080003FF8FFFFFF8FFFFFF2
:1008B0009C010020F7B5141C1F4A5F0101971D1C05
:1008C000D319061C5869271C4000400F0330103311
:1008D000C74006D00F1C8022596812060A435A608E
:1008E00009E02F1C7B1E9F41144BBF01FF18381CD1
:1008F000221C01F05FF901990F4808354218176171
:10090000131C5269A104920B890C92030A435A6189
:1009100059690B4A0A405A616B01F3180222DA71D5
:100920005979802252420A435A716B01F318DB79DC
:100930009A07FAD5201CFEBD9C0100201C01002056
:10094000FF3F00F0F8B51A4E051C3378141C002B3D
:1009500012D1184B184A1A645A6C920B92035A64BB
:10096000586C164A02405A64A2235B00EA5C40209D
:100970000243EA54012333704827FF37EA5D01231D
:10098000134012D00B4B5A6C9204920CA24202D22A
:100990005C6CA404A40C081C221C074901F00AF991
:1009A0000123EB550023337000E01C1C201CF8BD14
:1009B0007F0000209C010020DC000020FF3F00F0B1
:1009C000FF3083792022002900D110221343837144
:1009D00070470000084BFF305A69920B92035A612E
:1009E00002230372827980235B4213438371037A6B
:1009F0009A07FCD57047C0469C01002080235B42CB
:100A00001943C9B28172704770B5A02303225B00FD
:100A1000C254134B134A5C6CC021144089050C432B
:100A200046255C64FF35402444550F4D30261D6437
:100A300090256D0046555D6B1540294392255963FD
:100A40006D0080214155094D1D63B0256D00445551
:100A50005C6F22405A67B2235B00C15470BDC04630
:100A60009C010020FFFFFF8FDC0000205C010020C4
:100A7000024B5B785BB2002BFADB7047000C004046
:100A8000024BDB68DA06FBD57047C0460008004021
:100A9000F8B52A4B1E22596891430222114359602E
:100AA000274B28491E1C9982998A0A439A82F36827
:100AB0000227234C3B42FAD0234D0123AB60FFF7C2
:100AC000D7FF224B6B60FFF7D3FF8223DB016B80E4
:100AD000FFF7CEFFA38C80229343A384FFF7D0FFC0
:100AE0001B4BE362FFF7CCFFA38C1A4A1343A3848A
:100AF000FFF7C6FFA38C1F43A784F3681A06FCD533
:100B00000F4BDB685A06F8D50024FFF7B9FFAC603D
:100B1000FFF7AEFF104B6B60FFF7AAFF0F4B104AB9
:100B2000C0215A600F4A0906106A0002000A0143F8
:100B3000116207229C601A60F8BDC0460040004167
:100B4000000800400C060000000C004001050100F8
:100B5000B805FF7D040A00000007030010E000E074
:100B6000E703000000ED00E00EBEFEE70DBEFEE76D
:100B700005BEFEE702BEFEE70E4A0F4838B58242C8
:100B800004D10E4A0E4B93420ED10AE00D4C944212
:100B9000F7D00023D1188842F3D9E55804330D600B
:100BA000F8E700F011F804E09342FAD2002102C302
:100BB000FAE7FEE7000000205C000020AC03002004
:100BC0005C000020D01E000038B5344D2B68013386
:100BD0001AD0334B2A1D1A60EAB2002A14D1314BC5
:100BE000197801231940304B0AD118682F4A9042D6
:100BF00001D1196008E01A602D4A013A002AFCD19F
:100C00001A602C4B01221A70FFF742FF62B6FFF701
:100C100027FD284B284C1B78002B0AD02B6883F328
:100C200008881E4BFF229343A3601D4B1B681B6863
:100C3000184700F09DFD00F04FF8204B8022520332
:100C40009A601F4B1F4A051C5A60216AC022090284
:100C5000090A12060A43226200229A6007221A60D9
:100C6000AB68281C9847184B002801D001221A7045
:100C70001A78002A05D0002000F08CFA00F004FB5E
:100C8000FCE71B78002BEBD100F0E6FD0028E7D055
:100C9000012000F07FFA00F0F7FAFCE700200000E6
:100CA0001C02002038040040FC7F002035817307BF
:100CB00048E801008000002000ED00E00044004111
:100CC00010E000E0E70300008100002008B5FFF716
:100CD00033FB00F0C3FA08BD10B5054B054C23608B
:100CE000FFF764FD201C2168FFF752FD201C10BD9A
:100CF000005000412002002070B5051CC0B0081C47
:100D0000161C0C1C00F067FF40006A4603230230EB
:100D10005370107076080123E218013A11785A00D6
:100D2000002906D1281C69460023FFF7C3FD40B007
:100D300070BDB342F6DA684681520133ECE7000039
:100D4000F7B5BA4A04681378B949271CFF37051C60
:100D5000102038720B705378B648B74E03709378F2
:100D60003380D178338809020B4333801179B34B38
:100D70001980517918880902084318809079B04980
:100D80000880D2790888120202430A8040227A71D0
:100D9000A84F3A78A64F120238780F1C0243A94890
:100DA0008446181C624500D1C2E020DC8021490045
:100DB0008A4200D16EE109DC812A00D192E0822AC8
:100DC00000D195E0802A00D064E18BE081235B00B4
:100DD0009A4200D1CFE000DA58E1C0239B009A424A
:100DE00000D157E1984B9A4200D14FE152E1902354
:100DF0001B019A4269D015DCD023DB009A4222D035
:100E000088231B019A4269D0A023DB009A4200D0BC
:100E100040E1201CFFF7DEFD3188286889B2FFF72A
:100E2000EDFD3BE1894B9A4200D12FE100DC31E13D
:100E3000874B9A4200D11DE1864B9A4200D029E1AE
:100E400033886B7122E133881B0A012B08D10B8890
:100E500012222868934201D80A8892B27E4911E191
:100E600033881B0A022B08D10B884322286893423F
:100E700001D80A8892B2794904E133881B0A032B0E
:100E800000D007E13388DBB2012B17D0002B07D04D
:100E9000022B00D0FEE00A882868D2B2704911E027
:100EA000042201A86F4900F085FE3B8804222868CF
:100EB000934201D83A8892B201A9E3E00A882868EF
:100EC0006949D2B2FFF718FFE8E03388201C2B7184
:100ED000FFF780FD201CFFF797FDDFE0291C01C90B
:100EE0000122CFE0614900230B8028680222CAE07A
:100EF0005E4900220A801888502210405C4A107017
:100F00001E880F20304018801888032800D9C1E0BF
:100F100012781B8808335B01E418A379002A01D0FA
:100F20009B0600E0DB06DB0F0B8028680222A9E0AD
:100F300019887F2291434E4AC9B2117018880F2137
:100F4000014019803188002900D0A3E019880029C8
:100F500000D19FE01988032900D99BE012781B88F3
:100F600008335B01E318002A02D020225A718DE079
:100F7000102159718AE002887F239A433C4BD2B2F8
:100F80001A7001880F220A4002803288002A00D09D
:100F900080E00288002A00D17CE00288032A00D980
:100FA00078E01B78002B1FD0038808335B01E3181F
:100FB0009B799A066AD50388202208335B01E318DF
:100FC0001A71038808335B01E318DB795F065DD58E
:100FD0000388402208335B01E318DA710388022298
:100FE00008335B01E3181EE0038808335B01E31854
:100FF0009B79D9064AD50388102208335B01E31890
:101000001A71038808335B01E318DB799A063DD532
:101010000388202208335B01E318DA710388012278
:1010200008335B01E3181A7130E0C0469C000020D1
:1010300083000020880000208A0000208C0000200F
:1010400086000020020300000103000021200000B0
:10105000A121000021220000201C0000040000202B
:101060000C1C0000FC1B0000001C00008400002081
:10107000820000200B8808222868934201D80A8841
:1010800092B207490023FFF715FC07E0201CFFF789
:10109000A1FC03E0201C0121FFF792FCF7BDC04634
:1010A0004800002007B5054B0122019001A91868EE
:1010B000131CFFF7FFFB01200EBDC04620020020DD
:1010C00013B5054B6C4607341868211C0122FFF745
:1010D00039FC207816BDC0462002002010B5074C10
:1010E000201CFFF713FB031C0020834205D022685D
:1010F0004823FF33D05C0123184010BD200200209C
:1011000010B5054A0C1C031C191C10680123221C75
:10111000FFF7D0FB201C10BD2002002070B5084C4A
:10112000061C201C0D1CFFF7F1FA0023984205D085
:101130002068311C2A1CFFF705FC031C181C70BD1D
:1011400020020020F8B50C4C051C201C0E1CFFF7DB
:10115000DDFA0023271C341C98420AD0002C07D04B
:10116000291C221C3868FFF7EDFB241A2D18F5E71F
:10117000331C181CF8BDC0462002002008B5031C13
:10118000081C111C9847024B64221A8008BDC046F7
:1011900092000020012805D1054B064A1A60064B33
:1011A000187004E0002802D1044A014B1A6070470D
:1011B00090020020541C000098000020A01C000099
:1011C00030B50A1C1C4985B00978031C00292AD0B7
:1011D000042A01D1006804E0022A01D1008800E05D
:1011E0000078520004A98B180B3B9C1AA3420BD029
:1011F0000F210140092902D83025294300E0373169
:1012000019700009013BF1E701A930230B70782325
:101210004B700A208B1898700D20D870074B043241
:101220001B68D86803E005490968C868191CFFF7FE
:10123000A5FF05B030BDC0468E0000209002002002
:1012400072B6EFF30883044A1360036883F30888D7
:10125000436818477047C04694020020084B1A881C
:10126000002A03D01A88013A92B21A80054B1A88D4
:10127000002A03D01A88013A92B21A807047C046F9
:101280009200002090000020F0B591B008A9CC4A4F
:101290000B1C31CA31C351CA51C360CA60C3C94BA8
:1012A000C9489A687A255203520F92005258C7498A
:1012B00002609C68A4B262430C60C54900240A60C5
:1012C000C44A1460C44C2570C44CC54D2368281C06
:1012D0001B6940219847002802D0C24B64221A8023
:1012E000C14B00221860C14B1D60C14BC04DBE4FA9
:1012F0001A602A683B689A42E6D2BC4B1B681A788F
:10130000FF2A00D114E2232A00D0EBE1B94E337852
:10131000002B06D0B14BB8491B680222D868FFF7F2
:101320002DFFAD4B1B78532B3CD13B682A68934271
:101330001ED9AE4801322A609A1AB04B01681B6868
:1013400001310160AE4E9A4201D2326000E033605A
:10135000A04832680068049000F02CFC33682968CB
:101360005A182A60A14A1668F1181160A54A13702C
:101370002B68013B2B609D4B1A68013A1A60A14B08
:101380009E4A1B7811688B420AD222689148C91A7A
:10139000006892699047002802D0924B64221A801C
:1013A000C0468DE1522B0AD18A48944A23680068CE
:1013B00011685B69039098476422934B0DE04F2BB3
:1013C00005D1844B8D4A1B6812681A7078E1482B4E
:1013D00005D1804B894A1B6812681A8070E1572B2F
:1013E00005D17C4B854A1B6812681A6068E16F2B37
:1013F00003D1784B0121186807E0682B08D1754BA1
:101400007E481B6802211B880360FFF7D9FE57E165
:10141000772B06D16F4B79481B6804211B6803604A
:10142000F3E7472B13D1754B1868FFF709FF774B8C
:101430001B6883F3088862B6754B1B78002B00D1BC
:101440003EE1664B06201B681B68984738E1542B29
:1014500004D101233370614B1B6864E04E2B0CD127
:101460003378002B06D15D4B63491B680222D86894
:10147000FFF784FE0023337022E1562B57D12368F7
:101480006449D8680122FFF779FE23686249D86869
:101490000322FFF773FE614D2368291CD8680122DF
:1014A000FFF76CFE23685E49D8680D22FFF766FEE1
:1014B0002368291CD8680122FFF760FE4B4F4C4D72
:1014C0005849002339602B603A1C281C13685E1CA5
:1014D00016601B780593002B03D00368013303606B
:1014E000F4E73E4E2A683368D868FFF747FE336852
:1014F0004A49D8680122FFF741FE059929604A4907
:1015000039603A4A1368581C10601B78002B04D0CD
:10151000374B1A6801321A60F3E733682A68D868D3
:10152000FFF72CFE3368D86833490222C6E0334AFD
:10153000582B17D1244E264D366813682A68B100FF
:1015400093420AD21F4D5808E861384828801D4D43
:10155000287DC607FBD55B18F2E7204B34491B6892
:10156000D868AAE0592B79D112681A4B3149002A60
:1015700002D11B680B606CE0124D086819686B683B
:10158000104E8025AB4392087360002A61D02A4B2D
:101590000C4D2B800B4E337DDD07FBD500230A4D10
:1015A0002D680195AD08AB4203D3244D054E35801F
:1015B00046E09342F9D09D00465901334E51EEE783
:1015C000341C00000040004148020020400200207E
:1015D0003C0200208C0200203802002090020020F3
:1015E0004C02002090000020300200203402002035
:1015F000440200208E000020941C0000980200206D
:101600009C0200202C020020920000209402002066
:1016100098000020701C0000991C0000721C000043
:10162000BC1C0000741C0000801C000002A5FFFF11
:10163000891C00009400002044A5FFFF04A5FFFFC3
:101640003F4E357DEE07FBD59D0049194019D21A52
:101650009BE73C4B3C491B68D8682EE05A2B2FD1A6
:101660003A4B17681D680026EF19BD4206D028784E
:10167000311C00F013F90135061CF6E7314B3449F3
:101680001B680122D868FFF779FD07230F2232403B
:10169000111C36093031092A00DD07311820C01825
:1016A0006A468154013BF1D2236806A9D868082212
:1016B000FFF764FD23682749D8680322FFF75EFD22
:1016C000254B7A221A70254B00221A60244B1B7876
:1016D00093422DD01B4B23491B680122D868FFF78A
:1016E0004DFD25E0111C3039C8B21C4B092804D827
:1016F0001D682A01114319601AE0111C413905299E
:1017000003D81E68373A310106E0111C61390529FA
:1017100004D81868573A01010A4308E02C2A03D17B
:101720000A4A1968116001E00B490A7000221A6028
:101730000D4B1A6801321A600C4B1A680132D5E55C
:1017400000400041900200208D1C00008C0200200F
:10175000911C0000931C0000380200209802002019
:101760008E000020971C000044020020340200205C
:1017700010B51C4B01201A78032402431A701A4B2F
:101780000F2219789143197019782143197017495C
:101790000C782043087019780A401A701A783021A2
:1017A0000A431A70124B80211A6A0A431A62114BBB
:1017B000114A5A805A7852B2002AFBDBC4220F48E1
:1017C0000F499203FEF756FF0E4A002313700E4A8C
:1017D00013700E4A13700E4A13700E4A13700E4A9D
:1017E000137010BDD6440041BB440041D7440041B2
:1017F00000040040000C004019400000001C0042A2
:101800002AF60000A002002027030020A1020020E9
:10181000A4020020280300202503002008B5C1B23F
:101820000248FEF755FF012008BDC046001C0042DB
:10183000024B187E4007C00F7047C046001C004294
:1018400008B5FFF7F5FF0028FBD00248FEF746FF7A
:1018500008BDC046001C004208B5FFF7E9FF0023A1
:10186000984205D0FFF7ECFF031C233B5A4253413B
:10187000181C08BD70B5041C0D1C4618B44204D0D9
:101880002078FFF7CBFF0134F8E7281C70BD10B5B6
:10189000041CFFF7D5FF2070012010BD0B0A584033
:1018A000034B4000C05A0902484080B27047C0460E
:1018B000CA1C0000F7B50024051C0F1C261CBC42E6
:1018C00020D0FFF7BDFF114BC0B21B780190002B59
:1018D0001AD1311CFFF7E2FF0D4B061C1A88002AB3
:1018E00004D10C4A11782A1C002907D001996A1CDE
:1018F0002970802F02D11988013919800134A4B2CE
:10190000151CDCE7301C00E00120FEBD2503002093
:10191000A202002026030020F0B53E4E85B0002232
:1019200003900C1C32703C4B914201D1012201E02A
:101930003A490C801A707F231C4201D080349C43AA
:10194000FFF77EFF3378C0B2002B07D0002535703B
:10195000FFF776FF3378C0B2AB4236D1432803D0CD
:10196000712853D01528EBD1012300930120FFF7F4
:1019700055FF0098FFF752FF00998025C843C0B279
:10198000FFF74CFF039B00270293244A1388002B88
:101990001DD1214901930978002918D10198FFF739
:1019A0003DFF391C0198FFF779FF013D071C002D11
:1019B000EBD1000AC0B2FFF731FFF8B2FFF72EFFFC
:1019C000FFF73EFF3378002B0AD035701FE00299F5
:1019D000013B09781380029B019101330293DDE7FB
:1019E000C0B2062807D1009B03990133DBB28031D6
:1019F0000093803C0391002CB8D10420FFF70EFF28
:101A0000FFF71EFF044B01251C7000E00025281C79
:101A100005B0F0BD2503002026030020A20200200F
:101A2000F0B5384C87B0002301902370994201D162
:101A3000012301E0344A1180344A642613704320A4
:101A4000FFF7ECFE324FFFF7F3FE002803D1002F23
:101A500003D0013FF7E7002F03D1013E002EEED166
:101A60004DE00125FFF7ECFE2378002B38D1C0B202
:101A70000290012805D004283DD10620FFF7CEFEB4
:101A800039E005AE0221301CFFF714FF01988021D8
:101A9000FFF710FF23780390002B18D1FFF7D0FE3B
:101AA0000702FFF7CDFEBFB223783F18BFB2012B6C
:101AB0000DD0039B9F4207D13378AB4204D1EB4357
:101AC0007278DBB29A4204D01820FFF7A7FE0023F9
:101AD00003E00620FFF7A2FE029B2278002A02D034
:101AE000002626700BE0012B05D1019A6B1C803279
:101AF000DDB20192B6E7054A002313700126301CBF
:101B000007B0F0BD25030020A2020020260300201C
:101B100000350C00002934D00123002210B4884283
:101B20002CD301242407A14204D2814202D209010C
:101B30001B01F8E7E400A14204D2814202D249002D
:101B40005B00F8E7884201D3401A1A434C08A042D0
:101B500002D3001B5C0822438C08A04202D3001B66
:101B60009C082243CC08A04202D3001BDC0822437D
:101B7000002803D01B0901D00909E3E7101C10BCA1
:101B80007047002801D00020C04307B4024802A1DA
:101B90004018029003BDC046190000000029F0D093
:101BA00003B5FFF7B9FF0EBC4243891A1847C04678
:101BB0007047C04610B50023934203D0CC5CC45498
:101BC0000133F9E710BD031C8218934202D019704B
:101BD0000133FAE770470023C25C0133002AFBD1CE
:101BE000581E7047F8B5C046F8BC08BC9E46704702
:101BF000F8B5C046F8BC08BC9E467047040309040B
:101C000041726475696E6F204C4C4300417264757B
:101C1000696E6F204D4B52204E42203135303000DE
:101C2000120100020200004041235500000201029F
:101C3000000100000800000010000000200000006B
:101C400040000000800000000001000000020000D1
:101C5000000400001D1800004118000031180000A9
:101C6000751800008F18000019190000211A0000D3
:101C7000760020004170722031312032303139003D
:101C800031333A30393A353700580A0D00590A0DC8
:101C9000005A00230A0D003E00322E3000000000E2
:101CA000A5100000C1100000DD10000001110000AF
:101CB0001D11000001110000451100005B4172641C
:101CC00075696E6F3A58595A5D0000002110422024
:101CD00063308440A550C660E770088129914AA10D
:101CE0006BB18CC1ADD1CEE1EFF131121002733284
:101CF0005222B5529442F772D662399318837BB35D
:101D00005AA3BDD39CC3FFF3DEE362244334200413
:101D10000114E664C774A44485546AA54BB52885AC
:101D20000995EEE5CFF5ACC58DD553367226111663
:101D30003006D776F6669556B4465BB77AA71997FC
:101D40003887DFF7FEE79DD7BCC7C448E5588668EB
:101D5000A7784008611802282338CCC9EDD98EE94C
:101D6000AFF9488969990AA92BB9F55AD44AB77AC3
:101D7000966A711A500A333A122AFDDBDCCBBFFB9C
:101D80009EEB799B588B3BBB1AABA66C877CE44CD3
:101D9000C55C222C033C600C411CAEED8FFDECCDEC
:101DA000CDDD2AAD0BBD688D499D977EB66ED55EA3
:101DB000F44E133E322E511E700E9FFFBEEFDDDF3C
:101DC000FCCF1BBF3AAF599F788F8891A981CAB1C8
:101DD000EBA10CD12DC14EF16FE18010A100C230FA
:101DE000E3200450254046706760B9839893FBA3B5
:101DF000DAB33DC31CD37FE35EF3B1029012F3224A
:101E0000D2323542145277625672EAB5CBA5A89504
:101E100089856EF54FE52CD50DC5E234C324A01499
:101E200081046674476424540544DBA7FAB7998794
:101E3000B8975FE77EF71DC73CD7D326F2369106E9
:101E4000B01657667676154634564CD96DC90EF9DC
:101E50002FE9C899E9898AB9ABA944586548067839
:101E60002768C018E1088238A3287DCB5CDB3FEBF4
:101E70001EFBF98BD89BBBAB9ABB754A545A376A89
:101E8000167AF10AD01AB32A923A2EFD0FED6CDDC4
:101E90004DCDAABD8BADE89DC98D267C076C645CD9
:101EA000454CA23C832CE01CC10C1FEF3EFF5DCFD4
:101EB0007CDF9BAFBABFD98FF89F176E367E554E29
:101EC000745E932EB23ED10EF01E000000000000A2
:101ED00001140000090243000201008032090400DD
:101EE0000001020200000524001001042402000584
:101EF000240600010524010001070583030800FFF3
:101F000009040100020A00000007058102400000E8
:101F1000070502024000000000C2010000000800A6
:0C1F20006900000041000000000000000B
:10200000008000201D6901000569010005690100CB
:1020100000000000000000000000000000000000C0
:102020000000000000000000000000000569010041
:102030000000000000000000056901007169010056
:1020400005690100056901004D4B000005690100AB
:1020500005690100056901000569010009690100C0
:10206000056901000569010005690100F5740000BA
:10207000056901005D6801004D6801000569010006
:102080000569010005690100056901000569010094
:1020900000000000056901000569010005690100F3
:1020A0000569010005690100056901000569010074
:1020B0000000000010B5064C2378002B07D1054B1B
:1020C000002B02D0044800E000BF0123237010BDA4
:1020D000B00200200000000060760200044B10B542
:1020E000002B03D00349044800E000BF10BDC046E8
:1020F00000000000B40200206076020010B5040069
:10210000183016F070FF200010BD000010B5024816
:1021100003F0B2F910BDC0461404002070B50125CB
:102120001A4C1B4B1B491C48E5541BF047FC1B4930
:102130001B481BF043FC1B491B481BF03FFC1B4B7F
:102140001B491C48E5541BF039FC9F221A4B920195
:10215000E2520233E5520433E552184B1849E55474
:1021600002231848E3722373E57125721BF026FCE5
:10217000154916481BF022FC154916481BF01EFC99
:10218000154916481BF01AFC70BDC046CC41002012
:102190004B040000CE10020094450020D81002002D
:1021A00007440020DF100200E6430020490400003D
:1021B000EF10020011440020120200004A04000047
:1021C00014110200FB410020181102001B420020E4
:1021D000F51D02003B4200201A1102007B42002044
:1021E0000A21435E0200181E01D01B01D01870475F
:1021F00070B50D00041E0FD0C168A9420CD0002D8F
:1022000006D0002904D028001BF0CEFB002803D004
:102210002000FFF7E5FFEDE7200070BD4A688B68FE
:102220001032934204D201230B740023180070472C
:10223000103B8B60002BF9D04268002A08D0991A15
:1022400009115181002243605A811A72DA60EDE768
:102250000360F7E7F7B5037804000D002B2B1DD0C2
:102260002D2B1CD10127013423781A00303A092A7A
:1022700002D92E2B00D0C9E000200A26644922781A
:102280001300303BDBB2092B0BD8884211D8DA435C
:10229000704382420DD3C0180134F0E701340027A7
:1022A000E2E7002A05D1002F18D080231B069842B0
:1022B00009D90026574B98421AD90A21013617F03E
:1022C00011FA76B2F6E77F222B7A404293431A0046
:1022D0000A2313432B7228603800FEBD7F222B7A1D
:1022E000286093431A00082313432B720127F3E756
:1022F00023781A00303A092A03D8013676B201341D
:10230000F6E72E2B0FD10A21434A01342378303BC4
:10231000DBB2092B07D8904203D84843013E181876
:1023200076B20134F2E7202322789A430023452A2B
:102330003AD162782D2A1FD1023401330193002350
:1023400021783039CAB2092A2AD80A225343CB1835
:10235000F118262922DD019A2B7A7F20002A11D03C
:102360000024002F01D0802424060C2183430B433A
:102370002B722C60019FAFE72B2A01D00134DDE7DF
:102380000234DBE7002F06D024490C228343134399
:102390002B722960AAE7FF21C905F6E70134CFE7D0
:1023A000019A002A00D05B422478002C2ED1F61826
:1023B00018F0B6FA002E1ADD01231E4204D0184A86
:1023C000A300D15817F04CFF01347610E4B2002E70
:1023D000F2D1002F02D080231B06C0187F222B7A57
:1023E000286093431A000C2313432B727EE7764236
:1023F000002EEED001231E4204D00A4AA300D15879
:1024000017F02EFF01347610E4B2F1E7002763E7FE
:1024100099999919FFFF7F00CBCC0C00000080FF39
:10242000080E0200F00D020070B5094C200002F009
:1024300031F8084D2100280002F0E2FA0028F4D01B
:10244000200002F0B3FA2800002102F079FA70BDF2
:1024500040500020CC41002070B592B0FFF756FEEE
:10246000954C03A8210016F00DFE210006A816F0D9
:1024700009FE210009A816F005FE21000CA816F09F
:1024800001FE8E4906A816F095FE8D4C0FA821007E
:1024900003F04CFB0FA909A816F084FE0FA816F054
:1024A000A2FD21000FA803F05DFB0FA90CA816F0F8
:1024B00079FE0FA816F097FD824C834920001BF08F
:1024C0007DFA824920001BF053FA814920001BF05D
:1024D0004FFA804D200029001BF04AFA7E49200067
:1024E0001BF046FA7D4E200031001BF041FA0699A0
:1024F00020001BF03DFA310020001BF039FA2900C2
:1025000020001BF035FA764920001BF031FA31002B
:1025100020001BF02DFA099920001BF029FA310048
:1025200020001BF025FA290020001BF021FA6D493C
:1025300020001BF01DFA310020001BF019FA0C9945
:1025400020001BF015FA310020001BF011FA2900C1
:1025500020001BF00DFA644920001BF009FAFFF778
:10256000D5FD0A2201000FA816F0CEFD0F9920001C
:102570001BF0FEF90FA816F036FD290020001BF015
:10258000F7F95A4920001BF0F3F98523584E9B00B8
:10259000F15A0A220FA816F0A5FD0F9920001BF092
:1025A000E7F90FA816F01FFD290020001BF0E0F945
:1025B000504920001BF0DCF94F4B0A22F15A0FA8BA
:1025C00016F090FD0F9920001BF0D2F90FA816F01D
:1025D0000AFD290020001BF0CBF9484920001BF020
:1025E000C7F9474B0A2219780FA816F06AFD0F9910
:1025F00020001BF0BDF90FA816F0F5FC2900200003
:102600001BF0B6F93F4920001BF0B2F986239B006E
:10261000F15A0A220FA816F065FD0F9920001BF051
:10262000A7F90FA816F0DFFC374920001BF0A0F92E
:10263000364D0A223649280016F0AFFC0A223549E9
:10264000280016F0AAFC2100280016F055FC02F024
:1026500057FA3149280016F04FFC30490FA816F000
:1026600011FD06A90FA816F02DFE2D4916F037FE14
:1026700000222C4E009213000100300013F07AFB70
:102680000FA816F0B0FC2100300016F019FC300045
:1026900013F05FFF2449280016F02EFC0CA816F05A
:1026A000A2FC09A816F09FFC06A816F09CFC03A843
:1026B00016F099FC12B070BD244E02009445002023
:1026C0004803002088040020991102009B11020099
:1026D000A3110200AE110200B01102006D1F020032
:1026E000BE110200CA110200D3110200E011020063
:1026F000CC410020EA11020012020000F611020093
:102700000C030020081202001312020040500020A7
:102710003D3D3D3D6E6F734A151202002E120200C0
:10272000371202004C03002049120200F0B595B0A8
:10273000FFF7ECFC8B4C02A8210016F0A3FC210053
:1027400005A816F09FFC210008A816F09BFC8649FE
:102750000BA816F097FC21000EA816F093FC834DF1
:102760008349280016F0C8FB824908A816F022FD0C
:102770008149280016F0A4FB08A9280016F0B2FB36
:102780007E4C7F4920001BF019F97E4920001BF088
:10279000EFF87D4920001BF0EBF87C4E2000310063
:1027A0001BF0E6F87A4920001BF0E2F8794F200090
:1027B00039001BF0DDF8089920001BF0D9F839002A
:1027C00020001BF0D5F8310020001BF0D1F8724931
:1027D00020001BF0CDF8FFF799FC0A22010011A898
:1027E00016F092FC119920001BF0C2F811A816F007
:1027F000FAFB310020001BF0BBF8684920001BF0F9
:10280000B7F8674B0020185E18F040F8F6218905EC
:1028100017F026FD0222011C11A816F0D6FC119912
:1028200020001BF0A5F811A816F0DDFB31002000F8
:102830001BF09EF85B4920001BF09AF85A4B0020D1
:10284000185E18F023F8F621890517F009FD022219
:10285000011C11A816F0B9FC119920001BF088F892
:1028600011A816F0C0FB310020001BF081F84F4981
:1028700020001BF07DF84E4B0020185E18F006F883
:10288000F621890517F0ECFC0222011C11A816F0B4
:102890009CFC119920001BF06BF811A816F0A3FB0B
:1028A000310020001BF064F8424920001BF060F862
:1028B000414B0020185E17F0E9FFF621890517F05B
:1028C000CFFC0222011C11A816F07FFC11992000F8
:1028D0001BF04EF811A816F086FB384920001BF0BB
:1028E00047F83749280016F007FB2100280016F0AA
:1028F00003FB02F005F93349280016F0FDFA3249CE
:1029000011A816F0BFFB08A911A816F0DBFC2F498F
:1029100016F0E5FC00222E4E00921300010030005C
:1029200013F028FA11A816F05EFB2100300016F013
:10293000C7FA300013F00DFE2649280016F0DCFA25
:102940000EA816F050FB0BA816F04DFB08A816F0C9
:102950004AFB05A816F047FB02A816F044FB15B089
:10296000F0BDC046244E02001E110200405000205F
:102970002511020094450020461102008804002021
:10298000991102009B11020056110200AE110200C3
:10299000B01102006D1F0200D31102005D11020090
:1029A000CC02002064110200E8020020691102003C
:1029B0000A0300206E110200080300201312020017
:1029C00075110200891102002E1202003712020056
:1029D0004C0300204912020070B505000024AC42EF
:1029E0000FDA0121062014F057FAC82002F098F8F7
:1029F0000021062014F050FAC82002F091F80134AA
:102A0000EDE770BDF8B52E4C2E49200016F074FA93
:102A10002D4D0221280013F043FE2C4F0121388058
:102A2000280013F03DFE2A4E00213080280013F0CC
:102A300037FE284D02212880274813F031FE274B0E
:102A40001880FFF763FB264B26491860200016F01C
:102A500053FA2549200016F033FA0023F95E0A22C2
:102A6000200016F09AFA2149200016F029FA0023D6
:102A7000F15E0A22200016F090FA1D49200016F09F
:102A80001FFA0023E95E0A22200016F086FA19498F
:102A9000200016F015FA114B0A220021595E200081
:102AA00016F07BFA1449200016F026FA134A144B4C
:102AB000D35C002B02D00120FFF78EFFF8BDC0468B
:102AC00040500020FF0F02000E030020CC02002027
:102AD000E80200200A03002014030020080300205D
:102AE000040300201A100200681002006E10020099
:102AF000741002007A10020080100200CC41002005
:102B00004A04000073B51A4C1A49200016F0F4F973
:102B1000FA261949200016F0EFF9012501F0DCFF33
:102B2000B60000950123154A1549164802F094FC99
:102B3000032807D01449200016F0C2F9300013F022
:102B40005BFFEEE72900114802F08CF80428F1D170
:102B50000F49200016F0D0F90A2001F067FF0D4957
:102B6000200016F0C9F9200016F0B4F973BDC04674
:102B700040500020EF1302001D140200E643002025
:102B8000074400201404002018100200280300202D
:102B90002914020033140200F0B55D4D5D4987B081
:102BA000280016F0A9F95C4C0121200002F036FA49
:102BB000200002F0FBF90028FAD05849280016F04E
:102BC0007FF95749200002F0C3F8FA210022C9001A
:102BD000200002F0C9F9534E2800310016F08CF99C
:102BE0005149280016F088F95049200002F0B0F849
:102BF0004F4A6421200002F0B7F93100280016F096
:102C00007BF94C49280016F05BF9FA274A49200065
:102C100002F09EF8BF00642013F0EEFE4749280042
:102C200016F04EF9200002F0C1F900223900200010
:102C300002F09AF90128EED13100280016F05CF973
:102C40003F49280016F058F9FA273E49200002F0C3
:102C50007FF8BF00642013F0CFFE3849280016F03B
:102C60002FF9200002F0A2F900223900200002F022
:102C70007BF90128EED13100280016F03DF93249E8
:102C8000280016F039F963273049200002F046F891
:102C9000FA21274AC900200002F066F92C4903A84E
:102CA00016F0F0F903A9224816F08AFB019003A858
:102CB00016F099F9019B01330CD0019B06221C49A7
:102CC00003A816F0CDFB03A816F03EFC070003A8EE
:102CD00016F089F9FA20800013F08EFE1F2FD3DC46
:102CE0003100280016F008F91A49280016F004F9F6
:102CF0002000194902F02CF8FA210D4AC9002000E1
:102D000002F032F93100280016F0F6F807B0F0BDF5
:102D100040500020200E02001C460020420E0200FF
:102D20005F0E0200690E02006F0E0200940E020098
:102D30007C0400209E0E0200CA0E02001810020041
:102D4000D50E02000C0F0200160F0200530F0200F6
:102D5000AE1102005A0F0200710F0200F0B524C834
:102D6000954211D90800130007781C785E1CBC42FC
:102D700004D1002C09D001303300F5E71878013375
:102D80001A000028FAD1EBE700221000F0BD002362
:102D9000F0B585B007000C000291039200939942B0
:102DA00008D00168994208D17F22237A9343237285
:102DB00001230093009805B0F0BD039E3000FFF79B
:102DC000CDFF051E1BD1BB6875680193B268013346
:102DD000EB18934207D9012333747F22237A93435C
:102DE00023720023E5E77360002DF6D0019A39685D
:102DF000280019F04EFD6A46019B1278EA547F22A2
:102E0000237A256093431A00052313432372CFE7E7
:102E100070B5037A0D0016007F211A0004000A40E5
:102E200005D18B435F390B4303720260426020225D
:102E3000237A1340181E12D0281E10D029002068B3
:102E4000FFF7D6F900280AD131002000FFF7E6F994
:102E5000002804D07F22037AC5601340037270BD3E
:102E600010B50200037A20200340181E02D010681B
:102E7000FFF7BEF910BD437C002B06D1C3685A1C76
:102E8000C2601B78037401234374007C704710B543
:102E900004002000FFF7EFFF0A2806D8092808D20F
:102EA000002809D0012020720CE00D2801D0202834
:102EB000F8D100236374ECE7237A58345A1E934107
:102EC0000133237010BD1FB57F220300007A10402C
:102ED000043808282ED816F0F1FB0F0F052D082D09
:102EE0000D2D1A00187804B010BD1868C343DB1705
:102EF0001840F8E71868F6E71868002301AC237259
:102F00002100FFF7A7F92000FFF7DDFFEBE7CF2156
:102F10001C680906201C16F0D5FD0028E3D09E2170
:102F2000201CC90516F0BAFD0028DCD0201C17F0C3
:102F30008DFCD8E70020D6E770B530C814340E00F9
:102F400020002900FFF78CFF002806D07F22037A9B
:102F50001340082B03D00A2B04D030680AE0036822
:102F6000002BFADB29002000FFF77AFF002801D0B0
:102F7000FFF7A9FF70BD70B504000D00FFF77BFFE0
:102F80000023A84201D163740133180070BD2F28BB
:102F900015D90123392803D95E2803D97A2803D803
:102FA0001800704740280AD901235A28F8D900236D
:102FB00001222D38C0B282425B41DBB2F0E701232F
:102FC0002B28F4D1ECE737B500236A461370C3B25F
:102FD0007F280BD853706B460233013B18780028CA
:102FE00031D00A68541C0C601070F6E73F24802230
:102FF0006D4623405242134380096B7085B2C3B2C1
:103000001F2D06D8403213436A4693706B46033334
:10301000E3E76D46234000041343800DAB70C3B259
:103020000F2805DC202252421343EB7001ABD4E79A
:103030001C40102380115B4218436B462243EA7008
:1030400028710533C9E737BDF7B505000027FFF73D
:1030500012FF6F7401902800FFF70DFF0024019A02
:1030600003006C74824259D0A04204D10223583527
:1030700000202B70FEBD5C284BD12800FFF7FBFE23
:103080000028F3D0284B752839D104266C74280009
:10309000FFF7F1FE0028E9D0402806D83038C0B24A
:1030A0000F2806D958350323E2E720239843373801
:1030B000F5E700232401013E0443F6B2A4B26B7489
:1030C0009E42E4D1A0239B01E318184A9BB293428D
:1030D00002D8A405A70DBEE790239B01E3189BB27D
:1030E0002000934206D880238005BC02800D204337
:1030F0005B02C0182900FFF766FFACE702331A78BD
:10310000002ACFD09042F9D15B78002BCAD00022A0
:103110006A742A68511C296013709CE72B6801208F
:103120005A1C2A601C70A5E761140200FF0300000E
:10313000036870B543600400FFF79DFE27280DD09B
:1031400022280BD02000FFF796FE0500FFF71FFF97
:10315000061E09D103235834237003E02000FFF733
:1031600073FF0600300070BD0023637423682000E5
:103170005A1C22601D70FFF77EFE0500FFF707FF57
:103180000028F1D123685A1C22601870EAE7F7B5CD
:1031900004000D001F1CFFF77AFE0190002801D1EA
:1031A000002658E02000FFF766FE272800D17BE0CC
:1031B0001DD8222800D177E02000FFF75CFE002612
:1031C00000900098F7B2FFF7E2FE002800D17EE001
:1031D0000136402E00D179E06A46002312786374EC
:1031E000A319DA752000FFF746FE0090E9E75B2897
:1031F00013D07B28E0D17F222B7A290093431A0039
:10320000202313432B72002300222B606B602000CD
:103210003B1C00F087F806001DE07F222B7AFFB2EE
:1032200093431A00402313432B7200232B606B60DF
:103230009F4203D1583405332370B1E763742000F3
:10324000FFF725FE0028ABD05D212000FFF793FE9D
:10325000061E02D0019E3000FEBD61692800FEF707
:10326000DDFF011E03D1042358342370F3E77B1ED6
:1032700000222000FFF78BFF002800D190E72000FC
:10328000FFF705FE002800D18AE75D212000FFF747
:1032900072FE0028DED12C212000FFF76CFE0028F2
:1032A000DBD158340323C7E7236820006360FFF7AE
:1032B000CBFE061E00D173E77F2263682B602B7A5A
:1032C00093431A00042313432B72C4E73F270021C2
:1032D000E3191976237E742B0DD17F222B7A934329
:1032E0001A00062313432B7201232B70042FB1D035
:1032F00058340223A0E7662B0AD17F222B7A29704B
:1033000093431A00062313432B72052FF0D1A1E734
:103310006E2BEBD0200029001830FEF79BFF002811
:10332000BFD097E7F7B5DFB204000E00002F04D13D
:1033300005235834237000250DE000234374FFF764
:10334000A6FD01900028F6D07D212000FFF713FE96
:10335000051E28D0019D2800FEBD63683068190055
:103360000093FEF745FF002831D001007B1E0022AC
:103370002000FFF70CFF0028DDD02000FFF787FDBD
:103380000028D8D07D212000FFF7F5FD0028E1D1ED
:103390002C212000FFF7EFFD002814D02000FFF7BC
:1033A00076FD0028C7D02000FFF7C2FE0028C2D05B
:1033B0002000FFF76CFD0028BDD03A212000FFF768
:1033C000DAFD0028C9D1032358342370C3E76169AB
:1033D0003000FEF723FF002802D158340423F4E71D
:1033E0007F22037A13400372009BC360BDE710B5D0
:1033F0000400006803685B68984763681818606099
:1034000010BD70B5050008000C001AF0DFFA2100AD
:1034100002002800FFF7EBFF70BDF0B5162407008F
:103420000D000A2687B06C442800310016F0E0F940
:10343000013C303121702800310016F053F9051E8F
:10344000F2D116236B441A1B21003800FFF7CFFF7F
:1034500007B0F0BD10B50400006803685B689847CA
:1034600063681818606010BD70B5050008000C0096
:103470001AF0ACFA210002002800FFF7EBFF70BD44
:10348000F0B5162407000D000A2687B06C4428000A
:10349000310016F0ADF9013C3031217028003100C7
:1034A00016F020F9051EF2D116236B441A1B2100D9
:1034B0003800FFF7CFFF07B0F0BD00000623F7B5D7
:1034C0000E1C070083725849301C16F0FBFA0028C6
:1034D00044D00023142420250093544B311C185948
:1034E00016F0DCFA002809D0514B301C195916F09F
:1034F000B7FE009B061CE81803B20093043C6D1055
:10350000231DEAD103340021301C16F0D1FA002823
:1035100028D0301C18F0E2FF464A474B16F084FAD8
:1035200000281FD0A300019323061BD4434B019A0C
:10353000311C985816F0BCFA00280AD03B4B019A6F
:10354000301C995816F08CFE009B061C581B03B2C9
:103550000093019B6D10013C043BE4E7202505240A
:103560000090D0E76B461B88301C3B8116F022FB95
:103570000400334D38600190019B092B0DD90A21BD
:10358000280016F0AFF8BB7A0500013B0198BB722A
:103590000A2116F0A7F80190EEE7200017F0C0F915
:1035A000011C301C16F08EFF061C280017F0B8F91D
:1035B000011C301C16F054FE019016F0FBFA0600B8
:1035C00017F0AEF9011C019816F07CFF011C16F0F3
:1035D000E7FB16F0EFFA8619AE4214D27E600A2598
:1035E0007E682900300016F003F900291AD10A2458
:1035F0003C57002C16DD2900300016F073F8013C12
:103600007860BC72ECE700237B60009B01343C6077
:10361000002BE4D0092CE2D91800012301303881B5
:103620003B60DCE73800FEBD8096184B080E0200B8
:10363000F00D0200F168E388B5F8E43ED80D020011
:1036400040420F0010B50400006803681B689847EB
:1036500063681818606010BD70B50D000400222169
:103660002000FFF7EFFF2978002909D00A4B013528
:103670001E78002EF4D05A788A4206D00233F7E73B
:1036800022212000FFF7DEFF70BD5C212000FFF744
:10369000D9FF3100E4E7C04663140200F0B504002E
:1036A0008DB0081C0E1C16F0E9F9002805D141491F
:1036B0002000FFF7A6FE0DB0F0BD0021301C16F073
:1036C000DDF9002809D1311C301C16F069FB011C02
:1036D000301C16F0D3F90028E9D10021301C16F077
:1036E000D3F9002806D02D212000FFF7ABFF80235F
:1036F0001B06F61803AD311C2800FFF7DFFE039907
:103700002000FFF78AFE0A23EB560093002B23D0FC
:103710006F6801930AAE019B013E013B5BB20193CE
:1037200001330BD038000A2116F062F830313170C5
:1037300038000A2115F0D6FF0700ECE76B461B782E
:103740002026D9432E228B1902A8C2540AAB4A4222
:1037500020005918FFF74BFE0822AB5E002BAAD0C1
:1037600065212000FFF76EFF0823EE5EB5B2002E44
:1037700005DA2D212000FFF765FF7542ADB2262640
:103780000A2702ABF6182800390016F031F8013E7E
:10379000303131702800390015F0A4FF85B2002DBA
:1037A000F1D1262302AA9B189A1B31002000FFF7B3
:1037B0001EFE80E75C1402007F2270B5037A0500CC
:1037C0000C001340062B00D169E008D8022B0DD362
:1037D000032B50D806CD2000FFF709FE25E00C2B67
:1037E0001FD005D8082B58D00A2B49D030495BE0B0
:1037F000202B21D0402BF9D15B212000FFF722FFA5
:103800002D68002D13D021002800FFF7D5FF2800D8
:10381000FEF7E6FC051E0AD02C212000FFF712FF60
:10382000EFE701682000FFF739FF606870BD5D2198
:103830002000FFF707FFF8E77B212000FFF702FFDA
:103840002D68002D15D0E9682000FFF705FF3A210B
:103850002000FFF7F7FE21002800FFF7ADFF28004A
:10386000FEF7BEFC051E04D02C212000FFF7EAFE67
:10387000E7E77D21DCE701682000FFF7EDFED4E7F4
:103880000568002D04DA2D212000FFF7DBFE6D42D4
:1038900029002000FFF7C1FDC7E70168F9E70378B9
:1038A0000449002B00D104492000FFF7AAFDBCE722
:1038B0005C140200721402007714020010B50C00B0
:1038C000002802D0FFF778FF10BD20000249FFF763
:1038D00098FD6068F8E7C0465C14020010B504006B
:1038E000006803681B68984763681818606010BD1B
:1038F000F0B504008DB0081C0E1C16F0BFF80028AF
:1039000005D141492000FFF7AFFD0DB0F0BD00210A
:10391000301C16F0B3F8002809D1311C301C16F009
:103920003FFA011C301C16F0A9F80028E9D100214B
:10393000301C16F0A9F8002806D02D212000FFF732
:10394000CDFF80231B06F61803AD311C2800FFF7BE
:10395000B5FD03992000FFF793FD0A23EB56009372
:10396000002B23D06F6801930AAE019B013E013BFF
:103970005BB2019301330BD038000A2115F038FFF8
:103980003031317038000A2115F0ACFE0700ECE749
:103990006B461B782026D9432E228B1902A8C254CD
:1039A0000AAB4A4220005918FFF754FD0822AB5ECB
:1039B000002BAAD065212000FFF790FF0823EE5EC0
:1039C000B5B2002E05DA2D212000FFF787FF7542E2
:1039D000ADB226260A2702ABF6182800390015F0EA
:1039E00007FF013E303131702800390015F07AFEB2
:1039F00085B2002DF1D1262302AA9B189A1B310013
:103A00002000FFF727FD80E75C14020070B50D0071
:103A1000040022212000FFF761FF2978002909D046
:103A20000A4B01351E78002EF4D05A788A4206D00F
:103A30000233F7E722212000FFF750FF70BD5C2121
:103A40002000FFF74BFF3100E4E7C046631402009B
:103A50007F2270B5037A05000C001340062B00D1BD
:103A600069E008D8022B0DD3032B50D806CD2000D7
:103A7000FFF7F0FC25E00C2B1FD005D8082B58D001
:103A80000A2B49D030495BE0202B21D0402BF9D1C3
:103A90005B212000FFF722FF2D68002D13D02100AD
:103AA0002800FFF7D5FF2800FEF79AFB051E0AD075
:103AB0002C212000FFF712FFEFE701682000FFF73D
:103AC00017FF606870BD5D212000FFF707FFF8E772
:103AD0007B212000FFF702FF2D68002D15D0E9683B
:103AE0002000FFF793FF3A212000FFF7F7FE2100A7
:103AF0002800FFF7ADFF2800FEF772FB051E04D07B
:103B00002C212000FFF7EAFEE7E77D21DCE70168D2
:103B10002000FFF77BFFD4E70568002D04DA2D2194
:103B20002000FFF7DBFE6D4229002000FFF7A8FC14
:103B3000C7E70168F9E703780449002B00D104497D
:103B40002000FFF791FCBCE75C1402007214020035
:103B500077140200F0B5584FD5B05849380015F029
:103B6000CBF9FA20400100F0DBFFFEF7CFFA544911
:103B700005A815F087FA534B0BA8196819F01EFF1A
:103B80002CAC34AB2C93636054ABA360E360002394
:103B90007F252374237F2200AB4323774A4931A832
:103BA000FFF736F9002806D00423027AAA4313430C
:103BB0000372464B0360FEF7A9FA22000500444950
:103BC00031A8FFF725F9002807D07F22037A056086
:103BD00093431A0008231343037222003D4931A87E
:103BE000FFF716F92200010008903B480994FFF7FF
:103BF000CEF82200394931A8FFF70AF9061E16D07F
:103C00000BA92000FFF7AAF8051E4BD10BA819F04D
:103C1000DDFE030065680133A268EB180390934250
:103C200035D9012323747F22337A934333720024DE
:103C300008A931A808970994FFF740FE380015F04D
:103C400049F9274905A815F0B5FA234905A815F043
:103C5000FBFA244905A815F009FB234D2300220097
:103C600005A90094280012F085F808A931A8089544
:103C70000994FFF7EDFE280012F06BFC1049114883
:103C800015F098FA05A815F0AEF955B0F0BD6360CF
:103C9000002DC8D0039A0BA9280018F0FAFD0023C4
:103CA000039AAB547F22337A356093431A0005237D
:103CB00013433372BBE7C04640500020B5130200E7
:103CC000244E0200DC020020D1130200CB130200BC
:103CD000D6130200E0130200D0020020E713020016
:103CE0002E120200371202004C030020F8B5424E9B
:103CF000424F3100380015F0C5F9414C414D2200CA
:103D00002900380015F0D2FC3F4F3100380015F083
:103D1000B9F922002900380015F0C8FC3B4F3100EA
:103D2000380015F0AFF922002900380015F0BEFC6C
:103D3000374F3100380015F0A5F92200290038006E
:103D400015F0B4FC334F3100380015F09BF9290011
:103D50002200380015F0AAFC2F4F380000F016FFA3
:103D600022002E49380015F0A1FC2D4F002138000B
:103D700001F0FAF922002B49380015F097FC2A4F80
:103D80000121380001F072FE22002849380015F0A8
:103D90008DFC3900264803F0E3FC22002549244825
:103DA00015F084FC244F2249380011F04DFE22000A
:103DB0002249380015F07AFC214801F0ABFE214F72
:103DC0003100380015F05EF922002900380015F0A6
:103DD0006DFC1D4F3100380015F054F92200290008
:103DE000380015F063FC4821184812F013FC4921F3
:103DF000174812F00FFCF8BD244E02007C0400208E
:103E000000000020E78F0100EC020020D00200201B
:103E1000F8020020DC02002028030020614B000093
:103E200014040020FD2000003C040020795500000F
:103E300080060020A17600004C0300203D590100BF
:103E400048030020A04100201C0300200E03002096
:103E500014030020F0B55F4B85B01A785E4B052047
:103E60001A70FEF7B9FDFEF797FE5C4C5C49200026
:103E700015F042F800F030FEE1215A48490214F0F2
:103E8000EFFC594E300000F03DFD5849300000F085
:103E9000B9FD300000F036FDFEF7C6FA544F380089
:103EA00002F0AEF9002804D15249200015F024F8A0
:103EB000FEE7514D08220021280002F029FF3900B9
:103EC00001A802F0ABFA0199280002F03FFF01A817
:103ED00015F089F8280003F0E7F84849484803F04E
:103EE0002AFB280002F02CFF0700280002F02BFF1D
:103EF0003A0003000021434803F03CFC424BF35CD2
:103F0000424E012B0BD14249200014F0F5FF4149EC
:103F1000414815F04FF94149300015F04BF9404D3B
:103F20003100280015F090F93E49280015F09EF95F
:103F3000394F2800390015F087F93B49280015F062
:103F400095F93A49200014F0BBFF2900200014F035
:103F5000C9FF374E3900300011F07EFD354901A808
:103F600015F090F801AA2900300011F07AFD01A89F
:103F700015F039F83000304911F06CFD01210620B0
:103F800012F03EFFE1211748490214F069FCE121DB
:103F90002000490213F0FAFA00F09EFD27492000A4
:103FA00014F0AAFF0A2000F041FD2549200014F07A
:103FB000A3FF00F0A5FD80212248C90012F031FBCB
:103FC00080212148C90012F02CFB204801F0A4FDFB
:103FD00005B0F0BD380400400C0300204050002024
:103FE000E0140200804B0020CC4100201D21000085
:103FF000C4460020F0140200684700200D21000094
:10400000504A0020800600204B040000F8020020E7
:104010000315020094450020D00200201144002026
:10402000A041002035120200261502003E150200B4
:104030004C030020244E0200F94100004A15020002
:10404000581502000E03002014030020480300202E
:1040500030B5A5B03149684615F014F830496846C6
:1040600015F0A8F82F49684615F0EEF82E49684675
:1040700015F0FCF82D4C2E49200014F03DFF00F007
:104080002BFD2C4B03A8196819F098FC2A49200035
:1040900014F016FF03A9200014F012FF2749200096
:1040A00014F02AFF264D274A03A9280012F022FA0D
:1040B00000280FD12449200014F002FF280011F03D
:1040C000DCFC0A220100200014F067FF1F4812F0F8
:1040D00093FCE7E7200014F0FDFE1D49200014F0DA
:1040E0000BFF200014F0F6FE1A49200014F0E8FE41
:1040F0006946200014F0F6FE00226946280012F0FE
:10410000DCF81549200014F0F7FE0A2000F08EFCC0
:10411000684614F068FF25B030BDC046244E02004A
:104120002E120200D0020020850F02004050002015
:104130001D140200F80200209D0F0200EC1C02007A
:104140004C030020B3220000181002008813000066
:10415000B90F0200DD0F02002914020070B51C4CDB
:104160001C49200014F0C8FE00F0CAFC1A4801F0F7
:10417000DFF9032825D0FEF7C5FC184D280011F003
:10418000DEFC002801D1FFF763FF0220FEF724FCCC
:104190001349200014F0B0FE124A134BD05A00F01D
:1041A000BFFC1249200014F0A7FEFEF72BFC1049BB
:1041B000200014F0A1FE280011F07CFEFEF7B6FAF4
:1041C00070BD0C4800F074FD0428D4D1D5E7C0467A
:1041D000405000207D140200140400204C030020F5
:1041E0008A140200CC41002012020000BA1402001E
:1041F000C814020028030020F0B5894C8949A54461
:10420000040000AF884814F05BFE23006A460833C0
:10421000DB08DB00D31A9D466E466D46AB1B9C4205
:1042200005DD824811F077FB28700135F6E7E3439E
:104230000025DB171C40355531007B4814F040FE4B
:10424000794814F047FE082160237A18D4182033E7
:10425000D218BA667A18D3186360A0239B00D218CC
:10426000A2607A18D3187F22E360237F0C20934347
:1042700023772B00FE60BE610E007A185C33D318E2
:104280003D613D757D7725743C6279181D707435EC
:104290000A23491900223818FEF779FFBB1964492F
:1042A0005819FEF7DDFD002800D1B6E07F22037A21
:1042B0001340043B012B00D9AFE00568002D00D16D
:1042C000ABE05C49584814F0FBFD2900564814F057
:1042D00013FE5949280019F067FB061E00D08CE038
:1042E0005649514814F008FE4F4B08250C22FB603C
:1042F00074237819B918C0183E61FFF7DFFA4A48ED
:1043000014F0E8FD0C224E4B013E7919B818FC6000
:104310003B61BE60FEF710FE0C224A4B7919B818BB
:10432000FC603B61BE60FEF707FE0C22464B79192C
:104330003860B818FC603B61BE60FEF7FDFD434B82
:1043400005003B610823F9180433F818FC60BE60CF
:10435000FEF7F2FD2A003E4B643A78603D4C9A42EB
:104360000ED83D49304814F0ABFD0A2229002E48F2
:1043700014F00FFE39492C4814F0BEFD384BE552BD
:104380003B68013B0E2B11D8274E3649300014F004
:1043900097FD0A222900300014F0FBFD324930005D
:1043A00014F0AAFD85233A889B00E2527B68013B0A
:1043B000082B0DD81C4D2D49280014F081FD0A2230
:1043C0007968280014F0E9FD8623BA889B00E25240
:1043D0000121200000F0B4FAFEF73EF801211D484B
:1043E00000F0AEFA224B9B68002B01D0FFF7B2FB26
:1043F000BD46A3239B009D44F0BD1E49280019F033
:10440000D3FA002804D11C49074814F075FDE3E7EE
:104410001A49174814F0CEFEE0E71949F9E7C046FB
:1044200074FDFFFF5A120200405000204C03002090
:104430007A1202007F120200A71502008F120200FA
:10444000AC120200B0120200B7120200C012020049
:104450005CD40100CC410020C8120200EA12020024
:1044600012020000EE1202000213020011130200F9
:10447000DC020020261302002B1302005713020057
:104480009913020010B50121014800F059FA10BD3E
:10449000CC410020F0B5B9B0040012F077FAFA234D
:1044A00001259B00C318009300232F00029312F0F4
:1044B0006DFA009BC01A00D4AEE0029BF92B00D924
:1044C000AAE0002D12D05949200014F015FD21005A
:1044D000574800F03FF9200000F068FA55492000E5
:1044E00014F0EEFC029B0133DBB202932368200040
:1044F0001B69984700282AD1236820001B69984728
:10450000051ED4D000231E000393019312F03EFA3F
:10451000009BC01A75D5019B002B23D12368200076
:104520005B699847051EF1DD12F030FAFA239B0013
:10453000C31800930D2D3CD1236829001B6820006F
:10454000984712F023FA323003900197DEE7236890
:1045500020009B6998470028CED1236820005B6922
:104560009847C3E7236820009B699847431C58D1AC
:1045700012F00CFA039BC01AD0D4002505AB9B198E
:104580001D70AE4293DB12D02B4905A819F0D2F969
:10459000A84241D005AA3900254800F070F8A84289
:1045A00033D012F0F3F9FA239B00C31800933D00B7
:1045B0007DE70A2D05D1236829001B682000984754
:1045C000DBE700230193082D01D07F2D09D19E4206
:1045D0009CD0236803225B68184920009847013E5D
:1045E00094E7C72E92D82B00203B5E2B8ED82368F1
:1045F000EDB21B6829002000984705AB9D55013698
:1046000084E7002505AB1D7051E705A90C4800F0B3
:10461000E7F90028C5D1CAE7200014F05BFC39B0E7
:10462000F0BD0A2800D179E7A7E7C046621502006D
:10463000881502006E150200821502007E15020028
:10464000CC410020F7B506000F0000240192BC42C7
:1046500012D018236343F3185D68280019F0B6F9E7
:1046600029000200019819F0B8F9631C002801D153
:104670002000FEBD1C00EAE701204042F9E770B5CA
:1046800006001500FFF7DEFF002398420DDB18241B
:1046900044433419A6680133002E06D0606819F02F
:1046A00095F929182000B0470123180070BD70B596
:1046B00004690500002C08D04269200019F0C2F9F5
:1046C0006B69E4180023013C237070BD10B50469C8
:1046D0000B00002C05D000221800110019F060FF1B
:1046E000207010BD10B504690B00002C05D000220D
:1046F0001800110019F054FF208010BD70B50C0097
:1047000005000A49200014F0DBFB2968200014F0A2
:10471000D7FB0749200014F0D3FB6968200014F090
:10472000CFFB0449200014F0CBFB70BDEB1C020052
:10473000B3150200B615020070B50C0005000800A4
:1047400014F0C8FB2968200014F0BAFB200014F014
:10475000C1FB70BD70B505690C00FFF7CFFF002DE0
:1047600004D02900200014F0C7FB70BD200014F015
:10477000B1FBFAE770B505690C00002D06D0FFF714
:10478000BDFF29780A22200014F021FC70BD70B50D
:1047900005690C00002D06D0FFF7B0FF29880A221A
:1047A000200014F0FAFB70BD30B5094D094CAB6820
:1047B0005B035B0F9B001C590460AB6801619BB2FB
:1047C00043606343A4008360C460426130BDC0465F
:1047D00000400041BC150200F7B580261A4D01913A
:1047E0006F6803333E439B086E60002B2BD0174E3F
:1047F0002E802E7DF107FCD51E000768991BBF088F
:104800008F4219D9002E17D0FF2117788C433C43D3
:104810000F4957780C403F023C439778013E3904DA
:104820000C4F2740D478BFB20F43240601993C4374
:1048300010C101910432E0E7074B2B802B7DDB0791
:10484000FCD53300D1E7F7BD0040004144A5FFFF90
:10485000FF00FFFFFFFF00FF04A5FFFF044B054A19
:104860004908D9611A801A7DD207FCD57047C04625
:104870000040004102A5FFFF70B504000D001600C6
:10488000E36829002000B34205D2FFF7E7FFE368A1
:10489000ED18F61AF4E7FFF7E1FF70BD10B5100050
:1048A0001A0017F0F6FF10BD0D4BF0B5C41808251F
:1048B00000230C4EA04210D00278120253402A006E
:1048C0001FB259008BB2002F01DA71408BB2013A4E
:1048D000D2B2002AF4D10130ECE71800F0BDC04696
:1048E0004C04000021100000044B10B51B68002B85
:1048F00000D098470122024B1A7010BDB041002031
:10490000AC41002010B504000A4822004369016947
:10491000FFF7C4FF2000FFF7C7FF2288064B9A422B
:1049200003D1064BE35A834202D02000FFF7DCFF9D
:1049300010BDC046B4410020EFBE00004C04000092
:1049400030B5134C134DA5440400002902D12B7837
:10495000002B19D0104B20002380FFF7A5FF0F4B31
:104960002100E0520E4A684617F093FF0D4C626931
:1049700021692000FFF780FF63696A4621692000F2
:10498000FFF72AFF00232B70074B9D4430BDC04624
:10499000ACFBFFFFAC410020EFBEFFFF4C0400006A
:1049A0004E040000B44100205404000070B505001E
:1049B000902614F08FFA0849280014F09DFA00247C
:1049C000760006482018C368002B01D029009847BC
:1049D0001834B442F5D170BD201C0200001B020047
:1049E00010B50A0004480C21FFF749FE002802D048
:1049F0000122024B1A7010BD001B0200AC410020C6
:104A000001207047014B19607047C046B04100203B
:104A100010B5034A03490448FFF7C6FE10BDC0465F
:104A20004E04000000160200B44100201023224A68
:104A300091690B439361214B1A7852B2002A3ADBF9
:104A40001F4A2049916020495160517849B200299C
:104A5000FBDB1E495180517849B20029FBDB022162
:104A60001A788A431A70DA7952B2002AFBDB0421E1
:104A70001A788A431A70DA7952B2002AFBDB0F21C6
:104A8000421C0A405A7002220840987019780A4362
:104A90001A70DA7952B2002AFBDB0122C0205A7167
:104AA0000B4B03321A6080001A580A491140C02289
:104AB00012040A431A5070470004004000100040DE
:104AC000000C004004040000040311000344000033
:104AD00000E100E0FFFF00FF0221074B1A788A4344
:104AE0001A70DA7952B2002AFBDB1021034A93696B
:104AF0008B4393617047C0460010004000040040A3
:104B0000064B1900DA7952B2002AFBDBA5221A7291
:104B1000CB795BB2002BFBDB7047C0460010004036
:104B200070B5040011F032FF0A25041911F02EFFB0
:104B3000A0420AD2FFF7E4FF11F028FF201A0A284A
:104B400000D9280011F058FFF0E770BD0123024A98
:104B50001370024A937170471A46002000100040FB
:104B600010B50400034B083303600C3014F03BFA1B
:104B7000200010BDE41D020010B50400FFF7F0FF97
:104B8000200014F00FFD200010BD0000074B10B5F1
:104B90000833036001230400037205490C3014F04C
:104BA00071FA00232000E36110BDC046E41D02003D
:104BB000244E020030B5264C85B00500200000F0E0
:104BC000CDF9002837D0200000F0E0F800226B6813
:104BD0001000013B052B2ED8180014F06FFD0309BF
:104BE0000D182E341B49200000F098F8022300E035
:104BF00003236B6000201EE0290020000C3100F030
:104C000077FA1549200000F089F80423F1E71349E9
:104C100001A814F037FA280001A90C3014F08FFB1A
:104C2000040001A814F0DFF9002CDFD000230120DC
:104C30006B6004332B7205B030BD0949200000F0D1
:104C40006DF80623D5E701236A602B72D2E7C046D0
:104C50001C460020C11D0200CC1D02007C1E02006B
:104C6000D61D0200F8B501234360DB18040003726F
:104C7000002919D011F08AFEFA26070076002000DC
:104C8000FFF798FF051E09D1E369002B08D011F04A
:104C90007DFEE369C01B984202D36560207AF8BDAF
:104CA000300011F0A9FEEAE7FFF784FFF6E7000005
:104CB00010B50400024800F069F8207A10BDC04623
:104CC0001C46002010B504001C3014F08CF92000A4
:104CD00010BD000070B58360049B06000025C36012
:104CE000012304001C364260056105758361016083
:104CF0003000054914F0C6F9A5623000402114F0D7
:104D000093F9200070BDC046244E0200014B024AB8
:104D10001A607047484600204050002070B50400DB
:104D20000D0011F033FE2369C01A132803D8142391
:104D3000181A11F061FE2900206814F0DDF82068CF
:104D40000368DB68984700232375A36170BD0000EA
:104D50000EB410B50A4C0B49A5440400FFAB183340
:104D600004CB02A8019319F0BBFE02A92000FFF7B3
:104D7000D5FF054B9D4410BC08BC03B01847C04686
:104D8000F4FBFFFFFF0300000C040000F0B504007B
:104D900087B0206803681B699847002800D192E01B
:104DA000206803685B699847634BC6B2186800289F
:104DB00003D0036831001B68984725001C3531007B
:104DC000280014F05CFA277D012F48D05B49684623
:104DD00014F058F96946280014F0A5FA0026B042EC
:104DE0000DD0574903A814F04DF903A9280014F079
:104DF000A6FA461EB041C6B203A814F0F4F86846FD
:104E000014F0F1F8002E06D0012323754D49280037
:104E100014F0D0F9BDE74A4903A814F033F903A907
:104E2000280014F08CFA070003A814F0DCF8002F17
:104E3000AFD0280014F05FFB636A002BE6D011F0BE
:104E4000A5FD2061404BB200D058002803D0036874
:104E500029001B6898470136082EF3D1D6E70A2EA1
:104E600097D111F093FD3949206103A814F00AF994
:104E700003A9280014F0EDFA060003A814F0B3F813
:104E8000731C22D0A761A369002B82D0A26A002ADA
:104E900013D0012B4ADD03A8636A3200290014F005
:104EA000DFFA03A814F09FF8280014F024FB29006F
:104EB000A06A14F05DF90023A36200232149237541
:104EC000280014F077F907B0F0BD214903A814F0C9
:104ED000D9F803A9280014F0BCFA060003A814F0BE
:104EE00082F8731C02D00223A361CCE7194903A8FE
:104EF00014F0C8F803A9280014F0ABFA060003A8C0
:104F000014F071F8731C01D00323EDE7124903A8D4
:104F100014F0B8F803A9280014F09BFA060003A8BF
:104F200014F061F8731CAED00423DDE731002800D3
:104F300014F0CEFAB8E7C04648460020F41D02003F
:104F4000F91D0200244E02004C460020F71D02000D
:104F5000FC1D0200041E0200111E020010B5040018
:104F6000FFF714FFA06910BD70B5826204000E0047
:104F700011F00CFD050011F009FD401BB04208D2F4
:104F80002000FFF703FFA0690028F4D00023A362EC
:104F900070BD00232000A3621C30034914F00AF9FD
:104FA00001204042F4E7C046244E020010B5040040
:104FB0000549FFF7B3FE0022C8212000FFF7D4FF08
:104FC00001384342584110BDF41D020070B5050080
:104FD0000E0011F0DBFC040011F0D8FC001BB04205
:104FE00008D22800FFF7E2FF012804D0642011F066
:104FF00003FDF1E7002070BD10B507490400FFF77D
:105000008DFEFA21002289002000FFF7ADFF013854
:105010004342584110BDC046CA0E020070B504009C
:10502000E1230D00616800685B02994200D9190014
:105030000368DB699847E3680121D8B211F0E0FE0C
:10504000E3680121D8B211F027FFA06800283CDBFB
:10505000002D3AD0C0B2012111F0D2FEA368012187
:10506000D8B211F019FF642011F0C6FCA36800212A
:10507000D8B211F011FF1C492000FFF7A7FF00284C
:1050800029D0E12362685B0201209A4224D91749A2
:105090002000FFF75DFE0022C8212000FFF764FF1B
:1050A000012818D1206803685B6A9847642011F0D2
:1050B000A3FC206861680368DB6998470A492000FF
:1050C000FFF784FF431E984106E007492000FFF7E1
:1050D0007DFF002801D1002070BD2000FFF78CFF6C
:1050E0000028C8D1F7E7C046102700001B1E0200A9
:1050F00081627047002310B5054A98008458002C3F
:1051000001D1815010BD0133082BF6D1FAE7C0461A
:105110004C460020002310B5054A980084588C4264
:1051200002D10023835010BD0133082BF5D1FAE7DB
:105130004C4600202323E12213B5074C0093520272
:10514000043B06492000FFF7C5FD054A054920003C
:1051500014F0ACFA13BDC0461C460020C44D00201C
:1051600000000020C54C000070B5002504000E00B2
:105170000849057045608560C16001614161183072
:1051800013F080FF6562AE4202D00348FFF7BEFD18
:10519000200070BD244E02001C460020F0B50378AC
:1051A00085B005000224002B21D07F4E3000FFF790
:1051B000D5FE041E1BD03000FFF7E8FD6F68172FE7
:1051C00015D8380014F07AFA0C161D2529345968C0
:1051D0006C72757B7F85898F939A9EB2B7BDC2CD65
:1051E00072493000FFF79AFD01233C006B602000FC
:1051F00005B0F0BD0223012C08DD002302242B7032
:10520000F5E76B493000FFF789FD03236B6000244D
:10521000EDE7012CF1DC0423F8E729003000183118
:10522000FFF766FF63493000FFF778FD0523EDE7E0
:10523000012CF0DC2E006049183601A813F022FF83
:1052400001A9300014F07BF8040001A813F0CBFE94
:10525000002C01D00A23D9E7584901A813F012FF06
:10526000300001A914F06BF8060001A813F0BBFE92
:10527000002EC2D006236B60B9E7AB68002BBCD010
:10528000290030001831FFF733FFAA684C4930007D
:10529000FFF75EFD0723B9E70823012CB6DDACE775
:1052A00048493000FFF73AFD0923AFE7012CD1DD73
:1052B000A3E745493000FFF731FD0B23A6E70C2398
:1052C000012CA3DD99E741493000FFF727FD0D23AD
:1052D0009CE70E23012C99DD8FE73D493000FFF755
:1052E0001DFD0F2392E71023012C8FDD85E7EA686F
:1052F00038493000FFF72CFD112387E71223012CDA
:1053000084DD7AE72B6969691A78002A02D10A7864
:10531000002A06D00A0030002F49FFF719FD132399
:1053200074E72E493000FFF713FDF8E71423012C32
:1053300000DC6BE761E72A493000FFF7EFFC15233B
:1053400064E7012C00DD58E716235FE729003000F1
:105350001831FFF7CDFE23493000FFF7DFFC17239C
:1053600054E7012C00DD48E728002B6A1830591E4D
:1053700014F012F8FB230340302BE5D0312B02D080
:105380003038082805D118236B60153B2B70012499
:105390002DE7022803D1162328706B6037E7032816
:1053A00000D024E729E7C0461C460020301E02003A
:1053B0003A1E0200441E02004D1E0200531E02004F
:1053C0005B1E0200D61D0200681E0200721E020053
:1053D000801E02008A1E0200A11E0200BB1E0200E7
:1053E0000C0F0200261E0200F7B51D0008AB1600C8
:1053F00004CB0F0019780AAB1B7804001548009203
:105400000193FFF70BFE002803D1002323702078BF
:10541000FEBD009B0020636101232370019BA760F8
:10542000E660256160608342F2D011F0AFFA0500BA
:105430002000FFF7B3FE0028E9D1636A002B05D0F6
:1054400011F0A4FA636A401B9842DED2642011F086
:10545000D3FAEDE71C46002030B51C0085B008AB40
:105460001D78044B029501940093FFF7BDFF05B032
:1054700030BDC046244E0200F0B58DB028496846C4
:1054800013F000FE274C28492000FFF747FC6A462E
:1054900064212000FFF768FD012806D00026684639
:1054A00013F0A1FD30000DB0F0BD2D21684613F0C2
:1054B000A4FF0100431C02D0684614F009F803AAB7
:1054C0001A49009818F032FE0028E7D003A817F018
:1054D000CFFA06000F0068461A2113F05DFF1B216A
:1054E0000400684613F058FF0A23303C6343303809
:1054F0001818E1239B00584319210400C51768467A
:1055000013F04AFF2D2802D136196F41C7E7192140
:10551000684613F041FF2B28C1D1361BAF41BEE7CF
:10552000244E02001C460020CC1E0200D51E0200A4
:10553000007870470020704713B56B460268D97138
:105540000733546819000122A04716BD8069013055
:10555000431E9841C0B2704713B56B46DC1D03680B
:1055600001225B6A21009847012801D1207816BDED
:1055700001204042FBE77047094B01001A0010B5BB
:105580000400083254330260036110310548FFF70C
:10559000C1FD2000343013F026FD200010BDC046B0
:1055A0009C1F02001C46002010B50400FFF7E4FF1A
:1055B000200013F0F7FF200010BD0000F0B5474EAB
:1055C00089B004003000FFF7C9FC051E17D0236A1C
:1055D000581E092813D8002314F070F80514373E1C
:1055E00043494D6E737A210030003431FFF780FD5E
:1055F0003B493000FFF792FB02230025236228007D
:1056000009B0F0BD012D0FDC26003649343605A85F
:1056100013F038FD05A9300013F085FE070005A83A
:1056200013F0E1FC002F02D100232362E7E7E36BD4
:105630003000591E13F0B0FE23003038A061323321
:105640001B78002B15D00323D7E7A2692649300029
:10565000FFF77EFB0423D0E70523012DCDDD0923D1
:10566000CBE722493000FFF759FB0623C5E7012DA0
:10567000F5DC0723C1E7E36A218EA269002B06D07F
:10568000009130001A49FFF763FB0823B5E72300B8
:1056900028331B78039121002B31097830000291C7
:1056A00021002A31097801912100293109780091DE
:1056B0001049FFF74DFBE8E7012DD0DC0122E26144
:1056C000B3E7A2690C493000FFF742FB0A2394E7D5
:1056D000236201235B42A36191E7C0461C46002080
:1056E000EF1E0200FA1E0200031F0200141F020038
:1056F000251F0200391F0200561F020010B5036863
:1057000004001B699847002804DDA169034800F0E4
:1057100047FB10BD01204042FBE7C0466C4600201D
:1057200070B50025826904000562AA4211DB094EAA
:1057300009493000FFF70CFB2A0008493000FFF749
:1057400013FCA169064800F053FA01235B42A361F0
:10575000E56170BD1C460020561F020010270000A6
:105760006C46002010B504000D48FFF70FFBA1693F
:1057700000204B1C12D00B4800F064FA002808DB14
:10578000230032331B780120002B07D0E369002B64
:1057900004D1236820009B6A9847002010BDC046B2
:1057A0001C4600206C46002010B5037D0400002B31
:1057B0000AD023682000DB6B98470028F9D0A16944
:1057C0004B1C07D1002010BD0368DB6B98470028F5
:1057D000F5D1F7E7044800F035FA0028F3DA23683A
:1057E00020009B6A9847EDE76C46002070B58369FE
:1057F00004000E001500013301D1002070BD002A05
:10580000FBD003681B6998470028F6D02B003200B4
:10581000A169024800F0D4FAF0E7C0466C460020C7
:105820007FB50C000500134901A813F02BFC01A95A
:10583000200013F078FD060001A813F0D4FB002E21
:1058400017D00921200013F0A7FDAB69303883423F
:105850000FD1094901A813F015FC200001A913F08C
:105860006EFD040001A813F0BEFB002C01D0002344
:10587000EB617FBD851F02008F1F020008B4024B41
:105880009C46103808BC6047215800000300F0B562
:105890008FB0039133331B7804001500002B0DD01B
:1058A00023682000DB6B98470028F9D0A3690133F7
:1058B0000AD10023009300980FB0F0BD0368DB6BA2
:1058C00098470028F2D1F4E7484905A813F0DAFB1D
:1058D000802329005B009D4200D919004900133143
:1058E00005A813F0A1FB00230093002D71D08023A5
:1058F0002E005B009D4200D91E007100133105A8E7
:1059000013F092FB3A4905A813F054FCA16905A8CD
:1059100013F0BEFC374905A813F0A8FC310005A818
:1059200013F0C3FC344905A813F0A0FC009A039BB4
:105930009446634402930193019B0F221F783B0915
:10594000190017403031092B01D93733190005A848
:1059500013F095FC39003031092F00D9073105A823
:1059600013F08DFC019B029A013301939B1A9E4216
:10597000E2D8224905A813F079FC214F0599380097
:10598000FFF7CCF9230033331B78002B28D01749BD
:1059900008A813F077FB08AA1A493800FFF7E4FAC1
:1059A00001281AD0042811D117490BA813F06AFB5B
:1059B0000BA908A813F004FD05000BA813F013FBB6
:1059C0006B1C03D0236820009B6A984708A813F03B
:1059D0000AFB05A813F007FB6DE708A813F003FB0B
:1059E000009BAD1B9B1900937FE7C046244E02002D
:1059F000621F0200AE1102006C1F02006D1F020048
:105A00001C460020102700006F1F0200FA2370B50B
:105A100000259B008360124B04004560180008308D
:105A200020602000543323612275A161E5612900C3
:105A30002562243013F07AF923000122200032334A
:105A4000E562258607491D705A70343013F01AFB41
:105A5000210005481031FFF74DFB200070BDC04606
:105A60009C1F0200244E02001C4600200A00012157
:105A700010B504004942FFF7C9FF200010BD10B562
:105A800083690400013302D003689B6A9847237D31
:105A9000002B0BD023682000DB6B98470028F9D03F
:105AA0000120237D2062002B07D110BD2368200038
:105AB000DB6B98470028F3D1F7E723682000DB6B06
:105AC0009847002803D1643010F096FFF5E7A069ED
:105AD0000130431E9841E8E74B6810B5028602008A
:105AE000836200233232C3621370FFF7C8FF10BD18
:105AF00070B504000E0024300021150013F01EF9CB
:105B0000230000223233E662258620001A70FFF758
:105B1000B6FF70BD7047000010B501210248FFF7C5
:105B20007DFA431E984110BD1C46002070B504004C
:105B3000094913F0A7FA0F21200013F075FA074D59
:105B400007492800FFF7EAF8280022006421FFF740
:105B50000BFA200070BDC046244E02001C460020F7
:105B6000F41F02007FB50400164D290013F08AFAD5
:105B70001B21200013F058FA134E14493000FFF790
:105B8000CDF8FA21220089003000FFF7EDF9104925
:105B900001A813F077FA01A9200013F0C4FB060056
:105BA00001A813F020FA002E07D0072200212000C0
